{
	"contracts/Oracle.sol": {
		"Oracle": {
			"abi": [
				{
					"inputs": [],
					"stateMutability": "payable",
					"type": "constructor"
				},
				{
					"inputs": [
						{
							"internalType": "uint256",
							"name": "serverSeed",
							"type": "uint256"
						},
						{
							"internalType": "uint256",
							"name": "playerSeed",
							"type": "uint256"
						}
					],
					"name": "generateSeed",
					"outputs": [
						{
							"internalType": "bytes32",
							"name": "",
							"type": "bytes32"
						}
					],
					"stateMutability": "pure",
					"type": "function"
				},
				{
					"inputs": [],
					"name": "owner",
					"outputs": [
						{
							"internalType": "address",
							"name": "",
							"type": "address"
						}
					],
					"stateMutability": "view",
					"type": "function"
				}
			],
			"devdoc": {
				"kind": "dev",
				"methods": {},
				"version": 1
			},
			"evm": {
				"assembly": "    /* \"contracts/Oracle.sol\":126:982  contract Oracle is IOracle {... */\n  mstore(0x40, 0x80)\n    /* \"contracts/Oracle.sol\":542:552  msg.sender */\n  caller\n    /* \"contracts/Oracle.sol\":526:531  owner */\n  0x00\n  0x00\n    /* \"contracts/Oracle.sol\":526:553  owner = payable(msg.sender) */\n  0x0100\n  exp\n  dup2\n  sload\n  dup2\n  0xffffffffffffffffffffffffffffffffffffffff\n  mul\n  not\n  and\n  swap1\n  dup4\n  0xffffffffffffffffffffffffffffffffffffffff\n  and\n  mul\n  or\n  swap1\n  sstore\n  pop\n    /* \"contracts/Oracle.sol\":126:982  contract Oracle is IOracle {... */\n  dataSize(sub_0)\n  dup1\n  dataOffset(sub_0)\n  0x00\n  codecopy\n  0x00\n  return\nstop\n\nsub_0: assembly {\n        /* \"contracts/Oracle.sol\":126:982  contract Oracle is IOracle {... */\n      mstore(0x40, 0x80)\n      callvalue\n      dup1\n      iszero\n      tag_1\n      jumpi\n      revert(0x00, 0x00)\n    tag_1:\n      pop\n      jumpi(tag_2, lt(calldatasize, 0x04))\n      shr(0xe0, calldataload(0x00))\n      dup1\n      0x041df082\n      eq\n      tag_3\n      jumpi\n      dup1\n      0x8da5cb5b\n      eq\n      tag_4\n      jumpi\n    tag_2:\n      revert(0x00, 0x00)\n        /* \"contracts/Oracle.sol\":777:980  function generateSeed(... */\n    tag_3:\n      tag_5\n      0x04\n      dup1\n      calldatasize\n      sub\n      dup2\n      add\n      swap1\n      tag_6\n      swap2\n      swap1\n      tag_7\n      jump\t// in\n    tag_6:\n      tag_8\n      jump\t// in\n    tag_5:\n      mload(0x40)\n      tag_9\n      swap2\n      swap1\n      tag_10\n      jump\t// in\n    tag_9:\n      mload(0x40)\n      dup1\n      swap2\n      sub\n      swap1\n      return\n        /* \"contracts/Oracle.sol\":180:200  address public owner */\n    tag_4:\n      tag_11\n      tag_12\n      jump\t// in\n    tag_11:\n      mload(0x40)\n      tag_13\n      swap2\n      swap1\n      tag_14\n      jump\t// in\n    tag_13:\n      mload(0x40)\n      dup1\n      swap2\n      sub\n      swap1\n      return\n        /* \"contracts/Oracle.sol\":777:980  function generateSeed(... */\n    tag_8:\n        /* \"contracts/Oracle.sol\":893:900  bytes32 */\n      0x00\n        /* \"contracts/Oracle.sol\":951:972  randomise(serverSeed) */\n      tag_16\n        /* \"contracts/Oracle.sol\":961:971  serverSeed */\n      dup4\n        /* \"contracts/Oracle.sol\":951:960  randomise */\n      tag_17\n        /* \"contracts/Oracle.sol\":951:972  randomise(serverSeed) */\n      jump\t// in\n    tag_16:\n        /* \"contracts/Oracle.sol\":927:948  randomise(playerSeed) */\n      tag_18\n        /* \"contracts/Oracle.sol\":937:947  playerSeed */\n      dup4\n        /* \"contracts/Oracle.sol\":927:936  randomise */\n      tag_17\n        /* \"contracts/Oracle.sol\":927:948  randomise(playerSeed) */\n      jump\t// in\n    tag_18:\n        /* \"contracts/Oracle.sol\":927:972  randomise(playerSeed) % randomise(serverSeed) */\n      tag_19\n      swap2\n      swap1\n      tag_20\n      jump\t// in\n    tag_19:\n        /* \"contracts/Oracle.sol\":919:973  bytes32(randomise(playerSeed) % randomise(serverSeed)) */\n      0x00\n      shl\n        /* \"contracts/Oracle.sol\":912:973  return bytes32(randomise(playerSeed) % randomise(serverSeed)) */\n      swap1\n      pop\n        /* \"contracts/Oracle.sol\":777:980  function generateSeed(... */\n      swap3\n      swap2\n      pop\n      pop\n      jump\t// out\n        /* \"contracts/Oracle.sol\":180:200  address public owner */\n    tag_12:\n      0x00\n      0x00\n      swap1\n      sload\n      swap1\n      0x0100\n      exp\n      swap1\n      div\n      0xffffffffffffffffffffffffffffffffffffffff\n      and\n      dup2\n      jump\t// out\n        /* \"contracts/Oracle.sol\":678:771  function randomise(uint256 seed) internal pure returns (uint256) {... */\n    tag_17:\n        /* \"contracts/Oracle.sol\":734:741  uint256 */\n      0x00\n        /* \"contracts/Oracle.sol\":760:764  seed */\n      dup2\n        /* \"contracts/Oracle.sol\":753:764  return seed */\n      swap1\n      pop\n        /* \"contracts/Oracle.sol\":678:771  function randomise(uint256 seed) internal pure returns (uint256) {... */\n      swap2\n      swap1\n      pop\n      jump\t// out\n        /* \"#utility.yul\":88:205   */\n    tag_23:\n        /* \"#utility.yul\":197:198   */\n      0x00\n        /* \"#utility.yul\":194:195   */\n      0x00\n        /* \"#utility.yul\":187:199   */\n      revert\n        /* \"#utility.yul\":334:411   */\n    tag_25:\n        /* \"#utility.yul\":371:378   */\n      0x00\n        /* \"#utility.yul\":400:405   */\n      dup2\n        /* \"#utility.yul\":389:405   */\n      swap1\n      pop\n        /* \"#utility.yul\":334:411   */\n      swap2\n      swap1\n      pop\n      jump\t// out\n        /* \"#utility.yul\":417:539   */\n    tag_26:\n        /* \"#utility.yul\":490:514   */\n      tag_40\n        /* \"#utility.yul\":508:513   */\n      dup2\n        /* \"#utility.yul\":490:514   */\n      tag_25\n      jump\t// in\n    tag_40:\n        /* \"#utility.yul\":483:488   */\n      dup2\n        /* \"#utility.yul\":480:515   */\n      eq\n        /* \"#utility.yul\":470:533   */\n      tag_41\n      jumpi\n        /* \"#utility.yul\":529:530   */\n      0x00\n        /* \"#utility.yul\":526:527   */\n      0x00\n        /* \"#utility.yul\":519:531   */\n      revert\n        /* \"#utility.yul\":470:533   */\n    tag_41:\n        /* \"#utility.yul\":417:539   */\n      pop\n      jump\t// out\n        /* \"#utility.yul\":545:684   */\n    tag_27:\n        /* \"#utility.yul\":591:596   */\n      0x00\n        /* \"#utility.yul\":629:635   */\n      dup2\n        /* \"#utility.yul\":616:636   */\n      calldataload\n        /* \"#utility.yul\":607:636   */\n      swap1\n      pop\n        /* \"#utility.yul\":645:678   */\n      tag_43\n        /* \"#utility.yul\":672:677   */\n      dup2\n        /* \"#utility.yul\":645:678   */\n      tag_26\n      jump\t// in\n    tag_43:\n        /* \"#utility.yul\":545:684   */\n      swap3\n      swap2\n      pop\n      pop\n      jump\t// out\n        /* \"#utility.yul\":690:1164   */\n    tag_7:\n        /* \"#utility.yul\":758:764   */\n      0x00\n        /* \"#utility.yul\":766:772   */\n      0x00\n        /* \"#utility.yul\":815:817   */\n      0x40\n        /* \"#utility.yul\":803:812   */\n      dup4\n        /* \"#utility.yul\":794:801   */\n      dup6\n        /* \"#utility.yul\":790:813   */\n      sub\n        /* \"#utility.yul\":786:818   */\n      slt\n        /* \"#utility.yul\":783:902   */\n      iszero\n      tag_45\n      jumpi\n        /* \"#utility.yul\":821:900   */\n      tag_46\n      tag_23\n      jump\t// in\n    tag_46:\n        /* \"#utility.yul\":783:902   */\n    tag_45:\n        /* \"#utility.yul\":941:942   */\n      0x00\n        /* \"#utility.yul\":966:1019   */\n      tag_47\n        /* \"#utility.yul\":1011:1018   */\n      dup6\n        /* \"#utility.yul\":1002:1008   */\n      dup3\n        /* \"#utility.yul\":991:1000   */\n      dup7\n        /* \"#utility.yul\":987:1009   */\n      add\n        /* \"#utility.yul\":966:1019   */\n      tag_27\n      jump\t// in\n    tag_47:\n        /* \"#utility.yul\":956:1019   */\n      swap3\n      pop\n        /* \"#utility.yul\":912:1029   */\n      pop\n        /* \"#utility.yul\":1068:1070   */\n      0x20\n        /* \"#utility.yul\":1094:1147   */\n      tag_48\n        /* \"#utility.yul\":1139:1146   */\n      dup6\n        /* \"#utility.yul\":1130:1136   */\n      dup3\n        /* \"#utility.yul\":1119:1128   */\n      dup7\n        /* \"#utility.yul\":1115:1137   */\n      add\n        /* \"#utility.yul\":1094:1147   */\n      tag_27\n      jump\t// in\n    tag_48:\n        /* \"#utility.yul\":1084:1147   */\n      swap2\n      pop\n        /* \"#utility.yul\":1039:1157   */\n      pop\n        /* \"#utility.yul\":690:1164   */\n      swap3\n      pop\n      swap3\n      swap1\n      pop\n      jump\t// out\n        /* \"#utility.yul\":1170:1247   */\n    tag_28:\n        /* \"#utility.yul\":1207:1214   */\n      0x00\n        /* \"#utility.yul\":1236:1241   */\n      dup2\n        /* \"#utility.yul\":1225:1241   */\n      swap1\n      pop\n        /* \"#utility.yul\":1170:1247   */\n      swap2\n      swap1\n      pop\n      jump\t// out\n        /* \"#utility.yul\":1253:1371   */\n    tag_29:\n        /* \"#utility.yul\":1340:1364   */\n      tag_51\n        /* \"#utility.yul\":1358:1363   */\n      dup2\n        /* \"#utility.yul\":1340:1364   */\n      tag_28\n      jump\t// in\n    tag_51:\n        /* \"#utility.yul\":1335:1338   */\n      dup3\n        /* \"#utility.yul\":1328:1365   */\n      mstore\n        /* \"#utility.yul\":1253:1371   */\n      pop\n      pop\n      jump\t// out\n        /* \"#utility.yul\":1377:1599   */\n    tag_10:\n        /* \"#utility.yul\":1470:1474   */\n      0x00\n        /* \"#utility.yul\":1508:1510   */\n      0x20\n        /* \"#utility.yul\":1497:1506   */\n      dup3\n        /* \"#utility.yul\":1493:1511   */\n      add\n        /* \"#utility.yul\":1485:1511   */\n      swap1\n      pop\n        /* \"#utility.yul\":1521:1592   */\n      tag_53\n        /* \"#utility.yul\":1589:1590   */\n      0x00\n        /* \"#utility.yul\":1578:1587   */\n      dup4\n        /* \"#utility.yul\":1574:1591   */\n      add\n        /* \"#utility.yul\":1565:1571   */\n      dup5\n        /* \"#utility.yul\":1521:1592   */\n      tag_29\n      jump\t// in\n    tag_53:\n        /* \"#utility.yul\":1377:1599   */\n      swap3\n      swap2\n      pop\n      pop\n      jump\t// out\n        /* \"#utility.yul\":1605:1731   */\n    tag_30:\n        /* \"#utility.yul\":1642:1649   */\n      0x00\n        /* \"#utility.yul\":1682:1724   */\n      0xffffffffffffffffffffffffffffffffffffffff\n        /* \"#utility.yul\":1675:1680   */\n      dup3\n        /* \"#utility.yul\":1671:1725   */\n      and\n        /* \"#utility.yul\":1660:1725   */\n      swap1\n      pop\n        /* \"#utility.yul\":1605:1731   */\n      swap2\n      swap1\n      pop\n      jump\t// out\n        /* \"#utility.yul\":1737:1833   */\n    tag_31:\n        /* \"#utility.yul\":1774:1781   */\n      0x00\n        /* \"#utility.yul\":1803:1827   */\n      tag_56\n        /* \"#utility.yul\":1821:1826   */\n      dup3\n        /* \"#utility.yul\":1803:1827   */\n      tag_30\n      jump\t// in\n    tag_56:\n        /* \"#utility.yul\":1792:1827   */\n      swap1\n      pop\n        /* \"#utility.yul\":1737:1833   */\n      swap2\n      swap1\n      pop\n      jump\t// out\n        /* \"#utility.yul\":1839:1957   */\n    tag_32:\n        /* \"#utility.yul\":1926:1950   */\n      tag_58\n        /* \"#utility.yul\":1944:1949   */\n      dup2\n        /* \"#utility.yul\":1926:1950   */\n      tag_31\n      jump\t// in\n    tag_58:\n        /* \"#utility.yul\":1921:1924   */\n      dup3\n        /* \"#utility.yul\":1914:1951   */\n      mstore\n        /* \"#utility.yul\":1839:1957   */\n      pop\n      pop\n      jump\t// out\n        /* \"#utility.yul\":1963:2185   */\n    tag_14:\n        /* \"#utility.yul\":2056:2060   */\n      0x00\n        /* \"#utility.yul\":2094:2096   */\n      0x20\n        /* \"#utility.yul\":2083:2092   */\n      dup3\n        /* \"#utility.yul\":2079:2097   */\n      add\n        /* \"#utility.yul\":2071:2097   */\n      swap1\n      pop\n        /* \"#utility.yul\":2107:2178   */\n      tag_60\n        /* \"#utility.yul\":2175:2176   */\n      0x00\n        /* \"#utility.yul\":2164:2173   */\n      dup4\n        /* \"#utility.yul\":2160:2177   */\n      add\n        /* \"#utility.yul\":2151:2157   */\n      dup5\n        /* \"#utility.yul\":2107:2178   */\n      tag_32\n      jump\t// in\n    tag_60:\n        /* \"#utility.yul\":1963:2185   */\n      swap3\n      swap2\n      pop\n      pop\n      jump\t// out\n        /* \"#utility.yul\":2191:2371   */\n    tag_33:\n        /* \"#utility.yul\":2239:2316   */\n      0x4e487b7100000000000000000000000000000000000000000000000000000000\n        /* \"#utility.yul\":2236:2237   */\n      0x00\n        /* \"#utility.yul\":2229:2317   */\n      mstore\n        /* \"#utility.yul\":2336:2340   */\n      0x12\n        /* \"#utility.yul\":2333:2334   */\n      0x04\n        /* \"#utility.yul\":2326:2341   */\n      mstore\n        /* \"#utility.yul\":2360:2364   */\n      0x24\n        /* \"#utility.yul\":2357:2358   */\n      0x00\n        /* \"#utility.yul\":2350:2365   */\n      revert\n        /* \"#utility.yul\":2377:2553   */\n    tag_20:\n        /* \"#utility.yul\":2409:2410   */\n      0x00\n        /* \"#utility.yul\":2426:2446   */\n      tag_63\n        /* \"#utility.yul\":2444:2445   */\n      dup3\n        /* \"#utility.yul\":2426:2446   */\n      tag_25\n      jump\t// in\n    tag_63:\n        /* \"#utility.yul\":2421:2446   */\n      swap2\n      pop\n        /* \"#utility.yul\":2460:2480   */\n      tag_64\n        /* \"#utility.yul\":2478:2479   */\n      dup4\n        /* \"#utility.yul\":2460:2480   */\n      tag_25\n      jump\t// in\n    tag_64:\n        /* \"#utility.yul\":2455:2480   */\n      swap3\n      pop\n        /* \"#utility.yul\":2499:2500   */\n      dup3\n        /* \"#utility.yul\":2489:2524   */\n      tag_65\n      jumpi\n        /* \"#utility.yul\":2504:2522   */\n      tag_66\n      tag_33\n      jump\t// in\n    tag_66:\n        /* \"#utility.yul\":2489:2524   */\n    tag_65:\n        /* \"#utility.yul\":2545:2546   */\n      dup3\n        /* \"#utility.yul\":2542:2543   */\n      dup3\n        /* \"#utility.yul\":2538:2547   */\n      mod\n        /* \"#utility.yul\":2533:2547   */\n      swap1\n      pop\n        /* \"#utility.yul\":2377:2553   */\n      swap3\n      swap2\n      pop\n      pop\n      jump\t// out\n\n    auxdata: 0xa26469706673582212207fc06ff215caada8feb11fa0bd3c179a0418550a701544020b9207679e823b4264736f6c634300081e0033\n}\n",
				"bytecode": {
					"linkReferences": {},
					"object": "6080604052335f5f6101000a81548173ffffffffffffffffffffffffffffffffffffffff021916908373ffffffffffffffffffffffffffffffffffffffff16021790555061026b806100505f395ff3fe608060405234801561000f575f5ffd5b5060043610610034575f3560e01c8063041df082146100385780638da5cb5b14610068575b5f5ffd5b610052600480360381019061004d9190610111565b610086565b60405161005f9190610167565b60405180910390f35b6100706100ad565b60405161007d91906101bf565b60405180910390f35b5f610090836100d1565b610099836100d1565b6100a39190610205565b5f1b905092915050565b5f5f9054906101000a900473ffffffffffffffffffffffffffffffffffffffff1681565b5f819050919050565b5f5ffd5b5f819050919050565b6100f0816100de565b81146100fa575f5ffd5b50565b5f8135905061010b816100e7565b92915050565b5f5f60408385031215610127576101266100da565b5b5f610134858286016100fd565b9250506020610145858286016100fd565b9150509250929050565b5f819050919050565b6101618161014f565b82525050565b5f60208201905061017a5f830184610158565b92915050565b5f73ffffffffffffffffffffffffffffffffffffffff82169050919050565b5f6101a982610180565b9050919050565b6101b98161019f565b82525050565b5f6020820190506101d25f8301846101b0565b92915050565b7f4e487b71000000000000000000000000000000000000000000000000000000005f52601260045260245ffd5b5f61020f826100de565b915061021a836100de565b92508261022a576102296101d8565b5b82820690509291505056fea26469706673582212207fc06ff215caada8feb11fa0bd3c179a0418550a701544020b9207679e823b4264736f6c634300081e0033",
					"opcodes": "PUSH1 0x80 PUSH1 0x40 MSTORE CALLER PUSH0 PUSH0 PUSH2 0x100 EXP DUP2 SLOAD DUP2 PUSH20 0xFFFFFFFFFFFFFFFFFFFFFFFFFFFFFFFFFFFFFFFF MUL NOT AND SWAP1 DUP4 PUSH20 0xFFFFFFFFFFFFFFFFFFFFFFFFFFFFFFFFFFFFFFFF AND MUL OR SWAP1 SSTORE POP PUSH2 0x26B DUP1 PUSH2 0x50 PUSH0 CODECOPY PUSH0 RETURN INVALID PUSH1 0x80 PUSH1 0x40 MSTORE CALLVALUE DUP1 ISZERO PUSH2 0xF JUMPI PUSH0 PUSH0 REVERT JUMPDEST POP PUSH1 0x4 CALLDATASIZE LT PUSH2 0x34 JUMPI PUSH0 CALLDATALOAD PUSH1 0xE0 SHR DUP1 PUSH4 0x41DF082 EQ PUSH2 0x38 JUMPI DUP1 PUSH4 0x8DA5CB5B EQ PUSH2 0x68 JUMPI JUMPDEST PUSH0 PUSH0 REVERT JUMPDEST PUSH2 0x52 PUSH1 0x4 DUP1 CALLDATASIZE SUB DUP2 ADD SWAP1 PUSH2 0x4D SWAP2 SWAP1 PUSH2 0x111 JUMP JUMPDEST PUSH2 0x86 JUMP JUMPDEST PUSH1 0x40 MLOAD PUSH2 0x5F SWAP2 SWAP1 PUSH2 0x167 JUMP JUMPDEST PUSH1 0x40 MLOAD DUP1 SWAP2 SUB SWAP1 RETURN JUMPDEST PUSH2 0x70 PUSH2 0xAD JUMP JUMPDEST PUSH1 0x40 MLOAD PUSH2 0x7D SWAP2 SWAP1 PUSH2 0x1BF JUMP JUMPDEST PUSH1 0x40 MLOAD DUP1 SWAP2 SUB SWAP1 RETURN JUMPDEST PUSH0 PUSH2 0x90 DUP4 PUSH2 0xD1 JUMP JUMPDEST PUSH2 0x99 DUP4 PUSH2 0xD1 JUMP JUMPDEST PUSH2 0xA3 SWAP2 SWAP1 PUSH2 0x205 JUMP JUMPDEST PUSH0 SHL SWAP1 POP SWAP3 SWAP2 POP POP JUMP JUMPDEST PUSH0 PUSH0 SWAP1 SLOAD SWAP1 PUSH2 0x100 EXP SWAP1 DIV PUSH20 0xFFFFFFFFFFFFFFFFFFFFFFFFFFFFFFFFFFFFFFFF AND DUP2 JUMP JUMPDEST PUSH0 DUP2 SWAP1 POP SWAP2 SWAP1 POP JUMP JUMPDEST PUSH0 PUSH0 REVERT JUMPDEST PUSH0 DUP2 SWAP1 POP SWAP2 SWAP1 POP JUMP JUMPDEST PUSH2 0xF0 DUP2 PUSH2 0xDE JUMP JUMPDEST DUP2 EQ PUSH2 0xFA JUMPI PUSH0 PUSH0 REVERT JUMPDEST POP JUMP JUMPDEST PUSH0 DUP2 CALLDATALOAD SWAP1 POP PUSH2 0x10B DUP2 PUSH2 0xE7 JUMP JUMPDEST SWAP3 SWAP2 POP POP JUMP JUMPDEST PUSH0 PUSH0 PUSH1 0x40 DUP4 DUP6 SUB SLT ISZERO PUSH2 0x127 JUMPI PUSH2 0x126 PUSH2 0xDA JUMP JUMPDEST JUMPDEST PUSH0 PUSH2 0x134 DUP6 DUP3 DUP7 ADD PUSH2 0xFD JUMP JUMPDEST SWAP3 POP POP PUSH1 0x20 PUSH2 0x145 DUP6 DUP3 DUP7 ADD PUSH2 0xFD JUMP JUMPDEST SWAP2 POP POP SWAP3 POP SWAP3 SWAP1 POP JUMP JUMPDEST PUSH0 DUP2 SWAP1 POP SWAP2 SWAP1 POP JUMP JUMPDEST PUSH2 0x161 DUP2 PUSH2 0x14F JUMP JUMPDEST DUP3 MSTORE POP POP JUMP JUMPDEST PUSH0 PUSH1 0x20 DUP3 ADD SWAP1 POP PUSH2 0x17A PUSH0 DUP4 ADD DUP5 PUSH2 0x158 JUMP JUMPDEST SWAP3 SWAP2 POP POP JUMP JUMPDEST PUSH0 PUSH20 0xFFFFFFFFFFFFFFFFFFFFFFFFFFFFFFFFFFFFFFFF DUP3 AND SWAP1 POP SWAP2 SWAP1 POP JUMP JUMPDEST PUSH0 PUSH2 0x1A9 DUP3 PUSH2 0x180 JUMP JUMPDEST SWAP1 POP SWAP2 SWAP1 POP JUMP JUMPDEST PUSH2 0x1B9 DUP2 PUSH2 0x19F JUMP JUMPDEST DUP3 MSTORE POP POP JUMP JUMPDEST PUSH0 PUSH1 0x20 DUP3 ADD SWAP1 POP PUSH2 0x1D2 PUSH0 DUP4 ADD DUP5 PUSH2 0x1B0 JUMP JUMPDEST SWAP3 SWAP2 POP POP JUMP JUMPDEST PUSH32 0x4E487B7100000000000000000000000000000000000000000000000000000000 PUSH0 MSTORE PUSH1 0x12 PUSH1 0x4 MSTORE PUSH1 0x24 PUSH0 REVERT JUMPDEST PUSH0 PUSH2 0x20F DUP3 PUSH2 0xDE JUMP JUMPDEST SWAP2 POP PUSH2 0x21A DUP4 PUSH2 0xDE JUMP JUMPDEST SWAP3 POP DUP3 PUSH2 0x22A JUMPI PUSH2 0x229 PUSH2 0x1D8 JUMP JUMPDEST JUMPDEST DUP3 DUP3 MOD SWAP1 POP SWAP3 SWAP2 POP POP JUMP INVALID LOG2 PUSH5 0x6970667358 0x22 SLT KECCAK256 PUSH32 0xC06FF215CAADA8FEB11FA0BD3C179A0418550A701544020B9207679E823B4264 PUSH20 0x6F6C634300081E00330000000000000000000000 "
				},
				"gasEstimates": {
					"creation": {
						"codeDepositCost": "123800",
						"executionCost": "24409",
						"totalCost": "148209"
					},
					"external": {
						"generateSeed(uint256,uint256)": "infinite",
						"owner()": "2507"
					},
					"internal": {
						"randomise(uint256)": "27"
					}
				},
				"methodIdentifiers": {
					"generateSeed(uint256,uint256)": "041df082",
					"owner()": "8da5cb5b"
				}
			},
			"storageLayout": {
				"storage": [
					{
						"astId": 61,
						"contract": "contracts/Oracle.sol:Oracle",
						"label": "owner",
						"offset": 0,
						"slot": "0",
						"type": "t_address"
					}
				],
				"types": {
					"t_address": {
						"encoding": "inplace",
						"label": "address",
						"numberOfBytes": "20"
					}
				}
			},
			"userdoc": {
				"kind": "user",
				"methods": {},
				"version": 1
			}
		}
	}
}