{
	"contracts/BlackJackTable.sol": {
		"BlackJackTable": {
			"abi": [
				{
					"inputs": [
						{
							"internalType": "address",
							"name": "_vault",
							"type": "address"
						},
						{
							"internalType": "address",
							"name": "_oracle",
							"type": "address"
						}
					],
					"stateMutability": "nonpayable",
					"type": "constructor"
				},
				{
					"anonymous": false,
					"inputs": [
						{
							"indexed": false,
							"internalType": "uint256",
							"name": "tokenID",
							"type": "uint256"
						},
						{
							"indexed": false,
							"internalType": "address",
							"name": "player",
							"type": "address"
						},
						{
							"indexed": false,
							"internalType": "uint256",
							"name": "bet",
							"type": "uint256"
						},
						{
							"indexed": false,
							"internalType": "bytes32",
							"name": "finalSeed",
							"type": "bytes32"
						}
					],
					"name": "BetPlaced",
					"type": "event"
				},
				{
					"anonymous": false,
					"inputs": [
						{
							"indexed": false,
							"internalType": "address",
							"name": "player",
							"type": "address"
						},
						{
							"indexed": false,
							"internalType": "uint8",
							"name": "card",
							"type": "uint8"
						}
					],
					"name": "CardDrawn",
					"type": "event"
				},
				{
					"anonymous": false,
					"inputs": [
						{
							"indexed": false,
							"internalType": "uint256",
							"name": "tokenID",
							"type": "uint256"
						},
						{
							"indexed": false,
							"internalType": "address",
							"name": "player",
							"type": "address"
						}
					],
					"name": "GameCreated",
					"type": "event"
				},
				{
					"anonymous": false,
					"inputs": [
						{
							"indexed": false,
							"internalType": "address",
							"name": "player",
							"type": "address"
						},
						{
							"indexed": false,
							"internalType": "enum Result",
							"name": "result",
							"type": "uint8"
						}
					],
					"name": "GameEnded",
					"type": "event"
				},
				{
					"inputs": [
						{
							"internalType": "uint256",
							"name": "_playerSeed",
							"type": "uint256"
						}
					],
					"name": "assignToken",
					"outputs": [],
					"stateMutability": "nonpayable",
					"type": "function"
				},
				{
					"inputs": [],
					"name": "hit",
					"outputs": [],
					"stateMutability": "nonpayable",
					"type": "function"
				},
				{
					"inputs": [],
					"name": "nextGameID",
					"outputs": [
						{
							"internalType": "uint256",
							"name": "",
							"type": "uint256"
						}
					],
					"stateMutability": "view",
					"type": "function"
				},
				{
					"inputs": [],
					"name": "oracle",
					"outputs": [
						{
							"internalType": "contract IOracle",
							"name": "",
							"type": "address"
						}
					],
					"stateMutability": "view",
					"type": "function"
				},
				{
					"inputs": [
						{
							"internalType": "uint256",
							"name": "bet",
							"type": "uint256"
						}
					],
					"name": "placeBets",
					"outputs": [],
					"stateMutability": "nonpayable",
					"type": "function"
				},
				{
					"inputs": [],
					"name": "stand",
					"outputs": [],
					"stateMutability": "nonpayable",
					"type": "function"
				},
				{
					"inputs": [],
					"name": "vault",
					"outputs": [
						{
							"internalType": "contract IVault",
							"name": "",
							"type": "address"
						}
					],
					"stateMutability": "view",
					"type": "function"
				}
			],
			"devdoc": {
				"kind": "dev",
				"methods": {},
				"version": 1
			},
			"evm": {
				"assembly": "    /* \"contracts/BlackJackTable.sol\":196:8318  contract BlackJackTable {... */\n  mstore(0x40, 0x80)\n    /* \"contracts/BlackJackTable.sol\":345:467  constructor(address _vault, address _oracle) {... */\n  callvalue\n  dup1\n  iszero\n  tag_1\n  jumpi\n  revert(0x00, 0x00)\ntag_1:\n  pop\n  mload(0x40)\n  sub(codesize, bytecodeSize)\n  dup1\n  bytecodeSize\n  dup4\n  codecopy\n  dup2\n  dup2\n  add\n  0x40\n  mstore\n  dup2\n  add\n  swap1\n  tag_2\n  swap2\n  swap1\n  tag_3\n  jump\t// in\ntag_2:\n    /* \"contracts/BlackJackTable.sol\":416:422  _vault */\n  dup2\n    /* \"contracts/BlackJackTable.sol\":401:406  vault */\n  0x00\n  0x00\n    /* \"contracts/BlackJackTable.sol\":401:423  vault = IVault(_vault) */\n  0x0100\n  exp\n  dup2\n  sload\n  dup2\n  0xffffffffffffffffffffffffffffffffffffffff\n  mul\n  not\n  and\n  swap1\n  dup4\n  0xffffffffffffffffffffffffffffffffffffffff\n  and\n  mul\n  or\n  swap1\n  sstore\n  pop\n    /* \"contracts/BlackJackTable.sol\":451:458  _oracle */\n  dup1\n    /* \"contracts/BlackJackTable.sol\":434:440  oracle */\n  0x01\n  0x00\n    /* \"contracts/BlackJackTable.sol\":434:459  oracle = IOracle(_oracle) */\n  0x0100\n  exp\n  dup2\n  sload\n  dup2\n  0xffffffffffffffffffffffffffffffffffffffff\n  mul\n  not\n  and\n  swap1\n  dup4\n  0xffffffffffffffffffffffffffffffffffffffff\n  and\n  mul\n  or\n  swap1\n  sstore\n  pop\n    /* \"contracts/BlackJackTable.sol\":345:467  constructor(address _vault, address _oracle) {... */\n  pop\n  pop\n    /* \"contracts/BlackJackTable.sol\":196:8318  contract BlackJackTable {... */\n  jump(tag_6)\n    /* \"#utility.yul\":88:205   */\ntag_8:\n    /* \"#utility.yul\":197:198   */\n  0x00\n    /* \"#utility.yul\":194:195   */\n  0x00\n    /* \"#utility.yul\":187:199   */\n  revert\n    /* \"#utility.yul\":334:460   */\ntag_10:\n    /* \"#utility.yul\":371:378   */\n  0x00\n    /* \"#utility.yul\":411:453   */\n  0xffffffffffffffffffffffffffffffffffffffff\n    /* \"#utility.yul\":404:409   */\n  dup3\n    /* \"#utility.yul\":400:454   */\n  and\n    /* \"#utility.yul\":389:454   */\n  swap1\n  pop\n    /* \"#utility.yul\":334:460   */\n  swap2\n  swap1\n  pop\n  jump\t// out\n    /* \"#utility.yul\":466:562   */\ntag_11:\n    /* \"#utility.yul\":503:510   */\n  0x00\n    /* \"#utility.yul\":532:556   */\n  tag_20\n    /* \"#utility.yul\":550:555   */\n  dup3\n    /* \"#utility.yul\":532:556   */\n  tag_10\n  jump\t// in\ntag_20:\n    /* \"#utility.yul\":521:556   */\n  swap1\n  pop\n    /* \"#utility.yul\":466:562   */\n  swap2\n  swap1\n  pop\n  jump\t// out\n    /* \"#utility.yul\":568:690   */\ntag_12:\n    /* \"#utility.yul\":641:665   */\n  tag_22\n    /* \"#utility.yul\":659:664   */\n  dup2\n    /* \"#utility.yul\":641:665   */\n  tag_11\n  jump\t// in\ntag_22:\n    /* \"#utility.yul\":634:639   */\n  dup2\n    /* \"#utility.yul\":631:666   */\n  eq\n    /* \"#utility.yul\":621:684   */\n  tag_23\n  jumpi\n    /* \"#utility.yul\":680:681   */\n  0x00\n    /* \"#utility.yul\":677:678   */\n  0x00\n    /* \"#utility.yul\":670:682   */\n  revert\n    /* \"#utility.yul\":621:684   */\ntag_23:\n    /* \"#utility.yul\":568:690   */\n  pop\n  jump\t// out\n    /* \"#utility.yul\":696:839   */\ntag_13:\n    /* \"#utility.yul\":753:758   */\n  0x00\n    /* \"#utility.yul\":784:790   */\n  dup2\n    /* \"#utility.yul\":778:791   */\n  mload\n    /* \"#utility.yul\":769:791   */\n  swap1\n  pop\n    /* \"#utility.yul\":800:833   */\n  tag_25\n    /* \"#utility.yul\":827:832   */\n  dup2\n    /* \"#utility.yul\":800:833   */\n  tag_12\n  jump\t// in\ntag_25:\n    /* \"#utility.yul\":696:839   */\n  swap3\n  swap2\n  pop\n  pop\n  jump\t// out\n    /* \"#utility.yul\":845:1352   */\ntag_3:\n    /* \"#utility.yul\":924:930   */\n  0x00\n    /* \"#utility.yul\":932:938   */\n  0x00\n    /* \"#utility.yul\":981:983   */\n  0x40\n    /* \"#utility.yul\":969:978   */\n  dup4\n    /* \"#utility.yul\":960:967   */\n  dup6\n    /* \"#utility.yul\":956:979   */\n  sub\n    /* \"#utility.yul\":952:984   */\n  slt\n    /* \"#utility.yul\":949:1068   */\n  iszero\n  tag_27\n  jumpi\n    /* \"#utility.yul\":987:1066   */\n  tag_28\n  tag_8\n  jump\t// in\ntag_28:\n    /* \"#utility.yul\":949:1068   */\ntag_27:\n    /* \"#utility.yul\":1107:1108   */\n  0x00\n    /* \"#utility.yul\":1132:1196   */\n  tag_29\n    /* \"#utility.yul\":1188:1195   */\n  dup6\n    /* \"#utility.yul\":1179:1185   */\n  dup3\n    /* \"#utility.yul\":1168:1177   */\n  dup7\n    /* \"#utility.yul\":1164:1186   */\n  add\n    /* \"#utility.yul\":1132:1196   */\n  tag_13\n  jump\t// in\ntag_29:\n    /* \"#utility.yul\":1122:1196   */\n  swap3\n  pop\n    /* \"#utility.yul\":1078:1206   */\n  pop\n    /* \"#utility.yul\":1245:1247   */\n  0x20\n    /* \"#utility.yul\":1271:1335   */\n  tag_30\n    /* \"#utility.yul\":1327:1334   */\n  dup6\n    /* \"#utility.yul\":1318:1324   */\n  dup3\n    /* \"#utility.yul\":1307:1316   */\n  dup7\n    /* \"#utility.yul\":1303:1325   */\n  add\n    /* \"#utility.yul\":1271:1335   */\n  tag_13\n  jump\t// in\ntag_30:\n    /* \"#utility.yul\":1261:1335   */\n  swap2\n  pop\n    /* \"#utility.yul\":1216:1345   */\n  pop\n    /* \"#utility.yul\":845:1352   */\n  swap3\n  pop\n  swap3\n  swap1\n  pop\n  jump\t// out\n    /* \"contracts/BlackJackTable.sol\":196:8318  contract BlackJackTable {... */\ntag_6:\n  dataSize(sub_0)\n  dup1\n  dataOffset(sub_0)\n  0x00\n  codecopy\n  0x00\n  return\nstop\n\nsub_0: assembly {\n        /* \"contracts/BlackJackTable.sol\":196:8318  contract BlackJackTable {... */\n      mstore(0x40, 0x80)\n      callvalue\n      dup1\n      iszero\n      tag_1\n      jumpi\n      revert(0x00, 0x00)\n    tag_1:\n      pop\n      jumpi(tag_2, lt(calldatasize, 0x04))\n      shr(0xe0, calldataload(0x00))\n      dup1\n      0x7dc0d1d0\n      gt\n      tag_10\n      jumpi\n      dup1\n      0x7dc0d1d0\n      eq\n      tag_6\n      jumpi\n      dup1\n      0xafab107e\n      eq\n      tag_7\n      jumpi\n      dup1\n      0xc2897b10\n      eq\n      tag_8\n      jumpi\n      dup1\n      0xfbfa77cf\n      eq\n      tag_9\n      jumpi\n      jump(tag_2)\n    tag_10:\n      dup1\n      0x2ae3594a\n      eq\n      tag_3\n      jumpi\n      dup1\n      0x31a56b83\n      eq\n      tag_4\n      jumpi\n      dup1\n      0x673ee37c\n      eq\n      tag_5\n      jumpi\n    tag_2:\n      revert(0x00, 0x00)\n        /* \"contracts/BlackJackTable.sol\":6523:6949  function hit() external {... */\n    tag_3:\n      tag_11\n      tag_12\n      jump\t// in\n    tag_11:\n      stop\n        /* \"contracts/BlackJackTable.sol\":1177:1898  function assignToken(uint256 _playerSeed) external {... */\n    tag_4:\n      tag_13\n      0x04\n      dup1\n      calldatasize\n      sub\n      dup2\n      add\n      swap1\n      tag_14\n      swap2\n      swap1\n      tag_15\n      jump\t// in\n    tag_14:\n      tag_16\n      jump\t// in\n    tag_13:\n      stop\n        /* \"contracts/BlackJackTable.sol\":519:544  uint256 public nextGameID */\n    tag_5:\n      tag_17\n      tag_18\n      jump\t// in\n    tag_17:\n      mload(0x40)\n      tag_19\n      swap2\n      swap1\n      tag_20\n      jump\t// in\n    tag_19:\n      mload(0x40)\n      dup1\n      swap2\n      sub\n      swap1\n      return\n        /* \"contracts/BlackJackTable.sol\":315:336  IOracle public oracle */\n    tag_6:\n      tag_21\n      tag_22\n      jump\t// in\n    tag_21:\n      mload(0x40)\n      tag_23\n      swap2\n      swap1\n      tag_24\n      jump\t// in\n    tag_23:\n      mload(0x40)\n      dup1\n      swap2\n      sub\n      swap1\n      return\n        /* \"contracts/BlackJackTable.sol\":1906:2642  function placeBets(uint256 bet) external {... */\n    tag_7:\n      tag_25\n      0x04\n      dup1\n      calldatasize\n      sub\n      dup2\n      add\n      swap1\n      tag_26\n      swap2\n      swap1\n      tag_15\n      jump\t// in\n    tag_26:\n      tag_27\n      jump\t// in\n    tag_25:\n      stop\n        /* \"contracts/BlackJackTable.sol\":6957:7883  function stand() external {... */\n    tag_8:\n      tag_28\n      tag_29\n      jump\t// in\n    tag_28:\n      stop\n        /* \"contracts/BlackJackTable.sol\":289:308  IVault public vault */\n    tag_9:\n      tag_30\n      tag_31\n      jump\t// in\n    tag_30:\n      mload(0x40)\n      tag_32\n      swap2\n      swap1\n      tag_33\n      jump\t// in\n    tag_32:\n      mload(0x40)\n      dup1\n      swap2\n      sub\n      swap1\n      return\n        /* \"contracts/BlackJackTable.sol\":6523:6949  function hit() external {... */\n    tag_12:\n        /* \"contracts/BlackJackTable.sol\":6558:6572  uint256 gameID */\n      0x00\n        /* \"contracts/BlackJackTable.sol\":6575:6585  activeGame */\n      0x03\n        /* \"contracts/BlackJackTable.sol\":6575:6597  activeGame[msg.sender] */\n      0x00\n        /* \"contracts/BlackJackTable.sol\":6586:6596  msg.sender */\n      caller\n        /* \"contracts/BlackJackTable.sol\":6575:6597  activeGame[msg.sender] */\n      0xffffffffffffffffffffffffffffffffffffffff\n      and\n      0xffffffffffffffffffffffffffffffffffffffff\n      and\n      dup2\n      mstore\n      0x20\n      add\n      swap1\n      dup2\n      mstore\n      0x20\n      add\n      0x00\n      keccak256\n      sload\n        /* \"contracts/BlackJackTable.sol\":6558:6597  uint256 gameID = activeGame[msg.sender] */\n      swap1\n      pop\n        /* \"contracts/BlackJackTable.sol\":6608:6631  GameToken storage token */\n      0x00\n        /* \"contracts/BlackJackTable.sol\":6634:6639  games */\n      0x04\n        /* \"contracts/BlackJackTable.sol\":6634:6647  games[gameID] */\n      0x00\n        /* \"contracts/BlackJackTable.sol\":6640:6646  gameID */\n      dup4\n        /* \"contracts/BlackJackTable.sol\":6634:6647  games[gameID] */\n      dup2\n      mstore\n      0x20\n      add\n      swap1\n      dup2\n      mstore\n      0x20\n      add\n      0x00\n      keccak256\n        /* \"contracts/BlackJackTable.sol\":6608:6647  GameToken storage token = games[gameID] */\n      swap1\n      pop\n        /* \"contracts/BlackJackTable.sol\":6666:6671  token */\n      dup1\n        /* \"contracts/BlackJackTable.sol\":6666:6680  token.isActive */\n      0x06\n      add\n      0x01\n      swap1\n      sload\n      swap1\n      0x0100\n      exp\n      swap1\n      div\n      0xff\n      and\n        /* \"contracts/BlackJackTable.sol\":6658:6707  require(token.isActive, \"No game is in progress\") */\n      tag_35\n      jumpi\n      mload(0x40)\n      0x08c379a000000000000000000000000000000000000000000000000000000000\n      dup2\n      mstore\n      0x04\n      add\n      tag_36\n      swap1\n      tag_37\n      jump\t// in\n    tag_36:\n      mload(0x40)\n      dup1\n      swap2\n      sub\n      swap1\n      revert\n    tag_35:\n        /* \"contracts/BlackJackTable.sol\":6727:6732  token */\n      dup1\n        /* \"contracts/BlackJackTable.sol\":6727:6744  token.isCompleted */\n      0x06\n      add\n      0x02\n      swap1\n      sload\n      swap1\n      0x0100\n      exp\n      swap1\n      div\n      0xff\n      and\n        /* \"contracts/BlackJackTable.sol\":6726:6744  !token.isCompleted */\n      iszero\n        /* \"contracts/BlackJackTable.sol\":6718:6774  require(!token.isCompleted, \"Game has already finished\") */\n      tag_38\n      jumpi\n      mload(0x40)\n      0x08c379a000000000000000000000000000000000000000000000000000000000\n      dup2\n      mstore\n      0x04\n      add\n      tag_39\n      swap1\n      tag_40\n      jump\t// in\n    tag_39:\n      mload(0x40)\n      dup1\n      swap2\n      sub\n      swap1\n      revert\n    tag_38:\n        /* \"contracts/BlackJackTable.sol\":6787:6797  uint8 card */\n      0x00\n        /* \"contracts/BlackJackTable.sol\":6800:6815  drawCard(token) */\n      tag_41\n        /* \"contracts/BlackJackTable.sol\":6809:6814  token */\n      dup3\n        /* \"contracts/BlackJackTable.sol\":6800:6808  drawCard */\n      tag_42\n        /* \"contracts/BlackJackTable.sol\":6800:6815  drawCard(token) */\n      jump\t// in\n    tag_41:\n        /* \"contracts/BlackJackTable.sol\":6787:6815  uint8 card = drawCard(token) */\n      swap1\n      pop\n        /* \"contracts/BlackJackTable.sol\":6857:6941  addCardToHand(... */\n      tag_43\n        /* \"contracts/BlackJackTable.sol\":6885:6889  card */\n      dup2\n        /* \"contracts/BlackJackTable.sol\":6904:6909  token */\n      dup4\n        /* \"contracts/BlackJackTable.sol\":6904:6930  token.playerHandTotalValue */\n      0x0b\n      add\n      0x01\n      swap1\n      sload\n      swap1\n      0x0100\n      exp\n      swap1\n      div\n      0xff\n      and\n        /* \"contracts/BlackJackTable.sol\":6857:6870  addCardToHand */\n      tag_44\n        /* \"contracts/BlackJackTable.sol\":6857:6941  addCardToHand(... */\n      jump\t// in\n    tag_43:\n        /* \"contracts/BlackJackTable.sol\":6827:6832  token */\n      dup3\n        /* \"contracts/BlackJackTable.sol\":6827:6853  token.playerHandTotalValue */\n      0x0b\n      add\n      0x01\n        /* \"contracts/BlackJackTable.sol\":6826:6941  (token.playerHandTotalValue) = addCardToHand(... */\n      0x0100\n      exp\n      dup2\n      sload\n      dup2\n      0xff\n      mul\n      not\n      and\n      swap1\n      dup4\n      0xff\n      and\n      mul\n      or\n      swap1\n      sstore\n      pop\n        /* \"contracts/BlackJackTable.sol\":6547:6949  {... */\n      pop\n      pop\n      pop\n        /* \"contracts/BlackJackTable.sol\":6523:6949  function hit() external {... */\n      jump\t// out\n        /* \"contracts/BlackJackTable.sol\":1177:1898  function assignToken(uint256 _playerSeed) external {... */\n    tag_16:\n        /* \"contracts/BlackJackTable.sol\":1273:1274  0 */\n      0x00\n        /* \"contracts/BlackJackTable.sol\":1247:1257  activeGame */\n      0x03\n        /* \"contracts/BlackJackTable.sol\":1247:1269  activeGame[msg.sender] */\n      0x00\n        /* \"contracts/BlackJackTable.sol\":1258:1268  msg.sender */\n      caller\n        /* \"contracts/BlackJackTable.sol\":1247:1269  activeGame[msg.sender] */\n      0xffffffffffffffffffffffffffffffffffffffff\n      and\n      0xffffffffffffffffffffffffffffffffffffffff\n      and\n      dup2\n      mstore\n      0x20\n      add\n      swap1\n      dup2\n      mstore\n      0x20\n      add\n      0x00\n      keccak256\n      sload\n        /* \"contracts/BlackJackTable.sol\":1247:1274  activeGame[msg.sender] == 0 */\n      eq\n        /* \"contracts/BlackJackTable.sol\":1239:1303  require(activeGame[msg.sender] == 0, \"Game already in progress\") */\n      tag_46\n      jumpi\n      mload(0x40)\n      0x08c379a000000000000000000000000000000000000000000000000000000000\n      dup2\n      mstore\n      0x04\n      add\n      tag_47\n      swap1\n      tag_48\n      jump\t// in\n    tag_47:\n      mload(0x40)\n      dup1\n      swap2\n      sub\n      swap1\n      revert\n    tag_46:\n        /* \"contracts/BlackJackTable.sol\":1314:1328  uint256 gameID */\n      0x00\n        /* \"contracts/BlackJackTable.sol\":1331:1341  nextGameID */\n      0x02\n      0x00\n        /* \"contracts/BlackJackTable.sol\":1331:1343  nextGameID++ */\n      dup2\n      sload\n      dup1\n      swap3\n      swap2\n      swap1\n      tag_49\n      swap1\n      tag_50\n      jump\t// in\n    tag_49:\n      swap2\n      swap1\n      pop\n      sstore\n        /* \"contracts/BlackJackTable.sol\":1314:1343  uint256 gameID = nextGameID++ */\n      swap1\n      pop\n        /* \"contracts/BlackJackTable.sol\":1379:1385  gameID */\n      dup1\n        /* \"contracts/BlackJackTable.sol\":1354:1364  activeGame */\n      0x03\n        /* \"contracts/BlackJackTable.sol\":1354:1376  activeGame[msg.sender] */\n      0x00\n        /* \"contracts/BlackJackTable.sol\":1365:1375  msg.sender */\n      caller\n        /* \"contracts/BlackJackTable.sol\":1354:1376  activeGame[msg.sender] */\n      0xffffffffffffffffffffffffffffffffffffffff\n      and\n      0xffffffffffffffffffffffffffffffffffffffff\n      and\n      dup2\n      mstore\n      0x20\n      add\n      swap1\n      dup2\n      mstore\n      0x20\n      add\n      0x00\n      keccak256\n        /* \"contracts/BlackJackTable.sol\":1354:1385  activeGame[msg.sender] = gameID */\n      dup2\n      swap1\n      sstore\n      pop\n        /* \"contracts/BlackJackTable.sol\":1398:1421  GameToken storage token */\n      0x00\n        /* \"contracts/BlackJackTable.sol\":1424:1429  games */\n      0x04\n        /* \"contracts/BlackJackTable.sol\":1424:1437  games[gameID] */\n      0x00\n        /* \"contracts/BlackJackTable.sol\":1430:1436  gameID */\n      dup4\n        /* \"contracts/BlackJackTable.sol\":1424:1437  games[gameID] */\n      dup2\n      mstore\n      0x20\n      add\n      swap1\n      dup2\n      mstore\n      0x20\n      add\n      0x00\n      keccak256\n        /* \"contracts/BlackJackTable.sol\":1398:1437  GameToken storage token = games[gameID] */\n      swap1\n      pop\n        /* \"contracts/BlackJackTable.sol\":1512:1518  gameID */\n      dup2\n        /* \"contracts/BlackJackTable.sol\":1496:1501  token */\n      dup2\n        /* \"contracts/BlackJackTable.sol\":1496:1509  token.tokenID */\n      0x00\n      add\n        /* \"contracts/BlackJackTable.sol\":1496:1518  token.tokenID = gameID */\n      dup2\n      swap1\n      sstore\n      pop\n        /* \"contracts/BlackJackTable.sol\":1544:1554  msg.sender */\n      caller\n        /* \"contracts/BlackJackTable.sol\":1529:1534  token */\n      dup2\n        /* \"contracts/BlackJackTable.sol\":1529:1541  token.player */\n      0x02\n      add\n      0x00\n        /* \"contracts/BlackJackTable.sol\":1529:1554  token.player = msg.sender */\n      0x0100\n      exp\n      dup2\n      sload\n      dup2\n      0xffffffffffffffffffffffffffffffffffffffff\n      mul\n      not\n      and\n      swap1\n      dup4\n      0xffffffffffffffffffffffffffffffffffffffff\n      and\n      mul\n      or\n      swap1\n      sstore\n      pop\n        /* \"contracts/BlackJackTable.sol\":1584:1595  _playerSeed */\n      dup3\n        /* \"contracts/BlackJackTable.sol\":1565:1570  token */\n      dup2\n        /* \"contracts/BlackJackTable.sol\":1565:1581  token.playerSeed */\n      0x03\n      add\n        /* \"contracts/BlackJackTable.sol\":1565:1595  token.playerSeed = _playerSeed */\n      dup2\n      swap1\n      sstore\n      pop\n        /* \"contracts/BlackJackTable.sol\":1624:1625  0 */\n      0x00\n        /* \"contracts/BlackJackTable.sol\":1606:1611  token */\n      dup2\n        /* \"contracts/BlackJackTable.sol\":1606:1621  token.drawIndex */\n      0x06\n      add\n      0x00\n        /* \"contracts/BlackJackTable.sol\":1606:1625  token.drawIndex = 0 */\n      0x0100\n      exp\n      dup2\n      sload\n      dup2\n      0xff\n      mul\n      not\n      and\n      swap1\n      dup4\n      0xff\n      and\n      mul\n      or\n      swap1\n      sstore\n      pop\n        /* \"contracts/BlackJackTable.sol\":1653:1657  true */\n      0x01\n        /* \"contracts/BlackJackTable.sol\":1636:1641  token */\n      dup2\n        /* \"contracts/BlackJackTable.sol\":1636:1650  token.isActive */\n      0x06\n      add\n      0x01\n        /* \"contracts/BlackJackTable.sol\":1636:1657  token.isActive = true */\n      0x0100\n      exp\n      dup2\n      sload\n      dup2\n      0xff\n      mul\n      not\n      and\n      swap1\n      dup4\n      iszero\n      iszero\n      mul\n      or\n      swap1\n      sstore\n      pop\n        /* \"contracts/BlackJackTable.sol\":1687:1692  false */\n      0x00\n        /* \"contracts/BlackJackTable.sol\":1668:1673  token */\n      dup2\n        /* \"contracts/BlackJackTable.sol\":1668:1684  token.isShuffled */\n      0x0b\n      add\n      0x00\n        /* \"contracts/BlackJackTable.sol\":1668:1692  token.isShuffled = false */\n      0x0100\n      exp\n      dup2\n      sload\n      dup2\n      0xff\n      mul\n      not\n      and\n      swap1\n      dup4\n      iszero\n      iszero\n      mul\n      or\n      swap1\n      sstore\n      pop\n        /* \"contracts/BlackJackTable.sol\":1732:1733  0 */\n      0x00\n        /* \"contracts/BlackJackTable.sol\":1703:1708  token */\n      dup2\n        /* \"contracts/BlackJackTable.sol\":1703:1729  token.playerHandTotalValue */\n      0x0b\n      add\n      0x01\n        /* \"contracts/BlackJackTable.sol\":1703:1733  token.playerHandTotalValue = 0 */\n      0x0100\n      exp\n      dup2\n      sload\n      dup2\n      0xff\n      mul\n      not\n      and\n      swap1\n      dup4\n      0xff\n      and\n      mul\n      or\n      swap1\n      sstore\n      pop\n        /* \"contracts/BlackJackTable.sol\":1773:1774  0 */\n      0x00\n        /* \"contracts/BlackJackTable.sol\":1744:1749  token */\n      dup2\n        /* \"contracts/BlackJackTable.sol\":1744:1770  token.dealerHandTotalValue */\n      0x0b\n      add\n      0x03\n        /* \"contracts/BlackJackTable.sol\":1744:1774  token.dealerHandTotalValue = 0 */\n      0x0100\n      exp\n      dup2\n      sload\n      dup2\n      0xff\n      mul\n      not\n      and\n      swap1\n      dup4\n      0xff\n      and\n      mul\n      or\n      swap1\n      sstore\n      pop\n        /* \"contracts/BlackJackTable.sol\":1805:1810  false */\n      0x00\n        /* \"contracts/BlackJackTable.sol\":1785:1790  token */\n      dup2\n        /* \"contracts/BlackJackTable.sol\":1785:1802  token.isCompleted */\n      0x06\n      add\n      0x02\n        /* \"contracts/BlackJackTable.sol\":1785:1810  token.isCompleted = false */\n      0x0100\n      exp\n      dup2\n      sload\n      dup2\n      0xff\n      mul\n      not\n      and\n      swap1\n      dup4\n      iszero\n      iszero\n      mul\n      or\n      swap1\n      sstore\n      pop\n        /* \"contracts/BlackJackTable.sol\":1833:1834  0 */\n      0x00\n        /* \"contracts/BlackJackTable.sol\":1821:1826  token */\n      dup2\n        /* \"contracts/BlackJackTable.sol\":1821:1830  token.bet */\n      0x01\n      add\n        /* \"contracts/BlackJackTable.sol\":1821:1834  token.bet = 0 */\n      dup2\n      swap1\n      sstore\n      pop\n        /* \"contracts/BlackJackTable.sol\":1852:1890  GameCreated(token.tokenID, msg.sender) */\n      0xc3e0f84839dc888c892a013d10c8f9d6dc05a21a879d0ce468ca558013e9121c\n        /* \"contracts/BlackJackTable.sol\":1864:1869  token */\n      dup2\n        /* \"contracts/BlackJackTable.sol\":1864:1877  token.tokenID */\n      0x00\n      add\n      sload\n        /* \"contracts/BlackJackTable.sol\":1879:1889  msg.sender */\n      caller\n        /* \"contracts/BlackJackTable.sol\":1852:1890  GameCreated(token.tokenID, msg.sender) */\n      mload(0x40)\n      tag_51\n      swap3\n      swap2\n      swap1\n      tag_52\n      jump\t// in\n    tag_51:\n      mload(0x40)\n      dup1\n      swap2\n      sub\n      swap1\n      log1\n        /* \"contracts/BlackJackTable.sol\":1228:1898  {... */\n      pop\n      pop\n        /* \"contracts/BlackJackTable.sol\":1177:1898  function assignToken(uint256 _playerSeed) external {... */\n      pop\n      jump\t// out\n        /* \"contracts/BlackJackTable.sol\":519:544  uint256 public nextGameID */\n    tag_18:\n      sload(0x02)\n      dup2\n      jump\t// out\n        /* \"contracts/BlackJackTable.sol\":315:336  IOracle public oracle */\n    tag_22:\n      0x01\n      0x00\n      swap1\n      sload\n      swap1\n      0x0100\n      exp\n      swap1\n      div\n      0xffffffffffffffffffffffffffffffffffffffff\n      and\n      dup2\n      jump\t// out\n        /* \"contracts/BlackJackTable.sol\":1906:2642  function placeBets(uint256 bet) external {... */\n    tag_27:\n        /* \"contracts/BlackJackTable.sol\":594:602  100 gwei */\n      0x174876e800\n        /* \"contracts/BlackJackTable.sol\":1966:1969  bet */\n      dup2\n        /* \"contracts/BlackJackTable.sol\":1966:1981  bet >= lowLimit */\n      lt\n      iszero\n        /* \"contracts/BlackJackTable.sol\":1966:2001  bet >= lowLimit && bet <= highLimit */\n      dup1\n      iszero\n      tag_54\n      jumpi\n      pop\n        /* \"contracts/BlackJackTable.sol\":638:649  0.001 ether */\n      0x038d7ea4c68000\n        /* \"contracts/BlackJackTable.sol\":1985:1988  bet */\n      dup2\n        /* \"contracts/BlackJackTable.sol\":1985:2001  bet <= highLimit */\n      gt\n      iszero\n        /* \"contracts/BlackJackTable.sol\":1966:2001  bet >= lowLimit && bet <= highLimit */\n    tag_54:\n        /* \"contracts/BlackJackTable.sol\":1958:2023  require(bet >= lowLimit && bet <= highLimit, \"Bet out of range.\") */\n      tag_55\n      jumpi\n      mload(0x40)\n      0x08c379a000000000000000000000000000000000000000000000000000000000\n      dup2\n      mstore\n      0x04\n      add\n      tag_56\n      swap1\n      tag_57\n      jump\t// in\n    tag_56:\n      mload(0x40)\n      dup1\n      swap2\n      sub\n      swap1\n      revert\n    tag_55:\n        /* \"contracts/BlackJackTable.sol\":2070:2071  0 */\n      0x00\n        /* \"contracts/BlackJackTable.sol\":2044:2054  activeGame */\n      0x03\n        /* \"contracts/BlackJackTable.sol\":2044:2066  activeGame[msg.sender] */\n      0x00\n        /* \"contracts/BlackJackTable.sol\":2055:2065  msg.sender */\n      caller\n        /* \"contracts/BlackJackTable.sol\":2044:2066  activeGame[msg.sender] */\n      0xffffffffffffffffffffffffffffffffffffffff\n      and\n      0xffffffffffffffffffffffffffffffffffffffff\n      and\n      dup2\n      mstore\n      0x20\n      add\n      swap1\n      dup2\n      mstore\n      0x20\n      add\n      0x00\n      keccak256\n      sload\n        /* \"contracts/BlackJackTable.sol\":2044:2071  activeGame[msg.sender] != 0 */\n      sub\n        /* \"contracts/BlackJackTable.sol\":2036:2100  require(activeGame[msg.sender] != 0, \"No active game currently\") */\n      tag_58\n      jumpi\n      mload(0x40)\n      0x08c379a000000000000000000000000000000000000000000000000000000000\n      dup2\n      mstore\n      0x04\n      add\n      tag_59\n      swap1\n      tag_60\n      jump\t// in\n    tag_59:\n      mload(0x40)\n      dup1\n      swap2\n      sub\n      swap1\n      revert\n    tag_58:\n        /* \"contracts/BlackJackTable.sol\":2113:2127  uint256 gameID */\n      0x00\n        /* \"contracts/BlackJackTable.sol\":2130:2140  activeGame */\n      0x03\n        /* \"contracts/BlackJackTable.sol\":2130:2152  activeGame[msg.sender] */\n      0x00\n        /* \"contracts/BlackJackTable.sol\":2141:2151  msg.sender */\n      caller\n        /* \"contracts/BlackJackTable.sol\":2130:2152  activeGame[msg.sender] */\n      0xffffffffffffffffffffffffffffffffffffffff\n      and\n      0xffffffffffffffffffffffffffffffffffffffff\n      and\n      dup2\n      mstore\n      0x20\n      add\n      swap1\n      dup2\n      mstore\n      0x20\n      add\n      0x00\n      keccak256\n      sload\n        /* \"contracts/BlackJackTable.sol\":2113:2152  uint256 gameID = activeGame[msg.sender] */\n      swap1\n      pop\n        /* \"contracts/BlackJackTable.sol\":2163:2186  GameToken storage token */\n      0x00\n        /* \"contracts/BlackJackTable.sol\":2189:2194  games */\n      0x04\n        /* \"contracts/BlackJackTable.sol\":2189:2202  games[gameID] */\n      0x00\n        /* \"contracts/BlackJackTable.sol\":2195:2201  gameID */\n      dup4\n        /* \"contracts/BlackJackTable.sol\":2189:2202  games[gameID] */\n      dup2\n      mstore\n      0x20\n      add\n      swap1\n      dup2\n      mstore\n      0x20\n      add\n      0x00\n      keccak256\n        /* \"contracts/BlackJackTable.sol\":2163:2202  GameToken storage token = games[gameID] */\n      swap1\n      pop\n        /* \"contracts/BlackJackTable.sol\":2236:2237  0 */\n      0x00\n        /* \"contracts/BlackJackTable.sol\":2223:2228  token */\n      dup2\n        /* \"contracts/BlackJackTable.sol\":2223:2232  token.bet */\n      0x01\n      add\n      sload\n        /* \"contracts/BlackJackTable.sol\":2223:2237  token.bet == 0 */\n      eq\n        /* \"contracts/BlackJackTable.sol\":2215:2260  require(token.bet == 0, \"Bet already placed\") */\n      tag_61\n      jumpi\n      mload(0x40)\n      0x08c379a000000000000000000000000000000000000000000000000000000000\n      dup2\n      mstore\n      0x04\n      add\n      tag_62\n      swap1\n      tag_63\n      jump\t// in\n    tag_62:\n      mload(0x40)\n      dup1\n      swap2\n      sub\n      swap1\n      revert\n    tag_61:\n        /* \"contracts/BlackJackTable.sol\":2277:2282  token */\n      dup1\n        /* \"contracts/BlackJackTable.sol\":2277:2291  token.isActive */\n      0x06\n      add\n      0x01\n      swap1\n      sload\n      swap1\n      0x0100\n      exp\n      swap1\n      div\n      0xff\n      and\n        /* \"contracts/BlackJackTable.sol\":2277:2314  token.isActive || token.drawIndex > 0 */\n      dup1\n      tag_64\n      jumpi\n      pop\n        /* \"contracts/BlackJackTable.sol\":2313:2314  0 */\n      0x00\n        /* \"contracts/BlackJackTable.sol\":2295:2300  token */\n      dup2\n        /* \"contracts/BlackJackTable.sol\":2295:2310  token.drawIndex */\n      0x06\n      add\n      0x00\n      swap1\n      sload\n      swap1\n      0x0100\n      exp\n      swap1\n      div\n      0xff\n      and\n        /* \"contracts/BlackJackTable.sol\":2295:2314  token.drawIndex > 0 */\n      0xff\n      and\n      gt\n        /* \"contracts/BlackJackTable.sol\":2277:2314  token.isActive || token.drawIndex > 0 */\n    tag_64:\n        /* \"contracts/BlackJackTable.sol\":2273:2377  if (token.isActive || token.drawIndex > 0) {... */\n      iszero\n      tag_65\n      jumpi\n        /* \"contracts/BlackJackTable.sol\":2331:2365  revert(\"Game already in progress\") */\n      mload(0x40)\n      0x08c379a000000000000000000000000000000000000000000000000000000000\n      dup2\n      mstore\n      0x04\n      add\n      tag_66\n      swap1\n      tag_48\n      jump\t// in\n    tag_66:\n      mload(0x40)\n      dup1\n      swap2\n      sub\n      swap1\n      revert\n        /* \"contracts/BlackJackTable.sol\":2273:2377  if (token.isActive || token.drawIndex > 0) {... */\n    tag_65:\n        /* \"contracts/BlackJackTable.sol\":2399:2402  bet */\n      dup3\n        /* \"contracts/BlackJackTable.sol\":2387:2392  token */\n      dup2\n        /* \"contracts/BlackJackTable.sol\":2387:2396  token.bet */\n      0x01\n      add\n        /* \"contracts/BlackJackTable.sol\":2387:2402  token.bet = bet */\n      dup2\n      swap1\n      sstore\n      pop\n        /* \"contracts/BlackJackTable.sol\":2433:2439  oracle */\n      0x01\n      0x00\n      swap1\n      sload\n      swap1\n      0x0100\n      exp\n      swap1\n      div\n      0xffffffffffffffffffffffffffffffffffffffff\n      and\n        /* \"contracts/BlackJackTable.sol\":2433:2452  oracle.generateSeed */\n      0xffffffffffffffffffffffffffffffffffffffff\n      and\n      0x041df082\n        /* \"contracts/BlackJackTable.sol\":2453:2458  token */\n      dup3\n        /* \"contracts/BlackJackTable.sol\":2453:2469  token.serverSeed */\n      0x04\n      add\n      sload\n        /* \"contracts/BlackJackTable.sol\":2470:2475  token */\n      dup4\n        /* \"contracts/BlackJackTable.sol\":2470:2486  token.playerSeed */\n      0x03\n      add\n      sload\n        /* \"contracts/BlackJackTable.sol\":2433:2487  oracle.generateSeed(token.serverSeed,token.playerSeed) */\n      mload(0x40)\n      dup4\n      0xffffffff\n      and\n      0xe0\n      shl\n      dup2\n      mstore\n      0x04\n      add\n      tag_67\n      swap3\n      swap2\n      swap1\n      tag_68\n      jump\t// in\n    tag_67:\n      0x20\n      mload(0x40)\n      dup1\n      dup4\n      sub\n      dup2\n      dup7\n      gas\n      staticcall\n      iszero\n      dup1\n      iszero\n      tag_70\n      jumpi\n      returndatacopy(0x00, 0x00, returndatasize)\n      revert(0x00, returndatasize)\n    tag_70:\n      pop\n      pop\n      pop\n      pop\n      mload(0x40)\n      returndatasize\n      not(0x1f)\n      0x1f\n      dup3\n      add\n      and\n      dup3\n      add\n      dup1\n      0x40\n      mstore\n      pop\n      dup2\n      add\n      swap1\n      tag_71\n      swap2\n      swap1\n      tag_72\n      jump\t// in\n    tag_71:\n        /* \"contracts/BlackJackTable.sol\":2415:2420  token */\n      dup2\n        /* \"contracts/BlackJackTable.sol\":2415:2430  token.finalSeed */\n      0x05\n      add\n        /* \"contracts/BlackJackTable.sol\":2415:2487  token.finalSeed = oracle.generateSeed(token.serverSeed,token.playerSeed) */\n      dup2\n      swap1\n      sstore\n      pop\n        /* \"contracts/BlackJackTable.sol\":2534:2552  shuffleDeck(token) */\n      tag_73\n        /* \"contracts/BlackJackTable.sol\":2546:2551  token */\n      dup2\n        /* \"contracts/BlackJackTable.sol\":2534:2545  shuffleDeck */\n      tag_74\n        /* \"contracts/BlackJackTable.sol\":2534:2552  shuffleDeck(token) */\n      jump\t// in\n    tag_73:\n        /* \"contracts/BlackJackTable.sol\":2570:2634  BetPlaced(token.tokenID, msg.sender, token.bet, token.finalSeed) */\n      0x0e97ce5f641b8a03e0f92d0b4480f849cf26a7bfdf17862c8edaf69268e60aad\n        /* \"contracts/BlackJackTable.sol\":2580:2585  token */\n      dup2\n        /* \"contracts/BlackJackTable.sol\":2580:2593  token.tokenID */\n      0x00\n      add\n      sload\n        /* \"contracts/BlackJackTable.sol\":2595:2605  msg.sender */\n      caller\n        /* \"contracts/BlackJackTable.sol\":2607:2612  token */\n      dup4\n        /* \"contracts/BlackJackTable.sol\":2607:2616  token.bet */\n      0x01\n      add\n      sload\n        /* \"contracts/BlackJackTable.sol\":2618:2623  token */\n      dup5\n        /* \"contracts/BlackJackTable.sol\":2618:2633  token.finalSeed */\n      0x05\n      add\n      sload\n        /* \"contracts/BlackJackTable.sol\":2570:2634  BetPlaced(token.tokenID, msg.sender, token.bet, token.finalSeed) */\n      mload(0x40)\n      tag_75\n      swap5\n      swap4\n      swap3\n      swap2\n      swap1\n      tag_76\n      jump\t// in\n    tag_75:\n      mload(0x40)\n      dup1\n      swap2\n      sub\n      swap1\n      log1\n        /* \"contracts/BlackJackTable.sol\":1947:2642  {... */\n      pop\n      pop\n        /* \"contracts/BlackJackTable.sol\":1906:2642  function placeBets(uint256 bet) external {... */\n      pop\n      jump\t// out\n        /* \"contracts/BlackJackTable.sol\":6957:7883  function stand() external {... */\n    tag_29:\n        /* \"contracts/BlackJackTable.sol\":6994:7008  uint256 gameID */\n      0x00\n        /* \"contracts/BlackJackTable.sol\":7011:7021  activeGame */\n      0x03\n        /* \"contracts/BlackJackTable.sol\":7011:7033  activeGame[msg.sender] */\n      0x00\n        /* \"contracts/BlackJackTable.sol\":7022:7032  msg.sender */\n      caller\n        /* \"contracts/BlackJackTable.sol\":7011:7033  activeGame[msg.sender] */\n      0xffffffffffffffffffffffffffffffffffffffff\n      and\n      0xffffffffffffffffffffffffffffffffffffffff\n      and\n      dup2\n      mstore\n      0x20\n      add\n      swap1\n      dup2\n      mstore\n      0x20\n      add\n      0x00\n      keccak256\n      sload\n        /* \"contracts/BlackJackTable.sol\":6994:7033  uint256 gameID = activeGame[msg.sender] */\n      swap1\n      pop\n        /* \"contracts/BlackJackTable.sol\":7044:7067  GameToken storage token */\n      0x00\n        /* \"contracts/BlackJackTable.sol\":7070:7075  games */\n      0x04\n        /* \"contracts/BlackJackTable.sol\":7070:7083  games[gameID] */\n      0x00\n        /* \"contracts/BlackJackTable.sol\":7076:7082  gameID */\n      dup4\n        /* \"contracts/BlackJackTable.sol\":7070:7083  games[gameID] */\n      dup2\n      mstore\n      0x20\n      add\n      swap1\n      dup2\n      mstore\n      0x20\n      add\n      0x00\n      keccak256\n        /* \"contracts/BlackJackTable.sol\":7044:7083  GameToken storage token = games[gameID] */\n      swap1\n      pop\n        /* \"contracts/BlackJackTable.sol\":7102:7107  token */\n      dup1\n        /* \"contracts/BlackJackTable.sol\":7102:7116  token.isActive */\n      0x06\n      add\n      0x01\n      swap1\n      sload\n      swap1\n      0x0100\n      exp\n      swap1\n      div\n      0xff\n      and\n        /* \"contracts/BlackJackTable.sol\":7094:7145  require(token.isActive, \"No game has been started\") */\n      tag_78\n      jumpi\n      mload(0x40)\n      0x08c379a000000000000000000000000000000000000000000000000000000000\n      dup2\n      mstore\n      0x04\n      add\n      tag_79\n      swap1\n      tag_80\n      jump\t// in\n    tag_79:\n      mload(0x40)\n      dup1\n      swap2\n      sub\n      swap1\n      revert\n    tag_78:\n        /* \"contracts/BlackJackTable.sol\":7156:7166  uint8 card */\n      0x00\n        /* \"contracts/BlackJackTable.sol\":7177:7408  while (token.dealerHandTotalValue < 17) {... */\n    tag_81:\n        /* \"contracts/BlackJackTable.sol\":7213:7215  17 */\n      0x11\n        /* \"contracts/BlackJackTable.sol\":7184:7189  token */\n      dup3\n        /* \"contracts/BlackJackTable.sol\":7184:7210  token.dealerHandTotalValue */\n      0x0b\n      add\n      0x03\n      swap1\n      sload\n      swap1\n      0x0100\n      exp\n      swap1\n      div\n      0xff\n      and\n        /* \"contracts/BlackJackTable.sol\":7184:7215  token.dealerHandTotalValue < 17 */\n      0xff\n      and\n      lt\n        /* \"contracts/BlackJackTable.sol\":7177:7408  while (token.dealerHandTotalValue < 17) {... */\n      iszero\n      tag_82\n      jumpi\n        /* \"contracts/BlackJackTable.sol\":7239:7254  drawCard(token) */\n      tag_83\n        /* \"contracts/BlackJackTable.sol\":7248:7253  token */\n      dup3\n        /* \"contracts/BlackJackTable.sol\":7239:7247  drawCard */\n      tag_42\n        /* \"contracts/BlackJackTable.sol\":7239:7254  drawCard(token) */\n      jump\t// in\n    tag_83:\n        /* \"contracts/BlackJackTable.sol\":7232:7254  card = drawCard(token) */\n      swap1\n      pop\n        /* \"contracts/BlackJackTable.sol\":7300:7396  addCardToHand(... */\n      tag_84\n        /* \"contracts/BlackJackTable.sol\":7332:7336  card */\n      dup2\n        /* \"contracts/BlackJackTable.sol\":7355:7360  token */\n      dup4\n        /* \"contracts/BlackJackTable.sol\":7355:7381  token.dealerHandTotalValue */\n      0x0b\n      add\n      0x03\n      swap1\n      sload\n      swap1\n      0x0100\n      exp\n      swap1\n      div\n      0xff\n      and\n        /* \"contracts/BlackJackTable.sol\":7300:7313  addCardToHand */\n      tag_44\n        /* \"contracts/BlackJackTable.sol\":7300:7396  addCardToHand(... */\n      jump\t// in\n    tag_84:\n        /* \"contracts/BlackJackTable.sol\":7270:7275  token */\n      dup3\n        /* \"contracts/BlackJackTable.sol\":7270:7296  token.dealerHandTotalValue */\n      0x0b\n      add\n      0x03\n        /* \"contracts/BlackJackTable.sol\":7269:7396  (token.dealerHandTotalValue) = addCardToHand(... */\n      0x0100\n      exp\n      dup2\n      sload\n      dup2\n      0xff\n      mul\n      not\n      and\n      swap1\n      dup4\n      0xff\n      and\n      mul\n      or\n      swap1\n      sstore\n      pop\n        /* \"contracts/BlackJackTable.sol\":7177:7408  while (token.dealerHandTotalValue < 17) {... */\n      jump(tag_81)\n    tag_82:\n        /* \"contracts/BlackJackTable.sol\":7453:7455  21 */\n      0x15\n        /* \"contracts/BlackJackTable.sol\":7424:7429  token */\n      dup3\n        /* \"contracts/BlackJackTable.sol\":7424:7450  token.dealerHandTotalValue */\n      0x0b\n      add\n      0x03\n      swap1\n      sload\n      swap1\n      0x0100\n      exp\n      swap1\n      div\n      0xff\n      and\n        /* \"contracts/BlackJackTable.sol\":7424:7455  token.dealerHandTotalValue > 21 */\n      0xff\n      and\n      gt\n        /* \"contracts/BlackJackTable.sol\":7420:7876  if (token.dealerHandTotalValue > 21) {... */\n      iszero\n      tag_85\n      jumpi\n        /* \"contracts/BlackJackTable.sol\":7472:7520  endGame(token, Result.PLAYER_WIN, token.bet * 2) */\n      tag_86\n        /* \"contracts/BlackJackTable.sol\":7480:7485  token */\n      dup3\n        /* \"contracts/BlackJackTable.sol\":7487:7504  Result.PLAYER_WIN */\n      0x01\n        /* \"contracts/BlackJackTable.sol\":7518:7519  2 */\n      0x02\n        /* \"contracts/BlackJackTable.sol\":7506:7511  token */\n      dup6\n        /* \"contracts/BlackJackTable.sol\":7506:7515  token.bet */\n      0x01\n      add\n      sload\n        /* \"contracts/BlackJackTable.sol\":7506:7519  token.bet * 2 */\n      tag_87\n      swap2\n      swap1\n      tag_88\n      jump\t// in\n    tag_87:\n        /* \"contracts/BlackJackTable.sol\":7472:7479  endGame */\n      tag_89\n        /* \"contracts/BlackJackTable.sol\":7472:7520  endGame(token, Result.PLAYER_WIN, token.bet * 2) */\n      jump\t// in\n    tag_86:\n        /* \"contracts/BlackJackTable.sol\":7420:7876  if (token.dealerHandTotalValue > 21) {... */\n      jump(tag_90)\n    tag_85:\n        /* \"contracts/BlackJackTable.sol\":7585:7590  token */\n      dup2\n        /* \"contracts/BlackJackTable.sol\":7585:7611  token.playerHandTotalValue */\n      0x0b\n      add\n      0x01\n      swap1\n      sload\n      swap1\n      0x0100\n      exp\n      swap1\n      div\n      0xff\n      and\n        /* \"contracts/BlackJackTable.sol\":7556:7611  token.dealerHandTotalValue > token.playerHandTotalValue */\n      0xff\n      and\n        /* \"contracts/BlackJackTable.sol\":7556:7561  token */\n      dup3\n        /* \"contracts/BlackJackTable.sol\":7556:7582  token.dealerHandTotalValue */\n      0x0b\n      add\n      0x03\n      swap1\n      sload\n      swap1\n      0x0100\n      exp\n      swap1\n      div\n      0xff\n      and\n        /* \"contracts/BlackJackTable.sol\":7556:7611  token.dealerHandTotalValue > token.playerHandTotalValue */\n      0xff\n      and\n      gt\n        /* \"contracts/BlackJackTable.sol\":7556:7668  token.dealerHandTotalValue > token.playerHandTotalValue ||... */\n      dup1\n      tag_91\n      jumpi\n      pop\n        /* \"contracts/BlackJackTable.sol\":7628:7668  hasBlackJack(token.dealerHandTotalValue) */\n      tag_92\n        /* \"contracts/BlackJackTable.sol\":7641:7646  token */\n      dup3\n        /* \"contracts/BlackJackTable.sol\":7641:7667  token.dealerHandTotalValue */\n      0x0b\n      add\n      0x03\n      swap1\n      sload\n      swap1\n      0x0100\n      exp\n      swap1\n      div\n      0xff\n      and\n        /* \"contracts/BlackJackTable.sol\":7628:7640  hasBlackJack */\n      tag_93\n        /* \"contracts/BlackJackTable.sol\":7628:7668  hasBlackJack(token.dealerHandTotalValue) */\n      jump\t// in\n    tag_92:\n        /* \"contracts/BlackJackTable.sol\":7556:7668  token.dealerHandTotalValue > token.playerHandTotalValue ||... */\n    tag_91:\n        /* \"contracts/BlackJackTable.sol\":7538:7876  if (... */\n      iszero\n      tag_94\n      jumpi\n        /* \"contracts/BlackJackTable.sol\":7695:7731  endGame(token, Result.DEALER_WIN, 0) */\n      tag_95\n        /* \"contracts/BlackJackTable.sol\":7703:7708  token */\n      dup3\n        /* \"contracts/BlackJackTable.sol\":7710:7727  Result.DEALER_WIN */\n      0x02\n        /* \"contracts/BlackJackTable.sol\":7729:7730  0 */\n      0x00\n        /* \"contracts/BlackJackTable.sol\":7695:7702  endGame */\n      tag_89\n        /* \"contracts/BlackJackTable.sol\":7695:7731  endGame(token, Result.DEALER_WIN, 0) */\n      jump\t// in\n    tag_95:\n        /* \"contracts/BlackJackTable.sol\":7538:7876  if (... */\n      jump(tag_96)\n    tag_94:\n        /* \"contracts/BlackJackTable.sol\":7783:7788  token */\n      dup2\n        /* \"contracts/BlackJackTable.sol\":7783:7809  token.playerHandTotalValue */\n      0x0b\n      add\n      0x01\n      swap1\n      sload\n      swap1\n      0x0100\n      exp\n      swap1\n      div\n      0xff\n      and\n        /* \"contracts/BlackJackTable.sol\":7753:7809  token.dealerHandTotalValue == token.playerHandTotalValue */\n      0xff\n      and\n        /* \"contracts/BlackJackTable.sol\":7753:7758  token */\n      dup3\n        /* \"contracts/BlackJackTable.sol\":7753:7779  token.dealerHandTotalValue */\n      0x0b\n      add\n      0x03\n      swap1\n      sload\n      swap1\n      0x0100\n      exp\n      swap1\n      div\n      0xff\n      and\n        /* \"contracts/BlackJackTable.sol\":7753:7809  token.dealerHandTotalValue == token.playerHandTotalValue */\n      0xff\n      and\n      sub\n        /* \"contracts/BlackJackTable.sol\":7749:7876  if (token.dealerHandTotalValue == token.playerHandTotalValue) {... */\n      tag_97\n      jumpi\n        /* \"contracts/BlackJackTable.sol\":7826:7864  endGame(token, Result.PUSH, token.bet) */\n      tag_98\n        /* \"contracts/BlackJackTable.sol\":7834:7839  token */\n      dup3\n        /* \"contracts/BlackJackTable.sol\":7841:7852  Result.PUSH */\n      0x03\n        /* \"contracts/BlackJackTable.sol\":7854:7859  token */\n      dup5\n        /* \"contracts/BlackJackTable.sol\":7854:7863  token.bet */\n      0x01\n      add\n      sload\n        /* \"contracts/BlackJackTable.sol\":7826:7833  endGame */\n      tag_89\n        /* \"contracts/BlackJackTable.sol\":7826:7864  endGame(token, Result.PUSH, token.bet) */\n      jump\t// in\n    tag_98:\n        /* \"contracts/BlackJackTable.sol\":7749:7876  if (token.dealerHandTotalValue == token.playerHandTotalValue) {... */\n    tag_97:\n        /* \"contracts/BlackJackTable.sol\":7538:7876  if (... */\n    tag_96:\n        /* \"contracts/BlackJackTable.sol\":7420:7876  if (token.dealerHandTotalValue > 21) {... */\n    tag_90:\n        /* \"contracts/BlackJackTable.sol\":6983:7883  {... */\n      pop\n      pop\n      pop\n        /* \"contracts/BlackJackTable.sol\":6957:7883  function stand() external {... */\n      jump\t// out\n        /* \"contracts/BlackJackTable.sol\":289:308  IVault public vault */\n    tag_31:\n      0x00\n      0x00\n      swap1\n      sload\n      swap1\n      0x0100\n      exp\n      swap1\n      div\n      0xffffffffffffffffffffffffffffffffffffffff\n      and\n      dup2\n      jump\t// out\n        /* \"contracts/BlackJackTable.sol\":6066:6515  function drawCard(GameToken storage token) internal returns (uint8) {... */\n    tag_42:\n        /* \"contracts/BlackJackTable.sol\":6127:6132  uint8 */\n      0x00\n        /* \"contracts/BlackJackTable.sol\":6153:6158  token */\n      dup2\n        /* \"contracts/BlackJackTable.sol\":6153:6169  token.isShuffled */\n      0x0b\n      add\n      0x00\n      swap1\n      sload\n      swap1\n      0x0100\n      exp\n      swap1\n      div\n      0xff\n      and\n        /* \"contracts/BlackJackTable.sol\":6145:6200  require(token.isShuffled, \"Deck has not been shuffled\") */\n      tag_100\n      jumpi\n      mload(0x40)\n      0x08c379a000000000000000000000000000000000000000000000000000000000\n      dup2\n      mstore\n      0x04\n      add\n      tag_101\n      swap1\n      tag_102\n      jump\t// in\n    tag_101:\n      mload(0x40)\n      dup1\n      swap2\n      sub\n      swap1\n      revert\n    tag_100:\n        /* \"contracts/BlackJackTable.sol\":6211:6220  uint8 raw */\n      0x00\n        /* \"contracts/BlackJackTable.sol\":6223:6228  token */\n      dup3\n        /* \"contracts/BlackJackTable.sol\":6223:6233  token.deck */\n      0x07\n      add\n        /* \"contracts/BlackJackTable.sol\":6234:6239  token */\n      dup4\n        /* \"contracts/BlackJackTable.sol\":6234:6249  token.drawIndex */\n      0x06\n      add\n      0x00\n      swap1\n      sload\n      swap1\n      0x0100\n      exp\n      swap1\n      div\n      0xff\n      and\n        /* \"contracts/BlackJackTable.sol\":6223:6250  token.deck[token.drawIndex] */\n      0xff\n      and\n      0x68\n      dup2\n      lt\n      tag_103\n      jumpi\n      tag_104\n      tag_105\n      jump\t// in\n    tag_104:\n    tag_103:\n      0x20\n      swap2\n      dup3\n      dup3\n      div\n      add\n      swap2\n      swap1\n      mod\n      swap1\n      sload\n      swap1\n      0x0100\n      exp\n      swap1\n      div\n      0xff\n      and\n        /* \"contracts/BlackJackTable.sol\":6211:6250  uint8 raw = token.deck[token.drawIndex] */\n      swap1\n      pop\n        /* \"contracts/BlackJackTable.sol\":6286:6297  uint8 value */\n      0x00\n        /* \"contracts/BlackJackTable.sol\":6313:6314  1 */\n      0x01\n        /* \"contracts/BlackJackTable.sol\":6307:6309  13 */\n      0x0d\n        /* \"contracts/BlackJackTable.sol\":6301:6304  raw */\n      dup4\n        /* \"contracts/BlackJackTable.sol\":6301:6309  raw % 13 */\n      tag_107\n      swap2\n      swap1\n      tag_108\n      jump\t// in\n    tag_107:\n        /* \"contracts/BlackJackTable.sol\":6300:6314  (raw % 13) + 1 */\n      tag_109\n      swap2\n      swap1\n      tag_110\n      jump\t// in\n    tag_109:\n        /* \"contracts/BlackJackTable.sol\":6286:6314  uint8 value = (raw % 13) + 1 */\n      swap1\n      pop\n        /* \"contracts/BlackJackTable.sol\":6337:6339  10 */\n      0x0a\n        /* \"contracts/BlackJackTable.sol\":6329:6334  value */\n      dup2\n        /* \"contracts/BlackJackTable.sol\":6329:6339  value > 10 */\n      0xff\n      and\n      gt\n        /* \"contracts/BlackJackTable.sol\":6325:6351  if (value > 10) value = 10 */\n      iszero\n      tag_111\n      jumpi\n        /* \"contracts/BlackJackTable.sol\":6349:6351  10 */\n      0x0a\n        /* \"contracts/BlackJackTable.sol\":6341:6351  value = 10 */\n      swap1\n      pop\n        /* \"contracts/BlackJackTable.sol\":6325:6351  if (value > 10) value = 10 */\n    tag_111:\n        /* \"contracts/BlackJackTable.sol\":6362:6367  token */\n      dup4\n        /* \"contracts/BlackJackTable.sol\":6362:6377  token.drawIndex */\n      0x06\n      add\n      0x00\n        /* \"contracts/BlackJackTable.sol\":6362:6379  token.drawIndex++ */\n      dup2\n      dup2\n      swap1\n      sload\n      swap1\n      0x0100\n      exp\n      swap1\n      div\n      0xff\n      and\n      dup1\n      swap3\n      swap2\n      swap1\n      tag_112\n      swap1\n      tag_113\n      jump\t// in\n    tag_112:\n      swap2\n      swap1\n      0x0100\n      exp\n      dup2\n      sload\n      dup2\n      0xff\n      mul\n      not\n      and\n      swap1\n      dup4\n      0xff\n      and\n      mul\n      or\n      swap1\n      sstore\n      pop\n      pop\n        /* \"contracts/BlackJackTable.sol\":6456:6484  CardDrawn(token.player, raw) */\n      0x5cb494422aec3c1d66ad0616d3f90f8641e12057560336165c27bf8793fce9cf\n        /* \"contracts/BlackJackTable.sol\":6466:6471  token */\n      dup5\n        /* \"contracts/BlackJackTable.sol\":6466:6478  token.player */\n      0x02\n      add\n      0x00\n      swap1\n      sload\n      swap1\n      0x0100\n      exp\n      swap1\n      div\n      0xffffffffffffffffffffffffffffffffffffffff\n      and\n        /* \"contracts/BlackJackTable.sol\":6480:6483  raw */\n      dup4\n        /* \"contracts/BlackJackTable.sol\":6456:6484  CardDrawn(token.player, raw) */\n      mload(0x40)\n      tag_114\n      swap3\n      swap2\n      swap1\n      tag_115\n      jump\t// in\n    tag_114:\n      mload(0x40)\n      dup1\n      swap2\n      sub\n      swap1\n      log1\n        /* \"contracts/BlackJackTable.sol\":6502:6507  value */\n      dup1\n        /* \"contracts/BlackJackTable.sol\":6495:6507  return value */\n      swap3\n      pop\n      pop\n      pop\n        /* \"contracts/BlackJackTable.sol\":6066:6515  function drawCard(GameToken storage token) internal returns (uint8) {... */\n      swap2\n      swap1\n      pop\n      jump\t// out\n        /* \"contracts/BlackJackTable.sol\":5585:6058  function addCardToHand(... */\n    tag_44:\n        /* \"contracts/BlackJackTable.sol\":5688:5693  uint8 */\n      0x00\n        /* \"contracts/BlackJackTable.sol\":5741:5755  uint8 newTotal */\n      0x00\n        /* \"contracts/BlackJackTable.sol\":5765:5777  currentTotal */\n      dup3\n        /* \"contracts/BlackJackTable.sol\":5758:5762  card */\n      dup5\n        /* \"contracts/BlackJackTable.sol\":5758:5777  card + currentTotal */\n      tag_117\n      swap2\n      swap1\n      tag_110\n      jump\t// in\n    tag_117:\n        /* \"contracts/BlackJackTable.sol\":5741:5777  uint8 newTotal = card + currentTotal */\n      swap1\n      pop\n        /* \"contracts/BlackJackTable.sol\":5792:5803  isAce(card) */\n      tag_118\n        /* \"contracts/BlackJackTable.sol\":5798:5802  card */\n      dup5\n        /* \"contracts/BlackJackTable.sol\":5792:5797  isAce */\n      tag_119\n        /* \"contracts/BlackJackTable.sol\":5792:5803  isAce(card) */\n      jump\t// in\n    tag_118:\n        /* \"contracts/BlackJackTable.sol\":5788:6019  if (isAce(card)) {... */\n      iszero\n      tag_120\n      jumpi\n        /* \"contracts/BlackJackTable.sol\":5835:5837  21 */\n      0x15\n        /* \"contracts/BlackJackTable.sol\":5824:5832  newTotal */\n      dup2\n        /* \"contracts/BlackJackTable.sol\":5824:5837  newTotal > 21 */\n      0xff\n      and\n      gt\n        /* \"contracts/BlackJackTable.sol\":5820:5952  if (newTotal > 21){... */\n      iszero\n      tag_121\n      jumpi\n        /* \"contracts/BlackJackTable.sol\":5873:5874  1 */\n      0x01\n        /* \"contracts/BlackJackTable.sol\":5857:5874  currentTotal += 1 */\n      dup4\n      tag_122\n      swap2\n      swap1\n      tag_110\n      jump\t// in\n    tag_122:\n      swap3\n      pop\n        /* \"contracts/BlackJackTable.sol\":5820:5952  if (newTotal > 21){... */\n      jump(tag_123)\n    tag_121:\n        /* \"contracts/BlackJackTable.sol\":5928:5936  newTotal */\n      dup1\n        /* \"contracts/BlackJackTable.sol\":5913:5936  currentTotal = newTotal */\n      swap3\n      pop\n        /* \"contracts/BlackJackTable.sol\":5820:5952  if (newTotal > 21){... */\n    tag_123:\n        /* \"contracts/BlackJackTable.sol\":5788:6019  if (isAce(card)) {... */\n      jump(tag_124)\n    tag_120:\n        /* \"contracts/BlackJackTable.sol\":5999:6007  newTotal */\n      dup1\n        /* \"contracts/BlackJackTable.sol\":5984:6007  currentTotal = newTotal */\n      swap3\n      pop\n        /* \"contracts/BlackJackTable.sol\":5788:6019  if (isAce(card)) {... */\n    tag_124:\n        /* \"contracts/BlackJackTable.sol\":6037:6049  currentTotal */\n      dup3\n        /* \"contracts/BlackJackTable.sol\":6029:6050  return (currentTotal) */\n      swap2\n      pop\n      pop\n        /* \"contracts/BlackJackTable.sol\":5585:6058  function addCardToHand(... */\n      swap3\n      swap2\n      pop\n      pop\n      jump\t// out\n        /* \"contracts/BlackJackTable.sol\":3120:3914  function shuffleDeck(GameToken storage token) internal {... */\n    tag_74:\n        /* \"contracts/BlackJackTable.sol\":3349:3356  uint8 i */\n      0x00\n        /* \"contracts/BlackJackTable.sol\":3359:3360  0 */\n      0x00\n        /* \"contracts/BlackJackTable.sol\":3349:3360  uint8 i = 0 */\n      swap1\n      pop\n        /* \"contracts/BlackJackTable.sol\":3344:3425  for (uint8 i = 0; i < deckSize; i++) {... */\n    tag_126:\n        /* \"contracts/BlackJackTable.sol\":682:685  104 */\n      0x68\n        /* \"contracts/BlackJackTable.sol\":3362:3374  i < deckSize */\n      0xff\n      and\n        /* \"contracts/BlackJackTable.sol\":3362:3363  i */\n      dup2\n        /* \"contracts/BlackJackTable.sol\":3362:3374  i < deckSize */\n      0xff\n      and\n      lt\n        /* \"contracts/BlackJackTable.sol\":3344:3425  for (uint8 i = 0; i < deckSize; i++) {... */\n      iszero\n      tag_127\n      jumpi\n        /* \"contracts/BlackJackTable.sol\":3412:3413  i */\n      dup1\n        /* \"contracts/BlackJackTable.sol\":3396:3401  token */\n      dup3\n        /* \"contracts/BlackJackTable.sol\":3396:3406  token.deck */\n      0x07\n      add\n        /* \"contracts/BlackJackTable.sol\":3407:3408  i */\n      dup3\n        /* \"contracts/BlackJackTable.sol\":3396:3409  token.deck[i] */\n      0xff\n      and\n      0x68\n      dup2\n      lt\n      tag_129\n      jumpi\n      tag_130\n      tag_105\n      jump\t// in\n    tag_130:\n    tag_129:\n      0x20\n      swap2\n      dup3\n      dup3\n      div\n      add\n      swap2\n      swap1\n      mod\n        /* \"contracts/BlackJackTable.sol\":3396:3413  token.deck[i] = i */\n      0x0100\n      exp\n      dup2\n      sload\n      dup2\n      0xff\n      mul\n      not\n      and\n      swap1\n      dup4\n      0xff\n      and\n      mul\n      or\n      swap1\n      sstore\n      pop\n        /* \"contracts/BlackJackTable.sol\":3376:3379  i++ */\n      dup1\n      dup1\n      0x01\n      add\n      swap2\n      pop\n      pop\n        /* \"contracts/BlackJackTable.sol\":3344:3425  for (uint8 i = 0; i < deckSize; i++) {... */\n      jump(tag_126)\n    tag_127:\n      pop\n        /* \"contracts/BlackJackTable.sol\":3545:3554  uint256 i */\n      0x00\n        /* \"contracts/BlackJackTable.sol\":3557:3558  0 */\n      0x00\n        /* \"contracts/BlackJackTable.sol\":3545:3558  uint256 i = 0 */\n      swap1\n      pop\n        /* \"contracts/BlackJackTable.sol\":3540:3871  for (uint256 i = 0; i < deckSize; i++) {... */\n    tag_132:\n        /* \"contracts/BlackJackTable.sol\":682:685  104 */\n      0x68\n        /* \"contracts/BlackJackTable.sol\":3560:3572  i < deckSize */\n      0xff\n      and\n        /* \"contracts/BlackJackTable.sol\":3560:3561  i */\n      dup2\n        /* \"contracts/BlackJackTable.sol\":3560:3572  i < deckSize */\n      lt\n        /* \"contracts/BlackJackTable.sol\":3540:3871  for (uint256 i = 0; i < deckSize; i++) {... */\n      iszero\n      tag_133\n      jumpi\n        /* \"contracts/BlackJackTable.sol\":3635:3644  uint256 n */\n      0x00\n        /* \"contracts/BlackJackTable.sol\":3731:3732  i */\n      dup2\n        /* \"contracts/BlackJackTable.sol\":682:685  104 */\n      0x68\n        /* \"contracts/BlackJackTable.sol\":3720:3732  deckSize - i */\n      0xff\n      and\n      tag_135\n      swap2\n      swap1\n      tag_136\n      jump\t// in\n    tag_135:\n        /* \"contracts/BlackJackTable.sol\":3678:3683  token */\n      dup4\n        /* \"contracts/BlackJackTable.sol\":3678:3693  token.finalSeed */\n      0x05\n      add\n      sload\n        /* \"contracts/BlackJackTable.sol\":3670:3694  uint256(token.finalSeed) */\n      0x00\n      shr\n        /* \"contracts/BlackJackTable.sol\":3669:3733  (uint256(token.finalSeed)) %... */\n      tag_137\n      swap2\n      swap1\n      tag_138\n      jump\t// in\n    tag_137:\n        /* \"contracts/BlackJackTable.sol\":3647:3648  i */\n      dup3\n        /* \"contracts/BlackJackTable.sol\":3647:3734  i +... */\n      tag_139\n      swap2\n      swap1\n      tag_140\n      jump\t// in\n    tag_139:\n        /* \"contracts/BlackJackTable.sol\":3635:3734  uint256 n = i +... */\n      swap1\n      pop\n        /* \"contracts/BlackJackTable.sol\":3830:3835  token */\n      dup3\n        /* \"contracts/BlackJackTable.sol\":3830:3840  token.deck */\n      0x07\n      add\n        /* \"contracts/BlackJackTable.sol\":3841:3842  n */\n      dup2\n        /* \"contracts/BlackJackTable.sol\":3830:3843  token.deck[n] */\n      0x68\n      dup2\n      lt\n      tag_141\n      jumpi\n      tag_142\n      tag_105\n      jump\t// in\n    tag_142:\n    tag_141:\n      0x20\n      swap2\n      dup3\n      dup3\n      div\n      add\n      swap2\n      swap1\n      mod\n      swap1\n      sload\n      swap1\n      0x0100\n      exp\n      swap1\n      div\n      0xff\n      and\n        /* \"contracts/BlackJackTable.sol\":3845:3850  token */\n      dup4\n        /* \"contracts/BlackJackTable.sol\":3845:3855  token.deck */\n      0x07\n      add\n        /* \"contracts/BlackJackTable.sol\":3856:3857  i */\n      dup4\n        /* \"contracts/BlackJackTable.sol\":3845:3858  token.deck[i] */\n      0x68\n      dup2\n      lt\n      tag_144\n      jumpi\n      tag_145\n      tag_105\n      jump\t// in\n    tag_145:\n    tag_144:\n      0x20\n      swap2\n      dup3\n      dup3\n      div\n      add\n      swap2\n      swap1\n      mod\n      swap1\n      sload\n      swap1\n      0x0100\n      exp\n      swap1\n      div\n      0xff\n      and\n        /* \"contracts/BlackJackTable.sol\":3797:3802  token */\n      dup5\n        /* \"contracts/BlackJackTable.sol\":3797:3807  token.deck */\n      0x07\n      add\n        /* \"contracts/BlackJackTable.sol\":3808:3809  i */\n      dup5\n        /* \"contracts/BlackJackTable.sol\":3797:3810  token.deck[i] */\n      0x68\n      dup2\n      lt\n      tag_147\n      jumpi\n      tag_148\n      tag_105\n      jump\t// in\n    tag_148:\n    tag_147:\n      0x20\n      swap2\n      dup3\n      dup3\n      div\n      add\n      swap2\n      swap1\n      mod\n        /* \"contracts/BlackJackTable.sol\":3812:3817  token */\n      dup7\n        /* \"contracts/BlackJackTable.sol\":3812:3822  token.deck */\n      0x07\n      add\n        /* \"contracts/BlackJackTable.sol\":3823:3824  n */\n      dup6\n        /* \"contracts/BlackJackTable.sol\":3812:3825  token.deck[n] */\n      0x68\n      dup2\n      lt\n      tag_150\n      jumpi\n      tag_151\n      tag_105\n      jump\t// in\n    tag_151:\n    tag_150:\n      0x20\n      swap2\n      dup3\n      dup3\n      div\n      add\n      swap2\n      swap1\n      mod\n        /* \"contracts/BlackJackTable.sol\":3796:3859  (token.deck[i], token.deck[n]) = (token.deck[n], token.deck[i]) */\n      dup5\n      swap2\n      swap1\n      0x0100\n      exp\n      dup2\n      sload\n      dup2\n      0xff\n      mul\n      not\n      and\n      swap1\n      dup4\n      0xff\n      and\n      mul\n      or\n      swap1\n      sstore\n      pop\n      dup4\n      swap2\n      swap1\n      0x0100\n      exp\n      dup2\n      sload\n      dup2\n      0xff\n      mul\n      not\n      and\n      swap1\n      dup4\n      0xff\n      and\n      mul\n      or\n      swap1\n      sstore\n      pop\n      pop\n      pop\n        /* \"contracts/BlackJackTable.sol\":3579:3871  {... */\n      pop\n        /* \"contracts/BlackJackTable.sol\":3574:3577  i++ */\n      dup1\n      dup1\n      0x01\n      add\n      swap2\n      pop\n      pop\n        /* \"contracts/BlackJackTable.sol\":3540:3871  for (uint256 i = 0; i < deckSize; i++) {... */\n      jump(tag_132)\n    tag_133:\n      pop\n        /* \"contracts/BlackJackTable.sol\":3902:3906  true */\n      0x01\n        /* \"contracts/BlackJackTable.sol\":3883:3888  token */\n      dup2\n        /* \"contracts/BlackJackTable.sol\":3883:3899  token.isShuffled */\n      0x0b\n      add\n      0x00\n        /* \"contracts/BlackJackTable.sol\":3883:3906  token.isShuffled = true */\n      0x0100\n      exp\n      dup2\n      sload\n      dup2\n      0xff\n      mul\n      not\n      and\n      swap1\n      dup4\n      iszero\n      iszero\n      mul\n      or\n      swap1\n      sstore\n      pop\n        /* \"contracts/BlackJackTable.sol\":3120:3914  function shuffleDeck(GameToken storage token) internal {... */\n      pop\n      jump\t// out\n        /* \"contracts/BlackJackTable.sol\":7891:8315  function endGame(... */\n    tag_89:\n        /* \"contracts/BlackJackTable.sol\":8033:8039  result */\n      dup2\n        /* \"contracts/BlackJackTable.sol\":8018:8023  token */\n      dup4\n        /* \"contracts/BlackJackTable.sol\":8018:8030  token.result */\n      0x06\n      add\n      0x03\n        /* \"contracts/BlackJackTable.sol\":8018:8039  token.result = result */\n      0x0100\n      exp\n      dup2\n      sload\n      dup2\n      0xff\n      mul\n      not\n      and\n      swap1\n      dup4\n      0x03\n      dup2\n      gt\n      iszero\n      tag_154\n      jumpi\n      tag_155\n      tag_156\n      jump\t// in\n    tag_155:\n    tag_154:\n      mul\n      or\n      swap1\n      sstore\n      pop\n        /* \"contracts/BlackJackTable.sol\":8070:8074  true */\n      0x01\n        /* \"contracts/BlackJackTable.sol\":8050:8055  token */\n      dup4\n        /* \"contracts/BlackJackTable.sol\":8050:8067  token.isCompleted */\n      0x06\n      add\n      0x02\n        /* \"contracts/BlackJackTable.sol\":8050:8074  token.isCompleted = true */\n      0x0100\n      exp\n      dup2\n      sload\n      dup2\n      0xff\n      mul\n      not\n      and\n      swap1\n      dup4\n      iszero\n      iszero\n      mul\n      or\n      swap1\n      sstore\n      pop\n        /* \"contracts/BlackJackTable.sol\":8102:8107  false */\n      0x00\n        /* \"contracts/BlackJackTable.sol\":8085:8090  token */\n      dup4\n        /* \"contracts/BlackJackTable.sol\":8085:8099  token.isActive */\n      0x06\n      add\n      0x01\n        /* \"contracts/BlackJackTable.sol\":8085:8107  token.isActive = false */\n      0x0100\n      exp\n      dup2\n      sload\n      dup2\n      0xff\n      mul\n      not\n      and\n      swap1\n      dup4\n      iszero\n      iszero\n      mul\n      or\n      swap1\n      sstore\n      pop\n        /* \"contracts/BlackJackTable.sol\":8131:8132  0 */\n      0x00\n        /* \"contracts/BlackJackTable.sol\":8122:8128  payout */\n      dup2\n        /* \"contracts/BlackJackTable.sol\":8122:8132  payout > 0 */\n      gt\n        /* \"contracts/BlackJackTable.sol\":8118:8195  if (payout > 0) {... */\n      iszero\n      tag_157\n      jumpi\n        /* \"contracts/BlackJackTable.sol\":8149:8154  vault */\n      0x00\n      0x00\n      swap1\n      sload\n      swap1\n      0x0100\n      exp\n      swap1\n      div\n      0xffffffffffffffffffffffffffffffffffffffff\n      and\n        /* \"contracts/BlackJackTable.sol\":8149:8161  vault.payout */\n      0xffffffffffffffffffffffffffffffffffffffff\n      and\n      0x117de2fd\n        /* \"contracts/BlackJackTable.sol\":8162:8167  token */\n      dup5\n        /* \"contracts/BlackJackTable.sol\":8162:8174  token.player */\n      0x02\n      add\n      0x00\n      swap1\n      sload\n      swap1\n      0x0100\n      exp\n      swap1\n      div\n      0xffffffffffffffffffffffffffffffffffffffff\n      and\n        /* \"contracts/BlackJackTable.sol\":8176:8182  payout */\n      dup4\n        /* \"contracts/BlackJackTable.sol\":8149:8183  vault.payout(token.player, payout) */\n      mload(0x40)\n      dup4\n      0xffffffff\n      and\n      0xe0\n      shl\n      dup2\n      mstore\n      0x04\n      add\n      tag_158\n      swap3\n      swap2\n      swap1\n      tag_159\n      jump\t// in\n    tag_158:\n      0x00\n      mload(0x40)\n      dup1\n      dup4\n      sub\n      dup2\n      0x00\n      dup8\n      dup1\n      extcodesize\n      iszero\n      dup1\n      iszero\n      tag_160\n      jumpi\n      revert(0x00, 0x00)\n    tag_160:\n      pop\n      gas\n      call\n      iszero\n      dup1\n      iszero\n      tag_162\n      jumpi\n      returndatacopy(0x00, 0x00, returndatasize)\n      revert(0x00, returndatasize)\n    tag_162:\n      pop\n      pop\n      pop\n      pop\n        /* \"contracts/BlackJackTable.sol\":8118:8195  if (payout > 0) {... */\n    tag_157:\n        /* \"contracts/BlackJackTable.sol\":8212:8222  activeGame */\n      0x03\n        /* \"contracts/BlackJackTable.sol\":8212:8236  activeGame[token.player] */\n      0x00\n        /* \"contracts/BlackJackTable.sol\":8223:8228  token */\n      dup5\n        /* \"contracts/BlackJackTable.sol\":8223:8235  token.player */\n      0x02\n      add\n      0x00\n      swap1\n      sload\n      swap1\n      0x0100\n      exp\n      swap1\n      div\n      0xffffffffffffffffffffffffffffffffffffffff\n      and\n        /* \"contracts/BlackJackTable.sol\":8212:8236  activeGame[token.player] */\n      0xffffffffffffffffffffffffffffffffffffffff\n      and\n      0xffffffffffffffffffffffffffffffffffffffff\n      and\n      dup2\n      mstore\n      0x20\n      add\n      swap1\n      dup2\n      mstore\n      0x20\n      add\n      0x00\n      keccak256\n        /* \"contracts/BlackJackTable.sol\":8205:8236  delete activeGame[token.player] */\n      0x00\n      swap1\n      sstore\n        /* \"contracts/BlackJackTable.sol\":8259:8260  0 */\n      0x00\n        /* \"contracts/BlackJackTable.sol\":8247:8252  token */\n      dup4\n        /* \"contracts/BlackJackTable.sol\":8247:8256  token.bet */\n      0x01\n      add\n        /* \"contracts/BlackJackTable.sol\":8247:8260  token.bet = 0 */\n      dup2\n      swap1\n      sstore\n      pop\n        /* \"contracts/BlackJackTable.sol\":8276:8307  GameEnded(token.player, result) */\n      0xecdab0d30ae5a2b8d283acf9ed4856306f12f29ef8069fac9148d3d2ac6b4b14\n        /* \"contracts/BlackJackTable.sol\":8286:8291  token */\n      dup4\n        /* \"contracts/BlackJackTable.sol\":8286:8298  token.player */\n      0x02\n      add\n      0x00\n      swap1\n      sload\n      swap1\n      0x0100\n      exp\n      swap1\n      div\n      0xffffffffffffffffffffffffffffffffffffffff\n      and\n        /* \"contracts/BlackJackTable.sol\":8300:8306  result */\n      dup4\n        /* \"contracts/BlackJackTable.sol\":8276:8307  GameEnded(token.player, result) */\n      mload(0x40)\n      tag_163\n      swap3\n      swap2\n      swap1\n      tag_164\n      jump\t// in\n    tag_163:\n      mload(0x40)\n      dup1\n      swap2\n      sub\n      swap1\n      log1\n        /* \"contracts/BlackJackTable.sol\":7891:8315  function endGame(... */\n      pop\n      pop\n      pop\n      jump\t// out\n        /* \"contracts/BlackJackTable.sol\":5348:5463  function hasBlackJack(uint8 currentTotal) internal pure returns (bool) {... */\n    tag_93:\n        /* \"contracts/BlackJackTable.sol\":5413:5417  bool */\n      0x00\n        /* \"contracts/BlackJackTable.sol\":5453:5455  21 */\n      0x15\n        /* \"contracts/BlackJackTable.sol\":5437:5449  currentTotal */\n      dup3\n        /* \"contracts/BlackJackTable.sol\":5437:5455  currentTotal == 21 */\n      0xff\n      and\n      eq\n        /* \"contracts/BlackJackTable.sol\":5430:5455  return currentTotal == 21 */\n      swap1\n      pop\n        /* \"contracts/BlackJackTable.sol\":5348:5463  function hasBlackJack(uint8 currentTotal) internal pure returns (bool) {... */\n      swap2\n      swap1\n      pop\n      jump\t// out\n        /* \"contracts/BlackJackTable.sol\":5471:5577  function isAce(uint8 card) internal pure returns (bool){... */\n    tag_119:\n        /* \"contracts/BlackJackTable.sol\":5521:5525  bool */\n      0x00\n        /* \"contracts/BlackJackTable.sol\":5553:5554  1 */\n      0x01\n        /* \"contracts/BlackJackTable.sol\":5545:5549  card */\n      dup3\n        /* \"contracts/BlackJackTable.sol\":5545:5554  card == 1 */\n      0xff\n      and\n      eq\n        /* \"contracts/BlackJackTable.sol\":5545:5568  card == 1 || card == 11 */\n      dup1\n      tag_167\n      jumpi\n      pop\n        /* \"contracts/BlackJackTable.sol\":5566:5568  11 */\n      0x0b\n        /* \"contracts/BlackJackTable.sol\":5558:5562  card */\n      dup3\n        /* \"contracts/BlackJackTable.sol\":5558:5568  card == 11 */\n      0xff\n      and\n      eq\n        /* \"contracts/BlackJackTable.sol\":5545:5568  card == 1 || card == 11 */\n    tag_167:\n        /* \"contracts/BlackJackTable.sol\":5537:5569  return (card == 1 || card == 11) */\n      swap1\n      pop\n        /* \"contracts/BlackJackTable.sol\":5471:5577  function isAce(uint8 card) internal pure returns (bool){... */\n      swap2\n      swap1\n      pop\n      jump\t// out\n        /* \"#utility.yul\":88:205   */\n    tag_169:\n        /* \"#utility.yul\":197:198   */\n      0x00\n        /* \"#utility.yul\":194:195   */\n      0x00\n        /* \"#utility.yul\":187:199   */\n      revert\n        /* \"#utility.yul\":334:411   */\n    tag_171:\n        /* \"#utility.yul\":371:378   */\n      0x00\n        /* \"#utility.yul\":400:405   */\n      dup2\n        /* \"#utility.yul\":389:405   */\n      swap1\n      pop\n        /* \"#utility.yul\":334:411   */\n      swap2\n      swap1\n      pop\n      jump\t// out\n        /* \"#utility.yul\":417:539   */\n    tag_172:\n        /* \"#utility.yul\":490:514   */\n      tag_220\n        /* \"#utility.yul\":508:513   */\n      dup2\n        /* \"#utility.yul\":490:514   */\n      tag_171\n      jump\t// in\n    tag_220:\n        /* \"#utility.yul\":483:488   */\n      dup2\n        /* \"#utility.yul\":480:515   */\n      eq\n        /* \"#utility.yul\":470:533   */\n      tag_221\n      jumpi\n        /* \"#utility.yul\":529:530   */\n      0x00\n        /* \"#utility.yul\":526:527   */\n      0x00\n        /* \"#utility.yul\":519:531   */\n      revert\n        /* \"#utility.yul\":470:533   */\n    tag_221:\n        /* \"#utility.yul\":417:539   */\n      pop\n      jump\t// out\n        /* \"#utility.yul\":545:684   */\n    tag_173:\n        /* \"#utility.yul\":591:596   */\n      0x00\n        /* \"#utility.yul\":629:635   */\n      dup2\n        /* \"#utility.yul\":616:636   */\n      calldataload\n        /* \"#utility.yul\":607:636   */\n      swap1\n      pop\n        /* \"#utility.yul\":645:678   */\n      tag_223\n        /* \"#utility.yul\":672:677   */\n      dup2\n        /* \"#utility.yul\":645:678   */\n      tag_172\n      jump\t// in\n    tag_223:\n        /* \"#utility.yul\":545:684   */\n      swap3\n      swap2\n      pop\n      pop\n      jump\t// out\n        /* \"#utility.yul\":690:1019   */\n    tag_15:\n        /* \"#utility.yul\":749:755   */\n      0x00\n        /* \"#utility.yul\":798:800   */\n      0x20\n        /* \"#utility.yul\":786:795   */\n      dup3\n        /* \"#utility.yul\":777:784   */\n      dup5\n        /* \"#utility.yul\":773:796   */\n      sub\n        /* \"#utility.yul\":769:801   */\n      slt\n        /* \"#utility.yul\":766:885   */\n      iszero\n      tag_225\n      jumpi\n        /* \"#utility.yul\":804:883   */\n      tag_226\n      tag_169\n      jump\t// in\n    tag_226:\n        /* \"#utility.yul\":766:885   */\n    tag_225:\n        /* \"#utility.yul\":924:925   */\n      0x00\n        /* \"#utility.yul\":949:1002   */\n      tag_227\n        /* \"#utility.yul\":994:1001   */\n      dup5\n        /* \"#utility.yul\":985:991   */\n      dup3\n        /* \"#utility.yul\":974:983   */\n      dup6\n        /* \"#utility.yul\":970:992   */\n      add\n        /* \"#utility.yul\":949:1002   */\n      tag_173\n      jump\t// in\n    tag_227:\n        /* \"#utility.yul\":939:1002   */\n      swap2\n      pop\n        /* \"#utility.yul\":895:1012   */\n      pop\n        /* \"#utility.yul\":690:1019   */\n      swap3\n      swap2\n      pop\n      pop\n      jump\t// out\n        /* \"#utility.yul\":1025:1143   */\n    tag_174:\n        /* \"#utility.yul\":1112:1136   */\n      tag_229\n        /* \"#utility.yul\":1130:1135   */\n      dup2\n        /* \"#utility.yul\":1112:1136   */\n      tag_171\n      jump\t// in\n    tag_229:\n        /* \"#utility.yul\":1107:1110   */\n      dup3\n        /* \"#utility.yul\":1100:1137   */\n      mstore\n        /* \"#utility.yul\":1025:1143   */\n      pop\n      pop\n      jump\t// out\n        /* \"#utility.yul\":1149:1371   */\n    tag_20:\n        /* \"#utility.yul\":1242:1246   */\n      0x00\n        /* \"#utility.yul\":1280:1282   */\n      0x20\n        /* \"#utility.yul\":1269:1278   */\n      dup3\n        /* \"#utility.yul\":1265:1283   */\n      add\n        /* \"#utility.yul\":1257:1283   */\n      swap1\n      pop\n        /* \"#utility.yul\":1293:1364   */\n      tag_231\n        /* \"#utility.yul\":1361:1362   */\n      0x00\n        /* \"#utility.yul\":1350:1359   */\n      dup4\n        /* \"#utility.yul\":1346:1363   */\n      add\n        /* \"#utility.yul\":1337:1343   */\n      dup5\n        /* \"#utility.yul\":1293:1364   */\n      tag_174\n      jump\t// in\n    tag_231:\n        /* \"#utility.yul\":1149:1371   */\n      swap3\n      swap2\n      pop\n      pop\n      jump\t// out\n        /* \"#utility.yul\":1377:1503   */\n    tag_175:\n        /* \"#utility.yul\":1414:1421   */\n      0x00\n        /* \"#utility.yul\":1454:1496   */\n      0xffffffffffffffffffffffffffffffffffffffff\n        /* \"#utility.yul\":1447:1452   */\n      dup3\n        /* \"#utility.yul\":1443:1497   */\n      and\n        /* \"#utility.yul\":1432:1497   */\n      swap1\n      pop\n        /* \"#utility.yul\":1377:1503   */\n      swap2\n      swap1\n      pop\n      jump\t// out\n        /* \"#utility.yul\":1509:1569   */\n    tag_176:\n        /* \"#utility.yul\":1537:1540   */\n      0x00\n        /* \"#utility.yul\":1558:1563   */\n      dup2\n        /* \"#utility.yul\":1551:1563   */\n      swap1\n      pop\n        /* \"#utility.yul\":1509:1569   */\n      swap2\n      swap1\n      pop\n      jump\t// out\n        /* \"#utility.yul\":1575:1717   */\n    tag_177:\n        /* \"#utility.yul\":1625:1634   */\n      0x00\n        /* \"#utility.yul\":1658:1711   */\n      tag_235\n        /* \"#utility.yul\":1676:1710   */\n      tag_236\n        /* \"#utility.yul\":1685:1709   */\n      tag_237\n        /* \"#utility.yul\":1703:1708   */\n      dup5\n        /* \"#utility.yul\":1685:1709   */\n      tag_175\n      jump\t// in\n    tag_237:\n        /* \"#utility.yul\":1676:1710   */\n      tag_176\n      jump\t// in\n    tag_236:\n        /* \"#utility.yul\":1658:1711   */\n      tag_175\n      jump\t// in\n    tag_235:\n        /* \"#utility.yul\":1645:1711   */\n      swap1\n      pop\n        /* \"#utility.yul\":1575:1717   */\n      swap2\n      swap1\n      pop\n      jump\t// out\n        /* \"#utility.yul\":1723:1849   */\n    tag_178:\n        /* \"#utility.yul\":1773:1782   */\n      0x00\n        /* \"#utility.yul\":1806:1843   */\n      tag_239\n        /* \"#utility.yul\":1837:1842   */\n      dup3\n        /* \"#utility.yul\":1806:1843   */\n      tag_177\n      jump\t// in\n    tag_239:\n        /* \"#utility.yul\":1793:1843   */\n      swap1\n      pop\n        /* \"#utility.yul\":1723:1849   */\n      swap2\n      swap1\n      pop\n      jump\t// out\n        /* \"#utility.yul\":1855:1996   */\n    tag_179:\n        /* \"#utility.yul\":1920:1929   */\n      0x00\n        /* \"#utility.yul\":1953:1990   */\n      tag_241\n        /* \"#utility.yul\":1984:1989   */\n      dup3\n        /* \"#utility.yul\":1953:1990   */\n      tag_178\n      jump\t// in\n    tag_241:\n        /* \"#utility.yul\":1940:1990   */\n      swap1\n      pop\n        /* \"#utility.yul\":1855:1996   */\n      swap2\n      swap1\n      pop\n      jump\t// out\n        /* \"#utility.yul\":2002:2163   */\n    tag_180:\n        /* \"#utility.yul\":2104:2156   */\n      tag_243\n        /* \"#utility.yul\":2150:2155   */\n      dup2\n        /* \"#utility.yul\":2104:2156   */\n      tag_179\n      jump\t// in\n    tag_243:\n        /* \"#utility.yul\":2099:2102   */\n      dup3\n        /* \"#utility.yul\":2092:2157   */\n      mstore\n        /* \"#utility.yul\":2002:2163   */\n      pop\n      pop\n      jump\t// out\n        /* \"#utility.yul\":2169:2421   */\n    tag_24:\n        /* \"#utility.yul\":2277:2281   */\n      0x00\n        /* \"#utility.yul\":2315:2317   */\n      0x20\n        /* \"#utility.yul\":2304:2313   */\n      dup3\n        /* \"#utility.yul\":2300:2318   */\n      add\n        /* \"#utility.yul\":2292:2318   */\n      swap1\n      pop\n        /* \"#utility.yul\":2328:2414   */\n      tag_245\n        /* \"#utility.yul\":2411:2412   */\n      0x00\n        /* \"#utility.yul\":2400:2409   */\n      dup4\n        /* \"#utility.yul\":2396:2413   */\n      add\n        /* \"#utility.yul\":2387:2393   */\n      dup5\n        /* \"#utility.yul\":2328:2414   */\n      tag_180\n      jump\t// in\n    tag_245:\n        /* \"#utility.yul\":2169:2421   */\n      swap3\n      swap2\n      pop\n      pop\n      jump\t// out\n        /* \"#utility.yul\":2427:2567   */\n    tag_181:\n        /* \"#utility.yul\":2491:2500   */\n      0x00\n        /* \"#utility.yul\":2524:2561   */\n      tag_247\n        /* \"#utility.yul\":2555:2560   */\n      dup3\n        /* \"#utility.yul\":2524:2561   */\n      tag_178\n      jump\t// in\n    tag_247:\n        /* \"#utility.yul\":2511:2561   */\n      swap1\n      pop\n        /* \"#utility.yul\":2427:2567   */\n      swap2\n      swap1\n      pop\n      jump\t// out\n        /* \"#utility.yul\":2573:2732   */\n    tag_182:\n        /* \"#utility.yul\":2674:2725   */\n      tag_249\n        /* \"#utility.yul\":2719:2724   */\n      dup2\n        /* \"#utility.yul\":2674:2725   */\n      tag_181\n      jump\t// in\n    tag_249:\n        /* \"#utility.yul\":2669:2672   */\n      dup3\n        /* \"#utility.yul\":2662:2726   */\n      mstore\n        /* \"#utility.yul\":2573:2732   */\n      pop\n      pop\n      jump\t// out\n        /* \"#utility.yul\":2738:2988   */\n    tag_33:\n        /* \"#utility.yul\":2845:2849   */\n      0x00\n        /* \"#utility.yul\":2883:2885   */\n      0x20\n        /* \"#utility.yul\":2872:2881   */\n      dup3\n        /* \"#utility.yul\":2868:2886   */\n      add\n        /* \"#utility.yul\":2860:2886   */\n      swap1\n      pop\n        /* \"#utility.yul\":2896:2981   */\n      tag_251\n        /* \"#utility.yul\":2978:2979   */\n      0x00\n        /* \"#utility.yul\":2967:2976   */\n      dup4\n        /* \"#utility.yul\":2963:2980   */\n      add\n        /* \"#utility.yul\":2954:2960   */\n      dup5\n        /* \"#utility.yul\":2896:2981   */\n      tag_182\n      jump\t// in\n    tag_251:\n        /* \"#utility.yul\":2738:2988   */\n      swap3\n      swap2\n      pop\n      pop\n      jump\t// out\n        /* \"#utility.yul\":2994:3163   */\n    tag_183:\n        /* \"#utility.yul\":3078:3089   */\n      0x00\n        /* \"#utility.yul\":3112:3118   */\n      dup3\n        /* \"#utility.yul\":3107:3110   */\n      dup3\n        /* \"#utility.yul\":3100:3119   */\n      mstore\n        /* \"#utility.yul\":3152:3156   */\n      0x20\n        /* \"#utility.yul\":3147:3150   */\n      dup3\n        /* \"#utility.yul\":3143:3157   */\n      add\n        /* \"#utility.yul\":3128:3157   */\n      swap1\n      pop\n        /* \"#utility.yul\":2994:3163   */\n      swap3\n      swap2\n      pop\n      pop\n      jump\t// out\n        /* \"#utility.yul\":3169:3341   */\n    tag_184:\n        /* \"#utility.yul\":3309:3333   */\n      0x4e6f2067616d6520697320696e2070726f677265737300000000000000000000\n        /* \"#utility.yul\":3305:3306   */\n      0x00\n        /* \"#utility.yul\":3297:3303   */\n      dup3\n        /* \"#utility.yul\":3293:3307   */\n      add\n        /* \"#utility.yul\":3286:3334   */\n      mstore\n        /* \"#utility.yul\":3169:3341   */\n      pop\n      jump\t// out\n        /* \"#utility.yul\":3347:3713   */\n    tag_185:\n        /* \"#utility.yul\":3489:3492   */\n      0x00\n        /* \"#utility.yul\":3510:3577   */\n      tag_255\n        /* \"#utility.yul\":3574:3576   */\n      0x16\n        /* \"#utility.yul\":3569:3572   */\n      dup4\n        /* \"#utility.yul\":3510:3577   */\n      tag_183\n      jump\t// in\n    tag_255:\n        /* \"#utility.yul\":3503:3577   */\n      swap2\n      pop\n        /* \"#utility.yul\":3586:3679   */\n      tag_256\n        /* \"#utility.yul\":3675:3678   */\n      dup3\n        /* \"#utility.yul\":3586:3679   */\n      tag_184\n      jump\t// in\n    tag_256:\n        /* \"#utility.yul\":3704:3706   */\n      0x20\n        /* \"#utility.yul\":3699:3702   */\n      dup3\n        /* \"#utility.yul\":3695:3707   */\n      add\n        /* \"#utility.yul\":3688:3707   */\n      swap1\n      pop\n        /* \"#utility.yul\":3347:3713   */\n      swap2\n      swap1\n      pop\n      jump\t// out\n        /* \"#utility.yul\":3719:4138   */\n    tag_37:\n        /* \"#utility.yul\":3885:3889   */\n      0x00\n        /* \"#utility.yul\":3923:3925   */\n      0x20\n        /* \"#utility.yul\":3912:3921   */\n      dup3\n        /* \"#utility.yul\":3908:3926   */\n      add\n        /* \"#utility.yul\":3900:3926   */\n      swap1\n      pop\n        /* \"#utility.yul\":3972:3981   */\n      dup2\n        /* \"#utility.yul\":3966:3970   */\n      dup2\n        /* \"#utility.yul\":3962:3982   */\n      sub\n        /* \"#utility.yul\":3958:3959   */\n      0x00\n        /* \"#utility.yul\":3947:3956   */\n      dup4\n        /* \"#utility.yul\":3943:3960   */\n      add\n        /* \"#utility.yul\":3936:3983   */\n      mstore\n        /* \"#utility.yul\":4000:4131   */\n      tag_258\n        /* \"#utility.yul\":4126:4130   */\n      dup2\n        /* \"#utility.yul\":4000:4131   */\n      tag_185\n      jump\t// in\n    tag_258:\n        /* \"#utility.yul\":3992:4131   */\n      swap1\n      pop\n        /* \"#utility.yul\":3719:4138   */\n      swap2\n      swap1\n      pop\n      jump\t// out\n        /* \"#utility.yul\":4144:4319   */\n    tag_186:\n        /* \"#utility.yul\":4284:4311   */\n      0x47616d652068617320616c72656164792066696e697368656400000000000000\n        /* \"#utility.yul\":4280:4281   */\n      0x00\n        /* \"#utility.yul\":4272:4278   */\n      dup3\n        /* \"#utility.yul\":4268:4282   */\n      add\n        /* \"#utility.yul\":4261:4312   */\n      mstore\n        /* \"#utility.yul\":4144:4319   */\n      pop\n      jump\t// out\n        /* \"#utility.yul\":4325:4691   */\n    tag_187:\n        /* \"#utility.yul\":4467:4470   */\n      0x00\n        /* \"#utility.yul\":4488:4555   */\n      tag_261\n        /* \"#utility.yul\":4552:4554   */\n      0x19\n        /* \"#utility.yul\":4547:4550   */\n      dup4\n        /* \"#utility.yul\":4488:4555   */\n      tag_183\n      jump\t// in\n    tag_261:\n        /* \"#utility.yul\":4481:4555   */\n      swap2\n      pop\n        /* \"#utility.yul\":4564:4657   */\n      tag_262\n        /* \"#utility.yul\":4653:4656   */\n      dup3\n        /* \"#utility.yul\":4564:4657   */\n      tag_186\n      jump\t// in\n    tag_262:\n        /* \"#utility.yul\":4682:4684   */\n      0x20\n        /* \"#utility.yul\":4677:4680   */\n      dup3\n        /* \"#utility.yul\":4673:4685   */\n      add\n        /* \"#utility.yul\":4666:4685   */\n      swap1\n      pop\n        /* \"#utility.yul\":4325:4691   */\n      swap2\n      swap1\n      pop\n      jump\t// out\n        /* \"#utility.yul\":4697:5116   */\n    tag_40:\n        /* \"#utility.yul\":4863:4867   */\n      0x00\n        /* \"#utility.yul\":4901:4903   */\n      0x20\n        /* \"#utility.yul\":4890:4899   */\n      dup3\n        /* \"#utility.yul\":4886:4904   */\n      add\n        /* \"#utility.yul\":4878:4904   */\n      swap1\n      pop\n        /* \"#utility.yul\":4950:4959   */\n      dup2\n        /* \"#utility.yul\":4944:4948   */\n      dup2\n        /* \"#utility.yul\":4940:4960   */\n      sub\n        /* \"#utility.yul\":4936:4937   */\n      0x00\n        /* \"#utility.yul\":4925:4934   */\n      dup4\n        /* \"#utility.yul\":4921:4938   */\n      add\n        /* \"#utility.yul\":4914:4961   */\n      mstore\n        /* \"#utility.yul\":4978:5109   */\n      tag_264\n        /* \"#utility.yul\":5104:5108   */\n      dup2\n        /* \"#utility.yul\":4978:5109   */\n      tag_187\n      jump\t// in\n    tag_264:\n        /* \"#utility.yul\":4970:5109   */\n      swap1\n      pop\n        /* \"#utility.yul\":4697:5116   */\n      swap2\n      swap1\n      pop\n      jump\t// out\n        /* \"#utility.yul\":5122:5296   */\n    tag_188:\n        /* \"#utility.yul\":5262:5288   */\n      0x47616d6520616c726561647920696e2070726f67726573730000000000000000\n        /* \"#utility.yul\":5258:5259   */\n      0x00\n        /* \"#utility.yul\":5250:5256   */\n      dup3\n        /* \"#utility.yul\":5246:5260   */\n      add\n        /* \"#utility.yul\":5239:5289   */\n      mstore\n        /* \"#utility.yul\":5122:5296   */\n      pop\n      jump\t// out\n        /* \"#utility.yul\":5302:5668   */\n    tag_189:\n        /* \"#utility.yul\":5444:5447   */\n      0x00\n        /* \"#utility.yul\":5465:5532   */\n      tag_267\n        /* \"#utility.yul\":5529:5531   */\n      0x18\n        /* \"#utility.yul\":5524:5527   */\n      dup4\n        /* \"#utility.yul\":5465:5532   */\n      tag_183\n      jump\t// in\n    tag_267:\n        /* \"#utility.yul\":5458:5532   */\n      swap2\n      pop\n        /* \"#utility.yul\":5541:5634   */\n      tag_268\n        /* \"#utility.yul\":5630:5633   */\n      dup3\n        /* \"#utility.yul\":5541:5634   */\n      tag_188\n      jump\t// in\n    tag_268:\n        /* \"#utility.yul\":5659:5661   */\n      0x20\n        /* \"#utility.yul\":5654:5657   */\n      dup3\n        /* \"#utility.yul\":5650:5662   */\n      add\n        /* \"#utility.yul\":5643:5662   */\n      swap1\n      pop\n        /* \"#utility.yul\":5302:5668   */\n      swap2\n      swap1\n      pop\n      jump\t// out\n        /* \"#utility.yul\":5674:6093   */\n    tag_48:\n        /* \"#utility.yul\":5840:5844   */\n      0x00\n        /* \"#utility.yul\":5878:5880   */\n      0x20\n        /* \"#utility.yul\":5867:5876   */\n      dup3\n        /* \"#utility.yul\":5863:5881   */\n      add\n        /* \"#utility.yul\":5855:5881   */\n      swap1\n      pop\n        /* \"#utility.yul\":5927:5936   */\n      dup2\n        /* \"#utility.yul\":5921:5925   */\n      dup2\n        /* \"#utility.yul\":5917:5937   */\n      sub\n        /* \"#utility.yul\":5913:5914   */\n      0x00\n        /* \"#utility.yul\":5902:5911   */\n      dup4\n        /* \"#utility.yul\":5898:5915   */\n      add\n        /* \"#utility.yul\":5891:5938   */\n      mstore\n        /* \"#utility.yul\":5955:6086   */\n      tag_270\n        /* \"#utility.yul\":6081:6085   */\n      dup2\n        /* \"#utility.yul\":5955:6086   */\n      tag_189\n      jump\t// in\n    tag_270:\n        /* \"#utility.yul\":5947:6086   */\n      swap1\n      pop\n        /* \"#utility.yul\":5674:6093   */\n      swap2\n      swap1\n      pop\n      jump\t// out\n        /* \"#utility.yul\":6099:6279   */\n    tag_190:\n        /* \"#utility.yul\":6147:6224   */\n      0x4e487b7100000000000000000000000000000000000000000000000000000000\n        /* \"#utility.yul\":6144:6145   */\n      0x00\n        /* \"#utility.yul\":6137:6225   */\n      mstore\n        /* \"#utility.yul\":6244:6248   */\n      0x11\n        /* \"#utility.yul\":6241:6242   */\n      0x04\n        /* \"#utility.yul\":6234:6249   */\n      mstore\n        /* \"#utility.yul\":6268:6272   */\n      0x24\n        /* \"#utility.yul\":6265:6266   */\n      0x00\n        /* \"#utility.yul\":6258:6273   */\n      revert\n        /* \"#utility.yul\":6285:6518   */\n    tag_50:\n        /* \"#utility.yul\":6324:6327   */\n      0x00\n        /* \"#utility.yul\":6347:6371   */\n      tag_273\n        /* \"#utility.yul\":6365:6370   */\n      dup3\n        /* \"#utility.yul\":6347:6371   */\n      tag_171\n      jump\t// in\n    tag_273:\n        /* \"#utility.yul\":6338:6371   */\n      swap2\n      pop\n        /* \"#utility.yul\":6393:6459   */\n      0xffffffffffffffffffffffffffffffffffffffffffffffffffffffffffffffff\n        /* \"#utility.yul\":6386:6391   */\n      dup3\n        /* \"#utility.yul\":6383:6460   */\n      sub\n        /* \"#utility.yul\":6380:6483   */\n      tag_274\n      jumpi\n        /* \"#utility.yul\":6463:6481   */\n      tag_275\n      tag_190\n      jump\t// in\n    tag_275:\n        /* \"#utility.yul\":6380:6483   */\n    tag_274:\n        /* \"#utility.yul\":6510:6511   */\n      0x01\n        /* \"#utility.yul\":6503:6508   */\n      dup3\n        /* \"#utility.yul\":6499:6512   */\n      add\n        /* \"#utility.yul\":6492:6512   */\n      swap1\n      pop\n        /* \"#utility.yul\":6285:6518   */\n      swap2\n      swap1\n      pop\n      jump\t// out\n        /* \"#utility.yul\":6524:6620   */\n    tag_191:\n        /* \"#utility.yul\":6561:6568   */\n      0x00\n        /* \"#utility.yul\":6590:6614   */\n      tag_277\n        /* \"#utility.yul\":6608:6613   */\n      dup3\n        /* \"#utility.yul\":6590:6614   */\n      tag_175\n      jump\t// in\n    tag_277:\n        /* \"#utility.yul\":6579:6614   */\n      swap1\n      pop\n        /* \"#utility.yul\":6524:6620   */\n      swap2\n      swap1\n      pop\n      jump\t// out\n        /* \"#utility.yul\":6626:6744   */\n    tag_192:\n        /* \"#utility.yul\":6713:6737   */\n      tag_279\n        /* \"#utility.yul\":6731:6736   */\n      dup2\n        /* \"#utility.yul\":6713:6737   */\n      tag_191\n      jump\t// in\n    tag_279:\n        /* \"#utility.yul\":6708:6711   */\n      dup3\n        /* \"#utility.yul\":6701:6738   */\n      mstore\n        /* \"#utility.yul\":6626:6744   */\n      pop\n      pop\n      jump\t// out\n        /* \"#utility.yul\":6750:7082   */\n    tag_52:\n        /* \"#utility.yul\":6871:6875   */\n      0x00\n        /* \"#utility.yul\":6909:6911   */\n      0x40\n        /* \"#utility.yul\":6898:6907   */\n      dup3\n        /* \"#utility.yul\":6894:6912   */\n      add\n        /* \"#utility.yul\":6886:6912   */\n      swap1\n      pop\n        /* \"#utility.yul\":6922:6993   */\n      tag_281\n        /* \"#utility.yul\":6990:6991   */\n      0x00\n        /* \"#utility.yul\":6979:6988   */\n      dup4\n        /* \"#utility.yul\":6975:6992   */\n      add\n        /* \"#utility.yul\":6966:6972   */\n      dup6\n        /* \"#utility.yul\":6922:6993   */\n      tag_174\n      jump\t// in\n    tag_281:\n        /* \"#utility.yul\":7003:7075   */\n      tag_282\n        /* \"#utility.yul\":7071:7073   */\n      0x20\n        /* \"#utility.yul\":7060:7069   */\n      dup4\n        /* \"#utility.yul\":7056:7074   */\n      add\n        /* \"#utility.yul\":7047:7053   */\n      dup5\n        /* \"#utility.yul\":7003:7075   */\n      tag_192\n      jump\t// in\n    tag_282:\n        /* \"#utility.yul\":6750:7082   */\n      swap4\n      swap3\n      pop\n      pop\n      pop\n      jump\t// out\n        /* \"#utility.yul\":7088:7255   */\n    tag_193:\n        /* \"#utility.yul\":7228:7247   */\n      0x426574206f7574206f662072616e67652e000000000000000000000000000000\n        /* \"#utility.yul\":7224:7225   */\n      0x00\n        /* \"#utility.yul\":7216:7222   */\n      dup3\n        /* \"#utility.yul\":7212:7226   */\n      add\n        /* \"#utility.yul\":7205:7248   */\n      mstore\n        /* \"#utility.yul\":7088:7255   */\n      pop\n      jump\t// out\n        /* \"#utility.yul\":7261:7627   */\n    tag_194:\n        /* \"#utility.yul\":7403:7406   */\n      0x00\n        /* \"#utility.yul\":7424:7491   */\n      tag_285\n        /* \"#utility.yul\":7488:7490   */\n      0x11\n        /* \"#utility.yul\":7483:7486   */\n      dup4\n        /* \"#utility.yul\":7424:7491   */\n      tag_183\n      jump\t// in\n    tag_285:\n        /* \"#utility.yul\":7417:7491   */\n      swap2\n      pop\n        /* \"#utility.yul\":7500:7593   */\n      tag_286\n        /* \"#utility.yul\":7589:7592   */\n      dup3\n        /* \"#utility.yul\":7500:7593   */\n      tag_193\n      jump\t// in\n    tag_286:\n        /* \"#utility.yul\":7618:7620   */\n      0x20\n        /* \"#utility.yul\":7613:7616   */\n      dup3\n        /* \"#utility.yul\":7609:7621   */\n      add\n        /* \"#utility.yul\":7602:7621   */\n      swap1\n      pop\n        /* \"#utility.yul\":7261:7627   */\n      swap2\n      swap1\n      pop\n      jump\t// out\n        /* \"#utility.yul\":7633:8052   */\n    tag_57:\n        /* \"#utility.yul\":7799:7803   */\n      0x00\n        /* \"#utility.yul\":7837:7839   */\n      0x20\n        /* \"#utility.yul\":7826:7835   */\n      dup3\n        /* \"#utility.yul\":7822:7840   */\n      add\n        /* \"#utility.yul\":7814:7840   */\n      swap1\n      pop\n        /* \"#utility.yul\":7886:7895   */\n      dup2\n        /* \"#utility.yul\":7880:7884   */\n      dup2\n        /* \"#utility.yul\":7876:7896   */\n      sub\n        /* \"#utility.yul\":7872:7873   */\n      0x00\n        /* \"#utility.yul\":7861:7870   */\n      dup4\n        /* \"#utility.yul\":7857:7874   */\n      add\n        /* \"#utility.yul\":7850:7897   */\n      mstore\n        /* \"#utility.yul\":7914:8045   */\n      tag_288\n        /* \"#utility.yul\":8040:8044   */\n      dup2\n        /* \"#utility.yul\":7914:8045   */\n      tag_194\n      jump\t// in\n    tag_288:\n        /* \"#utility.yul\":7906:8045   */\n      swap1\n      pop\n        /* \"#utility.yul\":7633:8052   */\n      swap2\n      swap1\n      pop\n      jump\t// out\n        /* \"#utility.yul\":8058:8232   */\n    tag_195:\n        /* \"#utility.yul\":8198:8224   */\n      0x4e6f206163746976652067616d652063757272656e746c790000000000000000\n        /* \"#utility.yul\":8194:8195   */\n      0x00\n        /* \"#utility.yul\":8186:8192   */\n      dup3\n        /* \"#utility.yul\":8182:8196   */\n      add\n        /* \"#utility.yul\":8175:8225   */\n      mstore\n        /* \"#utility.yul\":8058:8232   */\n      pop\n      jump\t// out\n        /* \"#utility.yul\":8238:8604   */\n    tag_196:\n        /* \"#utility.yul\":8380:8383   */\n      0x00\n        /* \"#utility.yul\":8401:8468   */\n      tag_291\n        /* \"#utility.yul\":8465:8467   */\n      0x18\n        /* \"#utility.yul\":8460:8463   */\n      dup4\n        /* \"#utility.yul\":8401:8468   */\n      tag_183\n      jump\t// in\n    tag_291:\n        /* \"#utility.yul\":8394:8468   */\n      swap2\n      pop\n        /* \"#utility.yul\":8477:8570   */\n      tag_292\n        /* \"#utility.yul\":8566:8569   */\n      dup3\n        /* \"#utility.yul\":8477:8570   */\n      tag_195\n      jump\t// in\n    tag_292:\n        /* \"#utility.yul\":8595:8597   */\n      0x20\n        /* \"#utility.yul\":8590:8593   */\n      dup3\n        /* \"#utility.yul\":8586:8598   */\n      add\n        /* \"#utility.yul\":8579:8598   */\n      swap1\n      pop\n        /* \"#utility.yul\":8238:8604   */\n      swap2\n      swap1\n      pop\n      jump\t// out\n        /* \"#utility.yul\":8610:9029   */\n    tag_60:\n        /* \"#utility.yul\":8776:8780   */\n      0x00\n        /* \"#utility.yul\":8814:8816   */\n      0x20\n        /* \"#utility.yul\":8803:8812   */\n      dup3\n        /* \"#utility.yul\":8799:8817   */\n      add\n        /* \"#utility.yul\":8791:8817   */\n      swap1\n      pop\n        /* \"#utility.yul\":8863:8872   */\n      dup2\n        /* \"#utility.yul\":8857:8861   */\n      dup2\n        /* \"#utility.yul\":8853:8873   */\n      sub\n        /* \"#utility.yul\":8849:8850   */\n      0x00\n        /* \"#utility.yul\":8838:8847   */\n      dup4\n        /* \"#utility.yul\":8834:8851   */\n      add\n        /* \"#utility.yul\":8827:8874   */\n      mstore\n        /* \"#utility.yul\":8891:9022   */\n      tag_294\n        /* \"#utility.yul\":9017:9021   */\n      dup2\n        /* \"#utility.yul\":8891:9022   */\n      tag_196\n      jump\t// in\n    tag_294:\n        /* \"#utility.yul\":8883:9022   */\n      swap1\n      pop\n        /* \"#utility.yul\":8610:9029   */\n      swap2\n      swap1\n      pop\n      jump\t// out\n        /* \"#utility.yul\":9035:9203   */\n    tag_197:\n        /* \"#utility.yul\":9175:9195   */\n      0x42657420616c726561647920706c616365640000000000000000000000000000\n        /* \"#utility.yul\":9171:9172   */\n      0x00\n        /* \"#utility.yul\":9163:9169   */\n      dup3\n        /* \"#utility.yul\":9159:9173   */\n      add\n        /* \"#utility.yul\":9152:9196   */\n      mstore\n        /* \"#utility.yul\":9035:9203   */\n      pop\n      jump\t// out\n        /* \"#utility.yul\":9209:9575   */\n    tag_198:\n        /* \"#utility.yul\":9351:9354   */\n      0x00\n        /* \"#utility.yul\":9372:9439   */\n      tag_297\n        /* \"#utility.yul\":9436:9438   */\n      0x12\n        /* \"#utility.yul\":9431:9434   */\n      dup4\n        /* \"#utility.yul\":9372:9439   */\n      tag_183\n      jump\t// in\n    tag_297:\n        /* \"#utility.yul\":9365:9439   */\n      swap2\n      pop\n        /* \"#utility.yul\":9448:9541   */\n      tag_298\n        /* \"#utility.yul\":9537:9540   */\n      dup3\n        /* \"#utility.yul\":9448:9541   */\n      tag_197\n      jump\t// in\n    tag_298:\n        /* \"#utility.yul\":9566:9568   */\n      0x20\n        /* \"#utility.yul\":9561:9564   */\n      dup3\n        /* \"#utility.yul\":9557:9569   */\n      add\n        /* \"#utility.yul\":9550:9569   */\n      swap1\n      pop\n        /* \"#utility.yul\":9209:9575   */\n      swap2\n      swap1\n      pop\n      jump\t// out\n        /* \"#utility.yul\":9581:10000   */\n    tag_63:\n        /* \"#utility.yul\":9747:9751   */\n      0x00\n        /* \"#utility.yul\":9785:9787   */\n      0x20\n        /* \"#utility.yul\":9774:9783   */\n      dup3\n        /* \"#utility.yul\":9770:9788   */\n      add\n        /* \"#utility.yul\":9762:9788   */\n      swap1\n      pop\n        /* \"#utility.yul\":9834:9843   */\n      dup2\n        /* \"#utility.yul\":9828:9832   */\n      dup2\n        /* \"#utility.yul\":9824:9844   */\n      sub\n        /* \"#utility.yul\":9820:9821   */\n      0x00\n        /* \"#utility.yul\":9809:9818   */\n      dup4\n        /* \"#utility.yul\":9805:9822   */\n      add\n        /* \"#utility.yul\":9798:9845   */\n      mstore\n        /* \"#utility.yul\":9862:9993   */\n      tag_300\n        /* \"#utility.yul\":9988:9992   */\n      dup2\n        /* \"#utility.yul\":9862:9993   */\n      tag_198\n      jump\t// in\n    tag_300:\n        /* \"#utility.yul\":9854:9993   */\n      swap1\n      pop\n        /* \"#utility.yul\":9581:10000   */\n      swap2\n      swap1\n      pop\n      jump\t// out\n        /* \"#utility.yul\":10006:10338   */\n    tag_68:\n        /* \"#utility.yul\":10127:10131   */\n      0x00\n        /* \"#utility.yul\":10165:10167   */\n      0x40\n        /* \"#utility.yul\":10154:10163   */\n      dup3\n        /* \"#utility.yul\":10150:10168   */\n      add\n        /* \"#utility.yul\":10142:10168   */\n      swap1\n      pop\n        /* \"#utility.yul\":10178:10249   */\n      tag_302\n        /* \"#utility.yul\":10246:10247   */\n      0x00\n        /* \"#utility.yul\":10235:10244   */\n      dup4\n        /* \"#utility.yul\":10231:10248   */\n      add\n        /* \"#utility.yul\":10222:10228   */\n      dup6\n        /* \"#utility.yul\":10178:10249   */\n      tag_174\n      jump\t// in\n    tag_302:\n        /* \"#utility.yul\":10259:10331   */\n      tag_303\n        /* \"#utility.yul\":10327:10329   */\n      0x20\n        /* \"#utility.yul\":10316:10325   */\n      dup4\n        /* \"#utility.yul\":10312:10330   */\n      add\n        /* \"#utility.yul\":10303:10309   */\n      dup5\n        /* \"#utility.yul\":10259:10331   */\n      tag_174\n      jump\t// in\n    tag_303:\n        /* \"#utility.yul\":10006:10338   */\n      swap4\n      swap3\n      pop\n      pop\n      pop\n      jump\t// out\n        /* \"#utility.yul\":10344:10421   */\n    tag_199:\n        /* \"#utility.yul\":10381:10388   */\n      0x00\n        /* \"#utility.yul\":10410:10415   */\n      dup2\n        /* \"#utility.yul\":10399:10415   */\n      swap1\n      pop\n        /* \"#utility.yul\":10344:10421   */\n      swap2\n      swap1\n      pop\n      jump\t// out\n        /* \"#utility.yul\":10427:10549   */\n    tag_200:\n        /* \"#utility.yul\":10500:10524   */\n      tag_306\n        /* \"#utility.yul\":10518:10523   */\n      dup2\n        /* \"#utility.yul\":10500:10524   */\n      tag_199\n      jump\t// in\n    tag_306:\n        /* \"#utility.yul\":10493:10498   */\n      dup2\n        /* \"#utility.yul\":10490:10525   */\n      eq\n        /* \"#utility.yul\":10480:10543   */\n      tag_307\n      jumpi\n        /* \"#utility.yul\":10539:10540   */\n      0x00\n        /* \"#utility.yul\":10536:10537   */\n      0x00\n        /* \"#utility.yul\":10529:10541   */\n      revert\n        /* \"#utility.yul\":10480:10543   */\n    tag_307:\n        /* \"#utility.yul\":10427:10549   */\n      pop\n      jump\t// out\n        /* \"#utility.yul\":10555:10698   */\n    tag_201:\n        /* \"#utility.yul\":10612:10617   */\n      0x00\n        /* \"#utility.yul\":10643:10649   */\n      dup2\n        /* \"#utility.yul\":10637:10650   */\n      mload\n        /* \"#utility.yul\":10628:10650   */\n      swap1\n      pop\n        /* \"#utility.yul\":10659:10692   */\n      tag_309\n        /* \"#utility.yul\":10686:10691   */\n      dup2\n        /* \"#utility.yul\":10659:10692   */\n      tag_200\n      jump\t// in\n    tag_309:\n        /* \"#utility.yul\":10555:10698   */\n      swap3\n      swap2\n      pop\n      pop\n      jump\t// out\n        /* \"#utility.yul\":10704:11055   */\n    tag_72:\n        /* \"#utility.yul\":10774:10780   */\n      0x00\n        /* \"#utility.yul\":10823:10825   */\n      0x20\n        /* \"#utility.yul\":10811:10820   */\n      dup3\n        /* \"#utility.yul\":10802:10809   */\n      dup5\n        /* \"#utility.yul\":10798:10821   */\n      sub\n        /* \"#utility.yul\":10794:10826   */\n      slt\n        /* \"#utility.yul\":10791:10910   */\n      iszero\n      tag_311\n      jumpi\n        /* \"#utility.yul\":10829:10908   */\n      tag_312\n      tag_169\n      jump\t// in\n    tag_312:\n        /* \"#utility.yul\":10791:10910   */\n    tag_311:\n        /* \"#utility.yul\":10949:10950   */\n      0x00\n        /* \"#utility.yul\":10974:11038   */\n      tag_313\n        /* \"#utility.yul\":11030:11037   */\n      dup5\n        /* \"#utility.yul\":11021:11027   */\n      dup3\n        /* \"#utility.yul\":11010:11019   */\n      dup6\n        /* \"#utility.yul\":11006:11028   */\n      add\n        /* \"#utility.yul\":10974:11038   */\n      tag_201\n      jump\t// in\n    tag_313:\n        /* \"#utility.yul\":10964:11038   */\n      swap2\n      pop\n        /* \"#utility.yul\":10920:11048   */\n      pop\n        /* \"#utility.yul\":10704:11055   */\n      swap3\n      swap2\n      pop\n      pop\n      jump\t// out\n        /* \"#utility.yul\":11061:11179   */\n    tag_202:\n        /* \"#utility.yul\":11148:11172   */\n      tag_315\n        /* \"#utility.yul\":11166:11171   */\n      dup2\n        /* \"#utility.yul\":11148:11172   */\n      tag_199\n      jump\t// in\n    tag_315:\n        /* \"#utility.yul\":11143:11146   */\n      dup3\n        /* \"#utility.yul\":11136:11173   */\n      mstore\n        /* \"#utility.yul\":11061:11179   */\n      pop\n      pop\n      jump\t// out\n        /* \"#utility.yul\":11185:11738   */\n    tag_76:\n        /* \"#utility.yul\":11362:11366   */\n      0x00\n        /* \"#utility.yul\":11400:11403   */\n      0x80\n        /* \"#utility.yul\":11389:11398   */\n      dup3\n        /* \"#utility.yul\":11385:11404   */\n      add\n        /* \"#utility.yul\":11377:11404   */\n      swap1\n      pop\n        /* \"#utility.yul\":11414:11485   */\n      tag_317\n        /* \"#utility.yul\":11482:11483   */\n      0x00\n        /* \"#utility.yul\":11471:11480   */\n      dup4\n        /* \"#utility.yul\":11467:11484   */\n      add\n        /* \"#utility.yul\":11458:11464   */\n      dup8\n        /* \"#utility.yul\":11414:11485   */\n      tag_174\n      jump\t// in\n    tag_317:\n        /* \"#utility.yul\":11495:11567   */\n      tag_318\n        /* \"#utility.yul\":11563:11565   */\n      0x20\n        /* \"#utility.yul\":11552:11561   */\n      dup4\n        /* \"#utility.yul\":11548:11566   */\n      add\n        /* \"#utility.yul\":11539:11545   */\n      dup7\n        /* \"#utility.yul\":11495:11567   */\n      tag_192\n      jump\t// in\n    tag_318:\n        /* \"#utility.yul\":11577:11649   */\n      tag_319\n        /* \"#utility.yul\":11645:11647   */\n      0x40\n        /* \"#utility.yul\":11634:11643   */\n      dup4\n        /* \"#utility.yul\":11630:11648   */\n      add\n        /* \"#utility.yul\":11621:11627   */\n      dup6\n        /* \"#utility.yul\":11577:11649   */\n      tag_174\n      jump\t// in\n    tag_319:\n        /* \"#utility.yul\":11659:11731   */\n      tag_320\n        /* \"#utility.yul\":11727:11729   */\n      0x60\n        /* \"#utility.yul\":11716:11725   */\n      dup4\n        /* \"#utility.yul\":11712:11730   */\n      add\n        /* \"#utility.yul\":11703:11709   */\n      dup5\n        /* \"#utility.yul\":11659:11731   */\n      tag_202\n      jump\t// in\n    tag_320:\n        /* \"#utility.yul\":11185:11738   */\n      swap6\n      swap5\n      pop\n      pop\n      pop\n      pop\n      pop\n      jump\t// out\n        /* \"#utility.yul\":11744:11918   */\n    tag_203:\n        /* \"#utility.yul\":11884:11910   */\n      0x4e6f2067616d6520686173206265656e20737461727465640000000000000000\n        /* \"#utility.yul\":11880:11881   */\n      0x00\n        /* \"#utility.yul\":11872:11878   */\n      dup3\n        /* \"#utility.yul\":11868:11882   */\n      add\n        /* \"#utility.yul\":11861:11911   */\n      mstore\n        /* \"#utility.yul\":11744:11918   */\n      pop\n      jump\t// out\n        /* \"#utility.yul\":11924:12290   */\n    tag_204:\n        /* \"#utility.yul\":12066:12069   */\n      0x00\n        /* \"#utility.yul\":12087:12154   */\n      tag_323\n        /* \"#utility.yul\":12151:12153   */\n      0x18\n        /* \"#utility.yul\":12146:12149   */\n      dup4\n        /* \"#utility.yul\":12087:12154   */\n      tag_183\n      jump\t// in\n    tag_323:\n        /* \"#utility.yul\":12080:12154   */\n      swap2\n      pop\n        /* \"#utility.yul\":12163:12256   */\n      tag_324\n        /* \"#utility.yul\":12252:12255   */\n      dup3\n        /* \"#utility.yul\":12163:12256   */\n      tag_203\n      jump\t// in\n    tag_324:\n        /* \"#utility.yul\":12281:12283   */\n      0x20\n        /* \"#utility.yul\":12276:12279   */\n      dup3\n        /* \"#utility.yul\":12272:12284   */\n      add\n        /* \"#utility.yul\":12265:12284   */\n      swap1\n      pop\n        /* \"#utility.yul\":11924:12290   */\n      swap2\n      swap1\n      pop\n      jump\t// out\n        /* \"#utility.yul\":12296:12715   */\n    tag_80:\n        /* \"#utility.yul\":12462:12466   */\n      0x00\n        /* \"#utility.yul\":12500:12502   */\n      0x20\n        /* \"#utility.yul\":12489:12498   */\n      dup3\n        /* \"#utility.yul\":12485:12503   */\n      add\n        /* \"#utility.yul\":12477:12503   */\n      swap1\n      pop\n        /* \"#utility.yul\":12549:12558   */\n      dup2\n        /* \"#utility.yul\":12543:12547   */\n      dup2\n        /* \"#utility.yul\":12539:12559   */\n      sub\n        /* \"#utility.yul\":12535:12536   */\n      0x00\n        /* \"#utility.yul\":12524:12533   */\n      dup4\n        /* \"#utility.yul\":12520:12537   */\n      add\n        /* \"#utility.yul\":12513:12560   */\n      mstore\n        /* \"#utility.yul\":12577:12708   */\n      tag_326\n        /* \"#utility.yul\":12703:12707   */\n      dup2\n        /* \"#utility.yul\":12577:12708   */\n      tag_204\n      jump\t// in\n    tag_326:\n        /* \"#utility.yul\":12569:12708   */\n      swap1\n      pop\n        /* \"#utility.yul\":12296:12715   */\n      swap2\n      swap1\n      pop\n      jump\t// out\n        /* \"#utility.yul\":12721:13131   */\n    tag_88:\n        /* \"#utility.yul\":12761:12768   */\n      0x00\n        /* \"#utility.yul\":12784:12804   */\n      tag_328\n        /* \"#utility.yul\":12802:12803   */\n      dup3\n        /* \"#utility.yul\":12784:12804   */\n      tag_171\n      jump\t// in\n    tag_328:\n        /* \"#utility.yul\":12779:12804   */\n      swap2\n      pop\n        /* \"#utility.yul\":12818:12838   */\n      tag_329\n        /* \"#utility.yul\":12836:12837   */\n      dup4\n        /* \"#utility.yul\":12818:12838   */\n      tag_171\n      jump\t// in\n    tag_329:\n        /* \"#utility.yul\":12813:12838   */\n      swap3\n      pop\n        /* \"#utility.yul\":12873:12874   */\n      dup3\n        /* \"#utility.yul\":12870:12871   */\n      dup3\n        /* \"#utility.yul\":12866:12875   */\n      mul\n        /* \"#utility.yul\":12895:12925   */\n      tag_330\n        /* \"#utility.yul\":12913:12924   */\n      dup2\n        /* \"#utility.yul\":12895:12925   */\n      tag_171\n      jump\t// in\n    tag_330:\n        /* \"#utility.yul\":12884:12925   */\n      swap2\n      pop\n        /* \"#utility.yul\":13074:13075   */\n      dup3\n        /* \"#utility.yul\":13065:13072   */\n      dup3\n        /* \"#utility.yul\":13061:13076   */\n      div\n        /* \"#utility.yul\":13058:13059   */\n      dup5\n        /* \"#utility.yul\":13055:13077   */\n      eq\n        /* \"#utility.yul\":13035:13036   */\n      dup4\n        /* \"#utility.yul\":13028:13037   */\n      iszero\n        /* \"#utility.yul\":13008:13091   */\n      or\n        /* \"#utility.yul\":12985:13124   */\n      tag_331\n      jumpi\n        /* \"#utility.yul\":13104:13122   */\n      tag_332\n      tag_190\n      jump\t// in\n    tag_332:\n        /* \"#utility.yul\":12985:13124   */\n    tag_331:\n        /* \"#utility.yul\":12769:13131   */\n      pop\n        /* \"#utility.yul\":12721:13131   */\n      swap3\n      swap2\n      pop\n      pop\n      jump\t// out\n        /* \"#utility.yul\":13137:13313   */\n    tag_205:\n        /* \"#utility.yul\":13277:13305   */\n      0x4465636b20686173206e6f74206265656e2073687566666c6564000000000000\n        /* \"#utility.yul\":13273:13274   */\n      0x00\n        /* \"#utility.yul\":13265:13271   */\n      dup3\n        /* \"#utility.yul\":13261:13275   */\n      add\n        /* \"#utility.yul\":13254:13306   */\n      mstore\n        /* \"#utility.yul\":13137:13313   */\n      pop\n      jump\t// out\n        /* \"#utility.yul\":13319:13685   */\n    tag_206:\n        /* \"#utility.yul\":13461:13464   */\n      0x00\n        /* \"#utility.yul\":13482:13549   */\n      tag_335\n        /* \"#utility.yul\":13546:13548   */\n      0x1a\n        /* \"#utility.yul\":13541:13544   */\n      dup4\n        /* \"#utility.yul\":13482:13549   */\n      tag_183\n      jump\t// in\n    tag_335:\n        /* \"#utility.yul\":13475:13549   */\n      swap2\n      pop\n        /* \"#utility.yul\":13558:13651   */\n      tag_336\n        /* \"#utility.yul\":13647:13650   */\n      dup3\n        /* \"#utility.yul\":13558:13651   */\n      tag_205\n      jump\t// in\n    tag_336:\n        /* \"#utility.yul\":13676:13678   */\n      0x20\n        /* \"#utility.yul\":13671:13674   */\n      dup3\n        /* \"#utility.yul\":13667:13679   */\n      add\n        /* \"#utility.yul\":13660:13679   */\n      swap1\n      pop\n        /* \"#utility.yul\":13319:13685   */\n      swap2\n      swap1\n      pop\n      jump\t// out\n        /* \"#utility.yul\":13691:14110   */\n    tag_102:\n        /* \"#utility.yul\":13857:13861   */\n      0x00\n        /* \"#utility.yul\":13895:13897   */\n      0x20\n        /* \"#utility.yul\":13884:13893   */\n      dup3\n        /* \"#utility.yul\":13880:13898   */\n      add\n        /* \"#utility.yul\":13872:13898   */\n      swap1\n      pop\n        /* \"#utility.yul\":13944:13953   */\n      dup2\n        /* \"#utility.yul\":13938:13942   */\n      dup2\n        /* \"#utility.yul\":13934:13954   */\n      sub\n        /* \"#utility.yul\":13930:13931   */\n      0x00\n        /* \"#utility.yul\":13919:13928   */\n      dup4\n        /* \"#utility.yul\":13915:13932   */\n      add\n        /* \"#utility.yul\":13908:13955   */\n      mstore\n        /* \"#utility.yul\":13972:14103   */\n      tag_338\n        /* \"#utility.yul\":14098:14102   */\n      dup2\n        /* \"#utility.yul\":13972:14103   */\n      tag_206\n      jump\t// in\n    tag_338:\n        /* \"#utility.yul\":13964:14103   */\n      swap1\n      pop\n        /* \"#utility.yul\":13691:14110   */\n      swap2\n      swap1\n      pop\n      jump\t// out\n        /* \"#utility.yul\":14116:14296   */\n    tag_105:\n        /* \"#utility.yul\":14164:14241   */\n      0x4e487b7100000000000000000000000000000000000000000000000000000000\n        /* \"#utility.yul\":14161:14162   */\n      0x00\n        /* \"#utility.yul\":14154:14242   */\n      mstore\n        /* \"#utility.yul\":14261:14265   */\n      0x32\n        /* \"#utility.yul\":14258:14259   */\n      0x04\n        /* \"#utility.yul\":14251:14266   */\n      mstore\n        /* \"#utility.yul\":14285:14289   */\n      0x24\n        /* \"#utility.yul\":14282:14283   */\n      0x00\n        /* \"#utility.yul\":14275:14290   */\n      revert\n        /* \"#utility.yul\":14302:14388   */\n    tag_207:\n        /* \"#utility.yul\":14337:14344   */\n      0x00\n        /* \"#utility.yul\":14377:14381   */\n      0xff\n        /* \"#utility.yul\":14370:14375   */\n      dup3\n        /* \"#utility.yul\":14366:14382   */\n      and\n        /* \"#utility.yul\":14355:14382   */\n      swap1\n      pop\n        /* \"#utility.yul\":14302:14388   */\n      swap2\n      swap1\n      pop\n      jump\t// out\n        /* \"#utility.yul\":14394:14574   */\n    tag_208:\n        /* \"#utility.yul\":14442:14519   */\n      0x4e487b7100000000000000000000000000000000000000000000000000000000\n        /* \"#utility.yul\":14439:14440   */\n      0x00\n        /* \"#utility.yul\":14432:14520   */\n      mstore\n        /* \"#utility.yul\":14539:14543   */\n      0x12\n        /* \"#utility.yul\":14536:14537   */\n      0x04\n        /* \"#utility.yul\":14529:14544   */\n      mstore\n        /* \"#utility.yul\":14563:14567   */\n      0x24\n        /* \"#utility.yul\":14560:14561   */\n      0x00\n        /* \"#utility.yul\":14553:14568   */\n      revert\n        /* \"#utility.yul\":14580:14750   */\n    tag_108:\n        /* \"#utility.yul\":14610:14611   */\n      0x00\n        /* \"#utility.yul\":14627:14645   */\n      tag_343\n        /* \"#utility.yul\":14643:14644   */\n      dup3\n        /* \"#utility.yul\":14627:14645   */\n      tag_207\n      jump\t// in\n    tag_343:\n        /* \"#utility.yul\":14622:14645   */\n      swap2\n      pop\n        /* \"#utility.yul\":14659:14677   */\n      tag_344\n        /* \"#utility.yul\":14675:14676   */\n      dup4\n        /* \"#utility.yul\":14659:14677   */\n      tag_207\n      jump\t// in\n    tag_344:\n        /* \"#utility.yul\":14654:14677   */\n      swap3\n      pop\n        /* \"#utility.yul\":14696:14697   */\n      dup3\n        /* \"#utility.yul\":14686:14721   */\n      tag_345\n      jumpi\n        /* \"#utility.yul\":14701:14719   */\n      tag_346\n      tag_208\n      jump\t// in\n    tag_346:\n        /* \"#utility.yul\":14686:14721   */\n    tag_345:\n        /* \"#utility.yul\":14742:14743   */\n      dup3\n        /* \"#utility.yul\":14739:14740   */\n      dup3\n        /* \"#utility.yul\":14735:14744   */\n      mod\n        /* \"#utility.yul\":14730:14744   */\n      swap1\n      pop\n        /* \"#utility.yul\":14580:14750   */\n      swap3\n      swap2\n      pop\n      pop\n      jump\t// out\n        /* \"#utility.yul\":14756:14944   */\n    tag_110:\n        /* \"#utility.yul\":14794:14797   */\n      0x00\n        /* \"#utility.yul\":14813:14831   */\n      tag_348\n        /* \"#utility.yul\":14829:14830   */\n      dup3\n        /* \"#utility.yul\":14813:14831   */\n      tag_207\n      jump\t// in\n    tag_348:\n        /* \"#utility.yul\":14808:14831   */\n      swap2\n      pop\n        /* \"#utility.yul\":14845:14863   */\n      tag_349\n        /* \"#utility.yul\":14861:14862   */\n      dup4\n        /* \"#utility.yul\":14845:14863   */\n      tag_207\n      jump\t// in\n    tag_349:\n        /* \"#utility.yul\":14840:14863   */\n      swap3\n      pop\n        /* \"#utility.yul\":14886:14887   */\n      dup3\n        /* \"#utility.yul\":14883:14884   */\n      dup3\n        /* \"#utility.yul\":14879:14888   */\n      add\n        /* \"#utility.yul\":14872:14888   */\n      swap1\n      pop\n        /* \"#utility.yul\":14909:14913   */\n      0xff\n        /* \"#utility.yul\":14904:14907   */\n      dup2\n        /* \"#utility.yul\":14901:14914   */\n      gt\n        /* \"#utility.yul\":14898:14937   */\n      iszero\n      tag_350\n      jumpi\n        /* \"#utility.yul\":14917:14935   */\n      tag_351\n      tag_190\n      jump\t// in\n    tag_351:\n        /* \"#utility.yul\":14898:14937   */\n    tag_350:\n        /* \"#utility.yul\":14756:14944   */\n      swap3\n      swap2\n      pop\n      pop\n      jump\t// out\n        /* \"#utility.yul\":14950:15117   */\n    tag_113:\n        /* \"#utility.yul\":14987:14990   */\n      0x00\n        /* \"#utility.yul\":15010:15032   */\n      tag_353\n        /* \"#utility.yul\":15026:15031   */\n      dup3\n        /* \"#utility.yul\":15010:15032   */\n      tag_207\n      jump\t// in\n    tag_353:\n        /* \"#utility.yul\":15001:15032   */\n      swap2\n      pop\n        /* \"#utility.yul\":15054:15058   */\n      0xff\n        /* \"#utility.yul\":15047:15052   */\n      dup3\n        /* \"#utility.yul\":15044:15059   */\n      sub\n        /* \"#utility.yul\":15041:15082   */\n      tag_354\n      jumpi\n        /* \"#utility.yul\":15062:15080   */\n      tag_355\n      tag_190\n      jump\t// in\n    tag_355:\n        /* \"#utility.yul\":15041:15082   */\n    tag_354:\n        /* \"#utility.yul\":15109:15110   */\n      0x01\n        /* \"#utility.yul\":15102:15107   */\n      dup3\n        /* \"#utility.yul\":15098:15111   */\n      add\n        /* \"#utility.yul\":15091:15111   */\n      swap1\n      pop\n        /* \"#utility.yul\":14950:15117   */\n      swap2\n      swap1\n      pop\n      jump\t// out\n        /* \"#utility.yul\":15123:15235   */\n    tag_209:\n        /* \"#utility.yul\":15206:15228   */\n      tag_357\n        /* \"#utility.yul\":15222:15227   */\n      dup2\n        /* \"#utility.yul\":15206:15228   */\n      tag_207\n      jump\t// in\n    tag_357:\n        /* \"#utility.yul\":15201:15204   */\n      dup3\n        /* \"#utility.yul\":15194:15229   */\n      mstore\n        /* \"#utility.yul\":15123:15235   */\n      pop\n      pop\n      jump\t// out\n        /* \"#utility.yul\":15241:15565   */\n    tag_115:\n        /* \"#utility.yul\":15358:15362   */\n      0x00\n        /* \"#utility.yul\":15396:15398   */\n      0x40\n        /* \"#utility.yul\":15385:15394   */\n      dup3\n        /* \"#utility.yul\":15381:15399   */\n      add\n        /* \"#utility.yul\":15373:15399   */\n      swap1\n      pop\n        /* \"#utility.yul\":15409:15480   */\n      tag_359\n        /* \"#utility.yul\":15477:15478   */\n      0x00\n        /* \"#utility.yul\":15466:15475   */\n      dup4\n        /* \"#utility.yul\":15462:15479   */\n      add\n        /* \"#utility.yul\":15453:15459   */\n      dup6\n        /* \"#utility.yul\":15409:15480   */\n      tag_192\n      jump\t// in\n    tag_359:\n        /* \"#utility.yul\":15490:15558   */\n      tag_360\n        /* \"#utility.yul\":15554:15556   */\n      0x20\n        /* \"#utility.yul\":15543:15552   */\n      dup4\n        /* \"#utility.yul\":15539:15557   */\n      add\n        /* \"#utility.yul\":15530:15536   */\n      dup5\n        /* \"#utility.yul\":15490:15558   */\n      tag_209\n      jump\t// in\n    tag_360:\n        /* \"#utility.yul\":15241:15565   */\n      swap4\n      swap3\n      pop\n      pop\n      pop\n      jump\t// out\n        /* \"#utility.yul\":15571:15765   */\n    tag_136:\n        /* \"#utility.yul\":15611:15615   */\n      0x00\n        /* \"#utility.yul\":15631:15651   */\n      tag_362\n        /* \"#utility.yul\":15649:15650   */\n      dup3\n        /* \"#utility.yul\":15631:15651   */\n      tag_171\n      jump\t// in\n    tag_362:\n        /* \"#utility.yul\":15626:15651   */\n      swap2\n      pop\n        /* \"#utility.yul\":15665:15685   */\n      tag_363\n        /* \"#utility.yul\":15683:15684   */\n      dup4\n        /* \"#utility.yul\":15665:15685   */\n      tag_171\n      jump\t// in\n    tag_363:\n        /* \"#utility.yul\":15660:15685   */\n      swap3\n      pop\n        /* \"#utility.yul\":15709:15710   */\n      dup3\n        /* \"#utility.yul\":15706:15707   */\n      dup3\n        /* \"#utility.yul\":15702:15711   */\n      sub\n        /* \"#utility.yul\":15694:15711   */\n      swap1\n      pop\n        /* \"#utility.yul\":15733:15734   */\n      dup2\n        /* \"#utility.yul\":15727:15731   */\n      dup2\n        /* \"#utility.yul\":15724:15735   */\n      gt\n        /* \"#utility.yul\":15721:15758   */\n      iszero\n      tag_364\n      jumpi\n        /* \"#utility.yul\":15738:15756   */\n      tag_365\n      tag_190\n      jump\t// in\n    tag_365:\n        /* \"#utility.yul\":15721:15758   */\n    tag_364:\n        /* \"#utility.yul\":15571:15765   */\n      swap3\n      swap2\n      pop\n      pop\n      jump\t// out\n        /* \"#utility.yul\":15771:15947   */\n    tag_138:\n        /* \"#utility.yul\":15803:15804   */\n      0x00\n        /* \"#utility.yul\":15820:15840   */\n      tag_367\n        /* \"#utility.yul\":15838:15839   */\n      dup3\n        /* \"#utility.yul\":15820:15840   */\n      tag_171\n      jump\t// in\n    tag_367:\n        /* \"#utility.yul\":15815:15840   */\n      swap2\n      pop\n        /* \"#utility.yul\":15854:15874   */\n      tag_368\n        /* \"#utility.yul\":15872:15873   */\n      dup4\n        /* \"#utility.yul\":15854:15874   */\n      tag_171\n      jump\t// in\n    tag_368:\n        /* \"#utility.yul\":15849:15874   */\n      swap3\n      pop\n        /* \"#utility.yul\":15893:15894   */\n      dup3\n        /* \"#utility.yul\":15883:15918   */\n      tag_369\n      jumpi\n        /* \"#utility.yul\":15898:15916   */\n      tag_370\n      tag_208\n      jump\t// in\n    tag_370:\n        /* \"#utility.yul\":15883:15918   */\n    tag_369:\n        /* \"#utility.yul\":15939:15940   */\n      dup3\n        /* \"#utility.yul\":15936:15937   */\n      dup3\n        /* \"#utility.yul\":15932:15941   */\n      mod\n        /* \"#utility.yul\":15927:15941   */\n      swap1\n      pop\n        /* \"#utility.yul\":15771:15947   */\n      swap3\n      swap2\n      pop\n      pop\n      jump\t// out\n        /* \"#utility.yul\":15953:16144   */\n    tag_140:\n        /* \"#utility.yul\":15993:15996   */\n      0x00\n        /* \"#utility.yul\":16012:16032   */\n      tag_372\n        /* \"#utility.yul\":16030:16031   */\n      dup3\n        /* \"#utility.yul\":16012:16032   */\n      tag_171\n      jump\t// in\n    tag_372:\n        /* \"#utility.yul\":16007:16032   */\n      swap2\n      pop\n        /* \"#utility.yul\":16046:16066   */\n      tag_373\n        /* \"#utility.yul\":16064:16065   */\n      dup4\n        /* \"#utility.yul\":16046:16066   */\n      tag_171\n      jump\t// in\n    tag_373:\n        /* \"#utility.yul\":16041:16066   */\n      swap3\n      pop\n        /* \"#utility.yul\":16089:16090   */\n      dup3\n        /* \"#utility.yul\":16086:16087   */\n      dup3\n        /* \"#utility.yul\":16082:16091   */\n      add\n        /* \"#utility.yul\":16075:16091   */\n      swap1\n      pop\n        /* \"#utility.yul\":16110:16113   */\n      dup1\n        /* \"#utility.yul\":16107:16108   */\n      dup3\n        /* \"#utility.yul\":16104:16114   */\n      gt\n        /* \"#utility.yul\":16101:16137   */\n      iszero\n      tag_374\n      jumpi\n        /* \"#utility.yul\":16117:16135   */\n      tag_375\n      tag_190\n      jump\t// in\n    tag_375:\n        /* \"#utility.yul\":16101:16137   */\n    tag_374:\n        /* \"#utility.yul\":15953:16144   */\n      swap3\n      swap2\n      pop\n      pop\n      jump\t// out\n        /* \"#utility.yul\":16150:16330   */\n    tag_156:\n        /* \"#utility.yul\":16198:16275   */\n      0x4e487b7100000000000000000000000000000000000000000000000000000000\n        /* \"#utility.yul\":16195:16196   */\n      0x00\n        /* \"#utility.yul\":16188:16276   */\n      mstore\n        /* \"#utility.yul\":16295:16299   */\n      0x21\n        /* \"#utility.yul\":16292:16293   */\n      0x04\n        /* \"#utility.yul\":16285:16300   */\n      mstore\n        /* \"#utility.yul\":16319:16323   */\n      0x24\n        /* \"#utility.yul\":16316:16317   */\n      0x00\n        /* \"#utility.yul\":16309:16324   */\n      revert\n        /* \"#utility.yul\":16336:16668   */\n    tag_159:\n        /* \"#utility.yul\":16457:16461   */\n      0x00\n        /* \"#utility.yul\":16495:16497   */\n      0x40\n        /* \"#utility.yul\":16484:16493   */\n      dup3\n        /* \"#utility.yul\":16480:16498   */\n      add\n        /* \"#utility.yul\":16472:16498   */\n      swap1\n      pop\n        /* \"#utility.yul\":16508:16579   */\n      tag_378\n        /* \"#utility.yul\":16576:16577   */\n      0x00\n        /* \"#utility.yul\":16565:16574   */\n      dup4\n        /* \"#utility.yul\":16561:16578   */\n      add\n        /* \"#utility.yul\":16552:16558   */\n      dup6\n        /* \"#utility.yul\":16508:16579   */\n      tag_192\n      jump\t// in\n    tag_378:\n        /* \"#utility.yul\":16589:16661   */\n      tag_379\n        /* \"#utility.yul\":16657:16659   */\n      0x20\n        /* \"#utility.yul\":16646:16655   */\n      dup4\n        /* \"#utility.yul\":16642:16660   */\n      add\n        /* \"#utility.yul\":16633:16639   */\n      dup5\n        /* \"#utility.yul\":16589:16661   */\n      tag_174\n      jump\t// in\n    tag_379:\n        /* \"#utility.yul\":16336:16668   */\n      swap4\n      swap3\n      pop\n      pop\n      pop\n      jump\t// out\n        /* \"#utility.yul\":16674:16789   */\n    tag_210:\n        /* \"#utility.yul\":16757:16758   */\n      0x04\n        /* \"#utility.yul\":16750:16755   */\n      dup2\n        /* \"#utility.yul\":16747:16759   */\n      lt\n        /* \"#utility.yul\":16737:16783   */\n      tag_381\n      jumpi\n        /* \"#utility.yul\":16763:16781   */\n      tag_382\n      tag_156\n      jump\t// in\n    tag_382:\n        /* \"#utility.yul\":16737:16783   */\n    tag_381:\n        /* \"#utility.yul\":16674:16789   */\n      pop\n      jump\t// out\n        /* \"#utility.yul\":16795:16926   */\n    tag_211:\n        /* \"#utility.yul\":16842:16849   */\n      0x00\n        /* \"#utility.yul\":16871:16876   */\n      dup2\n        /* \"#utility.yul\":16860:16876   */\n      swap1\n      pop\n        /* \"#utility.yul\":16877:16920   */\n      tag_384\n        /* \"#utility.yul\":16914:16919   */\n      dup3\n        /* \"#utility.yul\":16877:16920   */\n      tag_210\n      jump\t// in\n    tag_384:\n        /* \"#utility.yul\":16795:16926   */\n      swap2\n      swap1\n      pop\n      jump\t// out\n        /* \"#utility.yul\":16932:17063   */\n    tag_212:\n        /* \"#utility.yul\":16990:16999   */\n      0x00\n        /* \"#utility.yul\":17023:17057   */\n      tag_386\n        /* \"#utility.yul\":17051:17056   */\n      dup3\n        /* \"#utility.yul\":17023:17057   */\n      tag_211\n      jump\t// in\n    tag_386:\n        /* \"#utility.yul\":17010:17057   */\n      swap1\n      pop\n        /* \"#utility.yul\":16932:17063   */\n      swap2\n      swap1\n      pop\n      jump\t// out\n        /* \"#utility.yul\":17069:17216   */\n    tag_213:\n        /* \"#utility.yul\":17164:17209   */\n      tag_388\n        /* \"#utility.yul\":17203:17208   */\n      dup2\n        /* \"#utility.yul\":17164:17209   */\n      tag_212\n      jump\t// in\n    tag_388:\n        /* \"#utility.yul\":17159:17162   */\n      dup3\n        /* \"#utility.yul\":17152:17210   */\n      mstore\n        /* \"#utility.yul\":17069:17216   */\n      pop\n      pop\n      jump\t// out\n        /* \"#utility.yul\":17222:17570   */\n    tag_164:\n        /* \"#utility.yul\":17351:17355   */\n      0x00\n        /* \"#utility.yul\":17389:17391   */\n      0x40\n        /* \"#utility.yul\":17378:17387   */\n      dup3\n        /* \"#utility.yul\":17374:17392   */\n      add\n        /* \"#utility.yul\":17366:17392   */\n      swap1\n      pop\n        /* \"#utility.yul\":17402:17473   */\n      tag_390\n        /* \"#utility.yul\":17470:17471   */\n      0x00\n        /* \"#utility.yul\":17459:17468   */\n      dup4\n        /* \"#utility.yul\":17455:17472   */\n      add\n        /* \"#utility.yul\":17446:17452   */\n      dup6\n        /* \"#utility.yul\":17402:17473   */\n      tag_192\n      jump\t// in\n    tag_390:\n        /* \"#utility.yul\":17483:17563   */\n      tag_391\n        /* \"#utility.yul\":17559:17561   */\n      0x20\n        /* \"#utility.yul\":17548:17557   */\n      dup4\n        /* \"#utility.yul\":17544:17562   */\n      add\n        /* \"#utility.yul\":17535:17541   */\n      dup5\n        /* \"#utility.yul\":17483:17563   */\n      tag_213\n      jump\t// in\n    tag_391:\n        /* \"#utility.yul\":17222:17570   */\n      swap4\n      swap3\n      pop\n      pop\n      pop\n      jump\t// out\n\n    auxdata: 0xa2646970667358221220f40c702db13d9e67f2f2a3b503ef81d8798b02769ebfcc31fefd84bf2df353d764736f6c634300081e0033\n}\n",
				"bytecode": {
					"linkReferences": {},
					"object": "608060405234801561000f575f5ffd5b506040516119b43803806119b483398181016040528101906100319190610115565b815f5f6101000a81548173ffffffffffffffffffffffffffffffffffffffff021916908373ffffffffffffffffffffffffffffffffffffffff1602179055508060015f6101000a81548173ffffffffffffffffffffffffffffffffffffffff021916908373ffffffffffffffffffffffffffffffffffffffff1602179055505050610153565b5f5ffd5b5f73ffffffffffffffffffffffffffffffffffffffff82169050919050565b5f6100e4826100bb565b9050919050565b6100f4816100da565b81146100fe575f5ffd5b50565b5f8151905061010f816100eb565b92915050565b5f5f6040838503121561012b5761012a6100b7565b5b5f61013885828601610101565b925050602061014985828601610101565b9150509250929050565b611854806101605f395ff3fe608060405234801561000f575f5ffd5b506004361061007b575f3560e01c80637dc0d1d0116100595780637dc0d1d0146100c3578063afab107e146100e1578063c2897b10146100fd578063fbfa77cf146101075761007b565b80632ae3594a1461007f57806331a56b8314610089578063673ee37c146100a5575b5f5ffd5b610087610125565b005b6100a3600480360381019061009e9190610f5d565b610265565b005b6100ad61049a565b6040516100ba9190610f97565b60405180910390f35b6100cb6104a0565b6040516100d8919061102a565b60405180910390f35b6100fb60048036038101906100f69190610f5d565b6104c5565b005b6101056107b3565b005b61010f6109a6565b60405161011c9190611063565b60405180910390f35b5f60035f3373ffffffffffffffffffffffffffffffffffffffff1673ffffffffffffffffffffffffffffffffffffffff1681526020019081526020015f205490505f60045f8381526020019081526020015f2090508060060160019054906101000a900460ff166101cb576040517f08c379a00000000000000000000000000000000000000000000000000000000081526004016101c2906110d6565b60405180910390fd5b8060060160029054906101000a900460ff161561021d576040517f08c379a00000000000000000000000000000000000000000000000000000000081526004016102149061113e565b60405180910390fd5b5f610227826109ca565b90506102448183600b0160019054906101000a900460ff16610b29565b82600b0160016101000a81548160ff021916908360ff160217905550505050565b5f60035f3373ffffffffffffffffffffffffffffffffffffffff1673ffffffffffffffffffffffffffffffffffffffff1681526020019081526020015f2054146102e4576040517f08c379a00000000000000000000000000000000000000000000000000000000081526004016102db906111a6565b60405180910390fd5b5f60025f8154809291906102f7906111f1565b9190505590508060035f3373ffffffffffffffffffffffffffffffffffffffff1673ffffffffffffffffffffffffffffffffffffffff1681526020019081526020015f20819055505f60045f8381526020019081526020015f20905081815f018190555033816002015f6101000a81548173ffffffffffffffffffffffffffffffffffffffff021916908373ffffffffffffffffffffffffffffffffffffffff1602179055508281600301819055505f816006015f6101000a81548160ff021916908360ff16021790555060018160060160016101000a81548160ff0219169083151502179055505f81600b015f6101000a81548160ff0219169083151502179055505f81600b0160016101000a81548160ff021916908360ff1602179055505f81600b0160036101000a81548160ff021916908360ff1602179055505f8160060160026101000a81548160ff0219169083151502179055505f81600101819055507fc3e0f84839dc888c892a013d10c8f9d6dc05a21a879d0ce468ca558013e9121c815f01543360405161048d929190611258565b60405180910390a1505050565b60025481565b60015f9054906101000a900473ffffffffffffffffffffffffffffffffffffffff1681565b64174876e80081101580156104e1575066038d7ea4c680008111155b610520576040517f08c379a0000000000000000000000000000000000000000000000000000000008152600401610517906112c9565b60405180910390fd5b5f60035f3373ffffffffffffffffffffffffffffffffffffffff1673ffffffffffffffffffffffffffffffffffffffff1681526020019081526020015f20540361059f576040517f08c379a000000000000000000000000000000000000000000000000000000000815260040161059690611331565b60405180910390fd5b5f60035f3373ffffffffffffffffffffffffffffffffffffffff1673ffffffffffffffffffffffffffffffffffffffff1681526020019081526020015f205490505f60045f8381526020019081526020015f2090505f81600101541461063a576040517f08c379a000000000000000000000000000000000000000000000000000000000815260040161063190611399565b60405180910390fd5b8060060160019054906101000a900460ff168061066957505f816006015f9054906101000a900460ff1660ff16115b156106a9576040517f08c379a00000000000000000000000000000000000000000000000000000000081526004016106a0906111a6565b60405180910390fd5b82816001018190555060015f9054906101000a900473ffffffffffffffffffffffffffffffffffffffff1673ffffffffffffffffffffffffffffffffffffffff1663041df082826004015483600301546040518363ffffffff1660e01b81526004016107169291906113b7565b602060405180830381865afa158015610731573d5f5f3e3d5ffd5b505050506040513d601f19601f820116820180604052508101906107559190611411565b816005018190555061076681610b7e565b7f0e97ce5f641b8a03e0f92d0b4480f849cf26a7bfdf17862c8edaf69268e60aad815f015433836001015484600501546040516107a6949392919061144b565b60405180910390a1505050565b5f60035f3373ffffffffffffffffffffffffffffffffffffffff1673ffffffffffffffffffffffffffffffffffffffff1681526020019081526020015f205490505f60045f8381526020019081526020015f2090508060060160019054906101000a900460ff16610859576040517f08c379a0000000000000000000000000000000000000000000000000000000008152600401610850906114d8565b60405180910390fd5b5f5b601182600b0160039054906101000a900460ff1660ff1610156108bf57610881826109ca565b905061089e8183600b0160039054906101000a900460ff16610b29565b82600b0160036101000a81548160ff021916908360ff16021790555061085b565b601582600b0160039054906101000a900460ff1660ff1611156108fd576108f8826001600285600101546108f391906114f6565b610d14565b6109a1565b81600b0160019054906101000a900460ff1660ff1682600b0160039054906101000a900460ff1660ff161180610949575061094882600b0160039054906101000a900460ff16610efa565b5b1561095f5761095a8260025f610d14565b6109a0565b81600b0160019054906101000a900460ff1660ff1682600b0160039054906101000a900460ff1660ff160361099f5761099e8260038460010154610d14565b5b5b5b505050565b5f5f9054906101000a900473ffffffffffffffffffffffffffffffffffffffff1681565b5f81600b015f9054906101000a900460ff16610a1b576040517f08c379a0000000000000000000000000000000000000000000000000000000008152600401610a1290611581565b60405180910390fd5b5f82600701836006015f9054906101000a900460ff1660ff1660688110610a4557610a4461159f565b5b602091828204019190069054906101000a900460ff1690505f6001600d83610a6d9190611605565b610a779190611635565b9050600a8160ff161115610a8a57600a90505b836006015f81819054906101000a900460ff1680929190610aaa90611669565b91906101000a81548160ff021916908360ff160217905550507f5cb494422aec3c1d66ad0616d3f90f8641e12057560336165c27bf8793fce9cf846002015f9054906101000a900473ffffffffffffffffffffffffffffffffffffffff1683604051610b179291906116a0565b60405180910390a18092505050919050565b5f5f8284610b379190611635565b9050610b4284610f09565b15610b705760158160ff161115610b6757600183610b609190611635565b9250610b6b565b8092505b610b74565b8092505b8291505092915050565b5f5f90505b606860ff168160ff161015610bd95780826007018260ff1660688110610bac57610bab61159f565b5b602091828204019190066101000a81548160ff021916908360ff1602179055508080600101915050610b83565b505f5f90505b606860ff16811015610cf4575f81606860ff16610bfc91906116c7565b83600501545f1c610c0d91906116fa565b82610c18919061172a565b9050826007018160688110610c3057610c2f61159f565b5b602091828204019190069054906101000a900460ff16836007018360688110610c5c57610c5b61159f565b5b602091828204019190069054906101000a900460ff16846007018460688110610c8857610c8761159f565b5b60209182820401919006866007018560688110610ca857610ca761159f565b5b602091828204019190068491906101000a81548160ff021916908360ff1602179055508391906101000a81548160ff021916908360ff1602179055505050508080600101915050610bdf565b50600181600b015f6101000a81548160ff02191690831515021790555050565b818360060160036101000a81548160ff02191690836003811115610d3b57610d3a61175d565b5b021790555060018360060160026101000a81548160ff0219169083151502179055505f8360060160016101000a81548160ff0219169083151502179055505f811115610e2d575f5f9054906101000a900473ffffffffffffffffffffffffffffffffffffffff1673ffffffffffffffffffffffffffffffffffffffff1663117de2fd846002015f9054906101000a900473ffffffffffffffffffffffffffffffffffffffff16836040518363ffffffff1660e01b8152600401610dff92919061178a565b5f604051808303815f87803b158015610e16575f5ffd5b505af1158015610e28573d5f5f3e3d5ffd5b505050505b60035f846002015f9054906101000a900473ffffffffffffffffffffffffffffffffffffffff1673ffffffffffffffffffffffffffffffffffffffff1673ffffffffffffffffffffffffffffffffffffffff1681526020019081526020015f205f90555f83600101819055507fecdab0d30ae5a2b8d283acf9ed4856306f12f29ef8069fac9148d3d2ac6b4b14836002015f9054906101000a900473ffffffffffffffffffffffffffffffffffffffff1683604051610eed9291906117f7565b60405180910390a1505050565b5f60158260ff16149050919050565b5f60018260ff161480610f1f5750600b8260ff16145b9050919050565b5f5ffd5b5f819050919050565b610f3c81610f2a565b8114610f46575f5ffd5b50565b5f81359050610f5781610f33565b92915050565b5f60208284031215610f7257610f71610f26565b5b5f610f7f84828501610f49565b91505092915050565b610f9181610f2a565b82525050565b5f602082019050610faa5f830184610f88565b92915050565b5f73ffffffffffffffffffffffffffffffffffffffff82169050919050565b5f819050919050565b5f610ff2610fed610fe884610fb0565b610fcf565b610fb0565b9050919050565b5f61100382610fd8565b9050919050565b5f61101482610ff9565b9050919050565b6110248161100a565b82525050565b5f60208201905061103d5f83018461101b565b92915050565b5f61104d82610ff9565b9050919050565b61105d81611043565b82525050565b5f6020820190506110765f830184611054565b92915050565b5f82825260208201905092915050565b7f4e6f2067616d6520697320696e2070726f6772657373000000000000000000005f82015250565b5f6110c060168361107c565b91506110cb8261108c565b602082019050919050565b5f6020820190508181035f8301526110ed816110b4565b9050919050565b7f47616d652068617320616c72656164792066696e6973686564000000000000005f82015250565b5f61112860198361107c565b9150611133826110f4565b602082019050919050565b5f6020820190508181035f8301526111558161111c565b9050919050565b7f47616d6520616c726561647920696e2070726f677265737300000000000000005f82015250565b5f61119060188361107c565b915061119b8261115c565b602082019050919050565b5f6020820190508181035f8301526111bd81611184565b9050919050565b7f4e487b71000000000000000000000000000000000000000000000000000000005f52601160045260245ffd5b5f6111fb82610f2a565b91507fffffffffffffffffffffffffffffffffffffffffffffffffffffffffffffffff820361122d5761122c6111c4565b5b600182019050919050565b5f61124282610fb0565b9050919050565b61125281611238565b82525050565b5f60408201905061126b5f830185610f88565b6112786020830184611249565b9392505050565b7f426574206f7574206f662072616e67652e0000000000000000000000000000005f82015250565b5f6112b360118361107c565b91506112be8261127f565b602082019050919050565b5f6020820190508181035f8301526112e0816112a7565b9050919050565b7f4e6f206163746976652067616d652063757272656e746c7900000000000000005f82015250565b5f61131b60188361107c565b9150611326826112e7565b602082019050919050565b5f6020820190508181035f8301526113488161130f565b9050919050565b7f42657420616c726561647920706c6163656400000000000000000000000000005f82015250565b5f61138360128361107c565b915061138e8261134f565b602082019050919050565b5f6020820190508181035f8301526113b081611377565b9050919050565b5f6040820190506113ca5f830185610f88565b6113d76020830184610f88565b9392505050565b5f819050919050565b6113f0816113de565b81146113fa575f5ffd5b50565b5f8151905061140b816113e7565b92915050565b5f6020828403121561142657611425610f26565b5b5f611433848285016113fd565b91505092915050565b611445816113de565b82525050565b5f60808201905061145e5f830187610f88565b61146b6020830186611249565b6114786040830185610f88565b611485606083018461143c565b95945050505050565b7f4e6f2067616d6520686173206265656e207374617274656400000000000000005f82015250565b5f6114c260188361107c565b91506114cd8261148e565b602082019050919050565b5f6020820190508181035f8301526114ef816114b6565b9050919050565b5f61150082610f2a565b915061150b83610f2a565b925082820261151981610f2a565b915082820484148315176115305761152f6111c4565b5b5092915050565b7f4465636b20686173206e6f74206265656e2073687566666c65640000000000005f82015250565b5f61156b601a8361107c565b915061157682611537565b602082019050919050565b5f6020820190508181035f8301526115988161155f565b9050919050565b7f4e487b71000000000000000000000000000000000000000000000000000000005f52603260045260245ffd5b5f60ff82169050919050565b7f4e487b71000000000000000000000000000000000000000000000000000000005f52601260045260245ffd5b5f61160f826115cc565b915061161a836115cc565b92508261162a576116296115d8565b5b828206905092915050565b5f61163f826115cc565b915061164a836115cc565b9250828201905060ff811115611663576116626111c4565b5b92915050565b5f611673826115cc565b915060ff8203611686576116856111c4565b5b600182019050919050565b61169a816115cc565b82525050565b5f6040820190506116b35f830185611249565b6116c06020830184611691565b9392505050565b5f6116d182610f2a565b91506116dc83610f2a565b92508282039050818111156116f4576116f36111c4565b5b92915050565b5f61170482610f2a565b915061170f83610f2a565b92508261171f5761171e6115d8565b5b828206905092915050565b5f61173482610f2a565b915061173f83610f2a565b9250828201905080821115611757576117566111c4565b5b92915050565b7f4e487b71000000000000000000000000000000000000000000000000000000005f52602160045260245ffd5b5f60408201905061179d5f830185611249565b6117aa6020830184610f88565b9392505050565b600481106117c2576117c161175d565b5b50565b5f8190506117d2826117b1565b919050565b5f6117e1826117c5565b9050919050565b6117f1816117d7565b82525050565b5f60408201905061180a5f830185611249565b61181760208301846117e8565b939250505056fea2646970667358221220f40c702db13d9e67f2f2a3b503ef81d8798b02769ebfcc31fefd84bf2df353d764736f6c634300081e0033",
					"opcodes": "PUSH1 0x80 PUSH1 0x40 MSTORE CALLVALUE DUP1 ISZERO PUSH2 0xF JUMPI PUSH0 PUSH0 REVERT JUMPDEST POP PUSH1 0x40 MLOAD PUSH2 0x19B4 CODESIZE SUB DUP1 PUSH2 0x19B4 DUP4 CODECOPY DUP2 DUP2 ADD PUSH1 0x40 MSTORE DUP2 ADD SWAP1 PUSH2 0x31 SWAP2 SWAP1 PUSH2 0x115 JUMP JUMPDEST DUP2 PUSH0 PUSH0 PUSH2 0x100 EXP DUP2 SLOAD DUP2 PUSH20 0xFFFFFFFFFFFFFFFFFFFFFFFFFFFFFFFFFFFFFFFF MUL NOT AND SWAP1 DUP4 PUSH20 0xFFFFFFFFFFFFFFFFFFFFFFFFFFFFFFFFFFFFFFFF AND MUL OR SWAP1 SSTORE POP DUP1 PUSH1 0x1 PUSH0 PUSH2 0x100 EXP DUP2 SLOAD DUP2 PUSH20 0xFFFFFFFFFFFFFFFFFFFFFFFFFFFFFFFFFFFFFFFF MUL NOT AND SWAP1 DUP4 PUSH20 0xFFFFFFFFFFFFFFFFFFFFFFFFFFFFFFFFFFFFFFFF AND MUL OR SWAP1 SSTORE POP POP POP PUSH2 0x153 JUMP JUMPDEST PUSH0 PUSH0 REVERT JUMPDEST PUSH0 PUSH20 0xFFFFFFFFFFFFFFFFFFFFFFFFFFFFFFFFFFFFFFFF DUP3 AND SWAP1 POP SWAP2 SWAP1 POP JUMP JUMPDEST PUSH0 PUSH2 0xE4 DUP3 PUSH2 0xBB JUMP JUMPDEST SWAP1 POP SWAP2 SWAP1 POP JUMP JUMPDEST PUSH2 0xF4 DUP2 PUSH2 0xDA JUMP JUMPDEST DUP2 EQ PUSH2 0xFE JUMPI PUSH0 PUSH0 REVERT JUMPDEST POP JUMP JUMPDEST PUSH0 DUP2 MLOAD SWAP1 POP PUSH2 0x10F DUP2 PUSH2 0xEB JUMP JUMPDEST SWAP3 SWAP2 POP POP JUMP JUMPDEST PUSH0 PUSH0 PUSH1 0x40 DUP4 DUP6 SUB SLT ISZERO PUSH2 0x12B JUMPI PUSH2 0x12A PUSH2 0xB7 JUMP JUMPDEST JUMPDEST PUSH0 PUSH2 0x138 DUP6 DUP3 DUP7 ADD PUSH2 0x101 JUMP JUMPDEST SWAP3 POP POP PUSH1 0x20 PUSH2 0x149 DUP6 DUP3 DUP7 ADD PUSH2 0x101 JUMP JUMPDEST SWAP2 POP POP SWAP3 POP SWAP3 SWAP1 POP JUMP JUMPDEST PUSH2 0x1854 DUP1 PUSH2 0x160 PUSH0 CODECOPY PUSH0 RETURN INVALID PUSH1 0x80 PUSH1 0x40 MSTORE CALLVALUE DUP1 ISZERO PUSH2 0xF JUMPI PUSH0 PUSH0 REVERT JUMPDEST POP PUSH1 0x4 CALLDATASIZE LT PUSH2 0x7B JUMPI PUSH0 CALLDATALOAD PUSH1 0xE0 SHR DUP1 PUSH4 0x7DC0D1D0 GT PUSH2 0x59 JUMPI DUP1 PUSH4 0x7DC0D1D0 EQ PUSH2 0xC3 JUMPI DUP1 PUSH4 0xAFAB107E EQ PUSH2 0xE1 JUMPI DUP1 PUSH4 0xC2897B10 EQ PUSH2 0xFD JUMPI DUP1 PUSH4 0xFBFA77CF EQ PUSH2 0x107 JUMPI PUSH2 0x7B JUMP JUMPDEST DUP1 PUSH4 0x2AE3594A EQ PUSH2 0x7F JUMPI DUP1 PUSH4 0x31A56B83 EQ PUSH2 0x89 JUMPI DUP1 PUSH4 0x673EE37C EQ PUSH2 0xA5 JUMPI JUMPDEST PUSH0 PUSH0 REVERT JUMPDEST PUSH2 0x87 PUSH2 0x125 JUMP JUMPDEST STOP JUMPDEST PUSH2 0xA3 PUSH1 0x4 DUP1 CALLDATASIZE SUB DUP2 ADD SWAP1 PUSH2 0x9E SWAP2 SWAP1 PUSH2 0xF5D JUMP JUMPDEST PUSH2 0x265 JUMP JUMPDEST STOP JUMPDEST PUSH2 0xAD PUSH2 0x49A JUMP JUMPDEST PUSH1 0x40 MLOAD PUSH2 0xBA SWAP2 SWAP1 PUSH2 0xF97 JUMP JUMPDEST PUSH1 0x40 MLOAD DUP1 SWAP2 SUB SWAP1 RETURN JUMPDEST PUSH2 0xCB PUSH2 0x4A0 JUMP JUMPDEST PUSH1 0x40 MLOAD PUSH2 0xD8 SWAP2 SWAP1 PUSH2 0x102A JUMP JUMPDEST PUSH1 0x40 MLOAD DUP1 SWAP2 SUB SWAP1 RETURN JUMPDEST PUSH2 0xFB PUSH1 0x4 DUP1 CALLDATASIZE SUB DUP2 ADD SWAP1 PUSH2 0xF6 SWAP2 SWAP1 PUSH2 0xF5D JUMP JUMPDEST PUSH2 0x4C5 JUMP JUMPDEST STOP JUMPDEST PUSH2 0x105 PUSH2 0x7B3 JUMP JUMPDEST STOP JUMPDEST PUSH2 0x10F PUSH2 0x9A6 JUMP JUMPDEST PUSH1 0x40 MLOAD PUSH2 0x11C SWAP2 SWAP1 PUSH2 0x1063 JUMP JUMPDEST PUSH1 0x40 MLOAD DUP1 SWAP2 SUB SWAP1 RETURN JUMPDEST PUSH0 PUSH1 0x3 PUSH0 CALLER PUSH20 0xFFFFFFFFFFFFFFFFFFFFFFFFFFFFFFFFFFFFFFFF AND PUSH20 0xFFFFFFFFFFFFFFFFFFFFFFFFFFFFFFFFFFFFFFFF AND DUP2 MSTORE PUSH1 0x20 ADD SWAP1 DUP2 MSTORE PUSH1 0x20 ADD PUSH0 KECCAK256 SLOAD SWAP1 POP PUSH0 PUSH1 0x4 PUSH0 DUP4 DUP2 MSTORE PUSH1 0x20 ADD SWAP1 DUP2 MSTORE PUSH1 0x20 ADD PUSH0 KECCAK256 SWAP1 POP DUP1 PUSH1 0x6 ADD PUSH1 0x1 SWAP1 SLOAD SWAP1 PUSH2 0x100 EXP SWAP1 DIV PUSH1 0xFF AND PUSH2 0x1CB JUMPI PUSH1 0x40 MLOAD PUSH32 0x8C379A000000000000000000000000000000000000000000000000000000000 DUP2 MSTORE PUSH1 0x4 ADD PUSH2 0x1C2 SWAP1 PUSH2 0x10D6 JUMP JUMPDEST PUSH1 0x40 MLOAD DUP1 SWAP2 SUB SWAP1 REVERT JUMPDEST DUP1 PUSH1 0x6 ADD PUSH1 0x2 SWAP1 SLOAD SWAP1 PUSH2 0x100 EXP SWAP1 DIV PUSH1 0xFF AND ISZERO PUSH2 0x21D JUMPI PUSH1 0x40 MLOAD PUSH32 0x8C379A000000000000000000000000000000000000000000000000000000000 DUP2 MSTORE PUSH1 0x4 ADD PUSH2 0x214 SWAP1 PUSH2 0x113E JUMP JUMPDEST PUSH1 0x40 MLOAD DUP1 SWAP2 SUB SWAP1 REVERT JUMPDEST PUSH0 PUSH2 0x227 DUP3 PUSH2 0x9CA JUMP JUMPDEST SWAP1 POP PUSH2 0x244 DUP2 DUP4 PUSH1 0xB ADD PUSH1 0x1 SWAP1 SLOAD SWAP1 PUSH2 0x100 EXP SWAP1 DIV PUSH1 0xFF AND PUSH2 0xB29 JUMP JUMPDEST DUP3 PUSH1 0xB ADD PUSH1 0x1 PUSH2 0x100 EXP DUP2 SLOAD DUP2 PUSH1 0xFF MUL NOT AND SWAP1 DUP4 PUSH1 0xFF AND MUL OR SWAP1 SSTORE POP POP POP POP JUMP JUMPDEST PUSH0 PUSH1 0x3 PUSH0 CALLER PUSH20 0xFFFFFFFFFFFFFFFFFFFFFFFFFFFFFFFFFFFFFFFF AND PUSH20 0xFFFFFFFFFFFFFFFFFFFFFFFFFFFFFFFFFFFFFFFF AND DUP2 MSTORE PUSH1 0x20 ADD SWAP1 DUP2 MSTORE PUSH1 0x20 ADD PUSH0 KECCAK256 SLOAD EQ PUSH2 0x2E4 JUMPI PUSH1 0x40 MLOAD PUSH32 0x8C379A000000000000000000000000000000000000000000000000000000000 DUP2 MSTORE PUSH1 0x4 ADD PUSH2 0x2DB SWAP1 PUSH2 0x11A6 JUMP JUMPDEST PUSH1 0x40 MLOAD DUP1 SWAP2 SUB SWAP1 REVERT JUMPDEST PUSH0 PUSH1 0x2 PUSH0 DUP2 SLOAD DUP1 SWAP3 SWAP2 SWAP1 PUSH2 0x2F7 SWAP1 PUSH2 0x11F1 JUMP JUMPDEST SWAP2 SWAP1 POP SSTORE SWAP1 POP DUP1 PUSH1 0x3 PUSH0 CALLER PUSH20 0xFFFFFFFFFFFFFFFFFFFFFFFFFFFFFFFFFFFFFFFF AND PUSH20 0xFFFFFFFFFFFFFFFFFFFFFFFFFFFFFFFFFFFFFFFF AND DUP2 MSTORE PUSH1 0x20 ADD SWAP1 DUP2 MSTORE PUSH1 0x20 ADD PUSH0 KECCAK256 DUP2 SWAP1 SSTORE POP PUSH0 PUSH1 0x4 PUSH0 DUP4 DUP2 MSTORE PUSH1 0x20 ADD SWAP1 DUP2 MSTORE PUSH1 0x20 ADD PUSH0 KECCAK256 SWAP1 POP DUP2 DUP2 PUSH0 ADD DUP2 SWAP1 SSTORE POP CALLER DUP2 PUSH1 0x2 ADD PUSH0 PUSH2 0x100 EXP DUP2 SLOAD DUP2 PUSH20 0xFFFFFFFFFFFFFFFFFFFFFFFFFFFFFFFFFFFFFFFF MUL NOT AND SWAP1 DUP4 PUSH20 0xFFFFFFFFFFFFFFFFFFFFFFFFFFFFFFFFFFFFFFFF AND MUL OR SWAP1 SSTORE POP DUP3 DUP2 PUSH1 0x3 ADD DUP2 SWAP1 SSTORE POP PUSH0 DUP2 PUSH1 0x6 ADD PUSH0 PUSH2 0x100 EXP DUP2 SLOAD DUP2 PUSH1 0xFF MUL NOT AND SWAP1 DUP4 PUSH1 0xFF AND MUL OR SWAP1 SSTORE POP PUSH1 0x1 DUP2 PUSH1 0x6 ADD PUSH1 0x1 PUSH2 0x100 EXP DUP2 SLOAD DUP2 PUSH1 0xFF MUL NOT AND SWAP1 DUP4 ISZERO ISZERO MUL OR SWAP1 SSTORE POP PUSH0 DUP2 PUSH1 0xB ADD PUSH0 PUSH2 0x100 EXP DUP2 SLOAD DUP2 PUSH1 0xFF MUL NOT AND SWAP1 DUP4 ISZERO ISZERO MUL OR SWAP1 SSTORE POP PUSH0 DUP2 PUSH1 0xB ADD PUSH1 0x1 PUSH2 0x100 EXP DUP2 SLOAD DUP2 PUSH1 0xFF MUL NOT AND SWAP1 DUP4 PUSH1 0xFF AND MUL OR SWAP1 SSTORE POP PUSH0 DUP2 PUSH1 0xB ADD PUSH1 0x3 PUSH2 0x100 EXP DUP2 SLOAD DUP2 PUSH1 0xFF MUL NOT AND SWAP1 DUP4 PUSH1 0xFF AND MUL OR SWAP1 SSTORE POP PUSH0 DUP2 PUSH1 0x6 ADD PUSH1 0x2 PUSH2 0x100 EXP DUP2 SLOAD DUP2 PUSH1 0xFF MUL NOT AND SWAP1 DUP4 ISZERO ISZERO MUL OR SWAP1 SSTORE POP PUSH0 DUP2 PUSH1 0x1 ADD DUP2 SWAP1 SSTORE POP PUSH32 0xC3E0F84839DC888C892A013D10C8F9D6DC05A21A879D0CE468CA558013E9121C DUP2 PUSH0 ADD SLOAD CALLER PUSH1 0x40 MLOAD PUSH2 0x48D SWAP3 SWAP2 SWAP1 PUSH2 0x1258 JUMP JUMPDEST PUSH1 0x40 MLOAD DUP1 SWAP2 SUB SWAP1 LOG1 POP POP POP JUMP JUMPDEST PUSH1 0x2 SLOAD DUP2 JUMP JUMPDEST PUSH1 0x1 PUSH0 SWAP1 SLOAD SWAP1 PUSH2 0x100 EXP SWAP1 DIV PUSH20 0xFFFFFFFFFFFFFFFFFFFFFFFFFFFFFFFFFFFFFFFF AND DUP2 JUMP JUMPDEST PUSH5 0x174876E800 DUP2 LT ISZERO DUP1 ISZERO PUSH2 0x4E1 JUMPI POP PUSH7 0x38D7EA4C68000 DUP2 GT ISZERO JUMPDEST PUSH2 0x520 JUMPI PUSH1 0x40 MLOAD PUSH32 0x8C379A000000000000000000000000000000000000000000000000000000000 DUP2 MSTORE PUSH1 0x4 ADD PUSH2 0x517 SWAP1 PUSH2 0x12C9 JUMP JUMPDEST PUSH1 0x40 MLOAD DUP1 SWAP2 SUB SWAP1 REVERT JUMPDEST PUSH0 PUSH1 0x3 PUSH0 CALLER PUSH20 0xFFFFFFFFFFFFFFFFFFFFFFFFFFFFFFFFFFFFFFFF AND PUSH20 0xFFFFFFFFFFFFFFFFFFFFFFFFFFFFFFFFFFFFFFFF AND DUP2 MSTORE PUSH1 0x20 ADD SWAP1 DUP2 MSTORE PUSH1 0x20 ADD PUSH0 KECCAK256 SLOAD SUB PUSH2 0x59F JUMPI PUSH1 0x40 MLOAD PUSH32 0x8C379A000000000000000000000000000000000000000000000000000000000 DUP2 MSTORE PUSH1 0x4 ADD PUSH2 0x596 SWAP1 PUSH2 0x1331 JUMP JUMPDEST PUSH1 0x40 MLOAD DUP1 SWAP2 SUB SWAP1 REVERT JUMPDEST PUSH0 PUSH1 0x3 PUSH0 CALLER PUSH20 0xFFFFFFFFFFFFFFFFFFFFFFFFFFFFFFFFFFFFFFFF AND PUSH20 0xFFFFFFFFFFFFFFFFFFFFFFFFFFFFFFFFFFFFFFFF AND DUP2 MSTORE PUSH1 0x20 ADD SWAP1 DUP2 MSTORE PUSH1 0x20 ADD PUSH0 KECCAK256 SLOAD SWAP1 POP PUSH0 PUSH1 0x4 PUSH0 DUP4 DUP2 MSTORE PUSH1 0x20 ADD SWAP1 DUP2 MSTORE PUSH1 0x20 ADD PUSH0 KECCAK256 SWAP1 POP PUSH0 DUP2 PUSH1 0x1 ADD SLOAD EQ PUSH2 0x63A JUMPI PUSH1 0x40 MLOAD PUSH32 0x8C379A000000000000000000000000000000000000000000000000000000000 DUP2 MSTORE PUSH1 0x4 ADD PUSH2 0x631 SWAP1 PUSH2 0x1399 JUMP JUMPDEST PUSH1 0x40 MLOAD DUP1 SWAP2 SUB SWAP1 REVERT JUMPDEST DUP1 PUSH1 0x6 ADD PUSH1 0x1 SWAP1 SLOAD SWAP1 PUSH2 0x100 EXP SWAP1 DIV PUSH1 0xFF AND DUP1 PUSH2 0x669 JUMPI POP PUSH0 DUP2 PUSH1 0x6 ADD PUSH0 SWAP1 SLOAD SWAP1 PUSH2 0x100 EXP SWAP1 DIV PUSH1 0xFF AND PUSH1 0xFF AND GT JUMPDEST ISZERO PUSH2 0x6A9 JUMPI PUSH1 0x40 MLOAD PUSH32 0x8C379A000000000000000000000000000000000000000000000000000000000 DUP2 MSTORE PUSH1 0x4 ADD PUSH2 0x6A0 SWAP1 PUSH2 0x11A6 JUMP JUMPDEST PUSH1 0x40 MLOAD DUP1 SWAP2 SUB SWAP1 REVERT JUMPDEST DUP3 DUP2 PUSH1 0x1 ADD DUP2 SWAP1 SSTORE POP PUSH1 0x1 PUSH0 SWAP1 SLOAD SWAP1 PUSH2 0x100 EXP SWAP1 DIV PUSH20 0xFFFFFFFFFFFFFFFFFFFFFFFFFFFFFFFFFFFFFFFF AND PUSH20 0xFFFFFFFFFFFFFFFFFFFFFFFFFFFFFFFFFFFFFFFF AND PUSH4 0x41DF082 DUP3 PUSH1 0x4 ADD SLOAD DUP4 PUSH1 0x3 ADD SLOAD PUSH1 0x40 MLOAD DUP4 PUSH4 0xFFFFFFFF AND PUSH1 0xE0 SHL DUP2 MSTORE PUSH1 0x4 ADD PUSH2 0x716 SWAP3 SWAP2 SWAP1 PUSH2 0x13B7 JUMP JUMPDEST PUSH1 0x20 PUSH1 0x40 MLOAD DUP1 DUP4 SUB DUP2 DUP7 GAS STATICCALL ISZERO DUP1 ISZERO PUSH2 0x731 JUMPI RETURNDATASIZE PUSH0 PUSH0 RETURNDATACOPY RETURNDATASIZE PUSH0 REVERT JUMPDEST POP POP POP POP PUSH1 0x40 MLOAD RETURNDATASIZE PUSH1 0x1F NOT PUSH1 0x1F DUP3 ADD AND DUP3 ADD DUP1 PUSH1 0x40 MSTORE POP DUP2 ADD SWAP1 PUSH2 0x755 SWAP2 SWAP1 PUSH2 0x1411 JUMP JUMPDEST DUP2 PUSH1 0x5 ADD DUP2 SWAP1 SSTORE POP PUSH2 0x766 DUP2 PUSH2 0xB7E JUMP JUMPDEST PUSH32 0xE97CE5F641B8A03E0F92D0B4480F849CF26A7BFDF17862C8EDAF69268E60AAD DUP2 PUSH0 ADD SLOAD CALLER DUP4 PUSH1 0x1 ADD SLOAD DUP5 PUSH1 0x5 ADD SLOAD PUSH1 0x40 MLOAD PUSH2 0x7A6 SWAP5 SWAP4 SWAP3 SWAP2 SWAP1 PUSH2 0x144B JUMP JUMPDEST PUSH1 0x40 MLOAD DUP1 SWAP2 SUB SWAP1 LOG1 POP POP POP JUMP JUMPDEST PUSH0 PUSH1 0x3 PUSH0 CALLER PUSH20 0xFFFFFFFFFFFFFFFFFFFFFFFFFFFFFFFFFFFFFFFF AND PUSH20 0xFFFFFFFFFFFFFFFFFFFFFFFFFFFFFFFFFFFFFFFF AND DUP2 MSTORE PUSH1 0x20 ADD SWAP1 DUP2 MSTORE PUSH1 0x20 ADD PUSH0 KECCAK256 SLOAD SWAP1 POP PUSH0 PUSH1 0x4 PUSH0 DUP4 DUP2 MSTORE PUSH1 0x20 ADD SWAP1 DUP2 MSTORE PUSH1 0x20 ADD PUSH0 KECCAK256 SWAP1 POP DUP1 PUSH1 0x6 ADD PUSH1 0x1 SWAP1 SLOAD SWAP1 PUSH2 0x100 EXP SWAP1 DIV PUSH1 0xFF AND PUSH2 0x859 JUMPI PUSH1 0x40 MLOAD PUSH32 0x8C379A000000000000000000000000000000000000000000000000000000000 DUP2 MSTORE PUSH1 0x4 ADD PUSH2 0x850 SWAP1 PUSH2 0x14D8 JUMP JUMPDEST PUSH1 0x40 MLOAD DUP1 SWAP2 SUB SWAP1 REVERT JUMPDEST PUSH0 JUMPDEST PUSH1 0x11 DUP3 PUSH1 0xB ADD PUSH1 0x3 SWAP1 SLOAD SWAP1 PUSH2 0x100 EXP SWAP1 DIV PUSH1 0xFF AND PUSH1 0xFF AND LT ISZERO PUSH2 0x8BF JUMPI PUSH2 0x881 DUP3 PUSH2 0x9CA JUMP JUMPDEST SWAP1 POP PUSH2 0x89E DUP2 DUP4 PUSH1 0xB ADD PUSH1 0x3 SWAP1 SLOAD SWAP1 PUSH2 0x100 EXP SWAP1 DIV PUSH1 0xFF AND PUSH2 0xB29 JUMP JUMPDEST DUP3 PUSH1 0xB ADD PUSH1 0x3 PUSH2 0x100 EXP DUP2 SLOAD DUP2 PUSH1 0xFF MUL NOT AND SWAP1 DUP4 PUSH1 0xFF AND MUL OR SWAP1 SSTORE POP PUSH2 0x85B JUMP JUMPDEST PUSH1 0x15 DUP3 PUSH1 0xB ADD PUSH1 0x3 SWAP1 SLOAD SWAP1 PUSH2 0x100 EXP SWAP1 DIV PUSH1 0xFF AND PUSH1 0xFF AND GT ISZERO PUSH2 0x8FD JUMPI PUSH2 0x8F8 DUP3 PUSH1 0x1 PUSH1 0x2 DUP6 PUSH1 0x1 ADD SLOAD PUSH2 0x8F3 SWAP2 SWAP1 PUSH2 0x14F6 JUMP JUMPDEST PUSH2 0xD14 JUMP JUMPDEST PUSH2 0x9A1 JUMP JUMPDEST DUP2 PUSH1 0xB ADD PUSH1 0x1 SWAP1 SLOAD SWAP1 PUSH2 0x100 EXP SWAP1 DIV PUSH1 0xFF AND PUSH1 0xFF AND DUP3 PUSH1 0xB ADD PUSH1 0x3 SWAP1 SLOAD SWAP1 PUSH2 0x100 EXP SWAP1 DIV PUSH1 0xFF AND PUSH1 0xFF AND GT DUP1 PUSH2 0x949 JUMPI POP PUSH2 0x948 DUP3 PUSH1 0xB ADD PUSH1 0x3 SWAP1 SLOAD SWAP1 PUSH2 0x100 EXP SWAP1 DIV PUSH1 0xFF AND PUSH2 0xEFA JUMP JUMPDEST JUMPDEST ISZERO PUSH2 0x95F JUMPI PUSH2 0x95A DUP3 PUSH1 0x2 PUSH0 PUSH2 0xD14 JUMP JUMPDEST PUSH2 0x9A0 JUMP JUMPDEST DUP2 PUSH1 0xB ADD PUSH1 0x1 SWAP1 SLOAD SWAP1 PUSH2 0x100 EXP SWAP1 DIV PUSH1 0xFF AND PUSH1 0xFF AND DUP3 PUSH1 0xB ADD PUSH1 0x3 SWAP1 SLOAD SWAP1 PUSH2 0x100 EXP SWAP1 DIV PUSH1 0xFF AND PUSH1 0xFF AND SUB PUSH2 0x99F JUMPI PUSH2 0x99E DUP3 PUSH1 0x3 DUP5 PUSH1 0x1 ADD SLOAD PUSH2 0xD14 JUMP JUMPDEST JUMPDEST JUMPDEST JUMPDEST POP POP POP JUMP JUMPDEST PUSH0 PUSH0 SWAP1 SLOAD SWAP1 PUSH2 0x100 EXP SWAP1 DIV PUSH20 0xFFFFFFFFFFFFFFFFFFFFFFFFFFFFFFFFFFFFFFFF AND DUP2 JUMP JUMPDEST PUSH0 DUP2 PUSH1 0xB ADD PUSH0 SWAP1 SLOAD SWAP1 PUSH2 0x100 EXP SWAP1 DIV PUSH1 0xFF AND PUSH2 0xA1B JUMPI PUSH1 0x40 MLOAD PUSH32 0x8C379A000000000000000000000000000000000000000000000000000000000 DUP2 MSTORE PUSH1 0x4 ADD PUSH2 0xA12 SWAP1 PUSH2 0x1581 JUMP JUMPDEST PUSH1 0x40 MLOAD DUP1 SWAP2 SUB SWAP1 REVERT JUMPDEST PUSH0 DUP3 PUSH1 0x7 ADD DUP4 PUSH1 0x6 ADD PUSH0 SWAP1 SLOAD SWAP1 PUSH2 0x100 EXP SWAP1 DIV PUSH1 0xFF AND PUSH1 0xFF AND PUSH1 0x68 DUP2 LT PUSH2 0xA45 JUMPI PUSH2 0xA44 PUSH2 0x159F JUMP JUMPDEST JUMPDEST PUSH1 0x20 SWAP2 DUP3 DUP3 DIV ADD SWAP2 SWAP1 MOD SWAP1 SLOAD SWAP1 PUSH2 0x100 EXP SWAP1 DIV PUSH1 0xFF AND SWAP1 POP PUSH0 PUSH1 0x1 PUSH1 0xD DUP4 PUSH2 0xA6D SWAP2 SWAP1 PUSH2 0x1605 JUMP JUMPDEST PUSH2 0xA77 SWAP2 SWAP1 PUSH2 0x1635 JUMP JUMPDEST SWAP1 POP PUSH1 0xA DUP2 PUSH1 0xFF AND GT ISZERO PUSH2 0xA8A JUMPI PUSH1 0xA SWAP1 POP JUMPDEST DUP4 PUSH1 0x6 ADD PUSH0 DUP2 DUP2 SWAP1 SLOAD SWAP1 PUSH2 0x100 EXP SWAP1 DIV PUSH1 0xFF AND DUP1 SWAP3 SWAP2 SWAP1 PUSH2 0xAAA SWAP1 PUSH2 0x1669 JUMP JUMPDEST SWAP2 SWAP1 PUSH2 0x100 EXP DUP2 SLOAD DUP2 PUSH1 0xFF MUL NOT AND SWAP1 DUP4 PUSH1 0xFF AND MUL OR SWAP1 SSTORE POP POP PUSH32 0x5CB494422AEC3C1D66AD0616D3F90F8641E12057560336165C27BF8793FCE9CF DUP5 PUSH1 0x2 ADD PUSH0 SWAP1 SLOAD SWAP1 PUSH2 0x100 EXP SWAP1 DIV PUSH20 0xFFFFFFFFFFFFFFFFFFFFFFFFFFFFFFFFFFFFFFFF AND DUP4 PUSH1 0x40 MLOAD PUSH2 0xB17 SWAP3 SWAP2 SWAP1 PUSH2 0x16A0 JUMP JUMPDEST PUSH1 0x40 MLOAD DUP1 SWAP2 SUB SWAP1 LOG1 DUP1 SWAP3 POP POP POP SWAP2 SWAP1 POP JUMP JUMPDEST PUSH0 PUSH0 DUP3 DUP5 PUSH2 0xB37 SWAP2 SWAP1 PUSH2 0x1635 JUMP JUMPDEST SWAP1 POP PUSH2 0xB42 DUP5 PUSH2 0xF09 JUMP JUMPDEST ISZERO PUSH2 0xB70 JUMPI PUSH1 0x15 DUP2 PUSH1 0xFF AND GT ISZERO PUSH2 0xB67 JUMPI PUSH1 0x1 DUP4 PUSH2 0xB60 SWAP2 SWAP1 PUSH2 0x1635 JUMP JUMPDEST SWAP3 POP PUSH2 0xB6B JUMP JUMPDEST DUP1 SWAP3 POP JUMPDEST PUSH2 0xB74 JUMP JUMPDEST DUP1 SWAP3 POP JUMPDEST DUP3 SWAP2 POP POP SWAP3 SWAP2 POP POP JUMP JUMPDEST PUSH0 PUSH0 SWAP1 POP JUMPDEST PUSH1 0x68 PUSH1 0xFF AND DUP2 PUSH1 0xFF AND LT ISZERO PUSH2 0xBD9 JUMPI DUP1 DUP3 PUSH1 0x7 ADD DUP3 PUSH1 0xFF AND PUSH1 0x68 DUP2 LT PUSH2 0xBAC JUMPI PUSH2 0xBAB PUSH2 0x159F JUMP JUMPDEST JUMPDEST PUSH1 0x20 SWAP2 DUP3 DUP3 DIV ADD SWAP2 SWAP1 MOD PUSH2 0x100 EXP DUP2 SLOAD DUP2 PUSH1 0xFF MUL NOT AND SWAP1 DUP4 PUSH1 0xFF AND MUL OR SWAP1 SSTORE POP DUP1 DUP1 PUSH1 0x1 ADD SWAP2 POP POP PUSH2 0xB83 JUMP JUMPDEST POP PUSH0 PUSH0 SWAP1 POP JUMPDEST PUSH1 0x68 PUSH1 0xFF AND DUP2 LT ISZERO PUSH2 0xCF4 JUMPI PUSH0 DUP2 PUSH1 0x68 PUSH1 0xFF AND PUSH2 0xBFC SWAP2 SWAP1 PUSH2 0x16C7 JUMP JUMPDEST DUP4 PUSH1 0x5 ADD SLOAD PUSH0 SHR PUSH2 0xC0D SWAP2 SWAP1 PUSH2 0x16FA JUMP JUMPDEST DUP3 PUSH2 0xC18 SWAP2 SWAP1 PUSH2 0x172A JUMP JUMPDEST SWAP1 POP DUP3 PUSH1 0x7 ADD DUP2 PUSH1 0x68 DUP2 LT PUSH2 0xC30 JUMPI PUSH2 0xC2F PUSH2 0x159F JUMP JUMPDEST JUMPDEST PUSH1 0x20 SWAP2 DUP3 DUP3 DIV ADD SWAP2 SWAP1 MOD SWAP1 SLOAD SWAP1 PUSH2 0x100 EXP SWAP1 DIV PUSH1 0xFF AND DUP4 PUSH1 0x7 ADD DUP4 PUSH1 0x68 DUP2 LT PUSH2 0xC5C JUMPI PUSH2 0xC5B PUSH2 0x159F JUMP JUMPDEST JUMPDEST PUSH1 0x20 SWAP2 DUP3 DUP3 DIV ADD SWAP2 SWAP1 MOD SWAP1 SLOAD SWAP1 PUSH2 0x100 EXP SWAP1 DIV PUSH1 0xFF AND DUP5 PUSH1 0x7 ADD DUP5 PUSH1 0x68 DUP2 LT PUSH2 0xC88 JUMPI PUSH2 0xC87 PUSH2 0x159F JUMP JUMPDEST JUMPDEST PUSH1 0x20 SWAP2 DUP3 DUP3 DIV ADD SWAP2 SWAP1 MOD DUP7 PUSH1 0x7 ADD DUP6 PUSH1 0x68 DUP2 LT PUSH2 0xCA8 JUMPI PUSH2 0xCA7 PUSH2 0x159F JUMP JUMPDEST JUMPDEST PUSH1 0x20 SWAP2 DUP3 DUP3 DIV ADD SWAP2 SWAP1 MOD DUP5 SWAP2 SWAP1 PUSH2 0x100 EXP DUP2 SLOAD DUP2 PUSH1 0xFF MUL NOT AND SWAP1 DUP4 PUSH1 0xFF AND MUL OR SWAP1 SSTORE POP DUP4 SWAP2 SWAP1 PUSH2 0x100 EXP DUP2 SLOAD DUP2 PUSH1 0xFF MUL NOT AND SWAP1 DUP4 PUSH1 0xFF AND MUL OR SWAP1 SSTORE POP POP POP POP DUP1 DUP1 PUSH1 0x1 ADD SWAP2 POP POP PUSH2 0xBDF JUMP JUMPDEST POP PUSH1 0x1 DUP2 PUSH1 0xB ADD PUSH0 PUSH2 0x100 EXP DUP2 SLOAD DUP2 PUSH1 0xFF MUL NOT AND SWAP1 DUP4 ISZERO ISZERO MUL OR SWAP1 SSTORE POP POP JUMP JUMPDEST DUP2 DUP4 PUSH1 0x6 ADD PUSH1 0x3 PUSH2 0x100 EXP DUP2 SLOAD DUP2 PUSH1 0xFF MUL NOT AND SWAP1 DUP4 PUSH1 0x3 DUP2 GT ISZERO PUSH2 0xD3B JUMPI PUSH2 0xD3A PUSH2 0x175D JUMP JUMPDEST JUMPDEST MUL OR SWAP1 SSTORE POP PUSH1 0x1 DUP4 PUSH1 0x6 ADD PUSH1 0x2 PUSH2 0x100 EXP DUP2 SLOAD DUP2 PUSH1 0xFF MUL NOT AND SWAP1 DUP4 ISZERO ISZERO MUL OR SWAP1 SSTORE POP PUSH0 DUP4 PUSH1 0x6 ADD PUSH1 0x1 PUSH2 0x100 EXP DUP2 SLOAD DUP2 PUSH1 0xFF MUL NOT AND SWAP1 DUP4 ISZERO ISZERO MUL OR SWAP1 SSTORE POP PUSH0 DUP2 GT ISZERO PUSH2 0xE2D JUMPI PUSH0 PUSH0 SWAP1 SLOAD SWAP1 PUSH2 0x100 EXP SWAP1 DIV PUSH20 0xFFFFFFFFFFFFFFFFFFFFFFFFFFFFFFFFFFFFFFFF AND PUSH20 0xFFFFFFFFFFFFFFFFFFFFFFFFFFFFFFFFFFFFFFFF AND PUSH4 0x117DE2FD DUP5 PUSH1 0x2 ADD PUSH0 SWAP1 SLOAD SWAP1 PUSH2 0x100 EXP SWAP1 DIV PUSH20 0xFFFFFFFFFFFFFFFFFFFFFFFFFFFFFFFFFFFFFFFF AND DUP4 PUSH1 0x40 MLOAD DUP4 PUSH4 0xFFFFFFFF AND PUSH1 0xE0 SHL DUP2 MSTORE PUSH1 0x4 ADD PUSH2 0xDFF SWAP3 SWAP2 SWAP1 PUSH2 0x178A JUMP JUMPDEST PUSH0 PUSH1 0x40 MLOAD DUP1 DUP4 SUB DUP2 PUSH0 DUP8 DUP1 EXTCODESIZE ISZERO DUP1 ISZERO PUSH2 0xE16 JUMPI PUSH0 PUSH0 REVERT JUMPDEST POP GAS CALL ISZERO DUP1 ISZERO PUSH2 0xE28 JUMPI RETURNDATASIZE PUSH0 PUSH0 RETURNDATACOPY RETURNDATASIZE PUSH0 REVERT JUMPDEST POP POP POP POP JUMPDEST PUSH1 0x3 PUSH0 DUP5 PUSH1 0x2 ADD PUSH0 SWAP1 SLOAD SWAP1 PUSH2 0x100 EXP SWAP1 DIV PUSH20 0xFFFFFFFFFFFFFFFFFFFFFFFFFFFFFFFFFFFFFFFF AND PUSH20 0xFFFFFFFFFFFFFFFFFFFFFFFFFFFFFFFFFFFFFFFF AND PUSH20 0xFFFFFFFFFFFFFFFFFFFFFFFFFFFFFFFFFFFFFFFF AND DUP2 MSTORE PUSH1 0x20 ADD SWAP1 DUP2 MSTORE PUSH1 0x20 ADD PUSH0 KECCAK256 PUSH0 SWAP1 SSTORE PUSH0 DUP4 PUSH1 0x1 ADD DUP2 SWAP1 SSTORE POP PUSH32 0xECDAB0D30AE5A2B8D283ACF9ED4856306F12F29EF8069FAC9148D3D2AC6B4B14 DUP4 PUSH1 0x2 ADD PUSH0 SWAP1 SLOAD SWAP1 PUSH2 0x100 EXP SWAP1 DIV PUSH20 0xFFFFFFFFFFFFFFFFFFFFFFFFFFFFFFFFFFFFFFFF AND DUP4 PUSH1 0x40 MLOAD PUSH2 0xEED SWAP3 SWAP2 SWAP1 PUSH2 0x17F7 JUMP JUMPDEST PUSH1 0x40 MLOAD DUP1 SWAP2 SUB SWAP1 LOG1 POP POP POP JUMP JUMPDEST PUSH0 PUSH1 0x15 DUP3 PUSH1 0xFF AND EQ SWAP1 POP SWAP2 SWAP1 POP JUMP JUMPDEST PUSH0 PUSH1 0x1 DUP3 PUSH1 0xFF AND EQ DUP1 PUSH2 0xF1F JUMPI POP PUSH1 0xB DUP3 PUSH1 0xFF AND EQ JUMPDEST SWAP1 POP SWAP2 SWAP1 POP JUMP JUMPDEST PUSH0 PUSH0 REVERT JUMPDEST PUSH0 DUP2 SWAP1 POP SWAP2 SWAP1 POP JUMP JUMPDEST PUSH2 0xF3C DUP2 PUSH2 0xF2A JUMP JUMPDEST DUP2 EQ PUSH2 0xF46 JUMPI PUSH0 PUSH0 REVERT JUMPDEST POP JUMP JUMPDEST PUSH0 DUP2 CALLDATALOAD SWAP1 POP PUSH2 0xF57 DUP2 PUSH2 0xF33 JUMP JUMPDEST SWAP3 SWAP2 POP POP JUMP JUMPDEST PUSH0 PUSH1 0x20 DUP3 DUP5 SUB SLT ISZERO PUSH2 0xF72 JUMPI PUSH2 0xF71 PUSH2 0xF26 JUMP JUMPDEST JUMPDEST PUSH0 PUSH2 0xF7F DUP5 DUP3 DUP6 ADD PUSH2 0xF49 JUMP JUMPDEST SWAP2 POP POP SWAP3 SWAP2 POP POP JUMP JUMPDEST PUSH2 0xF91 DUP2 PUSH2 0xF2A JUMP JUMPDEST DUP3 MSTORE POP POP JUMP JUMPDEST PUSH0 PUSH1 0x20 DUP3 ADD SWAP1 POP PUSH2 0xFAA PUSH0 DUP4 ADD DUP5 PUSH2 0xF88 JUMP JUMPDEST SWAP3 SWAP2 POP POP JUMP JUMPDEST PUSH0 PUSH20 0xFFFFFFFFFFFFFFFFFFFFFFFFFFFFFFFFFFFFFFFF DUP3 AND SWAP1 POP SWAP2 SWAP1 POP JUMP JUMPDEST PUSH0 DUP2 SWAP1 POP SWAP2 SWAP1 POP JUMP JUMPDEST PUSH0 PUSH2 0xFF2 PUSH2 0xFED PUSH2 0xFE8 DUP5 PUSH2 0xFB0 JUMP JUMPDEST PUSH2 0xFCF JUMP JUMPDEST PUSH2 0xFB0 JUMP JUMPDEST SWAP1 POP SWAP2 SWAP1 POP JUMP JUMPDEST PUSH0 PUSH2 0x1003 DUP3 PUSH2 0xFD8 JUMP JUMPDEST SWAP1 POP SWAP2 SWAP1 POP JUMP JUMPDEST PUSH0 PUSH2 0x1014 DUP3 PUSH2 0xFF9 JUMP JUMPDEST SWAP1 POP SWAP2 SWAP1 POP JUMP JUMPDEST PUSH2 0x1024 DUP2 PUSH2 0x100A JUMP JUMPDEST DUP3 MSTORE POP POP JUMP JUMPDEST PUSH0 PUSH1 0x20 DUP3 ADD SWAP1 POP PUSH2 0x103D PUSH0 DUP4 ADD DUP5 PUSH2 0x101B JUMP JUMPDEST SWAP3 SWAP2 POP POP JUMP JUMPDEST PUSH0 PUSH2 0x104D DUP3 PUSH2 0xFF9 JUMP JUMPDEST SWAP1 POP SWAP2 SWAP1 POP JUMP JUMPDEST PUSH2 0x105D DUP2 PUSH2 0x1043 JUMP JUMPDEST DUP3 MSTORE POP POP JUMP JUMPDEST PUSH0 PUSH1 0x20 DUP3 ADD SWAP1 POP PUSH2 0x1076 PUSH0 DUP4 ADD DUP5 PUSH2 0x1054 JUMP JUMPDEST SWAP3 SWAP2 POP POP JUMP JUMPDEST PUSH0 DUP3 DUP3 MSTORE PUSH1 0x20 DUP3 ADD SWAP1 POP SWAP3 SWAP2 POP POP JUMP JUMPDEST PUSH32 0x4E6F2067616D6520697320696E2070726F677265737300000000000000000000 PUSH0 DUP3 ADD MSTORE POP JUMP JUMPDEST PUSH0 PUSH2 0x10C0 PUSH1 0x16 DUP4 PUSH2 0x107C JUMP JUMPDEST SWAP2 POP PUSH2 0x10CB DUP3 PUSH2 0x108C JUMP JUMPDEST PUSH1 0x20 DUP3 ADD SWAP1 POP SWAP2 SWAP1 POP JUMP JUMPDEST PUSH0 PUSH1 0x20 DUP3 ADD SWAP1 POP DUP2 DUP2 SUB PUSH0 DUP4 ADD MSTORE PUSH2 0x10ED DUP2 PUSH2 0x10B4 JUMP JUMPDEST SWAP1 POP SWAP2 SWAP1 POP JUMP JUMPDEST PUSH32 0x47616D652068617320616C72656164792066696E697368656400000000000000 PUSH0 DUP3 ADD MSTORE POP JUMP JUMPDEST PUSH0 PUSH2 0x1128 PUSH1 0x19 DUP4 PUSH2 0x107C JUMP JUMPDEST SWAP2 POP PUSH2 0x1133 DUP3 PUSH2 0x10F4 JUMP JUMPDEST PUSH1 0x20 DUP3 ADD SWAP1 POP SWAP2 SWAP1 POP JUMP JUMPDEST PUSH0 PUSH1 0x20 DUP3 ADD SWAP1 POP DUP2 DUP2 SUB PUSH0 DUP4 ADD MSTORE PUSH2 0x1155 DUP2 PUSH2 0x111C JUMP JUMPDEST SWAP1 POP SWAP2 SWAP1 POP JUMP JUMPDEST PUSH32 0x47616D6520616C726561647920696E2070726F67726573730000000000000000 PUSH0 DUP3 ADD MSTORE POP JUMP JUMPDEST PUSH0 PUSH2 0x1190 PUSH1 0x18 DUP4 PUSH2 0x107C JUMP JUMPDEST SWAP2 POP PUSH2 0x119B DUP3 PUSH2 0x115C JUMP JUMPDEST PUSH1 0x20 DUP3 ADD SWAP1 POP SWAP2 SWAP1 POP JUMP JUMPDEST PUSH0 PUSH1 0x20 DUP3 ADD SWAP1 POP DUP2 DUP2 SUB PUSH0 DUP4 ADD MSTORE PUSH2 0x11BD DUP2 PUSH2 0x1184 JUMP JUMPDEST SWAP1 POP SWAP2 SWAP1 POP JUMP JUMPDEST PUSH32 0x4E487B7100000000000000000000000000000000000000000000000000000000 PUSH0 MSTORE PUSH1 0x11 PUSH1 0x4 MSTORE PUSH1 0x24 PUSH0 REVERT JUMPDEST PUSH0 PUSH2 0x11FB DUP3 PUSH2 0xF2A JUMP JUMPDEST SWAP2 POP PUSH32 0xFFFFFFFFFFFFFFFFFFFFFFFFFFFFFFFFFFFFFFFFFFFFFFFFFFFFFFFFFFFFFFFF DUP3 SUB PUSH2 0x122D JUMPI PUSH2 0x122C PUSH2 0x11C4 JUMP JUMPDEST JUMPDEST PUSH1 0x1 DUP3 ADD SWAP1 POP SWAP2 SWAP1 POP JUMP JUMPDEST PUSH0 PUSH2 0x1242 DUP3 PUSH2 0xFB0 JUMP JUMPDEST SWAP1 POP SWAP2 SWAP1 POP JUMP JUMPDEST PUSH2 0x1252 DUP2 PUSH2 0x1238 JUMP JUMPDEST DUP3 MSTORE POP POP JUMP JUMPDEST PUSH0 PUSH1 0x40 DUP3 ADD SWAP1 POP PUSH2 0x126B PUSH0 DUP4 ADD DUP6 PUSH2 0xF88 JUMP JUMPDEST PUSH2 0x1278 PUSH1 0x20 DUP4 ADD DUP5 PUSH2 0x1249 JUMP JUMPDEST SWAP4 SWAP3 POP POP POP JUMP JUMPDEST PUSH32 0x426574206F7574206F662072616E67652E000000000000000000000000000000 PUSH0 DUP3 ADD MSTORE POP JUMP JUMPDEST PUSH0 PUSH2 0x12B3 PUSH1 0x11 DUP4 PUSH2 0x107C JUMP JUMPDEST SWAP2 POP PUSH2 0x12BE DUP3 PUSH2 0x127F JUMP JUMPDEST PUSH1 0x20 DUP3 ADD SWAP1 POP SWAP2 SWAP1 POP JUMP JUMPDEST PUSH0 PUSH1 0x20 DUP3 ADD SWAP1 POP DUP2 DUP2 SUB PUSH0 DUP4 ADD MSTORE PUSH2 0x12E0 DUP2 PUSH2 0x12A7 JUMP JUMPDEST SWAP1 POP SWAP2 SWAP1 POP JUMP JUMPDEST PUSH32 0x4E6F206163746976652067616D652063757272656E746C790000000000000000 PUSH0 DUP3 ADD MSTORE POP JUMP JUMPDEST PUSH0 PUSH2 0x131B PUSH1 0x18 DUP4 PUSH2 0x107C JUMP JUMPDEST SWAP2 POP PUSH2 0x1326 DUP3 PUSH2 0x12E7 JUMP JUMPDEST PUSH1 0x20 DUP3 ADD SWAP1 POP SWAP2 SWAP1 POP JUMP JUMPDEST PUSH0 PUSH1 0x20 DUP3 ADD SWAP1 POP DUP2 DUP2 SUB PUSH0 DUP4 ADD MSTORE PUSH2 0x1348 DUP2 PUSH2 0x130F JUMP JUMPDEST SWAP1 POP SWAP2 SWAP1 POP JUMP JUMPDEST PUSH32 0x42657420616C726561647920706C616365640000000000000000000000000000 PUSH0 DUP3 ADD MSTORE POP JUMP JUMPDEST PUSH0 PUSH2 0x1383 PUSH1 0x12 DUP4 PUSH2 0x107C JUMP JUMPDEST SWAP2 POP PUSH2 0x138E DUP3 PUSH2 0x134F JUMP JUMPDEST PUSH1 0x20 DUP3 ADD SWAP1 POP SWAP2 SWAP1 POP JUMP JUMPDEST PUSH0 PUSH1 0x20 DUP3 ADD SWAP1 POP DUP2 DUP2 SUB PUSH0 DUP4 ADD MSTORE PUSH2 0x13B0 DUP2 PUSH2 0x1377 JUMP JUMPDEST SWAP1 POP SWAP2 SWAP1 POP JUMP JUMPDEST PUSH0 PUSH1 0x40 DUP3 ADD SWAP1 POP PUSH2 0x13CA PUSH0 DUP4 ADD DUP6 PUSH2 0xF88 JUMP JUMPDEST PUSH2 0x13D7 PUSH1 0x20 DUP4 ADD DUP5 PUSH2 0xF88 JUMP JUMPDEST SWAP4 SWAP3 POP POP POP JUMP JUMPDEST PUSH0 DUP2 SWAP1 POP SWAP2 SWAP1 POP JUMP JUMPDEST PUSH2 0x13F0 DUP2 PUSH2 0x13DE JUMP JUMPDEST DUP2 EQ PUSH2 0x13FA JUMPI PUSH0 PUSH0 REVERT JUMPDEST POP JUMP JUMPDEST PUSH0 DUP2 MLOAD SWAP1 POP PUSH2 0x140B DUP2 PUSH2 0x13E7 JUMP JUMPDEST SWAP3 SWAP2 POP POP JUMP JUMPDEST PUSH0 PUSH1 0x20 DUP3 DUP5 SUB SLT ISZERO PUSH2 0x1426 JUMPI PUSH2 0x1425 PUSH2 0xF26 JUMP JUMPDEST JUMPDEST PUSH0 PUSH2 0x1433 DUP5 DUP3 DUP6 ADD PUSH2 0x13FD JUMP JUMPDEST SWAP2 POP POP SWAP3 SWAP2 POP POP JUMP JUMPDEST PUSH2 0x1445 DUP2 PUSH2 0x13DE JUMP JUMPDEST DUP3 MSTORE POP POP JUMP JUMPDEST PUSH0 PUSH1 0x80 DUP3 ADD SWAP1 POP PUSH2 0x145E PUSH0 DUP4 ADD DUP8 PUSH2 0xF88 JUMP JUMPDEST PUSH2 0x146B PUSH1 0x20 DUP4 ADD DUP7 PUSH2 0x1249 JUMP JUMPDEST PUSH2 0x1478 PUSH1 0x40 DUP4 ADD DUP6 PUSH2 0xF88 JUMP JUMPDEST PUSH2 0x1485 PUSH1 0x60 DUP4 ADD DUP5 PUSH2 0x143C JUMP JUMPDEST SWAP6 SWAP5 POP POP POP POP POP JUMP JUMPDEST PUSH32 0x4E6F2067616D6520686173206265656E20737461727465640000000000000000 PUSH0 DUP3 ADD MSTORE POP JUMP JUMPDEST PUSH0 PUSH2 0x14C2 PUSH1 0x18 DUP4 PUSH2 0x107C JUMP JUMPDEST SWAP2 POP PUSH2 0x14CD DUP3 PUSH2 0x148E JUMP JUMPDEST PUSH1 0x20 DUP3 ADD SWAP1 POP SWAP2 SWAP1 POP JUMP JUMPDEST PUSH0 PUSH1 0x20 DUP3 ADD SWAP1 POP DUP2 DUP2 SUB PUSH0 DUP4 ADD MSTORE PUSH2 0x14EF DUP2 PUSH2 0x14B6 JUMP JUMPDEST SWAP1 POP SWAP2 SWAP1 POP JUMP JUMPDEST PUSH0 PUSH2 0x1500 DUP3 PUSH2 0xF2A JUMP JUMPDEST SWAP2 POP PUSH2 0x150B DUP4 PUSH2 0xF2A JUMP JUMPDEST SWAP3 POP DUP3 DUP3 MUL PUSH2 0x1519 DUP2 PUSH2 0xF2A JUMP JUMPDEST SWAP2 POP DUP3 DUP3 DIV DUP5 EQ DUP4 ISZERO OR PUSH2 0x1530 JUMPI PUSH2 0x152F PUSH2 0x11C4 JUMP JUMPDEST JUMPDEST POP SWAP3 SWAP2 POP POP JUMP JUMPDEST PUSH32 0x4465636B20686173206E6F74206265656E2073687566666C6564000000000000 PUSH0 DUP3 ADD MSTORE POP JUMP JUMPDEST PUSH0 PUSH2 0x156B PUSH1 0x1A DUP4 PUSH2 0x107C JUMP JUMPDEST SWAP2 POP PUSH2 0x1576 DUP3 PUSH2 0x1537 JUMP JUMPDEST PUSH1 0x20 DUP3 ADD SWAP1 POP SWAP2 SWAP1 POP JUMP JUMPDEST PUSH0 PUSH1 0x20 DUP3 ADD SWAP1 POP DUP2 DUP2 SUB PUSH0 DUP4 ADD MSTORE PUSH2 0x1598 DUP2 PUSH2 0x155F JUMP JUMPDEST SWAP1 POP SWAP2 SWAP1 POP JUMP JUMPDEST PUSH32 0x4E487B7100000000000000000000000000000000000000000000000000000000 PUSH0 MSTORE PUSH1 0x32 PUSH1 0x4 MSTORE PUSH1 0x24 PUSH0 REVERT JUMPDEST PUSH0 PUSH1 0xFF DUP3 AND SWAP1 POP SWAP2 SWAP1 POP JUMP JUMPDEST PUSH32 0x4E487B7100000000000000000000000000000000000000000000000000000000 PUSH0 MSTORE PUSH1 0x12 PUSH1 0x4 MSTORE PUSH1 0x24 PUSH0 REVERT JUMPDEST PUSH0 PUSH2 0x160F DUP3 PUSH2 0x15CC JUMP JUMPDEST SWAP2 POP PUSH2 0x161A DUP4 PUSH2 0x15CC JUMP JUMPDEST SWAP3 POP DUP3 PUSH2 0x162A JUMPI PUSH2 0x1629 PUSH2 0x15D8 JUMP JUMPDEST JUMPDEST DUP3 DUP3 MOD SWAP1 POP SWAP3 SWAP2 POP POP JUMP JUMPDEST PUSH0 PUSH2 0x163F DUP3 PUSH2 0x15CC JUMP JUMPDEST SWAP2 POP PUSH2 0x164A DUP4 PUSH2 0x15CC JUMP JUMPDEST SWAP3 POP DUP3 DUP3 ADD SWAP1 POP PUSH1 0xFF DUP2 GT ISZERO PUSH2 0x1663 JUMPI PUSH2 0x1662 PUSH2 0x11C4 JUMP JUMPDEST JUMPDEST SWAP3 SWAP2 POP POP JUMP JUMPDEST PUSH0 PUSH2 0x1673 DUP3 PUSH2 0x15CC JUMP JUMPDEST SWAP2 POP PUSH1 0xFF DUP3 SUB PUSH2 0x1686 JUMPI PUSH2 0x1685 PUSH2 0x11C4 JUMP JUMPDEST JUMPDEST PUSH1 0x1 DUP3 ADD SWAP1 POP SWAP2 SWAP1 POP JUMP JUMPDEST PUSH2 0x169A DUP2 PUSH2 0x15CC JUMP JUMPDEST DUP3 MSTORE POP POP JUMP JUMPDEST PUSH0 PUSH1 0x40 DUP3 ADD SWAP1 POP PUSH2 0x16B3 PUSH0 DUP4 ADD DUP6 PUSH2 0x1249 JUMP JUMPDEST PUSH2 0x16C0 PUSH1 0x20 DUP4 ADD DUP5 PUSH2 0x1691 JUMP JUMPDEST SWAP4 SWAP3 POP POP POP JUMP JUMPDEST PUSH0 PUSH2 0x16D1 DUP3 PUSH2 0xF2A JUMP JUMPDEST SWAP2 POP PUSH2 0x16DC DUP4 PUSH2 0xF2A JUMP JUMPDEST SWAP3 POP DUP3 DUP3 SUB SWAP1 POP DUP2 DUP2 GT ISZERO PUSH2 0x16F4 JUMPI PUSH2 0x16F3 PUSH2 0x11C4 JUMP JUMPDEST JUMPDEST SWAP3 SWAP2 POP POP JUMP JUMPDEST PUSH0 PUSH2 0x1704 DUP3 PUSH2 0xF2A JUMP JUMPDEST SWAP2 POP PUSH2 0x170F DUP4 PUSH2 0xF2A JUMP JUMPDEST SWAP3 POP DUP3 PUSH2 0x171F JUMPI PUSH2 0x171E PUSH2 0x15D8 JUMP JUMPDEST JUMPDEST DUP3 DUP3 MOD SWAP1 POP SWAP3 SWAP2 POP POP JUMP JUMPDEST PUSH0 PUSH2 0x1734 DUP3 PUSH2 0xF2A JUMP JUMPDEST SWAP2 POP PUSH2 0x173F DUP4 PUSH2 0xF2A JUMP JUMPDEST SWAP3 POP DUP3 DUP3 ADD SWAP1 POP DUP1 DUP3 GT ISZERO PUSH2 0x1757 JUMPI PUSH2 0x1756 PUSH2 0x11C4 JUMP JUMPDEST JUMPDEST SWAP3 SWAP2 POP POP JUMP JUMPDEST PUSH32 0x4E487B7100000000000000000000000000000000000000000000000000000000 PUSH0 MSTORE PUSH1 0x21 PUSH1 0x4 MSTORE PUSH1 0x24 PUSH0 REVERT JUMPDEST PUSH0 PUSH1 0x40 DUP3 ADD SWAP1 POP PUSH2 0x179D PUSH0 DUP4 ADD DUP6 PUSH2 0x1249 JUMP JUMPDEST PUSH2 0x17AA PUSH1 0x20 DUP4 ADD DUP5 PUSH2 0xF88 JUMP JUMPDEST SWAP4 SWAP3 POP POP POP JUMP JUMPDEST PUSH1 0x4 DUP2 LT PUSH2 0x17C2 JUMPI PUSH2 0x17C1 PUSH2 0x175D JUMP JUMPDEST JUMPDEST POP JUMP JUMPDEST PUSH0 DUP2 SWAP1 POP PUSH2 0x17D2 DUP3 PUSH2 0x17B1 JUMP JUMPDEST SWAP2 SWAP1 POP JUMP JUMPDEST PUSH0 PUSH2 0x17E1 DUP3 PUSH2 0x17C5 JUMP JUMPDEST SWAP1 POP SWAP2 SWAP1 POP JUMP JUMPDEST PUSH2 0x17F1 DUP2 PUSH2 0x17D7 JUMP JUMPDEST DUP3 MSTORE POP POP JUMP JUMPDEST PUSH0 PUSH1 0x40 DUP3 ADD SWAP1 POP PUSH2 0x180A PUSH0 DUP4 ADD DUP6 PUSH2 0x1249 JUMP JUMPDEST PUSH2 0x1817 PUSH1 0x20 DUP4 ADD DUP5 PUSH2 0x17E8 JUMP JUMPDEST SWAP4 SWAP3 POP POP POP JUMP INVALID LOG2 PUSH5 0x6970667358 0x22 SLT KECCAK256 DELEGATECALL 0xC PUSH17 0x2DB13D9E67F2F2A3B503EF81D8798B0276 SWAP15 0xBF 0xCC BALANCE INVALID REVERT DUP5 0xBF 0x2D RETURN MSTORE8 0xD7 PUSH5 0x736F6C6343 STOP ADDMOD 0x1E STOP CALLER "
				},
				"gasEstimates": {
					"creation": {
						"codeDepositCost": "1245600",
						"executionCost": "infinite",
						"totalCost": "infinite"
					},
					"external": {
						"assignToken(uint256)": "infinite",
						"hit()": "infinite",
						"nextGameID()": "2470",
						"oracle()": "infinite",
						"placeBets(uint256)": "infinite",
						"stand()": "infinite",
						"vault()": "infinite"
					},
					"internal": {
						"addCardToHand(uint8,uint8)": "infinite",
						"dealInitialHands(struct GameToken storage pointer)": "infinite",
						"drawCard(struct GameToken storage pointer)": "infinite",
						"endGame(struct GameToken storage pointer,enum Result,uint256)": "infinite",
						"hasBlackJack(uint8)": "39",
						"isAce(uint8)": "73",
						"shuffleDeck(struct GameToken storage pointer)": "infinite"
					}
				},
				"methodIdentifiers": {
					"assignToken(uint256)": "31a56b83",
					"hit()": "2ae3594a",
					"nextGameID()": "673ee37c",
					"oracle()": "7dc0d1d0",
					"placeBets(uint256)": "afab107e",
					"stand()": "c2897b10",
					"vault()": "fbfa77cf"
				}
			},
			"storageLayout": {
				"storage": [
					{
						"astId": 7,
						"contract": "contracts/BlackJackTable.sol:BlackJackTable",
						"label": "vault",
						"offset": 0,
						"slot": "0",
						"type": "t_contract(IVault)914"
					},
					{
						"astId": 10,
						"contract": "contracts/BlackJackTable.sol:BlackJackTable",
						"label": "oracle",
						"offset": 0,
						"slot": "1",
						"type": "t_contract(IOracle)904"
					},
					{
						"astId": 32,
						"contract": "contracts/BlackJackTable.sol:BlackJackTable",
						"label": "nextGameID",
						"offset": 0,
						"slot": "2",
						"type": "t_uint256"
					},
					{
						"astId": 45,
						"contract": "contracts/BlackJackTable.sol:BlackJackTable",
						"label": "activeGame",
						"offset": 0,
						"slot": "3",
						"type": "t_mapping(t_address,t_uint256)"
					},
					{
						"astId": 50,
						"contract": "contracts/BlackJackTable.sol:BlackJackTable",
						"label": "games",
						"offset": 0,
						"slot": "4",
						"type": "t_mapping(t_uint256,t_struct(GameToken)884_storage)"
					}
				],
				"types": {
					"t_address": {
						"encoding": "inplace",
						"label": "address",
						"numberOfBytes": "20"
					},
					"t_array(t_uint8)104_storage": {
						"base": "t_uint8",
						"encoding": "inplace",
						"label": "uint8[104]",
						"numberOfBytes": "128"
					},
					"t_bool": {
						"encoding": "inplace",
						"label": "bool",
						"numberOfBytes": "1"
					},
					"t_bytes32": {
						"encoding": "inplace",
						"label": "bytes32",
						"numberOfBytes": "32"
					},
					"t_contract(IOracle)904": {
						"encoding": "inplace",
						"label": "contract IOracle",
						"numberOfBytes": "20"
					},
					"t_contract(IVault)914": {
						"encoding": "inplace",
						"label": "contract IVault",
						"numberOfBytes": "20"
					},
					"t_enum(Result)837": {
						"encoding": "inplace",
						"label": "enum Result",
						"numberOfBytes": "1"
					},
					"t_mapping(t_address,t_uint256)": {
						"encoding": "mapping",
						"key": "t_address",
						"label": "mapping(address => uint256)",
						"numberOfBytes": "32",
						"value": "t_uint256"
					},
					"t_mapping(t_uint256,t_struct(GameToken)884_storage)": {
						"encoding": "mapping",
						"key": "t_uint256",
						"label": "mapping(uint256 => struct GameToken)",
						"numberOfBytes": "32",
						"value": "t_struct(GameToken)884_storage"
					},
					"t_struct(GameToken)884_storage": {
						"encoding": "inplace",
						"label": "struct GameToken",
						"members": [
							{
								"astId": 850,
								"contract": "contracts/BlackJackTable.sol:BlackJackTable",
								"label": "tokenID",
								"offset": 0,
								"slot": "0",
								"type": "t_uint256"
							},
							{
								"astId": 852,
								"contract": "contracts/BlackJackTable.sol:BlackJackTable",
								"label": "bet",
								"offset": 0,
								"slot": "1",
								"type": "t_uint256"
							},
							{
								"astId": 854,
								"contract": "contracts/BlackJackTable.sol:BlackJackTable",
								"label": "player",
								"offset": 0,
								"slot": "2",
								"type": "t_address"
							},
							{
								"astId": 856,
								"contract": "contracts/BlackJackTable.sol:BlackJackTable",
								"label": "playerSeed",
								"offset": 0,
								"slot": "3",
								"type": "t_uint256"
							},
							{
								"astId": 858,
								"contract": "contracts/BlackJackTable.sol:BlackJackTable",
								"label": "serverSeed",
								"offset": 0,
								"slot": "4",
								"type": "t_uint256"
							},
							{
								"astId": 860,
								"contract": "contracts/BlackJackTable.sol:BlackJackTable",
								"label": "finalSeed",
								"offset": 0,
								"slot": "5",
								"type": "t_bytes32"
							},
							{
								"astId": 862,
								"contract": "contracts/BlackJackTable.sol:BlackJackTable",
								"label": "drawIndex",
								"offset": 0,
								"slot": "6",
								"type": "t_uint8"
							},
							{
								"astId": 864,
								"contract": "contracts/BlackJackTable.sol:BlackJackTable",
								"label": "isActive",
								"offset": 1,
								"slot": "6",
								"type": "t_bool"
							},
							{
								"astId": 866,
								"contract": "contracts/BlackJackTable.sol:BlackJackTable",
								"label": "isCompleted",
								"offset": 2,
								"slot": "6",
								"type": "t_bool"
							},
							{
								"astId": 869,
								"contract": "contracts/BlackJackTable.sol:BlackJackTable",
								"label": "result",
								"offset": 3,
								"slot": "6",
								"type": "t_enum(Result)837"
							},
							{
								"astId": 873,
								"contract": "contracts/BlackJackTable.sol:BlackJackTable",
								"label": "deck",
								"offset": 0,
								"slot": "7",
								"type": "t_array(t_uint8)104_storage"
							},
							{
								"astId": 875,
								"contract": "contracts/BlackJackTable.sol:BlackJackTable",
								"label": "isShuffled",
								"offset": 0,
								"slot": "11",
								"type": "t_bool"
							},
							{
								"astId": 877,
								"contract": "contracts/BlackJackTable.sol:BlackJackTable",
								"label": "playerHandTotalValue",
								"offset": 1,
								"slot": "11",
								"type": "t_uint8"
							},
							{
								"astId": 879,
								"contract": "contracts/BlackJackTable.sol:BlackJackTable",
								"label": "playerAceCount",
								"offset": 2,
								"slot": "11",
								"type": "t_uint8"
							},
							{
								"astId": 881,
								"contract": "contracts/BlackJackTable.sol:BlackJackTable",
								"label": "dealerHandTotalValue",
								"offset": 3,
								"slot": "11",
								"type": "t_uint8"
							},
							{
								"astId": 883,
								"contract": "contracts/BlackJackTable.sol:BlackJackTable",
								"label": "dealerAceCount",
								"offset": 4,
								"slot": "11",
								"type": "t_uint8"
							}
						],
						"numberOfBytes": "384"
					},
					"t_uint256": {
						"encoding": "inplace",
						"label": "uint256",
						"numberOfBytes": "32"
					},
					"t_uint8": {
						"encoding": "inplace",
						"label": "uint8",
						"numberOfBytes": "1"
					}
				}
			},
			"userdoc": {
				"kind": "user",
				"methods": {},
				"version": 1
			}
		}
	}
}