{
	"contracts/BlackJackTable.sol": {
		"BlackJackTable": {
			"abi": [
				{
					"inputs": [
						{
							"internalType": "address",
							"name": "_vault",
							"type": "address"
						},
						{
							"internalType": "address",
							"name": "_oracle",
							"type": "address"
						}
					],
					"stateMutability": "nonpayable",
					"type": "constructor"
				},
				{
					"anonymous": false,
					"inputs": [
						{
							"indexed": false,
							"internalType": "uint256",
							"name": "tokenID",
							"type": "uint256"
						},
						{
							"indexed": false,
							"internalType": "address",
							"name": "player",
							"type": "address"
						},
						{
							"indexed": false,
							"internalType": "uint256",
							"name": "bet",
							"type": "uint256"
						},
						{
							"indexed": false,
							"internalType": "bytes32",
							"name": "finalSeed",
							"type": "bytes32"
						}
					],
					"name": "BetPlaced",
					"type": "event"
				},
				{
					"anonymous": false,
					"inputs": [
						{
							"indexed": false,
							"internalType": "address",
							"name": "player",
							"type": "address"
						},
						{
							"indexed": false,
							"internalType": "uint8",
							"name": "card",
							"type": "uint8"
						}
					],
					"name": "CardDrawn",
					"type": "event"
				},
				{
					"anonymous": false,
					"inputs": [
						{
							"indexed": false,
							"internalType": "uint256",
							"name": "tokenID",
							"type": "uint256"
						},
						{
							"indexed": false,
							"internalType": "address",
							"name": "player",
							"type": "address"
						}
					],
					"name": "GameCreated",
					"type": "event"
				},
				{
					"anonymous": false,
					"inputs": [
						{
							"indexed": false,
							"internalType": "address",
							"name": "player",
							"type": "address"
						},
						{
							"indexed": false,
							"internalType": "enum Result",
							"name": "result",
							"type": "uint8"
						}
					],
					"name": "GameEnded",
					"type": "event"
				},
				{
					"inputs": [
						{
							"internalType": "uint256",
							"name": "_playerSeed",
							"type": "uint256"
						}
					],
					"name": "assignToken",
					"outputs": [],
					"stateMutability": "nonpayable",
					"type": "function"
				},
				{
					"inputs": [],
					"name": "dealInitialHands",
					"outputs": [],
					"stateMutability": "nonpayable",
					"type": "function"
				},
				{
					"inputs": [],
					"name": "hitPlayer",
					"outputs": [],
					"stateMutability": "nonpayable",
					"type": "function"
				},
				{
					"inputs": [],
					"name": "nextGameID",
					"outputs": [
						{
							"internalType": "uint256",
							"name": "",
							"type": "uint256"
						}
					],
					"stateMutability": "view",
					"type": "function"
				},
				{
					"inputs": [],
					"name": "oracle",
					"outputs": [
						{
							"internalType": "contract IOracle",
							"name": "",
							"type": "address"
						}
					],
					"stateMutability": "view",
					"type": "function"
				},
				{
					"inputs": [
						{
							"internalType": "uint256",
							"name": "bet",
							"type": "uint256"
						}
					],
					"name": "placeBets",
					"outputs": [],
					"stateMutability": "nonpayable",
					"type": "function"
				},
				{
					"inputs": [],
					"name": "stand",
					"outputs": [],
					"stateMutability": "nonpayable",
					"type": "function"
				},
				{
					"inputs": [],
					"name": "vault",
					"outputs": [
						{
							"internalType": "contract IVault",
							"name": "",
							"type": "address"
						}
					],
					"stateMutability": "view",
					"type": "function"
				}
			],
			"devdoc": {
				"kind": "dev",
				"methods": {},
				"version": 1
			},
			"evm": {
				"assembly": "    /* \"contracts/BlackJackTable.sol\":196:8689  contract BlackJackTable {... */\n  mstore(0x40, 0x80)\n    /* \"contracts/BlackJackTable.sol\":547:548  1 */\n  0x01\n    /* \"contracts/BlackJackTable.sol\":519:548  uint256 public nextGameID = 1 */\n  0x02\n  sstore\n    /* \"contracts/BlackJackTable.sol\":345:467  constructor(address _vault, address _oracle) {... */\n  callvalue\n  dup1\n  iszero\n  tag_1\n  jumpi\n  revert(0x00, 0x00)\ntag_1:\n  pop\n  mload(0x40)\n  sub(codesize, bytecodeSize)\n  dup1\n  bytecodeSize\n  dup4\n  codecopy\n  dup2\n  dup2\n  add\n  0x40\n  mstore\n  dup2\n  add\n  swap1\n  tag_2\n  swap2\n  swap1\n  tag_3\n  jump\t// in\ntag_2:\n    /* \"contracts/BlackJackTable.sol\":416:422  _vault */\n  dup2\n    /* \"contracts/BlackJackTable.sol\":401:406  vault */\n  0x00\n  0x00\n    /* \"contracts/BlackJackTable.sol\":401:423  vault = IVault(_vault) */\n  0x0100\n  exp\n  dup2\n  sload\n  dup2\n  0xffffffffffffffffffffffffffffffffffffffff\n  mul\n  not\n  and\n  swap1\n  dup4\n  0xffffffffffffffffffffffffffffffffffffffff\n  and\n  mul\n  or\n  swap1\n  sstore\n  pop\n    /* \"contracts/BlackJackTable.sol\":451:458  _oracle */\n  dup1\n    /* \"contracts/BlackJackTable.sol\":434:440  oracle */\n  0x01\n  0x00\n    /* \"contracts/BlackJackTable.sol\":434:459  oracle = IOracle(_oracle) */\n  0x0100\n  exp\n  dup2\n  sload\n  dup2\n  0xffffffffffffffffffffffffffffffffffffffff\n  mul\n  not\n  and\n  swap1\n  dup4\n  0xffffffffffffffffffffffffffffffffffffffff\n  and\n  mul\n  or\n  swap1\n  sstore\n  pop\n    /* \"contracts/BlackJackTable.sol\":345:467  constructor(address _vault, address _oracle) {... */\n  pop\n  pop\n    /* \"contracts/BlackJackTable.sol\":196:8689  contract BlackJackTable {... */\n  jump(tag_6)\n    /* \"#utility.yul\":88:205   */\ntag_8:\n    /* \"#utility.yul\":197:198   */\n  0x00\n    /* \"#utility.yul\":194:195   */\n  0x00\n    /* \"#utility.yul\":187:199   */\n  revert\n    /* \"#utility.yul\":334:460   */\ntag_10:\n    /* \"#utility.yul\":371:378   */\n  0x00\n    /* \"#utility.yul\":411:453   */\n  0xffffffffffffffffffffffffffffffffffffffff\n    /* \"#utility.yul\":404:409   */\n  dup3\n    /* \"#utility.yul\":400:454   */\n  and\n    /* \"#utility.yul\":389:454   */\n  swap1\n  pop\n    /* \"#utility.yul\":334:460   */\n  swap2\n  swap1\n  pop\n  jump\t// out\n    /* \"#utility.yul\":466:562   */\ntag_11:\n    /* \"#utility.yul\":503:510   */\n  0x00\n    /* \"#utility.yul\":532:556   */\n  tag_20\n    /* \"#utility.yul\":550:555   */\n  dup3\n    /* \"#utility.yul\":532:556   */\n  tag_10\n  jump\t// in\ntag_20:\n    /* \"#utility.yul\":521:556   */\n  swap1\n  pop\n    /* \"#utility.yul\":466:562   */\n  swap2\n  swap1\n  pop\n  jump\t// out\n    /* \"#utility.yul\":568:690   */\ntag_12:\n    /* \"#utility.yul\":641:665   */\n  tag_22\n    /* \"#utility.yul\":659:664   */\n  dup2\n    /* \"#utility.yul\":641:665   */\n  tag_11\n  jump\t// in\ntag_22:\n    /* \"#utility.yul\":634:639   */\n  dup2\n    /* \"#utility.yul\":631:666   */\n  eq\n    /* \"#utility.yul\":621:684   */\n  tag_23\n  jumpi\n    /* \"#utility.yul\":680:681   */\n  0x00\n    /* \"#utility.yul\":677:678   */\n  0x00\n    /* \"#utility.yul\":670:682   */\n  revert\n    /* \"#utility.yul\":621:684   */\ntag_23:\n    /* \"#utility.yul\":568:690   */\n  pop\n  jump\t// out\n    /* \"#utility.yul\":696:839   */\ntag_13:\n    /* \"#utility.yul\":753:758   */\n  0x00\n    /* \"#utility.yul\":784:790   */\n  dup2\n    /* \"#utility.yul\":778:791   */\n  mload\n    /* \"#utility.yul\":769:791   */\n  swap1\n  pop\n    /* \"#utility.yul\":800:833   */\n  tag_25\n    /* \"#utility.yul\":827:832   */\n  dup2\n    /* \"#utility.yul\":800:833   */\n  tag_12\n  jump\t// in\ntag_25:\n    /* \"#utility.yul\":696:839   */\n  swap3\n  swap2\n  pop\n  pop\n  jump\t// out\n    /* \"#utility.yul\":845:1352   */\ntag_3:\n    /* \"#utility.yul\":924:930   */\n  0x00\n    /* \"#utility.yul\":932:938   */\n  0x00\n    /* \"#utility.yul\":981:983   */\n  0x40\n    /* \"#utility.yul\":969:978   */\n  dup4\n    /* \"#utility.yul\":960:967   */\n  dup6\n    /* \"#utility.yul\":956:979   */\n  sub\n    /* \"#utility.yul\":952:984   */\n  slt\n    /* \"#utility.yul\":949:1068   */\n  iszero\n  tag_27\n  jumpi\n    /* \"#utility.yul\":987:1066   */\n  tag_28\n  tag_8\n  jump\t// in\ntag_28:\n    /* \"#utility.yul\":949:1068   */\ntag_27:\n    /* \"#utility.yul\":1107:1108   */\n  0x00\n    /* \"#utility.yul\":1132:1196   */\n  tag_29\n    /* \"#utility.yul\":1188:1195   */\n  dup6\n    /* \"#utility.yul\":1179:1185   */\n  dup3\n    /* \"#utility.yul\":1168:1177   */\n  dup7\n    /* \"#utility.yul\":1164:1186   */\n  add\n    /* \"#utility.yul\":1132:1196   */\n  tag_13\n  jump\t// in\ntag_29:\n    /* \"#utility.yul\":1122:1196   */\n  swap3\n  pop\n    /* \"#utility.yul\":1078:1206   */\n  pop\n    /* \"#utility.yul\":1245:1247   */\n  0x20\n    /* \"#utility.yul\":1271:1335   */\n  tag_30\n    /* \"#utility.yul\":1327:1334   */\n  dup6\n    /* \"#utility.yul\":1318:1324   */\n  dup3\n    /* \"#utility.yul\":1307:1316   */\n  dup7\n    /* \"#utility.yul\":1303:1325   */\n  add\n    /* \"#utility.yul\":1271:1335   */\n  tag_13\n  jump\t// in\ntag_30:\n    /* \"#utility.yul\":1261:1335   */\n  swap2\n  pop\n    /* \"#utility.yul\":1216:1345   */\n  pop\n    /* \"#utility.yul\":845:1352   */\n  swap3\n  pop\n  swap3\n  swap1\n  pop\n  jump\t// out\n    /* \"contracts/BlackJackTable.sol\":196:8689  contract BlackJackTable {... */\ntag_6:\n  dataSize(sub_0)\n  dup1\n  dataOffset(sub_0)\n  0x00\n  codecopy\n  0x00\n  return\nstop\n\nsub_0: assembly {\n        /* \"contracts/BlackJackTable.sol\":196:8689  contract BlackJackTable {... */\n      mstore(0x40, 0x80)\n      callvalue\n      dup1\n      iszero\n      tag_1\n      jumpi\n      revert(0x00, 0x00)\n    tag_1:\n      pop\n      jumpi(tag_2, lt(calldatasize, 0x04))\n      shr(0xe0, calldataload(0x00))\n      dup1\n      0xafab107e\n      gt\n      tag_11\n      jumpi\n      dup1\n      0xafab107e\n      eq\n      tag_7\n      jumpi\n      dup1\n      0xc2897b10\n      eq\n      tag_8\n      jumpi\n      dup1\n      0xdae10ed5\n      eq\n      tag_9\n      jumpi\n      dup1\n      0xfbfa77cf\n      eq\n      tag_10\n      jumpi\n      jump(tag_2)\n    tag_11:\n      dup1\n      0x31a56b83\n      eq\n      tag_3\n      jumpi\n      dup1\n      0x566595b2\n      eq\n      tag_4\n      jumpi\n      dup1\n      0x673ee37c\n      eq\n      tag_5\n      jumpi\n      dup1\n      0x7dc0d1d0\n      eq\n      tag_6\n      jumpi\n    tag_2:\n      revert(0x00, 0x00)\n        /* \"contracts/BlackJackTable.sol\":1225:1916  function assignToken(uint256 _playerSeed) external {... */\n    tag_3:\n      tag_12\n      0x04\n      dup1\n      calldatasize\n      sub\n      dup2\n      add\n      swap1\n      tag_13\n      swap2\n      swap1\n      tag_14\n      jump\t// in\n    tag_13:\n      tag_15\n      jump\t// in\n    tag_12:\n      stop\n        /* \"contracts/BlackJackTable.sol\":4788:5163  function dealInitialHands() external {... */\n    tag_4:\n      tag_16\n      tag_17\n      jump\t// in\n    tag_16:\n      stop\n        /* \"contracts/BlackJackTable.sol\":519:548  uint256 public nextGameID = 1 */\n    tag_5:\n      tag_18\n      tag_19\n      jump\t// in\n    tag_18:\n      mload(0x40)\n      tag_20\n      swap2\n      swap1\n      tag_21\n      jump\t// in\n    tag_20:\n      mload(0x40)\n      dup1\n      swap2\n      sub\n      swap1\n      return\n        /* \"contracts/BlackJackTable.sol\":315:336  IOracle public oracle */\n    tag_6:\n      tag_22\n      tag_23\n      jump\t// in\n    tag_22:\n      mload(0x40)\n      tag_24\n      swap2\n      swap1\n      tag_25\n      jump\t// in\n    tag_24:\n      mload(0x40)\n      dup1\n      swap2\n      sub\n      swap1\n      return\n        /* \"contracts/BlackJackTable.sol\":1924:2772  function placeBets(uint256 bet) external {... */\n    tag_7:\n      tag_26\n      0x04\n      dup1\n      calldatasize\n      sub\n      dup2\n      add\n      swap1\n      tag_27\n      swap2\n      swap1\n      tag_14\n      jump\t// in\n    tag_27:\n      tag_28\n      jump\t// in\n    tag_26:\n      stop\n        /* \"contracts/BlackJackTable.sol\":7806:8242  function stand() external {... */\n    tag_8:\n      tag_29\n      tag_30\n      jump\t// in\n    tag_29:\n      stop\n        /* \"contracts/BlackJackTable.sol\":6768:7276  function hitPlayer() external {... */\n    tag_9:\n      tag_31\n      tag_32\n      jump\t// in\n    tag_31:\n      stop\n        /* \"contracts/BlackJackTable.sol\":289:308  IVault public vault */\n    tag_10:\n      tag_33\n      tag_34\n      jump\t// in\n    tag_33:\n      mload(0x40)\n      tag_35\n      swap2\n      swap1\n      tag_36\n      jump\t// in\n    tag_35:\n      mload(0x40)\n      dup1\n      swap2\n      sub\n      swap1\n      return\n        /* \"contracts/BlackJackTable.sol\":1225:1916  function assignToken(uint256 _playerSeed) external {... */\n    tag_15:\n        /* \"contracts/BlackJackTable.sol\":1321:1322  0 */\n      0x00\n        /* \"contracts/BlackJackTable.sol\":1295:1305  activeGame */\n      0x03\n        /* \"contracts/BlackJackTable.sol\":1295:1317  activeGame[msg.sender] */\n      0x00\n        /* \"contracts/BlackJackTable.sol\":1306:1316  msg.sender */\n      caller\n        /* \"contracts/BlackJackTable.sol\":1295:1317  activeGame[msg.sender] */\n      0xffffffffffffffffffffffffffffffffffffffff\n      and\n      0xffffffffffffffffffffffffffffffffffffffff\n      and\n      dup2\n      mstore\n      0x20\n      add\n      swap1\n      dup2\n      mstore\n      0x20\n      add\n      0x00\n      keccak256\n      sload\n        /* \"contracts/BlackJackTable.sol\":1295:1322  activeGame[msg.sender] == 0 */\n      eq\n        /* \"contracts/BlackJackTable.sol\":1287:1351  require(activeGame[msg.sender] == 0, \"Game already in progress\") */\n      tag_38\n      jumpi\n      mload(0x40)\n      0x08c379a000000000000000000000000000000000000000000000000000000000\n      dup2\n      mstore\n      0x04\n      add\n      tag_39\n      swap1\n      tag_40\n      jump\t// in\n    tag_39:\n      mload(0x40)\n      dup1\n      swap2\n      sub\n      swap1\n      revert\n    tag_38:\n        /* \"contracts/BlackJackTable.sol\":1362:1376  uint256 gameID */\n      0x00\n        /* \"contracts/BlackJackTable.sol\":1379:1389  nextGameID */\n      0x02\n      0x00\n        /* \"contracts/BlackJackTable.sol\":1379:1391  nextGameID++ */\n      dup2\n      sload\n      dup1\n      swap3\n      swap2\n      swap1\n      tag_41\n      swap1\n      tag_42\n      jump\t// in\n    tag_41:\n      swap2\n      swap1\n      pop\n      sstore\n        /* \"contracts/BlackJackTable.sol\":1362:1391  uint256 gameID = nextGameID++ */\n      swap1\n      pop\n        /* \"contracts/BlackJackTable.sol\":1427:1433  gameID */\n      dup1\n        /* \"contracts/BlackJackTable.sol\":1402:1412  activeGame */\n      0x03\n        /* \"contracts/BlackJackTable.sol\":1402:1424  activeGame[msg.sender] */\n      0x00\n        /* \"contracts/BlackJackTable.sol\":1413:1423  msg.sender */\n      caller\n        /* \"contracts/BlackJackTable.sol\":1402:1424  activeGame[msg.sender] */\n      0xffffffffffffffffffffffffffffffffffffffff\n      and\n      0xffffffffffffffffffffffffffffffffffffffff\n      and\n      dup2\n      mstore\n      0x20\n      add\n      swap1\n      dup2\n      mstore\n      0x20\n      add\n      0x00\n      keccak256\n        /* \"contracts/BlackJackTable.sol\":1402:1433  activeGame[msg.sender] = gameID */\n      dup2\n      swap1\n      sstore\n      pop\n        /* \"contracts/BlackJackTable.sol\":1446:1469  GameToken storage token */\n      0x00\n        /* \"contracts/BlackJackTable.sol\":1472:1477  games */\n      0x04\n        /* \"contracts/BlackJackTable.sol\":1472:1485  games[gameID] */\n      0x00\n        /* \"contracts/BlackJackTable.sol\":1478:1484  gameID */\n      dup4\n        /* \"contracts/BlackJackTable.sol\":1472:1485  games[gameID] */\n      dup2\n      mstore\n      0x20\n      add\n      swap1\n      dup2\n      mstore\n      0x20\n      add\n      0x00\n      keccak256\n        /* \"contracts/BlackJackTable.sol\":1446:1485  GameToken storage token = games[gameID] */\n      swap1\n      pop\n        /* \"contracts/BlackJackTable.sol\":1560:1566  gameID */\n      dup2\n        /* \"contracts/BlackJackTable.sol\":1544:1549  token */\n      dup2\n        /* \"contracts/BlackJackTable.sol\":1544:1557  token.tokenID */\n      0x00\n      add\n        /* \"contracts/BlackJackTable.sol\":1544:1566  token.tokenID = gameID */\n      dup2\n      swap1\n      sstore\n      pop\n        /* \"contracts/BlackJackTable.sol\":1592:1602  msg.sender */\n      caller\n        /* \"contracts/BlackJackTable.sol\":1577:1582  token */\n      dup2\n        /* \"contracts/BlackJackTable.sol\":1577:1589  token.player */\n      0x02\n      add\n      0x00\n        /* \"contracts/BlackJackTable.sol\":1577:1602  token.player = msg.sender */\n      0x0100\n      exp\n      dup2\n      sload\n      dup2\n      0xffffffffffffffffffffffffffffffffffffffff\n      mul\n      not\n      and\n      swap1\n      dup4\n      0xffffffffffffffffffffffffffffffffffffffff\n      and\n      mul\n      or\n      swap1\n      sstore\n      pop\n        /* \"contracts/BlackJackTable.sol\":1632:1643  _playerSeed */\n      dup3\n        /* \"contracts/BlackJackTable.sol\":1613:1618  token */\n      dup2\n        /* \"contracts/BlackJackTable.sol\":1613:1629  token.playerSeed */\n      0x03\n      add\n        /* \"contracts/BlackJackTable.sol\":1613:1643  token.playerSeed = _playerSeed */\n      dup2\n      swap1\n      sstore\n      pop\n        /* \"contracts/BlackJackTable.sol\":1672:1673  0 */\n      0x00\n        /* \"contracts/BlackJackTable.sol\":1654:1659  token */\n      dup2\n        /* \"contracts/BlackJackTable.sol\":1654:1669  token.drawIndex */\n      0x06\n      add\n      0x00\n        /* \"contracts/BlackJackTable.sol\":1654:1673  token.drawIndex = 0 */\n      0x0100\n      exp\n      dup2\n      sload\n      dup2\n      0xff\n      mul\n      not\n      and\n      swap1\n      dup4\n      0xff\n      and\n      mul\n      or\n      swap1\n      sstore\n      pop\n        /* \"contracts/BlackJackTable.sol\":1703:1708  false */\n      0x00\n        /* \"contracts/BlackJackTable.sol\":1684:1689  token */\n      dup2\n        /* \"contracts/BlackJackTable.sol\":1684:1700  token.isShuffled */\n      0x0b\n      add\n      0x00\n        /* \"contracts/BlackJackTable.sol\":1684:1708  token.isShuffled = false */\n      0x0100\n      exp\n      dup2\n      sload\n      dup2\n      0xff\n      mul\n      not\n      and\n      swap1\n      dup4\n      iszero\n      iszero\n      mul\n      or\n      swap1\n      sstore\n      pop\n        /* \"contracts/BlackJackTable.sol\":1737:1746  State.BET */\n      0x01\n        /* \"contracts/BlackJackTable.sol\":1719:1724  token */\n      dup2\n        /* \"contracts/BlackJackTable.sol\":1719:1734  token.gameState */\n      0x06\n      add\n      0x01\n        /* \"contracts/BlackJackTable.sol\":1719:1746  token.gameState = State.BET */\n      0x0100\n      exp\n      dup2\n      sload\n      dup2\n      0xff\n      mul\n      not\n      and\n      swap1\n      dup4\n      0x04\n      dup2\n      gt\n      iszero\n      tag_43\n      jumpi\n      tag_44\n      tag_45\n      jump\t// in\n    tag_44:\n    tag_43:\n      mul\n      or\n      swap1\n      sstore\n      pop\n        /* \"contracts/BlackJackTable.sol\":1786:1787  0 */\n      0x00\n        /* \"contracts/BlackJackTable.sol\":1757:1762  token */\n      dup2\n        /* \"contracts/BlackJackTable.sol\":1757:1783  token.playerHandTotalValue */\n      0x0b\n      add\n      0x01\n        /* \"contracts/BlackJackTable.sol\":1757:1787  token.playerHandTotalValue = 0 */\n      0x0100\n      exp\n      dup2\n      sload\n      dup2\n      0xff\n      mul\n      not\n      and\n      swap1\n      dup4\n      0xff\n      and\n      mul\n      or\n      swap1\n      sstore\n      pop\n        /* \"contracts/BlackJackTable.sol\":1827:1828  0 */\n      0x00\n        /* \"contracts/BlackJackTable.sol\":1798:1803  token */\n      dup2\n        /* \"contracts/BlackJackTable.sol\":1798:1824  token.dealerHandTotalValue */\n      0x0b\n      add\n      0x02\n        /* \"contracts/BlackJackTable.sol\":1798:1828  token.dealerHandTotalValue = 0 */\n      0x0100\n      exp\n      dup2\n      sload\n      dup2\n      0xff\n      mul\n      not\n      and\n      swap1\n      dup4\n      0xff\n      and\n      mul\n      or\n      swap1\n      sstore\n      pop\n        /* \"contracts/BlackJackTable.sol\":1851:1852  0 */\n      0x00\n        /* \"contracts/BlackJackTable.sol\":1839:1844  token */\n      dup2\n        /* \"contracts/BlackJackTable.sol\":1839:1848  token.bet */\n      0x01\n      add\n        /* \"contracts/BlackJackTable.sol\":1839:1852  token.bet = 0 */\n      dup2\n      swap1\n      sstore\n      pop\n        /* \"contracts/BlackJackTable.sol\":1870:1908  GameCreated(token.tokenID, msg.sender) */\n      0xc3e0f84839dc888c892a013d10c8f9d6dc05a21a879d0ce468ca558013e9121c\n        /* \"contracts/BlackJackTable.sol\":1882:1887  token */\n      dup2\n        /* \"contracts/BlackJackTable.sol\":1882:1895  token.tokenID */\n      0x00\n      add\n      sload\n        /* \"contracts/BlackJackTable.sol\":1897:1907  msg.sender */\n      caller\n        /* \"contracts/BlackJackTable.sol\":1870:1908  GameCreated(token.tokenID, msg.sender) */\n      mload(0x40)\n      tag_46\n      swap3\n      swap2\n      swap1\n      tag_47\n      jump\t// in\n    tag_46:\n      mload(0x40)\n      dup1\n      swap2\n      sub\n      swap1\n      log1\n        /* \"contracts/BlackJackTable.sol\":1276:1916  {... */\n      pop\n      pop\n        /* \"contracts/BlackJackTable.sol\":1225:1916  function assignToken(uint256 _playerSeed) external {... */\n      pop\n      jump\t// out\n        /* \"contracts/BlackJackTable.sol\":4788:5163  function dealInitialHands() external {... */\n    tag_17:\n        /* \"contracts/BlackJackTable.sol\":4836:4850  uint256 gameID */\n      0x00\n        /* \"contracts/BlackJackTable.sol\":4853:4863  activeGame */\n      0x03\n        /* \"contracts/BlackJackTable.sol\":4853:4875  activeGame[msg.sender] */\n      0x00\n        /* \"contracts/BlackJackTable.sol\":4864:4874  msg.sender */\n      caller\n        /* \"contracts/BlackJackTable.sol\":4853:4875  activeGame[msg.sender] */\n      0xffffffffffffffffffffffffffffffffffffffff\n      and\n      0xffffffffffffffffffffffffffffffffffffffff\n      and\n      dup2\n      mstore\n      0x20\n      add\n      swap1\n      dup2\n      mstore\n      0x20\n      add\n      0x00\n      keccak256\n      sload\n        /* \"contracts/BlackJackTable.sol\":4836:4875  uint256 gameID = activeGame[msg.sender] */\n      swap1\n      pop\n        /* \"contracts/BlackJackTable.sol\":4886:4909  GameToken storage token */\n      0x00\n        /* \"contracts/BlackJackTable.sol\":4912:4917  games */\n      0x04\n        /* \"contracts/BlackJackTable.sol\":4912:4925  games[gameID] */\n      0x00\n        /* \"contracts/BlackJackTable.sol\":4918:4924  gameID */\n      dup4\n        /* \"contracts/BlackJackTable.sol\":4912:4925  games[gameID] */\n      dup2\n      mstore\n      0x20\n      add\n      swap1\n      dup2\n      mstore\n      0x20\n      add\n      0x00\n      keccak256\n        /* \"contracts/BlackJackTable.sol\":4886:4925  GameToken storage token = games[gameID] */\n      swap1\n      pop\n        /* \"contracts/BlackJackTable.sol\":4944:4949  token */\n      dup1\n        /* \"contracts/BlackJackTable.sol\":4944:4960  token.isShuffled */\n      0x0b\n      add\n      0x00\n      swap1\n      sload\n      swap1\n      0x0100\n      exp\n      swap1\n      div\n      0xff\n      and\n        /* \"contracts/BlackJackTable.sol\":4936:4991  require(token.isShuffled, \"Deck has not been shuffled\") */\n      tag_49\n      jumpi\n      mload(0x40)\n      0x08c379a000000000000000000000000000000000000000000000000000000000\n      dup2\n      mstore\n      0x04\n      add\n      tag_50\n      swap1\n      tag_51\n      jump\t// in\n    tag_50:\n      mload(0x40)\n      dup1\n      swap2\n      sub\n      swap1\n      revert\n    tag_49:\n        /* \"contracts/BlackJackTable.sol\":5043:5060  State.DEALER_TURN */\n      0x02\n        /* \"contracts/BlackJackTable.sol\":5024:5060  token.gameState == State.DEALER_TURN */\n      0x04\n      dup2\n      gt\n      iszero\n      tag_52\n      jumpi\n      tag_53\n      tag_45\n      jump\t// in\n    tag_53:\n    tag_52:\n        /* \"contracts/BlackJackTable.sol\":5024:5029  token */\n      dup2\n        /* \"contracts/BlackJackTable.sol\":5024:5039  token.gameState */\n      0x06\n      add\n      0x01\n      swap1\n      sload\n      swap1\n      0x0100\n      exp\n      swap1\n      div\n      0xff\n      and\n        /* \"contracts/BlackJackTable.sol\":5024:5060  token.gameState == State.DEALER_TURN */\n      0x04\n      dup2\n      gt\n      iszero\n      tag_54\n      jumpi\n      tag_55\n      tag_45\n      jump\t// in\n    tag_55:\n    tag_54:\n      eq\n        /* \"contracts/BlackJackTable.sol\":5002:5118  require(... */\n      tag_56\n      jumpi\n      mload(0x40)\n      0x08c379a000000000000000000000000000000000000000000000000000000000\n      dup2\n      mstore\n      0x04\n      add\n      tag_57\n      swap1\n      tag_58\n      jump\t// in\n    tag_57:\n      mload(0x40)\n      dup1\n      swap2\n      sub\n      swap1\n      revert\n    tag_56:\n        /* \"contracts/BlackJackTable.sol\":5131:5155  _dealInitialHands(token) */\n      tag_59\n        /* \"contracts/BlackJackTable.sol\":5149:5154  token */\n      dup2\n        /* \"contracts/BlackJackTable.sol\":5131:5148  _dealInitialHands */\n      tag_60\n        /* \"contracts/BlackJackTable.sol\":5131:5155  _dealInitialHands(token) */\n      jump\t// in\n    tag_59:\n        /* \"contracts/BlackJackTable.sol\":4825:5163  {... */\n      pop\n      pop\n        /* \"contracts/BlackJackTable.sol\":4788:5163  function dealInitialHands() external {... */\n      jump\t// out\n        /* \"contracts/BlackJackTable.sol\":519:548  uint256 public nextGameID = 1 */\n    tag_19:\n      sload(0x02)\n      dup2\n      jump\t// out\n        /* \"contracts/BlackJackTable.sol\":315:336  IOracle public oracle */\n    tag_23:\n      0x01\n      0x00\n      swap1\n      sload\n      swap1\n      0x0100\n      exp\n      swap1\n      div\n      0xffffffffffffffffffffffffffffffffffffffff\n      and\n      dup2\n      jump\t// out\n        /* \"contracts/BlackJackTable.sol\":1924:2772  function placeBets(uint256 bet) external {... */\n    tag_28:\n        /* \"contracts/BlackJackTable.sol\":598:606  100 gwei */\n      0x174876e800\n        /* \"contracts/BlackJackTable.sol\":1984:1987  bet */\n      dup2\n        /* \"contracts/BlackJackTable.sol\":1984:1999  bet >= lowLimit */\n      lt\n      iszero\n        /* \"contracts/BlackJackTable.sol\":1984:2019  bet >= lowLimit && bet <= highLimit */\n      dup1\n      iszero\n      tag_62\n      jumpi\n      pop\n        /* \"contracts/BlackJackTable.sol\":661:672  0.001 ether */\n      0x038d7ea4c68000\n        /* \"contracts/BlackJackTable.sol\":2003:2006  bet */\n      dup2\n        /* \"contracts/BlackJackTable.sol\":2003:2019  bet <= highLimit */\n      gt\n      iszero\n        /* \"contracts/BlackJackTable.sol\":1984:2019  bet >= lowLimit && bet <= highLimit */\n    tag_62:\n        /* \"contracts/BlackJackTable.sol\":1976:2041  require(bet >= lowLimit && bet <= highLimit, \"Bet out of range.\") */\n      tag_63\n      jumpi\n      mload(0x40)\n      0x08c379a000000000000000000000000000000000000000000000000000000000\n      dup2\n      mstore\n      0x04\n      add\n      tag_64\n      swap1\n      tag_65\n      jump\t// in\n    tag_64:\n      mload(0x40)\n      dup1\n      swap2\n      sub\n      swap1\n      revert\n    tag_63:\n        /* \"contracts/BlackJackTable.sol\":2088:2089  0 */\n      0x00\n        /* \"contracts/BlackJackTable.sol\":2062:2072  activeGame */\n      0x03\n        /* \"contracts/BlackJackTable.sol\":2062:2084  activeGame[msg.sender] */\n      0x00\n        /* \"contracts/BlackJackTable.sol\":2073:2083  msg.sender */\n      caller\n        /* \"contracts/BlackJackTable.sol\":2062:2084  activeGame[msg.sender] */\n      0xffffffffffffffffffffffffffffffffffffffff\n      and\n      0xffffffffffffffffffffffffffffffffffffffff\n      and\n      dup2\n      mstore\n      0x20\n      add\n      swap1\n      dup2\n      mstore\n      0x20\n      add\n      0x00\n      keccak256\n      sload\n        /* \"contracts/BlackJackTable.sol\":2062:2089  activeGame[msg.sender] != 0 */\n      sub\n        /* \"contracts/BlackJackTable.sol\":2054:2118  require(activeGame[msg.sender] != 0, \"No active game currently\") */\n      tag_66\n      jumpi\n      mload(0x40)\n      0x08c379a000000000000000000000000000000000000000000000000000000000\n      dup2\n      mstore\n      0x04\n      add\n      tag_67\n      swap1\n      tag_68\n      jump\t// in\n    tag_67:\n      mload(0x40)\n      dup1\n      swap2\n      sub\n      swap1\n      revert\n    tag_66:\n        /* \"contracts/BlackJackTable.sol\":2131:2145  uint256 gameID */\n      0x00\n        /* \"contracts/BlackJackTable.sol\":2148:2158  activeGame */\n      0x03\n        /* \"contracts/BlackJackTable.sol\":2148:2170  activeGame[msg.sender] */\n      0x00\n        /* \"contracts/BlackJackTable.sol\":2159:2169  msg.sender */\n      caller\n        /* \"contracts/BlackJackTable.sol\":2148:2170  activeGame[msg.sender] */\n      0xffffffffffffffffffffffffffffffffffffffff\n      and\n      0xffffffffffffffffffffffffffffffffffffffff\n      and\n      dup2\n      mstore\n      0x20\n      add\n      swap1\n      dup2\n      mstore\n      0x20\n      add\n      0x00\n      keccak256\n      sload\n        /* \"contracts/BlackJackTable.sol\":2131:2170  uint256 gameID = activeGame[msg.sender] */\n      swap1\n      pop\n        /* \"contracts/BlackJackTable.sol\":2181:2204  GameToken storage token */\n      0x00\n        /* \"contracts/BlackJackTable.sol\":2207:2212  games */\n      0x04\n        /* \"contracts/BlackJackTable.sol\":2207:2220  games[gameID] */\n      0x00\n        /* \"contracts/BlackJackTable.sol\":2213:2219  gameID */\n      dup4\n        /* \"contracts/BlackJackTable.sol\":2207:2220  games[gameID] */\n      dup2\n      mstore\n      0x20\n      add\n      swap1\n      dup2\n      mstore\n      0x20\n      add\n      0x00\n      keccak256\n        /* \"contracts/BlackJackTable.sol\":2181:2220  GameToken storage token = games[gameID] */\n      swap1\n      pop\n        /* \"contracts/BlackJackTable.sol\":2254:2255  0 */\n      0x00\n        /* \"contracts/BlackJackTable.sol\":2241:2246  token */\n      dup2\n        /* \"contracts/BlackJackTable.sol\":2241:2250  token.bet */\n      0x01\n      add\n      sload\n        /* \"contracts/BlackJackTable.sol\":2241:2255  token.bet == 0 */\n      eq\n        /* \"contracts/BlackJackTable.sol\":2233:2278  require(token.bet == 0, \"Bet already placed\") */\n      tag_69\n      jumpi\n      mload(0x40)\n      0x08c379a000000000000000000000000000000000000000000000000000000000\n      dup2\n      mstore\n      0x04\n      add\n      tag_70\n      swap1\n      tag_71\n      jump\t// in\n    tag_70:\n      mload(0x40)\n      dup1\n      swap2\n      sub\n      swap1\n      revert\n    tag_69:\n        /* \"contracts/BlackJackTable.sol\":2338:2347  State.BET */\n      0x01\n        /* \"contracts/BlackJackTable.sol\":2319:2347  token.gameState == State.BET */\n      0x04\n      dup2\n      gt\n      iszero\n      tag_72\n      jumpi\n      tag_73\n      tag_45\n      jump\t// in\n    tag_73:\n    tag_72:\n        /* \"contracts/BlackJackTable.sol\":2319:2324  token */\n      dup2\n        /* \"contracts/BlackJackTable.sol\":2319:2334  token.gameState */\n      0x06\n      add\n      0x01\n      swap1\n      sload\n      swap1\n      0x0100\n      exp\n      swap1\n      div\n      0xff\n      and\n        /* \"contracts/BlackJackTable.sol\":2319:2347  token.gameState == State.BET */\n      0x04\n      dup2\n      gt\n      iszero\n      tag_74\n      jumpi\n      tag_75\n      tag_45\n      jump\t// in\n    tag_75:\n    tag_74:\n      eq\n        /* \"contracts/BlackJackTable.sol\":2311:2379  require(token.gameState == State.BET, \"Token has not been assigned\") */\n      tag_76\n      jumpi\n      mload(0x40)\n      0x08c379a000000000000000000000000000000000000000000000000000000000\n      dup2\n      mstore\n      0x04\n      add\n      tag_77\n      swap1\n      tag_78\n      jump\t// in\n    tag_77:\n      mload(0x40)\n      dup1\n      swap2\n      sub\n      swap1\n      revert\n    tag_76:\n        /* \"contracts/BlackJackTable.sol\":2390:2395  vault */\n      0x00\n      0x00\n      swap1\n      sload\n      swap1\n      0x0100\n      exp\n      swap1\n      div\n      0xffffffffffffffffffffffffffffffffffffffff\n      and\n        /* \"contracts/BlackJackTable.sol\":2390:2403  vault.lockBet */\n      0xffffffffffffffffffffffffffffffffffffffff\n      and\n      0xef899ee5\n        /* \"contracts/BlackJackTable.sol\":2404:2414  msg.sender */\n      caller\n        /* \"contracts/BlackJackTable.sol\":2416:2419  bet */\n      dup6\n        /* \"contracts/BlackJackTable.sol\":2390:2420  vault.lockBet(msg.sender, bet) */\n      mload(0x40)\n      dup4\n      0xffffffff\n      and\n      0xe0\n      shl\n      dup2\n      mstore\n      0x04\n      add\n      tag_79\n      swap3\n      swap2\n      swap1\n      tag_80\n      jump\t// in\n    tag_79:\n      0x00\n      mload(0x40)\n      dup1\n      dup4\n      sub\n      dup2\n      0x00\n      dup8\n      dup1\n      extcodesize\n      iszero\n      dup1\n      iszero\n      tag_81\n      jumpi\n      revert(0x00, 0x00)\n    tag_81:\n      pop\n      gas\n      call\n      iszero\n      dup1\n      iszero\n      tag_83\n      jumpi\n      returndatacopy(0x00, 0x00, returndatasize)\n      revert(0x00, returndatasize)\n    tag_83:\n      pop\n      pop\n      pop\n      pop\n        /* \"contracts/BlackJackTable.sol\":2443:2446  bet */\n      dup3\n        /* \"contracts/BlackJackTable.sol\":2431:2436  token */\n      dup2\n        /* \"contracts/BlackJackTable.sol\":2431:2440  token.bet */\n      0x01\n      add\n        /* \"contracts/BlackJackTable.sol\":2431:2446  token.bet = bet */\n      dup2\n      swap1\n      sstore\n      pop\n        /* \"contracts/BlackJackTable.sol\":2477:2483  oracle */\n      0x01\n      0x00\n      swap1\n      sload\n      swap1\n      0x0100\n      exp\n      swap1\n      div\n      0xffffffffffffffffffffffffffffffffffffffff\n      and\n        /* \"contracts/BlackJackTable.sol\":2477:2496  oracle.generateSeed */\n      0xffffffffffffffffffffffffffffffffffffffff\n      and\n      0x041df082\n        /* \"contracts/BlackJackTable.sol\":2511:2516  token */\n      dup3\n        /* \"contracts/BlackJackTable.sol\":2511:2527  token.serverSeed */\n      0x04\n      add\n      sload\n        /* \"contracts/BlackJackTable.sol\":2542:2547  token */\n      dup4\n        /* \"contracts/BlackJackTable.sol\":2542:2558  token.playerSeed */\n      0x03\n      add\n      sload\n        /* \"contracts/BlackJackTable.sol\":2477:2569  oracle.generateSeed(... */\n      mload(0x40)\n      dup4\n      0xffffffff\n      and\n      0xe0\n      shl\n      dup2\n      mstore\n      0x04\n      add\n      tag_84\n      swap3\n      swap2\n      swap1\n      tag_85\n      jump\t// in\n    tag_84:\n      0x20\n      mload(0x40)\n      dup1\n      dup4\n      sub\n      dup2\n      dup7\n      gas\n      staticcall\n      iszero\n      dup1\n      iszero\n      tag_87\n      jumpi\n      returndatacopy(0x00, 0x00, returndatasize)\n      revert(0x00, returndatasize)\n    tag_87:\n      pop\n      pop\n      pop\n      pop\n      mload(0x40)\n      returndatasize\n      not(0x1f)\n      0x1f\n      dup3\n      add\n      and\n      dup3\n      add\n      dup1\n      0x40\n      mstore\n      pop\n      dup2\n      add\n      swap1\n      tag_88\n      swap2\n      swap1\n      tag_89\n      jump\t// in\n    tag_88:\n        /* \"contracts/BlackJackTable.sol\":2459:2464  token */\n      dup2\n        /* \"contracts/BlackJackTable.sol\":2459:2474  token.finalSeed */\n      0x05\n      add\n        /* \"contracts/BlackJackTable.sol\":2459:2569  token.finalSeed = oracle.generateSeed(... */\n      dup2\n      swap1\n      sstore\n      pop\n        /* \"contracts/BlackJackTable.sol\":2600:2617  State.DEALER_TURN */\n      0x02\n        /* \"contracts/BlackJackTable.sol\":2582:2587  token */\n      dup2\n        /* \"contracts/BlackJackTable.sol\":2582:2597  token.gameState */\n      0x06\n      add\n      0x01\n        /* \"contracts/BlackJackTable.sol\":2582:2617  token.gameState = State.DEALER_TURN */\n      0x0100\n      exp\n      dup2\n      sload\n      dup2\n      0xff\n      mul\n      not\n      and\n      swap1\n      dup4\n      0x04\n      dup2\n      gt\n      iszero\n      tag_90\n      jumpi\n      tag_91\n      tag_45\n      jump\t// in\n    tag_91:\n    tag_90:\n      mul\n      or\n      swap1\n      sstore\n      pop\n        /* \"contracts/BlackJackTable.sol\":2664:2682  shuffleDeck(token) */\n      tag_92\n        /* \"contracts/BlackJackTable.sol\":2676:2681  token */\n      dup2\n        /* \"contracts/BlackJackTable.sol\":2664:2675  shuffleDeck */\n      tag_93\n        /* \"contracts/BlackJackTable.sol\":2664:2682  shuffleDeck(token) */\n      jump\t// in\n    tag_92:\n        /* \"contracts/BlackJackTable.sol\":2700:2764  BetPlaced(token.tokenID, msg.sender, token.bet, token.finalSeed) */\n      0x0e97ce5f641b8a03e0f92d0b4480f849cf26a7bfdf17862c8edaf69268e60aad\n        /* \"contracts/BlackJackTable.sol\":2710:2715  token */\n      dup2\n        /* \"contracts/BlackJackTable.sol\":2710:2723  token.tokenID */\n      0x00\n      add\n      sload\n        /* \"contracts/BlackJackTable.sol\":2725:2735  msg.sender */\n      caller\n        /* \"contracts/BlackJackTable.sol\":2737:2742  token */\n      dup4\n        /* \"contracts/BlackJackTable.sol\":2737:2746  token.bet */\n      0x01\n      add\n      sload\n        /* \"contracts/BlackJackTable.sol\":2748:2753  token */\n      dup5\n        /* \"contracts/BlackJackTable.sol\":2748:2763  token.finalSeed */\n      0x05\n      add\n      sload\n        /* \"contracts/BlackJackTable.sol\":2700:2764  BetPlaced(token.tokenID, msg.sender, token.bet, token.finalSeed) */\n      mload(0x40)\n      tag_94\n      swap5\n      swap4\n      swap3\n      swap2\n      swap1\n      tag_95\n      jump\t// in\n    tag_94:\n      mload(0x40)\n      dup1\n      swap2\n      sub\n      swap1\n      log1\n        /* \"contracts/BlackJackTable.sol\":1965:2772  {... */\n      pop\n      pop\n        /* \"contracts/BlackJackTable.sol\":1924:2772  function placeBets(uint256 bet) external {... */\n      pop\n      jump\t// out\n        /* \"contracts/BlackJackTable.sol\":7806:8242  function stand() external {... */\n    tag_30:\n        /* \"contracts/BlackJackTable.sol\":7843:7857  uint256 gameID */\n      0x00\n        /* \"contracts/BlackJackTable.sol\":7860:7870  activeGame */\n      0x03\n        /* \"contracts/BlackJackTable.sol\":7860:7882  activeGame[msg.sender] */\n      0x00\n        /* \"contracts/BlackJackTable.sol\":7871:7881  msg.sender */\n      caller\n        /* \"contracts/BlackJackTable.sol\":7860:7882  activeGame[msg.sender] */\n      0xffffffffffffffffffffffffffffffffffffffff\n      and\n      0xffffffffffffffffffffffffffffffffffffffff\n      and\n      dup2\n      mstore\n      0x20\n      add\n      swap1\n      dup2\n      mstore\n      0x20\n      add\n      0x00\n      keccak256\n      sload\n        /* \"contracts/BlackJackTable.sol\":7843:7882  uint256 gameID = activeGame[msg.sender] */\n      swap1\n      pop\n        /* \"contracts/BlackJackTable.sol\":7893:7916  GameToken storage token */\n      0x00\n        /* \"contracts/BlackJackTable.sol\":7919:7924  games */\n      0x04\n        /* \"contracts/BlackJackTable.sol\":7919:7932  games[gameID] */\n      0x00\n        /* \"contracts/BlackJackTable.sol\":7925:7931  gameID */\n      dup4\n        /* \"contracts/BlackJackTable.sol\":7919:7932  games[gameID] */\n      dup2\n      mstore\n      0x20\n      add\n      swap1\n      dup2\n      mstore\n      0x20\n      add\n      0x00\n      keccak256\n        /* \"contracts/BlackJackTable.sol\":7893:7932  GameToken storage token = games[gameID] */\n      swap1\n      pop\n        /* \"contracts/BlackJackTable.sol\":7984:8001  State.PLAYER_TURN */\n      0x03\n        /* \"contracts/BlackJackTable.sol\":7965:8001  token.gameState == State.PLAYER_TURN */\n      0x04\n      dup2\n      gt\n      iszero\n      tag_97\n      jumpi\n      tag_98\n      tag_45\n      jump\t// in\n    tag_98:\n    tag_97:\n        /* \"contracts/BlackJackTable.sol\":7965:7970  token */\n      dup2\n        /* \"contracts/BlackJackTable.sol\":7965:7980  token.gameState */\n      0x06\n      add\n      0x01\n      swap1\n      sload\n      swap1\n      0x0100\n      exp\n      swap1\n      div\n      0xff\n      and\n        /* \"contracts/BlackJackTable.sol\":7965:8001  token.gameState == State.PLAYER_TURN */\n      0x04\n      dup2\n      gt\n      iszero\n      tag_99\n      jumpi\n      tag_100\n      tag_45\n      jump\t// in\n    tag_100:\n    tag_99:\n      eq\n        /* \"contracts/BlackJackTable.sol\":7943:8053  require(... */\n      tag_101\n      jumpi\n      mload(0x40)\n      0x08c379a000000000000000000000000000000000000000000000000000000000\n      dup2\n      mstore\n      0x04\n      add\n      tag_102\n      swap1\n      tag_103\n      jump\t// in\n    tag_102:\n      mload(0x40)\n      dup1\n      swap2\n      sub\n      swap1\n      revert\n    tag_101:\n        /* \"contracts/BlackJackTable.sol\":8082:8099  State.DEALER_TURN */\n      0x02\n        /* \"contracts/BlackJackTable.sol\":8064:8069  token */\n      dup2\n        /* \"contracts/BlackJackTable.sol\":8064:8079  token.gameState */\n      0x06\n      add\n      0x01\n        /* \"contracts/BlackJackTable.sol\":8064:8099  token.gameState = State.DEALER_TURN */\n      0x0100\n      exp\n      dup2\n      sload\n      dup2\n      0xff\n      mul\n      not\n      and\n      swap1\n      dup4\n      0x04\n      dup2\n      gt\n      iszero\n      tag_104\n      jumpi\n      tag_105\n      tag_45\n      jump\t// in\n    tag_105:\n    tag_104:\n      mul\n      or\n      swap1\n      sstore\n      pop\n        /* \"contracts/BlackJackTable.sol\":8110:8194  while (token.dealerHandTotalValue < 17) {... */\n    tag_106:\n        /* \"contracts/BlackJackTable.sol\":8146:8148  17 */\n      0x11\n        /* \"contracts/BlackJackTable.sol\":8117:8122  token */\n      dup2\n        /* \"contracts/BlackJackTable.sol\":8117:8143  token.dealerHandTotalValue */\n      0x0b\n      add\n      0x02\n      swap1\n      sload\n      swap1\n      0x0100\n      exp\n      swap1\n      div\n      0xff\n      and\n        /* \"contracts/BlackJackTable.sol\":8117:8148  token.dealerHandTotalValue < 17 */\n      0xff\n      and\n      lt\n        /* \"contracts/BlackJackTable.sol\":8110:8194  while (token.dealerHandTotalValue < 17) {... */\n      iszero\n      tag_107\n      jumpi\n        /* \"contracts/BlackJackTable.sol\":8165:8182  _hitDealer(token) */\n      tag_108\n        /* \"contracts/BlackJackTable.sol\":8176:8181  token */\n      dup2\n        /* \"contracts/BlackJackTable.sol\":8165:8175  _hitDealer */\n      tag_109\n        /* \"contracts/BlackJackTable.sol\":8165:8182  _hitDealer(token) */\n      jump\t// in\n    tag_108:\n        /* \"contracts/BlackJackTable.sol\":8110:8194  while (token.dealerHandTotalValue < 17) {... */\n      jump(tag_106)\n    tag_107:\n        /* \"contracts/BlackJackTable.sol\":8206:8234  handleBlackJackEvents(token) */\n      tag_110\n        /* \"contracts/BlackJackTable.sol\":8228:8233  token */\n      dup2\n        /* \"contracts/BlackJackTable.sol\":8206:8227  handleBlackJackEvents */\n      tag_111\n        /* \"contracts/BlackJackTable.sol\":8206:8234  handleBlackJackEvents(token) */\n      jump\t// in\n    tag_110:\n      pop\n        /* \"contracts/BlackJackTable.sol\":7832:8242  {... */\n      pop\n      pop\n        /* \"contracts/BlackJackTable.sol\":7806:8242  function stand() external {... */\n      jump\t// out\n        /* \"contracts/BlackJackTable.sol\":6768:7276  function hitPlayer() external {... */\n    tag_32:\n        /* \"contracts/BlackJackTable.sol\":6809:6823  uint256 gameID */\n      0x00\n        /* \"contracts/BlackJackTable.sol\":6826:6836  activeGame */\n      0x03\n        /* \"contracts/BlackJackTable.sol\":6826:6848  activeGame[msg.sender] */\n      0x00\n        /* \"contracts/BlackJackTable.sol\":6837:6847  msg.sender */\n      caller\n        /* \"contracts/BlackJackTable.sol\":6826:6848  activeGame[msg.sender] */\n      0xffffffffffffffffffffffffffffffffffffffff\n      and\n      0xffffffffffffffffffffffffffffffffffffffff\n      and\n      dup2\n      mstore\n      0x20\n      add\n      swap1\n      dup2\n      mstore\n      0x20\n      add\n      0x00\n      keccak256\n      sload\n        /* \"contracts/BlackJackTable.sol\":6809:6848  uint256 gameID = activeGame[msg.sender] */\n      swap1\n      pop\n        /* \"contracts/BlackJackTable.sol\":6859:6882  GameToken storage token */\n      0x00\n        /* \"contracts/BlackJackTable.sol\":6885:6890  games */\n      0x04\n        /* \"contracts/BlackJackTable.sol\":6885:6898  games[gameID] */\n      0x00\n        /* \"contracts/BlackJackTable.sol\":6891:6897  gameID */\n      dup4\n        /* \"contracts/BlackJackTable.sol\":6885:6898  games[gameID] */\n      dup2\n      mstore\n      0x20\n      add\n      swap1\n      dup2\n      mstore\n      0x20\n      add\n      0x00\n      keccak256\n        /* \"contracts/BlackJackTable.sol\":6859:6898  GameToken storage token = games[gameID] */\n      swap1\n      pop\n        /* \"contracts/BlackJackTable.sol\":6936:6950  State.FINISHED */\n      0x04\n        /* \"contracts/BlackJackTable.sol\":6917:6950  token.gameState != State.FINISHED */\n      dup1\n      dup2\n      gt\n      iszero\n      tag_113\n      jumpi\n      tag_114\n      tag_45\n      jump\t// in\n    tag_114:\n    tag_113:\n        /* \"contracts/BlackJackTable.sol\":6917:6922  token */\n      dup2\n        /* \"contracts/BlackJackTable.sol\":6917:6932  token.gameState */\n      0x06\n      add\n      0x01\n      swap1\n      sload\n      swap1\n      0x0100\n      exp\n      swap1\n      div\n      0xff\n      and\n        /* \"contracts/BlackJackTable.sol\":6917:6950  token.gameState != State.FINISHED */\n      0x04\n      dup2\n      gt\n      iszero\n      tag_115\n      jumpi\n      tag_116\n      tag_45\n      jump\t// in\n    tag_116:\n    tag_115:\n      sub\n        /* \"contracts/BlackJackTable.sol\":6909:6980  require(token.gameState != State.FINISHED, \"Game has already finished\") */\n      tag_117\n      jumpi\n      mload(0x40)\n      0x08c379a000000000000000000000000000000000000000000000000000000000\n      dup2\n      mstore\n      0x04\n      add\n      tag_118\n      swap1\n      tag_119\n      jump\t// in\n    tag_118:\n      mload(0x40)\n      dup1\n      swap2\n      sub\n      swap1\n      revert\n    tag_117:\n        /* \"contracts/BlackJackTable.sol\":7032:7049  State.PLAYER_TURN */\n      0x03\n        /* \"contracts/BlackJackTable.sol\":7013:7049  token.gameState == State.PLAYER_TURN */\n      0x04\n      dup2\n      gt\n      iszero\n      tag_120\n      jumpi\n      tag_121\n      tag_45\n      jump\t// in\n    tag_121:\n    tag_120:\n        /* \"contracts/BlackJackTable.sol\":7013:7018  token */\n      dup2\n        /* \"contracts/BlackJackTable.sol\":7013:7028  token.gameState */\n      0x06\n      add\n      0x01\n      swap1\n      sload\n      swap1\n      0x0100\n      exp\n      swap1\n      div\n      0xff\n      and\n        /* \"contracts/BlackJackTable.sol\":7013:7049  token.gameState == State.PLAYER_TURN */\n      0x04\n      dup2\n      gt\n      iszero\n      tag_122\n      jumpi\n      tag_123\n      tag_45\n      jump\t// in\n    tag_123:\n    tag_122:\n      eq\n        /* \"contracts/BlackJackTable.sol\":6991:7103  require(... */\n      tag_124\n      jumpi\n      mload(0x40)\n      0x08c379a000000000000000000000000000000000000000000000000000000000\n      dup2\n      mstore\n      0x04\n      add\n      tag_125\n      swap1\n      tag_126\n      jump\t// in\n    tag_125:\n      mload(0x40)\n      dup1\n      swap2\n      sub\n      swap1\n      revert\n    tag_124:\n        /* \"contracts/BlackJackTable.sol\":7151:7153  21 */\n      0x15\n        /* \"contracts/BlackJackTable.sol\":7122:7127  token */\n      dup2\n        /* \"contracts/BlackJackTable.sol\":7122:7148  token.playerHandTotalValue */\n      0x0b\n      add\n      0x01\n      swap1\n      sload\n      swap1\n      0x0100\n      exp\n      swap1\n      div\n      0xff\n      and\n        /* \"contracts/BlackJackTable.sol\":7122:7153  token.playerHandTotalValue < 21 */\n      0xff\n      and\n      lt\n        /* \"contracts/BlackJackTable.sol\":7114:7168  require(token.playerHandTotalValue < 21, \"Cannot hit\") */\n      tag_127\n      jumpi\n      mload(0x40)\n      0x08c379a000000000000000000000000000000000000000000000000000000000\n      dup2\n      mstore\n      0x04\n      add\n      tag_128\n      swap1\n      tag_129\n      jump\t// in\n    tag_128:\n      mload(0x40)\n      dup1\n      swap2\n      sub\n      swap1\n      revert\n    tag_127:\n        /* \"contracts/BlackJackTable.sol\":7181:7198  _hitPlayer(token) */\n      tag_130\n        /* \"contracts/BlackJackTable.sol\":7192:7197  token */\n      dup2\n        /* \"contracts/BlackJackTable.sol\":7181:7191  _hitPlayer */\n      tag_131\n        /* \"contracts/BlackJackTable.sol\":7181:7198  _hitPlayer(token) */\n      jump\t// in\n    tag_130:\n        /* \"contracts/BlackJackTable.sol\":7240:7268  handleBlackJackEvents(token) */\n      tag_132\n        /* \"contracts/BlackJackTable.sol\":7262:7267  token */\n      dup2\n        /* \"contracts/BlackJackTable.sol\":7240:7261  handleBlackJackEvents */\n      tag_111\n        /* \"contracts/BlackJackTable.sol\":7240:7268  handleBlackJackEvents(token) */\n      jump\t// in\n    tag_132:\n      pop\n        /* \"contracts/BlackJackTable.sol\":6798:7276  {... */\n      pop\n      pop\n        /* \"contracts/BlackJackTable.sol\":6768:7276  function hitPlayer() external {... */\n      jump\t// out\n        /* \"contracts/BlackJackTable.sol\":289:308  IVault public vault */\n    tag_34:\n      0x00\n      0x00\n      swap1\n      sload\n      swap1\n      0x0100\n      exp\n      swap1\n      div\n      0xffffffffffffffffffffffffffffffffffffffff\n      and\n      dup2\n      jump\t// out\n        /* \"contracts/BlackJackTable.sol\":5171:5581  function _dealInitialHands(GameToken storage token) internal {... */\n    tag_60:\n        /* \"contracts/BlackJackTable.sol\":5268:5285  _hitPlayer(token) */\n      tag_134\n        /* \"contracts/BlackJackTable.sol\":5279:5284  token */\n      dup2\n        /* \"contracts/BlackJackTable.sol\":5268:5278  _hitPlayer */\n      tag_131\n        /* \"contracts/BlackJackTable.sol\":5268:5285  _hitPlayer(token) */\n      jump\t// in\n    tag_134:\n        /* \"contracts/BlackJackTable.sol\":5321:5338  _hitDealer(token) */\n      tag_135\n        /* \"contracts/BlackJackTable.sol\":5332:5337  token */\n      dup2\n        /* \"contracts/BlackJackTable.sol\":5321:5331  _hitDealer */\n      tag_109\n        /* \"contracts/BlackJackTable.sol\":5321:5338  _hitDealer(token) */\n      jump\t// in\n    tag_135:\n        /* \"contracts/BlackJackTable.sol\":5376:5393  _hitPlayer(token) */\n      tag_136\n        /* \"contracts/BlackJackTable.sol\":5387:5392  token */\n      dup2\n        /* \"contracts/BlackJackTable.sol\":5376:5386  _hitPlayer */\n      tag_131\n        /* \"contracts/BlackJackTable.sol\":5376:5393  _hitPlayer(token) */\n      jump\t// in\n    tag_136:\n        /* \"contracts/BlackJackTable.sol\":5431:5448  _hitDealer(token) */\n      tag_137\n        /* \"contracts/BlackJackTable.sol\":5442:5447  token */\n      dup2\n        /* \"contracts/BlackJackTable.sol\":5431:5441  _hitDealer */\n      tag_109\n        /* \"contracts/BlackJackTable.sol\":5431:5448  _hitDealer(token) */\n      jump\t// in\n    tag_137:\n        /* \"contracts/BlackJackTable.sol\":5489:5517  handleBlackJackEvents(token) */\n      tag_138\n        /* \"contracts/BlackJackTable.sol\":5511:5516  token */\n      dup2\n        /* \"contracts/BlackJackTable.sol\":5489:5510  handleBlackJackEvents */\n      tag_111\n        /* \"contracts/BlackJackTable.sol\":5489:5517  handleBlackJackEvents(token) */\n      jump\t// in\n    tag_138:\n        /* \"contracts/BlackJackTable.sol\":5519:5526  return; */\n      tag_133\n        /* \"contracts/BlackJackTable.sol\":5485:5526  if (handleBlackJackEvents(token)) return; */\n      jumpi\n        /* \"contracts/BlackJackTable.sol\":5556:5573  State.PLAYER_TURN */\n      0x03\n        /* \"contracts/BlackJackTable.sol\":5538:5543  token */\n      dup2\n        /* \"contracts/BlackJackTable.sol\":5538:5553  token.gameState */\n      0x06\n      add\n      0x01\n        /* \"contracts/BlackJackTable.sol\":5538:5573  token.gameState = State.PLAYER_TURN */\n      0x0100\n      exp\n      dup2\n      sload\n      dup2\n      0xff\n      mul\n      not\n      and\n      swap1\n      dup4\n      0x04\n      dup2\n      gt\n      iszero\n      tag_140\n      jumpi\n      tag_141\n      tag_45\n      jump\t// in\n    tag_141:\n    tag_140:\n      mul\n      or\n      swap1\n      sstore\n      pop\n        /* \"contracts/BlackJackTable.sol\":5171:5581  function _dealInitialHands(GameToken storage token) internal {... */\n    tag_133:\n      pop\n      jump\t// out\n        /* \"contracts/BlackJackTable.sol\":2780:3739  function shuffleDeck(GameToken storage token) internal {... */\n    tag_93:\n        /* \"contracts/BlackJackTable.sol\":2887:2904  State.DEALER_TURN */\n      0x02\n        /* \"contracts/BlackJackTable.sol\":2868:2904  token.gameState == State.DEALER_TURN */\n      0x04\n      dup2\n      gt\n      iszero\n      tag_143\n      jumpi\n      tag_144\n      tag_45\n      jump\t// in\n    tag_144:\n    tag_143:\n        /* \"contracts/BlackJackTable.sol\":2868:2873  token */\n      dup2\n        /* \"contracts/BlackJackTable.sol\":2868:2883  token.gameState */\n      0x06\n      add\n      0x01\n      swap1\n      sload\n      swap1\n      0x0100\n      exp\n      swap1\n      div\n      0xff\n      and\n        /* \"contracts/BlackJackTable.sol\":2868:2904  token.gameState == State.DEALER_TURN */\n      0x04\n      dup2\n      gt\n      iszero\n      tag_145\n      jumpi\n      tag_146\n      tag_45\n      jump\t// in\n    tag_146:\n    tag_145:\n      eq\n        /* \"contracts/BlackJackTable.sol\":2846:2959  require(... */\n      tag_147\n      jumpi\n      mload(0x40)\n      0x08c379a000000000000000000000000000000000000000000000000000000000\n      dup2\n      mstore\n      0x04\n      add\n      tag_148\n      swap1\n      tag_149\n      jump\t// in\n    tag_148:\n      mload(0x40)\n      dup1\n      swap2\n      sub\n      swap1\n      revert\n    tag_147:\n        /* \"contracts/BlackJackTable.sol\":2998:3003  false */\n      0x00\n        /* \"contracts/BlackJackTable.sol\":2978:3003  token.isShuffled == false */\n      iszero\n      iszero\n        /* \"contracts/BlackJackTable.sol\":2978:2983  token */\n      dup2\n        /* \"contracts/BlackJackTable.sol\":2978:2994  token.isShuffled */\n      0x0b\n      add\n      0x00\n      swap1\n      sload\n      swap1\n      0x0100\n      exp\n      swap1\n      div\n      0xff\n      and\n        /* \"contracts/BlackJackTable.sol\":2978:3003  token.isShuffled == false */\n      iszero\n      iszero\n      eq\n        /* \"contracts/BlackJackTable.sol\":2970:3038  require(token.isShuffled == false, \"Deck has already been shuffled\") */\n      tag_150\n      jumpi\n      mload(0x40)\n      0x08c379a000000000000000000000000000000000000000000000000000000000\n      dup2\n      mstore\n      0x04\n      add\n      tag_151\n      swap1\n      tag_152\n      jump\t// in\n    tag_151:\n      mload(0x40)\n      dup1\n      swap2\n      sub\n      swap1\n      revert\n    tag_150:\n        /* \"contracts/BlackJackTable.sol\":3212:3219  uint8 i */\n      0x00\n        /* \"contracts/BlackJackTable.sol\":3222:3223  0 */\n      0x00\n        /* \"contracts/BlackJackTable.sol\":3212:3223  uint8 i = 0 */\n      swap1\n      pop\n        /* \"contracts/BlackJackTable.sol\":3207:3288  for (uint8 i = 0; i < deckSize; i++) {... */\n    tag_153:\n        /* \"contracts/BlackJackTable.sol\":730:733  104 */\n      0x68\n        /* \"contracts/BlackJackTable.sol\":3225:3237  i < deckSize */\n      0xff\n      and\n        /* \"contracts/BlackJackTable.sol\":3225:3226  i */\n      dup2\n        /* \"contracts/BlackJackTable.sol\":3225:3237  i < deckSize */\n      0xff\n      and\n      lt\n        /* \"contracts/BlackJackTable.sol\":3207:3288  for (uint8 i = 0; i < deckSize; i++) {... */\n      iszero\n      tag_154\n      jumpi\n        /* \"contracts/BlackJackTable.sol\":3275:3276  i */\n      dup1\n        /* \"contracts/BlackJackTable.sol\":3259:3264  token */\n      dup3\n        /* \"contracts/BlackJackTable.sol\":3259:3269  token.deck */\n      0x07\n      add\n        /* \"contracts/BlackJackTable.sol\":3270:3271  i */\n      dup3\n        /* \"contracts/BlackJackTable.sol\":3259:3272  token.deck[i] */\n      0xff\n      and\n      0x68\n      dup2\n      lt\n      tag_156\n      jumpi\n      tag_157\n      tag_158\n      jump\t// in\n    tag_157:\n    tag_156:\n      0x20\n      swap2\n      dup3\n      dup3\n      div\n      add\n      swap2\n      swap1\n      mod\n        /* \"contracts/BlackJackTable.sol\":3259:3276  token.deck[i] = i */\n      0x0100\n      exp\n      dup2\n      sload\n      dup2\n      0xff\n      mul\n      not\n      and\n      swap1\n      dup4\n      0xff\n      and\n      mul\n      or\n      swap1\n      sstore\n      pop\n        /* \"contracts/BlackJackTable.sol\":3239:3242  i++ */\n      dup1\n      dup1\n      0x01\n      add\n      swap2\n      pop\n      pop\n        /* \"contracts/BlackJackTable.sol\":3207:3288  for (uint8 i = 0; i < deckSize; i++) {... */\n      jump(tag_153)\n    tag_154:\n      pop\n        /* \"contracts/BlackJackTable.sol\":3408:3417  uint256 i */\n      0x00\n        /* \"contracts/BlackJackTable.sol\":3420:3421  0 */\n      0x00\n        /* \"contracts/BlackJackTable.sol\":3408:3421  uint256 i = 0 */\n      swap1\n      pop\n        /* \"contracts/BlackJackTable.sol\":3403:3696  for (uint256 i = 0; i < deckSize; i++) {... */\n    tag_160:\n        /* \"contracts/BlackJackTable.sol\":730:733  104 */\n      0x68\n        /* \"contracts/BlackJackTable.sol\":3423:3435  i < deckSize */\n      0xff\n      and\n        /* \"contracts/BlackJackTable.sol\":3423:3424  i */\n      dup2\n        /* \"contracts/BlackJackTable.sol\":3423:3435  i < deckSize */\n      lt\n        /* \"contracts/BlackJackTable.sol\":3403:3696  for (uint256 i = 0; i < deckSize; i++) {... */\n      iszero\n      tag_161\n      jumpi\n        /* \"contracts/BlackJackTable.sol\":3498:3507  uint256 n */\n      0x00\n        /* \"contracts/BlackJackTable.sol\":3556:3557  i */\n      dup2\n        /* \"contracts/BlackJackTable.sol\":730:733  104 */\n      0x68\n        /* \"contracts/BlackJackTable.sol\":3545:3557  deckSize - i */\n      0xff\n      and\n      tag_163\n      swap2\n      swap1\n      tag_164\n      jump\t// in\n    tag_163:\n        /* \"contracts/BlackJackTable.sol\":3524:3529  token */\n      dup4\n        /* \"contracts/BlackJackTable.sol\":3524:3539  token.finalSeed */\n      0x05\n      add\n      sload\n        /* \"contracts/BlackJackTable.sol\":3516:3540  uint256(token.finalSeed) */\n      0x00\n      shr\n        /* \"contracts/BlackJackTable.sol\":3515:3558  (uint256(token.finalSeed)) % (deckSize - i) */\n      tag_165\n      swap2\n      swap1\n      tag_166\n      jump\t// in\n    tag_165:\n        /* \"contracts/BlackJackTable.sol\":3510:3511  i */\n      dup3\n        /* \"contracts/BlackJackTable.sol\":3510:3559  i + ((uint256(token.finalSeed)) % (deckSize - i)) */\n      tag_167\n      swap2\n      swap1\n      tag_168\n      jump\t// in\n    tag_167:\n        /* \"contracts/BlackJackTable.sol\":3498:3559  uint256 n = i + ((uint256(token.finalSeed)) % (deckSize - i)) */\n      swap1\n      pop\n        /* \"contracts/BlackJackTable.sol\":3655:3660  token */\n      dup3\n        /* \"contracts/BlackJackTable.sol\":3655:3665  token.deck */\n      0x07\n      add\n        /* \"contracts/BlackJackTable.sol\":3666:3667  n */\n      dup2\n        /* \"contracts/BlackJackTable.sol\":3655:3668  token.deck[n] */\n      0x68\n      dup2\n      lt\n      tag_169\n      jumpi\n      tag_170\n      tag_158\n      jump\t// in\n    tag_170:\n    tag_169:\n      0x20\n      swap2\n      dup3\n      dup3\n      div\n      add\n      swap2\n      swap1\n      mod\n      swap1\n      sload\n      swap1\n      0x0100\n      exp\n      swap1\n      div\n      0xff\n      and\n        /* \"contracts/BlackJackTable.sol\":3670:3675  token */\n      dup4\n        /* \"contracts/BlackJackTable.sol\":3670:3680  token.deck */\n      0x07\n      add\n        /* \"contracts/BlackJackTable.sol\":3681:3682  i */\n      dup4\n        /* \"contracts/BlackJackTable.sol\":3670:3683  token.deck[i] */\n      0x68\n      dup2\n      lt\n      tag_172\n      jumpi\n      tag_173\n      tag_158\n      jump\t// in\n    tag_173:\n    tag_172:\n      0x20\n      swap2\n      dup3\n      dup3\n      div\n      add\n      swap2\n      swap1\n      mod\n      swap1\n      sload\n      swap1\n      0x0100\n      exp\n      swap1\n      div\n      0xff\n      and\n        /* \"contracts/BlackJackTable.sol\":3622:3627  token */\n      dup5\n        /* \"contracts/BlackJackTable.sol\":3622:3632  token.deck */\n      0x07\n      add\n        /* \"contracts/BlackJackTable.sol\":3633:3634  i */\n      dup5\n        /* \"contracts/BlackJackTable.sol\":3622:3635  token.deck[i] */\n      0x68\n      dup2\n      lt\n      tag_175\n      jumpi\n      tag_176\n      tag_158\n      jump\t// in\n    tag_176:\n    tag_175:\n      0x20\n      swap2\n      dup3\n      dup3\n      div\n      add\n      swap2\n      swap1\n      mod\n        /* \"contracts/BlackJackTable.sol\":3637:3642  token */\n      dup7\n        /* \"contracts/BlackJackTable.sol\":3637:3647  token.deck */\n      0x07\n      add\n        /* \"contracts/BlackJackTable.sol\":3648:3649  n */\n      dup6\n        /* \"contracts/BlackJackTable.sol\":3637:3650  token.deck[n] */\n      0x68\n      dup2\n      lt\n      tag_178\n      jumpi\n      tag_179\n      tag_158\n      jump\t// in\n    tag_179:\n    tag_178:\n      0x20\n      swap2\n      dup3\n      dup3\n      div\n      add\n      swap2\n      swap1\n      mod\n        /* \"contracts/BlackJackTable.sol\":3621:3684  (token.deck[i], token.deck[n]) = (token.deck[n], token.deck[i]) */\n      dup5\n      swap2\n      swap1\n      0x0100\n      exp\n      dup2\n      sload\n      dup2\n      0xff\n      mul\n      not\n      and\n      swap1\n      dup4\n      0xff\n      and\n      mul\n      or\n      swap1\n      sstore\n      pop\n      dup4\n      swap2\n      swap1\n      0x0100\n      exp\n      dup2\n      sload\n      dup2\n      0xff\n      mul\n      not\n      and\n      swap1\n      dup4\n      0xff\n      and\n      mul\n      or\n      swap1\n      sstore\n      pop\n      pop\n      pop\n        /* \"contracts/BlackJackTable.sol\":3442:3696  {... */\n      pop\n        /* \"contracts/BlackJackTable.sol\":3437:3440  i++ */\n      dup1\n      dup1\n      0x01\n      add\n      swap2\n      pop\n      pop\n        /* \"contracts/BlackJackTable.sol\":3403:3696  for (uint256 i = 0; i < deckSize; i++) {... */\n      jump(tag_160)\n    tag_161:\n      pop\n        /* \"contracts/BlackJackTable.sol\":3727:3731  true */\n      0x01\n        /* \"contracts/BlackJackTable.sol\":3708:3713  token */\n      dup2\n        /* \"contracts/BlackJackTable.sol\":3708:3724  token.isShuffled */\n      0x0b\n      add\n      0x00\n        /* \"contracts/BlackJackTable.sol\":3708:3731  token.isShuffled = true */\n      0x0100\n      exp\n      dup2\n      sload\n      dup2\n      0xff\n      mul\n      not\n      and\n      swap1\n      dup4\n      iszero\n      iszero\n      mul\n      or\n      swap1\n      sstore\n      pop\n        /* \"contracts/BlackJackTable.sol\":2780:3739  function shuffleDeck(GameToken storage token) internal {... */\n      pop\n      jump\t// out\n        /* \"contracts/BlackJackTable.sol\":7517:7798  function _hitDealer(GameToken storage token) internal {... */\n    tag_109:\n        /* \"contracts/BlackJackTable.sol\":7609:7626  State.DEALER_TURN */\n      0x02\n        /* \"contracts/BlackJackTable.sol\":7590:7626  token.gameState == State.DEALER_TURN */\n      0x04\n      dup2\n      gt\n      iszero\n      tag_182\n      jumpi\n      tag_183\n      tag_45\n      jump\t// in\n    tag_183:\n    tag_182:\n        /* \"contracts/BlackJackTable.sol\":7590:7595  token */\n      dup2\n        /* \"contracts/BlackJackTable.sol\":7590:7605  token.gameState */\n      0x06\n      add\n      0x01\n      swap1\n      sload\n      swap1\n      0x0100\n      exp\n      swap1\n      div\n      0xff\n      and\n        /* \"contracts/BlackJackTable.sol\":7590:7626  token.gameState == State.DEALER_TURN */\n      0x04\n      dup2\n      gt\n      iszero\n      tag_184\n      jumpi\n      tag_185\n      tag_45\n      jump\t// in\n    tag_185:\n    tag_184:\n      eq\n        /* \"contracts/BlackJackTable.sol\":7582:7627  require(token.gameState == State.DEALER_TURN) */\n      tag_186\n      jumpi\n      revert(0x00, 0x00)\n    tag_186:\n        /* \"contracts/BlackJackTable.sol\":7638:7648  uint8 card */\n      0x00\n        /* \"contracts/BlackJackTable.sol\":7651:7666  drawCard(token) */\n      tag_187\n        /* \"contracts/BlackJackTable.sol\":7660:7665  token */\n      dup3\n        /* \"contracts/BlackJackTable.sol\":7651:7659  drawCard */\n      tag_188\n        /* \"contracts/BlackJackTable.sol\":7651:7666  drawCard(token) */\n      jump\t// in\n    tag_187:\n        /* \"contracts/BlackJackTable.sol\":7638:7666  uint8 card = drawCard(token) */\n      swap1\n      pop\n        /* \"contracts/BlackJackTable.sol\":7706:7790  addCardToHand(... */\n      tag_189\n        /* \"contracts/BlackJackTable.sol\":7734:7738  card */\n      dup2\n        /* \"contracts/BlackJackTable.sol\":7753:7758  token */\n      dup4\n        /* \"contracts/BlackJackTable.sol\":7753:7779  token.dealerHandTotalValue */\n      0x0b\n      add\n      0x02\n      swap1\n      sload\n      swap1\n      0x0100\n      exp\n      swap1\n      div\n      0xff\n      and\n        /* \"contracts/BlackJackTable.sol\":7706:7719  addCardToHand */\n      tag_190\n        /* \"contracts/BlackJackTable.sol\":7706:7790  addCardToHand(... */\n      jump\t// in\n    tag_189:\n        /* \"contracts/BlackJackTable.sol\":7677:7682  token */\n      dup3\n        /* \"contracts/BlackJackTable.sol\":7677:7703  token.dealerHandTotalValue */\n      0x0b\n      add\n      0x02\n        /* \"contracts/BlackJackTable.sol\":7677:7790  token.dealerHandTotalValue = addCardToHand(... */\n      0x0100\n      exp\n      dup2\n      sload\n      dup2\n      0xff\n      mul\n      not\n      and\n      swap1\n      dup4\n      0xff\n      and\n      mul\n      or\n      swap1\n      sstore\n      pop\n        /* \"contracts/BlackJackTable.sol\":7571:7798  {... */\n      pop\n        /* \"contracts/BlackJackTable.sol\":7517:7798  function _hitDealer(GameToken storage token) internal {... */\n      pop\n      jump\t// out\n        /* \"contracts/BlackJackTable.sol\":3747:4780  function handleBlackJackEvents(... */\n    tag_111:\n        /* \"contracts/BlackJackTable.sol\":3837:3841  bool */\n      0x00\n        /* \"contracts/BlackJackTable.sol\":3887:3889  21 */\n      0x15\n        /* \"contracts/BlackJackTable.sol\":3858:3863  token */\n      dup3\n        /* \"contracts/BlackJackTable.sol\":3858:3884  token.playerHandTotalValue */\n      0x0b\n      add\n      0x01\n      swap1\n      sload\n      swap1\n      0x0100\n      exp\n      swap1\n      div\n      0xff\n      and\n        /* \"contracts/BlackJackTable.sol\":3858:3889  token.playerHandTotalValue > 21 */\n      0xff\n      and\n      gt\n        /* \"contracts/BlackJackTable.sol\":3854:3980  if (token.playerHandTotalValue > 21) {... */\n      iszero\n      tag_192\n      jumpi\n        /* \"contracts/BlackJackTable.sol\":3906:3942  endGame(token, Result.DEALER_WIN, 0) */\n      tag_193\n        /* \"contracts/BlackJackTable.sol\":3914:3919  token */\n      dup3\n        /* \"contracts/BlackJackTable.sol\":3921:3938  Result.DEALER_WIN */\n      0x02\n        /* \"contracts/BlackJackTable.sol\":3940:3941  0 */\n      0x00\n        /* \"contracts/BlackJackTable.sol\":3906:3913  endGame */\n      tag_194\n        /* \"contracts/BlackJackTable.sol\":3906:3942  endGame(token, Result.DEALER_WIN, 0) */\n      jump\t// in\n    tag_193:\n        /* \"contracts/BlackJackTable.sol\":3964:3968  true */\n      0x01\n        /* \"contracts/BlackJackTable.sol\":3957:3968  return true */\n      swap1\n      pop\n      jump(tag_191)\n        /* \"contracts/BlackJackTable.sol\":3854:3980  if (token.playerHandTotalValue > 21) {... */\n    tag_192:\n        /* \"contracts/BlackJackTable.sol\":4025:4027  21 */\n      0x15\n        /* \"contracts/BlackJackTable.sol\":3996:4001  token */\n      dup3\n        /* \"contracts/BlackJackTable.sol\":3996:4022  token.dealerHandTotalValue */\n      0x0b\n      add\n      0x02\n      swap1\n      sload\n      swap1\n      0x0100\n      exp\n      swap1\n      div\n      0xff\n      and\n        /* \"contracts/BlackJackTable.sol\":3996:4027  token.dealerHandTotalValue > 21 */\n      0xff\n      and\n      gt\n        /* \"contracts/BlackJackTable.sol\":3992:4130  if (token.dealerHandTotalValue > 21) {... */\n      iszero\n      tag_195\n      jumpi\n        /* \"contracts/BlackJackTable.sol\":4044:4092  endGame(token, Result.PLAYER_WIN, token.bet * 2) */\n      tag_196\n        /* \"contracts/BlackJackTable.sol\":4052:4057  token */\n      dup3\n        /* \"contracts/BlackJackTable.sol\":4059:4076  Result.PLAYER_WIN */\n      0x01\n        /* \"contracts/BlackJackTable.sol\":4090:4091  2 */\n      0x02\n        /* \"contracts/BlackJackTable.sol\":4078:4083  token */\n      dup6\n        /* \"contracts/BlackJackTable.sol\":4078:4087  token.bet */\n      0x01\n      add\n      sload\n        /* \"contracts/BlackJackTable.sol\":4078:4091  token.bet * 2 */\n      tag_197\n      swap2\n      swap1\n      tag_198\n      jump\t// in\n    tag_197:\n        /* \"contracts/BlackJackTable.sol\":4044:4051  endGame */\n      tag_194\n        /* \"contracts/BlackJackTable.sol\":4044:4092  endGame(token, Result.PLAYER_WIN, token.bet * 2) */\n      jump\t// in\n    tag_196:\n        /* \"contracts/BlackJackTable.sol\":4114:4118  true */\n      0x01\n        /* \"contracts/BlackJackTable.sol\":4107:4118  return true */\n      swap1\n      pop\n      jump(tag_191)\n        /* \"contracts/BlackJackTable.sol\":3992:4130  if (token.dealerHandTotalValue > 21) {... */\n    tag_195:\n        /* \"contracts/BlackJackTable.sol\":4160:4200  hasBlackJack(token.playerHandTotalValue) */\n      tag_199\n        /* \"contracts/BlackJackTable.sol\":4173:4178  token */\n      dup3\n        /* \"contracts/BlackJackTable.sol\":4173:4199  token.playerHandTotalValue */\n      0x0b\n      add\n      0x01\n      swap1\n      sload\n      swap1\n      0x0100\n      exp\n      swap1\n      div\n      0xff\n      and\n        /* \"contracts/BlackJackTable.sol\":4160:4172  hasBlackJack */\n      tag_200\n        /* \"contracts/BlackJackTable.sol\":4160:4200  hasBlackJack(token.playerHandTotalValue) */\n      jump\t// in\n    tag_199:\n        /* \"contracts/BlackJackTable.sol\":4160:4258  hasBlackJack(token.playerHandTotalValue) &&... */\n      dup1\n      iszero\n      tag_201\n      jumpi\n      pop\n        /* \"contracts/BlackJackTable.sol\":4218:4258  hasBlackJack(token.dealerHandTotalValue) */\n      tag_202\n        /* \"contracts/BlackJackTable.sol\":4231:4236  token */\n      dup3\n        /* \"contracts/BlackJackTable.sol\":4231:4257  token.dealerHandTotalValue */\n      0x0b\n      add\n      0x02\n      swap1\n      sload\n      swap1\n      0x0100\n      exp\n      swap1\n      div\n      0xff\n      and\n        /* \"contracts/BlackJackTable.sol\":4218:4230  hasBlackJack */\n      tag_200\n        /* \"contracts/BlackJackTable.sol\":4218:4258  hasBlackJack(token.dealerHandTotalValue) */\n      jump\t// in\n    tag_202:\n        /* \"contracts/BlackJackTable.sol\":4217:4258  !hasBlackJack(token.dealerHandTotalValue) */\n      iszero\n        /* \"contracts/BlackJackTable.sol\":4160:4258  hasBlackJack(token.playerHandTotalValue) &&... */\n    tag_201:\n        /* \"contracts/BlackJackTable.sol\":4142:4371  if (... */\n      iszero\n      tag_203\n      jumpi\n        /* \"contracts/BlackJackTable.sol\":4285:4333  endGame(token, Result.PLAYER_WIN, token.bet * 2) */\n      tag_204\n        /* \"contracts/BlackJackTable.sol\":4293:4298  token */\n      dup3\n        /* \"contracts/BlackJackTable.sol\":4300:4317  Result.PLAYER_WIN */\n      0x01\n        /* \"contracts/BlackJackTable.sol\":4331:4332  2 */\n      0x02\n        /* \"contracts/BlackJackTable.sol\":4319:4324  token */\n      dup6\n        /* \"contracts/BlackJackTable.sol\":4319:4328  token.bet */\n      0x01\n      add\n      sload\n        /* \"contracts/BlackJackTable.sol\":4319:4332  token.bet * 2 */\n      tag_205\n      swap2\n      swap1\n      tag_198\n      jump\t// in\n    tag_205:\n        /* \"contracts/BlackJackTable.sol\":4285:4292  endGame */\n      tag_194\n        /* \"contracts/BlackJackTable.sol\":4285:4333  endGame(token, Result.PLAYER_WIN, token.bet * 2) */\n      jump\t// in\n    tag_204:\n        /* \"contracts/BlackJackTable.sol\":4355:4359  true */\n      0x01\n        /* \"contracts/BlackJackTable.sol\":4348:4359  return true */\n      swap1\n      pop\n      jump(tag_191)\n        /* \"contracts/BlackJackTable.sol\":4142:4371  if (... */\n    tag_203:\n        /* \"contracts/BlackJackTable.sol\":4401:4441  hasBlackJack(token.playerHandTotalValue) */\n      tag_206\n        /* \"contracts/BlackJackTable.sol\":4414:4419  token */\n      dup3\n        /* \"contracts/BlackJackTable.sol\":4414:4440  token.playerHandTotalValue */\n      0x0b\n      add\n      0x01\n      swap1\n      sload\n      swap1\n      0x0100\n      exp\n      swap1\n      div\n      0xff\n      and\n        /* \"contracts/BlackJackTable.sol\":4401:4413  hasBlackJack */\n      tag_200\n        /* \"contracts/BlackJackTable.sol\":4401:4441  hasBlackJack(token.playerHandTotalValue) */\n      jump\t// in\n    tag_206:\n        /* \"contracts/BlackJackTable.sol\":4401:4498  hasBlackJack(token.playerHandTotalValue) &&... */\n      dup1\n      iszero\n      tag_207\n      jumpi\n      pop\n        /* \"contracts/BlackJackTable.sol\":4458:4498  hasBlackJack(token.dealerHandTotalValue) */\n      tag_208\n        /* \"contracts/BlackJackTable.sol\":4471:4476  token */\n      dup3\n        /* \"contracts/BlackJackTable.sol\":4471:4497  token.dealerHandTotalValue */\n      0x0b\n      add\n      0x02\n      swap1\n      sload\n      swap1\n      0x0100\n      exp\n      swap1\n      div\n      0xff\n      and\n        /* \"contracts/BlackJackTable.sol\":4458:4470  hasBlackJack */\n      tag_200\n        /* \"contracts/BlackJackTable.sol\":4458:4498  hasBlackJack(token.dealerHandTotalValue) */\n      jump\t// in\n    tag_208:\n        /* \"contracts/BlackJackTable.sol\":4401:4498  hasBlackJack(token.playerHandTotalValue) &&... */\n    tag_207:\n        /* \"contracts/BlackJackTable.sol\":4383:4601  if (... */\n      iszero\n      tag_209\n      jumpi\n        /* \"contracts/BlackJackTable.sol\":4525:4563  endGame(token, Result.PUSH, token.bet) */\n      tag_210\n        /* \"contracts/BlackJackTable.sol\":4533:4538  token */\n      dup3\n        /* \"contracts/BlackJackTable.sol\":4540:4551  Result.PUSH */\n      0x03\n        /* \"contracts/BlackJackTable.sol\":4553:4558  token */\n      dup5\n        /* \"contracts/BlackJackTable.sol\":4553:4562  token.bet */\n      0x01\n      add\n      sload\n        /* \"contracts/BlackJackTable.sol\":4525:4532  endGame */\n      tag_194\n        /* \"contracts/BlackJackTable.sol\":4525:4563  endGame(token, Result.PUSH, token.bet) */\n      jump\t// in\n    tag_210:\n        /* \"contracts/BlackJackTable.sol\":4585:4589  true */\n      0x01\n        /* \"contracts/BlackJackTable.sol\":4578:4589  return true */\n      swap1\n      pop\n      jump(tag_191)\n        /* \"contracts/BlackJackTable.sol\":4383:4601  if (... */\n    tag_209:\n        /* \"contracts/BlackJackTable.sol\":4617:4657  hasBlackJack(token.dealerHandTotalValue) */\n      tag_211\n        /* \"contracts/BlackJackTable.sol\":4630:4635  token */\n      dup3\n        /* \"contracts/BlackJackTable.sol\":4630:4656  token.dealerHandTotalValue */\n      0x0b\n      add\n      0x02\n      swap1\n      sload\n      swap1\n      0x0100\n      exp\n      swap1\n      div\n      0xff\n      and\n        /* \"contracts/BlackJackTable.sol\":4617:4629  hasBlackJack */\n      tag_200\n        /* \"contracts/BlackJackTable.sol\":4617:4657  hasBlackJack(token.dealerHandTotalValue) */\n      jump\t// in\n    tag_211:\n        /* \"contracts/BlackJackTable.sol\":4613:4748  if (hasBlackJack(token.dealerHandTotalValue)) {... */\n      iszero\n      tag_212\n      jumpi\n        /* \"contracts/BlackJackTable.sol\":4674:4710  endGame(token, Result.DEALER_WIN, 0) */\n      tag_213\n        /* \"contracts/BlackJackTable.sol\":4682:4687  token */\n      dup3\n        /* \"contracts/BlackJackTable.sol\":4689:4706  Result.DEALER_WIN */\n      0x02\n        /* \"contracts/BlackJackTable.sol\":4708:4709  0 */\n      0x00\n        /* \"contracts/BlackJackTable.sol\":4674:4681  endGame */\n      tag_194\n        /* \"contracts/BlackJackTable.sol\":4674:4710  endGame(token, Result.DEALER_WIN, 0) */\n      jump\t// in\n    tag_213:\n        /* \"contracts/BlackJackTable.sol\":4732:4736  true */\n      0x01\n        /* \"contracts/BlackJackTable.sol\":4725:4736  return true */\n      swap1\n      pop\n      jump(tag_191)\n        /* \"contracts/BlackJackTable.sol\":4613:4748  if (hasBlackJack(token.dealerHandTotalValue)) {... */\n    tag_212:\n        /* \"contracts/BlackJackTable.sol\":4767:4772  false */\n      0x00\n        /* \"contracts/BlackJackTable.sol\":4760:4772  return false */\n      swap1\n      pop\n        /* \"contracts/BlackJackTable.sol\":3747:4780  function handleBlackJackEvents(... */\n    tag_191:\n      swap2\n      swap1\n      pop\n      jump\t// out\n        /* \"contracts/BlackJackTable.sol\":7284:7509  function _hitPlayer(GameToken storage token) internal {... */\n    tag_131:\n        /* \"contracts/BlackJackTable.sol\":7349:7359  uint8 card */\n      0x00\n        /* \"contracts/BlackJackTable.sol\":7362:7377  drawCard(token) */\n      tag_215\n        /* \"contracts/BlackJackTable.sol\":7371:7376  token */\n      dup3\n        /* \"contracts/BlackJackTable.sol\":7362:7370  drawCard */\n      tag_188\n        /* \"contracts/BlackJackTable.sol\":7362:7377  drawCard(token) */\n      jump\t// in\n    tag_215:\n        /* \"contracts/BlackJackTable.sol\":7349:7377  uint8 card = drawCard(token) */\n      swap1\n      pop\n        /* \"contracts/BlackJackTable.sol\":7417:7501  addCardToHand(... */\n      tag_216\n        /* \"contracts/BlackJackTable.sol\":7445:7449  card */\n      dup2\n        /* \"contracts/BlackJackTable.sol\":7464:7469  token */\n      dup4\n        /* \"contracts/BlackJackTable.sol\":7464:7490  token.playerHandTotalValue */\n      0x0b\n      add\n      0x01\n      swap1\n      sload\n      swap1\n      0x0100\n      exp\n      swap1\n      div\n      0xff\n      and\n        /* \"contracts/BlackJackTable.sol\":7417:7430  addCardToHand */\n      tag_190\n        /* \"contracts/BlackJackTable.sol\":7417:7501  addCardToHand(... */\n      jump\t// in\n    tag_216:\n        /* \"contracts/BlackJackTable.sol\":7388:7393  token */\n      dup3\n        /* \"contracts/BlackJackTable.sol\":7388:7414  token.playerHandTotalValue */\n      0x0b\n      add\n      0x01\n        /* \"contracts/BlackJackTable.sol\":7388:7501  token.playerHandTotalValue = addCardToHand(... */\n      0x0100\n      exp\n      dup2\n      sload\n      dup2\n      0xff\n      mul\n      not\n      and\n      swap1\n      dup4\n      0xff\n      and\n      mul\n      or\n      swap1\n      sstore\n      pop\n        /* \"contracts/BlackJackTable.sol\":7338:7509  {... */\n      pop\n        /* \"contracts/BlackJackTable.sol\":7284:7509  function _hitPlayer(GameToken storage token) internal {... */\n      pop\n      jump\t// out\n        /* \"contracts/BlackJackTable.sol\":6311:6760  function drawCard(GameToken storage token) internal returns (uint8) {... */\n    tag_188:\n        /* \"contracts/BlackJackTable.sol\":6372:6377  uint8 */\n      0x00\n        /* \"contracts/BlackJackTable.sol\":6398:6403  token */\n      dup2\n        /* \"contracts/BlackJackTable.sol\":6398:6414  token.isShuffled */\n      0x0b\n      add\n      0x00\n      swap1\n      sload\n      swap1\n      0x0100\n      exp\n      swap1\n      div\n      0xff\n      and\n        /* \"contracts/BlackJackTable.sol\":6390:6445  require(token.isShuffled, \"Deck has not been shuffled\") */\n      tag_218\n      jumpi\n      mload(0x40)\n      0x08c379a000000000000000000000000000000000000000000000000000000000\n      dup2\n      mstore\n      0x04\n      add\n      tag_219\n      swap1\n      tag_51\n      jump\t// in\n    tag_219:\n      mload(0x40)\n      dup1\n      swap2\n      sub\n      swap1\n      revert\n    tag_218:\n        /* \"contracts/BlackJackTable.sol\":6456:6465  uint8 raw */\n      0x00\n        /* \"contracts/BlackJackTable.sol\":6468:6473  token */\n      dup3\n        /* \"contracts/BlackJackTable.sol\":6468:6478  token.deck */\n      0x07\n      add\n        /* \"contracts/BlackJackTable.sol\":6479:6484  token */\n      dup4\n        /* \"contracts/BlackJackTable.sol\":6479:6494  token.drawIndex */\n      0x06\n      add\n      0x00\n      swap1\n      sload\n      swap1\n      0x0100\n      exp\n      swap1\n      div\n      0xff\n      and\n        /* \"contracts/BlackJackTable.sol\":6468:6495  token.deck[token.drawIndex] */\n      0xff\n      and\n      0x68\n      dup2\n      lt\n      tag_220\n      jumpi\n      tag_221\n      tag_158\n      jump\t// in\n    tag_221:\n    tag_220:\n      0x20\n      swap2\n      dup3\n      dup3\n      div\n      add\n      swap2\n      swap1\n      mod\n      swap1\n      sload\n      swap1\n      0x0100\n      exp\n      swap1\n      div\n      0xff\n      and\n        /* \"contracts/BlackJackTable.sol\":6456:6495  uint8 raw = token.deck[token.drawIndex] */\n      swap1\n      pop\n        /* \"contracts/BlackJackTable.sol\":6531:6542  uint8 value */\n      0x00\n        /* \"contracts/BlackJackTable.sol\":6558:6559  1 */\n      0x01\n        /* \"contracts/BlackJackTable.sol\":6552:6554  13 */\n      0x0d\n        /* \"contracts/BlackJackTable.sol\":6546:6549  raw */\n      dup4\n        /* \"contracts/BlackJackTable.sol\":6546:6554  raw % 13 */\n      tag_223\n      swap2\n      swap1\n      tag_224\n      jump\t// in\n    tag_223:\n        /* \"contracts/BlackJackTable.sol\":6545:6559  (raw % 13) + 1 */\n      tag_225\n      swap2\n      swap1\n      tag_226\n      jump\t// in\n    tag_225:\n        /* \"contracts/BlackJackTable.sol\":6531:6559  uint8 value = (raw % 13) + 1 */\n      swap1\n      pop\n        /* \"contracts/BlackJackTable.sol\":6582:6584  10 */\n      0x0a\n        /* \"contracts/BlackJackTable.sol\":6574:6579  value */\n      dup2\n        /* \"contracts/BlackJackTable.sol\":6574:6584  value > 10 */\n      0xff\n      and\n      gt\n        /* \"contracts/BlackJackTable.sol\":6570:6596  if (value > 10) value = 10 */\n      iszero\n      tag_227\n      jumpi\n        /* \"contracts/BlackJackTable.sol\":6594:6596  10 */\n      0x0a\n        /* \"contracts/BlackJackTable.sol\":6586:6596  value = 10 */\n      swap1\n      pop\n        /* \"contracts/BlackJackTable.sol\":6570:6596  if (value > 10) value = 10 */\n    tag_227:\n        /* \"contracts/BlackJackTable.sol\":6607:6612  token */\n      dup4\n        /* \"contracts/BlackJackTable.sol\":6607:6622  token.drawIndex */\n      0x06\n      add\n      0x00\n        /* \"contracts/BlackJackTable.sol\":6607:6624  token.drawIndex++ */\n      dup2\n      dup2\n      swap1\n      sload\n      swap1\n      0x0100\n      exp\n      swap1\n      div\n      0xff\n      and\n      dup1\n      swap3\n      swap2\n      swap1\n      tag_228\n      swap1\n      tag_229\n      jump\t// in\n    tag_228:\n      swap2\n      swap1\n      0x0100\n      exp\n      dup2\n      sload\n      dup2\n      0xff\n      mul\n      not\n      and\n      swap1\n      dup4\n      0xff\n      and\n      mul\n      or\n      swap1\n      sstore\n      pop\n      pop\n        /* \"contracts/BlackJackTable.sol\":6701:6729  CardDrawn(token.player, raw) */\n      0x5cb494422aec3c1d66ad0616d3f90f8641e12057560336165c27bf8793fce9cf\n        /* \"contracts/BlackJackTable.sol\":6711:6716  token */\n      dup5\n        /* \"contracts/BlackJackTable.sol\":6711:6723  token.player */\n      0x02\n      add\n      0x00\n      swap1\n      sload\n      swap1\n      0x0100\n      exp\n      swap1\n      div\n      0xffffffffffffffffffffffffffffffffffffffff\n      and\n        /* \"contracts/BlackJackTable.sol\":6725:6728  raw */\n      dup4\n        /* \"contracts/BlackJackTable.sol\":6701:6729  CardDrawn(token.player, raw) */\n      mload(0x40)\n      tag_230\n      swap3\n      swap2\n      swap1\n      tag_231\n      jump\t// in\n    tag_230:\n      mload(0x40)\n      dup1\n      swap2\n      sub\n      swap1\n      log1\n        /* \"contracts/BlackJackTable.sol\":6747:6752  value */\n      dup1\n        /* \"contracts/BlackJackTable.sol\":6740:6752  return value */\n      swap3\n      pop\n      pop\n      pop\n        /* \"contracts/BlackJackTable.sol\":6311:6760  function drawCard(GameToken storage token) internal returns (uint8) {... */\n      swap2\n      swap1\n      pop\n      jump\t// out\n        /* \"contracts/BlackJackTable.sol\":5827:6303  function addCardToHand(... */\n    tag_190:\n        /* \"contracts/BlackJackTable.sol\":5930:5935  uint8 */\n      0x00\n        /* \"contracts/BlackJackTable.sol\":5983:5997  uint8 newTotal */\n      0x00\n        /* \"contracts/BlackJackTable.sol\":6007:6019  currentTotal */\n      dup3\n        /* \"contracts/BlackJackTable.sol\":6000:6004  card */\n      dup5\n        /* \"contracts/BlackJackTable.sol\":6000:6019  card + currentTotal */\n      tag_233\n      swap2\n      swap1\n      tag_226\n      jump\t// in\n    tag_233:\n        /* \"contracts/BlackJackTable.sol\":5983:6019  uint8 newTotal = card + currentTotal */\n      swap1\n      pop\n        /* \"contracts/BlackJackTable.sol\":6034:6045  isAce(card) */\n      tag_234\n        /* \"contracts/BlackJackTable.sol\":6040:6044  card */\n      dup5\n        /* \"contracts/BlackJackTable.sol\":6034:6039  isAce */\n      tag_235\n        /* \"contracts/BlackJackTable.sol\":6034:6045  isAce(card) */\n      jump\t// in\n    tag_234:\n        /* \"contracts/BlackJackTable.sol\":6030:6264  if (isAce(card)) {... */\n      iszero\n      tag_236\n      jumpi\n        /* \"contracts/BlackJackTable.sol\":6077:6079  21 */\n      0x15\n        /* \"contracts/BlackJackTable.sol\":6066:6074  newTotal */\n      dup2\n        /* \"contracts/BlackJackTable.sol\":6066:6079  newTotal > 21 */\n      0xff\n      and\n      gt\n        /* \"contracts/BlackJackTable.sol\":6062:6197  if (newTotal > 21) {... */\n      iszero\n      tag_237\n      jumpi\n        /* \"contracts/BlackJackTable.sol\":6116:6117  1 */\n      0x01\n        /* \"contracts/BlackJackTable.sol\":6100:6117  currentTotal += 1 */\n      dup4\n      tag_238\n      swap2\n      swap1\n      tag_226\n      jump\t// in\n    tag_238:\n      swap3\n      pop\n        /* \"contracts/BlackJackTable.sol\":6062:6197  if (newTotal > 21) {... */\n      jump(tag_239)\n    tag_237:\n        /* \"contracts/BlackJackTable.sol\":6173:6181  newTotal */\n      dup1\n        /* \"contracts/BlackJackTable.sol\":6158:6181  currentTotal = newTotal */\n      swap3\n      pop\n        /* \"contracts/BlackJackTable.sol\":6062:6197  if (newTotal > 21) {... */\n    tag_239:\n        /* \"contracts/BlackJackTable.sol\":6030:6264  if (isAce(card)) {... */\n      jump(tag_240)\n    tag_236:\n        /* \"contracts/BlackJackTable.sol\":6244:6252  newTotal */\n      dup1\n        /* \"contracts/BlackJackTable.sol\":6229:6252  currentTotal = newTotal */\n      swap3\n      pop\n        /* \"contracts/BlackJackTable.sol\":6030:6264  if (isAce(card)) {... */\n    tag_240:\n        /* \"contracts/BlackJackTable.sol\":6282:6294  currentTotal */\n      dup3\n        /* \"contracts/BlackJackTable.sol\":6274:6295  return (currentTotal) */\n      swap2\n      pop\n      pop\n        /* \"contracts/BlackJackTable.sol\":5827:6303  function addCardToHand(... */\n      swap3\n      swap2\n      pop\n      pop\n      jump\t// out\n        /* \"contracts/BlackJackTable.sol\":8250:8686  function endGame(... */\n    tag_194:\n        /* \"contracts/BlackJackTable.sol\":8392:8398  result */\n      dup2\n        /* \"contracts/BlackJackTable.sol\":8377:8382  token */\n      dup4\n        /* \"contracts/BlackJackTable.sol\":8377:8389  token.result */\n      0x06\n      add\n      0x02\n        /* \"contracts/BlackJackTable.sol\":8377:8398  token.result = result */\n      0x0100\n      exp\n      dup2\n      sload\n      dup2\n      0xff\n      mul\n      not\n      and\n      swap1\n      dup4\n      0x03\n      dup2\n      gt\n      iszero\n      tag_242\n      jumpi\n      tag_243\n      tag_45\n      jump\t// in\n    tag_243:\n    tag_242:\n      mul\n      or\n      swap1\n      sstore\n      pop\n        /* \"contracts/BlackJackTable.sol\":8427:8441  State.FINISHED */\n      0x04\n        /* \"contracts/BlackJackTable.sol\":8409:8414  token */\n      dup4\n        /* \"contracts/BlackJackTable.sol\":8409:8424  token.gameState */\n      0x06\n      add\n      0x01\n        /* \"contracts/BlackJackTable.sol\":8409:8441  token.gameState = State.FINISHED */\n      0x0100\n      exp\n      dup2\n      sload\n      dup2\n      0xff\n      mul\n      not\n      and\n      swap1\n      dup4\n      0x04\n      dup2\n      gt\n      iszero\n      tag_244\n      jumpi\n      tag_245\n      tag_45\n      jump\t// in\n    tag_245:\n    tag_244:\n      mul\n      or\n      swap1\n      sstore\n      pop\n        /* \"contracts/BlackJackTable.sol\":8477:8478  0 */\n      0x00\n        /* \"contracts/BlackJackTable.sol\":8452:8462  activeGame */\n      0x03\n        /* \"contracts/BlackJackTable.sol\":8452:8474  activeGame[msg.sender] */\n      0x00\n        /* \"contracts/BlackJackTable.sol\":8463:8473  msg.sender */\n      caller\n        /* \"contracts/BlackJackTable.sol\":8452:8474  activeGame[msg.sender] */\n      0xffffffffffffffffffffffffffffffffffffffff\n      and\n      0xffffffffffffffffffffffffffffffffffffffff\n      and\n      dup2\n      mstore\n      0x20\n      add\n      swap1\n      dup2\n      mstore\n      0x20\n      add\n      0x00\n      keccak256\n        /* \"contracts/BlackJackTable.sol\":8452:8478  activeGame[msg.sender] = 0 */\n      dup2\n      swap1\n      sstore\n      pop\n        /* \"contracts/BlackJackTable.sol\":8502:8503  0 */\n      0x00\n        /* \"contracts/BlackJackTable.sol\":8493:8499  payout */\n      dup2\n        /* \"contracts/BlackJackTable.sol\":8493:8503  payout > 0 */\n      gt\n        /* \"contracts/BlackJackTable.sol\":8489:8566  if (payout > 0) {... */\n      iszero\n      tag_246\n      jumpi\n        /* \"contracts/BlackJackTable.sol\":8520:8525  vault */\n      0x00\n      0x00\n      swap1\n      sload\n      swap1\n      0x0100\n      exp\n      swap1\n      div\n      0xffffffffffffffffffffffffffffffffffffffff\n      and\n        /* \"contracts/BlackJackTable.sol\":8520:8532  vault.payout */\n      0xffffffffffffffffffffffffffffffffffffffff\n      and\n      0x117de2fd\n        /* \"contracts/BlackJackTable.sol\":8533:8538  token */\n      dup5\n        /* \"contracts/BlackJackTable.sol\":8533:8545  token.player */\n      0x02\n      add\n      0x00\n      swap1\n      sload\n      swap1\n      0x0100\n      exp\n      swap1\n      div\n      0xffffffffffffffffffffffffffffffffffffffff\n      and\n        /* \"contracts/BlackJackTable.sol\":8547:8553  payout */\n      dup4\n        /* \"contracts/BlackJackTable.sol\":8520:8554  vault.payout(token.player, payout) */\n      mload(0x40)\n      dup4\n      0xffffffff\n      and\n      0xe0\n      shl\n      dup2\n      mstore\n      0x04\n      add\n      tag_247\n      swap3\n      swap2\n      swap1\n      tag_80\n      jump\t// in\n    tag_247:\n      0x00\n      mload(0x40)\n      dup1\n      dup4\n      sub\n      dup2\n      0x00\n      dup8\n      dup1\n      extcodesize\n      iszero\n      dup1\n      iszero\n      tag_248\n      jumpi\n      revert(0x00, 0x00)\n    tag_248:\n      pop\n      gas\n      call\n      iszero\n      dup1\n      iszero\n      tag_250\n      jumpi\n      returndatacopy(0x00, 0x00, returndatasize)\n      revert(0x00, returndatasize)\n    tag_250:\n      pop\n      pop\n      pop\n      pop\n        /* \"contracts/BlackJackTable.sol\":8489:8566  if (payout > 0) {... */\n    tag_246:\n        /* \"contracts/BlackJackTable.sol\":8583:8593  activeGame */\n      0x03\n        /* \"contracts/BlackJackTable.sol\":8583:8607  activeGame[token.player] */\n      0x00\n        /* \"contracts/BlackJackTable.sol\":8594:8599  token */\n      dup5\n        /* \"contracts/BlackJackTable.sol\":8594:8606  token.player */\n      0x02\n      add\n      0x00\n      swap1\n      sload\n      swap1\n      0x0100\n      exp\n      swap1\n      div\n      0xffffffffffffffffffffffffffffffffffffffff\n      and\n        /* \"contracts/BlackJackTable.sol\":8583:8607  activeGame[token.player] */\n      0xffffffffffffffffffffffffffffffffffffffff\n      and\n      0xffffffffffffffffffffffffffffffffffffffff\n      and\n      dup2\n      mstore\n      0x20\n      add\n      swap1\n      dup2\n      mstore\n      0x20\n      add\n      0x00\n      keccak256\n        /* \"contracts/BlackJackTable.sol\":8576:8607  delete activeGame[token.player] */\n      0x00\n      swap1\n      sstore\n        /* \"contracts/BlackJackTable.sol\":8630:8631  0 */\n      0x00\n        /* \"contracts/BlackJackTable.sol\":8618:8623  token */\n      dup4\n        /* \"contracts/BlackJackTable.sol\":8618:8627  token.bet */\n      0x01\n      add\n        /* \"contracts/BlackJackTable.sol\":8618:8631  token.bet = 0 */\n      dup2\n      swap1\n      sstore\n      pop\n        /* \"contracts/BlackJackTable.sol\":8647:8678  GameEnded(token.player, result) */\n      0xecdab0d30ae5a2b8d283acf9ed4856306f12f29ef8069fac9148d3d2ac6b4b14\n        /* \"contracts/BlackJackTable.sol\":8657:8662  token */\n      dup4\n        /* \"contracts/BlackJackTable.sol\":8657:8669  token.player */\n      0x02\n      add\n      0x00\n      swap1\n      sload\n      swap1\n      0x0100\n      exp\n      swap1\n      div\n      0xffffffffffffffffffffffffffffffffffffffff\n      and\n        /* \"contracts/BlackJackTable.sol\":8671:8677  result */\n      dup4\n        /* \"contracts/BlackJackTable.sol\":8647:8678  GameEnded(token.player, result) */\n      mload(0x40)\n      tag_251\n      swap3\n      swap2\n      swap1\n      tag_252\n      jump\t// in\n    tag_251:\n      mload(0x40)\n      dup1\n      swap2\n      sub\n      swap1\n      log1\n        /* \"contracts/BlackJackTable.sol\":8250:8686  function endGame(... */\n      pop\n      pop\n      pop\n      jump\t// out\n        /* \"contracts/BlackJackTable.sol\":5589:5704  function hasBlackJack(uint8 currentTotal) internal pure returns (bool) {... */\n    tag_200:\n        /* \"contracts/BlackJackTable.sol\":5654:5658  bool */\n      0x00\n        /* \"contracts/BlackJackTable.sol\":5694:5696  21 */\n      0x15\n        /* \"contracts/BlackJackTable.sol\":5678:5690  currentTotal */\n      dup3\n        /* \"contracts/BlackJackTable.sol\":5678:5696  currentTotal == 21 */\n      0xff\n      and\n      eq\n        /* \"contracts/BlackJackTable.sol\":5671:5696  return currentTotal == 21 */\n      swap1\n      pop\n        /* \"contracts/BlackJackTable.sol\":5589:5704  function hasBlackJack(uint8 currentTotal) internal pure returns (bool) {... */\n      swap2\n      swap1\n      pop\n      jump\t// out\n        /* \"contracts/BlackJackTable.sol\":5712:5819  function isAce(uint8 card) internal pure returns (bool) {... */\n    tag_235:\n        /* \"contracts/BlackJackTable.sol\":5762:5766  bool */\n      0x00\n        /* \"contracts/BlackJackTable.sol\":5795:5796  1 */\n      0x01\n        /* \"contracts/BlackJackTable.sol\":5787:5791  card */\n      dup3\n        /* \"contracts/BlackJackTable.sol\":5787:5796  card == 1 */\n      0xff\n      and\n      eq\n        /* \"contracts/BlackJackTable.sol\":5787:5810  card == 1 || card == 11 */\n      dup1\n      tag_255\n      jumpi\n      pop\n        /* \"contracts/BlackJackTable.sol\":5808:5810  11 */\n      0x0b\n        /* \"contracts/BlackJackTable.sol\":5800:5804  card */\n      dup3\n        /* \"contracts/BlackJackTable.sol\":5800:5810  card == 11 */\n      0xff\n      and\n      eq\n        /* \"contracts/BlackJackTable.sol\":5787:5810  card == 1 || card == 11 */\n    tag_255:\n        /* \"contracts/BlackJackTable.sol\":5779:5811  return (card == 1 || card == 11) */\n      swap1\n      pop\n        /* \"contracts/BlackJackTable.sol\":5712:5819  function isAce(uint8 card) internal pure returns (bool) {... */\n      swap2\n      swap1\n      pop\n      jump\t// out\n        /* \"#utility.yul\":88:205   */\n    tag_257:\n        /* \"#utility.yul\":197:198   */\n      0x00\n        /* \"#utility.yul\":194:195   */\n      0x00\n        /* \"#utility.yul\":187:199   */\n      revert\n        /* \"#utility.yul\":334:411   */\n    tag_259:\n        /* \"#utility.yul\":371:378   */\n      0x00\n        /* \"#utility.yul\":400:405   */\n      dup2\n        /* \"#utility.yul\":389:405   */\n      swap1\n      pop\n        /* \"#utility.yul\":334:411   */\n      swap2\n      swap1\n      pop\n      jump\t// out\n        /* \"#utility.yul\":417:539   */\n    tag_260:\n        /* \"#utility.yul\":490:514   */\n      tag_318\n        /* \"#utility.yul\":508:513   */\n      dup2\n        /* \"#utility.yul\":490:514   */\n      tag_259\n      jump\t// in\n    tag_318:\n        /* \"#utility.yul\":483:488   */\n      dup2\n        /* \"#utility.yul\":480:515   */\n      eq\n        /* \"#utility.yul\":470:533   */\n      tag_319\n      jumpi\n        /* \"#utility.yul\":529:530   */\n      0x00\n        /* \"#utility.yul\":526:527   */\n      0x00\n        /* \"#utility.yul\":519:531   */\n      revert\n        /* \"#utility.yul\":470:533   */\n    tag_319:\n        /* \"#utility.yul\":417:539   */\n      pop\n      jump\t// out\n        /* \"#utility.yul\":545:684   */\n    tag_261:\n        /* \"#utility.yul\":591:596   */\n      0x00\n        /* \"#utility.yul\":629:635   */\n      dup2\n        /* \"#utility.yul\":616:636   */\n      calldataload\n        /* \"#utility.yul\":607:636   */\n      swap1\n      pop\n        /* \"#utility.yul\":645:678   */\n      tag_321\n        /* \"#utility.yul\":672:677   */\n      dup2\n        /* \"#utility.yul\":645:678   */\n      tag_260\n      jump\t// in\n    tag_321:\n        /* \"#utility.yul\":545:684   */\n      swap3\n      swap2\n      pop\n      pop\n      jump\t// out\n        /* \"#utility.yul\":690:1019   */\n    tag_14:\n        /* \"#utility.yul\":749:755   */\n      0x00\n        /* \"#utility.yul\":798:800   */\n      0x20\n        /* \"#utility.yul\":786:795   */\n      dup3\n        /* \"#utility.yul\":777:784   */\n      dup5\n        /* \"#utility.yul\":773:796   */\n      sub\n        /* \"#utility.yul\":769:801   */\n      slt\n        /* \"#utility.yul\":766:885   */\n      iszero\n      tag_323\n      jumpi\n        /* \"#utility.yul\":804:883   */\n      tag_324\n      tag_257\n      jump\t// in\n    tag_324:\n        /* \"#utility.yul\":766:885   */\n    tag_323:\n        /* \"#utility.yul\":924:925   */\n      0x00\n        /* \"#utility.yul\":949:1002   */\n      tag_325\n        /* \"#utility.yul\":994:1001   */\n      dup5\n        /* \"#utility.yul\":985:991   */\n      dup3\n        /* \"#utility.yul\":974:983   */\n      dup6\n        /* \"#utility.yul\":970:992   */\n      add\n        /* \"#utility.yul\":949:1002   */\n      tag_261\n      jump\t// in\n    tag_325:\n        /* \"#utility.yul\":939:1002   */\n      swap2\n      pop\n        /* \"#utility.yul\":895:1012   */\n      pop\n        /* \"#utility.yul\":690:1019   */\n      swap3\n      swap2\n      pop\n      pop\n      jump\t// out\n        /* \"#utility.yul\":1025:1143   */\n    tag_262:\n        /* \"#utility.yul\":1112:1136   */\n      tag_327\n        /* \"#utility.yul\":1130:1135   */\n      dup2\n        /* \"#utility.yul\":1112:1136   */\n      tag_259\n      jump\t// in\n    tag_327:\n        /* \"#utility.yul\":1107:1110   */\n      dup3\n        /* \"#utility.yul\":1100:1137   */\n      mstore\n        /* \"#utility.yul\":1025:1143   */\n      pop\n      pop\n      jump\t// out\n        /* \"#utility.yul\":1149:1371   */\n    tag_21:\n        /* \"#utility.yul\":1242:1246   */\n      0x00\n        /* \"#utility.yul\":1280:1282   */\n      0x20\n        /* \"#utility.yul\":1269:1278   */\n      dup3\n        /* \"#utility.yul\":1265:1283   */\n      add\n        /* \"#utility.yul\":1257:1283   */\n      swap1\n      pop\n        /* \"#utility.yul\":1293:1364   */\n      tag_329\n        /* \"#utility.yul\":1361:1362   */\n      0x00\n        /* \"#utility.yul\":1350:1359   */\n      dup4\n        /* \"#utility.yul\":1346:1363   */\n      add\n        /* \"#utility.yul\":1337:1343   */\n      dup5\n        /* \"#utility.yul\":1293:1364   */\n      tag_262\n      jump\t// in\n    tag_329:\n        /* \"#utility.yul\":1149:1371   */\n      swap3\n      swap2\n      pop\n      pop\n      jump\t// out\n        /* \"#utility.yul\":1377:1503   */\n    tag_263:\n        /* \"#utility.yul\":1414:1421   */\n      0x00\n        /* \"#utility.yul\":1454:1496   */\n      0xffffffffffffffffffffffffffffffffffffffff\n        /* \"#utility.yul\":1447:1452   */\n      dup3\n        /* \"#utility.yul\":1443:1497   */\n      and\n        /* \"#utility.yul\":1432:1497   */\n      swap1\n      pop\n        /* \"#utility.yul\":1377:1503   */\n      swap2\n      swap1\n      pop\n      jump\t// out\n        /* \"#utility.yul\":1509:1569   */\n    tag_264:\n        /* \"#utility.yul\":1537:1540   */\n      0x00\n        /* \"#utility.yul\":1558:1563   */\n      dup2\n        /* \"#utility.yul\":1551:1563   */\n      swap1\n      pop\n        /* \"#utility.yul\":1509:1569   */\n      swap2\n      swap1\n      pop\n      jump\t// out\n        /* \"#utility.yul\":1575:1717   */\n    tag_265:\n        /* \"#utility.yul\":1625:1634   */\n      0x00\n        /* \"#utility.yul\":1658:1711   */\n      tag_333\n        /* \"#utility.yul\":1676:1710   */\n      tag_334\n        /* \"#utility.yul\":1685:1709   */\n      tag_335\n        /* \"#utility.yul\":1703:1708   */\n      dup5\n        /* \"#utility.yul\":1685:1709   */\n      tag_263\n      jump\t// in\n    tag_335:\n        /* \"#utility.yul\":1676:1710   */\n      tag_264\n      jump\t// in\n    tag_334:\n        /* \"#utility.yul\":1658:1711   */\n      tag_263\n      jump\t// in\n    tag_333:\n        /* \"#utility.yul\":1645:1711   */\n      swap1\n      pop\n        /* \"#utility.yul\":1575:1717   */\n      swap2\n      swap1\n      pop\n      jump\t// out\n        /* \"#utility.yul\":1723:1849   */\n    tag_266:\n        /* \"#utility.yul\":1773:1782   */\n      0x00\n        /* \"#utility.yul\":1806:1843   */\n      tag_337\n        /* \"#utility.yul\":1837:1842   */\n      dup3\n        /* \"#utility.yul\":1806:1843   */\n      tag_265\n      jump\t// in\n    tag_337:\n        /* \"#utility.yul\":1793:1843   */\n      swap1\n      pop\n        /* \"#utility.yul\":1723:1849   */\n      swap2\n      swap1\n      pop\n      jump\t// out\n        /* \"#utility.yul\":1855:1996   */\n    tag_267:\n        /* \"#utility.yul\":1920:1929   */\n      0x00\n        /* \"#utility.yul\":1953:1990   */\n      tag_339\n        /* \"#utility.yul\":1984:1989   */\n      dup3\n        /* \"#utility.yul\":1953:1990   */\n      tag_266\n      jump\t// in\n    tag_339:\n        /* \"#utility.yul\":1940:1990   */\n      swap1\n      pop\n        /* \"#utility.yul\":1855:1996   */\n      swap2\n      swap1\n      pop\n      jump\t// out\n        /* \"#utility.yul\":2002:2163   */\n    tag_268:\n        /* \"#utility.yul\":2104:2156   */\n      tag_341\n        /* \"#utility.yul\":2150:2155   */\n      dup2\n        /* \"#utility.yul\":2104:2156   */\n      tag_267\n      jump\t// in\n    tag_341:\n        /* \"#utility.yul\":2099:2102   */\n      dup3\n        /* \"#utility.yul\":2092:2157   */\n      mstore\n        /* \"#utility.yul\":2002:2163   */\n      pop\n      pop\n      jump\t// out\n        /* \"#utility.yul\":2169:2421   */\n    tag_25:\n        /* \"#utility.yul\":2277:2281   */\n      0x00\n        /* \"#utility.yul\":2315:2317   */\n      0x20\n        /* \"#utility.yul\":2304:2313   */\n      dup3\n        /* \"#utility.yul\":2300:2318   */\n      add\n        /* \"#utility.yul\":2292:2318   */\n      swap1\n      pop\n        /* \"#utility.yul\":2328:2414   */\n      tag_343\n        /* \"#utility.yul\":2411:2412   */\n      0x00\n        /* \"#utility.yul\":2400:2409   */\n      dup4\n        /* \"#utility.yul\":2396:2413   */\n      add\n        /* \"#utility.yul\":2387:2393   */\n      dup5\n        /* \"#utility.yul\":2328:2414   */\n      tag_268\n      jump\t// in\n    tag_343:\n        /* \"#utility.yul\":2169:2421   */\n      swap3\n      swap2\n      pop\n      pop\n      jump\t// out\n        /* \"#utility.yul\":2427:2567   */\n    tag_269:\n        /* \"#utility.yul\":2491:2500   */\n      0x00\n        /* \"#utility.yul\":2524:2561   */\n      tag_345\n        /* \"#utility.yul\":2555:2560   */\n      dup3\n        /* \"#utility.yul\":2524:2561   */\n      tag_266\n      jump\t// in\n    tag_345:\n        /* \"#utility.yul\":2511:2561   */\n      swap1\n      pop\n        /* \"#utility.yul\":2427:2567   */\n      swap2\n      swap1\n      pop\n      jump\t// out\n        /* \"#utility.yul\":2573:2732   */\n    tag_270:\n        /* \"#utility.yul\":2674:2725   */\n      tag_347\n        /* \"#utility.yul\":2719:2724   */\n      dup2\n        /* \"#utility.yul\":2674:2725   */\n      tag_269\n      jump\t// in\n    tag_347:\n        /* \"#utility.yul\":2669:2672   */\n      dup3\n        /* \"#utility.yul\":2662:2726   */\n      mstore\n        /* \"#utility.yul\":2573:2732   */\n      pop\n      pop\n      jump\t// out\n        /* \"#utility.yul\":2738:2988   */\n    tag_36:\n        /* \"#utility.yul\":2845:2849   */\n      0x00\n        /* \"#utility.yul\":2883:2885   */\n      0x20\n        /* \"#utility.yul\":2872:2881   */\n      dup3\n        /* \"#utility.yul\":2868:2886   */\n      add\n        /* \"#utility.yul\":2860:2886   */\n      swap1\n      pop\n        /* \"#utility.yul\":2896:2981   */\n      tag_349\n        /* \"#utility.yul\":2978:2979   */\n      0x00\n        /* \"#utility.yul\":2967:2976   */\n      dup4\n        /* \"#utility.yul\":2963:2980   */\n      add\n        /* \"#utility.yul\":2954:2960   */\n      dup5\n        /* \"#utility.yul\":2896:2981   */\n      tag_270\n      jump\t// in\n    tag_349:\n        /* \"#utility.yul\":2738:2988   */\n      swap3\n      swap2\n      pop\n      pop\n      jump\t// out\n        /* \"#utility.yul\":2994:3163   */\n    tag_271:\n        /* \"#utility.yul\":3078:3089   */\n      0x00\n        /* \"#utility.yul\":3112:3118   */\n      dup3\n        /* \"#utility.yul\":3107:3110   */\n      dup3\n        /* \"#utility.yul\":3100:3119   */\n      mstore\n        /* \"#utility.yul\":3152:3156   */\n      0x20\n        /* \"#utility.yul\":3147:3150   */\n      dup3\n        /* \"#utility.yul\":3143:3157   */\n      add\n        /* \"#utility.yul\":3128:3157   */\n      swap1\n      pop\n        /* \"#utility.yul\":2994:3163   */\n      swap3\n      swap2\n      pop\n      pop\n      jump\t// out\n        /* \"#utility.yul\":3169:3343   */\n    tag_272:\n        /* \"#utility.yul\":3309:3335   */\n      0x47616d6520616c726561647920696e2070726f67726573730000000000000000\n        /* \"#utility.yul\":3305:3306   */\n      0x00\n        /* \"#utility.yul\":3297:3303   */\n      dup3\n        /* \"#utility.yul\":3293:3307   */\n      add\n        /* \"#utility.yul\":3286:3336   */\n      mstore\n        /* \"#utility.yul\":3169:3343   */\n      pop\n      jump\t// out\n        /* \"#utility.yul\":3349:3715   */\n    tag_273:\n        /* \"#utility.yul\":3491:3494   */\n      0x00\n        /* \"#utility.yul\":3512:3579   */\n      tag_353\n        /* \"#utility.yul\":3576:3578   */\n      0x18\n        /* \"#utility.yul\":3571:3574   */\n      dup4\n        /* \"#utility.yul\":3512:3579   */\n      tag_271\n      jump\t// in\n    tag_353:\n        /* \"#utility.yul\":3505:3579   */\n      swap2\n      pop\n        /* \"#utility.yul\":3588:3681   */\n      tag_354\n        /* \"#utility.yul\":3677:3680   */\n      dup3\n        /* \"#utility.yul\":3588:3681   */\n      tag_272\n      jump\t// in\n    tag_354:\n        /* \"#utility.yul\":3706:3708   */\n      0x20\n        /* \"#utility.yul\":3701:3704   */\n      dup3\n        /* \"#utility.yul\":3697:3709   */\n      add\n        /* \"#utility.yul\":3690:3709   */\n      swap1\n      pop\n        /* \"#utility.yul\":3349:3715   */\n      swap2\n      swap1\n      pop\n      jump\t// out\n        /* \"#utility.yul\":3721:4140   */\n    tag_40:\n        /* \"#utility.yul\":3887:3891   */\n      0x00\n        /* \"#utility.yul\":3925:3927   */\n      0x20\n        /* \"#utility.yul\":3914:3923   */\n      dup3\n        /* \"#utility.yul\":3910:3928   */\n      add\n        /* \"#utility.yul\":3902:3928   */\n      swap1\n      pop\n        /* \"#utility.yul\":3974:3983   */\n      dup2\n        /* \"#utility.yul\":3968:3972   */\n      dup2\n        /* \"#utility.yul\":3964:3984   */\n      sub\n        /* \"#utility.yul\":3960:3961   */\n      0x00\n        /* \"#utility.yul\":3949:3958   */\n      dup4\n        /* \"#utility.yul\":3945:3962   */\n      add\n        /* \"#utility.yul\":3938:3985   */\n      mstore\n        /* \"#utility.yul\":4002:4133   */\n      tag_356\n        /* \"#utility.yul\":4128:4132   */\n      dup2\n        /* \"#utility.yul\":4002:4133   */\n      tag_273\n      jump\t// in\n    tag_356:\n        /* \"#utility.yul\":3994:4133   */\n      swap1\n      pop\n        /* \"#utility.yul\":3721:4140   */\n      swap2\n      swap1\n      pop\n      jump\t// out\n        /* \"#utility.yul\":4146:4326   */\n    tag_274:\n        /* \"#utility.yul\":4194:4271   */\n      0x4e487b7100000000000000000000000000000000000000000000000000000000\n        /* \"#utility.yul\":4191:4192   */\n      0x00\n        /* \"#utility.yul\":4184:4272   */\n      mstore\n        /* \"#utility.yul\":4291:4295   */\n      0x11\n        /* \"#utility.yul\":4288:4289   */\n      0x04\n        /* \"#utility.yul\":4281:4296   */\n      mstore\n        /* \"#utility.yul\":4315:4319   */\n      0x24\n        /* \"#utility.yul\":4312:4313   */\n      0x00\n        /* \"#utility.yul\":4305:4320   */\n      revert\n        /* \"#utility.yul\":4332:4565   */\n    tag_42:\n        /* \"#utility.yul\":4371:4374   */\n      0x00\n        /* \"#utility.yul\":4394:4418   */\n      tag_359\n        /* \"#utility.yul\":4412:4417   */\n      dup3\n        /* \"#utility.yul\":4394:4418   */\n      tag_259\n      jump\t// in\n    tag_359:\n        /* \"#utility.yul\":4385:4418   */\n      swap2\n      pop\n        /* \"#utility.yul\":4440:4506   */\n      0xffffffffffffffffffffffffffffffffffffffffffffffffffffffffffffffff\n        /* \"#utility.yul\":4433:4438   */\n      dup3\n        /* \"#utility.yul\":4430:4507   */\n      sub\n        /* \"#utility.yul\":4427:4530   */\n      tag_360\n      jumpi\n        /* \"#utility.yul\":4510:4528   */\n      tag_361\n      tag_274\n      jump\t// in\n    tag_361:\n        /* \"#utility.yul\":4427:4530   */\n    tag_360:\n        /* \"#utility.yul\":4557:4558   */\n      0x01\n        /* \"#utility.yul\":4550:4555   */\n      dup3\n        /* \"#utility.yul\":4546:4559   */\n      add\n        /* \"#utility.yul\":4539:4559   */\n      swap1\n      pop\n        /* \"#utility.yul\":4332:4565   */\n      swap2\n      swap1\n      pop\n      jump\t// out\n        /* \"#utility.yul\":4571:4751   */\n    tag_45:\n        /* \"#utility.yul\":4619:4696   */\n      0x4e487b7100000000000000000000000000000000000000000000000000000000\n        /* \"#utility.yul\":4616:4617   */\n      0x00\n        /* \"#utility.yul\":4609:4697   */\n      mstore\n        /* \"#utility.yul\":4716:4720   */\n      0x21\n        /* \"#utility.yul\":4713:4714   */\n      0x04\n        /* \"#utility.yul\":4706:4721   */\n      mstore\n        /* \"#utility.yul\":4740:4744   */\n      0x24\n        /* \"#utility.yul\":4737:4738   */\n      0x00\n        /* \"#utility.yul\":4730:4745   */\n      revert\n        /* \"#utility.yul\":4757:4853   */\n    tag_275:\n        /* \"#utility.yul\":4794:4801   */\n      0x00\n        /* \"#utility.yul\":4823:4847   */\n      tag_364\n        /* \"#utility.yul\":4841:4846   */\n      dup3\n        /* \"#utility.yul\":4823:4847   */\n      tag_263\n      jump\t// in\n    tag_364:\n        /* \"#utility.yul\":4812:4847   */\n      swap1\n      pop\n        /* \"#utility.yul\":4757:4853   */\n      swap2\n      swap1\n      pop\n      jump\t// out\n        /* \"#utility.yul\":4859:4977   */\n    tag_276:\n        /* \"#utility.yul\":4946:4970   */\n      tag_366\n        /* \"#utility.yul\":4964:4969   */\n      dup2\n        /* \"#utility.yul\":4946:4970   */\n      tag_275\n      jump\t// in\n    tag_366:\n        /* \"#utility.yul\":4941:4944   */\n      dup3\n        /* \"#utility.yul\":4934:4971   */\n      mstore\n        /* \"#utility.yul\":4859:4977   */\n      pop\n      pop\n      jump\t// out\n        /* \"#utility.yul\":4983:5315   */\n    tag_47:\n        /* \"#utility.yul\":5104:5108   */\n      0x00\n        /* \"#utility.yul\":5142:5144   */\n      0x40\n        /* \"#utility.yul\":5131:5140   */\n      dup3\n        /* \"#utility.yul\":5127:5145   */\n      add\n        /* \"#utility.yul\":5119:5145   */\n      swap1\n      pop\n        /* \"#utility.yul\":5155:5226   */\n      tag_368\n        /* \"#utility.yul\":5223:5224   */\n      0x00\n        /* \"#utility.yul\":5212:5221   */\n      dup4\n        /* \"#utility.yul\":5208:5225   */\n      add\n        /* \"#utility.yul\":5199:5205   */\n      dup6\n        /* \"#utility.yul\":5155:5226   */\n      tag_262\n      jump\t// in\n    tag_368:\n        /* \"#utility.yul\":5236:5308   */\n      tag_369\n        /* \"#utility.yul\":5304:5306   */\n      0x20\n        /* \"#utility.yul\":5293:5302   */\n      dup4\n        /* \"#utility.yul\":5289:5307   */\n      add\n        /* \"#utility.yul\":5280:5286   */\n      dup5\n        /* \"#utility.yul\":5236:5308   */\n      tag_276\n      jump\t// in\n    tag_369:\n        /* \"#utility.yul\":4983:5315   */\n      swap4\n      swap3\n      pop\n      pop\n      pop\n      jump\t// out\n        /* \"#utility.yul\":5321:5497   */\n    tag_277:\n        /* \"#utility.yul\":5461:5489   */\n      0x4465636b20686173206e6f74206265656e2073687566666c6564000000000000\n        /* \"#utility.yul\":5457:5458   */\n      0x00\n        /* \"#utility.yul\":5449:5455   */\n      dup3\n        /* \"#utility.yul\":5445:5459   */\n      add\n        /* \"#utility.yul\":5438:5490   */\n      mstore\n        /* \"#utility.yul\":5321:5497   */\n      pop\n      jump\t// out\n        /* \"#utility.yul\":5503:5869   */\n    tag_278:\n        /* \"#utility.yul\":5645:5648   */\n      0x00\n        /* \"#utility.yul\":5666:5733   */\n      tag_372\n        /* \"#utility.yul\":5730:5732   */\n      0x1a\n        /* \"#utility.yul\":5725:5728   */\n      dup4\n        /* \"#utility.yul\":5666:5733   */\n      tag_271\n      jump\t// in\n    tag_372:\n        /* \"#utility.yul\":5659:5733   */\n      swap2\n      pop\n        /* \"#utility.yul\":5742:5835   */\n      tag_373\n        /* \"#utility.yul\":5831:5834   */\n      dup3\n        /* \"#utility.yul\":5742:5835   */\n      tag_277\n      jump\t// in\n    tag_373:\n        /* \"#utility.yul\":5860:5862   */\n      0x20\n        /* \"#utility.yul\":5855:5858   */\n      dup3\n        /* \"#utility.yul\":5851:5863   */\n      add\n        /* \"#utility.yul\":5844:5863   */\n      swap1\n      pop\n        /* \"#utility.yul\":5503:5869   */\n      swap2\n      swap1\n      pop\n      jump\t// out\n        /* \"#utility.yul\":5875:6294   */\n    tag_51:\n        /* \"#utility.yul\":6041:6045   */\n      0x00\n        /* \"#utility.yul\":6079:6081   */\n      0x20\n        /* \"#utility.yul\":6068:6077   */\n      dup3\n        /* \"#utility.yul\":6064:6082   */\n      add\n        /* \"#utility.yul\":6056:6082   */\n      swap1\n      pop\n        /* \"#utility.yul\":6128:6137   */\n      dup2\n        /* \"#utility.yul\":6122:6126   */\n      dup2\n        /* \"#utility.yul\":6118:6138   */\n      sub\n        /* \"#utility.yul\":6114:6115   */\n      0x00\n        /* \"#utility.yul\":6103:6112   */\n      dup4\n        /* \"#utility.yul\":6099:6116   */\n      add\n        /* \"#utility.yul\":6092:6139   */\n      mstore\n        /* \"#utility.yul\":6156:6287   */\n      tag_375\n        /* \"#utility.yul\":6282:6286   */\n      dup2\n        /* \"#utility.yul\":6156:6287   */\n      tag_278\n      jump\t// in\n    tag_375:\n        /* \"#utility.yul\":6148:6287   */\n      swap1\n      pop\n        /* \"#utility.yul\":5875:6294   */\n      swap2\n      swap1\n      pop\n      jump\t// out\n        /* \"#utility.yul\":6300:6480   */\n    tag_279:\n        /* \"#utility.yul\":6440:6472   */\n      0x4f6e6c7920746865206465616c65722063616e206465616c2068616e64730000\n        /* \"#utility.yul\":6436:6437   */\n      0x00\n        /* \"#utility.yul\":6428:6434   */\n      dup3\n        /* \"#utility.yul\":6424:6438   */\n      add\n        /* \"#utility.yul\":6417:6473   */\n      mstore\n        /* \"#utility.yul\":6300:6480   */\n      pop\n      jump\t// out\n        /* \"#utility.yul\":6486:6852   */\n    tag_280:\n        /* \"#utility.yul\":6628:6631   */\n      0x00\n        /* \"#utility.yul\":6649:6716   */\n      tag_378\n        /* \"#utility.yul\":6713:6715   */\n      0x1e\n        /* \"#utility.yul\":6708:6711   */\n      dup4\n        /* \"#utility.yul\":6649:6716   */\n      tag_271\n      jump\t// in\n    tag_378:\n        /* \"#utility.yul\":6642:6716   */\n      swap2\n      pop\n        /* \"#utility.yul\":6725:6818   */\n      tag_379\n        /* \"#utility.yul\":6814:6817   */\n      dup3\n        /* \"#utility.yul\":6725:6818   */\n      tag_279\n      jump\t// in\n    tag_379:\n        /* \"#utility.yul\":6843:6845   */\n      0x20\n        /* \"#utility.yul\":6838:6841   */\n      dup3\n        /* \"#utility.yul\":6834:6846   */\n      add\n        /* \"#utility.yul\":6827:6846   */\n      swap1\n      pop\n        /* \"#utility.yul\":6486:6852   */\n      swap2\n      swap1\n      pop\n      jump\t// out\n        /* \"#utility.yul\":6858:7277   */\n    tag_58:\n        /* \"#utility.yul\":7024:7028   */\n      0x00\n        /* \"#utility.yul\":7062:7064   */\n      0x20\n        /* \"#utility.yul\":7051:7060   */\n      dup3\n        /* \"#utility.yul\":7047:7065   */\n      add\n        /* \"#utility.yul\":7039:7065   */\n      swap1\n      pop\n        /* \"#utility.yul\":7111:7120   */\n      dup2\n        /* \"#utility.yul\":7105:7109   */\n      dup2\n        /* \"#utility.yul\":7101:7121   */\n      sub\n        /* \"#utility.yul\":7097:7098   */\n      0x00\n        /* \"#utility.yul\":7086:7095   */\n      dup4\n        /* \"#utility.yul\":7082:7099   */\n      add\n        /* \"#utility.yul\":7075:7122   */\n      mstore\n        /* \"#utility.yul\":7139:7270   */\n      tag_381\n        /* \"#utility.yul\":7265:7269   */\n      dup2\n        /* \"#utility.yul\":7139:7270   */\n      tag_280\n      jump\t// in\n    tag_381:\n        /* \"#utility.yul\":7131:7270   */\n      swap1\n      pop\n        /* \"#utility.yul\":6858:7277   */\n      swap2\n      swap1\n      pop\n      jump\t// out\n        /* \"#utility.yul\":7283:7450   */\n    tag_281:\n        /* \"#utility.yul\":7423:7442   */\n      0x426574206f7574206f662072616e67652e000000000000000000000000000000\n        /* \"#utility.yul\":7419:7420   */\n      0x00\n        /* \"#utility.yul\":7411:7417   */\n      dup3\n        /* \"#utility.yul\":7407:7421   */\n      add\n        /* \"#utility.yul\":7400:7443   */\n      mstore\n        /* \"#utility.yul\":7283:7450   */\n      pop\n      jump\t// out\n        /* \"#utility.yul\":7456:7822   */\n    tag_282:\n        /* \"#utility.yul\":7598:7601   */\n      0x00\n        /* \"#utility.yul\":7619:7686   */\n      tag_384\n        /* \"#utility.yul\":7683:7685   */\n      0x11\n        /* \"#utility.yul\":7678:7681   */\n      dup4\n        /* \"#utility.yul\":7619:7686   */\n      tag_271\n      jump\t// in\n    tag_384:\n        /* \"#utility.yul\":7612:7686   */\n      swap2\n      pop\n        /* \"#utility.yul\":7695:7788   */\n      tag_385\n        /* \"#utility.yul\":7784:7787   */\n      dup3\n        /* \"#utility.yul\":7695:7788   */\n      tag_281\n      jump\t// in\n    tag_385:\n        /* \"#utility.yul\":7813:7815   */\n      0x20\n        /* \"#utility.yul\":7808:7811   */\n      dup3\n        /* \"#utility.yul\":7804:7816   */\n      add\n        /* \"#utility.yul\":7797:7816   */\n      swap1\n      pop\n        /* \"#utility.yul\":7456:7822   */\n      swap2\n      swap1\n      pop\n      jump\t// out\n        /* \"#utility.yul\":7828:8247   */\n    tag_65:\n        /* \"#utility.yul\":7994:7998   */\n      0x00\n        /* \"#utility.yul\":8032:8034   */\n      0x20\n        /* \"#utility.yul\":8021:8030   */\n      dup3\n        /* \"#utility.yul\":8017:8035   */\n      add\n        /* \"#utility.yul\":8009:8035   */\n      swap1\n      pop\n        /* \"#utility.yul\":8081:8090   */\n      dup2\n        /* \"#utility.yul\":8075:8079   */\n      dup2\n        /* \"#utility.yul\":8071:8091   */\n      sub\n        /* \"#utility.yul\":8067:8068   */\n      0x00\n        /* \"#utility.yul\":8056:8065   */\n      dup4\n        /* \"#utility.yul\":8052:8069   */\n      add\n        /* \"#utility.yul\":8045:8092   */\n      mstore\n        /* \"#utility.yul\":8109:8240   */\n      tag_387\n        /* \"#utility.yul\":8235:8239   */\n      dup2\n        /* \"#utility.yul\":8109:8240   */\n      tag_282\n      jump\t// in\n    tag_387:\n        /* \"#utility.yul\":8101:8240   */\n      swap1\n      pop\n        /* \"#utility.yul\":7828:8247   */\n      swap2\n      swap1\n      pop\n      jump\t// out\n        /* \"#utility.yul\":8253:8427   */\n    tag_283:\n        /* \"#utility.yul\":8393:8419   */\n      0x4e6f206163746976652067616d652063757272656e746c790000000000000000\n        /* \"#utility.yul\":8389:8390   */\n      0x00\n        /* \"#utility.yul\":8381:8387   */\n      dup3\n        /* \"#utility.yul\":8377:8391   */\n      add\n        /* \"#utility.yul\":8370:8420   */\n      mstore\n        /* \"#utility.yul\":8253:8427   */\n      pop\n      jump\t// out\n        /* \"#utility.yul\":8433:8799   */\n    tag_284:\n        /* \"#utility.yul\":8575:8578   */\n      0x00\n        /* \"#utility.yul\":8596:8663   */\n      tag_390\n        /* \"#utility.yul\":8660:8662   */\n      0x18\n        /* \"#utility.yul\":8655:8658   */\n      dup4\n        /* \"#utility.yul\":8596:8663   */\n      tag_271\n      jump\t// in\n    tag_390:\n        /* \"#utility.yul\":8589:8663   */\n      swap2\n      pop\n        /* \"#utility.yul\":8672:8765   */\n      tag_391\n        /* \"#utility.yul\":8761:8764   */\n      dup3\n        /* \"#utility.yul\":8672:8765   */\n      tag_283\n      jump\t// in\n    tag_391:\n        /* \"#utility.yul\":8790:8792   */\n      0x20\n        /* \"#utility.yul\":8785:8788   */\n      dup3\n        /* \"#utility.yul\":8781:8793   */\n      add\n        /* \"#utility.yul\":8774:8793   */\n      swap1\n      pop\n        /* \"#utility.yul\":8433:8799   */\n      swap2\n      swap1\n      pop\n      jump\t// out\n        /* \"#utility.yul\":8805:9224   */\n    tag_68:\n        /* \"#utility.yul\":8971:8975   */\n      0x00\n        /* \"#utility.yul\":9009:9011   */\n      0x20\n        /* \"#utility.yul\":8998:9007   */\n      dup3\n        /* \"#utility.yul\":8994:9012   */\n      add\n        /* \"#utility.yul\":8986:9012   */\n      swap1\n      pop\n        /* \"#utility.yul\":9058:9067   */\n      dup2\n        /* \"#utility.yul\":9052:9056   */\n      dup2\n        /* \"#utility.yul\":9048:9068   */\n      sub\n        /* \"#utility.yul\":9044:9045   */\n      0x00\n        /* \"#utility.yul\":9033:9042   */\n      dup4\n        /* \"#utility.yul\":9029:9046   */\n      add\n        /* \"#utility.yul\":9022:9069   */\n      mstore\n        /* \"#utility.yul\":9086:9217   */\n      tag_393\n        /* \"#utility.yul\":9212:9216   */\n      dup2\n        /* \"#utility.yul\":9086:9217   */\n      tag_284\n      jump\t// in\n    tag_393:\n        /* \"#utility.yul\":9078:9217   */\n      swap1\n      pop\n        /* \"#utility.yul\":8805:9224   */\n      swap2\n      swap1\n      pop\n      jump\t// out\n        /* \"#utility.yul\":9230:9398   */\n    tag_285:\n        /* \"#utility.yul\":9370:9390   */\n      0x42657420616c726561647920706c616365640000000000000000000000000000\n        /* \"#utility.yul\":9366:9367   */\n      0x00\n        /* \"#utility.yul\":9358:9364   */\n      dup3\n        /* \"#utility.yul\":9354:9368   */\n      add\n        /* \"#utility.yul\":9347:9391   */\n      mstore\n        /* \"#utility.yul\":9230:9398   */\n      pop\n      jump\t// out\n        /* \"#utility.yul\":9404:9770   */\n    tag_286:\n        /* \"#utility.yul\":9546:9549   */\n      0x00\n        /* \"#utility.yul\":9567:9634   */\n      tag_396\n        /* \"#utility.yul\":9631:9633   */\n      0x12\n        /* \"#utility.yul\":9626:9629   */\n      dup4\n        /* \"#utility.yul\":9567:9634   */\n      tag_271\n      jump\t// in\n    tag_396:\n        /* \"#utility.yul\":9560:9634   */\n      swap2\n      pop\n        /* \"#utility.yul\":9643:9736   */\n      tag_397\n        /* \"#utility.yul\":9732:9735   */\n      dup3\n        /* \"#utility.yul\":9643:9736   */\n      tag_285\n      jump\t// in\n    tag_397:\n        /* \"#utility.yul\":9761:9763   */\n      0x20\n        /* \"#utility.yul\":9756:9759   */\n      dup3\n        /* \"#utility.yul\":9752:9764   */\n      add\n        /* \"#utility.yul\":9745:9764   */\n      swap1\n      pop\n        /* \"#utility.yul\":9404:9770   */\n      swap2\n      swap1\n      pop\n      jump\t// out\n        /* \"#utility.yul\":9776:10195   */\n    tag_71:\n        /* \"#utility.yul\":9942:9946   */\n      0x00\n        /* \"#utility.yul\":9980:9982   */\n      0x20\n        /* \"#utility.yul\":9969:9978   */\n      dup3\n        /* \"#utility.yul\":9965:9983   */\n      add\n        /* \"#utility.yul\":9957:9983   */\n      swap1\n      pop\n        /* \"#utility.yul\":10029:10038   */\n      dup2\n        /* \"#utility.yul\":10023:10027   */\n      dup2\n        /* \"#utility.yul\":10019:10039   */\n      sub\n        /* \"#utility.yul\":10015:10016   */\n      0x00\n        /* \"#utility.yul\":10004:10013   */\n      dup4\n        /* \"#utility.yul\":10000:10017   */\n      add\n        /* \"#utility.yul\":9993:10040   */\n      mstore\n        /* \"#utility.yul\":10057:10188   */\n      tag_399\n        /* \"#utility.yul\":10183:10187   */\n      dup2\n        /* \"#utility.yul\":10057:10188   */\n      tag_286\n      jump\t// in\n    tag_399:\n        /* \"#utility.yul\":10049:10188   */\n      swap1\n      pop\n        /* \"#utility.yul\":9776:10195   */\n      swap2\n      swap1\n      pop\n      jump\t// out\n        /* \"#utility.yul\":10201:10378   */\n    tag_287:\n        /* \"#utility.yul\":10341:10370   */\n      0x546f6b656e20686173206e6f74206265656e2061737369676e65640000000000\n        /* \"#utility.yul\":10337:10338   */\n      0x00\n        /* \"#utility.yul\":10329:10335   */\n      dup3\n        /* \"#utility.yul\":10325:10339   */\n      add\n        /* \"#utility.yul\":10318:10371   */\n      mstore\n        /* \"#utility.yul\":10201:10378   */\n      pop\n      jump\t// out\n        /* \"#utility.yul\":10384:10750   */\n    tag_288:\n        /* \"#utility.yul\":10526:10529   */\n      0x00\n        /* \"#utility.yul\":10547:10614   */\n      tag_402\n        /* \"#utility.yul\":10611:10613   */\n      0x1b\n        /* \"#utility.yul\":10606:10609   */\n      dup4\n        /* \"#utility.yul\":10547:10614   */\n      tag_271\n      jump\t// in\n    tag_402:\n        /* \"#utility.yul\":10540:10614   */\n      swap2\n      pop\n        /* \"#utility.yul\":10623:10716   */\n      tag_403\n        /* \"#utility.yul\":10712:10715   */\n      dup3\n        /* \"#utility.yul\":10623:10716   */\n      tag_287\n      jump\t// in\n    tag_403:\n        /* \"#utility.yul\":10741:10743   */\n      0x20\n        /* \"#utility.yul\":10736:10739   */\n      dup3\n        /* \"#utility.yul\":10732:10744   */\n      add\n        /* \"#utility.yul\":10725:10744   */\n      swap1\n      pop\n        /* \"#utility.yul\":10384:10750   */\n      swap2\n      swap1\n      pop\n      jump\t// out\n        /* \"#utility.yul\":10756:11175   */\n    tag_78:\n        /* \"#utility.yul\":10922:10926   */\n      0x00\n        /* \"#utility.yul\":10960:10962   */\n      0x20\n        /* \"#utility.yul\":10949:10958   */\n      dup3\n        /* \"#utility.yul\":10945:10963   */\n      add\n        /* \"#utility.yul\":10937:10963   */\n      swap1\n      pop\n        /* \"#utility.yul\":11009:11018   */\n      dup2\n        /* \"#utility.yul\":11003:11007   */\n      dup2\n        /* \"#utility.yul\":10999:11019   */\n      sub\n        /* \"#utility.yul\":10995:10996   */\n      0x00\n        /* \"#utility.yul\":10984:10993   */\n      dup4\n        /* \"#utility.yul\":10980:10997   */\n      add\n        /* \"#utility.yul\":10973:11020   */\n      mstore\n        /* \"#utility.yul\":11037:11168   */\n      tag_405\n        /* \"#utility.yul\":11163:11167   */\n      dup2\n        /* \"#utility.yul\":11037:11168   */\n      tag_288\n      jump\t// in\n    tag_405:\n        /* \"#utility.yul\":11029:11168   */\n      swap1\n      pop\n        /* \"#utility.yul\":10756:11175   */\n      swap2\n      swap1\n      pop\n      jump\t// out\n        /* \"#utility.yul\":11181:11513   */\n    tag_80:\n        /* \"#utility.yul\":11302:11306   */\n      0x00\n        /* \"#utility.yul\":11340:11342   */\n      0x40\n        /* \"#utility.yul\":11329:11338   */\n      dup3\n        /* \"#utility.yul\":11325:11343   */\n      add\n        /* \"#utility.yul\":11317:11343   */\n      swap1\n      pop\n        /* \"#utility.yul\":11353:11424   */\n      tag_407\n        /* \"#utility.yul\":11421:11422   */\n      0x00\n        /* \"#utility.yul\":11410:11419   */\n      dup4\n        /* \"#utility.yul\":11406:11423   */\n      add\n        /* \"#utility.yul\":11397:11403   */\n      dup6\n        /* \"#utility.yul\":11353:11424   */\n      tag_276\n      jump\t// in\n    tag_407:\n        /* \"#utility.yul\":11434:11506   */\n      tag_408\n        /* \"#utility.yul\":11502:11504   */\n      0x20\n        /* \"#utility.yul\":11491:11500   */\n      dup4\n        /* \"#utility.yul\":11487:11505   */\n      add\n        /* \"#utility.yul\":11478:11484   */\n      dup5\n        /* \"#utility.yul\":11434:11506   */\n      tag_262\n      jump\t// in\n    tag_408:\n        /* \"#utility.yul\":11181:11513   */\n      swap4\n      swap3\n      pop\n      pop\n      pop\n      jump\t// out\n        /* \"#utility.yul\":11519:11851   */\n    tag_85:\n        /* \"#utility.yul\":11640:11644   */\n      0x00\n        /* \"#utility.yul\":11678:11680   */\n      0x40\n        /* \"#utility.yul\":11667:11676   */\n      dup3\n        /* \"#utility.yul\":11663:11681   */\n      add\n        /* \"#utility.yul\":11655:11681   */\n      swap1\n      pop\n        /* \"#utility.yul\":11691:11762   */\n      tag_410\n        /* \"#utility.yul\":11759:11760   */\n      0x00\n        /* \"#utility.yul\":11748:11757   */\n      dup4\n        /* \"#utility.yul\":11744:11761   */\n      add\n        /* \"#utility.yul\":11735:11741   */\n      dup6\n        /* \"#utility.yul\":11691:11762   */\n      tag_262\n      jump\t// in\n    tag_410:\n        /* \"#utility.yul\":11772:11844   */\n      tag_411\n        /* \"#utility.yul\":11840:11842   */\n      0x20\n        /* \"#utility.yul\":11829:11838   */\n      dup4\n        /* \"#utility.yul\":11825:11843   */\n      add\n        /* \"#utility.yul\":11816:11822   */\n      dup5\n        /* \"#utility.yul\":11772:11844   */\n      tag_262\n      jump\t// in\n    tag_411:\n        /* \"#utility.yul\":11519:11851   */\n      swap4\n      swap3\n      pop\n      pop\n      pop\n      jump\t// out\n        /* \"#utility.yul\":11857:11934   */\n    tag_289:\n        /* \"#utility.yul\":11894:11901   */\n      0x00\n        /* \"#utility.yul\":11923:11928   */\n      dup2\n        /* \"#utility.yul\":11912:11928   */\n      swap1\n      pop\n        /* \"#utility.yul\":11857:11934   */\n      swap2\n      swap1\n      pop\n      jump\t// out\n        /* \"#utility.yul\":11940:12062   */\n    tag_290:\n        /* \"#utility.yul\":12013:12037   */\n      tag_414\n        /* \"#utility.yul\":12031:12036   */\n      dup2\n        /* \"#utility.yul\":12013:12037   */\n      tag_289\n      jump\t// in\n    tag_414:\n        /* \"#utility.yul\":12006:12011   */\n      dup2\n        /* \"#utility.yul\":12003:12038   */\n      eq\n        /* \"#utility.yul\":11993:12056   */\n      tag_415\n      jumpi\n        /* \"#utility.yul\":12052:12053   */\n      0x00\n        /* \"#utility.yul\":12049:12050   */\n      0x00\n        /* \"#utility.yul\":12042:12054   */\n      revert\n        /* \"#utility.yul\":11993:12056   */\n    tag_415:\n        /* \"#utility.yul\":11940:12062   */\n      pop\n      jump\t// out\n        /* \"#utility.yul\":12068:12211   */\n    tag_291:\n        /* \"#utility.yul\":12125:12130   */\n      0x00\n        /* \"#utility.yul\":12156:12162   */\n      dup2\n        /* \"#utility.yul\":12150:12163   */\n      mload\n        /* \"#utility.yul\":12141:12163   */\n      swap1\n      pop\n        /* \"#utility.yul\":12172:12205   */\n      tag_417\n        /* \"#utility.yul\":12199:12204   */\n      dup2\n        /* \"#utility.yul\":12172:12205   */\n      tag_290\n      jump\t// in\n    tag_417:\n        /* \"#utility.yul\":12068:12211   */\n      swap3\n      swap2\n      pop\n      pop\n      jump\t// out\n        /* \"#utility.yul\":12217:12568   */\n    tag_89:\n        /* \"#utility.yul\":12287:12293   */\n      0x00\n        /* \"#utility.yul\":12336:12338   */\n      0x20\n        /* \"#utility.yul\":12324:12333   */\n      dup3\n        /* \"#utility.yul\":12315:12322   */\n      dup5\n        /* \"#utility.yul\":12311:12334   */\n      sub\n        /* \"#utility.yul\":12307:12339   */\n      slt\n        /* \"#utility.yul\":12304:12423   */\n      iszero\n      tag_419\n      jumpi\n        /* \"#utility.yul\":12342:12421   */\n      tag_420\n      tag_257\n      jump\t// in\n    tag_420:\n        /* \"#utility.yul\":12304:12423   */\n    tag_419:\n        /* \"#utility.yul\":12462:12463   */\n      0x00\n        /* \"#utility.yul\":12487:12551   */\n      tag_421\n        /* \"#utility.yul\":12543:12550   */\n      dup5\n        /* \"#utility.yul\":12534:12540   */\n      dup3\n        /* \"#utility.yul\":12523:12532   */\n      dup6\n        /* \"#utility.yul\":12519:12541   */\n      add\n        /* \"#utility.yul\":12487:12551   */\n      tag_291\n      jump\t// in\n    tag_421:\n        /* \"#utility.yul\":12477:12551   */\n      swap2\n      pop\n        /* \"#utility.yul\":12433:12561   */\n      pop\n        /* \"#utility.yul\":12217:12568   */\n      swap3\n      swap2\n      pop\n      pop\n      jump\t// out\n        /* \"#utility.yul\":12574:12692   */\n    tag_292:\n        /* \"#utility.yul\":12661:12685   */\n      tag_423\n        /* \"#utility.yul\":12679:12684   */\n      dup2\n        /* \"#utility.yul\":12661:12685   */\n      tag_289\n      jump\t// in\n    tag_423:\n        /* \"#utility.yul\":12656:12659   */\n      dup3\n        /* \"#utility.yul\":12649:12686   */\n      mstore\n        /* \"#utility.yul\":12574:12692   */\n      pop\n      pop\n      jump\t// out\n        /* \"#utility.yul\":12698:13251   */\n    tag_95:\n        /* \"#utility.yul\":12875:12879   */\n      0x00\n        /* \"#utility.yul\":12913:12916   */\n      0x80\n        /* \"#utility.yul\":12902:12911   */\n      dup3\n        /* \"#utility.yul\":12898:12917   */\n      add\n        /* \"#utility.yul\":12890:12917   */\n      swap1\n      pop\n        /* \"#utility.yul\":12927:12998   */\n      tag_425\n        /* \"#utility.yul\":12995:12996   */\n      0x00\n        /* \"#utility.yul\":12984:12993   */\n      dup4\n        /* \"#utility.yul\":12980:12997   */\n      add\n        /* \"#utility.yul\":12971:12977   */\n      dup8\n        /* \"#utility.yul\":12927:12998   */\n      tag_262\n      jump\t// in\n    tag_425:\n        /* \"#utility.yul\":13008:13080   */\n      tag_426\n        /* \"#utility.yul\":13076:13078   */\n      0x20\n        /* \"#utility.yul\":13065:13074   */\n      dup4\n        /* \"#utility.yul\":13061:13079   */\n      add\n        /* \"#utility.yul\":13052:13058   */\n      dup7\n        /* \"#utility.yul\":13008:13080   */\n      tag_276\n      jump\t// in\n    tag_426:\n        /* \"#utility.yul\":13090:13162   */\n      tag_427\n        /* \"#utility.yul\":13158:13160   */\n      0x40\n        /* \"#utility.yul\":13147:13156   */\n      dup4\n        /* \"#utility.yul\":13143:13161   */\n      add\n        /* \"#utility.yul\":13134:13140   */\n      dup6\n        /* \"#utility.yul\":13090:13162   */\n      tag_262\n      jump\t// in\n    tag_427:\n        /* \"#utility.yul\":13172:13244   */\n      tag_428\n        /* \"#utility.yul\":13240:13242   */\n      0x60\n        /* \"#utility.yul\":13229:13238   */\n      dup4\n        /* \"#utility.yul\":13225:13243   */\n      add\n        /* \"#utility.yul\":13216:13222   */\n      dup5\n        /* \"#utility.yul\":13172:13244   */\n      tag_292\n      jump\t// in\n    tag_428:\n        /* \"#utility.yul\":12698:13251   */\n      swap6\n      swap5\n      pop\n      pop\n      pop\n      pop\n      pop\n      jump\t// out\n        /* \"#utility.yul\":13257:13431   */\n    tag_293:\n        /* \"#utility.yul\":13397:13423   */\n      0x4e6f2067616d6520686173206265656e20737461727465640000000000000000\n        /* \"#utility.yul\":13393:13394   */\n      0x00\n        /* \"#utility.yul\":13385:13391   */\n      dup3\n        /* \"#utility.yul\":13381:13395   */\n      add\n        /* \"#utility.yul\":13374:13424   */\n      mstore\n        /* \"#utility.yul\":13257:13431   */\n      pop\n      jump\t// out\n        /* \"#utility.yul\":13437:13803   */\n    tag_294:\n        /* \"#utility.yul\":13579:13582   */\n      0x00\n        /* \"#utility.yul\":13600:13667   */\n      tag_431\n        /* \"#utility.yul\":13664:13666   */\n      0x18\n        /* \"#utility.yul\":13659:13662   */\n      dup4\n        /* \"#utility.yul\":13600:13667   */\n      tag_271\n      jump\t// in\n    tag_431:\n        /* \"#utility.yul\":13593:13667   */\n      swap2\n      pop\n        /* \"#utility.yul\":13676:13769   */\n      tag_432\n        /* \"#utility.yul\":13765:13768   */\n      dup3\n        /* \"#utility.yul\":13676:13769   */\n      tag_293\n      jump\t// in\n    tag_432:\n        /* \"#utility.yul\":13794:13796   */\n      0x20\n        /* \"#utility.yul\":13789:13792   */\n      dup3\n        /* \"#utility.yul\":13785:13797   */\n      add\n        /* \"#utility.yul\":13778:13797   */\n      swap1\n      pop\n        /* \"#utility.yul\":13437:13803   */\n      swap2\n      swap1\n      pop\n      jump\t// out\n        /* \"#utility.yul\":13809:14228   */\n    tag_103:\n        /* \"#utility.yul\":13975:13979   */\n      0x00\n        /* \"#utility.yul\":14013:14015   */\n      0x20\n        /* \"#utility.yul\":14002:14011   */\n      dup3\n        /* \"#utility.yul\":13998:14016   */\n      add\n        /* \"#utility.yul\":13990:14016   */\n      swap1\n      pop\n        /* \"#utility.yul\":14062:14071   */\n      dup2\n        /* \"#utility.yul\":14056:14060   */\n      dup2\n        /* \"#utility.yul\":14052:14072   */\n      sub\n        /* \"#utility.yul\":14048:14049   */\n      0x00\n        /* \"#utility.yul\":14037:14046   */\n      dup4\n        /* \"#utility.yul\":14033:14050   */\n      add\n        /* \"#utility.yul\":14026:14073   */\n      mstore\n        /* \"#utility.yul\":14090:14221   */\n      tag_434\n        /* \"#utility.yul\":14216:14220   */\n      dup2\n        /* \"#utility.yul\":14090:14221   */\n      tag_294\n      jump\t// in\n    tag_434:\n        /* \"#utility.yul\":14082:14221   */\n      swap1\n      pop\n        /* \"#utility.yul\":13809:14228   */\n      swap2\n      swap1\n      pop\n      jump\t// out\n        /* \"#utility.yul\":14234:14409   */\n    tag_295:\n        /* \"#utility.yul\":14374:14401   */\n      0x47616d652068617320616c72656164792066696e697368656400000000000000\n        /* \"#utility.yul\":14370:14371   */\n      0x00\n        /* \"#utility.yul\":14362:14368   */\n      dup3\n        /* \"#utility.yul\":14358:14372   */\n      add\n        /* \"#utility.yul\":14351:14402   */\n      mstore\n        /* \"#utility.yul\":14234:14409   */\n      pop\n      jump\t// out\n        /* \"#utility.yul\":14415:14781   */\n    tag_296:\n        /* \"#utility.yul\":14557:14560   */\n      0x00\n        /* \"#utility.yul\":14578:14645   */\n      tag_437\n        /* \"#utility.yul\":14642:14644   */\n      0x19\n        /* \"#utility.yul\":14637:14640   */\n      dup4\n        /* \"#utility.yul\":14578:14645   */\n      tag_271\n      jump\t// in\n    tag_437:\n        /* \"#utility.yul\":14571:14645   */\n      swap2\n      pop\n        /* \"#utility.yul\":14654:14747   */\n      tag_438\n        /* \"#utility.yul\":14743:14746   */\n      dup3\n        /* \"#utility.yul\":14654:14747   */\n      tag_295\n      jump\t// in\n    tag_438:\n        /* \"#utility.yul\":14772:14774   */\n      0x20\n        /* \"#utility.yul\":14767:14770   */\n      dup3\n        /* \"#utility.yul\":14763:14775   */\n      add\n        /* \"#utility.yul\":14756:14775   */\n      swap1\n      pop\n        /* \"#utility.yul\":14415:14781   */\n      swap2\n      swap1\n      pop\n      jump\t// out\n        /* \"#utility.yul\":14787:15206   */\n    tag_119:\n        /* \"#utility.yul\":14953:14957   */\n      0x00\n        /* \"#utility.yul\":14991:14993   */\n      0x20\n        /* \"#utility.yul\":14980:14989   */\n      dup3\n        /* \"#utility.yul\":14976:14994   */\n      add\n        /* \"#utility.yul\":14968:14994   */\n      swap1\n      pop\n        /* \"#utility.yul\":15040:15049   */\n      dup2\n        /* \"#utility.yul\":15034:15038   */\n      dup2\n        /* \"#utility.yul\":15030:15050   */\n      sub\n        /* \"#utility.yul\":15026:15027   */\n      0x00\n        /* \"#utility.yul\":15015:15024   */\n      dup4\n        /* \"#utility.yul\":15011:15028   */\n      add\n        /* \"#utility.yul\":15004:15051   */\n      mstore\n        /* \"#utility.yul\":15068:15199   */\n      tag_440\n        /* \"#utility.yul\":15194:15198   */\n      dup2\n        /* \"#utility.yul\":15068:15199   */\n      tag_296\n      jump\t// in\n    tag_440:\n        /* \"#utility.yul\":15060:15199   */\n      swap1\n      pop\n        /* \"#utility.yul\":14787:15206   */\n      swap2\n      swap1\n      pop\n      jump\t// out\n        /* \"#utility.yul\":15212:15388   */\n    tag_297:\n        /* \"#utility.yul\":15352:15380   */\n      0x4974206973206e6f742074686520706c6179657273207475726e000000000000\n        /* \"#utility.yul\":15348:15349   */\n      0x00\n        /* \"#utility.yul\":15340:15346   */\n      dup3\n        /* \"#utility.yul\":15336:15350   */\n      add\n        /* \"#utility.yul\":15329:15381   */\n      mstore\n        /* \"#utility.yul\":15212:15388   */\n      pop\n      jump\t// out\n        /* \"#utility.yul\":15394:15760   */\n    tag_298:\n        /* \"#utility.yul\":15536:15539   */\n      0x00\n        /* \"#utility.yul\":15557:15624   */\n      tag_443\n        /* \"#utility.yul\":15621:15623   */\n      0x1a\n        /* \"#utility.yul\":15616:15619   */\n      dup4\n        /* \"#utility.yul\":15557:15624   */\n      tag_271\n      jump\t// in\n    tag_443:\n        /* \"#utility.yul\":15550:15624   */\n      swap2\n      pop\n        /* \"#utility.yul\":15633:15726   */\n      tag_444\n        /* \"#utility.yul\":15722:15725   */\n      dup3\n        /* \"#utility.yul\":15633:15726   */\n      tag_297\n      jump\t// in\n    tag_444:\n        /* \"#utility.yul\":15751:15753   */\n      0x20\n        /* \"#utility.yul\":15746:15749   */\n      dup3\n        /* \"#utility.yul\":15742:15754   */\n      add\n        /* \"#utility.yul\":15735:15754   */\n      swap1\n      pop\n        /* \"#utility.yul\":15394:15760   */\n      swap2\n      swap1\n      pop\n      jump\t// out\n        /* \"#utility.yul\":15766:16185   */\n    tag_126:\n        /* \"#utility.yul\":15932:15936   */\n      0x00\n        /* \"#utility.yul\":15970:15972   */\n      0x20\n        /* \"#utility.yul\":15959:15968   */\n      dup3\n        /* \"#utility.yul\":15955:15973   */\n      add\n        /* \"#utility.yul\":15947:15973   */\n      swap1\n      pop\n        /* \"#utility.yul\":16019:16028   */\n      dup2\n        /* \"#utility.yul\":16013:16017   */\n      dup2\n        /* \"#utility.yul\":16009:16029   */\n      sub\n        /* \"#utility.yul\":16005:16006   */\n      0x00\n        /* \"#utility.yul\":15994:16003   */\n      dup4\n        /* \"#utility.yul\":15990:16007   */\n      add\n        /* \"#utility.yul\":15983:16030   */\n      mstore\n        /* \"#utility.yul\":16047:16178   */\n      tag_446\n        /* \"#utility.yul\":16173:16177   */\n      dup2\n        /* \"#utility.yul\":16047:16178   */\n      tag_298\n      jump\t// in\n    tag_446:\n        /* \"#utility.yul\":16039:16178   */\n      swap1\n      pop\n        /* \"#utility.yul\":15766:16185   */\n      swap2\n      swap1\n      pop\n      jump\t// out\n        /* \"#utility.yul\":16191:16351   */\n    tag_299:\n        /* \"#utility.yul\":16331:16343   */\n      0x43616e6e6f742068697400000000000000000000000000000000000000000000\n        /* \"#utility.yul\":16327:16328   */\n      0x00\n        /* \"#utility.yul\":16319:16325   */\n      dup3\n        /* \"#utility.yul\":16315:16329   */\n      add\n        /* \"#utility.yul\":16308:16344   */\n      mstore\n        /* \"#utility.yul\":16191:16351   */\n      pop\n      jump\t// out\n        /* \"#utility.yul\":16357:16723   */\n    tag_300:\n        /* \"#utility.yul\":16499:16502   */\n      0x00\n        /* \"#utility.yul\":16520:16587   */\n      tag_449\n        /* \"#utility.yul\":16584:16586   */\n      0x0a\n        /* \"#utility.yul\":16579:16582   */\n      dup4\n        /* \"#utility.yul\":16520:16587   */\n      tag_271\n      jump\t// in\n    tag_449:\n        /* \"#utility.yul\":16513:16587   */\n      swap2\n      pop\n        /* \"#utility.yul\":16596:16689   */\n      tag_450\n        /* \"#utility.yul\":16685:16688   */\n      dup3\n        /* \"#utility.yul\":16596:16689   */\n      tag_299\n      jump\t// in\n    tag_450:\n        /* \"#utility.yul\":16714:16716   */\n      0x20\n        /* \"#utility.yul\":16709:16712   */\n      dup3\n        /* \"#utility.yul\":16705:16717   */\n      add\n        /* \"#utility.yul\":16698:16717   */\n      swap1\n      pop\n        /* \"#utility.yul\":16357:16723   */\n      swap2\n      swap1\n      pop\n      jump\t// out\n        /* \"#utility.yul\":16729:17148   */\n    tag_129:\n        /* \"#utility.yul\":16895:16899   */\n      0x00\n        /* \"#utility.yul\":16933:16935   */\n      0x20\n        /* \"#utility.yul\":16922:16931   */\n      dup3\n        /* \"#utility.yul\":16918:16936   */\n      add\n        /* \"#utility.yul\":16910:16936   */\n      swap1\n      pop\n        /* \"#utility.yul\":16982:16991   */\n      dup2\n        /* \"#utility.yul\":16976:16980   */\n      dup2\n        /* \"#utility.yul\":16972:16992   */\n      sub\n        /* \"#utility.yul\":16968:16969   */\n      0x00\n        /* \"#utility.yul\":16957:16966   */\n      dup4\n        /* \"#utility.yul\":16953:16970   */\n      add\n        /* \"#utility.yul\":16946:16993   */\n      mstore\n        /* \"#utility.yul\":17010:17141   */\n      tag_452\n        /* \"#utility.yul\":17136:17140   */\n      dup2\n        /* \"#utility.yul\":17010:17141   */\n      tag_300\n      jump\t// in\n    tag_452:\n        /* \"#utility.yul\":17002:17141   */\n      swap1\n      pop\n        /* \"#utility.yul\":16729:17148   */\n      swap2\n      swap1\n      pop\n      jump\t// out\n        /* \"#utility.yul\":17154:17331   */\n    tag_301:\n        /* \"#utility.yul\":17294:17323   */\n      0x4f6e6c7920746865206465616c65722063616e2073687566666c650000000000\n        /* \"#utility.yul\":17290:17291   */\n      0x00\n        /* \"#utility.yul\":17282:17288   */\n      dup3\n        /* \"#utility.yul\":17278:17292   */\n      add\n        /* \"#utility.yul\":17271:17324   */\n      mstore\n        /* \"#utility.yul\":17154:17331   */\n      pop\n      jump\t// out\n        /* \"#utility.yul\":17337:17703   */\n    tag_302:\n        /* \"#utility.yul\":17479:17482   */\n      0x00\n        /* \"#utility.yul\":17500:17567   */\n      tag_455\n        /* \"#utility.yul\":17564:17566   */\n      0x1b\n        /* \"#utility.yul\":17559:17562   */\n      dup4\n        /* \"#utility.yul\":17500:17567   */\n      tag_271\n      jump\t// in\n    tag_455:\n        /* \"#utility.yul\":17493:17567   */\n      swap2\n      pop\n        /* \"#utility.yul\":17576:17669   */\n      tag_456\n        /* \"#utility.yul\":17665:17668   */\n      dup3\n        /* \"#utility.yul\":17576:17669   */\n      tag_301\n      jump\t// in\n    tag_456:\n        /* \"#utility.yul\":17694:17696   */\n      0x20\n        /* \"#utility.yul\":17689:17692   */\n      dup3\n        /* \"#utility.yul\":17685:17697   */\n      add\n        /* \"#utility.yul\":17678:17697   */\n      swap1\n      pop\n        /* \"#utility.yul\":17337:17703   */\n      swap2\n      swap1\n      pop\n      jump\t// out\n        /* \"#utility.yul\":17709:18128   */\n    tag_149:\n        /* \"#utility.yul\":17875:17879   */\n      0x00\n        /* \"#utility.yul\":17913:17915   */\n      0x20\n        /* \"#utility.yul\":17902:17911   */\n      dup3\n        /* \"#utility.yul\":17898:17916   */\n      add\n        /* \"#utility.yul\":17890:17916   */\n      swap1\n      pop\n        /* \"#utility.yul\":17962:17971   */\n      dup2\n        /* \"#utility.yul\":17956:17960   */\n      dup2\n        /* \"#utility.yul\":17952:17972   */\n      sub\n        /* \"#utility.yul\":17948:17949   */\n      0x00\n        /* \"#utility.yul\":17937:17946   */\n      dup4\n        /* \"#utility.yul\":17933:17950   */\n      add\n        /* \"#utility.yul\":17926:17973   */\n      mstore\n        /* \"#utility.yul\":17990:18121   */\n      tag_458\n        /* \"#utility.yul\":18116:18120   */\n      dup2\n        /* \"#utility.yul\":17990:18121   */\n      tag_302\n      jump\t// in\n    tag_458:\n        /* \"#utility.yul\":17982:18121   */\n      swap1\n      pop\n        /* \"#utility.yul\":17709:18128   */\n      swap2\n      swap1\n      pop\n      jump\t// out\n        /* \"#utility.yul\":18134:18314   */\n    tag_303:\n        /* \"#utility.yul\":18274:18306   */\n      0x4465636b2068617320616c7265616479206265656e2073687566666c65640000\n        /* \"#utility.yul\":18270:18271   */\n      0x00\n        /* \"#utility.yul\":18262:18268   */\n      dup3\n        /* \"#utility.yul\":18258:18272   */\n      add\n        /* \"#utility.yul\":18251:18307   */\n      mstore\n        /* \"#utility.yul\":18134:18314   */\n      pop\n      jump\t// out\n        /* \"#utility.yul\":18320:18686   */\n    tag_304:\n        /* \"#utility.yul\":18462:18465   */\n      0x00\n        /* \"#utility.yul\":18483:18550   */\n      tag_461\n        /* \"#utility.yul\":18547:18549   */\n      0x1e\n        /* \"#utility.yul\":18542:18545   */\n      dup4\n        /* \"#utility.yul\":18483:18550   */\n      tag_271\n      jump\t// in\n    tag_461:\n        /* \"#utility.yul\":18476:18550   */\n      swap2\n      pop\n        /* \"#utility.yul\":18559:18652   */\n      tag_462\n        /* \"#utility.yul\":18648:18651   */\n      dup3\n        /* \"#utility.yul\":18559:18652   */\n      tag_303\n      jump\t// in\n    tag_462:\n        /* \"#utility.yul\":18677:18679   */\n      0x20\n        /* \"#utility.yul\":18672:18675   */\n      dup3\n        /* \"#utility.yul\":18668:18680   */\n      add\n        /* \"#utility.yul\":18661:18680   */\n      swap1\n      pop\n        /* \"#utility.yul\":18320:18686   */\n      swap2\n      swap1\n      pop\n      jump\t// out\n        /* \"#utility.yul\":18692:19111   */\n    tag_152:\n        /* \"#utility.yul\":18858:18862   */\n      0x00\n        /* \"#utility.yul\":18896:18898   */\n      0x20\n        /* \"#utility.yul\":18885:18894   */\n      dup3\n        /* \"#utility.yul\":18881:18899   */\n      add\n        /* \"#utility.yul\":18873:18899   */\n      swap1\n      pop\n        /* \"#utility.yul\":18945:18954   */\n      dup2\n        /* \"#utility.yul\":18939:18943   */\n      dup2\n        /* \"#utility.yul\":18935:18955   */\n      sub\n        /* \"#utility.yul\":18931:18932   */\n      0x00\n        /* \"#utility.yul\":18920:18929   */\n      dup4\n        /* \"#utility.yul\":18916:18933   */\n      add\n        /* \"#utility.yul\":18909:18956   */\n      mstore\n        /* \"#utility.yul\":18973:19104   */\n      tag_464\n        /* \"#utility.yul\":19099:19103   */\n      dup2\n        /* \"#utility.yul\":18973:19104   */\n      tag_304\n      jump\t// in\n    tag_464:\n        /* \"#utility.yul\":18965:19104   */\n      swap1\n      pop\n        /* \"#utility.yul\":18692:19111   */\n      swap2\n      swap1\n      pop\n      jump\t// out\n        /* \"#utility.yul\":19117:19297   */\n    tag_158:\n        /* \"#utility.yul\":19165:19242   */\n      0x4e487b7100000000000000000000000000000000000000000000000000000000\n        /* \"#utility.yul\":19162:19163   */\n      0x00\n        /* \"#utility.yul\":19155:19243   */\n      mstore\n        /* \"#utility.yul\":19262:19266   */\n      0x32\n        /* \"#utility.yul\":19259:19260   */\n      0x04\n        /* \"#utility.yul\":19252:19267   */\n      mstore\n        /* \"#utility.yul\":19286:19290   */\n      0x24\n        /* \"#utility.yul\":19283:19284   */\n      0x00\n        /* \"#utility.yul\":19276:19291   */\n      revert\n        /* \"#utility.yul\":19303:19497   */\n    tag_164:\n        /* \"#utility.yul\":19343:19347   */\n      0x00\n        /* \"#utility.yul\":19363:19383   */\n      tag_467\n        /* \"#utility.yul\":19381:19382   */\n      dup3\n        /* \"#utility.yul\":19363:19383   */\n      tag_259\n      jump\t// in\n    tag_467:\n        /* \"#utility.yul\":19358:19383   */\n      swap2\n      pop\n        /* \"#utility.yul\":19397:19417   */\n      tag_468\n        /* \"#utility.yul\":19415:19416   */\n      dup4\n        /* \"#utility.yul\":19397:19417   */\n      tag_259\n      jump\t// in\n    tag_468:\n        /* \"#utility.yul\":19392:19417   */\n      swap3\n      pop\n        /* \"#utility.yul\":19441:19442   */\n      dup3\n        /* \"#utility.yul\":19438:19439   */\n      dup3\n        /* \"#utility.yul\":19434:19443   */\n      sub\n        /* \"#utility.yul\":19426:19443   */\n      swap1\n      pop\n        /* \"#utility.yul\":19465:19466   */\n      dup2\n        /* \"#utility.yul\":19459:19463   */\n      dup2\n        /* \"#utility.yul\":19456:19467   */\n      gt\n        /* \"#utility.yul\":19453:19490   */\n      iszero\n      tag_469\n      jumpi\n        /* \"#utility.yul\":19470:19488   */\n      tag_470\n      tag_274\n      jump\t// in\n    tag_470:\n        /* \"#utility.yul\":19453:19490   */\n    tag_469:\n        /* \"#utility.yul\":19303:19497   */\n      swap3\n      swap2\n      pop\n      pop\n      jump\t// out\n        /* \"#utility.yul\":19503:19683   */\n    tag_305:\n        /* \"#utility.yul\":19551:19628   */\n      0x4e487b7100000000000000000000000000000000000000000000000000000000\n        /* \"#utility.yul\":19548:19549   */\n      0x00\n        /* \"#utility.yul\":19541:19629   */\n      mstore\n        /* \"#utility.yul\":19648:19652   */\n      0x12\n        /* \"#utility.yul\":19645:19646   */\n      0x04\n        /* \"#utility.yul\":19638:19653   */\n      mstore\n        /* \"#utility.yul\":19672:19676   */\n      0x24\n        /* \"#utility.yul\":19669:19670   */\n      0x00\n        /* \"#utility.yul\":19662:19677   */\n      revert\n        /* \"#utility.yul\":19689:19865   */\n    tag_166:\n        /* \"#utility.yul\":19721:19722   */\n      0x00\n        /* \"#utility.yul\":19738:19758   */\n      tag_473\n        /* \"#utility.yul\":19756:19757   */\n      dup3\n        /* \"#utility.yul\":19738:19758   */\n      tag_259\n      jump\t// in\n    tag_473:\n        /* \"#utility.yul\":19733:19758   */\n      swap2\n      pop\n        /* \"#utility.yul\":19772:19792   */\n      tag_474\n        /* \"#utility.yul\":19790:19791   */\n      dup4\n        /* \"#utility.yul\":19772:19792   */\n      tag_259\n      jump\t// in\n    tag_474:\n        /* \"#utility.yul\":19767:19792   */\n      swap3\n      pop\n        /* \"#utility.yul\":19811:19812   */\n      dup3\n        /* \"#utility.yul\":19801:19836   */\n      tag_475\n      jumpi\n        /* \"#utility.yul\":19816:19834   */\n      tag_476\n      tag_305\n      jump\t// in\n    tag_476:\n        /* \"#utility.yul\":19801:19836   */\n    tag_475:\n        /* \"#utility.yul\":19857:19858   */\n      dup3\n        /* \"#utility.yul\":19854:19855   */\n      dup3\n        /* \"#utility.yul\":19850:19859   */\n      mod\n        /* \"#utility.yul\":19845:19859   */\n      swap1\n      pop\n        /* \"#utility.yul\":19689:19865   */\n      swap3\n      swap2\n      pop\n      pop\n      jump\t// out\n        /* \"#utility.yul\":19871:20062   */\n    tag_168:\n        /* \"#utility.yul\":19911:19914   */\n      0x00\n        /* \"#utility.yul\":19930:19950   */\n      tag_478\n        /* \"#utility.yul\":19948:19949   */\n      dup3\n        /* \"#utility.yul\":19930:19950   */\n      tag_259\n      jump\t// in\n    tag_478:\n        /* \"#utility.yul\":19925:19950   */\n      swap2\n      pop\n        /* \"#utility.yul\":19964:19984   */\n      tag_479\n        /* \"#utility.yul\":19982:19983   */\n      dup4\n        /* \"#utility.yul\":19964:19984   */\n      tag_259\n      jump\t// in\n    tag_479:\n        /* \"#utility.yul\":19959:19984   */\n      swap3\n      pop\n        /* \"#utility.yul\":20007:20008   */\n      dup3\n        /* \"#utility.yul\":20004:20005   */\n      dup3\n        /* \"#utility.yul\":20000:20009   */\n      add\n        /* \"#utility.yul\":19993:20009   */\n      swap1\n      pop\n        /* \"#utility.yul\":20028:20031   */\n      dup1\n        /* \"#utility.yul\":20025:20026   */\n      dup3\n        /* \"#utility.yul\":20022:20032   */\n      gt\n        /* \"#utility.yul\":20019:20055   */\n      iszero\n      tag_480\n      jumpi\n        /* \"#utility.yul\":20035:20053   */\n      tag_481\n      tag_274\n      jump\t// in\n    tag_481:\n        /* \"#utility.yul\":20019:20055   */\n    tag_480:\n        /* \"#utility.yul\":19871:20062   */\n      swap3\n      swap2\n      pop\n      pop\n      jump\t// out\n        /* \"#utility.yul\":20068:20478   */\n    tag_198:\n        /* \"#utility.yul\":20108:20115   */\n      0x00\n        /* \"#utility.yul\":20131:20151   */\n      tag_483\n        /* \"#utility.yul\":20149:20150   */\n      dup3\n        /* \"#utility.yul\":20131:20151   */\n      tag_259\n      jump\t// in\n    tag_483:\n        /* \"#utility.yul\":20126:20151   */\n      swap2\n      pop\n        /* \"#utility.yul\":20165:20185   */\n      tag_484\n        /* \"#utility.yul\":20183:20184   */\n      dup4\n        /* \"#utility.yul\":20165:20185   */\n      tag_259\n      jump\t// in\n    tag_484:\n        /* \"#utility.yul\":20160:20185   */\n      swap3\n      pop\n        /* \"#utility.yul\":20220:20221   */\n      dup3\n        /* \"#utility.yul\":20217:20218   */\n      dup3\n        /* \"#utility.yul\":20213:20222   */\n      mul\n        /* \"#utility.yul\":20242:20272   */\n      tag_485\n        /* \"#utility.yul\":20260:20271   */\n      dup2\n        /* \"#utility.yul\":20242:20272   */\n      tag_259\n      jump\t// in\n    tag_485:\n        /* \"#utility.yul\":20231:20272   */\n      swap2\n      pop\n        /* \"#utility.yul\":20421:20422   */\n      dup3\n        /* \"#utility.yul\":20412:20419   */\n      dup3\n        /* \"#utility.yul\":20408:20423   */\n      div\n        /* \"#utility.yul\":20405:20406   */\n      dup5\n        /* \"#utility.yul\":20402:20424   */\n      eq\n        /* \"#utility.yul\":20382:20383   */\n      dup4\n        /* \"#utility.yul\":20375:20384   */\n      iszero\n        /* \"#utility.yul\":20355:20438   */\n      or\n        /* \"#utility.yul\":20332:20471   */\n      tag_486\n      jumpi\n        /* \"#utility.yul\":20451:20469   */\n      tag_487\n      tag_274\n      jump\t// in\n    tag_487:\n        /* \"#utility.yul\":20332:20471   */\n    tag_486:\n        /* \"#utility.yul\":20116:20478   */\n      pop\n        /* \"#utility.yul\":20068:20478   */\n      swap3\n      swap2\n      pop\n      pop\n      jump\t// out\n        /* \"#utility.yul\":20484:20570   */\n    tag_306:\n        /* \"#utility.yul\":20519:20526   */\n      0x00\n        /* \"#utility.yul\":20559:20563   */\n      0xff\n        /* \"#utility.yul\":20552:20557   */\n      dup3\n        /* \"#utility.yul\":20548:20564   */\n      and\n        /* \"#utility.yul\":20537:20564   */\n      swap1\n      pop\n        /* \"#utility.yul\":20484:20570   */\n      swap2\n      swap1\n      pop\n      jump\t// out\n        /* \"#utility.yul\":20576:20746   */\n    tag_224:\n        /* \"#utility.yul\":20606:20607   */\n      0x00\n        /* \"#utility.yul\":20623:20641   */\n      tag_490\n        /* \"#utility.yul\":20639:20640   */\n      dup3\n        /* \"#utility.yul\":20623:20641   */\n      tag_306\n      jump\t// in\n    tag_490:\n        /* \"#utility.yul\":20618:20641   */\n      swap2\n      pop\n        /* \"#utility.yul\":20655:20673   */\n      tag_491\n        /* \"#utility.yul\":20671:20672   */\n      dup4\n        /* \"#utility.yul\":20655:20673   */\n      tag_306\n      jump\t// in\n    tag_491:\n        /* \"#utility.yul\":20650:20673   */\n      swap3\n      pop\n        /* \"#utility.yul\":20692:20693   */\n      dup3\n        /* \"#utility.yul\":20682:20717   */\n      tag_492\n      jumpi\n        /* \"#utility.yul\":20697:20715   */\n      tag_493\n      tag_305\n      jump\t// in\n    tag_493:\n        /* \"#utility.yul\":20682:20717   */\n    tag_492:\n        /* \"#utility.yul\":20738:20739   */\n      dup3\n        /* \"#utility.yul\":20735:20736   */\n      dup3\n        /* \"#utility.yul\":20731:20740   */\n      mod\n        /* \"#utility.yul\":20726:20740   */\n      swap1\n      pop\n        /* \"#utility.yul\":20576:20746   */\n      swap3\n      swap2\n      pop\n      pop\n      jump\t// out\n        /* \"#utility.yul\":20752:20940   */\n    tag_226:\n        /* \"#utility.yul\":20790:20793   */\n      0x00\n        /* \"#utility.yul\":20809:20827   */\n      tag_495\n        /* \"#utility.yul\":20825:20826   */\n      dup3\n        /* \"#utility.yul\":20809:20827   */\n      tag_306\n      jump\t// in\n    tag_495:\n        /* \"#utility.yul\":20804:20827   */\n      swap2\n      pop\n        /* \"#utility.yul\":20841:20859   */\n      tag_496\n        /* \"#utility.yul\":20857:20858   */\n      dup4\n        /* \"#utility.yul\":20841:20859   */\n      tag_306\n      jump\t// in\n    tag_496:\n        /* \"#utility.yul\":20836:20859   */\n      swap3\n      pop\n        /* \"#utility.yul\":20882:20883   */\n      dup3\n        /* \"#utility.yul\":20879:20880   */\n      dup3\n        /* \"#utility.yul\":20875:20884   */\n      add\n        /* \"#utility.yul\":20868:20884   */\n      swap1\n      pop\n        /* \"#utility.yul\":20905:20909   */\n      0xff\n        /* \"#utility.yul\":20900:20903   */\n      dup2\n        /* \"#utility.yul\":20897:20910   */\n      gt\n        /* \"#utility.yul\":20894:20933   */\n      iszero\n      tag_497\n      jumpi\n        /* \"#utility.yul\":20913:20931   */\n      tag_498\n      tag_274\n      jump\t// in\n    tag_498:\n        /* \"#utility.yul\":20894:20933   */\n    tag_497:\n        /* \"#utility.yul\":20752:20940   */\n      swap3\n      swap2\n      pop\n      pop\n      jump\t// out\n        /* \"#utility.yul\":20946:21113   */\n    tag_229:\n        /* \"#utility.yul\":20983:20986   */\n      0x00\n        /* \"#utility.yul\":21006:21028   */\n      tag_500\n        /* \"#utility.yul\":21022:21027   */\n      dup3\n        /* \"#utility.yul\":21006:21028   */\n      tag_306\n      jump\t// in\n    tag_500:\n        /* \"#utility.yul\":20997:21028   */\n      swap2\n      pop\n        /* \"#utility.yul\":21050:21054   */\n      0xff\n        /* \"#utility.yul\":21043:21048   */\n      dup3\n        /* \"#utility.yul\":21040:21055   */\n      sub\n        /* \"#utility.yul\":21037:21078   */\n      tag_501\n      jumpi\n        /* \"#utility.yul\":21058:21076   */\n      tag_502\n      tag_274\n      jump\t// in\n    tag_502:\n        /* \"#utility.yul\":21037:21078   */\n    tag_501:\n        /* \"#utility.yul\":21105:21106   */\n      0x01\n        /* \"#utility.yul\":21098:21103   */\n      dup3\n        /* \"#utility.yul\":21094:21107   */\n      add\n        /* \"#utility.yul\":21087:21107   */\n      swap1\n      pop\n        /* \"#utility.yul\":20946:21113   */\n      swap2\n      swap1\n      pop\n      jump\t// out\n        /* \"#utility.yul\":21119:21231   */\n    tag_307:\n        /* \"#utility.yul\":21202:21224   */\n      tag_504\n        /* \"#utility.yul\":21218:21223   */\n      dup2\n        /* \"#utility.yul\":21202:21224   */\n      tag_306\n      jump\t// in\n    tag_504:\n        /* \"#utility.yul\":21197:21200   */\n      dup3\n        /* \"#utility.yul\":21190:21225   */\n      mstore\n        /* \"#utility.yul\":21119:21231   */\n      pop\n      pop\n      jump\t// out\n        /* \"#utility.yul\":21237:21561   */\n    tag_231:\n        /* \"#utility.yul\":21354:21358   */\n      0x00\n        /* \"#utility.yul\":21392:21394   */\n      0x40\n        /* \"#utility.yul\":21381:21390   */\n      dup3\n        /* \"#utility.yul\":21377:21395   */\n      add\n        /* \"#utility.yul\":21369:21395   */\n      swap1\n      pop\n        /* \"#utility.yul\":21405:21476   */\n      tag_506\n        /* \"#utility.yul\":21473:21474   */\n      0x00\n        /* \"#utility.yul\":21462:21471   */\n      dup4\n        /* \"#utility.yul\":21458:21475   */\n      add\n        /* \"#utility.yul\":21449:21455   */\n      dup6\n        /* \"#utility.yul\":21405:21476   */\n      tag_276\n      jump\t// in\n    tag_506:\n        /* \"#utility.yul\":21486:21554   */\n      tag_507\n        /* \"#utility.yul\":21550:21552   */\n      0x20\n        /* \"#utility.yul\":21539:21548   */\n      dup4\n        /* \"#utility.yul\":21535:21553   */\n      add\n        /* \"#utility.yul\":21526:21532   */\n      dup5\n        /* \"#utility.yul\":21486:21554   */\n      tag_307\n      jump\t// in\n    tag_507:\n        /* \"#utility.yul\":21237:21561   */\n      swap4\n      swap3\n      pop\n      pop\n      pop\n      jump\t// out\n        /* \"#utility.yul\":21567:21682   */\n    tag_308:\n        /* \"#utility.yul\":21650:21651   */\n      0x04\n        /* \"#utility.yul\":21643:21648   */\n      dup2\n        /* \"#utility.yul\":21640:21652   */\n      lt\n        /* \"#utility.yul\":21630:21676   */\n      tag_509\n      jumpi\n        /* \"#utility.yul\":21656:21674   */\n      tag_510\n      tag_45\n      jump\t// in\n    tag_510:\n        /* \"#utility.yul\":21630:21676   */\n    tag_509:\n        /* \"#utility.yul\":21567:21682   */\n      pop\n      jump\t// out\n        /* \"#utility.yul\":21688:21819   */\n    tag_309:\n        /* \"#utility.yul\":21735:21742   */\n      0x00\n        /* \"#utility.yul\":21764:21769   */\n      dup2\n        /* \"#utility.yul\":21753:21769   */\n      swap1\n      pop\n        /* \"#utility.yul\":21770:21813   */\n      tag_512\n        /* \"#utility.yul\":21807:21812   */\n      dup3\n        /* \"#utility.yul\":21770:21813   */\n      tag_308\n      jump\t// in\n    tag_512:\n        /* \"#utility.yul\":21688:21819   */\n      swap2\n      swap1\n      pop\n      jump\t// out\n        /* \"#utility.yul\":21825:21956   */\n    tag_310:\n        /* \"#utility.yul\":21883:21892   */\n      0x00\n        /* \"#utility.yul\":21916:21950   */\n      tag_514\n        /* \"#utility.yul\":21944:21949   */\n      dup3\n        /* \"#utility.yul\":21916:21950   */\n      tag_309\n      jump\t// in\n    tag_514:\n        /* \"#utility.yul\":21903:21950   */\n      swap1\n      pop\n        /* \"#utility.yul\":21825:21956   */\n      swap2\n      swap1\n      pop\n      jump\t// out\n        /* \"#utility.yul\":21962:22109   */\n    tag_311:\n        /* \"#utility.yul\":22057:22102   */\n      tag_516\n        /* \"#utility.yul\":22096:22101   */\n      dup2\n        /* \"#utility.yul\":22057:22102   */\n      tag_310\n      jump\t// in\n    tag_516:\n        /* \"#utility.yul\":22052:22055   */\n      dup3\n        /* \"#utility.yul\":22045:22103   */\n      mstore\n        /* \"#utility.yul\":21962:22109   */\n      pop\n      pop\n      jump\t// out\n        /* \"#utility.yul\":22115:22463   */\n    tag_252:\n        /* \"#utility.yul\":22244:22248   */\n      0x00\n        /* \"#utility.yul\":22282:22284   */\n      0x40\n        /* \"#utility.yul\":22271:22280   */\n      dup3\n        /* \"#utility.yul\":22267:22285   */\n      add\n        /* \"#utility.yul\":22259:22285   */\n      swap1\n      pop\n        /* \"#utility.yul\":22295:22366   */\n      tag_518\n        /* \"#utility.yul\":22363:22364   */\n      0x00\n        /* \"#utility.yul\":22352:22361   */\n      dup4\n        /* \"#utility.yul\":22348:22365   */\n      add\n        /* \"#utility.yul\":22339:22345   */\n      dup6\n        /* \"#utility.yul\":22295:22366   */\n      tag_276\n      jump\t// in\n    tag_518:\n        /* \"#utility.yul\":22376:22456   */\n      tag_519\n        /* \"#utility.yul\":22452:22454   */\n      0x20\n        /* \"#utility.yul\":22441:22450   */\n      dup4\n        /* \"#utility.yul\":22437:22455   */\n      add\n        /* \"#utility.yul\":22428:22434   */\n      dup5\n        /* \"#utility.yul\":22376:22456   */\n      tag_311\n      jump\t// in\n    tag_519:\n        /* \"#utility.yul\":22115:22463   */\n      swap4\n      swap3\n      pop\n      pop\n      pop\n      jump\t// out\n\n    auxdata: 0xa26469706673582212206a27a1cbe67262fd4d9de6881eed40993ff8f536543764b8993a8cd5d8a730cb64736f6c634300081e0033\n}\n",
				"bytecode": {
					"linkReferences": {},
					"object": "60806040526001600255348015610014575f5ffd5b5060405161210d38038061210d8339818101604052810190610036919061011a565b815f5f6101000a81548173ffffffffffffffffffffffffffffffffffffffff021916908373ffffffffffffffffffffffffffffffffffffffff1602179055508060015f6101000a81548173ffffffffffffffffffffffffffffffffffffffff021916908373ffffffffffffffffffffffffffffffffffffffff1602179055505050610158565b5f5ffd5b5f73ffffffffffffffffffffffffffffffffffffffff82169050919050565b5f6100e9826100c0565b9050919050565b6100f9816100df565b8114610103575f5ffd5b50565b5f81519050610114816100f0565b92915050565b5f5f604083850312156101305761012f6100bc565b5b5f61013d85828601610106565b925050602061014e85828601610106565b9150509250929050565b611fa8806101655f395ff3fe608060405234801561000f575f5ffd5b5060043610610086575f3560e01c8063afab107e11610059578063afab107e146100ec578063c2897b1014610108578063dae10ed514610112578063fbfa77cf1461011c57610086565b806331a56b831461008a578063566595b2146100a6578063673ee37c146100b05780637dc0d1d0146100ce575b5f5ffd5b6100a4600480360381019061009f91906114a9565b61013a565b005b6100ae610363565b005b6100b861048d565b6040516100c591906114e3565b60405180910390f35b6100d6610493565b6040516100e39190611576565b60405180910390f35b610106600480360381019061010191906114a9565b6104b8565b005b610110610864565b005b61011a610998565b005b610124610b4a565b60405161013191906115af565b60405180910390f35b5f60035f3373ffffffffffffffffffffffffffffffffffffffff1673ffffffffffffffffffffffffffffffffffffffff1681526020019081526020015f2054146101b9576040517f08c379a00000000000000000000000000000000000000000000000000000000081526004016101b090611622565b60405180910390fd5b5f60025f8154809291906101cc9061166d565b9190505590508060035f3373ffffffffffffffffffffffffffffffffffffffff1673ffffffffffffffffffffffffffffffffffffffff1681526020019081526020015f20819055505f60045f8381526020019081526020015f20905081815f018190555033816002015f6101000a81548173ffffffffffffffffffffffffffffffffffffffff021916908373ffffffffffffffffffffffffffffffffffffffff1602179055508281600301819055505f816006015f6101000a81548160ff021916908360ff1602179055505f81600b015f6101000a81548160ff02191690831515021790555060018160060160016101000a81548160ff021916908360048111156102da576102d96116b4565b5b02179055505f81600b0160016101000a81548160ff021916908360ff1602179055505f81600b0160026101000a81548160ff021916908360ff1602179055505f81600101819055507fc3e0f84839dc888c892a013d10c8f9d6dc05a21a879d0ce468ca558013e9121c815f015433604051610356929190611701565b60405180910390a1505050565b5f60035f3373ffffffffffffffffffffffffffffffffffffffff1673ffffffffffffffffffffffffffffffffffffffff1681526020019081526020015f205490505f60045f8381526020019081526020015f20905080600b015f9054906101000a900460ff16610408576040517f08c379a00000000000000000000000000000000000000000000000000000000081526004016103ff90611772565b60405180910390fd5b6002600481111561041c5761041b6116b4565b5b8160060160019054906101000a900460ff1660048111156104405761043f6116b4565b5b14610480576040517f08c379a0000000000000000000000000000000000000000000000000000000008152600401610477906117da565b60405180910390fd5b61048981610b6e565b5050565b60025481565b60015f9054906101000a900473ffffffffffffffffffffffffffffffffffffffff1681565b64174876e80081101580156104d4575066038d7ea4c680008111155b610513576040517f08c379a000000000000000000000000000000000000000000000000000000000815260040161050a90611842565b60405180910390fd5b5f60035f3373ffffffffffffffffffffffffffffffffffffffff1673ffffffffffffffffffffffffffffffffffffffff1681526020019081526020015f205403610592576040517f08c379a0000000000000000000000000000000000000000000000000000000008152600401610589906118aa565b60405180910390fd5b5f60035f3373ffffffffffffffffffffffffffffffffffffffff1673ffffffffffffffffffffffffffffffffffffffff1681526020019081526020015f205490505f60045f8381526020019081526020015f2090505f81600101541461062d576040517f08c379a000000000000000000000000000000000000000000000000000000000815260040161062490611912565b60405180910390fd5b60016004811115610641576106406116b4565b5b8160060160019054906101000a900460ff166004811115610665576106646116b4565b5b146106a5576040517f08c379a000000000000000000000000000000000000000000000000000000000815260040161069c9061197a565b60405180910390fd5b5f5f9054906101000a900473ffffffffffffffffffffffffffffffffffffffff1673ffffffffffffffffffffffffffffffffffffffff1663ef899ee533856040518363ffffffff1660e01b8152600401610700929190611998565b5f604051808303815f87803b158015610717575f5ffd5b505af1158015610729573d5f5f3e3d5ffd5b5050505082816001018190555060015f9054906101000a900473ffffffffffffffffffffffffffffffffffffffff1673ffffffffffffffffffffffffffffffffffffffff1663041df082826004015483600301546040518363ffffffff1660e01b815260040161079a9291906119bf565b602060405180830381865afa1580156107b5573d5f5f3e3d5ffd5b505050506040513d601f19601f820116820180604052508101906107d99190611a19565b816005018190555060028160060160016101000a81548160ff02191690836004811115610809576108086116b4565b5b021790555061081781610bd0565b7f0e97ce5f641b8a03e0f92d0b4480f849cf26a7bfdf17862c8edaf69268e60aad815f015433836001015484600501546040516108579493929190611a53565b60405180910390a1505050565b5f60035f3373ffffffffffffffffffffffffffffffffffffffff1673ffffffffffffffffffffffffffffffffffffffff1681526020019081526020015f205490505f60045f8381526020019081526020015f209050600360048111156108cd576108cc6116b4565b5b8160060160019054906101000a900460ff1660048111156108f1576108f06116b4565b5b14610931576040517f08c379a000000000000000000000000000000000000000000000000000000000815260040161092890611ae0565b60405180910390fd5b60028160060160016101000a81548160ff02191690836004811115610959576109586116b4565b5b02179055505b601181600b0160029054906101000a900460ff1660ff16101561098a5761098581610e34565b61095f565b61099381610ebc565b505050565b5f60035f3373ffffffffffffffffffffffffffffffffffffffff1673ffffffffffffffffffffffffffffffffffffffff1681526020019081526020015f205490505f60045f8381526020019081526020015f209050600480811115610a00576109ff6116b4565b5b8160060160019054906101000a900460ff166004811115610a2457610a236116b4565b5b03610a64576040517f08c379a0000000000000000000000000000000000000000000000000000000008152600401610a5b90611b48565b60405180910390fd5b60036004811115610a7857610a776116b4565b5b8160060160019054906101000a900460ff166004811115610a9c57610a9b6116b4565b5b14610adc576040517f08c379a0000000000000000000000000000000000000000000000000000000008152600401610ad390611bb0565b60405180910390fd5b601581600b0160019054906101000a900460ff1660ff1610610b33576040517f08c379a0000000000000000000000000000000000000000000000000000000008152600401610b2a90611c18565b60405180910390fd5b610b3c8161102f565b610b4581610ebc565b505050565b5f5f9054906101000a900473ffffffffffffffffffffffffffffffffffffffff1681565b610b778161102f565b610b8081610e34565b610b898161102f565b610b9281610e34565b610b9b81610ebc565b610bcd5760038160060160016101000a81548160ff02191690836004811115610bc757610bc66116b4565b5b02179055505b50565b60026004811115610be457610be36116b4565b5b8160060160019054906101000a900460ff166004811115610c0857610c076116b4565b5b14610c48576040517f08c379a0000000000000000000000000000000000000000000000000000000008152600401610c3f90611c80565b60405180910390fd5b5f151581600b015f9054906101000a900460ff16151514610c9e576040517f08c379a0000000000000000000000000000000000000000000000000000000008152600401610c9590611ce8565b60405180910390fd5b5f5f90505b606860ff168160ff161015610cf95780826007018260ff1660688110610ccc57610ccb611d06565b5b602091828204019190066101000a81548160ff021916908360ff1602179055508080600101915050610ca3565b505f5f90505b606860ff16811015610e14575f81606860ff16610d1c9190611d33565b83600501545f1c610d2d9190611d93565b82610d389190611dc3565b9050826007018160688110610d5057610d4f611d06565b5b602091828204019190069054906101000a900460ff16836007018360688110610d7c57610d7b611d06565b5b602091828204019190069054906101000a900460ff16846007018460688110610da857610da7611d06565b5b60209182820401919006866007018560688110610dc857610dc7611d06565b5b602091828204019190068491906101000a81548160ff021916908360ff1602179055508391906101000a81548160ff021916908360ff1602179055505050508080600101915050610cff565b50600181600b015f6101000a81548160ff02191690831515021790555050565b60026004811115610e4857610e476116b4565b5b8160060160019054906101000a900460ff166004811115610e6c57610e6b6116b4565b5b14610e75575f5ffd5b5f610e7f82611076565b9050610e9c8183600b0160029054906101000a900460ff166111d5565b82600b0160026101000a81548160ff021916908360ff1602179055505050565b5f601582600b0160019054906101000a900460ff1660ff161115610eef57610ee68260025f61122a565b6001905061102a565b601582600b0160029054906101000a900460ff1660ff161115610f3157610f2882600160028560010154610f239190611df6565b61122a565b6001905061102a565b610f4b82600b0160019054906101000a900460ff16611446565b8015610f6e5750610f6c82600b0160029054906101000a900460ff16611446565b155b15610f9857610f8f82600160028560010154610f8a9190611df6565b61122a565b6001905061102a565b610fb282600b0160019054906101000a900460ff16611446565b8015610fd45750610fd382600b0160029054906101000a900460ff16611446565b5b15610ff257610fe9826003846001015461122a565b6001905061102a565b61100c82600b0160029054906101000a900460ff16611446565b156110265761101d8260025f61122a565b6001905061102a565b5f90505b919050565b5f61103982611076565b90506110568183600b0160019054906101000a900460ff166111d5565b82600b0160016101000a81548160ff021916908360ff1602179055505050565b5f81600b015f9054906101000a900460ff166110c7576040517f08c379a00000000000000000000000000000000000000000000000000000000081526004016110be90611772565b60405180910390fd5b5f82600701836006015f9054906101000a900460ff1660ff16606881106110f1576110f0611d06565b5b602091828204019190069054906101000a900460ff1690505f6001600d836111199190611e43565b6111239190611e73565b9050600a8160ff16111561113657600a90505b836006015f81819054906101000a900460ff168092919061115690611ea7565b91906101000a81548160ff021916908360ff160217905550507f5cb494422aec3c1d66ad0616d3f90f8641e12057560336165c27bf8793fce9cf846002015f9054906101000a900473ffffffffffffffffffffffffffffffffffffffff16836040516111c3929190611ede565b60405180910390a18092505050919050565b5f5f82846111e39190611e73565b90506111ee84611455565b1561121c5760158160ff1611156112135760018361120c9190611e73565b9250611217565b8092505b611220565b8092505b8291505092915050565b818360060160026101000a81548160ff02191690836003811115611251576112506116b4565b5b021790555060048360060160016101000a81548160ff0219169083600481111561127e5761127d6116b4565b5b02179055505f60035f3373ffffffffffffffffffffffffffffffffffffffff1673ffffffffffffffffffffffffffffffffffffffff1681526020019081526020015f20819055505f811115611379575f5f9054906101000a900473ffffffffffffffffffffffffffffffffffffffff1673ffffffffffffffffffffffffffffffffffffffff1663117de2fd846002015f9054906101000a900473ffffffffffffffffffffffffffffffffffffffff16836040518363ffffffff1660e01b815260040161134b929190611998565b5f604051808303815f87803b158015611362575f5ffd5b505af1158015611374573d5f5f3e3d5ffd5b505050505b60035f846002015f9054906101000a900473ffffffffffffffffffffffffffffffffffffffff1673ffffffffffffffffffffffffffffffffffffffff1673ffffffffffffffffffffffffffffffffffffffff1681526020019081526020015f205f90555f83600101819055507fecdab0d30ae5a2b8d283acf9ed4856306f12f29ef8069fac9148d3d2ac6b4b14836002015f9054906101000a900473ffffffffffffffffffffffffffffffffffffffff1683604051611439929190611f4b565b60405180910390a1505050565b5f60158260ff16149050919050565b5f60018260ff16148061146b5750600b8260ff16145b9050919050565b5f5ffd5b5f819050919050565b61148881611476565b8114611492575f5ffd5b50565b5f813590506114a38161147f565b92915050565b5f602082840312156114be576114bd611472565b5b5f6114cb84828501611495565b91505092915050565b6114dd81611476565b82525050565b5f6020820190506114f65f8301846114d4565b92915050565b5f73ffffffffffffffffffffffffffffffffffffffff82169050919050565b5f819050919050565b5f61153e611539611534846114fc565b61151b565b6114fc565b9050919050565b5f61154f82611524565b9050919050565b5f61156082611545565b9050919050565b61157081611556565b82525050565b5f6020820190506115895f830184611567565b92915050565b5f61159982611545565b9050919050565b6115a98161158f565b82525050565b5f6020820190506115c25f8301846115a0565b92915050565b5f82825260208201905092915050565b7f47616d6520616c726561647920696e2070726f677265737300000000000000005f82015250565b5f61160c6018836115c8565b9150611617826115d8565b602082019050919050565b5f6020820190508181035f83015261163981611600565b9050919050565b7f4e487b71000000000000000000000000000000000000000000000000000000005f52601160045260245ffd5b5f61167782611476565b91507fffffffffffffffffffffffffffffffffffffffffffffffffffffffffffffffff82036116a9576116a8611640565b5b600182019050919050565b7f4e487b71000000000000000000000000000000000000000000000000000000005f52602160045260245ffd5b5f6116eb826114fc565b9050919050565b6116fb816116e1565b82525050565b5f6040820190506117145f8301856114d4565b61172160208301846116f2565b9392505050565b7f4465636b20686173206e6f74206265656e2073687566666c65640000000000005f82015250565b5f61175c601a836115c8565b915061176782611728565b602082019050919050565b5f6020820190508181035f83015261178981611750565b9050919050565b7f4f6e6c7920746865206465616c65722063616e206465616c2068616e647300005f82015250565b5f6117c4601e836115c8565b91506117cf82611790565b602082019050919050565b5f6020820190508181035f8301526117f1816117b8565b9050919050565b7f426574206f7574206f662072616e67652e0000000000000000000000000000005f82015250565b5f61182c6011836115c8565b9150611837826117f8565b602082019050919050565b5f6020820190508181035f83015261185981611820565b9050919050565b7f4e6f206163746976652067616d652063757272656e746c7900000000000000005f82015250565b5f6118946018836115c8565b915061189f82611860565b602082019050919050565b5f6020820190508181035f8301526118c181611888565b9050919050565b7f42657420616c726561647920706c6163656400000000000000000000000000005f82015250565b5f6118fc6012836115c8565b9150611907826118c8565b602082019050919050565b5f6020820190508181035f830152611929816118f0565b9050919050565b7f546f6b656e20686173206e6f74206265656e2061737369676e656400000000005f82015250565b5f611964601b836115c8565b915061196f82611930565b602082019050919050565b5f6020820190508181035f83015261199181611958565b9050919050565b5f6040820190506119ab5f8301856116f2565b6119b860208301846114d4565b9392505050565b5f6040820190506119d25f8301856114d4565b6119df60208301846114d4565b9392505050565b5f819050919050565b6119f8816119e6565b8114611a02575f5ffd5b50565b5f81519050611a13816119ef565b92915050565b5f60208284031215611a2e57611a2d611472565b5b5f611a3b84828501611a05565b91505092915050565b611a4d816119e6565b82525050565b5f608082019050611a665f8301876114d4565b611a7360208301866116f2565b611a8060408301856114d4565b611a8d6060830184611a44565b95945050505050565b7f4e6f2067616d6520686173206265656e207374617274656400000000000000005f82015250565b5f611aca6018836115c8565b9150611ad582611a96565b602082019050919050565b5f6020820190508181035f830152611af781611abe565b9050919050565b7f47616d652068617320616c72656164792066696e6973686564000000000000005f82015250565b5f611b326019836115c8565b9150611b3d82611afe565b602082019050919050565b5f6020820190508181035f830152611b5f81611b26565b9050919050565b7f4974206973206e6f742074686520706c6179657273207475726e0000000000005f82015250565b5f611b9a601a836115c8565b9150611ba582611b66565b602082019050919050565b5f6020820190508181035f830152611bc781611b8e565b9050919050565b7f43616e6e6f7420686974000000000000000000000000000000000000000000005f82015250565b5f611c02600a836115c8565b9150611c0d82611bce565b602082019050919050565b5f6020820190508181035f830152611c2f81611bf6565b9050919050565b7f4f6e6c7920746865206465616c65722063616e2073687566666c6500000000005f82015250565b5f611c6a601b836115c8565b9150611c7582611c36565b602082019050919050565b5f6020820190508181035f830152611c9781611c5e565b9050919050565b7f4465636b2068617320616c7265616479206265656e2073687566666c656400005f82015250565b5f611cd2601e836115c8565b9150611cdd82611c9e565b602082019050919050565b5f6020820190508181035f830152611cff81611cc6565b9050919050565b7f4e487b71000000000000000000000000000000000000000000000000000000005f52603260045260245ffd5b5f611d3d82611476565b9150611d4883611476565b9250828203905081811115611d6057611d5f611640565b5b92915050565b7f4e487b71000000000000000000000000000000000000000000000000000000005f52601260045260245ffd5b5f611d9d82611476565b9150611da883611476565b925082611db857611db7611d66565b5b828206905092915050565b5f611dcd82611476565b9150611dd883611476565b9250828201905080821115611df057611def611640565b5b92915050565b5f611e0082611476565b9150611e0b83611476565b9250828202611e1981611476565b91508282048414831517611e3057611e2f611640565b5b5092915050565b5f60ff82169050919050565b5f611e4d82611e37565b9150611e5883611e37565b925082611e6857611e67611d66565b5b828206905092915050565b5f611e7d82611e37565b9150611e8883611e37565b9250828201905060ff811115611ea157611ea0611640565b5b92915050565b5f611eb182611e37565b915060ff8203611ec457611ec3611640565b5b600182019050919050565b611ed881611e37565b82525050565b5f604082019050611ef15f8301856116f2565b611efe6020830184611ecf565b9392505050565b60048110611f1657611f156116b4565b5b50565b5f819050611f2682611f05565b919050565b5f611f3582611f19565b9050919050565b611f4581611f2b565b82525050565b5f604082019050611f5e5f8301856116f2565b611f6b6020830184611f3c565b939250505056fea26469706673582212206a27a1cbe67262fd4d9de6881eed40993ff8f536543764b8993a8cd5d8a730cb64736f6c634300081e0033",
					"opcodes": "PUSH1 0x80 PUSH1 0x40 MSTORE PUSH1 0x1 PUSH1 0x2 SSTORE CALLVALUE DUP1 ISZERO PUSH2 0x14 JUMPI PUSH0 PUSH0 REVERT JUMPDEST POP PUSH1 0x40 MLOAD PUSH2 0x210D CODESIZE SUB DUP1 PUSH2 0x210D DUP4 CODECOPY DUP2 DUP2 ADD PUSH1 0x40 MSTORE DUP2 ADD SWAP1 PUSH2 0x36 SWAP2 SWAP1 PUSH2 0x11A JUMP JUMPDEST DUP2 PUSH0 PUSH0 PUSH2 0x100 EXP DUP2 SLOAD DUP2 PUSH20 0xFFFFFFFFFFFFFFFFFFFFFFFFFFFFFFFFFFFFFFFF MUL NOT AND SWAP1 DUP4 PUSH20 0xFFFFFFFFFFFFFFFFFFFFFFFFFFFFFFFFFFFFFFFF AND MUL OR SWAP1 SSTORE POP DUP1 PUSH1 0x1 PUSH0 PUSH2 0x100 EXP DUP2 SLOAD DUP2 PUSH20 0xFFFFFFFFFFFFFFFFFFFFFFFFFFFFFFFFFFFFFFFF MUL NOT AND SWAP1 DUP4 PUSH20 0xFFFFFFFFFFFFFFFFFFFFFFFFFFFFFFFFFFFFFFFF AND MUL OR SWAP1 SSTORE POP POP POP PUSH2 0x158 JUMP JUMPDEST PUSH0 PUSH0 REVERT JUMPDEST PUSH0 PUSH20 0xFFFFFFFFFFFFFFFFFFFFFFFFFFFFFFFFFFFFFFFF DUP3 AND SWAP1 POP SWAP2 SWAP1 POP JUMP JUMPDEST PUSH0 PUSH2 0xE9 DUP3 PUSH2 0xC0 JUMP JUMPDEST SWAP1 POP SWAP2 SWAP1 POP JUMP JUMPDEST PUSH2 0xF9 DUP2 PUSH2 0xDF JUMP JUMPDEST DUP2 EQ PUSH2 0x103 JUMPI PUSH0 PUSH0 REVERT JUMPDEST POP JUMP JUMPDEST PUSH0 DUP2 MLOAD SWAP1 POP PUSH2 0x114 DUP2 PUSH2 0xF0 JUMP JUMPDEST SWAP3 SWAP2 POP POP JUMP JUMPDEST PUSH0 PUSH0 PUSH1 0x40 DUP4 DUP6 SUB SLT ISZERO PUSH2 0x130 JUMPI PUSH2 0x12F PUSH2 0xBC JUMP JUMPDEST JUMPDEST PUSH0 PUSH2 0x13D DUP6 DUP3 DUP7 ADD PUSH2 0x106 JUMP JUMPDEST SWAP3 POP POP PUSH1 0x20 PUSH2 0x14E DUP6 DUP3 DUP7 ADD PUSH2 0x106 JUMP JUMPDEST SWAP2 POP POP SWAP3 POP SWAP3 SWAP1 POP JUMP JUMPDEST PUSH2 0x1FA8 DUP1 PUSH2 0x165 PUSH0 CODECOPY PUSH0 RETURN INVALID PUSH1 0x80 PUSH1 0x40 MSTORE CALLVALUE DUP1 ISZERO PUSH2 0xF JUMPI PUSH0 PUSH0 REVERT JUMPDEST POP PUSH1 0x4 CALLDATASIZE LT PUSH2 0x86 JUMPI PUSH0 CALLDATALOAD PUSH1 0xE0 SHR DUP1 PUSH4 0xAFAB107E GT PUSH2 0x59 JUMPI DUP1 PUSH4 0xAFAB107E EQ PUSH2 0xEC JUMPI DUP1 PUSH4 0xC2897B10 EQ PUSH2 0x108 JUMPI DUP1 PUSH4 0xDAE10ED5 EQ PUSH2 0x112 JUMPI DUP1 PUSH4 0xFBFA77CF EQ PUSH2 0x11C JUMPI PUSH2 0x86 JUMP JUMPDEST DUP1 PUSH4 0x31A56B83 EQ PUSH2 0x8A JUMPI DUP1 PUSH4 0x566595B2 EQ PUSH2 0xA6 JUMPI DUP1 PUSH4 0x673EE37C EQ PUSH2 0xB0 JUMPI DUP1 PUSH4 0x7DC0D1D0 EQ PUSH2 0xCE JUMPI JUMPDEST PUSH0 PUSH0 REVERT JUMPDEST PUSH2 0xA4 PUSH1 0x4 DUP1 CALLDATASIZE SUB DUP2 ADD SWAP1 PUSH2 0x9F SWAP2 SWAP1 PUSH2 0x14A9 JUMP JUMPDEST PUSH2 0x13A JUMP JUMPDEST STOP JUMPDEST PUSH2 0xAE PUSH2 0x363 JUMP JUMPDEST STOP JUMPDEST PUSH2 0xB8 PUSH2 0x48D JUMP JUMPDEST PUSH1 0x40 MLOAD PUSH2 0xC5 SWAP2 SWAP1 PUSH2 0x14E3 JUMP JUMPDEST PUSH1 0x40 MLOAD DUP1 SWAP2 SUB SWAP1 RETURN JUMPDEST PUSH2 0xD6 PUSH2 0x493 JUMP JUMPDEST PUSH1 0x40 MLOAD PUSH2 0xE3 SWAP2 SWAP1 PUSH2 0x1576 JUMP JUMPDEST PUSH1 0x40 MLOAD DUP1 SWAP2 SUB SWAP1 RETURN JUMPDEST PUSH2 0x106 PUSH1 0x4 DUP1 CALLDATASIZE SUB DUP2 ADD SWAP1 PUSH2 0x101 SWAP2 SWAP1 PUSH2 0x14A9 JUMP JUMPDEST PUSH2 0x4B8 JUMP JUMPDEST STOP JUMPDEST PUSH2 0x110 PUSH2 0x864 JUMP JUMPDEST STOP JUMPDEST PUSH2 0x11A PUSH2 0x998 JUMP JUMPDEST STOP JUMPDEST PUSH2 0x124 PUSH2 0xB4A JUMP JUMPDEST PUSH1 0x40 MLOAD PUSH2 0x131 SWAP2 SWAP1 PUSH2 0x15AF JUMP JUMPDEST PUSH1 0x40 MLOAD DUP1 SWAP2 SUB SWAP1 RETURN JUMPDEST PUSH0 PUSH1 0x3 PUSH0 CALLER PUSH20 0xFFFFFFFFFFFFFFFFFFFFFFFFFFFFFFFFFFFFFFFF AND PUSH20 0xFFFFFFFFFFFFFFFFFFFFFFFFFFFFFFFFFFFFFFFF AND DUP2 MSTORE PUSH1 0x20 ADD SWAP1 DUP2 MSTORE PUSH1 0x20 ADD PUSH0 KECCAK256 SLOAD EQ PUSH2 0x1B9 JUMPI PUSH1 0x40 MLOAD PUSH32 0x8C379A000000000000000000000000000000000000000000000000000000000 DUP2 MSTORE PUSH1 0x4 ADD PUSH2 0x1B0 SWAP1 PUSH2 0x1622 JUMP JUMPDEST PUSH1 0x40 MLOAD DUP1 SWAP2 SUB SWAP1 REVERT JUMPDEST PUSH0 PUSH1 0x2 PUSH0 DUP2 SLOAD DUP1 SWAP3 SWAP2 SWAP1 PUSH2 0x1CC SWAP1 PUSH2 0x166D JUMP JUMPDEST SWAP2 SWAP1 POP SSTORE SWAP1 POP DUP1 PUSH1 0x3 PUSH0 CALLER PUSH20 0xFFFFFFFFFFFFFFFFFFFFFFFFFFFFFFFFFFFFFFFF AND PUSH20 0xFFFFFFFFFFFFFFFFFFFFFFFFFFFFFFFFFFFFFFFF AND DUP2 MSTORE PUSH1 0x20 ADD SWAP1 DUP2 MSTORE PUSH1 0x20 ADD PUSH0 KECCAK256 DUP2 SWAP1 SSTORE POP PUSH0 PUSH1 0x4 PUSH0 DUP4 DUP2 MSTORE PUSH1 0x20 ADD SWAP1 DUP2 MSTORE PUSH1 0x20 ADD PUSH0 KECCAK256 SWAP1 POP DUP2 DUP2 PUSH0 ADD DUP2 SWAP1 SSTORE POP CALLER DUP2 PUSH1 0x2 ADD PUSH0 PUSH2 0x100 EXP DUP2 SLOAD DUP2 PUSH20 0xFFFFFFFFFFFFFFFFFFFFFFFFFFFFFFFFFFFFFFFF MUL NOT AND SWAP1 DUP4 PUSH20 0xFFFFFFFFFFFFFFFFFFFFFFFFFFFFFFFFFFFFFFFF AND MUL OR SWAP1 SSTORE POP DUP3 DUP2 PUSH1 0x3 ADD DUP2 SWAP1 SSTORE POP PUSH0 DUP2 PUSH1 0x6 ADD PUSH0 PUSH2 0x100 EXP DUP2 SLOAD DUP2 PUSH1 0xFF MUL NOT AND SWAP1 DUP4 PUSH1 0xFF AND MUL OR SWAP1 SSTORE POP PUSH0 DUP2 PUSH1 0xB ADD PUSH0 PUSH2 0x100 EXP DUP2 SLOAD DUP2 PUSH1 0xFF MUL NOT AND SWAP1 DUP4 ISZERO ISZERO MUL OR SWAP1 SSTORE POP PUSH1 0x1 DUP2 PUSH1 0x6 ADD PUSH1 0x1 PUSH2 0x100 EXP DUP2 SLOAD DUP2 PUSH1 0xFF MUL NOT AND SWAP1 DUP4 PUSH1 0x4 DUP2 GT ISZERO PUSH2 0x2DA JUMPI PUSH2 0x2D9 PUSH2 0x16B4 JUMP JUMPDEST JUMPDEST MUL OR SWAP1 SSTORE POP PUSH0 DUP2 PUSH1 0xB ADD PUSH1 0x1 PUSH2 0x100 EXP DUP2 SLOAD DUP2 PUSH1 0xFF MUL NOT AND SWAP1 DUP4 PUSH1 0xFF AND MUL OR SWAP1 SSTORE POP PUSH0 DUP2 PUSH1 0xB ADD PUSH1 0x2 PUSH2 0x100 EXP DUP2 SLOAD DUP2 PUSH1 0xFF MUL NOT AND SWAP1 DUP4 PUSH1 0xFF AND MUL OR SWAP1 SSTORE POP PUSH0 DUP2 PUSH1 0x1 ADD DUP2 SWAP1 SSTORE POP PUSH32 0xC3E0F84839DC888C892A013D10C8F9D6DC05A21A879D0CE468CA558013E9121C DUP2 PUSH0 ADD SLOAD CALLER PUSH1 0x40 MLOAD PUSH2 0x356 SWAP3 SWAP2 SWAP1 PUSH2 0x1701 JUMP JUMPDEST PUSH1 0x40 MLOAD DUP1 SWAP2 SUB SWAP1 LOG1 POP POP POP JUMP JUMPDEST PUSH0 PUSH1 0x3 PUSH0 CALLER PUSH20 0xFFFFFFFFFFFFFFFFFFFFFFFFFFFFFFFFFFFFFFFF AND PUSH20 0xFFFFFFFFFFFFFFFFFFFFFFFFFFFFFFFFFFFFFFFF AND DUP2 MSTORE PUSH1 0x20 ADD SWAP1 DUP2 MSTORE PUSH1 0x20 ADD PUSH0 KECCAK256 SLOAD SWAP1 POP PUSH0 PUSH1 0x4 PUSH0 DUP4 DUP2 MSTORE PUSH1 0x20 ADD SWAP1 DUP2 MSTORE PUSH1 0x20 ADD PUSH0 KECCAK256 SWAP1 POP DUP1 PUSH1 0xB ADD PUSH0 SWAP1 SLOAD SWAP1 PUSH2 0x100 EXP SWAP1 DIV PUSH1 0xFF AND PUSH2 0x408 JUMPI PUSH1 0x40 MLOAD PUSH32 0x8C379A000000000000000000000000000000000000000000000000000000000 DUP2 MSTORE PUSH1 0x4 ADD PUSH2 0x3FF SWAP1 PUSH2 0x1772 JUMP JUMPDEST PUSH1 0x40 MLOAD DUP1 SWAP2 SUB SWAP1 REVERT JUMPDEST PUSH1 0x2 PUSH1 0x4 DUP2 GT ISZERO PUSH2 0x41C JUMPI PUSH2 0x41B PUSH2 0x16B4 JUMP JUMPDEST JUMPDEST DUP2 PUSH1 0x6 ADD PUSH1 0x1 SWAP1 SLOAD SWAP1 PUSH2 0x100 EXP SWAP1 DIV PUSH1 0xFF AND PUSH1 0x4 DUP2 GT ISZERO PUSH2 0x440 JUMPI PUSH2 0x43F PUSH2 0x16B4 JUMP JUMPDEST JUMPDEST EQ PUSH2 0x480 JUMPI PUSH1 0x40 MLOAD PUSH32 0x8C379A000000000000000000000000000000000000000000000000000000000 DUP2 MSTORE PUSH1 0x4 ADD PUSH2 0x477 SWAP1 PUSH2 0x17DA JUMP JUMPDEST PUSH1 0x40 MLOAD DUP1 SWAP2 SUB SWAP1 REVERT JUMPDEST PUSH2 0x489 DUP2 PUSH2 0xB6E JUMP JUMPDEST POP POP JUMP JUMPDEST PUSH1 0x2 SLOAD DUP2 JUMP JUMPDEST PUSH1 0x1 PUSH0 SWAP1 SLOAD SWAP1 PUSH2 0x100 EXP SWAP1 DIV PUSH20 0xFFFFFFFFFFFFFFFFFFFFFFFFFFFFFFFFFFFFFFFF AND DUP2 JUMP JUMPDEST PUSH5 0x174876E800 DUP2 LT ISZERO DUP1 ISZERO PUSH2 0x4D4 JUMPI POP PUSH7 0x38D7EA4C68000 DUP2 GT ISZERO JUMPDEST PUSH2 0x513 JUMPI PUSH1 0x40 MLOAD PUSH32 0x8C379A000000000000000000000000000000000000000000000000000000000 DUP2 MSTORE PUSH1 0x4 ADD PUSH2 0x50A SWAP1 PUSH2 0x1842 JUMP JUMPDEST PUSH1 0x40 MLOAD DUP1 SWAP2 SUB SWAP1 REVERT JUMPDEST PUSH0 PUSH1 0x3 PUSH0 CALLER PUSH20 0xFFFFFFFFFFFFFFFFFFFFFFFFFFFFFFFFFFFFFFFF AND PUSH20 0xFFFFFFFFFFFFFFFFFFFFFFFFFFFFFFFFFFFFFFFF AND DUP2 MSTORE PUSH1 0x20 ADD SWAP1 DUP2 MSTORE PUSH1 0x20 ADD PUSH0 KECCAK256 SLOAD SUB PUSH2 0x592 JUMPI PUSH1 0x40 MLOAD PUSH32 0x8C379A000000000000000000000000000000000000000000000000000000000 DUP2 MSTORE PUSH1 0x4 ADD PUSH2 0x589 SWAP1 PUSH2 0x18AA JUMP JUMPDEST PUSH1 0x40 MLOAD DUP1 SWAP2 SUB SWAP1 REVERT JUMPDEST PUSH0 PUSH1 0x3 PUSH0 CALLER PUSH20 0xFFFFFFFFFFFFFFFFFFFFFFFFFFFFFFFFFFFFFFFF AND PUSH20 0xFFFFFFFFFFFFFFFFFFFFFFFFFFFFFFFFFFFFFFFF AND DUP2 MSTORE PUSH1 0x20 ADD SWAP1 DUP2 MSTORE PUSH1 0x20 ADD PUSH0 KECCAK256 SLOAD SWAP1 POP PUSH0 PUSH1 0x4 PUSH0 DUP4 DUP2 MSTORE PUSH1 0x20 ADD SWAP1 DUP2 MSTORE PUSH1 0x20 ADD PUSH0 KECCAK256 SWAP1 POP PUSH0 DUP2 PUSH1 0x1 ADD SLOAD EQ PUSH2 0x62D JUMPI PUSH1 0x40 MLOAD PUSH32 0x8C379A000000000000000000000000000000000000000000000000000000000 DUP2 MSTORE PUSH1 0x4 ADD PUSH2 0x624 SWAP1 PUSH2 0x1912 JUMP JUMPDEST PUSH1 0x40 MLOAD DUP1 SWAP2 SUB SWAP1 REVERT JUMPDEST PUSH1 0x1 PUSH1 0x4 DUP2 GT ISZERO PUSH2 0x641 JUMPI PUSH2 0x640 PUSH2 0x16B4 JUMP JUMPDEST JUMPDEST DUP2 PUSH1 0x6 ADD PUSH1 0x1 SWAP1 SLOAD SWAP1 PUSH2 0x100 EXP SWAP1 DIV PUSH1 0xFF AND PUSH1 0x4 DUP2 GT ISZERO PUSH2 0x665 JUMPI PUSH2 0x664 PUSH2 0x16B4 JUMP JUMPDEST JUMPDEST EQ PUSH2 0x6A5 JUMPI PUSH1 0x40 MLOAD PUSH32 0x8C379A000000000000000000000000000000000000000000000000000000000 DUP2 MSTORE PUSH1 0x4 ADD PUSH2 0x69C SWAP1 PUSH2 0x197A JUMP JUMPDEST PUSH1 0x40 MLOAD DUP1 SWAP2 SUB SWAP1 REVERT JUMPDEST PUSH0 PUSH0 SWAP1 SLOAD SWAP1 PUSH2 0x100 EXP SWAP1 DIV PUSH20 0xFFFFFFFFFFFFFFFFFFFFFFFFFFFFFFFFFFFFFFFF AND PUSH20 0xFFFFFFFFFFFFFFFFFFFFFFFFFFFFFFFFFFFFFFFF AND PUSH4 0xEF899EE5 CALLER DUP6 PUSH1 0x40 MLOAD DUP4 PUSH4 0xFFFFFFFF AND PUSH1 0xE0 SHL DUP2 MSTORE PUSH1 0x4 ADD PUSH2 0x700 SWAP3 SWAP2 SWAP1 PUSH2 0x1998 JUMP JUMPDEST PUSH0 PUSH1 0x40 MLOAD DUP1 DUP4 SUB DUP2 PUSH0 DUP8 DUP1 EXTCODESIZE ISZERO DUP1 ISZERO PUSH2 0x717 JUMPI PUSH0 PUSH0 REVERT JUMPDEST POP GAS CALL ISZERO DUP1 ISZERO PUSH2 0x729 JUMPI RETURNDATASIZE PUSH0 PUSH0 RETURNDATACOPY RETURNDATASIZE PUSH0 REVERT JUMPDEST POP POP POP POP DUP3 DUP2 PUSH1 0x1 ADD DUP2 SWAP1 SSTORE POP PUSH1 0x1 PUSH0 SWAP1 SLOAD SWAP1 PUSH2 0x100 EXP SWAP1 DIV PUSH20 0xFFFFFFFFFFFFFFFFFFFFFFFFFFFFFFFFFFFFFFFF AND PUSH20 0xFFFFFFFFFFFFFFFFFFFFFFFFFFFFFFFFFFFFFFFF AND PUSH4 0x41DF082 DUP3 PUSH1 0x4 ADD SLOAD DUP4 PUSH1 0x3 ADD SLOAD PUSH1 0x40 MLOAD DUP4 PUSH4 0xFFFFFFFF AND PUSH1 0xE0 SHL DUP2 MSTORE PUSH1 0x4 ADD PUSH2 0x79A SWAP3 SWAP2 SWAP1 PUSH2 0x19BF JUMP JUMPDEST PUSH1 0x20 PUSH1 0x40 MLOAD DUP1 DUP4 SUB DUP2 DUP7 GAS STATICCALL ISZERO DUP1 ISZERO PUSH2 0x7B5 JUMPI RETURNDATASIZE PUSH0 PUSH0 RETURNDATACOPY RETURNDATASIZE PUSH0 REVERT JUMPDEST POP POP POP POP PUSH1 0x40 MLOAD RETURNDATASIZE PUSH1 0x1F NOT PUSH1 0x1F DUP3 ADD AND DUP3 ADD DUP1 PUSH1 0x40 MSTORE POP DUP2 ADD SWAP1 PUSH2 0x7D9 SWAP2 SWAP1 PUSH2 0x1A19 JUMP JUMPDEST DUP2 PUSH1 0x5 ADD DUP2 SWAP1 SSTORE POP PUSH1 0x2 DUP2 PUSH1 0x6 ADD PUSH1 0x1 PUSH2 0x100 EXP DUP2 SLOAD DUP2 PUSH1 0xFF MUL NOT AND SWAP1 DUP4 PUSH1 0x4 DUP2 GT ISZERO PUSH2 0x809 JUMPI PUSH2 0x808 PUSH2 0x16B4 JUMP JUMPDEST JUMPDEST MUL OR SWAP1 SSTORE POP PUSH2 0x817 DUP2 PUSH2 0xBD0 JUMP JUMPDEST PUSH32 0xE97CE5F641B8A03E0F92D0B4480F849CF26A7BFDF17862C8EDAF69268E60AAD DUP2 PUSH0 ADD SLOAD CALLER DUP4 PUSH1 0x1 ADD SLOAD DUP5 PUSH1 0x5 ADD SLOAD PUSH1 0x40 MLOAD PUSH2 0x857 SWAP5 SWAP4 SWAP3 SWAP2 SWAP1 PUSH2 0x1A53 JUMP JUMPDEST PUSH1 0x40 MLOAD DUP1 SWAP2 SUB SWAP1 LOG1 POP POP POP JUMP JUMPDEST PUSH0 PUSH1 0x3 PUSH0 CALLER PUSH20 0xFFFFFFFFFFFFFFFFFFFFFFFFFFFFFFFFFFFFFFFF AND PUSH20 0xFFFFFFFFFFFFFFFFFFFFFFFFFFFFFFFFFFFFFFFF AND DUP2 MSTORE PUSH1 0x20 ADD SWAP1 DUP2 MSTORE PUSH1 0x20 ADD PUSH0 KECCAK256 SLOAD SWAP1 POP PUSH0 PUSH1 0x4 PUSH0 DUP4 DUP2 MSTORE PUSH1 0x20 ADD SWAP1 DUP2 MSTORE PUSH1 0x20 ADD PUSH0 KECCAK256 SWAP1 POP PUSH1 0x3 PUSH1 0x4 DUP2 GT ISZERO PUSH2 0x8CD JUMPI PUSH2 0x8CC PUSH2 0x16B4 JUMP JUMPDEST JUMPDEST DUP2 PUSH1 0x6 ADD PUSH1 0x1 SWAP1 SLOAD SWAP1 PUSH2 0x100 EXP SWAP1 DIV PUSH1 0xFF AND PUSH1 0x4 DUP2 GT ISZERO PUSH2 0x8F1 JUMPI PUSH2 0x8F0 PUSH2 0x16B4 JUMP JUMPDEST JUMPDEST EQ PUSH2 0x931 JUMPI PUSH1 0x40 MLOAD PUSH32 0x8C379A000000000000000000000000000000000000000000000000000000000 DUP2 MSTORE PUSH1 0x4 ADD PUSH2 0x928 SWAP1 PUSH2 0x1AE0 JUMP JUMPDEST PUSH1 0x40 MLOAD DUP1 SWAP2 SUB SWAP1 REVERT JUMPDEST PUSH1 0x2 DUP2 PUSH1 0x6 ADD PUSH1 0x1 PUSH2 0x100 EXP DUP2 SLOAD DUP2 PUSH1 0xFF MUL NOT AND SWAP1 DUP4 PUSH1 0x4 DUP2 GT ISZERO PUSH2 0x959 JUMPI PUSH2 0x958 PUSH2 0x16B4 JUMP JUMPDEST JUMPDEST MUL OR SWAP1 SSTORE POP JUMPDEST PUSH1 0x11 DUP2 PUSH1 0xB ADD PUSH1 0x2 SWAP1 SLOAD SWAP1 PUSH2 0x100 EXP SWAP1 DIV PUSH1 0xFF AND PUSH1 0xFF AND LT ISZERO PUSH2 0x98A JUMPI PUSH2 0x985 DUP2 PUSH2 0xE34 JUMP JUMPDEST PUSH2 0x95F JUMP JUMPDEST PUSH2 0x993 DUP2 PUSH2 0xEBC JUMP JUMPDEST POP POP POP JUMP JUMPDEST PUSH0 PUSH1 0x3 PUSH0 CALLER PUSH20 0xFFFFFFFFFFFFFFFFFFFFFFFFFFFFFFFFFFFFFFFF AND PUSH20 0xFFFFFFFFFFFFFFFFFFFFFFFFFFFFFFFFFFFFFFFF AND DUP2 MSTORE PUSH1 0x20 ADD SWAP1 DUP2 MSTORE PUSH1 0x20 ADD PUSH0 KECCAK256 SLOAD SWAP1 POP PUSH0 PUSH1 0x4 PUSH0 DUP4 DUP2 MSTORE PUSH1 0x20 ADD SWAP1 DUP2 MSTORE PUSH1 0x20 ADD PUSH0 KECCAK256 SWAP1 POP PUSH1 0x4 DUP1 DUP2 GT ISZERO PUSH2 0xA00 JUMPI PUSH2 0x9FF PUSH2 0x16B4 JUMP JUMPDEST JUMPDEST DUP2 PUSH1 0x6 ADD PUSH1 0x1 SWAP1 SLOAD SWAP1 PUSH2 0x100 EXP SWAP1 DIV PUSH1 0xFF AND PUSH1 0x4 DUP2 GT ISZERO PUSH2 0xA24 JUMPI PUSH2 0xA23 PUSH2 0x16B4 JUMP JUMPDEST JUMPDEST SUB PUSH2 0xA64 JUMPI PUSH1 0x40 MLOAD PUSH32 0x8C379A000000000000000000000000000000000000000000000000000000000 DUP2 MSTORE PUSH1 0x4 ADD PUSH2 0xA5B SWAP1 PUSH2 0x1B48 JUMP JUMPDEST PUSH1 0x40 MLOAD DUP1 SWAP2 SUB SWAP1 REVERT JUMPDEST PUSH1 0x3 PUSH1 0x4 DUP2 GT ISZERO PUSH2 0xA78 JUMPI PUSH2 0xA77 PUSH2 0x16B4 JUMP JUMPDEST JUMPDEST DUP2 PUSH1 0x6 ADD PUSH1 0x1 SWAP1 SLOAD SWAP1 PUSH2 0x100 EXP SWAP1 DIV PUSH1 0xFF AND PUSH1 0x4 DUP2 GT ISZERO PUSH2 0xA9C JUMPI PUSH2 0xA9B PUSH2 0x16B4 JUMP JUMPDEST JUMPDEST EQ PUSH2 0xADC JUMPI PUSH1 0x40 MLOAD PUSH32 0x8C379A000000000000000000000000000000000000000000000000000000000 DUP2 MSTORE PUSH1 0x4 ADD PUSH2 0xAD3 SWAP1 PUSH2 0x1BB0 JUMP JUMPDEST PUSH1 0x40 MLOAD DUP1 SWAP2 SUB SWAP1 REVERT JUMPDEST PUSH1 0x15 DUP2 PUSH1 0xB ADD PUSH1 0x1 SWAP1 SLOAD SWAP1 PUSH2 0x100 EXP SWAP1 DIV PUSH1 0xFF AND PUSH1 0xFF AND LT PUSH2 0xB33 JUMPI PUSH1 0x40 MLOAD PUSH32 0x8C379A000000000000000000000000000000000000000000000000000000000 DUP2 MSTORE PUSH1 0x4 ADD PUSH2 0xB2A SWAP1 PUSH2 0x1C18 JUMP JUMPDEST PUSH1 0x40 MLOAD DUP1 SWAP2 SUB SWAP1 REVERT JUMPDEST PUSH2 0xB3C DUP2 PUSH2 0x102F JUMP JUMPDEST PUSH2 0xB45 DUP2 PUSH2 0xEBC JUMP JUMPDEST POP POP POP JUMP JUMPDEST PUSH0 PUSH0 SWAP1 SLOAD SWAP1 PUSH2 0x100 EXP SWAP1 DIV PUSH20 0xFFFFFFFFFFFFFFFFFFFFFFFFFFFFFFFFFFFFFFFF AND DUP2 JUMP JUMPDEST PUSH2 0xB77 DUP2 PUSH2 0x102F JUMP JUMPDEST PUSH2 0xB80 DUP2 PUSH2 0xE34 JUMP JUMPDEST PUSH2 0xB89 DUP2 PUSH2 0x102F JUMP JUMPDEST PUSH2 0xB92 DUP2 PUSH2 0xE34 JUMP JUMPDEST PUSH2 0xB9B DUP2 PUSH2 0xEBC JUMP JUMPDEST PUSH2 0xBCD JUMPI PUSH1 0x3 DUP2 PUSH1 0x6 ADD PUSH1 0x1 PUSH2 0x100 EXP DUP2 SLOAD DUP2 PUSH1 0xFF MUL NOT AND SWAP1 DUP4 PUSH1 0x4 DUP2 GT ISZERO PUSH2 0xBC7 JUMPI PUSH2 0xBC6 PUSH2 0x16B4 JUMP JUMPDEST JUMPDEST MUL OR SWAP1 SSTORE POP JUMPDEST POP JUMP JUMPDEST PUSH1 0x2 PUSH1 0x4 DUP2 GT ISZERO PUSH2 0xBE4 JUMPI PUSH2 0xBE3 PUSH2 0x16B4 JUMP JUMPDEST JUMPDEST DUP2 PUSH1 0x6 ADD PUSH1 0x1 SWAP1 SLOAD SWAP1 PUSH2 0x100 EXP SWAP1 DIV PUSH1 0xFF AND PUSH1 0x4 DUP2 GT ISZERO PUSH2 0xC08 JUMPI PUSH2 0xC07 PUSH2 0x16B4 JUMP JUMPDEST JUMPDEST EQ PUSH2 0xC48 JUMPI PUSH1 0x40 MLOAD PUSH32 0x8C379A000000000000000000000000000000000000000000000000000000000 DUP2 MSTORE PUSH1 0x4 ADD PUSH2 0xC3F SWAP1 PUSH2 0x1C80 JUMP JUMPDEST PUSH1 0x40 MLOAD DUP1 SWAP2 SUB SWAP1 REVERT JUMPDEST PUSH0 ISZERO ISZERO DUP2 PUSH1 0xB ADD PUSH0 SWAP1 SLOAD SWAP1 PUSH2 0x100 EXP SWAP1 DIV PUSH1 0xFF AND ISZERO ISZERO EQ PUSH2 0xC9E JUMPI PUSH1 0x40 MLOAD PUSH32 0x8C379A000000000000000000000000000000000000000000000000000000000 DUP2 MSTORE PUSH1 0x4 ADD PUSH2 0xC95 SWAP1 PUSH2 0x1CE8 JUMP JUMPDEST PUSH1 0x40 MLOAD DUP1 SWAP2 SUB SWAP1 REVERT JUMPDEST PUSH0 PUSH0 SWAP1 POP JUMPDEST PUSH1 0x68 PUSH1 0xFF AND DUP2 PUSH1 0xFF AND LT ISZERO PUSH2 0xCF9 JUMPI DUP1 DUP3 PUSH1 0x7 ADD DUP3 PUSH1 0xFF AND PUSH1 0x68 DUP2 LT PUSH2 0xCCC JUMPI PUSH2 0xCCB PUSH2 0x1D06 JUMP JUMPDEST JUMPDEST PUSH1 0x20 SWAP2 DUP3 DUP3 DIV ADD SWAP2 SWAP1 MOD PUSH2 0x100 EXP DUP2 SLOAD DUP2 PUSH1 0xFF MUL NOT AND SWAP1 DUP4 PUSH1 0xFF AND MUL OR SWAP1 SSTORE POP DUP1 DUP1 PUSH1 0x1 ADD SWAP2 POP POP PUSH2 0xCA3 JUMP JUMPDEST POP PUSH0 PUSH0 SWAP1 POP JUMPDEST PUSH1 0x68 PUSH1 0xFF AND DUP2 LT ISZERO PUSH2 0xE14 JUMPI PUSH0 DUP2 PUSH1 0x68 PUSH1 0xFF AND PUSH2 0xD1C SWAP2 SWAP1 PUSH2 0x1D33 JUMP JUMPDEST DUP4 PUSH1 0x5 ADD SLOAD PUSH0 SHR PUSH2 0xD2D SWAP2 SWAP1 PUSH2 0x1D93 JUMP JUMPDEST DUP3 PUSH2 0xD38 SWAP2 SWAP1 PUSH2 0x1DC3 JUMP JUMPDEST SWAP1 POP DUP3 PUSH1 0x7 ADD DUP2 PUSH1 0x68 DUP2 LT PUSH2 0xD50 JUMPI PUSH2 0xD4F PUSH2 0x1D06 JUMP JUMPDEST JUMPDEST PUSH1 0x20 SWAP2 DUP3 DUP3 DIV ADD SWAP2 SWAP1 MOD SWAP1 SLOAD SWAP1 PUSH2 0x100 EXP SWAP1 DIV PUSH1 0xFF AND DUP4 PUSH1 0x7 ADD DUP4 PUSH1 0x68 DUP2 LT PUSH2 0xD7C JUMPI PUSH2 0xD7B PUSH2 0x1D06 JUMP JUMPDEST JUMPDEST PUSH1 0x20 SWAP2 DUP3 DUP3 DIV ADD SWAP2 SWAP1 MOD SWAP1 SLOAD SWAP1 PUSH2 0x100 EXP SWAP1 DIV PUSH1 0xFF AND DUP5 PUSH1 0x7 ADD DUP5 PUSH1 0x68 DUP2 LT PUSH2 0xDA8 JUMPI PUSH2 0xDA7 PUSH2 0x1D06 JUMP JUMPDEST JUMPDEST PUSH1 0x20 SWAP2 DUP3 DUP3 DIV ADD SWAP2 SWAP1 MOD DUP7 PUSH1 0x7 ADD DUP6 PUSH1 0x68 DUP2 LT PUSH2 0xDC8 JUMPI PUSH2 0xDC7 PUSH2 0x1D06 JUMP JUMPDEST JUMPDEST PUSH1 0x20 SWAP2 DUP3 DUP3 DIV ADD SWAP2 SWAP1 MOD DUP5 SWAP2 SWAP1 PUSH2 0x100 EXP DUP2 SLOAD DUP2 PUSH1 0xFF MUL NOT AND SWAP1 DUP4 PUSH1 0xFF AND MUL OR SWAP1 SSTORE POP DUP4 SWAP2 SWAP1 PUSH2 0x100 EXP DUP2 SLOAD DUP2 PUSH1 0xFF MUL NOT AND SWAP1 DUP4 PUSH1 0xFF AND MUL OR SWAP1 SSTORE POP POP POP POP DUP1 DUP1 PUSH1 0x1 ADD SWAP2 POP POP PUSH2 0xCFF JUMP JUMPDEST POP PUSH1 0x1 DUP2 PUSH1 0xB ADD PUSH0 PUSH2 0x100 EXP DUP2 SLOAD DUP2 PUSH1 0xFF MUL NOT AND SWAP1 DUP4 ISZERO ISZERO MUL OR SWAP1 SSTORE POP POP JUMP JUMPDEST PUSH1 0x2 PUSH1 0x4 DUP2 GT ISZERO PUSH2 0xE48 JUMPI PUSH2 0xE47 PUSH2 0x16B4 JUMP JUMPDEST JUMPDEST DUP2 PUSH1 0x6 ADD PUSH1 0x1 SWAP1 SLOAD SWAP1 PUSH2 0x100 EXP SWAP1 DIV PUSH1 0xFF AND PUSH1 0x4 DUP2 GT ISZERO PUSH2 0xE6C JUMPI PUSH2 0xE6B PUSH2 0x16B4 JUMP JUMPDEST JUMPDEST EQ PUSH2 0xE75 JUMPI PUSH0 PUSH0 REVERT JUMPDEST PUSH0 PUSH2 0xE7F DUP3 PUSH2 0x1076 JUMP JUMPDEST SWAP1 POP PUSH2 0xE9C DUP2 DUP4 PUSH1 0xB ADD PUSH1 0x2 SWAP1 SLOAD SWAP1 PUSH2 0x100 EXP SWAP1 DIV PUSH1 0xFF AND PUSH2 0x11D5 JUMP JUMPDEST DUP3 PUSH1 0xB ADD PUSH1 0x2 PUSH2 0x100 EXP DUP2 SLOAD DUP2 PUSH1 0xFF MUL NOT AND SWAP1 DUP4 PUSH1 0xFF AND MUL OR SWAP1 SSTORE POP POP POP JUMP JUMPDEST PUSH0 PUSH1 0x15 DUP3 PUSH1 0xB ADD PUSH1 0x1 SWAP1 SLOAD SWAP1 PUSH2 0x100 EXP SWAP1 DIV PUSH1 0xFF AND PUSH1 0xFF AND GT ISZERO PUSH2 0xEEF JUMPI PUSH2 0xEE6 DUP3 PUSH1 0x2 PUSH0 PUSH2 0x122A JUMP JUMPDEST PUSH1 0x1 SWAP1 POP PUSH2 0x102A JUMP JUMPDEST PUSH1 0x15 DUP3 PUSH1 0xB ADD PUSH1 0x2 SWAP1 SLOAD SWAP1 PUSH2 0x100 EXP SWAP1 DIV PUSH1 0xFF AND PUSH1 0xFF AND GT ISZERO PUSH2 0xF31 JUMPI PUSH2 0xF28 DUP3 PUSH1 0x1 PUSH1 0x2 DUP6 PUSH1 0x1 ADD SLOAD PUSH2 0xF23 SWAP2 SWAP1 PUSH2 0x1DF6 JUMP JUMPDEST PUSH2 0x122A JUMP JUMPDEST PUSH1 0x1 SWAP1 POP PUSH2 0x102A JUMP JUMPDEST PUSH2 0xF4B DUP3 PUSH1 0xB ADD PUSH1 0x1 SWAP1 SLOAD SWAP1 PUSH2 0x100 EXP SWAP1 DIV PUSH1 0xFF AND PUSH2 0x1446 JUMP JUMPDEST DUP1 ISZERO PUSH2 0xF6E JUMPI POP PUSH2 0xF6C DUP3 PUSH1 0xB ADD PUSH1 0x2 SWAP1 SLOAD SWAP1 PUSH2 0x100 EXP SWAP1 DIV PUSH1 0xFF AND PUSH2 0x1446 JUMP JUMPDEST ISZERO JUMPDEST ISZERO PUSH2 0xF98 JUMPI PUSH2 0xF8F DUP3 PUSH1 0x1 PUSH1 0x2 DUP6 PUSH1 0x1 ADD SLOAD PUSH2 0xF8A SWAP2 SWAP1 PUSH2 0x1DF6 JUMP JUMPDEST PUSH2 0x122A JUMP JUMPDEST PUSH1 0x1 SWAP1 POP PUSH2 0x102A JUMP JUMPDEST PUSH2 0xFB2 DUP3 PUSH1 0xB ADD PUSH1 0x1 SWAP1 SLOAD SWAP1 PUSH2 0x100 EXP SWAP1 DIV PUSH1 0xFF AND PUSH2 0x1446 JUMP JUMPDEST DUP1 ISZERO PUSH2 0xFD4 JUMPI POP PUSH2 0xFD3 DUP3 PUSH1 0xB ADD PUSH1 0x2 SWAP1 SLOAD SWAP1 PUSH2 0x100 EXP SWAP1 DIV PUSH1 0xFF AND PUSH2 0x1446 JUMP JUMPDEST JUMPDEST ISZERO PUSH2 0xFF2 JUMPI PUSH2 0xFE9 DUP3 PUSH1 0x3 DUP5 PUSH1 0x1 ADD SLOAD PUSH2 0x122A JUMP JUMPDEST PUSH1 0x1 SWAP1 POP PUSH2 0x102A JUMP JUMPDEST PUSH2 0x100C DUP3 PUSH1 0xB ADD PUSH1 0x2 SWAP1 SLOAD SWAP1 PUSH2 0x100 EXP SWAP1 DIV PUSH1 0xFF AND PUSH2 0x1446 JUMP JUMPDEST ISZERO PUSH2 0x1026 JUMPI PUSH2 0x101D DUP3 PUSH1 0x2 PUSH0 PUSH2 0x122A JUMP JUMPDEST PUSH1 0x1 SWAP1 POP PUSH2 0x102A JUMP JUMPDEST PUSH0 SWAP1 POP JUMPDEST SWAP2 SWAP1 POP JUMP JUMPDEST PUSH0 PUSH2 0x1039 DUP3 PUSH2 0x1076 JUMP JUMPDEST SWAP1 POP PUSH2 0x1056 DUP2 DUP4 PUSH1 0xB ADD PUSH1 0x1 SWAP1 SLOAD SWAP1 PUSH2 0x100 EXP SWAP1 DIV PUSH1 0xFF AND PUSH2 0x11D5 JUMP JUMPDEST DUP3 PUSH1 0xB ADD PUSH1 0x1 PUSH2 0x100 EXP DUP2 SLOAD DUP2 PUSH1 0xFF MUL NOT AND SWAP1 DUP4 PUSH1 0xFF AND MUL OR SWAP1 SSTORE POP POP POP JUMP JUMPDEST PUSH0 DUP2 PUSH1 0xB ADD PUSH0 SWAP1 SLOAD SWAP1 PUSH2 0x100 EXP SWAP1 DIV PUSH1 0xFF AND PUSH2 0x10C7 JUMPI PUSH1 0x40 MLOAD PUSH32 0x8C379A000000000000000000000000000000000000000000000000000000000 DUP2 MSTORE PUSH1 0x4 ADD PUSH2 0x10BE SWAP1 PUSH2 0x1772 JUMP JUMPDEST PUSH1 0x40 MLOAD DUP1 SWAP2 SUB SWAP1 REVERT JUMPDEST PUSH0 DUP3 PUSH1 0x7 ADD DUP4 PUSH1 0x6 ADD PUSH0 SWAP1 SLOAD SWAP1 PUSH2 0x100 EXP SWAP1 DIV PUSH1 0xFF AND PUSH1 0xFF AND PUSH1 0x68 DUP2 LT PUSH2 0x10F1 JUMPI PUSH2 0x10F0 PUSH2 0x1D06 JUMP JUMPDEST JUMPDEST PUSH1 0x20 SWAP2 DUP3 DUP3 DIV ADD SWAP2 SWAP1 MOD SWAP1 SLOAD SWAP1 PUSH2 0x100 EXP SWAP1 DIV PUSH1 0xFF AND SWAP1 POP PUSH0 PUSH1 0x1 PUSH1 0xD DUP4 PUSH2 0x1119 SWAP2 SWAP1 PUSH2 0x1E43 JUMP JUMPDEST PUSH2 0x1123 SWAP2 SWAP1 PUSH2 0x1E73 JUMP JUMPDEST SWAP1 POP PUSH1 0xA DUP2 PUSH1 0xFF AND GT ISZERO PUSH2 0x1136 JUMPI PUSH1 0xA SWAP1 POP JUMPDEST DUP4 PUSH1 0x6 ADD PUSH0 DUP2 DUP2 SWAP1 SLOAD SWAP1 PUSH2 0x100 EXP SWAP1 DIV PUSH1 0xFF AND DUP1 SWAP3 SWAP2 SWAP1 PUSH2 0x1156 SWAP1 PUSH2 0x1EA7 JUMP JUMPDEST SWAP2 SWAP1 PUSH2 0x100 EXP DUP2 SLOAD DUP2 PUSH1 0xFF MUL NOT AND SWAP1 DUP4 PUSH1 0xFF AND MUL OR SWAP1 SSTORE POP POP PUSH32 0x5CB494422AEC3C1D66AD0616D3F90F8641E12057560336165C27BF8793FCE9CF DUP5 PUSH1 0x2 ADD PUSH0 SWAP1 SLOAD SWAP1 PUSH2 0x100 EXP SWAP1 DIV PUSH20 0xFFFFFFFFFFFFFFFFFFFFFFFFFFFFFFFFFFFFFFFF AND DUP4 PUSH1 0x40 MLOAD PUSH2 0x11C3 SWAP3 SWAP2 SWAP1 PUSH2 0x1EDE JUMP JUMPDEST PUSH1 0x40 MLOAD DUP1 SWAP2 SUB SWAP1 LOG1 DUP1 SWAP3 POP POP POP SWAP2 SWAP1 POP JUMP JUMPDEST PUSH0 PUSH0 DUP3 DUP5 PUSH2 0x11E3 SWAP2 SWAP1 PUSH2 0x1E73 JUMP JUMPDEST SWAP1 POP PUSH2 0x11EE DUP5 PUSH2 0x1455 JUMP JUMPDEST ISZERO PUSH2 0x121C JUMPI PUSH1 0x15 DUP2 PUSH1 0xFF AND GT ISZERO PUSH2 0x1213 JUMPI PUSH1 0x1 DUP4 PUSH2 0x120C SWAP2 SWAP1 PUSH2 0x1E73 JUMP JUMPDEST SWAP3 POP PUSH2 0x1217 JUMP JUMPDEST DUP1 SWAP3 POP JUMPDEST PUSH2 0x1220 JUMP JUMPDEST DUP1 SWAP3 POP JUMPDEST DUP3 SWAP2 POP POP SWAP3 SWAP2 POP POP JUMP JUMPDEST DUP2 DUP4 PUSH1 0x6 ADD PUSH1 0x2 PUSH2 0x100 EXP DUP2 SLOAD DUP2 PUSH1 0xFF MUL NOT AND SWAP1 DUP4 PUSH1 0x3 DUP2 GT ISZERO PUSH2 0x1251 JUMPI PUSH2 0x1250 PUSH2 0x16B4 JUMP JUMPDEST JUMPDEST MUL OR SWAP1 SSTORE POP PUSH1 0x4 DUP4 PUSH1 0x6 ADD PUSH1 0x1 PUSH2 0x100 EXP DUP2 SLOAD DUP2 PUSH1 0xFF MUL NOT AND SWAP1 DUP4 PUSH1 0x4 DUP2 GT ISZERO PUSH2 0x127E JUMPI PUSH2 0x127D PUSH2 0x16B4 JUMP JUMPDEST JUMPDEST MUL OR SWAP1 SSTORE POP PUSH0 PUSH1 0x3 PUSH0 CALLER PUSH20 0xFFFFFFFFFFFFFFFFFFFFFFFFFFFFFFFFFFFFFFFF AND PUSH20 0xFFFFFFFFFFFFFFFFFFFFFFFFFFFFFFFFFFFFFFFF AND DUP2 MSTORE PUSH1 0x20 ADD SWAP1 DUP2 MSTORE PUSH1 0x20 ADD PUSH0 KECCAK256 DUP2 SWAP1 SSTORE POP PUSH0 DUP2 GT ISZERO PUSH2 0x1379 JUMPI PUSH0 PUSH0 SWAP1 SLOAD SWAP1 PUSH2 0x100 EXP SWAP1 DIV PUSH20 0xFFFFFFFFFFFFFFFFFFFFFFFFFFFFFFFFFFFFFFFF AND PUSH20 0xFFFFFFFFFFFFFFFFFFFFFFFFFFFFFFFFFFFFFFFF AND PUSH4 0x117DE2FD DUP5 PUSH1 0x2 ADD PUSH0 SWAP1 SLOAD SWAP1 PUSH2 0x100 EXP SWAP1 DIV PUSH20 0xFFFFFFFFFFFFFFFFFFFFFFFFFFFFFFFFFFFFFFFF AND DUP4 PUSH1 0x40 MLOAD DUP4 PUSH4 0xFFFFFFFF AND PUSH1 0xE0 SHL DUP2 MSTORE PUSH1 0x4 ADD PUSH2 0x134B SWAP3 SWAP2 SWAP1 PUSH2 0x1998 JUMP JUMPDEST PUSH0 PUSH1 0x40 MLOAD DUP1 DUP4 SUB DUP2 PUSH0 DUP8 DUP1 EXTCODESIZE ISZERO DUP1 ISZERO PUSH2 0x1362 JUMPI PUSH0 PUSH0 REVERT JUMPDEST POP GAS CALL ISZERO DUP1 ISZERO PUSH2 0x1374 JUMPI RETURNDATASIZE PUSH0 PUSH0 RETURNDATACOPY RETURNDATASIZE PUSH0 REVERT JUMPDEST POP POP POP POP JUMPDEST PUSH1 0x3 PUSH0 DUP5 PUSH1 0x2 ADD PUSH0 SWAP1 SLOAD SWAP1 PUSH2 0x100 EXP SWAP1 DIV PUSH20 0xFFFFFFFFFFFFFFFFFFFFFFFFFFFFFFFFFFFFFFFF AND PUSH20 0xFFFFFFFFFFFFFFFFFFFFFFFFFFFFFFFFFFFFFFFF AND PUSH20 0xFFFFFFFFFFFFFFFFFFFFFFFFFFFFFFFFFFFFFFFF AND DUP2 MSTORE PUSH1 0x20 ADD SWAP1 DUP2 MSTORE PUSH1 0x20 ADD PUSH0 KECCAK256 PUSH0 SWAP1 SSTORE PUSH0 DUP4 PUSH1 0x1 ADD DUP2 SWAP1 SSTORE POP PUSH32 0xECDAB0D30AE5A2B8D283ACF9ED4856306F12F29EF8069FAC9148D3D2AC6B4B14 DUP4 PUSH1 0x2 ADD PUSH0 SWAP1 SLOAD SWAP1 PUSH2 0x100 EXP SWAP1 DIV PUSH20 0xFFFFFFFFFFFFFFFFFFFFFFFFFFFFFFFFFFFFFFFF AND DUP4 PUSH1 0x40 MLOAD PUSH2 0x1439 SWAP3 SWAP2 SWAP1 PUSH2 0x1F4B JUMP JUMPDEST PUSH1 0x40 MLOAD DUP1 SWAP2 SUB SWAP1 LOG1 POP POP POP JUMP JUMPDEST PUSH0 PUSH1 0x15 DUP3 PUSH1 0xFF AND EQ SWAP1 POP SWAP2 SWAP1 POP JUMP JUMPDEST PUSH0 PUSH1 0x1 DUP3 PUSH1 0xFF AND EQ DUP1 PUSH2 0x146B JUMPI POP PUSH1 0xB DUP3 PUSH1 0xFF AND EQ JUMPDEST SWAP1 POP SWAP2 SWAP1 POP JUMP JUMPDEST PUSH0 PUSH0 REVERT JUMPDEST PUSH0 DUP2 SWAP1 POP SWAP2 SWAP1 POP JUMP JUMPDEST PUSH2 0x1488 DUP2 PUSH2 0x1476 JUMP JUMPDEST DUP2 EQ PUSH2 0x1492 JUMPI PUSH0 PUSH0 REVERT JUMPDEST POP JUMP JUMPDEST PUSH0 DUP2 CALLDATALOAD SWAP1 POP PUSH2 0x14A3 DUP2 PUSH2 0x147F JUMP JUMPDEST SWAP3 SWAP2 POP POP JUMP JUMPDEST PUSH0 PUSH1 0x20 DUP3 DUP5 SUB SLT ISZERO PUSH2 0x14BE JUMPI PUSH2 0x14BD PUSH2 0x1472 JUMP JUMPDEST JUMPDEST PUSH0 PUSH2 0x14CB DUP5 DUP3 DUP6 ADD PUSH2 0x1495 JUMP JUMPDEST SWAP2 POP POP SWAP3 SWAP2 POP POP JUMP JUMPDEST PUSH2 0x14DD DUP2 PUSH2 0x1476 JUMP JUMPDEST DUP3 MSTORE POP POP JUMP JUMPDEST PUSH0 PUSH1 0x20 DUP3 ADD SWAP1 POP PUSH2 0x14F6 PUSH0 DUP4 ADD DUP5 PUSH2 0x14D4 JUMP JUMPDEST SWAP3 SWAP2 POP POP JUMP JUMPDEST PUSH0 PUSH20 0xFFFFFFFFFFFFFFFFFFFFFFFFFFFFFFFFFFFFFFFF DUP3 AND SWAP1 POP SWAP2 SWAP1 POP JUMP JUMPDEST PUSH0 DUP2 SWAP1 POP SWAP2 SWAP1 POP JUMP JUMPDEST PUSH0 PUSH2 0x153E PUSH2 0x1539 PUSH2 0x1534 DUP5 PUSH2 0x14FC JUMP JUMPDEST PUSH2 0x151B JUMP JUMPDEST PUSH2 0x14FC JUMP JUMPDEST SWAP1 POP SWAP2 SWAP1 POP JUMP JUMPDEST PUSH0 PUSH2 0x154F DUP3 PUSH2 0x1524 JUMP JUMPDEST SWAP1 POP SWAP2 SWAP1 POP JUMP JUMPDEST PUSH0 PUSH2 0x1560 DUP3 PUSH2 0x1545 JUMP JUMPDEST SWAP1 POP SWAP2 SWAP1 POP JUMP JUMPDEST PUSH2 0x1570 DUP2 PUSH2 0x1556 JUMP JUMPDEST DUP3 MSTORE POP POP JUMP JUMPDEST PUSH0 PUSH1 0x20 DUP3 ADD SWAP1 POP PUSH2 0x1589 PUSH0 DUP4 ADD DUP5 PUSH2 0x1567 JUMP JUMPDEST SWAP3 SWAP2 POP POP JUMP JUMPDEST PUSH0 PUSH2 0x1599 DUP3 PUSH2 0x1545 JUMP JUMPDEST SWAP1 POP SWAP2 SWAP1 POP JUMP JUMPDEST PUSH2 0x15A9 DUP2 PUSH2 0x158F JUMP JUMPDEST DUP3 MSTORE POP POP JUMP JUMPDEST PUSH0 PUSH1 0x20 DUP3 ADD SWAP1 POP PUSH2 0x15C2 PUSH0 DUP4 ADD DUP5 PUSH2 0x15A0 JUMP JUMPDEST SWAP3 SWAP2 POP POP JUMP JUMPDEST PUSH0 DUP3 DUP3 MSTORE PUSH1 0x20 DUP3 ADD SWAP1 POP SWAP3 SWAP2 POP POP JUMP JUMPDEST PUSH32 0x47616D6520616C726561647920696E2070726F67726573730000000000000000 PUSH0 DUP3 ADD MSTORE POP JUMP JUMPDEST PUSH0 PUSH2 0x160C PUSH1 0x18 DUP4 PUSH2 0x15C8 JUMP JUMPDEST SWAP2 POP PUSH2 0x1617 DUP3 PUSH2 0x15D8 JUMP JUMPDEST PUSH1 0x20 DUP3 ADD SWAP1 POP SWAP2 SWAP1 POP JUMP JUMPDEST PUSH0 PUSH1 0x20 DUP3 ADD SWAP1 POP DUP2 DUP2 SUB PUSH0 DUP4 ADD MSTORE PUSH2 0x1639 DUP2 PUSH2 0x1600 JUMP JUMPDEST SWAP1 POP SWAP2 SWAP1 POP JUMP JUMPDEST PUSH32 0x4E487B7100000000000000000000000000000000000000000000000000000000 PUSH0 MSTORE PUSH1 0x11 PUSH1 0x4 MSTORE PUSH1 0x24 PUSH0 REVERT JUMPDEST PUSH0 PUSH2 0x1677 DUP3 PUSH2 0x1476 JUMP JUMPDEST SWAP2 POP PUSH32 0xFFFFFFFFFFFFFFFFFFFFFFFFFFFFFFFFFFFFFFFFFFFFFFFFFFFFFFFFFFFFFFFF DUP3 SUB PUSH2 0x16A9 JUMPI PUSH2 0x16A8 PUSH2 0x1640 JUMP JUMPDEST JUMPDEST PUSH1 0x1 DUP3 ADD SWAP1 POP SWAP2 SWAP1 POP JUMP JUMPDEST PUSH32 0x4E487B7100000000000000000000000000000000000000000000000000000000 PUSH0 MSTORE PUSH1 0x21 PUSH1 0x4 MSTORE PUSH1 0x24 PUSH0 REVERT JUMPDEST PUSH0 PUSH2 0x16EB DUP3 PUSH2 0x14FC JUMP JUMPDEST SWAP1 POP SWAP2 SWAP1 POP JUMP JUMPDEST PUSH2 0x16FB DUP2 PUSH2 0x16E1 JUMP JUMPDEST DUP3 MSTORE POP POP JUMP JUMPDEST PUSH0 PUSH1 0x40 DUP3 ADD SWAP1 POP PUSH2 0x1714 PUSH0 DUP4 ADD DUP6 PUSH2 0x14D4 JUMP JUMPDEST PUSH2 0x1721 PUSH1 0x20 DUP4 ADD DUP5 PUSH2 0x16F2 JUMP JUMPDEST SWAP4 SWAP3 POP POP POP JUMP JUMPDEST PUSH32 0x4465636B20686173206E6F74206265656E2073687566666C6564000000000000 PUSH0 DUP3 ADD MSTORE POP JUMP JUMPDEST PUSH0 PUSH2 0x175C PUSH1 0x1A DUP4 PUSH2 0x15C8 JUMP JUMPDEST SWAP2 POP PUSH2 0x1767 DUP3 PUSH2 0x1728 JUMP JUMPDEST PUSH1 0x20 DUP3 ADD SWAP1 POP SWAP2 SWAP1 POP JUMP JUMPDEST PUSH0 PUSH1 0x20 DUP3 ADD SWAP1 POP DUP2 DUP2 SUB PUSH0 DUP4 ADD MSTORE PUSH2 0x1789 DUP2 PUSH2 0x1750 JUMP JUMPDEST SWAP1 POP SWAP2 SWAP1 POP JUMP JUMPDEST PUSH32 0x4F6E6C7920746865206465616C65722063616E206465616C2068616E64730000 PUSH0 DUP3 ADD MSTORE POP JUMP JUMPDEST PUSH0 PUSH2 0x17C4 PUSH1 0x1E DUP4 PUSH2 0x15C8 JUMP JUMPDEST SWAP2 POP PUSH2 0x17CF DUP3 PUSH2 0x1790 JUMP JUMPDEST PUSH1 0x20 DUP3 ADD SWAP1 POP SWAP2 SWAP1 POP JUMP JUMPDEST PUSH0 PUSH1 0x20 DUP3 ADD SWAP1 POP DUP2 DUP2 SUB PUSH0 DUP4 ADD MSTORE PUSH2 0x17F1 DUP2 PUSH2 0x17B8 JUMP JUMPDEST SWAP1 POP SWAP2 SWAP1 POP JUMP JUMPDEST PUSH32 0x426574206F7574206F662072616E67652E000000000000000000000000000000 PUSH0 DUP3 ADD MSTORE POP JUMP JUMPDEST PUSH0 PUSH2 0x182C PUSH1 0x11 DUP4 PUSH2 0x15C8 JUMP JUMPDEST SWAP2 POP PUSH2 0x1837 DUP3 PUSH2 0x17F8 JUMP JUMPDEST PUSH1 0x20 DUP3 ADD SWAP1 POP SWAP2 SWAP1 POP JUMP JUMPDEST PUSH0 PUSH1 0x20 DUP3 ADD SWAP1 POP DUP2 DUP2 SUB PUSH0 DUP4 ADD MSTORE PUSH2 0x1859 DUP2 PUSH2 0x1820 JUMP JUMPDEST SWAP1 POP SWAP2 SWAP1 POP JUMP JUMPDEST PUSH32 0x4E6F206163746976652067616D652063757272656E746C790000000000000000 PUSH0 DUP3 ADD MSTORE POP JUMP JUMPDEST PUSH0 PUSH2 0x1894 PUSH1 0x18 DUP4 PUSH2 0x15C8 JUMP JUMPDEST SWAP2 POP PUSH2 0x189F DUP3 PUSH2 0x1860 JUMP JUMPDEST PUSH1 0x20 DUP3 ADD SWAP1 POP SWAP2 SWAP1 POP JUMP JUMPDEST PUSH0 PUSH1 0x20 DUP3 ADD SWAP1 POP DUP2 DUP2 SUB PUSH0 DUP4 ADD MSTORE PUSH2 0x18C1 DUP2 PUSH2 0x1888 JUMP JUMPDEST SWAP1 POP SWAP2 SWAP1 POP JUMP JUMPDEST PUSH32 0x42657420616C726561647920706C616365640000000000000000000000000000 PUSH0 DUP3 ADD MSTORE POP JUMP JUMPDEST PUSH0 PUSH2 0x18FC PUSH1 0x12 DUP4 PUSH2 0x15C8 JUMP JUMPDEST SWAP2 POP PUSH2 0x1907 DUP3 PUSH2 0x18C8 JUMP JUMPDEST PUSH1 0x20 DUP3 ADD SWAP1 POP SWAP2 SWAP1 POP JUMP JUMPDEST PUSH0 PUSH1 0x20 DUP3 ADD SWAP1 POP DUP2 DUP2 SUB PUSH0 DUP4 ADD MSTORE PUSH2 0x1929 DUP2 PUSH2 0x18F0 JUMP JUMPDEST SWAP1 POP SWAP2 SWAP1 POP JUMP JUMPDEST PUSH32 0x546F6B656E20686173206E6F74206265656E2061737369676E65640000000000 PUSH0 DUP3 ADD MSTORE POP JUMP JUMPDEST PUSH0 PUSH2 0x1964 PUSH1 0x1B DUP4 PUSH2 0x15C8 JUMP JUMPDEST SWAP2 POP PUSH2 0x196F DUP3 PUSH2 0x1930 JUMP JUMPDEST PUSH1 0x20 DUP3 ADD SWAP1 POP SWAP2 SWAP1 POP JUMP JUMPDEST PUSH0 PUSH1 0x20 DUP3 ADD SWAP1 POP DUP2 DUP2 SUB PUSH0 DUP4 ADD MSTORE PUSH2 0x1991 DUP2 PUSH2 0x1958 JUMP JUMPDEST SWAP1 POP SWAP2 SWAP1 POP JUMP JUMPDEST PUSH0 PUSH1 0x40 DUP3 ADD SWAP1 POP PUSH2 0x19AB PUSH0 DUP4 ADD DUP6 PUSH2 0x16F2 JUMP JUMPDEST PUSH2 0x19B8 PUSH1 0x20 DUP4 ADD DUP5 PUSH2 0x14D4 JUMP JUMPDEST SWAP4 SWAP3 POP POP POP JUMP JUMPDEST PUSH0 PUSH1 0x40 DUP3 ADD SWAP1 POP PUSH2 0x19D2 PUSH0 DUP4 ADD DUP6 PUSH2 0x14D4 JUMP JUMPDEST PUSH2 0x19DF PUSH1 0x20 DUP4 ADD DUP5 PUSH2 0x14D4 JUMP JUMPDEST SWAP4 SWAP3 POP POP POP JUMP JUMPDEST PUSH0 DUP2 SWAP1 POP SWAP2 SWAP1 POP JUMP JUMPDEST PUSH2 0x19F8 DUP2 PUSH2 0x19E6 JUMP JUMPDEST DUP2 EQ PUSH2 0x1A02 JUMPI PUSH0 PUSH0 REVERT JUMPDEST POP JUMP JUMPDEST PUSH0 DUP2 MLOAD SWAP1 POP PUSH2 0x1A13 DUP2 PUSH2 0x19EF JUMP JUMPDEST SWAP3 SWAP2 POP POP JUMP JUMPDEST PUSH0 PUSH1 0x20 DUP3 DUP5 SUB SLT ISZERO PUSH2 0x1A2E JUMPI PUSH2 0x1A2D PUSH2 0x1472 JUMP JUMPDEST JUMPDEST PUSH0 PUSH2 0x1A3B DUP5 DUP3 DUP6 ADD PUSH2 0x1A05 JUMP JUMPDEST SWAP2 POP POP SWAP3 SWAP2 POP POP JUMP JUMPDEST PUSH2 0x1A4D DUP2 PUSH2 0x19E6 JUMP JUMPDEST DUP3 MSTORE POP POP JUMP JUMPDEST PUSH0 PUSH1 0x80 DUP3 ADD SWAP1 POP PUSH2 0x1A66 PUSH0 DUP4 ADD DUP8 PUSH2 0x14D4 JUMP JUMPDEST PUSH2 0x1A73 PUSH1 0x20 DUP4 ADD DUP7 PUSH2 0x16F2 JUMP JUMPDEST PUSH2 0x1A80 PUSH1 0x40 DUP4 ADD DUP6 PUSH2 0x14D4 JUMP JUMPDEST PUSH2 0x1A8D PUSH1 0x60 DUP4 ADD DUP5 PUSH2 0x1A44 JUMP JUMPDEST SWAP6 SWAP5 POP POP POP POP POP JUMP JUMPDEST PUSH32 0x4E6F2067616D6520686173206265656E20737461727465640000000000000000 PUSH0 DUP3 ADD MSTORE POP JUMP JUMPDEST PUSH0 PUSH2 0x1ACA PUSH1 0x18 DUP4 PUSH2 0x15C8 JUMP JUMPDEST SWAP2 POP PUSH2 0x1AD5 DUP3 PUSH2 0x1A96 JUMP JUMPDEST PUSH1 0x20 DUP3 ADD SWAP1 POP SWAP2 SWAP1 POP JUMP JUMPDEST PUSH0 PUSH1 0x20 DUP3 ADD SWAP1 POP DUP2 DUP2 SUB PUSH0 DUP4 ADD MSTORE PUSH2 0x1AF7 DUP2 PUSH2 0x1ABE JUMP JUMPDEST SWAP1 POP SWAP2 SWAP1 POP JUMP JUMPDEST PUSH32 0x47616D652068617320616C72656164792066696E697368656400000000000000 PUSH0 DUP3 ADD MSTORE POP JUMP JUMPDEST PUSH0 PUSH2 0x1B32 PUSH1 0x19 DUP4 PUSH2 0x15C8 JUMP JUMPDEST SWAP2 POP PUSH2 0x1B3D DUP3 PUSH2 0x1AFE JUMP JUMPDEST PUSH1 0x20 DUP3 ADD SWAP1 POP SWAP2 SWAP1 POP JUMP JUMPDEST PUSH0 PUSH1 0x20 DUP3 ADD SWAP1 POP DUP2 DUP2 SUB PUSH0 DUP4 ADD MSTORE PUSH2 0x1B5F DUP2 PUSH2 0x1B26 JUMP JUMPDEST SWAP1 POP SWAP2 SWAP1 POP JUMP JUMPDEST PUSH32 0x4974206973206E6F742074686520706C6179657273207475726E000000000000 PUSH0 DUP3 ADD MSTORE POP JUMP JUMPDEST PUSH0 PUSH2 0x1B9A PUSH1 0x1A DUP4 PUSH2 0x15C8 JUMP JUMPDEST SWAP2 POP PUSH2 0x1BA5 DUP3 PUSH2 0x1B66 JUMP JUMPDEST PUSH1 0x20 DUP3 ADD SWAP1 POP SWAP2 SWAP1 POP JUMP JUMPDEST PUSH0 PUSH1 0x20 DUP3 ADD SWAP1 POP DUP2 DUP2 SUB PUSH0 DUP4 ADD MSTORE PUSH2 0x1BC7 DUP2 PUSH2 0x1B8E JUMP JUMPDEST SWAP1 POP SWAP2 SWAP1 POP JUMP JUMPDEST PUSH32 0x43616E6E6F742068697400000000000000000000000000000000000000000000 PUSH0 DUP3 ADD MSTORE POP JUMP JUMPDEST PUSH0 PUSH2 0x1C02 PUSH1 0xA DUP4 PUSH2 0x15C8 JUMP JUMPDEST SWAP2 POP PUSH2 0x1C0D DUP3 PUSH2 0x1BCE JUMP JUMPDEST PUSH1 0x20 DUP3 ADD SWAP1 POP SWAP2 SWAP1 POP JUMP JUMPDEST PUSH0 PUSH1 0x20 DUP3 ADD SWAP1 POP DUP2 DUP2 SUB PUSH0 DUP4 ADD MSTORE PUSH2 0x1C2F DUP2 PUSH2 0x1BF6 JUMP JUMPDEST SWAP1 POP SWAP2 SWAP1 POP JUMP JUMPDEST PUSH32 0x4F6E6C7920746865206465616C65722063616E2073687566666C650000000000 PUSH0 DUP3 ADD MSTORE POP JUMP JUMPDEST PUSH0 PUSH2 0x1C6A PUSH1 0x1B DUP4 PUSH2 0x15C8 JUMP JUMPDEST SWAP2 POP PUSH2 0x1C75 DUP3 PUSH2 0x1C36 JUMP JUMPDEST PUSH1 0x20 DUP3 ADD SWAP1 POP SWAP2 SWAP1 POP JUMP JUMPDEST PUSH0 PUSH1 0x20 DUP3 ADD SWAP1 POP DUP2 DUP2 SUB PUSH0 DUP4 ADD MSTORE PUSH2 0x1C97 DUP2 PUSH2 0x1C5E JUMP JUMPDEST SWAP1 POP SWAP2 SWAP1 POP JUMP JUMPDEST PUSH32 0x4465636B2068617320616C7265616479206265656E2073687566666C65640000 PUSH0 DUP3 ADD MSTORE POP JUMP JUMPDEST PUSH0 PUSH2 0x1CD2 PUSH1 0x1E DUP4 PUSH2 0x15C8 JUMP JUMPDEST SWAP2 POP PUSH2 0x1CDD DUP3 PUSH2 0x1C9E JUMP JUMPDEST PUSH1 0x20 DUP3 ADD SWAP1 POP SWAP2 SWAP1 POP JUMP JUMPDEST PUSH0 PUSH1 0x20 DUP3 ADD SWAP1 POP DUP2 DUP2 SUB PUSH0 DUP4 ADD MSTORE PUSH2 0x1CFF DUP2 PUSH2 0x1CC6 JUMP JUMPDEST SWAP1 POP SWAP2 SWAP1 POP JUMP JUMPDEST PUSH32 0x4E487B7100000000000000000000000000000000000000000000000000000000 PUSH0 MSTORE PUSH1 0x32 PUSH1 0x4 MSTORE PUSH1 0x24 PUSH0 REVERT JUMPDEST PUSH0 PUSH2 0x1D3D DUP3 PUSH2 0x1476 JUMP JUMPDEST SWAP2 POP PUSH2 0x1D48 DUP4 PUSH2 0x1476 JUMP JUMPDEST SWAP3 POP DUP3 DUP3 SUB SWAP1 POP DUP2 DUP2 GT ISZERO PUSH2 0x1D60 JUMPI PUSH2 0x1D5F PUSH2 0x1640 JUMP JUMPDEST JUMPDEST SWAP3 SWAP2 POP POP JUMP JUMPDEST PUSH32 0x4E487B7100000000000000000000000000000000000000000000000000000000 PUSH0 MSTORE PUSH1 0x12 PUSH1 0x4 MSTORE PUSH1 0x24 PUSH0 REVERT JUMPDEST PUSH0 PUSH2 0x1D9D DUP3 PUSH2 0x1476 JUMP JUMPDEST SWAP2 POP PUSH2 0x1DA8 DUP4 PUSH2 0x1476 JUMP JUMPDEST SWAP3 POP DUP3 PUSH2 0x1DB8 JUMPI PUSH2 0x1DB7 PUSH2 0x1D66 JUMP JUMPDEST JUMPDEST DUP3 DUP3 MOD SWAP1 POP SWAP3 SWAP2 POP POP JUMP JUMPDEST PUSH0 PUSH2 0x1DCD DUP3 PUSH2 0x1476 JUMP JUMPDEST SWAP2 POP PUSH2 0x1DD8 DUP4 PUSH2 0x1476 JUMP JUMPDEST SWAP3 POP DUP3 DUP3 ADD SWAP1 POP DUP1 DUP3 GT ISZERO PUSH2 0x1DF0 JUMPI PUSH2 0x1DEF PUSH2 0x1640 JUMP JUMPDEST JUMPDEST SWAP3 SWAP2 POP POP JUMP JUMPDEST PUSH0 PUSH2 0x1E00 DUP3 PUSH2 0x1476 JUMP JUMPDEST SWAP2 POP PUSH2 0x1E0B DUP4 PUSH2 0x1476 JUMP JUMPDEST SWAP3 POP DUP3 DUP3 MUL PUSH2 0x1E19 DUP2 PUSH2 0x1476 JUMP JUMPDEST SWAP2 POP DUP3 DUP3 DIV DUP5 EQ DUP4 ISZERO OR PUSH2 0x1E30 JUMPI PUSH2 0x1E2F PUSH2 0x1640 JUMP JUMPDEST JUMPDEST POP SWAP3 SWAP2 POP POP JUMP JUMPDEST PUSH0 PUSH1 0xFF DUP3 AND SWAP1 POP SWAP2 SWAP1 POP JUMP JUMPDEST PUSH0 PUSH2 0x1E4D DUP3 PUSH2 0x1E37 JUMP JUMPDEST SWAP2 POP PUSH2 0x1E58 DUP4 PUSH2 0x1E37 JUMP JUMPDEST SWAP3 POP DUP3 PUSH2 0x1E68 JUMPI PUSH2 0x1E67 PUSH2 0x1D66 JUMP JUMPDEST JUMPDEST DUP3 DUP3 MOD SWAP1 POP SWAP3 SWAP2 POP POP JUMP JUMPDEST PUSH0 PUSH2 0x1E7D DUP3 PUSH2 0x1E37 JUMP JUMPDEST SWAP2 POP PUSH2 0x1E88 DUP4 PUSH2 0x1E37 JUMP JUMPDEST SWAP3 POP DUP3 DUP3 ADD SWAP1 POP PUSH1 0xFF DUP2 GT ISZERO PUSH2 0x1EA1 JUMPI PUSH2 0x1EA0 PUSH2 0x1640 JUMP JUMPDEST JUMPDEST SWAP3 SWAP2 POP POP JUMP JUMPDEST PUSH0 PUSH2 0x1EB1 DUP3 PUSH2 0x1E37 JUMP JUMPDEST SWAP2 POP PUSH1 0xFF DUP3 SUB PUSH2 0x1EC4 JUMPI PUSH2 0x1EC3 PUSH2 0x1640 JUMP JUMPDEST JUMPDEST PUSH1 0x1 DUP3 ADD SWAP1 POP SWAP2 SWAP1 POP JUMP JUMPDEST PUSH2 0x1ED8 DUP2 PUSH2 0x1E37 JUMP JUMPDEST DUP3 MSTORE POP POP JUMP JUMPDEST PUSH0 PUSH1 0x40 DUP3 ADD SWAP1 POP PUSH2 0x1EF1 PUSH0 DUP4 ADD DUP6 PUSH2 0x16F2 JUMP JUMPDEST PUSH2 0x1EFE PUSH1 0x20 DUP4 ADD DUP5 PUSH2 0x1ECF JUMP JUMPDEST SWAP4 SWAP3 POP POP POP JUMP JUMPDEST PUSH1 0x4 DUP2 LT PUSH2 0x1F16 JUMPI PUSH2 0x1F15 PUSH2 0x16B4 JUMP JUMPDEST JUMPDEST POP JUMP JUMPDEST PUSH0 DUP2 SWAP1 POP PUSH2 0x1F26 DUP3 PUSH2 0x1F05 JUMP JUMPDEST SWAP2 SWAP1 POP JUMP JUMPDEST PUSH0 PUSH2 0x1F35 DUP3 PUSH2 0x1F19 JUMP JUMPDEST SWAP1 POP SWAP2 SWAP1 POP JUMP JUMPDEST PUSH2 0x1F45 DUP2 PUSH2 0x1F2B JUMP JUMPDEST DUP3 MSTORE POP POP JUMP JUMPDEST PUSH0 PUSH1 0x40 DUP3 ADD SWAP1 POP PUSH2 0x1F5E PUSH0 DUP4 ADD DUP6 PUSH2 0x16F2 JUMP JUMPDEST PUSH2 0x1F6B PUSH1 0x20 DUP4 ADD DUP5 PUSH2 0x1F3C JUMP JUMPDEST SWAP4 SWAP3 POP POP POP JUMP INVALID LOG2 PUSH5 0x6970667358 0x22 SLT KECCAK256 PUSH11 0x27A1CBE67262FD4D9DE688 0x1E 0xED BLOCKHASH SWAP10 EXTCODEHASH EXTCALL CREATE2 CALLDATASIZE SLOAD CALLDATACOPY PUSH5 0xB8993A8CD5 0xD8 0xA7 ADDRESS 0xCB PUSH5 0x736F6C6343 STOP ADDMOD 0x1E STOP CALLER "
				},
				"gasEstimates": {
					"creation": {
						"codeDepositCost": "1620800",
						"executionCost": "infinite",
						"totalCost": "infinite"
					},
					"external": {
						"assignToken(uint256)": "infinite",
						"dealInitialHands()": "infinite",
						"hitPlayer()": "infinite",
						"nextGameID()": "2470",
						"oracle()": "infinite",
						"placeBets(uint256)": "infinite",
						"stand()": "infinite",
						"vault()": "infinite"
					},
					"internal": {
						"_dealInitialHands(struct GameToken storage pointer)": "infinite",
						"_hitDealer(struct GameToken storage pointer)": "infinite",
						"_hitPlayer(struct GameToken storage pointer)": "infinite",
						"addCardToHand(uint8,uint8)": "infinite",
						"drawCard(struct GameToken storage pointer)": "infinite",
						"endGame(struct GameToken storage pointer,enum Result,uint256)": "infinite",
						"handleBlackJackEvents(struct GameToken storage pointer)": "infinite",
						"hasBlackJack(uint8)": "39",
						"isAce(uint8)": "73",
						"shuffleDeck(struct GameToken storage pointer)": "infinite"
					}
				},
				"methodIdentifiers": {
					"assignToken(uint256)": "31a56b83",
					"dealInitialHands()": "566595b2",
					"hitPlayer()": "dae10ed5",
					"nextGameID()": "673ee37c",
					"oracle()": "7dc0d1d0",
					"placeBets(uint256)": "afab107e",
					"stand()": "c2897b10",
					"vault()": "fbfa77cf"
				}
			},
			"storageLayout": {
				"storage": [
					{
						"astId": 7,
						"contract": "contracts/BlackJackTable.sol:BlackJackTable",
						"label": "vault",
						"offset": 0,
						"slot": "0",
						"type": "t_contract(IVault)988"
					},
					{
						"astId": 10,
						"contract": "contracts/BlackJackTable.sol:BlackJackTable",
						"label": "oracle",
						"offset": 0,
						"slot": "1",
						"type": "t_contract(IOracle)971"
					},
					{
						"astId": 33,
						"contract": "contracts/BlackJackTable.sol:BlackJackTable",
						"label": "nextGameID",
						"offset": 0,
						"slot": "2",
						"type": "t_uint256"
					},
					{
						"astId": 46,
						"contract": "contracts/BlackJackTable.sol:BlackJackTable",
						"label": "activeGame",
						"offset": 0,
						"slot": "3",
						"type": "t_mapping(t_address,t_uint256)"
					},
					{
						"astId": 51,
						"contract": "contracts/BlackJackTable.sol:BlackJackTable",
						"label": "games",
						"offset": 0,
						"slot": "4",
						"type": "t_mapping(t_uint256,t_struct(GameToken)958_storage)"
					}
				],
				"types": {
					"t_address": {
						"encoding": "inplace",
						"label": "address",
						"numberOfBytes": "20"
					},
					"t_array(t_uint8)104_storage": {
						"base": "t_uint8",
						"encoding": "inplace",
						"label": "uint8[104]",
						"numberOfBytes": "128"
					},
					"t_bool": {
						"encoding": "inplace",
						"label": "bool",
						"numberOfBytes": "1"
					},
					"t_bytes32": {
						"encoding": "inplace",
						"label": "bytes32",
						"numberOfBytes": "32"
					},
					"t_contract(IOracle)971": {
						"encoding": "inplace",
						"label": "contract IOracle",
						"numberOfBytes": "20"
					},
					"t_contract(IVault)988": {
						"encoding": "inplace",
						"label": "contract IVault",
						"numberOfBytes": "20"
					},
					"t_enum(Result)910": {
						"encoding": "inplace",
						"label": "enum Result",
						"numberOfBytes": "1"
					},
					"t_enum(State)916": {
						"encoding": "inplace",
						"label": "enum State",
						"numberOfBytes": "1"
					},
					"t_mapping(t_address,t_uint256)": {
						"encoding": "mapping",
						"key": "t_address",
						"label": "mapping(address => uint256)",
						"numberOfBytes": "32",
						"value": "t_uint256"
					},
					"t_mapping(t_uint256,t_struct(GameToken)958_storage)": {
						"encoding": "mapping",
						"key": "t_uint256",
						"label": "mapping(uint256 => struct GameToken)",
						"numberOfBytes": "32",
						"value": "t_struct(GameToken)958_storage"
					},
					"t_struct(GameToken)958_storage": {
						"encoding": "inplace",
						"label": "struct GameToken",
						"members": [
							{
								"astId": 929,
								"contract": "contracts/BlackJackTable.sol:BlackJackTable",
								"label": "tokenID",
								"offset": 0,
								"slot": "0",
								"type": "t_uint256"
							},
							{
								"astId": 931,
								"contract": "contracts/BlackJackTable.sol:BlackJackTable",
								"label": "bet",
								"offset": 0,
								"slot": "1",
								"type": "t_uint256"
							},
							{
								"astId": 933,
								"contract": "contracts/BlackJackTable.sol:BlackJackTable",
								"label": "player",
								"offset": 0,
								"slot": "2",
								"type": "t_address"
							},
							{
								"astId": 935,
								"contract": "contracts/BlackJackTable.sol:BlackJackTable",
								"label": "playerSeed",
								"offset": 0,
								"slot": "3",
								"type": "t_uint256"
							},
							{
								"astId": 937,
								"contract": "contracts/BlackJackTable.sol:BlackJackTable",
								"label": "serverSeed",
								"offset": 0,
								"slot": "4",
								"type": "t_uint256"
							},
							{
								"astId": 939,
								"contract": "contracts/BlackJackTable.sol:BlackJackTable",
								"label": "finalSeed",
								"offset": 0,
								"slot": "5",
								"type": "t_bytes32"
							},
							{
								"astId": 941,
								"contract": "contracts/BlackJackTable.sol:BlackJackTable",
								"label": "drawIndex",
								"offset": 0,
								"slot": "6",
								"type": "t_uint8"
							},
							{
								"astId": 944,
								"contract": "contracts/BlackJackTable.sol:BlackJackTable",
								"label": "gameState",
								"offset": 1,
								"slot": "6",
								"type": "t_enum(State)916"
							},
							{
								"astId": 947,
								"contract": "contracts/BlackJackTable.sol:BlackJackTable",
								"label": "result",
								"offset": 2,
								"slot": "6",
								"type": "t_enum(Result)910"
							},
							{
								"astId": 951,
								"contract": "contracts/BlackJackTable.sol:BlackJackTable",
								"label": "deck",
								"offset": 0,
								"slot": "7",
								"type": "t_array(t_uint8)104_storage"
							},
							{
								"astId": 953,
								"contract": "contracts/BlackJackTable.sol:BlackJackTable",
								"label": "isShuffled",
								"offset": 0,
								"slot": "11",
								"type": "t_bool"
							},
							{
								"astId": 955,
								"contract": "contracts/BlackJackTable.sol:BlackJackTable",
								"label": "playerHandTotalValue",
								"offset": 1,
								"slot": "11",
								"type": "t_uint8"
							},
							{
								"astId": 957,
								"contract": "contracts/BlackJackTable.sol:BlackJackTable",
								"label": "dealerHandTotalValue",
								"offset": 2,
								"slot": "11",
								"type": "t_uint8"
							}
						],
						"numberOfBytes": "384"
					},
					"t_uint256": {
						"encoding": "inplace",
						"label": "uint256",
						"numberOfBytes": "32"
					},
					"t_uint8": {
						"encoding": "inplace",
						"label": "uint8",
						"numberOfBytes": "1"
					}
				}
			},
			"userdoc": {
				"kind": "user",
				"methods": {},
				"version": 1
			}
		}
	}
}