{
	"contracts/BlackJackTable.sol": {
		"BlackJackTable": {
			"abi": [
				{
					"inputs": [
						{
							"internalType": "address",
							"name": "_vault",
							"type": "address"
						},
						{
							"internalType": "address",
							"name": "_oracle",
							"type": "address"
						}
					],
					"stateMutability": "nonpayable",
					"type": "constructor"
				},
				{
					"anonymous": false,
					"inputs": [
						{
							"indexed": false,
							"internalType": "uint256",
							"name": "tokenID",
							"type": "uint256"
						},
						{
							"indexed": false,
							"internalType": "address",
							"name": "player",
							"type": "address"
						},
						{
							"indexed": false,
							"internalType": "uint256",
							"name": "bet",
							"type": "uint256"
						},
						{
							"indexed": false,
							"internalType": "bytes32",
							"name": "finalSeed",
							"type": "bytes32"
						}
					],
					"name": "BetPlaced",
					"type": "event"
				},
				{
					"anonymous": false,
					"inputs": [
						{
							"indexed": false,
							"internalType": "address",
							"name": "player",
							"type": "address"
						},
						{
							"indexed": false,
							"internalType": "uint8",
							"name": "card",
							"type": "uint8"
						}
					],
					"name": "CardDrawn",
					"type": "event"
				},
				{
					"anonymous": false,
					"inputs": [
						{
							"indexed": false,
							"internalType": "uint256",
							"name": "tokenID",
							"type": "uint256"
						},
						{
							"indexed": false,
							"internalType": "address",
							"name": "player",
							"type": "address"
						}
					],
					"name": "GameCreated",
					"type": "event"
				},
				{
					"anonymous": false,
					"inputs": [
						{
							"indexed": false,
							"internalType": "address",
							"name": "player",
							"type": "address"
						},
						{
							"indexed": false,
							"internalType": "enum Result",
							"name": "result",
							"type": "uint8"
						}
					],
					"name": "GameEnded",
					"type": "event"
				},
				{
					"inputs": [
						{
							"internalType": "uint256",
							"name": "_playerSeed",
							"type": "uint256"
						}
					],
					"name": "assignToken",
					"outputs": [],
					"stateMutability": "nonpayable",
					"type": "function"
				},
				{
					"inputs": [],
					"name": "hit",
					"outputs": [],
					"stateMutability": "nonpayable",
					"type": "function"
				},
				{
					"inputs": [],
					"name": "nextGameID",
					"outputs": [
						{
							"internalType": "uint256",
							"name": "",
							"type": "uint256"
						}
					],
					"stateMutability": "view",
					"type": "function"
				},
				{
					"inputs": [],
					"name": "oracle",
					"outputs": [
						{
							"internalType": "contract IOracle",
							"name": "",
							"type": "address"
						}
					],
					"stateMutability": "view",
					"type": "function"
				},
				{
					"inputs": [
						{
							"internalType": "uint256",
							"name": "bet",
							"type": "uint256"
						}
					],
					"name": "placeBets",
					"outputs": [],
					"stateMutability": "nonpayable",
					"type": "function"
				},
				{
					"inputs": [],
					"name": "stand",
					"outputs": [],
					"stateMutability": "nonpayable",
					"type": "function"
				},
				{
					"inputs": [],
					"name": "vault",
					"outputs": [
						{
							"internalType": "contract IVault",
							"name": "",
							"type": "address"
						}
					],
					"stateMutability": "view",
					"type": "function"
				}
			],
			"devdoc": {
				"kind": "dev",
				"methods": {},
				"version": 1
			},
			"evm": {
				"assembly": "    /* \"contracts/BlackJackTable.sol\":190:8535  contract BlackJackTable {... */\n  mstore(0x40, 0x80)\n    /* \"contracts/BlackJackTable.sol\":334:453  constructor(address _vault, address _oracle) {... */\n  callvalue\n  dup1\n  iszero\n  tag_1\n  jumpi\n  revert(0x00, 0x00)\ntag_1:\n  pop\n  mload(0x40)\n  sub(codesize, bytecodeSize)\n  dup1\n  bytecodeSize\n  dup4\n  codecopy\n  dup2\n  dup2\n  add\n  0x40\n  mstore\n  dup2\n  add\n  swap1\n  tag_2\n  swap2\n  swap1\n  tag_3\n  jump\t// in\ntag_2:\n    /* \"contracts/BlackJackTable.sol\":404:410  _vault */\n  dup2\n    /* \"contracts/BlackJackTable.sol\":389:394  vault */\n  0x00\n  0x00\n    /* \"contracts/BlackJackTable.sol\":389:411  vault = IVault(_vault) */\n  0x0100\n  exp\n  dup2\n  sload\n  dup2\n  0xffffffffffffffffffffffffffffffffffffffff\n  mul\n  not\n  and\n  swap1\n  dup4\n  0xffffffffffffffffffffffffffffffffffffffff\n  and\n  mul\n  or\n  swap1\n  sstore\n  pop\n    /* \"contracts/BlackJackTable.sol\":438:445  _oracle */\n  dup1\n    /* \"contracts/BlackJackTable.sol\":421:427  oracle */\n  0x01\n  0x00\n    /* \"contracts/BlackJackTable.sol\":421:446  oracle = IOracle(_oracle) */\n  0x0100\n  exp\n  dup2\n  sload\n  dup2\n  0xffffffffffffffffffffffffffffffffffffffff\n  mul\n  not\n  and\n  swap1\n  dup4\n  0xffffffffffffffffffffffffffffffffffffffff\n  and\n  mul\n  or\n  swap1\n  sstore\n  pop\n    /* \"contracts/BlackJackTable.sol\":334:453  constructor(address _vault, address _oracle) {... */\n  pop\n  pop\n    /* \"contracts/BlackJackTable.sol\":190:8535  contract BlackJackTable {... */\n  jump(tag_6)\n    /* \"#utility.yul\":88:205   */\ntag_8:\n    /* \"#utility.yul\":197:198   */\n  0x00\n    /* \"#utility.yul\":194:195   */\n  0x00\n    /* \"#utility.yul\":187:199   */\n  revert\n    /* \"#utility.yul\":334:460   */\ntag_10:\n    /* \"#utility.yul\":371:378   */\n  0x00\n    /* \"#utility.yul\":411:453   */\n  0xffffffffffffffffffffffffffffffffffffffff\n    /* \"#utility.yul\":404:409   */\n  dup3\n    /* \"#utility.yul\":400:454   */\n  and\n    /* \"#utility.yul\":389:454   */\n  swap1\n  pop\n    /* \"#utility.yul\":334:460   */\n  swap2\n  swap1\n  pop\n  jump\t// out\n    /* \"#utility.yul\":466:562   */\ntag_11:\n    /* \"#utility.yul\":503:510   */\n  0x00\n    /* \"#utility.yul\":532:556   */\n  tag_20\n    /* \"#utility.yul\":550:555   */\n  dup3\n    /* \"#utility.yul\":532:556   */\n  tag_10\n  jump\t// in\ntag_20:\n    /* \"#utility.yul\":521:556   */\n  swap1\n  pop\n    /* \"#utility.yul\":466:562   */\n  swap2\n  swap1\n  pop\n  jump\t// out\n    /* \"#utility.yul\":568:690   */\ntag_12:\n    /* \"#utility.yul\":641:665   */\n  tag_22\n    /* \"#utility.yul\":659:664   */\n  dup2\n    /* \"#utility.yul\":641:665   */\n  tag_11\n  jump\t// in\ntag_22:\n    /* \"#utility.yul\":634:639   */\n  dup2\n    /* \"#utility.yul\":631:666   */\n  eq\n    /* \"#utility.yul\":621:684   */\n  tag_23\n  jumpi\n    /* \"#utility.yul\":680:681   */\n  0x00\n    /* \"#utility.yul\":677:678   */\n  0x00\n    /* \"#utility.yul\":670:682   */\n  revert\n    /* \"#utility.yul\":621:684   */\ntag_23:\n    /* \"#utility.yul\":568:690   */\n  pop\n  jump\t// out\n    /* \"#utility.yul\":696:839   */\ntag_13:\n    /* \"#utility.yul\":753:758   */\n  0x00\n    /* \"#utility.yul\":784:790   */\n  dup2\n    /* \"#utility.yul\":778:791   */\n  mload\n    /* \"#utility.yul\":769:791   */\n  swap1\n  pop\n    /* \"#utility.yul\":800:833   */\n  tag_25\n    /* \"#utility.yul\":827:832   */\n  dup2\n    /* \"#utility.yul\":800:833   */\n  tag_12\n  jump\t// in\ntag_25:\n    /* \"#utility.yul\":696:839   */\n  swap3\n  swap2\n  pop\n  pop\n  jump\t// out\n    /* \"#utility.yul\":845:1352   */\ntag_3:\n    /* \"#utility.yul\":924:930   */\n  0x00\n    /* \"#utility.yul\":932:938   */\n  0x00\n    /* \"#utility.yul\":981:983   */\n  0x40\n    /* \"#utility.yul\":969:978   */\n  dup4\n    /* \"#utility.yul\":960:967   */\n  dup6\n    /* \"#utility.yul\":956:979   */\n  sub\n    /* \"#utility.yul\":952:984   */\n  slt\n    /* \"#utility.yul\":949:1068   */\n  iszero\n  tag_27\n  jumpi\n    /* \"#utility.yul\":987:1066   */\n  tag_28\n  tag_8\n  jump\t// in\ntag_28:\n    /* \"#utility.yul\":949:1068   */\ntag_27:\n    /* \"#utility.yul\":1107:1108   */\n  0x00\n    /* \"#utility.yul\":1132:1196   */\n  tag_29\n    /* \"#utility.yul\":1188:1195   */\n  dup6\n    /* \"#utility.yul\":1179:1185   */\n  dup3\n    /* \"#utility.yul\":1168:1177   */\n  dup7\n    /* \"#utility.yul\":1164:1186   */\n  add\n    /* \"#utility.yul\":1132:1196   */\n  tag_13\n  jump\t// in\ntag_29:\n    /* \"#utility.yul\":1122:1196   */\n  swap3\n  pop\n    /* \"#utility.yul\":1078:1206   */\n  pop\n    /* \"#utility.yul\":1245:1247   */\n  0x20\n    /* \"#utility.yul\":1271:1335   */\n  tag_30\n    /* \"#utility.yul\":1327:1334   */\n  dup6\n    /* \"#utility.yul\":1318:1324   */\n  dup3\n    /* \"#utility.yul\":1307:1316   */\n  dup7\n    /* \"#utility.yul\":1303:1325   */\n  add\n    /* \"#utility.yul\":1271:1335   */\n  tag_13\n  jump\t// in\ntag_30:\n    /* \"#utility.yul\":1261:1335   */\n  swap2\n  pop\n    /* \"#utility.yul\":1216:1345   */\n  pop\n    /* \"#utility.yul\":845:1352   */\n  swap3\n  pop\n  swap3\n  swap1\n  pop\n  jump\t// out\n    /* \"contracts/BlackJackTable.sol\":190:8535  contract BlackJackTable {... */\ntag_6:\n  dataSize(sub_0)\n  dup1\n  dataOffset(sub_0)\n  0x00\n  codecopy\n  0x00\n  return\nstop\n\nsub_0: assembly {\n        /* \"contracts/BlackJackTable.sol\":190:8535  contract BlackJackTable {... */\n      mstore(0x40, 0x80)\n      callvalue\n      dup1\n      iszero\n      tag_1\n      jumpi\n      revert(0x00, 0x00)\n    tag_1:\n      pop\n      jumpi(tag_2, lt(calldatasize, 0x04))\n      shr(0xe0, calldataload(0x00))\n      dup1\n      0x7dc0d1d0\n      gt\n      tag_10\n      jumpi\n      dup1\n      0x7dc0d1d0\n      eq\n      tag_6\n      jumpi\n      dup1\n      0xafab107e\n      eq\n      tag_7\n      jumpi\n      dup1\n      0xc2897b10\n      eq\n      tag_8\n      jumpi\n      dup1\n      0xfbfa77cf\n      eq\n      tag_9\n      jumpi\n      jump(tag_2)\n    tag_10:\n      dup1\n      0x2ae3594a\n      eq\n      tag_3\n      jumpi\n      dup1\n      0x31a56b83\n      eq\n      tag_4\n      jumpi\n      dup1\n      0x673ee37c\n      eq\n      tag_5\n      jumpi\n    tag_2:\n      revert(0x00, 0x00)\n        /* \"contracts/BlackJackTable.sol\":6445:7148  function hit() external {... */\n    tag_3:\n      tag_11\n      tag_12\n      jump\t// in\n    tag_11:\n      stop\n        /* \"contracts/BlackJackTable.sol\":1137:1816  function assignToken(uint256 _playerSeed) external {... */\n    tag_4:\n      tag_13\n      0x04\n      dup1\n      calldatasize\n      sub\n      dup2\n      add\n      swap1\n      tag_14\n      swap2\n      swap1\n      tag_15\n      jump\t// in\n    tag_14:\n      tag_16\n      jump\t// in\n    tag_13:\n      stop\n        /* \"contracts/BlackJackTable.sol\":502:527  uint256 public nextGameID */\n    tag_5:\n      tag_17\n      tag_18\n      jump\t// in\n    tag_17:\n      mload(0x40)\n      tag_19\n      swap2\n      swap1\n      tag_20\n      jump\t// in\n    tag_19:\n      mload(0x40)\n      dup1\n      swap2\n      sub\n      swap1\n      return\n        /* \"contracts/BlackJackTable.sol\":306:327  IOracle public oracle */\n    tag_6:\n      tag_21\n      tag_22\n      jump\t// in\n    tag_21:\n      mload(0x40)\n      tag_23\n      swap2\n      swap1\n      tag_24\n      jump\t// in\n    tag_23:\n      mload(0x40)\n      dup1\n      swap2\n      sub\n      swap1\n      return\n        /* \"contracts/BlackJackTable.sol\":1822:2714  function placeBets(uint256 bet) external {... */\n    tag_7:\n      tag_25\n      0x04\n      dup1\n      calldatasize\n      sub\n      dup2\n      add\n      swap1\n      tag_26\n      swap2\n      swap1\n      tag_15\n      jump\t// in\n    tag_26:\n      tag_27\n      jump\t// in\n    tag_25:\n      stop\n        /* \"contracts/BlackJackTable.sol\":7154:8117  function stand() external {... */\n    tag_8:\n      tag_28\n      tag_29\n      jump\t// in\n    tag_28:\n      stop\n        /* \"contracts/BlackJackTable.sol\":281:300  IVault public vault */\n    tag_9:\n      tag_30\n      tag_31\n      jump\t// in\n    tag_30:\n      mload(0x40)\n      tag_32\n      swap2\n      swap1\n      tag_33\n      jump\t// in\n    tag_32:\n      mload(0x40)\n      dup1\n      swap2\n      sub\n      swap1\n      return\n        /* \"contracts/BlackJackTable.sol\":6445:7148  function hit() external {... */\n    tag_12:\n        /* \"contracts/BlackJackTable.sol\":6479:6493  uint256 gameID */\n      0x00\n        /* \"contracts/BlackJackTable.sol\":6496:6506  activeGame */\n      0x03\n        /* \"contracts/BlackJackTable.sol\":6496:6518  activeGame[msg.sender] */\n      0x00\n        /* \"contracts/BlackJackTable.sol\":6507:6517  msg.sender */\n      caller\n        /* \"contracts/BlackJackTable.sol\":6496:6518  activeGame[msg.sender] */\n      0xffffffffffffffffffffffffffffffffffffffff\n      and\n      0xffffffffffffffffffffffffffffffffffffffff\n      and\n      dup2\n      mstore\n      0x20\n      add\n      swap1\n      dup2\n      mstore\n      0x20\n      add\n      0x00\n      keccak256\n      sload\n        /* \"contracts/BlackJackTable.sol\":6479:6518  uint256 gameID = activeGame[msg.sender] */\n      swap1\n      pop\n        /* \"contracts/BlackJackTable.sol\":6528:6551  GameToken storage token */\n      0x00\n        /* \"contracts/BlackJackTable.sol\":6554:6559  games */\n      0x04\n        /* \"contracts/BlackJackTable.sol\":6554:6567  games[gameID] */\n      0x00\n        /* \"contracts/BlackJackTable.sol\":6560:6566  gameID */\n      dup4\n        /* \"contracts/BlackJackTable.sol\":6554:6567  games[gameID] */\n      dup2\n      mstore\n      0x20\n      add\n      swap1\n      dup2\n      mstore\n      0x20\n      add\n      0x00\n      keccak256\n        /* \"contracts/BlackJackTable.sol\":6528:6567  GameToken storage token = games[gameID] */\n      swap1\n      pop\n        /* \"contracts/BlackJackTable.sol\":6585:6590  token */\n      dup1\n        /* \"contracts/BlackJackTable.sol\":6585:6599  token.isActive */\n      0x06\n      add\n      0x01\n      swap1\n      sload\n      swap1\n      0x0100\n      exp\n      swap1\n      div\n      0xff\n      and\n        /* \"contracts/BlackJackTable.sol\":6577:6626  require(token.isActive, \"No game is in progress\") */\n      tag_35\n      jumpi\n      mload(0x40)\n      0x08c379a000000000000000000000000000000000000000000000000000000000\n      dup2\n      mstore\n      0x04\n      add\n      tag_36\n      swap1\n      tag_37\n      jump\t// in\n    tag_36:\n      mload(0x40)\n      dup1\n      swap2\n      sub\n      swap1\n      revert\n    tag_35:\n        /* \"contracts/BlackJackTable.sol\":6645:6650  token */\n      dup1\n        /* \"contracts/BlackJackTable.sol\":6645:6662  token.isCompleted */\n      0x06\n      add\n      0x02\n      swap1\n      sload\n      swap1\n      0x0100\n      exp\n      swap1\n      div\n      0xff\n      and\n        /* \"contracts/BlackJackTable.sol\":6644:6662  !token.isCompleted */\n      iszero\n        /* \"contracts/BlackJackTable.sol\":6636:6692  require(!token.isCompleted, \"Game has already finished\") */\n      tag_38\n      jumpi\n      mload(0x40)\n      0x08c379a000000000000000000000000000000000000000000000000000000000\n      dup2\n      mstore\n      0x04\n      add\n      tag_39\n      swap1\n      tag_40\n      jump\t// in\n    tag_39:\n      mload(0x40)\n      dup1\n      swap2\n      sub\n      swap1\n      revert\n    tag_38:\n        /* \"contracts/BlackJackTable.sol\":6703:6713  uint8 card */\n      0x00\n        /* \"contracts/BlackJackTable.sol\":6716:6731  drawCard(token) */\n      tag_41\n        /* \"contracts/BlackJackTable.sol\":6725:6730  token */\n      dup3\n        /* \"contracts/BlackJackTable.sol\":6716:6724  drawCard */\n      tag_42\n        /* \"contracts/BlackJackTable.sol\":6716:6731  drawCard(token) */\n      jump\t// in\n    tag_41:\n        /* \"contracts/BlackJackTable.sol\":6703:6731  uint8 card = drawCard(token) */\n      swap1\n      pop\n        /* \"contracts/BlackJackTable.sol\":6794:6909  addCardToHand(... */\n      tag_43\n        /* \"contracts/BlackJackTable.sol\":6821:6825  card */\n      dup2\n        /* \"contracts/BlackJackTable.sol\":6839:6844  token */\n      dup4\n        /* \"contracts/BlackJackTable.sol\":6839:6865  token.playerHandTotalValue */\n      0x0b\n      add\n      0x01\n      swap1\n      sload\n      swap1\n      0x0100\n      exp\n      swap1\n      div\n      0xff\n      and\n        /* \"contracts/BlackJackTable.sol\":6879:6884  token */\n      dup5\n        /* \"contracts/BlackJackTable.sol\":6879:6899  token.playerAceCount */\n      0x0b\n      add\n      0x02\n      swap1\n      sload\n      swap1\n      0x0100\n      exp\n      swap1\n      div\n      0xff\n      and\n        /* \"contracts/BlackJackTable.sol\":6794:6807  addCardToHand */\n      tag_44\n        /* \"contracts/BlackJackTable.sol\":6794:6909  addCardToHand(... */\n      jump\t// in\n    tag_43:\n        /* \"contracts/BlackJackTable.sol\":6742:6747  token */\n      dup4\n        /* \"contracts/BlackJackTable.sol\":6742:6768  token.playerHandTotalValue */\n      0x0b\n      add\n      0x01\n        /* \"contracts/BlackJackTable.sol\":6770:6775  token */\n      dup6\n        /* \"contracts/BlackJackTable.sol\":6770:6790  token.playerAceCount */\n      0x0b\n      add\n      0x02\n        /* \"contracts/BlackJackTable.sol\":6741:6909  (token.playerHandTotalValue, token.playerAceCount) = addCardToHand(... */\n      dup5\n      swap2\n      swap1\n      0x0100\n      exp\n      dup2\n      sload\n      dup2\n      0xff\n      mul\n      not\n      and\n      swap1\n      dup4\n      0xff\n      and\n      mul\n      or\n      swap1\n      sstore\n      pop\n      dup4\n      swap2\n      swap1\n      0x0100\n      exp\n      dup2\n      sload\n      dup2\n      0xff\n      mul\n      not\n      and\n      swap1\n      dup4\n      0xff\n      and\n      mul\n      or\n      swap1\n      sstore\n      pop\n      pop\n      pop\n        /* \"contracts/BlackJackTable.sol\":6952:6954  21 */\n      0x15\n        /* \"contracts/BlackJackTable.sol\":6923:6928  token */\n      dup3\n        /* \"contracts/BlackJackTable.sol\":6923:6949  token.playerHandTotalValue */\n      0x0b\n      add\n      0x01\n      swap1\n      sload\n      swap1\n      0x0100\n      exp\n      swap1\n      div\n      0xff\n      and\n        /* \"contracts/BlackJackTable.sol\":6923:6954  token.playerHandTotalValue > 21 */\n      0xff\n      and\n      gt\n        /* \"contracts/BlackJackTable.sol\":6919:7142  if (token.playerHandTotalValue > 21) {... */\n      iszero\n      tag_45\n      jumpi\n        /* \"contracts/BlackJackTable.sol\":6970:7006  endGame(token, Result.DEALER_WIN, 0) */\n      tag_46\n        /* \"contracts/BlackJackTable.sol\":6978:6983  token */\n      dup3\n        /* \"contracts/BlackJackTable.sol\":6985:7002  Result.DEALER_WIN */\n      0x02\n        /* \"contracts/BlackJackTable.sol\":7004:7005  0 */\n      0x00\n        /* \"contracts/BlackJackTable.sol\":6970:6977  endGame */\n      tag_47\n        /* \"contracts/BlackJackTable.sol\":6970:7006  endGame(token, Result.DEALER_WIN, 0) */\n      jump\t// in\n    tag_46:\n        /* \"contracts/BlackJackTable.sol\":6919:7142  if (token.playerHandTotalValue > 21) {... */\n      jump(tag_48)\n    tag_45:\n        /* \"contracts/BlackJackTable.sol\":7027:7067  hasBlackJack(token.playerHandTotalValue) */\n      tag_49\n        /* \"contracts/BlackJackTable.sol\":7040:7045  token */\n      dup3\n        /* \"contracts/BlackJackTable.sol\":7040:7066  token.playerHandTotalValue */\n      0x0b\n      add\n      0x01\n      swap1\n      sload\n      swap1\n      0x0100\n      exp\n      swap1\n      div\n      0xff\n      and\n        /* \"contracts/BlackJackTable.sol\":7027:7039  hasBlackJack */\n      tag_50\n        /* \"contracts/BlackJackTable.sol\":7027:7067  hasBlackJack(token.playerHandTotalValue) */\n      jump\t// in\n    tag_49:\n        /* \"contracts/BlackJackTable.sol\":7023:7142  if (hasBlackJack(token.playerHandTotalValue)) {... */\n      iszero\n      tag_51\n      jumpi\n        /* \"contracts/BlackJackTable.sol\":7083:7131  endGame(token, Result.PLAYER_WIN, token.bet * 2) */\n      tag_52\n        /* \"contracts/BlackJackTable.sol\":7091:7096  token */\n      dup3\n        /* \"contracts/BlackJackTable.sol\":7098:7115  Result.PLAYER_WIN */\n      0x01\n        /* \"contracts/BlackJackTable.sol\":7129:7130  2 */\n      0x02\n        /* \"contracts/BlackJackTable.sol\":7117:7122  token */\n      dup6\n        /* \"contracts/BlackJackTable.sol\":7117:7126  token.bet */\n      0x01\n      add\n      sload\n        /* \"contracts/BlackJackTable.sol\":7117:7130  token.bet * 2 */\n      tag_53\n      swap2\n      swap1\n      tag_54\n      jump\t// in\n    tag_53:\n        /* \"contracts/BlackJackTable.sol\":7083:7090  endGame */\n      tag_47\n        /* \"contracts/BlackJackTable.sol\":7083:7131  endGame(token, Result.PLAYER_WIN, token.bet * 2) */\n      jump\t// in\n    tag_52:\n        /* \"contracts/BlackJackTable.sol\":7023:7142  if (hasBlackJack(token.playerHandTotalValue)) {... */\n    tag_51:\n        /* \"contracts/BlackJackTable.sol\":6919:7142  if (token.playerHandTotalValue > 21) {... */\n    tag_48:\n        /* \"contracts/BlackJackTable.sol\":6469:7148  {... */\n      pop\n      pop\n      pop\n        /* \"contracts/BlackJackTable.sol\":6445:7148  function hit() external {... */\n      jump\t// out\n        /* \"contracts/BlackJackTable.sol\":1137:1816  function assignToken(uint256 _playerSeed) external {... */\n    tag_16:\n        /* \"contracts/BlackJackTable.sol\":1232:1233  0 */\n      0x00\n        /* \"contracts/BlackJackTable.sol\":1206:1216  activeGame */\n      0x03\n        /* \"contracts/BlackJackTable.sol\":1206:1228  activeGame[msg.sender] */\n      0x00\n        /* \"contracts/BlackJackTable.sol\":1217:1227  msg.sender */\n      caller\n        /* \"contracts/BlackJackTable.sol\":1206:1228  activeGame[msg.sender] */\n      0xffffffffffffffffffffffffffffffffffffffff\n      and\n      0xffffffffffffffffffffffffffffffffffffffff\n      and\n      dup2\n      mstore\n      0x20\n      add\n      swap1\n      dup2\n      mstore\n      0x20\n      add\n      0x00\n      keccak256\n      sload\n        /* \"contracts/BlackJackTable.sol\":1206:1233  activeGame[msg.sender] == 0 */\n      eq\n        /* \"contracts/BlackJackTable.sol\":1198:1262  require(activeGame[msg.sender] == 0, \"Game already in progress\") */\n      tag_56\n      jumpi\n      mload(0x40)\n      0x08c379a000000000000000000000000000000000000000000000000000000000\n      dup2\n      mstore\n      0x04\n      add\n      tag_57\n      swap1\n      tag_58\n      jump\t// in\n    tag_57:\n      mload(0x40)\n      dup1\n      swap2\n      sub\n      swap1\n      revert\n    tag_56:\n        /* \"contracts/BlackJackTable.sol\":1272:1286  uint256 gameID */\n      0x00\n        /* \"contracts/BlackJackTable.sol\":1289:1299  nextGameID */\n      0x02\n      0x00\n        /* \"contracts/BlackJackTable.sol\":1289:1301  nextGameID++ */\n      dup2\n      sload\n      dup1\n      swap3\n      swap2\n      swap1\n      tag_59\n      swap1\n      tag_60\n      jump\t// in\n    tag_59:\n      swap2\n      swap1\n      pop\n      sstore\n        /* \"contracts/BlackJackTable.sol\":1272:1301  uint256 gameID = nextGameID++ */\n      swap1\n      pop\n        /* \"contracts/BlackJackTable.sol\":1336:1342  gameID */\n      dup1\n        /* \"contracts/BlackJackTable.sol\":1311:1321  activeGame */\n      0x03\n        /* \"contracts/BlackJackTable.sol\":1311:1333  activeGame[msg.sender] */\n      0x00\n        /* \"contracts/BlackJackTable.sol\":1322:1332  msg.sender */\n      caller\n        /* \"contracts/BlackJackTable.sol\":1311:1333  activeGame[msg.sender] */\n      0xffffffffffffffffffffffffffffffffffffffff\n      and\n      0xffffffffffffffffffffffffffffffffffffffff\n      and\n      dup2\n      mstore\n      0x20\n      add\n      swap1\n      dup2\n      mstore\n      0x20\n      add\n      0x00\n      keccak256\n        /* \"contracts/BlackJackTable.sol\":1311:1342  activeGame[msg.sender] = gameID */\n      dup2\n      swap1\n      sstore\n      pop\n        /* \"contracts/BlackJackTable.sol\":1353:1376  GameToken storage token */\n      0x00\n        /* \"contracts/BlackJackTable.sol\":1379:1384  games */\n      0x04\n        /* \"contracts/BlackJackTable.sol\":1379:1392  games[gameID] */\n      0x00\n        /* \"contracts/BlackJackTable.sol\":1385:1391  gameID */\n      dup4\n        /* \"contracts/BlackJackTable.sol\":1379:1392  games[gameID] */\n      dup2\n      mstore\n      0x20\n      add\n      swap1\n      dup2\n      mstore\n      0x20\n      add\n      0x00\n      keccak256\n        /* \"contracts/BlackJackTable.sol\":1353:1392  GameToken storage token = games[gameID] */\n      swap1\n      pop\n        /* \"contracts/BlackJackTable.sol\":1465:1471  gameID */\n      dup2\n        /* \"contracts/BlackJackTable.sol\":1449:1454  token */\n      dup2\n        /* \"contracts/BlackJackTable.sol\":1449:1462  token.tokenID */\n      0x00\n      add\n        /* \"contracts/BlackJackTable.sol\":1449:1471  token.tokenID = gameID */\n      dup2\n      swap1\n      sstore\n      pop\n        /* \"contracts/BlackJackTable.sol\":1496:1506  msg.sender */\n      caller\n        /* \"contracts/BlackJackTable.sol\":1481:1486  token */\n      dup2\n        /* \"contracts/BlackJackTable.sol\":1481:1493  token.player */\n      0x02\n      add\n      0x00\n        /* \"contracts/BlackJackTable.sol\":1481:1506  token.player = msg.sender */\n      0x0100\n      exp\n      dup2\n      sload\n      dup2\n      0xffffffffffffffffffffffffffffffffffffffff\n      mul\n      not\n      and\n      swap1\n      dup4\n      0xffffffffffffffffffffffffffffffffffffffff\n      and\n      mul\n      or\n      swap1\n      sstore\n      pop\n        /* \"contracts/BlackJackTable.sol\":1535:1546  _playerSeed */\n      dup3\n        /* \"contracts/BlackJackTable.sol\":1516:1521  token */\n      dup2\n        /* \"contracts/BlackJackTable.sol\":1516:1532  token.playerSeed */\n      0x03\n      add\n        /* \"contracts/BlackJackTable.sol\":1516:1546  token.playerSeed = _playerSeed */\n      dup2\n      swap1\n      sstore\n      pop\n        /* \"contracts/BlackJackTable.sol\":1574:1575  0 */\n      0x00\n        /* \"contracts/BlackJackTable.sol\":1556:1561  token */\n      dup2\n        /* \"contracts/BlackJackTable.sol\":1556:1571  token.drawIndex */\n      0x06\n      add\n      0x00\n        /* \"contracts/BlackJackTable.sol\":1556:1575  token.drawIndex = 0 */\n      0x0100\n      exp\n      dup2\n      sload\n      dup2\n      0xff\n      mul\n      not\n      and\n      swap1\n      dup4\n      0xff\n      and\n      mul\n      or\n      swap1\n      sstore\n      pop\n        /* \"contracts/BlackJackTable.sol\":1602:1606  true */\n      0x01\n        /* \"contracts/BlackJackTable.sol\":1585:1590  token */\n      dup2\n        /* \"contracts/BlackJackTable.sol\":1585:1599  token.isActive */\n      0x06\n      add\n      0x01\n        /* \"contracts/BlackJackTable.sol\":1585:1606  token.isActive = true */\n      0x0100\n      exp\n      dup2\n      sload\n      dup2\n      0xff\n      mul\n      not\n      and\n      swap1\n      dup4\n      iszero\n      iszero\n      mul\n      or\n      swap1\n      sstore\n      pop\n        /* \"contracts/BlackJackTable.sol\":1635:1640  false */\n      0x00\n        /* \"contracts/BlackJackTable.sol\":1616:1621  token */\n      dup2\n        /* \"contracts/BlackJackTable.sol\":1616:1632  token.isShuffled */\n      0x0b\n      add\n      0x00\n        /* \"contracts/BlackJackTable.sol\":1616:1640  token.isShuffled = false */\n      0x0100\n      exp\n      dup2\n      sload\n      dup2\n      0xff\n      mul\n      not\n      and\n      swap1\n      dup4\n      iszero\n      iszero\n      mul\n      or\n      swap1\n      sstore\n      pop\n        /* \"contracts/BlackJackTable.sol\":1679:1680  0 */\n      0x00\n        /* \"contracts/BlackJackTable.sol\":1650:1655  token */\n      dup2\n        /* \"contracts/BlackJackTable.sol\":1650:1676  token.playerHandTotalValue */\n      0x0b\n      add\n      0x01\n        /* \"contracts/BlackJackTable.sol\":1650:1680  token.playerHandTotalValue = 0 */\n      0x0100\n      exp\n      dup2\n      sload\n      dup2\n      0xff\n      mul\n      not\n      and\n      swap1\n      dup4\n      0xff\n      and\n      mul\n      or\n      swap1\n      sstore\n      pop\n        /* \"contracts/BlackJackTable.sol\":1719:1720  0 */\n      0x00\n        /* \"contracts/BlackJackTable.sol\":1690:1695  token */\n      dup2\n        /* \"contracts/BlackJackTable.sol\":1690:1716  token.dealerHandTotalValue */\n      0x0b\n      add\n      0x03\n        /* \"contracts/BlackJackTable.sol\":1690:1720  token.dealerHandTotalValue = 0 */\n      0x0100\n      exp\n      dup2\n      sload\n      dup2\n      0xff\n      mul\n      not\n      and\n      swap1\n      dup4\n      0xff\n      and\n      mul\n      or\n      swap1\n      sstore\n      pop\n        /* \"contracts/BlackJackTable.sol\":1750:1755  false */\n      0x00\n        /* \"contracts/BlackJackTable.sol\":1730:1735  token */\n      dup2\n        /* \"contracts/BlackJackTable.sol\":1730:1747  token.isCompleted */\n      0x06\n      add\n      0x02\n        /* \"contracts/BlackJackTable.sol\":1730:1755  token.isCompleted = false */\n      0x0100\n      exp\n      dup2\n      sload\n      dup2\n      0xff\n      mul\n      not\n      and\n      swap1\n      dup4\n      iszero\n      iszero\n      mul\n      or\n      swap1\n      sstore\n      pop\n        /* \"contracts/BlackJackTable.sol\":1771:1809  GameCreated(token.tokenID, msg.sender) */\n      0xc3e0f84839dc888c892a013d10c8f9d6dc05a21a879d0ce468ca558013e9121c\n        /* \"contracts/BlackJackTable.sol\":1783:1788  token */\n      dup2\n        /* \"contracts/BlackJackTable.sol\":1783:1796  token.tokenID */\n      0x00\n      add\n      sload\n        /* \"contracts/BlackJackTable.sol\":1798:1808  msg.sender */\n      caller\n        /* \"contracts/BlackJackTable.sol\":1771:1809  GameCreated(token.tokenID, msg.sender) */\n      mload(0x40)\n      tag_61\n      swap3\n      swap2\n      swap1\n      tag_62\n      jump\t// in\n    tag_61:\n      mload(0x40)\n      dup1\n      swap2\n      sub\n      swap1\n      log1\n        /* \"contracts/BlackJackTable.sol\":1188:1816  {... */\n      pop\n      pop\n        /* \"contracts/BlackJackTable.sol\":1137:1816  function assignToken(uint256 _playerSeed) external {... */\n      pop\n      jump\t// out\n        /* \"contracts/BlackJackTable.sol\":502:527  uint256 public nextGameID */\n    tag_18:\n      sload(0x02)\n      dup2\n      jump\t// out\n        /* \"contracts/BlackJackTable.sol\":306:327  IOracle public oracle */\n    tag_22:\n      0x01\n      0x00\n      swap1\n      sload\n      swap1\n      0x0100\n      exp\n      swap1\n      div\n      0xffffffffffffffffffffffffffffffffffffffff\n      and\n      dup2\n      jump\t// out\n        /* \"contracts/BlackJackTable.sol\":1822:2714  function placeBets(uint256 bet) external {... */\n    tag_27:\n        /* \"contracts/BlackJackTable.sol\":575:583  100 gwei */\n      0x174876e800\n        /* \"contracts/BlackJackTable.sol\":1881:1884  bet */\n      dup2\n        /* \"contracts/BlackJackTable.sol\":1881:1896  bet >= lowLimit */\n      lt\n      iszero\n        /* \"contracts/BlackJackTable.sol\":1881:1916  bet >= lowLimit && bet <= highLimit */\n      dup1\n      iszero\n      tag_64\n      jumpi\n      pop\n        /* \"contracts/BlackJackTable.sol\":618:629  0.001 ether */\n      0x038d7ea4c68000\n        /* \"contracts/BlackJackTable.sol\":1900:1903  bet */\n      dup2\n        /* \"contracts/BlackJackTable.sol\":1900:1916  bet <= highLimit */\n      gt\n      iszero\n        /* \"contracts/BlackJackTable.sol\":1881:1916  bet >= lowLimit && bet <= highLimit */\n    tag_64:\n        /* \"contracts/BlackJackTable.sol\":1873:1938  require(bet >= lowLimit && bet <= highLimit, \"Bet out of range.\") */\n      tag_65\n      jumpi\n      mload(0x40)\n      0x08c379a000000000000000000000000000000000000000000000000000000000\n      dup2\n      mstore\n      0x04\n      add\n      tag_66\n      swap1\n      tag_67\n      jump\t// in\n    tag_66:\n      mload(0x40)\n      dup1\n      swap2\n      sub\n      swap1\n      revert\n    tag_65:\n        /* \"contracts/BlackJackTable.sol\":1983:1984  0 */\n      0x00\n        /* \"contracts/BlackJackTable.sol\":1957:1967  activeGame */\n      0x03\n        /* \"contracts/BlackJackTable.sol\":1957:1979  activeGame[msg.sender] */\n      0x00\n        /* \"contracts/BlackJackTable.sol\":1968:1978  msg.sender */\n      caller\n        /* \"contracts/BlackJackTable.sol\":1957:1979  activeGame[msg.sender] */\n      0xffffffffffffffffffffffffffffffffffffffff\n      and\n      0xffffffffffffffffffffffffffffffffffffffff\n      and\n      dup2\n      mstore\n      0x20\n      add\n      swap1\n      dup2\n      mstore\n      0x20\n      add\n      0x00\n      keccak256\n      sload\n        /* \"contracts/BlackJackTable.sol\":1957:1984  activeGame[msg.sender] != 0 */\n      sub\n        /* \"contracts/BlackJackTable.sol\":1949:2013  require(activeGame[msg.sender] != 0, \"No active game currently\") */\n      tag_68\n      jumpi\n      mload(0x40)\n      0x08c379a000000000000000000000000000000000000000000000000000000000\n      dup2\n      mstore\n      0x04\n      add\n      tag_69\n      swap1\n      tag_70\n      jump\t// in\n    tag_69:\n      mload(0x40)\n      dup1\n      swap2\n      sub\n      swap1\n      revert\n    tag_68:\n        /* \"contracts/BlackJackTable.sol\":2024:2038  uint256 gameID */\n      0x00\n        /* \"contracts/BlackJackTable.sol\":2041:2051  activeGame */\n      0x03\n        /* \"contracts/BlackJackTable.sol\":2041:2063  activeGame[msg.sender] */\n      0x00\n        /* \"contracts/BlackJackTable.sol\":2052:2062  msg.sender */\n      caller\n        /* \"contracts/BlackJackTable.sol\":2041:2063  activeGame[msg.sender] */\n      0xffffffffffffffffffffffffffffffffffffffff\n      and\n      0xffffffffffffffffffffffffffffffffffffffff\n      and\n      dup2\n      mstore\n      0x20\n      add\n      swap1\n      dup2\n      mstore\n      0x20\n      add\n      0x00\n      keccak256\n      sload\n        /* \"contracts/BlackJackTable.sol\":2024:2063  uint256 gameID = activeGame[msg.sender] */\n      swap1\n      pop\n        /* \"contracts/BlackJackTable.sol\":2073:2096  GameToken storage token */\n      0x00\n        /* \"contracts/BlackJackTable.sol\":2099:2104  games */\n      0x04\n        /* \"contracts/BlackJackTable.sol\":2099:2112  games[gameID] */\n      0x00\n        /* \"contracts/BlackJackTable.sol\":2105:2111  gameID */\n      dup4\n        /* \"contracts/BlackJackTable.sol\":2099:2112  games[gameID] */\n      dup2\n      mstore\n      0x20\n      add\n      swap1\n      dup2\n      mstore\n      0x20\n      add\n      0x00\n      keccak256\n        /* \"contracts/BlackJackTable.sol\":2073:2112  GameToken storage token = games[gameID] */\n      swap1\n      pop\n        /* \"contracts/BlackJackTable.sol\":2144:2145  0 */\n      0x00\n        /* \"contracts/BlackJackTable.sol\":2131:2136  token */\n      dup2\n        /* \"contracts/BlackJackTable.sol\":2131:2140  token.bet */\n      0x01\n      add\n      sload\n        /* \"contracts/BlackJackTable.sol\":2131:2145  token.bet == 0 */\n      eq\n        /* \"contracts/BlackJackTable.sol\":2123:2168  require(token.bet == 0, \"Bet already placed\") */\n      tag_71\n      jumpi\n      mload(0x40)\n      0x08c379a000000000000000000000000000000000000000000000000000000000\n      dup2\n      mstore\n      0x04\n      add\n      tag_72\n      swap1\n      tag_73\n      jump\t// in\n    tag_72:\n      mload(0x40)\n      dup1\n      swap2\n      sub\n      swap1\n      revert\n    tag_71:\n        /* \"contracts/BlackJackTable.sol\":2183:2188  token */\n      dup1\n        /* \"contracts/BlackJackTable.sol\":2183:2197  token.isActive */\n      0x06\n      add\n      0x01\n      swap1\n      sload\n      swap1\n      0x0100\n      exp\n      swap1\n      div\n      0xff\n      and\n        /* \"contracts/BlackJackTable.sol\":2183:2220  token.isActive || token.drawIndex > 0 */\n      dup1\n      tag_74\n      jumpi\n      pop\n        /* \"contracts/BlackJackTable.sol\":2219:2220  0 */\n      0x00\n        /* \"contracts/BlackJackTable.sol\":2201:2206  token */\n      dup2\n        /* \"contracts/BlackJackTable.sol\":2201:2216  token.drawIndex */\n      0x06\n      add\n      0x00\n      swap1\n      sload\n      swap1\n      0x0100\n      exp\n      swap1\n      div\n      0xff\n      and\n        /* \"contracts/BlackJackTable.sol\":2201:2220  token.drawIndex > 0 */\n      0xff\n      and\n      gt\n        /* \"contracts/BlackJackTable.sol\":2183:2220  token.isActive || token.drawIndex > 0 */\n    tag_74:\n        /* \"contracts/BlackJackTable.sol\":2179:2281  if (token.isActive || token.drawIndex > 0) {... */\n      iszero\n      tag_75\n      jumpi\n        /* \"contracts/BlackJackTable.sol\":2236:2270  revert(\"Game already in progress\") */\n      mload(0x40)\n      0x08c379a000000000000000000000000000000000000000000000000000000000\n      dup2\n      mstore\n      0x04\n      add\n      tag_76\n      swap1\n      tag_58\n      jump\t// in\n    tag_76:\n      mload(0x40)\n      dup1\n      swap2\n      sub\n      swap1\n      revert\n        /* \"contracts/BlackJackTable.sol\":2179:2281  if (token.isActive || token.drawIndex > 0) {... */\n    tag_75:\n        /* \"contracts/BlackJackTable.sol\":2302:2305  bet */\n      dup3\n        /* \"contracts/BlackJackTable.sol\":2290:2295  token */\n      dup2\n        /* \"contracts/BlackJackTable.sol\":2290:2299  token.bet */\n      0x01\n      add\n        /* \"contracts/BlackJackTable.sol\":2290:2305  token.bet = bet */\n      dup2\n      swap1\n      sstore\n      pop\n        /* \"contracts/BlackJackTable.sol\":2512:2518  oracle */\n      0x01\n      0x00\n      swap1\n      sload\n      swap1\n      0x0100\n      exp\n      swap1\n      div\n      0xffffffffffffffffffffffffffffffffffffffff\n      and\n        /* \"contracts/BlackJackTable.sol\":2512:2531  oracle.generateSeed */\n      0xffffffffffffffffffffffffffffffffffffffff\n      and\n      0x041df082\n        /* \"contracts/BlackJackTable.sol\":2532:2537  token */\n      dup3\n        /* \"contracts/BlackJackTable.sol\":2532:2548  token.serverSeed */\n      0x04\n      add\n      sload\n        /* \"contracts/BlackJackTable.sol\":2549:2554  token */\n      dup4\n        /* \"contracts/BlackJackTable.sol\":2549:2565  token.playerSeed */\n      0x03\n      add\n      sload\n        /* \"contracts/BlackJackTable.sol\":2512:2566  oracle.generateSeed(token.serverSeed,token.playerSeed) */\n      mload(0x40)\n      dup4\n      0xffffffff\n      and\n      0xe0\n      shl\n      dup2\n      mstore\n      0x04\n      add\n      tag_77\n      swap3\n      swap2\n      swap1\n      tag_78\n      jump\t// in\n    tag_77:\n      0x20\n      mload(0x40)\n      dup1\n      dup4\n      sub\n      dup2\n      0x00\n      dup8\n      gas\n      call\n      iszero\n      dup1\n      iszero\n      tag_80\n      jumpi\n      returndatacopy(0x00, 0x00, returndatasize)\n      revert(0x00, returndatasize)\n    tag_80:\n      pop\n      pop\n      pop\n      pop\n      mload(0x40)\n      returndatasize\n      not(0x1f)\n      0x1f\n      dup3\n      add\n      and\n      dup3\n      add\n      dup1\n      0x40\n      mstore\n      pop\n      dup2\n      add\n      swap1\n      tag_81\n      swap2\n      swap1\n      tag_82\n      jump\t// in\n    tag_81:\n        /* \"contracts/BlackJackTable.sol\":2494:2499  token */\n      dup2\n        /* \"contracts/BlackJackTable.sol\":2494:2509  token.finalSeed */\n      0x05\n      add\n        /* \"contracts/BlackJackTable.sol\":2494:2566  token.finalSeed = oracle.generateSeed(token.serverSeed,token.playerSeed) */\n      dup2\n      swap1\n      sstore\n      pop\n        /* \"contracts/BlackJackTable.sol\":2609:2627  shuffleDeck(token) */\n      tag_83\n        /* \"contracts/BlackJackTable.sol\":2621:2626  token */\n      dup2\n        /* \"contracts/BlackJackTable.sol\":2609:2620  shuffleDeck */\n      tag_84\n        /* \"contracts/BlackJackTable.sol\":2609:2627  shuffleDeck(token) */\n      jump\t// in\n    tag_83:\n        /* \"contracts/BlackJackTable.sol\":2643:2707  BetPlaced(token.tokenID, msg.sender, token.bet, token.finalSeed) */\n      0x0e97ce5f641b8a03e0f92d0b4480f849cf26a7bfdf17862c8edaf69268e60aad\n        /* \"contracts/BlackJackTable.sol\":2653:2658  token */\n      dup2\n        /* \"contracts/BlackJackTable.sol\":2653:2666  token.tokenID */\n      0x00\n      add\n      sload\n        /* \"contracts/BlackJackTable.sol\":2668:2678  msg.sender */\n      caller\n        /* \"contracts/BlackJackTable.sol\":2680:2685  token */\n      dup4\n        /* \"contracts/BlackJackTable.sol\":2680:2689  token.bet */\n      0x01\n      add\n      sload\n        /* \"contracts/BlackJackTable.sol\":2691:2696  token */\n      dup5\n        /* \"contracts/BlackJackTable.sol\":2691:2706  token.finalSeed */\n      0x05\n      add\n      sload\n        /* \"contracts/BlackJackTable.sol\":2643:2707  BetPlaced(token.tokenID, msg.sender, token.bet, token.finalSeed) */\n      mload(0x40)\n      tag_85\n      swap5\n      swap4\n      swap3\n      swap2\n      swap1\n      tag_86\n      jump\t// in\n    tag_85:\n      mload(0x40)\n      dup1\n      swap2\n      sub\n      swap1\n      log1\n        /* \"contracts/BlackJackTable.sol\":1863:2714  {... */\n      pop\n      pop\n        /* \"contracts/BlackJackTable.sol\":1822:2714  function placeBets(uint256 bet) external {... */\n      pop\n      jump\t// out\n        /* \"contracts/BlackJackTable.sol\":7154:8117  function stand() external {... */\n    tag_29:\n        /* \"contracts/BlackJackTable.sol\":7190:7204  uint256 gameID */\n      0x00\n        /* \"contracts/BlackJackTable.sol\":7207:7217  activeGame */\n      0x03\n        /* \"contracts/BlackJackTable.sol\":7207:7229  activeGame[msg.sender] */\n      0x00\n        /* \"contracts/BlackJackTable.sol\":7218:7228  msg.sender */\n      caller\n        /* \"contracts/BlackJackTable.sol\":7207:7229  activeGame[msg.sender] */\n      0xffffffffffffffffffffffffffffffffffffffff\n      and\n      0xffffffffffffffffffffffffffffffffffffffff\n      and\n      dup2\n      mstore\n      0x20\n      add\n      swap1\n      dup2\n      mstore\n      0x20\n      add\n      0x00\n      keccak256\n      sload\n        /* \"contracts/BlackJackTable.sol\":7190:7229  uint256 gameID = activeGame[msg.sender] */\n      swap1\n      pop\n        /* \"contracts/BlackJackTable.sol\":7239:7262  GameToken storage token */\n      0x00\n        /* \"contracts/BlackJackTable.sol\":7265:7270  games */\n      0x04\n        /* \"contracts/BlackJackTable.sol\":7265:7278  games[gameID] */\n      0x00\n        /* \"contracts/BlackJackTable.sol\":7271:7277  gameID */\n      dup4\n        /* \"contracts/BlackJackTable.sol\":7265:7278  games[gameID] */\n      dup2\n      mstore\n      0x20\n      add\n      swap1\n      dup2\n      mstore\n      0x20\n      add\n      0x00\n      keccak256\n        /* \"contracts/BlackJackTable.sol\":7239:7278  GameToken storage token = games[gameID] */\n      swap1\n      pop\n        /* \"contracts/BlackJackTable.sol\":7296:7301  token */\n      dup1\n        /* \"contracts/BlackJackTable.sol\":7296:7310  token.isActive */\n      0x06\n      add\n      0x01\n      swap1\n      sload\n      swap1\n      0x0100\n      exp\n      swap1\n      div\n      0xff\n      and\n        /* \"contracts/BlackJackTable.sol\":7288:7339  require(token.isActive, \"No game has been started\") */\n      tag_88\n      jumpi\n      mload(0x40)\n      0x08c379a000000000000000000000000000000000000000000000000000000000\n      dup2\n      mstore\n      0x04\n      add\n      tag_89\n      swap1\n      tag_90\n      jump\t// in\n    tag_89:\n      mload(0x40)\n      dup1\n      swap2\n      sub\n      swap1\n      revert\n    tag_88:\n        /* \"contracts/BlackJackTable.sol\":7349:7359  uint8 card */\n      0x00\n        /* \"contracts/BlackJackTable.sol\":7369:7654  while (token.dealerHandTotalValue < 17) {... */\n    tag_91:\n        /* \"contracts/BlackJackTable.sol\":7405:7407  17 */\n      0x11\n        /* \"contracts/BlackJackTable.sol\":7376:7381  token */\n      dup3\n        /* \"contracts/BlackJackTable.sol\":7376:7402  token.dealerHandTotalValue */\n      0x0b\n      add\n      0x03\n      swap1\n      sload\n      swap1\n      0x0100\n      exp\n      swap1\n      div\n      0xff\n      and\n        /* \"contracts/BlackJackTable.sol\":7376:7407  token.dealerHandTotalValue < 17 */\n      0xff\n      and\n      lt\n        /* \"contracts/BlackJackTable.sol\":7369:7654  while (token.dealerHandTotalValue < 17) {... */\n      iszero\n      tag_92\n      jumpi\n        /* \"contracts/BlackJackTable.sol\":7430:7445  drawCard(token) */\n      tag_93\n        /* \"contracts/BlackJackTable.sol\":7439:7444  token */\n      dup3\n        /* \"contracts/BlackJackTable.sol\":7430:7438  drawCard */\n      tag_42\n        /* \"contracts/BlackJackTable.sol\":7430:7445  drawCard(token) */\n      jump\t// in\n    tag_93:\n        /* \"contracts/BlackJackTable.sol\":7423:7445  card = drawCard(token) */\n      swap1\n      pop\n        /* \"contracts/BlackJackTable.sol\":7512:7643  addCardToHand(... */\n      tag_94\n        /* \"contracts/BlackJackTable.sol\":7543:7547  card */\n      dup2\n        /* \"contracts/BlackJackTable.sol\":7565:7570  token */\n      dup4\n        /* \"contracts/BlackJackTable.sol\":7565:7591  token.dealerHandTotalValue */\n      0x0b\n      add\n      0x03\n      swap1\n      sload\n      swap1\n      0x0100\n      exp\n      swap1\n      div\n      0xff\n      and\n        /* \"contracts/BlackJackTable.sol\":7609:7614  token */\n      dup5\n        /* \"contracts/BlackJackTable.sol\":7609:7629  token.dealerAceCount */\n      0x0b\n      add\n      0x04\n      swap1\n      sload\n      swap1\n      0x0100\n      exp\n      swap1\n      div\n      0xff\n      and\n        /* \"contracts/BlackJackTable.sol\":7512:7525  addCardToHand */\n      tag_44\n        /* \"contracts/BlackJackTable.sol\":7512:7643  addCardToHand(... */\n      jump\t// in\n    tag_94:\n        /* \"contracts/BlackJackTable.sol\":7460:7465  token */\n      dup4\n        /* \"contracts/BlackJackTable.sol\":7460:7486  token.dealerHandTotalValue */\n      0x0b\n      add\n      0x03\n        /* \"contracts/BlackJackTable.sol\":7488:7493  token */\n      dup6\n        /* \"contracts/BlackJackTable.sol\":7488:7508  token.dealerAceCount */\n      0x0b\n      add\n      0x04\n        /* \"contracts/BlackJackTable.sol\":7459:7643  (token.dealerHandTotalValue, token.dealerAceCount) = addCardToHand(... */\n      dup5\n      swap2\n      swap1\n      0x0100\n      exp\n      dup2\n      sload\n      dup2\n      0xff\n      mul\n      not\n      and\n      swap1\n      dup4\n      0xff\n      and\n      mul\n      or\n      swap1\n      sstore\n      pop\n      dup4\n      swap2\n      swap1\n      0x0100\n      exp\n      dup2\n      sload\n      dup2\n      0xff\n      mul\n      not\n      and\n      swap1\n      dup4\n      0xff\n      and\n      mul\n      or\n      swap1\n      sstore\n      pop\n      pop\n      pop\n        /* \"contracts/BlackJackTable.sol\":7369:7654  while (token.dealerHandTotalValue < 17) {... */\n      jump(tag_91)\n    tag_92:\n        /* \"contracts/BlackJackTable.sol\":7697:7699  21 */\n      0x15\n        /* \"contracts/BlackJackTable.sol\":7668:7673  token */\n      dup3\n        /* \"contracts/BlackJackTable.sol\":7668:7694  token.dealerHandTotalValue */\n      0x0b\n      add\n      0x03\n      swap1\n      sload\n      swap1\n      0x0100\n      exp\n      swap1\n      div\n      0xff\n      and\n        /* \"contracts/BlackJackTable.sol\":7668:7699  token.dealerHandTotalValue > 21 */\n      0xff\n      and\n      gt\n        /* \"contracts/BlackJackTable.sol\":7664:8111  if (token.dealerHandTotalValue > 21) {... */\n      iszero\n      tag_95\n      jumpi\n        /* \"contracts/BlackJackTable.sol\":7715:7763  endGame(token, Result.PLAYER_WIN, token.bet * 2) */\n      tag_96\n        /* \"contracts/BlackJackTable.sol\":7723:7728  token */\n      dup3\n        /* \"contracts/BlackJackTable.sol\":7730:7747  Result.PLAYER_WIN */\n      0x01\n        /* \"contracts/BlackJackTable.sol\":7761:7762  2 */\n      0x02\n        /* \"contracts/BlackJackTable.sol\":7749:7754  token */\n      dup6\n        /* \"contracts/BlackJackTable.sol\":7749:7758  token.bet */\n      0x01\n      add\n      sload\n        /* \"contracts/BlackJackTable.sol\":7749:7762  token.bet * 2 */\n      tag_97\n      swap2\n      swap1\n      tag_54\n      jump\t// in\n    tag_97:\n        /* \"contracts/BlackJackTable.sol\":7715:7722  endGame */\n      tag_47\n        /* \"contracts/BlackJackTable.sol\":7715:7763  endGame(token, Result.PLAYER_WIN, token.bet * 2) */\n      jump\t// in\n    tag_96:\n        /* \"contracts/BlackJackTable.sol\":7664:8111  if (token.dealerHandTotalValue > 21) {... */\n      jump(tag_98)\n    tag_95:\n        /* \"contracts/BlackJackTable.sol\":7826:7831  token */\n      dup2\n        /* \"contracts/BlackJackTable.sol\":7826:7852  token.playerHandTotalValue */\n      0x0b\n      add\n      0x01\n      swap1\n      sload\n      swap1\n      0x0100\n      exp\n      swap1\n      div\n      0xff\n      and\n        /* \"contracts/BlackJackTable.sol\":7797:7852  token.dealerHandTotalValue > token.playerHandTotalValue */\n      0xff\n      and\n        /* \"contracts/BlackJackTable.sol\":7797:7802  token */\n      dup3\n        /* \"contracts/BlackJackTable.sol\":7797:7823  token.dealerHandTotalValue */\n      0x0b\n      add\n      0x03\n      swap1\n      sload\n      swap1\n      0x0100\n      exp\n      swap1\n      div\n      0xff\n      and\n        /* \"contracts/BlackJackTable.sol\":7797:7852  token.dealerHandTotalValue > token.playerHandTotalValue */\n      0xff\n      and\n      gt\n        /* \"contracts/BlackJackTable.sol\":7797:7908  token.dealerHandTotalValue > token.playerHandTotalValue ||... */\n      dup1\n      tag_99\n      jumpi\n      pop\n        /* \"contracts/BlackJackTable.sol\":7868:7908  hasBlackJack(token.dealerHandTotalValue) */\n      tag_100\n        /* \"contracts/BlackJackTable.sol\":7881:7886  token */\n      dup3\n        /* \"contracts/BlackJackTable.sol\":7881:7907  token.dealerHandTotalValue */\n      0x0b\n      add\n      0x03\n      swap1\n      sload\n      swap1\n      0x0100\n      exp\n      swap1\n      div\n      0xff\n      and\n        /* \"contracts/BlackJackTable.sol\":7868:7880  hasBlackJack */\n      tag_50\n        /* \"contracts/BlackJackTable.sol\":7868:7908  hasBlackJack(token.dealerHandTotalValue) */\n      jump\t// in\n    tag_100:\n        /* \"contracts/BlackJackTable.sol\":7797:7908  token.dealerHandTotalValue > token.playerHandTotalValue ||... */\n    tag_99:\n        /* \"contracts/BlackJackTable.sol\":7780:8111  if (... */\n      iszero\n      tag_101\n      jumpi\n        /* \"contracts/BlackJackTable.sol\":7933:7969  endGame(token, Result.DEALER_WIN, 0) */\n      tag_102\n        /* \"contracts/BlackJackTable.sol\":7941:7946  token */\n      dup3\n        /* \"contracts/BlackJackTable.sol\":7948:7965  Result.DEALER_WIN */\n      0x02\n        /* \"contracts/BlackJackTable.sol\":7967:7968  0 */\n      0x00\n        /* \"contracts/BlackJackTable.sol\":7933:7940  endGame */\n      tag_47\n        /* \"contracts/BlackJackTable.sol\":7933:7969  endGame(token, Result.DEALER_WIN, 0) */\n      jump\t// in\n    tag_102:\n        /* \"contracts/BlackJackTable.sol\":7780:8111  if (... */\n      jump(tag_103)\n    tag_101:\n        /* \"contracts/BlackJackTable.sol\":8020:8025  token */\n      dup2\n        /* \"contracts/BlackJackTable.sol\":8020:8046  token.playerHandTotalValue */\n      0x0b\n      add\n      0x01\n      swap1\n      sload\n      swap1\n      0x0100\n      exp\n      swap1\n      div\n      0xff\n      and\n        /* \"contracts/BlackJackTable.sol\":7990:8046  token.dealerHandTotalValue == token.playerHandTotalValue */\n      0xff\n      and\n        /* \"contracts/BlackJackTable.sol\":7990:7995  token */\n      dup3\n        /* \"contracts/BlackJackTable.sol\":7990:8016  token.dealerHandTotalValue */\n      0x0b\n      add\n      0x03\n      swap1\n      sload\n      swap1\n      0x0100\n      exp\n      swap1\n      div\n      0xff\n      and\n        /* \"contracts/BlackJackTable.sol\":7990:8046  token.dealerHandTotalValue == token.playerHandTotalValue */\n      0xff\n      and\n      sub\n        /* \"contracts/BlackJackTable.sol\":7986:8111  if (token.dealerHandTotalValue == token.playerHandTotalValue) {... */\n      tag_104\n      jumpi\n        /* \"contracts/BlackJackTable.sol\":8062:8100  endGame(token, Result.PUSH, token.bet) */\n      tag_105\n        /* \"contracts/BlackJackTable.sol\":8070:8075  token */\n      dup3\n        /* \"contracts/BlackJackTable.sol\":8077:8088  Result.PUSH */\n      0x03\n        /* \"contracts/BlackJackTable.sol\":8090:8095  token */\n      dup5\n        /* \"contracts/BlackJackTable.sol\":8090:8099  token.bet */\n      0x01\n      add\n      sload\n        /* \"contracts/BlackJackTable.sol\":8062:8069  endGame */\n      tag_47\n        /* \"contracts/BlackJackTable.sol\":8062:8100  endGame(token, Result.PUSH, token.bet) */\n      jump\t// in\n    tag_105:\n        /* \"contracts/BlackJackTable.sol\":7986:8111  if (token.dealerHandTotalValue == token.playerHandTotalValue) {... */\n    tag_104:\n        /* \"contracts/BlackJackTable.sol\":7780:8111  if (... */\n    tag_103:\n        /* \"contracts/BlackJackTable.sol\":7664:8111  if (token.dealerHandTotalValue > 21) {... */\n    tag_98:\n        /* \"contracts/BlackJackTable.sol\":7180:8117  {... */\n      pop\n      pop\n      pop\n        /* \"contracts/BlackJackTable.sol\":7154:8117  function stand() external {... */\n      jump\t// out\n        /* \"contracts/BlackJackTable.sol\":281:300  IVault public vault */\n    tag_31:\n      0x00\n      0x00\n      swap1\n      sload\n      swap1\n      0x0100\n      exp\n      swap1\n      div\n      0xffffffffffffffffffffffffffffffffffffffff\n      and\n      dup2\n      jump\t// out\n        /* \"contracts/BlackJackTable.sol\":6000:6439  function drawCard(GameToken storage token) internal returns (uint8) {... */\n    tag_42:\n        /* \"contracts/BlackJackTable.sol\":6061:6066  uint8 */\n      0x00\n        /* \"contracts/BlackJackTable.sol\":6086:6091  token */\n      dup2\n        /* \"contracts/BlackJackTable.sol\":6086:6102  token.isShuffled */\n      0x0b\n      add\n      0x00\n      swap1\n      sload\n      swap1\n      0x0100\n      exp\n      swap1\n      div\n      0xff\n      and\n        /* \"contracts/BlackJackTable.sol\":6078:6133  require(token.isShuffled, \"Deck has not been shuffled\") */\n      tag_107\n      jumpi\n      mload(0x40)\n      0x08c379a000000000000000000000000000000000000000000000000000000000\n      dup2\n      mstore\n      0x04\n      add\n      tag_108\n      swap1\n      tag_109\n      jump\t// in\n    tag_108:\n      mload(0x40)\n      dup1\n      swap2\n      sub\n      swap1\n      revert\n    tag_107:\n        /* \"contracts/BlackJackTable.sol\":6143:6152  uint8 raw */\n      0x00\n        /* \"contracts/BlackJackTable.sol\":6155:6160  token */\n      dup3\n        /* \"contracts/BlackJackTable.sol\":6155:6165  token.deck */\n      0x07\n      add\n        /* \"contracts/BlackJackTable.sol\":6166:6171  token */\n      dup4\n        /* \"contracts/BlackJackTable.sol\":6166:6181  token.drawIndex */\n      0x06\n      add\n      0x00\n      swap1\n      sload\n      swap1\n      0x0100\n      exp\n      swap1\n      div\n      0xff\n      and\n        /* \"contracts/BlackJackTable.sol\":6155:6182  token.deck[token.drawIndex] */\n      0xff\n      and\n      0x68\n      dup2\n      lt\n      tag_110\n      jumpi\n      tag_111\n      tag_112\n      jump\t// in\n    tag_111:\n    tag_110:\n      0x20\n      swap2\n      dup3\n      dup3\n      div\n      add\n      swap2\n      swap1\n      mod\n      swap1\n      sload\n      swap1\n      0x0100\n      exp\n      swap1\n      div\n      0xff\n      and\n        /* \"contracts/BlackJackTable.sol\":6143:6182  uint8 raw = token.deck[token.drawIndex] */\n      swap1\n      pop\n        /* \"contracts/BlackJackTable.sol\":6216:6227  uint8 value */\n      0x00\n        /* \"contracts/BlackJackTable.sol\":6243:6244  1 */\n      0x01\n        /* \"contracts/BlackJackTable.sol\":6237:6239  13 */\n      0x0d\n        /* \"contracts/BlackJackTable.sol\":6231:6234  raw */\n      dup4\n        /* \"contracts/BlackJackTable.sol\":6231:6239  raw % 13 */\n      tag_114\n      swap2\n      swap1\n      tag_115\n      jump\t// in\n    tag_114:\n        /* \"contracts/BlackJackTable.sol\":6230:6244  (raw % 13) + 1 */\n      tag_116\n      swap2\n      swap1\n      tag_117\n      jump\t// in\n    tag_116:\n        /* \"contracts/BlackJackTable.sol\":6216:6244  uint8 value = (raw % 13) + 1 */\n      swap1\n      pop\n        /* \"contracts/BlackJackTable.sol\":6266:6268  10 */\n      0x0a\n        /* \"contracts/BlackJackTable.sol\":6258:6263  value */\n      dup2\n        /* \"contracts/BlackJackTable.sol\":6258:6268  value > 10 */\n      0xff\n      and\n      gt\n        /* \"contracts/BlackJackTable.sol\":6254:6280  if (value > 10) value = 10 */\n      iszero\n      tag_118\n      jumpi\n        /* \"contracts/BlackJackTable.sol\":6278:6280  10 */\n      0x0a\n        /* \"contracts/BlackJackTable.sol\":6270:6280  value = 10 */\n      swap1\n      pop\n        /* \"contracts/BlackJackTable.sol\":6254:6280  if (value > 10) value = 10 */\n    tag_118:\n        /* \"contracts/BlackJackTable.sol\":6290:6295  token */\n      dup4\n        /* \"contracts/BlackJackTable.sol\":6290:6305  token.drawIndex */\n      0x06\n      add\n      0x00\n        /* \"contracts/BlackJackTable.sol\":6290:6307  token.drawIndex++ */\n      dup2\n      dup2\n      swap1\n      sload\n      swap1\n      0x0100\n      exp\n      swap1\n      div\n      0xff\n      and\n      dup1\n      swap3\n      swap2\n      swap1\n      tag_119\n      swap1\n      tag_120\n      jump\t// in\n    tag_119:\n      swap2\n      swap1\n      0x0100\n      exp\n      dup2\n      sload\n      dup2\n      0xff\n      mul\n      not\n      and\n      swap1\n      dup4\n      0xff\n      and\n      mul\n      or\n      swap1\n      sstore\n      pop\n      pop\n        /* \"contracts/BlackJackTable.sol\":6382:6410  CardDrawn(token.player, raw) */\n      0x5cb494422aec3c1d66ad0616d3f90f8641e12057560336165c27bf8793fce9cf\n        /* \"contracts/BlackJackTable.sol\":6392:6397  token */\n      dup5\n        /* \"contracts/BlackJackTable.sol\":6392:6404  token.player */\n      0x02\n      add\n      0x00\n      swap1\n      sload\n      swap1\n      0x0100\n      exp\n      swap1\n      div\n      0xffffffffffffffffffffffffffffffffffffffff\n      and\n        /* \"contracts/BlackJackTable.sol\":6406:6409  raw */\n      dup4\n        /* \"contracts/BlackJackTable.sol\":6382:6410  CardDrawn(token.player, raw) */\n      mload(0x40)\n      tag_121\n      swap3\n      swap2\n      swap1\n      tag_122\n      jump\t// in\n    tag_121:\n      mload(0x40)\n      dup1\n      swap2\n      sub\n      swap1\n      log1\n        /* \"contracts/BlackJackTable.sol\":6427:6432  value */\n      dup1\n        /* \"contracts/BlackJackTable.sol\":6420:6432  return value */\n      swap3\n      pop\n      pop\n      pop\n        /* \"contracts/BlackJackTable.sol\":6000:6439  function drawCard(GameToken storage token) internal returns (uint8) {... */\n      swap2\n      swap1\n      pop\n      jump\t// out\n        /* \"contracts/BlackJackTable.sol\":5410:5994  function addCardToHand(... */\n    tag_44:\n        /* \"contracts/BlackJackTable.sol\":5534:5539  uint8 */\n      0x00\n        /* \"contracts/BlackJackTable.sol\":5541:5546  uint8 */\n      0x00\n        /* \"contracts/BlackJackTable.sol\":5636:5637  1 */\n      0x01\n        /* \"contracts/BlackJackTable.sol\":5628:5632  card */\n      dup6\n        /* \"contracts/BlackJackTable.sol\":5628:5637  card == 1 */\n      0xff\n      and\n      sub\n        /* \"contracts/BlackJackTable.sol\":5624:5760  if (card == 1) {... */\n      tag_124\n      jumpi\n        /* \"contracts/BlackJackTable.sol\":5669:5671  11 */\n      0x0b\n        /* \"contracts/BlackJackTable.sol\":5653:5671  currentTotal += 11 */\n      dup5\n      tag_125\n      swap2\n      swap1\n      tag_117\n      jump\t// in\n    tag_125:\n      swap4\n      pop\n        /* \"contracts/BlackJackTable.sol\":5697:5698  1 */\n      0x01\n        /* \"contracts/BlackJackTable.sol\":5685:5698  aceCount += 1 */\n      dup4\n      tag_126\n      swap2\n      swap1\n      tag_117\n      jump\t// in\n    tag_126:\n      swap3\n      pop\n        /* \"contracts/BlackJackTable.sol\":5624:5760  if (card == 1) {... */\n      jump(tag_127)\n    tag_124:\n        /* \"contracts/BlackJackTable.sol\":5745:5749  card */\n      dup5\n        /* \"contracts/BlackJackTable.sol\":5729:5749  currentTotal += card */\n      dup5\n      tag_128\n      swap2\n      swap1\n      tag_117\n      jump\t// in\n    tag_128:\n      swap4\n      pop\n        /* \"contracts/BlackJackTable.sol\":5624:5760  if (card == 1) {... */\n    tag_127:\n        /* \"contracts/BlackJackTable.sol\":5835:5947  while (currentTotal > 21 && aceCount > 0) {... */\n    tag_129:\n        /* \"contracts/BlackJackTable.sol\":5857:5859  21 */\n      0x15\n        /* \"contracts/BlackJackTable.sol\":5842:5854  currentTotal */\n      dup5\n        /* \"contracts/BlackJackTable.sol\":5842:5859  currentTotal > 21 */\n      0xff\n      and\n      gt\n        /* \"contracts/BlackJackTable.sol\":5842:5875  currentTotal > 21 && aceCount > 0 */\n      dup1\n      iszero\n      tag_131\n      jumpi\n      pop\n        /* \"contracts/BlackJackTable.sol\":5874:5875  0 */\n      0x00\n        /* \"contracts/BlackJackTable.sol\":5863:5871  aceCount */\n      dup4\n        /* \"contracts/BlackJackTable.sol\":5863:5875  aceCount > 0 */\n      0xff\n      and\n      gt\n        /* \"contracts/BlackJackTable.sol\":5842:5875  currentTotal > 21 && aceCount > 0 */\n    tag_131:\n        /* \"contracts/BlackJackTable.sol\":5835:5947  while (currentTotal > 21 && aceCount > 0) {... */\n      iszero\n      tag_130\n      jumpi\n        /* \"contracts/BlackJackTable.sol\":5907:5909  10 */\n      0x0a\n        /* \"contracts/BlackJackTable.sol\":5891:5909  currentTotal -= 10 */\n      dup5\n      tag_132\n      swap2\n      swap1\n      tag_133\n      jump\t// in\n    tag_132:\n      swap4\n      pop\n        /* \"contracts/BlackJackTable.sol\":5935:5936  1 */\n      0x01\n        /* \"contracts/BlackJackTable.sol\":5923:5936  aceCount -= 1 */\n      dup4\n      tag_134\n      swap2\n      swap1\n      tag_133\n      jump\t// in\n    tag_134:\n      swap3\n      pop\n        /* \"contracts/BlackJackTable.sol\":5835:5947  while (currentTotal > 21 && aceCount > 0) {... */\n      jump(tag_129)\n    tag_130:\n        /* \"contracts/BlackJackTable.sol\":5964:5976  currentTotal */\n      dup4\n        /* \"contracts/BlackJackTable.sol\":5978:5986  aceCount */\n      dup4\n        /* \"contracts/BlackJackTable.sol\":5956:5987  return (currentTotal, aceCount) */\n      swap2\n      pop\n      swap2\n      pop\n        /* \"contracts/BlackJackTable.sol\":5410:5994  function addCardToHand(... */\n      swap4\n      pop\n      swap4\n      swap2\n      pop\n      pop\n      jump\t// out\n        /* \"contracts/BlackJackTable.sol\":8123:8533  function endGame(... */\n    tag_47:\n        /* \"contracts/BlackJackTable.sol\":8260:8266  result */\n      dup2\n        /* \"contracts/BlackJackTable.sol\":8245:8250  token */\n      dup4\n        /* \"contracts/BlackJackTable.sol\":8245:8257  token.result */\n      0x06\n      add\n      0x03\n        /* \"contracts/BlackJackTable.sol\":8245:8266  token.result = result */\n      0x0100\n      exp\n      dup2\n      sload\n      dup2\n      0xff\n      mul\n      not\n      and\n      swap1\n      dup4\n      0x03\n      dup2\n      gt\n      iszero\n      tag_136\n      jumpi\n      tag_137\n      tag_138\n      jump\t// in\n    tag_137:\n    tag_136:\n      mul\n      or\n      swap1\n      sstore\n      pop\n        /* \"contracts/BlackJackTable.sol\":8296:8300  true */\n      0x01\n        /* \"contracts/BlackJackTable.sol\":8276:8281  token */\n      dup4\n        /* \"contracts/BlackJackTable.sol\":8276:8293  token.isCompleted */\n      0x06\n      add\n      0x02\n        /* \"contracts/BlackJackTable.sol\":8276:8300  token.isCompleted = true */\n      0x0100\n      exp\n      dup2\n      sload\n      dup2\n      0xff\n      mul\n      not\n      and\n      swap1\n      dup4\n      iszero\n      iszero\n      mul\n      or\n      swap1\n      sstore\n      pop\n        /* \"contracts/BlackJackTable.sol\":8327:8332  false */\n      0x00\n        /* \"contracts/BlackJackTable.sol\":8310:8315  token */\n      dup4\n        /* \"contracts/BlackJackTable.sol\":8310:8324  token.isActive */\n      0x06\n      add\n      0x01\n        /* \"contracts/BlackJackTable.sol\":8310:8332  token.isActive = false */\n      0x0100\n      exp\n      dup2\n      sload\n      dup2\n      0xff\n      mul\n      not\n      and\n      swap1\n      dup4\n      iszero\n      iszero\n      mul\n      or\n      swap1\n      sstore\n      pop\n        /* \"contracts/BlackJackTable.sol\":8355:8356  0 */\n      0x00\n        /* \"contracts/BlackJackTable.sol\":8346:8352  payout */\n      dup2\n        /* \"contracts/BlackJackTable.sol\":8346:8356  payout > 0 */\n      gt\n        /* \"contracts/BlackJackTable.sol\":8342:8417  if (payout > 0) {... */\n      iszero\n      tag_139\n      jumpi\n        /* \"contracts/BlackJackTable.sol\":8372:8377  vault */\n      0x00\n      0x00\n      swap1\n      sload\n      swap1\n      0x0100\n      exp\n      swap1\n      div\n      0xffffffffffffffffffffffffffffffffffffffff\n      and\n        /* \"contracts/BlackJackTable.sol\":8372:8384  vault.payout */\n      0xffffffffffffffffffffffffffffffffffffffff\n      and\n      0x117de2fd\n        /* \"contracts/BlackJackTable.sol\":8385:8390  token */\n      dup5\n        /* \"contracts/BlackJackTable.sol\":8385:8397  token.player */\n      0x02\n      add\n      0x00\n      swap1\n      sload\n      swap1\n      0x0100\n      exp\n      swap1\n      div\n      0xffffffffffffffffffffffffffffffffffffffff\n      and\n        /* \"contracts/BlackJackTable.sol\":8399:8405  payout */\n      dup4\n        /* \"contracts/BlackJackTable.sol\":8372:8406  vault.payout(token.player, payout) */\n      mload(0x40)\n      dup4\n      0xffffffff\n      and\n      0xe0\n      shl\n      dup2\n      mstore\n      0x04\n      add\n      tag_140\n      swap3\n      swap2\n      swap1\n      tag_141\n      jump\t// in\n    tag_140:\n      0x00\n      mload(0x40)\n      dup1\n      dup4\n      sub\n      dup2\n      0x00\n      dup8\n      dup1\n      extcodesize\n      iszero\n      dup1\n      iszero\n      tag_142\n      jumpi\n      revert(0x00, 0x00)\n    tag_142:\n      pop\n      gas\n      call\n      iszero\n      dup1\n      iszero\n      tag_144\n      jumpi\n      returndatacopy(0x00, 0x00, returndatasize)\n      revert(0x00, returndatasize)\n    tag_144:\n      pop\n      pop\n      pop\n      pop\n        /* \"contracts/BlackJackTable.sol\":8342:8417  if (payout > 0) {... */\n    tag_139:\n        /* \"contracts/BlackJackTable.sol\":8433:8443  activeGame */\n      0x03\n        /* \"contracts/BlackJackTable.sol\":8433:8457  activeGame[token.player] */\n      0x00\n        /* \"contracts/BlackJackTable.sol\":8444:8449  token */\n      dup5\n        /* \"contracts/BlackJackTable.sol\":8444:8456  token.player */\n      0x02\n      add\n      0x00\n      swap1\n      sload\n      swap1\n      0x0100\n      exp\n      swap1\n      div\n      0xffffffffffffffffffffffffffffffffffffffff\n      and\n        /* \"contracts/BlackJackTable.sol\":8433:8457  activeGame[token.player] */\n      0xffffffffffffffffffffffffffffffffffffffff\n      and\n      0xffffffffffffffffffffffffffffffffffffffff\n      and\n      dup2\n      mstore\n      0x20\n      add\n      swap1\n      dup2\n      mstore\n      0x20\n      add\n      0x00\n      keccak256\n        /* \"contracts/BlackJackTable.sol\":8426:8457  delete activeGame[token.player] */\n      0x00\n      swap1\n      sstore\n        /* \"contracts/BlackJackTable.sol\":8479:8480  0 */\n      0x00\n        /* \"contracts/BlackJackTable.sol\":8467:8472  token */\n      dup4\n        /* \"contracts/BlackJackTable.sol\":8467:8476  token.bet */\n      0x01\n      add\n        /* \"contracts/BlackJackTable.sol\":8467:8480  token.bet = 0 */\n      dup2\n      swap1\n      sstore\n      pop\n        /* \"contracts/BlackJackTable.sol\":8495:8526  GameEnded(token.player, result) */\n      0xecdab0d30ae5a2b8d283acf9ed4856306f12f29ef8069fac9148d3d2ac6b4b14\n        /* \"contracts/BlackJackTable.sol\":8505:8510  token */\n      dup4\n        /* \"contracts/BlackJackTable.sol\":8505:8517  token.player */\n      0x02\n      add\n      0x00\n      swap1\n      sload\n      swap1\n      0x0100\n      exp\n      swap1\n      div\n      0xffffffffffffffffffffffffffffffffffffffff\n      and\n        /* \"contracts/BlackJackTable.sol\":8519:8525  result */\n      dup4\n        /* \"contracts/BlackJackTable.sol\":8495:8526  GameEnded(token.player, result) */\n      mload(0x40)\n      tag_145\n      swap3\n      swap2\n      swap1\n      tag_146\n      jump\t// in\n    tag_145:\n      mload(0x40)\n      dup1\n      swap2\n      sub\n      swap1\n      log1\n        /* \"contracts/BlackJackTable.sol\":8123:8533  function endGame(... */\n      pop\n      pop\n      pop\n      jump\t// out\n        /* \"contracts/BlackJackTable.sol\":5291:5404  function hasBlackJack(uint8 currentTotal) internal pure returns (bool) {... */\n    tag_50:\n        /* \"contracts/BlackJackTable.sol\":5356:5360  bool */\n      0x00\n        /* \"contracts/BlackJackTable.sol\":5395:5397  21 */\n      0x15\n        /* \"contracts/BlackJackTable.sol\":5379:5391  currentTotal */\n      dup3\n        /* \"contracts/BlackJackTable.sol\":5379:5397  currentTotal == 21 */\n      0xff\n      and\n      eq\n        /* \"contracts/BlackJackTable.sol\":5372:5397  return currentTotal == 21 */\n      swap1\n      pop\n        /* \"contracts/BlackJackTable.sol\":5291:5404  function hasBlackJack(uint8 currentTotal) internal pure returns (bool) {... */\n      swap2\n      swap1\n      pop\n      jump\t// out\n        /* \"contracts/BlackJackTable.sol\":3171:3971  function shuffleDeck(GameToken storage token) internal {... */\n    tag_84:\n        /* \"contracts/BlackJackTable.sol\":3396:3403  uint8 i */\n      0x00\n        /* \"contracts/BlackJackTable.sol\":3406:3407  0 */\n      0x00\n        /* \"contracts/BlackJackTable.sol\":3396:3407  uint8 i = 0 */\n      swap1\n      pop\n        /* \"contracts/BlackJackTable.sol\":3391:3470  for (uint8 i = 0; i < deckSize; i++) {... */\n    tag_149:\n        /* \"contracts/BlackJackTable.sol\":661:664  104 */\n      0x68\n        /* \"contracts/BlackJackTable.sol\":3409:3421  i < deckSize */\n      0xff\n      and\n        /* \"contracts/BlackJackTable.sol\":3409:3410  i */\n      dup2\n        /* \"contracts/BlackJackTable.sol\":3409:3421  i < deckSize */\n      0xff\n      and\n      lt\n        /* \"contracts/BlackJackTable.sol\":3391:3470  for (uint8 i = 0; i < deckSize; i++) {... */\n      iszero\n      tag_150\n      jumpi\n        /* \"contracts/BlackJackTable.sol\":3458:3459  i */\n      dup1\n        /* \"contracts/BlackJackTable.sol\":3442:3447  token */\n      dup3\n        /* \"contracts/BlackJackTable.sol\":3442:3452  token.deck */\n      0x07\n      add\n        /* \"contracts/BlackJackTable.sol\":3453:3454  i */\n      dup3\n        /* \"contracts/BlackJackTable.sol\":3442:3455  token.deck[i] */\n      0xff\n      and\n      0x68\n      dup2\n      lt\n      tag_152\n      jumpi\n      tag_153\n      tag_112\n      jump\t// in\n    tag_153:\n    tag_152:\n      0x20\n      swap2\n      dup3\n      dup3\n      div\n      add\n      swap2\n      swap1\n      mod\n        /* \"contracts/BlackJackTable.sol\":3442:3459  token.deck[i] = i */\n      0x0100\n      exp\n      dup2\n      sload\n      dup2\n      0xff\n      mul\n      not\n      and\n      swap1\n      dup4\n      0xff\n      and\n      mul\n      or\n      swap1\n      sstore\n      pop\n        /* \"contracts/BlackJackTable.sol\":3423:3426  i++ */\n      dup1\n      dup1\n      0x01\n      add\n      swap2\n      pop\n      pop\n        /* \"contracts/BlackJackTable.sol\":3391:3470  for (uint8 i = 0; i < deckSize; i++) {... */\n      jump(tag_149)\n    tag_150:\n      pop\n        /* \"contracts/BlackJackTable.sol\":3586:3595  uint256 i */\n      0x00\n        /* \"contracts/BlackJackTable.sol\":3598:3599  0 */\n      0x00\n        /* \"contracts/BlackJackTable.sol\":3586:3599  uint256 i = 0 */\n      swap1\n      pop\n        /* \"contracts/BlackJackTable.sol\":3581:3931  for (uint256 i = 0; i < deckSize; i++) {... */\n    tag_155:\n        /* \"contracts/BlackJackTable.sol\":661:664  104 */\n      0x68\n        /* \"contracts/BlackJackTable.sol\":3601:3613  i < deckSize */\n      0xff\n      and\n        /* \"contracts/BlackJackTable.sol\":3601:3602  i */\n      dup2\n        /* \"contracts/BlackJackTable.sol\":3601:3613  i < deckSize */\n      lt\n        /* \"contracts/BlackJackTable.sol\":3581:3931  for (uint256 i = 0; i < deckSize; i++) {... */\n      iszero\n      tag_156\n      jumpi\n        /* \"contracts/BlackJackTable.sol\":3674:3683  uint256 n */\n      0x00\n        /* \"contracts/BlackJackTable.sol\":3794:3795  i */\n      dup2\n        /* \"contracts/BlackJackTable.sol\":661:664  104 */\n      0x68\n        /* \"contracts/BlackJackTable.sol\":3783:3795  deckSize - i */\n      0xff\n      and\n      tag_158\n      swap2\n      swap1\n      tag_159\n      jump\t// in\n    tag_158:\n        /* \"contracts/BlackJackTable.sol\":3737:3742  token */\n      dup4\n        /* \"contracts/BlackJackTable.sol\":3737:3752  token.finalSeed */\n      0x05\n      add\n      sload\n        /* \"contracts/BlackJackTable.sol\":3754:3755  i */\n      dup4\n        /* \"contracts/BlackJackTable.sol\":3726:3756  abi.encode(token.finalSeed, i) */\n      add(0x20, mload(0x40))\n      tag_160\n      swap3\n      swap2\n      swap1\n      tag_161\n      jump\t// in\n    tag_160:\n      mload(0x40)\n      0x20\n      dup2\n      dup4\n      sub\n      sub\n      dup2\n      mstore\n      swap1\n      0x40\n      mstore\n        /* \"contracts/BlackJackTable.sol\":3716:3757  keccak256(abi.encode(token.finalSeed, i)) */\n      dup1\n      mload\n      swap1\n      0x20\n      add\n      keccak256\n        /* \"contracts/BlackJackTable.sol\":3708:3758  uint256(keccak256(abi.encode(token.finalSeed, i))) */\n      0x00\n      shr\n        /* \"contracts/BlackJackTable.sol\":3707:3796  (uint256(keccak256(abi.encode(token.finalSeed, i)))) %... */\n      tag_162\n      swap2\n      swap1\n      tag_163\n      jump\t// in\n    tag_162:\n        /* \"contracts/BlackJackTable.sol\":3686:3687  i */\n      dup3\n        /* \"contracts/BlackJackTable.sol\":3686:3797  i +... */\n      tag_164\n      swap2\n      swap1\n      tag_165\n      jump\t// in\n    tag_164:\n        /* \"contracts/BlackJackTable.sol\":3674:3797  uint256 n = i +... */\n      swap1\n      pop\n        /* \"contracts/BlackJackTable.sol\":3891:3896  token */\n      dup3\n        /* \"contracts/BlackJackTable.sol\":3891:3901  token.deck */\n      0x07\n      add\n        /* \"contracts/BlackJackTable.sol\":3902:3903  n */\n      dup2\n        /* \"contracts/BlackJackTable.sol\":3891:3904  token.deck[n] */\n      0x68\n      dup2\n      lt\n      tag_166\n      jumpi\n      tag_167\n      tag_112\n      jump\t// in\n    tag_167:\n    tag_166:\n      0x20\n      swap2\n      dup3\n      dup3\n      div\n      add\n      swap2\n      swap1\n      mod\n      swap1\n      sload\n      swap1\n      0x0100\n      exp\n      swap1\n      div\n      0xff\n      and\n        /* \"contracts/BlackJackTable.sol\":3906:3911  token */\n      dup4\n        /* \"contracts/BlackJackTable.sol\":3906:3916  token.deck */\n      0x07\n      add\n        /* \"contracts/BlackJackTable.sol\":3917:3918  i */\n      dup4\n        /* \"contracts/BlackJackTable.sol\":3906:3919  token.deck[i] */\n      0x68\n      dup2\n      lt\n      tag_169\n      jumpi\n      tag_170\n      tag_112\n      jump\t// in\n    tag_170:\n    tag_169:\n      0x20\n      swap2\n      dup3\n      dup3\n      div\n      add\n      swap2\n      swap1\n      mod\n      swap1\n      sload\n      swap1\n      0x0100\n      exp\n      swap1\n      div\n      0xff\n      and\n        /* \"contracts/BlackJackTable.sol\":3858:3863  token */\n      dup5\n        /* \"contracts/BlackJackTable.sol\":3858:3868  token.deck */\n      0x07\n      add\n        /* \"contracts/BlackJackTable.sol\":3869:3870  i */\n      dup5\n        /* \"contracts/BlackJackTable.sol\":3858:3871  token.deck[i] */\n      0x68\n      dup2\n      lt\n      tag_172\n      jumpi\n      tag_173\n      tag_112\n      jump\t// in\n    tag_173:\n    tag_172:\n      0x20\n      swap2\n      dup3\n      dup3\n      div\n      add\n      swap2\n      swap1\n      mod\n        /* \"contracts/BlackJackTable.sol\":3873:3878  token */\n      dup7\n        /* \"contracts/BlackJackTable.sol\":3873:3883  token.deck */\n      0x07\n      add\n        /* \"contracts/BlackJackTable.sol\":3884:3885  n */\n      dup6\n        /* \"contracts/BlackJackTable.sol\":3873:3886  token.deck[n] */\n      0x68\n      dup2\n      lt\n      tag_175\n      jumpi\n      tag_176\n      tag_112\n      jump\t// in\n    tag_176:\n    tag_175:\n      0x20\n      swap2\n      dup3\n      dup3\n      div\n      add\n      swap2\n      swap1\n      mod\n        /* \"contracts/BlackJackTable.sol\":3857:3920  (token.deck[i], token.deck[n]) = (token.deck[n], token.deck[i]) */\n      dup5\n      swap2\n      swap1\n      0x0100\n      exp\n      dup2\n      sload\n      dup2\n      0xff\n      mul\n      not\n      and\n      swap1\n      dup4\n      0xff\n      and\n      mul\n      or\n      swap1\n      sstore\n      pop\n      dup4\n      swap2\n      swap1\n      0x0100\n      exp\n      dup2\n      sload\n      dup2\n      0xff\n      mul\n      not\n      and\n      swap1\n      dup4\n      0xff\n      and\n      mul\n      or\n      swap1\n      sstore\n      pop\n      pop\n      pop\n        /* \"contracts/BlackJackTable.sol\":3620:3931  {... */\n      pop\n        /* \"contracts/BlackJackTable.sol\":3615:3618  i++ */\n      dup1\n      dup1\n      0x01\n      add\n      swap2\n      pop\n      pop\n        /* \"contracts/BlackJackTable.sol\":3581:3931  for (uint256 i = 0; i < deckSize; i++) {... */\n      jump(tag_155)\n    tag_156:\n      pop\n        /* \"contracts/BlackJackTable.sol\":3960:3964  true */\n      0x01\n        /* \"contracts/BlackJackTable.sol\":3941:3946  token */\n      dup2\n        /* \"contracts/BlackJackTable.sol\":3941:3957  token.isShuffled */\n      0x0b\n      add\n      0x00\n        /* \"contracts/BlackJackTable.sol\":3941:3964  token.isShuffled = true */\n      0x0100\n      exp\n      dup2\n      sload\n      dup2\n      0xff\n      mul\n      not\n      and\n      swap1\n      dup4\n      iszero\n      iszero\n      mul\n      or\n      swap1\n      sstore\n      pop\n        /* \"contracts/BlackJackTable.sol\":3171:3971  function shuffleDeck(GameToken storage token) internal {... */\n      pop\n      jump\t// out\n        /* \"#utility.yul\":88:205   */\n    tag_179:\n        /* \"#utility.yul\":197:198   */\n      0x00\n        /* \"#utility.yul\":194:195   */\n      0x00\n        /* \"#utility.yul\":187:199   */\n      revert\n        /* \"#utility.yul\":334:411   */\n    tag_181:\n        /* \"#utility.yul\":371:378   */\n      0x00\n        /* \"#utility.yul\":400:405   */\n      dup2\n        /* \"#utility.yul\":389:405   */\n      swap1\n      pop\n        /* \"#utility.yul\":334:411   */\n      swap2\n      swap1\n      pop\n      jump\t// out\n        /* \"#utility.yul\":417:539   */\n    tag_182:\n        /* \"#utility.yul\":490:514   */\n      tag_230\n        /* \"#utility.yul\":508:513   */\n      dup2\n        /* \"#utility.yul\":490:514   */\n      tag_181\n      jump\t// in\n    tag_230:\n        /* \"#utility.yul\":483:488   */\n      dup2\n        /* \"#utility.yul\":480:515   */\n      eq\n        /* \"#utility.yul\":470:533   */\n      tag_231\n      jumpi\n        /* \"#utility.yul\":529:530   */\n      0x00\n        /* \"#utility.yul\":526:527   */\n      0x00\n        /* \"#utility.yul\":519:531   */\n      revert\n        /* \"#utility.yul\":470:533   */\n    tag_231:\n        /* \"#utility.yul\":417:539   */\n      pop\n      jump\t// out\n        /* \"#utility.yul\":545:684   */\n    tag_183:\n        /* \"#utility.yul\":591:596   */\n      0x00\n        /* \"#utility.yul\":629:635   */\n      dup2\n        /* \"#utility.yul\":616:636   */\n      calldataload\n        /* \"#utility.yul\":607:636   */\n      swap1\n      pop\n        /* \"#utility.yul\":645:678   */\n      tag_233\n        /* \"#utility.yul\":672:677   */\n      dup2\n        /* \"#utility.yul\":645:678   */\n      tag_182\n      jump\t// in\n    tag_233:\n        /* \"#utility.yul\":545:684   */\n      swap3\n      swap2\n      pop\n      pop\n      jump\t// out\n        /* \"#utility.yul\":690:1019   */\n    tag_15:\n        /* \"#utility.yul\":749:755   */\n      0x00\n        /* \"#utility.yul\":798:800   */\n      0x20\n        /* \"#utility.yul\":786:795   */\n      dup3\n        /* \"#utility.yul\":777:784   */\n      dup5\n        /* \"#utility.yul\":773:796   */\n      sub\n        /* \"#utility.yul\":769:801   */\n      slt\n        /* \"#utility.yul\":766:885   */\n      iszero\n      tag_235\n      jumpi\n        /* \"#utility.yul\":804:883   */\n      tag_236\n      tag_179\n      jump\t// in\n    tag_236:\n        /* \"#utility.yul\":766:885   */\n    tag_235:\n        /* \"#utility.yul\":924:925   */\n      0x00\n        /* \"#utility.yul\":949:1002   */\n      tag_237\n        /* \"#utility.yul\":994:1001   */\n      dup5\n        /* \"#utility.yul\":985:991   */\n      dup3\n        /* \"#utility.yul\":974:983   */\n      dup6\n        /* \"#utility.yul\":970:992   */\n      add\n        /* \"#utility.yul\":949:1002   */\n      tag_183\n      jump\t// in\n    tag_237:\n        /* \"#utility.yul\":939:1002   */\n      swap2\n      pop\n        /* \"#utility.yul\":895:1012   */\n      pop\n        /* \"#utility.yul\":690:1019   */\n      swap3\n      swap2\n      pop\n      pop\n      jump\t// out\n        /* \"#utility.yul\":1025:1143   */\n    tag_184:\n        /* \"#utility.yul\":1112:1136   */\n      tag_239\n        /* \"#utility.yul\":1130:1135   */\n      dup2\n        /* \"#utility.yul\":1112:1136   */\n      tag_181\n      jump\t// in\n    tag_239:\n        /* \"#utility.yul\":1107:1110   */\n      dup3\n        /* \"#utility.yul\":1100:1137   */\n      mstore\n        /* \"#utility.yul\":1025:1143   */\n      pop\n      pop\n      jump\t// out\n        /* \"#utility.yul\":1149:1371   */\n    tag_20:\n        /* \"#utility.yul\":1242:1246   */\n      0x00\n        /* \"#utility.yul\":1280:1282   */\n      0x20\n        /* \"#utility.yul\":1269:1278   */\n      dup3\n        /* \"#utility.yul\":1265:1283   */\n      add\n        /* \"#utility.yul\":1257:1283   */\n      swap1\n      pop\n        /* \"#utility.yul\":1293:1364   */\n      tag_241\n        /* \"#utility.yul\":1361:1362   */\n      0x00\n        /* \"#utility.yul\":1350:1359   */\n      dup4\n        /* \"#utility.yul\":1346:1363   */\n      add\n        /* \"#utility.yul\":1337:1343   */\n      dup5\n        /* \"#utility.yul\":1293:1364   */\n      tag_184\n      jump\t// in\n    tag_241:\n        /* \"#utility.yul\":1149:1371   */\n      swap3\n      swap2\n      pop\n      pop\n      jump\t// out\n        /* \"#utility.yul\":1377:1503   */\n    tag_185:\n        /* \"#utility.yul\":1414:1421   */\n      0x00\n        /* \"#utility.yul\":1454:1496   */\n      0xffffffffffffffffffffffffffffffffffffffff\n        /* \"#utility.yul\":1447:1452   */\n      dup3\n        /* \"#utility.yul\":1443:1497   */\n      and\n        /* \"#utility.yul\":1432:1497   */\n      swap1\n      pop\n        /* \"#utility.yul\":1377:1503   */\n      swap2\n      swap1\n      pop\n      jump\t// out\n        /* \"#utility.yul\":1509:1569   */\n    tag_186:\n        /* \"#utility.yul\":1537:1540   */\n      0x00\n        /* \"#utility.yul\":1558:1563   */\n      dup2\n        /* \"#utility.yul\":1551:1563   */\n      swap1\n      pop\n        /* \"#utility.yul\":1509:1569   */\n      swap2\n      swap1\n      pop\n      jump\t// out\n        /* \"#utility.yul\":1575:1717   */\n    tag_187:\n        /* \"#utility.yul\":1625:1634   */\n      0x00\n        /* \"#utility.yul\":1658:1711   */\n      tag_245\n        /* \"#utility.yul\":1676:1710   */\n      tag_246\n        /* \"#utility.yul\":1685:1709   */\n      tag_247\n        /* \"#utility.yul\":1703:1708   */\n      dup5\n        /* \"#utility.yul\":1685:1709   */\n      tag_185\n      jump\t// in\n    tag_247:\n        /* \"#utility.yul\":1676:1710   */\n      tag_186\n      jump\t// in\n    tag_246:\n        /* \"#utility.yul\":1658:1711   */\n      tag_185\n      jump\t// in\n    tag_245:\n        /* \"#utility.yul\":1645:1711   */\n      swap1\n      pop\n        /* \"#utility.yul\":1575:1717   */\n      swap2\n      swap1\n      pop\n      jump\t// out\n        /* \"#utility.yul\":1723:1849   */\n    tag_188:\n        /* \"#utility.yul\":1773:1782   */\n      0x00\n        /* \"#utility.yul\":1806:1843   */\n      tag_249\n        /* \"#utility.yul\":1837:1842   */\n      dup3\n        /* \"#utility.yul\":1806:1843   */\n      tag_187\n      jump\t// in\n    tag_249:\n        /* \"#utility.yul\":1793:1843   */\n      swap1\n      pop\n        /* \"#utility.yul\":1723:1849   */\n      swap2\n      swap1\n      pop\n      jump\t// out\n        /* \"#utility.yul\":1855:1996   */\n    tag_189:\n        /* \"#utility.yul\":1920:1929   */\n      0x00\n        /* \"#utility.yul\":1953:1990   */\n      tag_251\n        /* \"#utility.yul\":1984:1989   */\n      dup3\n        /* \"#utility.yul\":1953:1990   */\n      tag_188\n      jump\t// in\n    tag_251:\n        /* \"#utility.yul\":1940:1990   */\n      swap1\n      pop\n        /* \"#utility.yul\":1855:1996   */\n      swap2\n      swap1\n      pop\n      jump\t// out\n        /* \"#utility.yul\":2002:2163   */\n    tag_190:\n        /* \"#utility.yul\":2104:2156   */\n      tag_253\n        /* \"#utility.yul\":2150:2155   */\n      dup2\n        /* \"#utility.yul\":2104:2156   */\n      tag_189\n      jump\t// in\n    tag_253:\n        /* \"#utility.yul\":2099:2102   */\n      dup3\n        /* \"#utility.yul\":2092:2157   */\n      mstore\n        /* \"#utility.yul\":2002:2163   */\n      pop\n      pop\n      jump\t// out\n        /* \"#utility.yul\":2169:2421   */\n    tag_24:\n        /* \"#utility.yul\":2277:2281   */\n      0x00\n        /* \"#utility.yul\":2315:2317   */\n      0x20\n        /* \"#utility.yul\":2304:2313   */\n      dup3\n        /* \"#utility.yul\":2300:2318   */\n      add\n        /* \"#utility.yul\":2292:2318   */\n      swap1\n      pop\n        /* \"#utility.yul\":2328:2414   */\n      tag_255\n        /* \"#utility.yul\":2411:2412   */\n      0x00\n        /* \"#utility.yul\":2400:2409   */\n      dup4\n        /* \"#utility.yul\":2396:2413   */\n      add\n        /* \"#utility.yul\":2387:2393   */\n      dup5\n        /* \"#utility.yul\":2328:2414   */\n      tag_190\n      jump\t// in\n    tag_255:\n        /* \"#utility.yul\":2169:2421   */\n      swap3\n      swap2\n      pop\n      pop\n      jump\t// out\n        /* \"#utility.yul\":2427:2567   */\n    tag_191:\n        /* \"#utility.yul\":2491:2500   */\n      0x00\n        /* \"#utility.yul\":2524:2561   */\n      tag_257\n        /* \"#utility.yul\":2555:2560   */\n      dup3\n        /* \"#utility.yul\":2524:2561   */\n      tag_188\n      jump\t// in\n    tag_257:\n        /* \"#utility.yul\":2511:2561   */\n      swap1\n      pop\n        /* \"#utility.yul\":2427:2567   */\n      swap2\n      swap1\n      pop\n      jump\t// out\n        /* \"#utility.yul\":2573:2732   */\n    tag_192:\n        /* \"#utility.yul\":2674:2725   */\n      tag_259\n        /* \"#utility.yul\":2719:2724   */\n      dup2\n        /* \"#utility.yul\":2674:2725   */\n      tag_191\n      jump\t// in\n    tag_259:\n        /* \"#utility.yul\":2669:2672   */\n      dup3\n        /* \"#utility.yul\":2662:2726   */\n      mstore\n        /* \"#utility.yul\":2573:2732   */\n      pop\n      pop\n      jump\t// out\n        /* \"#utility.yul\":2738:2988   */\n    tag_33:\n        /* \"#utility.yul\":2845:2849   */\n      0x00\n        /* \"#utility.yul\":2883:2885   */\n      0x20\n        /* \"#utility.yul\":2872:2881   */\n      dup3\n        /* \"#utility.yul\":2868:2886   */\n      add\n        /* \"#utility.yul\":2860:2886   */\n      swap1\n      pop\n        /* \"#utility.yul\":2896:2981   */\n      tag_261\n        /* \"#utility.yul\":2978:2979   */\n      0x00\n        /* \"#utility.yul\":2967:2976   */\n      dup4\n        /* \"#utility.yul\":2963:2980   */\n      add\n        /* \"#utility.yul\":2954:2960   */\n      dup5\n        /* \"#utility.yul\":2896:2981   */\n      tag_192\n      jump\t// in\n    tag_261:\n        /* \"#utility.yul\":2738:2988   */\n      swap3\n      swap2\n      pop\n      pop\n      jump\t// out\n        /* \"#utility.yul\":2994:3163   */\n    tag_193:\n        /* \"#utility.yul\":3078:3089   */\n      0x00\n        /* \"#utility.yul\":3112:3118   */\n      dup3\n        /* \"#utility.yul\":3107:3110   */\n      dup3\n        /* \"#utility.yul\":3100:3119   */\n      mstore\n        /* \"#utility.yul\":3152:3156   */\n      0x20\n        /* \"#utility.yul\":3147:3150   */\n      dup3\n        /* \"#utility.yul\":3143:3157   */\n      add\n        /* \"#utility.yul\":3128:3157   */\n      swap1\n      pop\n        /* \"#utility.yul\":2994:3163   */\n      swap3\n      swap2\n      pop\n      pop\n      jump\t// out\n        /* \"#utility.yul\":3169:3341   */\n    tag_194:\n        /* \"#utility.yul\":3309:3333   */\n      0x4e6f2067616d6520697320696e2070726f677265737300000000000000000000\n        /* \"#utility.yul\":3305:3306   */\n      0x00\n        /* \"#utility.yul\":3297:3303   */\n      dup3\n        /* \"#utility.yul\":3293:3307   */\n      add\n        /* \"#utility.yul\":3286:3334   */\n      mstore\n        /* \"#utility.yul\":3169:3341   */\n      pop\n      jump\t// out\n        /* \"#utility.yul\":3347:3713   */\n    tag_195:\n        /* \"#utility.yul\":3489:3492   */\n      0x00\n        /* \"#utility.yul\":3510:3577   */\n      tag_265\n        /* \"#utility.yul\":3574:3576   */\n      0x16\n        /* \"#utility.yul\":3569:3572   */\n      dup4\n        /* \"#utility.yul\":3510:3577   */\n      tag_193\n      jump\t// in\n    tag_265:\n        /* \"#utility.yul\":3503:3577   */\n      swap2\n      pop\n        /* \"#utility.yul\":3586:3679   */\n      tag_266\n        /* \"#utility.yul\":3675:3678   */\n      dup3\n        /* \"#utility.yul\":3586:3679   */\n      tag_194\n      jump\t// in\n    tag_266:\n        /* \"#utility.yul\":3704:3706   */\n      0x20\n        /* \"#utility.yul\":3699:3702   */\n      dup3\n        /* \"#utility.yul\":3695:3707   */\n      add\n        /* \"#utility.yul\":3688:3707   */\n      swap1\n      pop\n        /* \"#utility.yul\":3347:3713   */\n      swap2\n      swap1\n      pop\n      jump\t// out\n        /* \"#utility.yul\":3719:4138   */\n    tag_37:\n        /* \"#utility.yul\":3885:3889   */\n      0x00\n        /* \"#utility.yul\":3923:3925   */\n      0x20\n        /* \"#utility.yul\":3912:3921   */\n      dup3\n        /* \"#utility.yul\":3908:3926   */\n      add\n        /* \"#utility.yul\":3900:3926   */\n      swap1\n      pop\n        /* \"#utility.yul\":3972:3981   */\n      dup2\n        /* \"#utility.yul\":3966:3970   */\n      dup2\n        /* \"#utility.yul\":3962:3982   */\n      sub\n        /* \"#utility.yul\":3958:3959   */\n      0x00\n        /* \"#utility.yul\":3947:3956   */\n      dup4\n        /* \"#utility.yul\":3943:3960   */\n      add\n        /* \"#utility.yul\":3936:3983   */\n      mstore\n        /* \"#utility.yul\":4000:4131   */\n      tag_268\n        /* \"#utility.yul\":4126:4130   */\n      dup2\n        /* \"#utility.yul\":4000:4131   */\n      tag_195\n      jump\t// in\n    tag_268:\n        /* \"#utility.yul\":3992:4131   */\n      swap1\n      pop\n        /* \"#utility.yul\":3719:4138   */\n      swap2\n      swap1\n      pop\n      jump\t// out\n        /* \"#utility.yul\":4144:4319   */\n    tag_196:\n        /* \"#utility.yul\":4284:4311   */\n      0x47616d652068617320616c72656164792066696e697368656400000000000000\n        /* \"#utility.yul\":4280:4281   */\n      0x00\n        /* \"#utility.yul\":4272:4278   */\n      dup3\n        /* \"#utility.yul\":4268:4282   */\n      add\n        /* \"#utility.yul\":4261:4312   */\n      mstore\n        /* \"#utility.yul\":4144:4319   */\n      pop\n      jump\t// out\n        /* \"#utility.yul\":4325:4691   */\n    tag_197:\n        /* \"#utility.yul\":4467:4470   */\n      0x00\n        /* \"#utility.yul\":4488:4555   */\n      tag_271\n        /* \"#utility.yul\":4552:4554   */\n      0x19\n        /* \"#utility.yul\":4547:4550   */\n      dup4\n        /* \"#utility.yul\":4488:4555   */\n      tag_193\n      jump\t// in\n    tag_271:\n        /* \"#utility.yul\":4481:4555   */\n      swap2\n      pop\n        /* \"#utility.yul\":4564:4657   */\n      tag_272\n        /* \"#utility.yul\":4653:4656   */\n      dup3\n        /* \"#utility.yul\":4564:4657   */\n      tag_196\n      jump\t// in\n    tag_272:\n        /* \"#utility.yul\":4682:4684   */\n      0x20\n        /* \"#utility.yul\":4677:4680   */\n      dup3\n        /* \"#utility.yul\":4673:4685   */\n      add\n        /* \"#utility.yul\":4666:4685   */\n      swap1\n      pop\n        /* \"#utility.yul\":4325:4691   */\n      swap2\n      swap1\n      pop\n      jump\t// out\n        /* \"#utility.yul\":4697:5116   */\n    tag_40:\n        /* \"#utility.yul\":4863:4867   */\n      0x00\n        /* \"#utility.yul\":4901:4903   */\n      0x20\n        /* \"#utility.yul\":4890:4899   */\n      dup3\n        /* \"#utility.yul\":4886:4904   */\n      add\n        /* \"#utility.yul\":4878:4904   */\n      swap1\n      pop\n        /* \"#utility.yul\":4950:4959   */\n      dup2\n        /* \"#utility.yul\":4944:4948   */\n      dup2\n        /* \"#utility.yul\":4940:4960   */\n      sub\n        /* \"#utility.yul\":4936:4937   */\n      0x00\n        /* \"#utility.yul\":4925:4934   */\n      dup4\n        /* \"#utility.yul\":4921:4938   */\n      add\n        /* \"#utility.yul\":4914:4961   */\n      mstore\n        /* \"#utility.yul\":4978:5109   */\n      tag_274\n        /* \"#utility.yul\":5104:5108   */\n      dup2\n        /* \"#utility.yul\":4978:5109   */\n      tag_197\n      jump\t// in\n    tag_274:\n        /* \"#utility.yul\":4970:5109   */\n      swap1\n      pop\n        /* \"#utility.yul\":4697:5116   */\n      swap2\n      swap1\n      pop\n      jump\t// out\n        /* \"#utility.yul\":5122:5302   */\n    tag_198:\n        /* \"#utility.yul\":5170:5247   */\n      0x4e487b7100000000000000000000000000000000000000000000000000000000\n        /* \"#utility.yul\":5167:5168   */\n      0x00\n        /* \"#utility.yul\":5160:5248   */\n      mstore\n        /* \"#utility.yul\":5267:5271   */\n      0x11\n        /* \"#utility.yul\":5264:5265   */\n      0x04\n        /* \"#utility.yul\":5257:5272   */\n      mstore\n        /* \"#utility.yul\":5291:5295   */\n      0x24\n        /* \"#utility.yul\":5288:5289   */\n      0x00\n        /* \"#utility.yul\":5281:5296   */\n      revert\n        /* \"#utility.yul\":5308:5718   */\n    tag_54:\n        /* \"#utility.yul\":5348:5355   */\n      0x00\n        /* \"#utility.yul\":5371:5391   */\n      tag_277\n        /* \"#utility.yul\":5389:5390   */\n      dup3\n        /* \"#utility.yul\":5371:5391   */\n      tag_181\n      jump\t// in\n    tag_277:\n        /* \"#utility.yul\":5366:5391   */\n      swap2\n      pop\n        /* \"#utility.yul\":5405:5425   */\n      tag_278\n        /* \"#utility.yul\":5423:5424   */\n      dup4\n        /* \"#utility.yul\":5405:5425   */\n      tag_181\n      jump\t// in\n    tag_278:\n        /* \"#utility.yul\":5400:5425   */\n      swap3\n      pop\n        /* \"#utility.yul\":5460:5461   */\n      dup3\n        /* \"#utility.yul\":5457:5458   */\n      dup3\n        /* \"#utility.yul\":5453:5462   */\n      mul\n        /* \"#utility.yul\":5482:5512   */\n      tag_279\n        /* \"#utility.yul\":5500:5511   */\n      dup2\n        /* \"#utility.yul\":5482:5512   */\n      tag_181\n      jump\t// in\n    tag_279:\n        /* \"#utility.yul\":5471:5512   */\n      swap2\n      pop\n        /* \"#utility.yul\":5661:5662   */\n      dup3\n        /* \"#utility.yul\":5652:5659   */\n      dup3\n        /* \"#utility.yul\":5648:5663   */\n      div\n        /* \"#utility.yul\":5645:5646   */\n      dup5\n        /* \"#utility.yul\":5642:5664   */\n      eq\n        /* \"#utility.yul\":5622:5623   */\n      dup4\n        /* \"#utility.yul\":5615:5624   */\n      iszero\n        /* \"#utility.yul\":5595:5678   */\n      or\n        /* \"#utility.yul\":5572:5711   */\n      tag_280\n      jumpi\n        /* \"#utility.yul\":5691:5709   */\n      tag_281\n      tag_198\n      jump\t// in\n    tag_281:\n        /* \"#utility.yul\":5572:5711   */\n    tag_280:\n        /* \"#utility.yul\":5356:5718   */\n      pop\n        /* \"#utility.yul\":5308:5718   */\n      swap3\n      swap2\n      pop\n      pop\n      jump\t// out\n        /* \"#utility.yul\":5724:5898   */\n    tag_199:\n        /* \"#utility.yul\":5864:5890   */\n      0x47616d6520616c726561647920696e2070726f67726573730000000000000000\n        /* \"#utility.yul\":5860:5861   */\n      0x00\n        /* \"#utility.yul\":5852:5858   */\n      dup3\n        /* \"#utility.yul\":5848:5862   */\n      add\n        /* \"#utility.yul\":5841:5891   */\n      mstore\n        /* \"#utility.yul\":5724:5898   */\n      pop\n      jump\t// out\n        /* \"#utility.yul\":5904:6270   */\n    tag_200:\n        /* \"#utility.yul\":6046:6049   */\n      0x00\n        /* \"#utility.yul\":6067:6134   */\n      tag_284\n        /* \"#utility.yul\":6131:6133   */\n      0x18\n        /* \"#utility.yul\":6126:6129   */\n      dup4\n        /* \"#utility.yul\":6067:6134   */\n      tag_193\n      jump\t// in\n    tag_284:\n        /* \"#utility.yul\":6060:6134   */\n      swap2\n      pop\n        /* \"#utility.yul\":6143:6236   */\n      tag_285\n        /* \"#utility.yul\":6232:6235   */\n      dup3\n        /* \"#utility.yul\":6143:6236   */\n      tag_199\n      jump\t// in\n    tag_285:\n        /* \"#utility.yul\":6261:6263   */\n      0x20\n        /* \"#utility.yul\":6256:6259   */\n      dup3\n        /* \"#utility.yul\":6252:6264   */\n      add\n        /* \"#utility.yul\":6245:6264   */\n      swap1\n      pop\n        /* \"#utility.yul\":5904:6270   */\n      swap2\n      swap1\n      pop\n      jump\t// out\n        /* \"#utility.yul\":6276:6695   */\n    tag_58:\n        /* \"#utility.yul\":6442:6446   */\n      0x00\n        /* \"#utility.yul\":6480:6482   */\n      0x20\n        /* \"#utility.yul\":6469:6478   */\n      dup3\n        /* \"#utility.yul\":6465:6483   */\n      add\n        /* \"#utility.yul\":6457:6483   */\n      swap1\n      pop\n        /* \"#utility.yul\":6529:6538   */\n      dup2\n        /* \"#utility.yul\":6523:6527   */\n      dup2\n        /* \"#utility.yul\":6519:6539   */\n      sub\n        /* \"#utility.yul\":6515:6516   */\n      0x00\n        /* \"#utility.yul\":6504:6513   */\n      dup4\n        /* \"#utility.yul\":6500:6517   */\n      add\n        /* \"#utility.yul\":6493:6540   */\n      mstore\n        /* \"#utility.yul\":6557:6688   */\n      tag_287\n        /* \"#utility.yul\":6683:6687   */\n      dup2\n        /* \"#utility.yul\":6557:6688   */\n      tag_200\n      jump\t// in\n    tag_287:\n        /* \"#utility.yul\":6549:6688   */\n      swap1\n      pop\n        /* \"#utility.yul\":6276:6695   */\n      swap2\n      swap1\n      pop\n      jump\t// out\n        /* \"#utility.yul\":6701:6934   */\n    tag_60:\n        /* \"#utility.yul\":6740:6743   */\n      0x00\n        /* \"#utility.yul\":6763:6787   */\n      tag_289\n        /* \"#utility.yul\":6781:6786   */\n      dup3\n        /* \"#utility.yul\":6763:6787   */\n      tag_181\n      jump\t// in\n    tag_289:\n        /* \"#utility.yul\":6754:6787   */\n      swap2\n      pop\n        /* \"#utility.yul\":6809:6875   */\n      0xffffffffffffffffffffffffffffffffffffffffffffffffffffffffffffffff\n        /* \"#utility.yul\":6802:6807   */\n      dup3\n        /* \"#utility.yul\":6799:6876   */\n      sub\n        /* \"#utility.yul\":6796:6899   */\n      tag_290\n      jumpi\n        /* \"#utility.yul\":6879:6897   */\n      tag_291\n      tag_198\n      jump\t// in\n    tag_291:\n        /* \"#utility.yul\":6796:6899   */\n    tag_290:\n        /* \"#utility.yul\":6926:6927   */\n      0x01\n        /* \"#utility.yul\":6919:6924   */\n      dup3\n        /* \"#utility.yul\":6915:6928   */\n      add\n        /* \"#utility.yul\":6908:6928   */\n      swap1\n      pop\n        /* \"#utility.yul\":6701:6934   */\n      swap2\n      swap1\n      pop\n      jump\t// out\n        /* \"#utility.yul\":6940:7036   */\n    tag_201:\n        /* \"#utility.yul\":6977:6984   */\n      0x00\n        /* \"#utility.yul\":7006:7030   */\n      tag_293\n        /* \"#utility.yul\":7024:7029   */\n      dup3\n        /* \"#utility.yul\":7006:7030   */\n      tag_185\n      jump\t// in\n    tag_293:\n        /* \"#utility.yul\":6995:7030   */\n      swap1\n      pop\n        /* \"#utility.yul\":6940:7036   */\n      swap2\n      swap1\n      pop\n      jump\t// out\n        /* \"#utility.yul\":7042:7160   */\n    tag_202:\n        /* \"#utility.yul\":7129:7153   */\n      tag_295\n        /* \"#utility.yul\":7147:7152   */\n      dup2\n        /* \"#utility.yul\":7129:7153   */\n      tag_201\n      jump\t// in\n    tag_295:\n        /* \"#utility.yul\":7124:7127   */\n      dup3\n        /* \"#utility.yul\":7117:7154   */\n      mstore\n        /* \"#utility.yul\":7042:7160   */\n      pop\n      pop\n      jump\t// out\n        /* \"#utility.yul\":7166:7498   */\n    tag_62:\n        /* \"#utility.yul\":7287:7291   */\n      0x00\n        /* \"#utility.yul\":7325:7327   */\n      0x40\n        /* \"#utility.yul\":7314:7323   */\n      dup3\n        /* \"#utility.yul\":7310:7328   */\n      add\n        /* \"#utility.yul\":7302:7328   */\n      swap1\n      pop\n        /* \"#utility.yul\":7338:7409   */\n      tag_297\n        /* \"#utility.yul\":7406:7407   */\n      0x00\n        /* \"#utility.yul\":7395:7404   */\n      dup4\n        /* \"#utility.yul\":7391:7408   */\n      add\n        /* \"#utility.yul\":7382:7388   */\n      dup6\n        /* \"#utility.yul\":7338:7409   */\n      tag_184\n      jump\t// in\n    tag_297:\n        /* \"#utility.yul\":7419:7491   */\n      tag_298\n        /* \"#utility.yul\":7487:7489   */\n      0x20\n        /* \"#utility.yul\":7476:7485   */\n      dup4\n        /* \"#utility.yul\":7472:7490   */\n      add\n        /* \"#utility.yul\":7463:7469   */\n      dup5\n        /* \"#utility.yul\":7419:7491   */\n      tag_202\n      jump\t// in\n    tag_298:\n        /* \"#utility.yul\":7166:7498   */\n      swap4\n      swap3\n      pop\n      pop\n      pop\n      jump\t// out\n        /* \"#utility.yul\":7504:7671   */\n    tag_203:\n        /* \"#utility.yul\":7644:7663   */\n      0x426574206f7574206f662072616e67652e000000000000000000000000000000\n        /* \"#utility.yul\":7640:7641   */\n      0x00\n        /* \"#utility.yul\":7632:7638   */\n      dup3\n        /* \"#utility.yul\":7628:7642   */\n      add\n        /* \"#utility.yul\":7621:7664   */\n      mstore\n        /* \"#utility.yul\":7504:7671   */\n      pop\n      jump\t// out\n        /* \"#utility.yul\":7677:8043   */\n    tag_204:\n        /* \"#utility.yul\":7819:7822   */\n      0x00\n        /* \"#utility.yul\":7840:7907   */\n      tag_301\n        /* \"#utility.yul\":7904:7906   */\n      0x11\n        /* \"#utility.yul\":7899:7902   */\n      dup4\n        /* \"#utility.yul\":7840:7907   */\n      tag_193\n      jump\t// in\n    tag_301:\n        /* \"#utility.yul\":7833:7907   */\n      swap2\n      pop\n        /* \"#utility.yul\":7916:8009   */\n      tag_302\n        /* \"#utility.yul\":8005:8008   */\n      dup3\n        /* \"#utility.yul\":7916:8009   */\n      tag_203\n      jump\t// in\n    tag_302:\n        /* \"#utility.yul\":8034:8036   */\n      0x20\n        /* \"#utility.yul\":8029:8032   */\n      dup3\n        /* \"#utility.yul\":8025:8037   */\n      add\n        /* \"#utility.yul\":8018:8037   */\n      swap1\n      pop\n        /* \"#utility.yul\":7677:8043   */\n      swap2\n      swap1\n      pop\n      jump\t// out\n        /* \"#utility.yul\":8049:8468   */\n    tag_67:\n        /* \"#utility.yul\":8215:8219   */\n      0x00\n        /* \"#utility.yul\":8253:8255   */\n      0x20\n        /* \"#utility.yul\":8242:8251   */\n      dup3\n        /* \"#utility.yul\":8238:8256   */\n      add\n        /* \"#utility.yul\":8230:8256   */\n      swap1\n      pop\n        /* \"#utility.yul\":8302:8311   */\n      dup2\n        /* \"#utility.yul\":8296:8300   */\n      dup2\n        /* \"#utility.yul\":8292:8312   */\n      sub\n        /* \"#utility.yul\":8288:8289   */\n      0x00\n        /* \"#utility.yul\":8277:8286   */\n      dup4\n        /* \"#utility.yul\":8273:8290   */\n      add\n        /* \"#utility.yul\":8266:8313   */\n      mstore\n        /* \"#utility.yul\":8330:8461   */\n      tag_304\n        /* \"#utility.yul\":8456:8460   */\n      dup2\n        /* \"#utility.yul\":8330:8461   */\n      tag_204\n      jump\t// in\n    tag_304:\n        /* \"#utility.yul\":8322:8461   */\n      swap1\n      pop\n        /* \"#utility.yul\":8049:8468   */\n      swap2\n      swap1\n      pop\n      jump\t// out\n        /* \"#utility.yul\":8474:8648   */\n    tag_205:\n        /* \"#utility.yul\":8614:8640   */\n      0x4e6f206163746976652067616d652063757272656e746c790000000000000000\n        /* \"#utility.yul\":8610:8611   */\n      0x00\n        /* \"#utility.yul\":8602:8608   */\n      dup3\n        /* \"#utility.yul\":8598:8612   */\n      add\n        /* \"#utility.yul\":8591:8641   */\n      mstore\n        /* \"#utility.yul\":8474:8648   */\n      pop\n      jump\t// out\n        /* \"#utility.yul\":8654:9020   */\n    tag_206:\n        /* \"#utility.yul\":8796:8799   */\n      0x00\n        /* \"#utility.yul\":8817:8884   */\n      tag_307\n        /* \"#utility.yul\":8881:8883   */\n      0x18\n        /* \"#utility.yul\":8876:8879   */\n      dup4\n        /* \"#utility.yul\":8817:8884   */\n      tag_193\n      jump\t// in\n    tag_307:\n        /* \"#utility.yul\":8810:8884   */\n      swap2\n      pop\n        /* \"#utility.yul\":8893:8986   */\n      tag_308\n        /* \"#utility.yul\":8982:8985   */\n      dup3\n        /* \"#utility.yul\":8893:8986   */\n      tag_205\n      jump\t// in\n    tag_308:\n        /* \"#utility.yul\":9011:9013   */\n      0x20\n        /* \"#utility.yul\":9006:9009   */\n      dup3\n        /* \"#utility.yul\":9002:9014   */\n      add\n        /* \"#utility.yul\":8995:9014   */\n      swap1\n      pop\n        /* \"#utility.yul\":8654:9020   */\n      swap2\n      swap1\n      pop\n      jump\t// out\n        /* \"#utility.yul\":9026:9445   */\n    tag_70:\n        /* \"#utility.yul\":9192:9196   */\n      0x00\n        /* \"#utility.yul\":9230:9232   */\n      0x20\n        /* \"#utility.yul\":9219:9228   */\n      dup3\n        /* \"#utility.yul\":9215:9233   */\n      add\n        /* \"#utility.yul\":9207:9233   */\n      swap1\n      pop\n        /* \"#utility.yul\":9279:9288   */\n      dup2\n        /* \"#utility.yul\":9273:9277   */\n      dup2\n        /* \"#utility.yul\":9269:9289   */\n      sub\n        /* \"#utility.yul\":9265:9266   */\n      0x00\n        /* \"#utility.yul\":9254:9263   */\n      dup4\n        /* \"#utility.yul\":9250:9267   */\n      add\n        /* \"#utility.yul\":9243:9290   */\n      mstore\n        /* \"#utility.yul\":9307:9438   */\n      tag_310\n        /* \"#utility.yul\":9433:9437   */\n      dup2\n        /* \"#utility.yul\":9307:9438   */\n      tag_206\n      jump\t// in\n    tag_310:\n        /* \"#utility.yul\":9299:9438   */\n      swap1\n      pop\n        /* \"#utility.yul\":9026:9445   */\n      swap2\n      swap1\n      pop\n      jump\t// out\n        /* \"#utility.yul\":9451:9619   */\n    tag_207:\n        /* \"#utility.yul\":9591:9611   */\n      0x42657420616c726561647920706c616365640000000000000000000000000000\n        /* \"#utility.yul\":9587:9588   */\n      0x00\n        /* \"#utility.yul\":9579:9585   */\n      dup3\n        /* \"#utility.yul\":9575:9589   */\n      add\n        /* \"#utility.yul\":9568:9612   */\n      mstore\n        /* \"#utility.yul\":9451:9619   */\n      pop\n      jump\t// out\n        /* \"#utility.yul\":9625:9991   */\n    tag_208:\n        /* \"#utility.yul\":9767:9770   */\n      0x00\n        /* \"#utility.yul\":9788:9855   */\n      tag_313\n        /* \"#utility.yul\":9852:9854   */\n      0x12\n        /* \"#utility.yul\":9847:9850   */\n      dup4\n        /* \"#utility.yul\":9788:9855   */\n      tag_193\n      jump\t// in\n    tag_313:\n        /* \"#utility.yul\":9781:9855   */\n      swap2\n      pop\n        /* \"#utility.yul\":9864:9957   */\n      tag_314\n        /* \"#utility.yul\":9953:9956   */\n      dup3\n        /* \"#utility.yul\":9864:9957   */\n      tag_207\n      jump\t// in\n    tag_314:\n        /* \"#utility.yul\":9982:9984   */\n      0x20\n        /* \"#utility.yul\":9977:9980   */\n      dup3\n        /* \"#utility.yul\":9973:9985   */\n      add\n        /* \"#utility.yul\":9966:9985   */\n      swap1\n      pop\n        /* \"#utility.yul\":9625:9991   */\n      swap2\n      swap1\n      pop\n      jump\t// out\n        /* \"#utility.yul\":9997:10416   */\n    tag_73:\n        /* \"#utility.yul\":10163:10167   */\n      0x00\n        /* \"#utility.yul\":10201:10203   */\n      0x20\n        /* \"#utility.yul\":10190:10199   */\n      dup3\n        /* \"#utility.yul\":10186:10204   */\n      add\n        /* \"#utility.yul\":10178:10204   */\n      swap1\n      pop\n        /* \"#utility.yul\":10250:10259   */\n      dup2\n        /* \"#utility.yul\":10244:10248   */\n      dup2\n        /* \"#utility.yul\":10240:10260   */\n      sub\n        /* \"#utility.yul\":10236:10237   */\n      0x00\n        /* \"#utility.yul\":10225:10234   */\n      dup4\n        /* \"#utility.yul\":10221:10238   */\n      add\n        /* \"#utility.yul\":10214:10261   */\n      mstore\n        /* \"#utility.yul\":10278:10409   */\n      tag_316\n        /* \"#utility.yul\":10404:10408   */\n      dup2\n        /* \"#utility.yul\":10278:10409   */\n      tag_208\n      jump\t// in\n    tag_316:\n        /* \"#utility.yul\":10270:10409   */\n      swap1\n      pop\n        /* \"#utility.yul\":9997:10416   */\n      swap2\n      swap1\n      pop\n      jump\t// out\n        /* \"#utility.yul\":10422:10754   */\n    tag_78:\n        /* \"#utility.yul\":10543:10547   */\n      0x00\n        /* \"#utility.yul\":10581:10583   */\n      0x40\n        /* \"#utility.yul\":10570:10579   */\n      dup3\n        /* \"#utility.yul\":10566:10584   */\n      add\n        /* \"#utility.yul\":10558:10584   */\n      swap1\n      pop\n        /* \"#utility.yul\":10594:10665   */\n      tag_318\n        /* \"#utility.yul\":10662:10663   */\n      0x00\n        /* \"#utility.yul\":10651:10660   */\n      dup4\n        /* \"#utility.yul\":10647:10664   */\n      add\n        /* \"#utility.yul\":10638:10644   */\n      dup6\n        /* \"#utility.yul\":10594:10665   */\n      tag_184\n      jump\t// in\n    tag_318:\n        /* \"#utility.yul\":10675:10747   */\n      tag_319\n        /* \"#utility.yul\":10743:10745   */\n      0x20\n        /* \"#utility.yul\":10732:10741   */\n      dup4\n        /* \"#utility.yul\":10728:10746   */\n      add\n        /* \"#utility.yul\":10719:10725   */\n      dup5\n        /* \"#utility.yul\":10675:10747   */\n      tag_184\n      jump\t// in\n    tag_319:\n        /* \"#utility.yul\":10422:10754   */\n      swap4\n      swap3\n      pop\n      pop\n      pop\n      jump\t// out\n        /* \"#utility.yul\":10760:10837   */\n    tag_209:\n        /* \"#utility.yul\":10797:10804   */\n      0x00\n        /* \"#utility.yul\":10826:10831   */\n      dup2\n        /* \"#utility.yul\":10815:10831   */\n      swap1\n      pop\n        /* \"#utility.yul\":10760:10837   */\n      swap2\n      swap1\n      pop\n      jump\t// out\n        /* \"#utility.yul\":10843:10965   */\n    tag_210:\n        /* \"#utility.yul\":10916:10940   */\n      tag_322\n        /* \"#utility.yul\":10934:10939   */\n      dup2\n        /* \"#utility.yul\":10916:10940   */\n      tag_209\n      jump\t// in\n    tag_322:\n        /* \"#utility.yul\":10909:10914   */\n      dup2\n        /* \"#utility.yul\":10906:10941   */\n      eq\n        /* \"#utility.yul\":10896:10959   */\n      tag_323\n      jumpi\n        /* \"#utility.yul\":10955:10956   */\n      0x00\n        /* \"#utility.yul\":10952:10953   */\n      0x00\n        /* \"#utility.yul\":10945:10957   */\n      revert\n        /* \"#utility.yul\":10896:10959   */\n    tag_323:\n        /* \"#utility.yul\":10843:10965   */\n      pop\n      jump\t// out\n        /* \"#utility.yul\":10971:11114   */\n    tag_211:\n        /* \"#utility.yul\":11028:11033   */\n      0x00\n        /* \"#utility.yul\":11059:11065   */\n      dup2\n        /* \"#utility.yul\":11053:11066   */\n      mload\n        /* \"#utility.yul\":11044:11066   */\n      swap1\n      pop\n        /* \"#utility.yul\":11075:11108   */\n      tag_325\n        /* \"#utility.yul\":11102:11107   */\n      dup2\n        /* \"#utility.yul\":11075:11108   */\n      tag_210\n      jump\t// in\n    tag_325:\n        /* \"#utility.yul\":10971:11114   */\n      swap3\n      swap2\n      pop\n      pop\n      jump\t// out\n        /* \"#utility.yul\":11120:11471   */\n    tag_82:\n        /* \"#utility.yul\":11190:11196   */\n      0x00\n        /* \"#utility.yul\":11239:11241   */\n      0x20\n        /* \"#utility.yul\":11227:11236   */\n      dup3\n        /* \"#utility.yul\":11218:11225   */\n      dup5\n        /* \"#utility.yul\":11214:11237   */\n      sub\n        /* \"#utility.yul\":11210:11242   */\n      slt\n        /* \"#utility.yul\":11207:11326   */\n      iszero\n      tag_327\n      jumpi\n        /* \"#utility.yul\":11245:11324   */\n      tag_328\n      tag_179\n      jump\t// in\n    tag_328:\n        /* \"#utility.yul\":11207:11326   */\n    tag_327:\n        /* \"#utility.yul\":11365:11366   */\n      0x00\n        /* \"#utility.yul\":11390:11454   */\n      tag_329\n        /* \"#utility.yul\":11446:11453   */\n      dup5\n        /* \"#utility.yul\":11437:11443   */\n      dup3\n        /* \"#utility.yul\":11426:11435   */\n      dup6\n        /* \"#utility.yul\":11422:11444   */\n      add\n        /* \"#utility.yul\":11390:11454   */\n      tag_211\n      jump\t// in\n    tag_329:\n        /* \"#utility.yul\":11380:11454   */\n      swap2\n      pop\n        /* \"#utility.yul\":11336:11464   */\n      pop\n        /* \"#utility.yul\":11120:11471   */\n      swap3\n      swap2\n      pop\n      pop\n      jump\t// out\n        /* \"#utility.yul\":11477:11595   */\n    tag_212:\n        /* \"#utility.yul\":11564:11588   */\n      tag_331\n        /* \"#utility.yul\":11582:11587   */\n      dup2\n        /* \"#utility.yul\":11564:11588   */\n      tag_209\n      jump\t// in\n    tag_331:\n        /* \"#utility.yul\":11559:11562   */\n      dup3\n        /* \"#utility.yul\":11552:11589   */\n      mstore\n        /* \"#utility.yul\":11477:11595   */\n      pop\n      pop\n      jump\t// out\n        /* \"#utility.yul\":11601:12154   */\n    tag_86:\n        /* \"#utility.yul\":11778:11782   */\n      0x00\n        /* \"#utility.yul\":11816:11819   */\n      0x80\n        /* \"#utility.yul\":11805:11814   */\n      dup3\n        /* \"#utility.yul\":11801:11820   */\n      add\n        /* \"#utility.yul\":11793:11820   */\n      swap1\n      pop\n        /* \"#utility.yul\":11830:11901   */\n      tag_333\n        /* \"#utility.yul\":11898:11899   */\n      0x00\n        /* \"#utility.yul\":11887:11896   */\n      dup4\n        /* \"#utility.yul\":11883:11900   */\n      add\n        /* \"#utility.yul\":11874:11880   */\n      dup8\n        /* \"#utility.yul\":11830:11901   */\n      tag_184\n      jump\t// in\n    tag_333:\n        /* \"#utility.yul\":11911:11983   */\n      tag_334\n        /* \"#utility.yul\":11979:11981   */\n      0x20\n        /* \"#utility.yul\":11968:11977   */\n      dup4\n        /* \"#utility.yul\":11964:11982   */\n      add\n        /* \"#utility.yul\":11955:11961   */\n      dup7\n        /* \"#utility.yul\":11911:11983   */\n      tag_202\n      jump\t// in\n    tag_334:\n        /* \"#utility.yul\":11993:12065   */\n      tag_335\n        /* \"#utility.yul\":12061:12063   */\n      0x40\n        /* \"#utility.yul\":12050:12059   */\n      dup4\n        /* \"#utility.yul\":12046:12064   */\n      add\n        /* \"#utility.yul\":12037:12043   */\n      dup6\n        /* \"#utility.yul\":11993:12065   */\n      tag_184\n      jump\t// in\n    tag_335:\n        /* \"#utility.yul\":12075:12147   */\n      tag_336\n        /* \"#utility.yul\":12143:12145   */\n      0x60\n        /* \"#utility.yul\":12132:12141   */\n      dup4\n        /* \"#utility.yul\":12128:12146   */\n      add\n        /* \"#utility.yul\":12119:12125   */\n      dup5\n        /* \"#utility.yul\":12075:12147   */\n      tag_212\n      jump\t// in\n    tag_336:\n        /* \"#utility.yul\":11601:12154   */\n      swap6\n      swap5\n      pop\n      pop\n      pop\n      pop\n      pop\n      jump\t// out\n        /* \"#utility.yul\":12160:12334   */\n    tag_213:\n        /* \"#utility.yul\":12300:12326   */\n      0x4e6f2067616d6520686173206265656e20737461727465640000000000000000\n        /* \"#utility.yul\":12296:12297   */\n      0x00\n        /* \"#utility.yul\":12288:12294   */\n      dup3\n        /* \"#utility.yul\":12284:12298   */\n      add\n        /* \"#utility.yul\":12277:12327   */\n      mstore\n        /* \"#utility.yul\":12160:12334   */\n      pop\n      jump\t// out\n        /* \"#utility.yul\":12340:12706   */\n    tag_214:\n        /* \"#utility.yul\":12482:12485   */\n      0x00\n        /* \"#utility.yul\":12503:12570   */\n      tag_339\n        /* \"#utility.yul\":12567:12569   */\n      0x18\n        /* \"#utility.yul\":12562:12565   */\n      dup4\n        /* \"#utility.yul\":12503:12570   */\n      tag_193\n      jump\t// in\n    tag_339:\n        /* \"#utility.yul\":12496:12570   */\n      swap2\n      pop\n        /* \"#utility.yul\":12579:12672   */\n      tag_340\n        /* \"#utility.yul\":12668:12671   */\n      dup3\n        /* \"#utility.yul\":12579:12672   */\n      tag_213\n      jump\t// in\n    tag_340:\n        /* \"#utility.yul\":12697:12699   */\n      0x20\n        /* \"#utility.yul\":12692:12695   */\n      dup3\n        /* \"#utility.yul\":12688:12700   */\n      add\n        /* \"#utility.yul\":12681:12700   */\n      swap1\n      pop\n        /* \"#utility.yul\":12340:12706   */\n      swap2\n      swap1\n      pop\n      jump\t// out\n        /* \"#utility.yul\":12712:13131   */\n    tag_90:\n        /* \"#utility.yul\":12878:12882   */\n      0x00\n        /* \"#utility.yul\":12916:12918   */\n      0x20\n        /* \"#utility.yul\":12905:12914   */\n      dup3\n        /* \"#utility.yul\":12901:12919   */\n      add\n        /* \"#utility.yul\":12893:12919   */\n      swap1\n      pop\n        /* \"#utility.yul\":12965:12974   */\n      dup2\n        /* \"#utility.yul\":12959:12963   */\n      dup2\n        /* \"#utility.yul\":12955:12975   */\n      sub\n        /* \"#utility.yul\":12951:12952   */\n      0x00\n        /* \"#utility.yul\":12940:12949   */\n      dup4\n        /* \"#utility.yul\":12936:12953   */\n      add\n        /* \"#utility.yul\":12929:12976   */\n      mstore\n        /* \"#utility.yul\":12993:13124   */\n      tag_342\n        /* \"#utility.yul\":13119:13123   */\n      dup2\n        /* \"#utility.yul\":12993:13124   */\n      tag_214\n      jump\t// in\n    tag_342:\n        /* \"#utility.yul\":12985:13124   */\n      swap1\n      pop\n        /* \"#utility.yul\":12712:13131   */\n      swap2\n      swap1\n      pop\n      jump\t// out\n        /* \"#utility.yul\":13137:13313   */\n    tag_215:\n        /* \"#utility.yul\":13277:13305   */\n      0x4465636b20686173206e6f74206265656e2073687566666c6564000000000000\n        /* \"#utility.yul\":13273:13274   */\n      0x00\n        /* \"#utility.yul\":13265:13271   */\n      dup3\n        /* \"#utility.yul\":13261:13275   */\n      add\n        /* \"#utility.yul\":13254:13306   */\n      mstore\n        /* \"#utility.yul\":13137:13313   */\n      pop\n      jump\t// out\n        /* \"#utility.yul\":13319:13685   */\n    tag_216:\n        /* \"#utility.yul\":13461:13464   */\n      0x00\n        /* \"#utility.yul\":13482:13549   */\n      tag_345\n        /* \"#utility.yul\":13546:13548   */\n      0x1a\n        /* \"#utility.yul\":13541:13544   */\n      dup4\n        /* \"#utility.yul\":13482:13549   */\n      tag_193\n      jump\t// in\n    tag_345:\n        /* \"#utility.yul\":13475:13549   */\n      swap2\n      pop\n        /* \"#utility.yul\":13558:13651   */\n      tag_346\n        /* \"#utility.yul\":13647:13650   */\n      dup3\n        /* \"#utility.yul\":13558:13651   */\n      tag_215\n      jump\t// in\n    tag_346:\n        /* \"#utility.yul\":13676:13678   */\n      0x20\n        /* \"#utility.yul\":13671:13674   */\n      dup3\n        /* \"#utility.yul\":13667:13679   */\n      add\n        /* \"#utility.yul\":13660:13679   */\n      swap1\n      pop\n        /* \"#utility.yul\":13319:13685   */\n      swap2\n      swap1\n      pop\n      jump\t// out\n        /* \"#utility.yul\":13691:14110   */\n    tag_109:\n        /* \"#utility.yul\":13857:13861   */\n      0x00\n        /* \"#utility.yul\":13895:13897   */\n      0x20\n        /* \"#utility.yul\":13884:13893   */\n      dup3\n        /* \"#utility.yul\":13880:13898   */\n      add\n        /* \"#utility.yul\":13872:13898   */\n      swap1\n      pop\n        /* \"#utility.yul\":13944:13953   */\n      dup2\n        /* \"#utility.yul\":13938:13942   */\n      dup2\n        /* \"#utility.yul\":13934:13954   */\n      sub\n        /* \"#utility.yul\":13930:13931   */\n      0x00\n        /* \"#utility.yul\":13919:13928   */\n      dup4\n        /* \"#utility.yul\":13915:13932   */\n      add\n        /* \"#utility.yul\":13908:13955   */\n      mstore\n        /* \"#utility.yul\":13972:14103   */\n      tag_348\n        /* \"#utility.yul\":14098:14102   */\n      dup2\n        /* \"#utility.yul\":13972:14103   */\n      tag_216\n      jump\t// in\n    tag_348:\n        /* \"#utility.yul\":13964:14103   */\n      swap1\n      pop\n        /* \"#utility.yul\":13691:14110   */\n      swap2\n      swap1\n      pop\n      jump\t// out\n        /* \"#utility.yul\":14116:14296   */\n    tag_112:\n        /* \"#utility.yul\":14164:14241   */\n      0x4e487b7100000000000000000000000000000000000000000000000000000000\n        /* \"#utility.yul\":14161:14162   */\n      0x00\n        /* \"#utility.yul\":14154:14242   */\n      mstore\n        /* \"#utility.yul\":14261:14265   */\n      0x32\n        /* \"#utility.yul\":14258:14259   */\n      0x04\n        /* \"#utility.yul\":14251:14266   */\n      mstore\n        /* \"#utility.yul\":14285:14289   */\n      0x24\n        /* \"#utility.yul\":14282:14283   */\n      0x00\n        /* \"#utility.yul\":14275:14290   */\n      revert\n        /* \"#utility.yul\":14302:14388   */\n    tag_217:\n        /* \"#utility.yul\":14337:14344   */\n      0x00\n        /* \"#utility.yul\":14377:14381   */\n      0xff\n        /* \"#utility.yul\":14370:14375   */\n      dup3\n        /* \"#utility.yul\":14366:14382   */\n      and\n        /* \"#utility.yul\":14355:14382   */\n      swap1\n      pop\n        /* \"#utility.yul\":14302:14388   */\n      swap2\n      swap1\n      pop\n      jump\t// out\n        /* \"#utility.yul\":14394:14574   */\n    tag_218:\n        /* \"#utility.yul\":14442:14519   */\n      0x4e487b7100000000000000000000000000000000000000000000000000000000\n        /* \"#utility.yul\":14439:14440   */\n      0x00\n        /* \"#utility.yul\":14432:14520   */\n      mstore\n        /* \"#utility.yul\":14539:14543   */\n      0x12\n        /* \"#utility.yul\":14536:14537   */\n      0x04\n        /* \"#utility.yul\":14529:14544   */\n      mstore\n        /* \"#utility.yul\":14563:14567   */\n      0x24\n        /* \"#utility.yul\":14560:14561   */\n      0x00\n        /* \"#utility.yul\":14553:14568   */\n      revert\n        /* \"#utility.yul\":14580:14750   */\n    tag_115:\n        /* \"#utility.yul\":14610:14611   */\n      0x00\n        /* \"#utility.yul\":14627:14645   */\n      tag_353\n        /* \"#utility.yul\":14643:14644   */\n      dup3\n        /* \"#utility.yul\":14627:14645   */\n      tag_217\n      jump\t// in\n    tag_353:\n        /* \"#utility.yul\":14622:14645   */\n      swap2\n      pop\n        /* \"#utility.yul\":14659:14677   */\n      tag_354\n        /* \"#utility.yul\":14675:14676   */\n      dup4\n        /* \"#utility.yul\":14659:14677   */\n      tag_217\n      jump\t// in\n    tag_354:\n        /* \"#utility.yul\":14654:14677   */\n      swap3\n      pop\n        /* \"#utility.yul\":14696:14697   */\n      dup3\n        /* \"#utility.yul\":14686:14721   */\n      tag_355\n      jumpi\n        /* \"#utility.yul\":14701:14719   */\n      tag_356\n      tag_218\n      jump\t// in\n    tag_356:\n        /* \"#utility.yul\":14686:14721   */\n    tag_355:\n        /* \"#utility.yul\":14742:14743   */\n      dup3\n        /* \"#utility.yul\":14739:14740   */\n      dup3\n        /* \"#utility.yul\":14735:14744   */\n      mod\n        /* \"#utility.yul\":14730:14744   */\n      swap1\n      pop\n        /* \"#utility.yul\":14580:14750   */\n      swap3\n      swap2\n      pop\n      pop\n      jump\t// out\n        /* \"#utility.yul\":14756:14944   */\n    tag_117:\n        /* \"#utility.yul\":14794:14797   */\n      0x00\n        /* \"#utility.yul\":14813:14831   */\n      tag_358\n        /* \"#utility.yul\":14829:14830   */\n      dup3\n        /* \"#utility.yul\":14813:14831   */\n      tag_217\n      jump\t// in\n    tag_358:\n        /* \"#utility.yul\":14808:14831   */\n      swap2\n      pop\n        /* \"#utility.yul\":14845:14863   */\n      tag_359\n        /* \"#utility.yul\":14861:14862   */\n      dup4\n        /* \"#utility.yul\":14845:14863   */\n      tag_217\n      jump\t// in\n    tag_359:\n        /* \"#utility.yul\":14840:14863   */\n      swap3\n      pop\n        /* \"#utility.yul\":14886:14887   */\n      dup3\n        /* \"#utility.yul\":14883:14884   */\n      dup3\n        /* \"#utility.yul\":14879:14888   */\n      add\n        /* \"#utility.yul\":14872:14888   */\n      swap1\n      pop\n        /* \"#utility.yul\":14909:14913   */\n      0xff\n        /* \"#utility.yul\":14904:14907   */\n      dup2\n        /* \"#utility.yul\":14901:14914   */\n      gt\n        /* \"#utility.yul\":14898:14937   */\n      iszero\n      tag_360\n      jumpi\n        /* \"#utility.yul\":14917:14935   */\n      tag_361\n      tag_198\n      jump\t// in\n    tag_361:\n        /* \"#utility.yul\":14898:14937   */\n    tag_360:\n        /* \"#utility.yul\":14756:14944   */\n      swap3\n      swap2\n      pop\n      pop\n      jump\t// out\n        /* \"#utility.yul\":14950:15117   */\n    tag_120:\n        /* \"#utility.yul\":14987:14990   */\n      0x00\n        /* \"#utility.yul\":15010:15032   */\n      tag_363\n        /* \"#utility.yul\":15026:15031   */\n      dup3\n        /* \"#utility.yul\":15010:15032   */\n      tag_217\n      jump\t// in\n    tag_363:\n        /* \"#utility.yul\":15001:15032   */\n      swap2\n      pop\n        /* \"#utility.yul\":15054:15058   */\n      0xff\n        /* \"#utility.yul\":15047:15052   */\n      dup3\n        /* \"#utility.yul\":15044:15059   */\n      sub\n        /* \"#utility.yul\":15041:15082   */\n      tag_364\n      jumpi\n        /* \"#utility.yul\":15062:15080   */\n      tag_365\n      tag_198\n      jump\t// in\n    tag_365:\n        /* \"#utility.yul\":15041:15082   */\n    tag_364:\n        /* \"#utility.yul\":15109:15110   */\n      0x01\n        /* \"#utility.yul\":15102:15107   */\n      dup3\n        /* \"#utility.yul\":15098:15111   */\n      add\n        /* \"#utility.yul\":15091:15111   */\n      swap1\n      pop\n        /* \"#utility.yul\":14950:15117   */\n      swap2\n      swap1\n      pop\n      jump\t// out\n        /* \"#utility.yul\":15123:15235   */\n    tag_219:\n        /* \"#utility.yul\":15206:15228   */\n      tag_367\n        /* \"#utility.yul\":15222:15227   */\n      dup2\n        /* \"#utility.yul\":15206:15228   */\n      tag_217\n      jump\t// in\n    tag_367:\n        /* \"#utility.yul\":15201:15204   */\n      dup3\n        /* \"#utility.yul\":15194:15229   */\n      mstore\n        /* \"#utility.yul\":15123:15235   */\n      pop\n      pop\n      jump\t// out\n        /* \"#utility.yul\":15241:15565   */\n    tag_122:\n        /* \"#utility.yul\":15358:15362   */\n      0x00\n        /* \"#utility.yul\":15396:15398   */\n      0x40\n        /* \"#utility.yul\":15385:15394   */\n      dup3\n        /* \"#utility.yul\":15381:15399   */\n      add\n        /* \"#utility.yul\":15373:15399   */\n      swap1\n      pop\n        /* \"#utility.yul\":15409:15480   */\n      tag_369\n        /* \"#utility.yul\":15477:15478   */\n      0x00\n        /* \"#utility.yul\":15466:15475   */\n      dup4\n        /* \"#utility.yul\":15462:15479   */\n      add\n        /* \"#utility.yul\":15453:15459   */\n      dup6\n        /* \"#utility.yul\":15409:15480   */\n      tag_202\n      jump\t// in\n    tag_369:\n        /* \"#utility.yul\":15490:15558   */\n      tag_370\n        /* \"#utility.yul\":15554:15556   */\n      0x20\n        /* \"#utility.yul\":15543:15552   */\n      dup4\n        /* \"#utility.yul\":15539:15557   */\n      add\n        /* \"#utility.yul\":15530:15536   */\n      dup5\n        /* \"#utility.yul\":15490:15558   */\n      tag_219\n      jump\t// in\n    tag_370:\n        /* \"#utility.yul\":15241:15565   */\n      swap4\n      swap3\n      pop\n      pop\n      pop\n      jump\t// out\n        /* \"#utility.yul\":15571:15762   */\n    tag_133:\n        /* \"#utility.yul\":15609:15613   */\n      0x00\n        /* \"#utility.yul\":15629:15647   */\n      tag_372\n        /* \"#utility.yul\":15645:15646   */\n      dup3\n        /* \"#utility.yul\":15629:15647   */\n      tag_217\n      jump\t// in\n    tag_372:\n        /* \"#utility.yul\":15624:15647   */\n      swap2\n      pop\n        /* \"#utility.yul\":15661:15679   */\n      tag_373\n        /* \"#utility.yul\":15677:15678   */\n      dup4\n        /* \"#utility.yul\":15661:15679   */\n      tag_217\n      jump\t// in\n    tag_373:\n        /* \"#utility.yul\":15656:15679   */\n      swap3\n      pop\n        /* \"#utility.yul\":15703:15704   */\n      dup3\n        /* \"#utility.yul\":15700:15701   */\n      dup3\n        /* \"#utility.yul\":15696:15705   */\n      sub\n        /* \"#utility.yul\":15688:15705   */\n      swap1\n      pop\n        /* \"#utility.yul\":15727:15731   */\n      0xff\n        /* \"#utility.yul\":15721:15725   */\n      dup2\n        /* \"#utility.yul\":15718:15732   */\n      gt\n        /* \"#utility.yul\":15715:15755   */\n      iszero\n      tag_374\n      jumpi\n        /* \"#utility.yul\":15735:15753   */\n      tag_375\n      tag_198\n      jump\t// in\n    tag_375:\n        /* \"#utility.yul\":15715:15755   */\n    tag_374:\n        /* \"#utility.yul\":15571:15762   */\n      swap3\n      swap2\n      pop\n      pop\n      jump\t// out\n        /* \"#utility.yul\":15768:15948   */\n    tag_138:\n        /* \"#utility.yul\":15816:15893   */\n      0x4e487b7100000000000000000000000000000000000000000000000000000000\n        /* \"#utility.yul\":15813:15814   */\n      0x00\n        /* \"#utility.yul\":15806:15894   */\n      mstore\n        /* \"#utility.yul\":15913:15917   */\n      0x21\n        /* \"#utility.yul\":15910:15911   */\n      0x04\n        /* \"#utility.yul\":15903:15918   */\n      mstore\n        /* \"#utility.yul\":15937:15941   */\n      0x24\n        /* \"#utility.yul\":15934:15935   */\n      0x00\n        /* \"#utility.yul\":15927:15942   */\n      revert\n        /* \"#utility.yul\":15954:16286   */\n    tag_141:\n        /* \"#utility.yul\":16075:16079   */\n      0x00\n        /* \"#utility.yul\":16113:16115   */\n      0x40\n        /* \"#utility.yul\":16102:16111   */\n      dup3\n        /* \"#utility.yul\":16098:16116   */\n      add\n        /* \"#utility.yul\":16090:16116   */\n      swap1\n      pop\n        /* \"#utility.yul\":16126:16197   */\n      tag_378\n        /* \"#utility.yul\":16194:16195   */\n      0x00\n        /* \"#utility.yul\":16183:16192   */\n      dup4\n        /* \"#utility.yul\":16179:16196   */\n      add\n        /* \"#utility.yul\":16170:16176   */\n      dup6\n        /* \"#utility.yul\":16126:16197   */\n      tag_202\n      jump\t// in\n    tag_378:\n        /* \"#utility.yul\":16207:16279   */\n      tag_379\n        /* \"#utility.yul\":16275:16277   */\n      0x20\n        /* \"#utility.yul\":16264:16273   */\n      dup4\n        /* \"#utility.yul\":16260:16278   */\n      add\n        /* \"#utility.yul\":16251:16257   */\n      dup5\n        /* \"#utility.yul\":16207:16279   */\n      tag_184\n      jump\t// in\n    tag_379:\n        /* \"#utility.yul\":15954:16286   */\n      swap4\n      swap3\n      pop\n      pop\n      pop\n      jump\t// out\n        /* \"#utility.yul\":16292:16407   */\n    tag_220:\n        /* \"#utility.yul\":16375:16376   */\n      0x04\n        /* \"#utility.yul\":16368:16373   */\n      dup2\n        /* \"#utility.yul\":16365:16377   */\n      lt\n        /* \"#utility.yul\":16355:16401   */\n      tag_381\n      jumpi\n        /* \"#utility.yul\":16381:16399   */\n      tag_382\n      tag_138\n      jump\t// in\n    tag_382:\n        /* \"#utility.yul\":16355:16401   */\n    tag_381:\n        /* \"#utility.yul\":16292:16407   */\n      pop\n      jump\t// out\n        /* \"#utility.yul\":16413:16544   */\n    tag_221:\n        /* \"#utility.yul\":16460:16467   */\n      0x00\n        /* \"#utility.yul\":16489:16494   */\n      dup2\n        /* \"#utility.yul\":16478:16494   */\n      swap1\n      pop\n        /* \"#utility.yul\":16495:16538   */\n      tag_384\n        /* \"#utility.yul\":16532:16537   */\n      dup3\n        /* \"#utility.yul\":16495:16538   */\n      tag_220\n      jump\t// in\n    tag_384:\n        /* \"#utility.yul\":16413:16544   */\n      swap2\n      swap1\n      pop\n      jump\t// out\n        /* \"#utility.yul\":16550:16681   */\n    tag_222:\n        /* \"#utility.yul\":16608:16617   */\n      0x00\n        /* \"#utility.yul\":16641:16675   */\n      tag_386\n        /* \"#utility.yul\":16669:16674   */\n      dup3\n        /* \"#utility.yul\":16641:16675   */\n      tag_221\n      jump\t// in\n    tag_386:\n        /* \"#utility.yul\":16628:16675   */\n      swap1\n      pop\n        /* \"#utility.yul\":16550:16681   */\n      swap2\n      swap1\n      pop\n      jump\t// out\n        /* \"#utility.yul\":16687:16834   */\n    tag_223:\n        /* \"#utility.yul\":16782:16827   */\n      tag_388\n        /* \"#utility.yul\":16821:16826   */\n      dup2\n        /* \"#utility.yul\":16782:16827   */\n      tag_222\n      jump\t// in\n    tag_388:\n        /* \"#utility.yul\":16777:16780   */\n      dup3\n        /* \"#utility.yul\":16770:16828   */\n      mstore\n        /* \"#utility.yul\":16687:16834   */\n      pop\n      pop\n      jump\t// out\n        /* \"#utility.yul\":16840:17188   */\n    tag_146:\n        /* \"#utility.yul\":16969:16973   */\n      0x00\n        /* \"#utility.yul\":17007:17009   */\n      0x40\n        /* \"#utility.yul\":16996:17005   */\n      dup3\n        /* \"#utility.yul\":16992:17010   */\n      add\n        /* \"#utility.yul\":16984:17010   */\n      swap1\n      pop\n        /* \"#utility.yul\":17020:17091   */\n      tag_390\n        /* \"#utility.yul\":17088:17089   */\n      0x00\n        /* \"#utility.yul\":17077:17086   */\n      dup4\n        /* \"#utility.yul\":17073:17090   */\n      add\n        /* \"#utility.yul\":17064:17070   */\n      dup6\n        /* \"#utility.yul\":17020:17091   */\n      tag_202\n      jump\t// in\n    tag_390:\n        /* \"#utility.yul\":17101:17181   */\n      tag_391\n        /* \"#utility.yul\":17177:17179   */\n      0x20\n        /* \"#utility.yul\":17166:17175   */\n      dup4\n        /* \"#utility.yul\":17162:17180   */\n      add\n        /* \"#utility.yul\":17153:17159   */\n      dup5\n        /* \"#utility.yul\":17101:17181   */\n      tag_223\n      jump\t// in\n    tag_391:\n        /* \"#utility.yul\":16840:17188   */\n      swap4\n      swap3\n      pop\n      pop\n      pop\n      jump\t// out\n        /* \"#utility.yul\":17194:17388   */\n    tag_159:\n        /* \"#utility.yul\":17234:17238   */\n      0x00\n        /* \"#utility.yul\":17254:17274   */\n      tag_393\n        /* \"#utility.yul\":17272:17273   */\n      dup3\n        /* \"#utility.yul\":17254:17274   */\n      tag_181\n      jump\t// in\n    tag_393:\n        /* \"#utility.yul\":17249:17274   */\n      swap2\n      pop\n        /* \"#utility.yul\":17288:17308   */\n      tag_394\n        /* \"#utility.yul\":17306:17307   */\n      dup4\n        /* \"#utility.yul\":17288:17308   */\n      tag_181\n      jump\t// in\n    tag_394:\n        /* \"#utility.yul\":17283:17308   */\n      swap3\n      pop\n        /* \"#utility.yul\":17332:17333   */\n      dup3\n        /* \"#utility.yul\":17329:17330   */\n      dup3\n        /* \"#utility.yul\":17325:17334   */\n      sub\n        /* \"#utility.yul\":17317:17334   */\n      swap1\n      pop\n        /* \"#utility.yul\":17356:17357   */\n      dup2\n        /* \"#utility.yul\":17350:17354   */\n      dup2\n        /* \"#utility.yul\":17347:17358   */\n      gt\n        /* \"#utility.yul\":17344:17381   */\n      iszero\n      tag_395\n      jumpi\n        /* \"#utility.yul\":17361:17379   */\n      tag_396\n      tag_198\n      jump\t// in\n    tag_396:\n        /* \"#utility.yul\":17344:17381   */\n    tag_395:\n        /* \"#utility.yul\":17194:17388   */\n      swap3\n      swap2\n      pop\n      pop\n      jump\t// out\n        /* \"#utility.yul\":17394:17726   */\n    tag_161:\n        /* \"#utility.yul\":17515:17519   */\n      0x00\n        /* \"#utility.yul\":17553:17555   */\n      0x40\n        /* \"#utility.yul\":17542:17551   */\n      dup3\n        /* \"#utility.yul\":17538:17556   */\n      add\n        /* \"#utility.yul\":17530:17556   */\n      swap1\n      pop\n        /* \"#utility.yul\":17566:17637   */\n      tag_398\n        /* \"#utility.yul\":17634:17635   */\n      0x00\n        /* \"#utility.yul\":17623:17632   */\n      dup4\n        /* \"#utility.yul\":17619:17636   */\n      add\n        /* \"#utility.yul\":17610:17616   */\n      dup6\n        /* \"#utility.yul\":17566:17637   */\n      tag_212\n      jump\t// in\n    tag_398:\n        /* \"#utility.yul\":17647:17719   */\n      tag_399\n        /* \"#utility.yul\":17715:17717   */\n      0x20\n        /* \"#utility.yul\":17704:17713   */\n      dup4\n        /* \"#utility.yul\":17700:17718   */\n      add\n        /* \"#utility.yul\":17691:17697   */\n      dup5\n        /* \"#utility.yul\":17647:17719   */\n      tag_184\n      jump\t// in\n    tag_399:\n        /* \"#utility.yul\":17394:17726   */\n      swap4\n      swap3\n      pop\n      pop\n      pop\n      jump\t// out\n        /* \"#utility.yul\":17732:17908   */\n    tag_163:\n        /* \"#utility.yul\":17764:17765   */\n      0x00\n        /* \"#utility.yul\":17781:17801   */\n      tag_401\n        /* \"#utility.yul\":17799:17800   */\n      dup3\n        /* \"#utility.yul\":17781:17801   */\n      tag_181\n      jump\t// in\n    tag_401:\n        /* \"#utility.yul\":17776:17801   */\n      swap2\n      pop\n        /* \"#utility.yul\":17815:17835   */\n      tag_402\n        /* \"#utility.yul\":17833:17834   */\n      dup4\n        /* \"#utility.yul\":17815:17835   */\n      tag_181\n      jump\t// in\n    tag_402:\n        /* \"#utility.yul\":17810:17835   */\n      swap3\n      pop\n        /* \"#utility.yul\":17854:17855   */\n      dup3\n        /* \"#utility.yul\":17844:17879   */\n      tag_403\n      jumpi\n        /* \"#utility.yul\":17859:17877   */\n      tag_404\n      tag_218\n      jump\t// in\n    tag_404:\n        /* \"#utility.yul\":17844:17879   */\n    tag_403:\n        /* \"#utility.yul\":17900:17901   */\n      dup3\n        /* \"#utility.yul\":17897:17898   */\n      dup3\n        /* \"#utility.yul\":17893:17902   */\n      mod\n        /* \"#utility.yul\":17888:17902   */\n      swap1\n      pop\n        /* \"#utility.yul\":17732:17908   */\n      swap3\n      swap2\n      pop\n      pop\n      jump\t// out\n        /* \"#utility.yul\":17914:18105   */\n    tag_165:\n        /* \"#utility.yul\":17954:17957   */\n      0x00\n        /* \"#utility.yul\":17973:17993   */\n      tag_406\n        /* \"#utility.yul\":17991:17992   */\n      dup3\n        /* \"#utility.yul\":17973:17993   */\n      tag_181\n      jump\t// in\n    tag_406:\n        /* \"#utility.yul\":17968:17993   */\n      swap2\n      pop\n        /* \"#utility.yul\":18007:18027   */\n      tag_407\n        /* \"#utility.yul\":18025:18026   */\n      dup4\n        /* \"#utility.yul\":18007:18027   */\n      tag_181\n      jump\t// in\n    tag_407:\n        /* \"#utility.yul\":18002:18027   */\n      swap3\n      pop\n        /* \"#utility.yul\":18050:18051   */\n      dup3\n        /* \"#utility.yul\":18047:18048   */\n      dup3\n        /* \"#utility.yul\":18043:18052   */\n      add\n        /* \"#utility.yul\":18036:18052   */\n      swap1\n      pop\n        /* \"#utility.yul\":18071:18074   */\n      dup1\n        /* \"#utility.yul\":18068:18069   */\n      dup3\n        /* \"#utility.yul\":18065:18075   */\n      gt\n        /* \"#utility.yul\":18062:18098   */\n      iszero\n      tag_408\n      jumpi\n        /* \"#utility.yul\":18078:18096   */\n      tag_409\n      tag_198\n      jump\t// in\n    tag_409:\n        /* \"#utility.yul\":18062:18098   */\n    tag_408:\n        /* \"#utility.yul\":17914:18105   */\n      swap3\n      swap2\n      pop\n      pop\n      jump\t// out\n\n    auxdata: 0xa2646970667358221220290fab6e73a31d880cb58e4d1cbf1d36f882662b2857f2156ca446ff06fb018e64736f6c634300081e0033\n}\n",
				"bytecode": {
					"linkReferences": {},
					"object": "608060405234801561000f575f5ffd5b50604051611b1f380380611b1f83398181016040528101906100319190610115565b815f5f6101000a81548173ffffffffffffffffffffffffffffffffffffffff021916908373ffffffffffffffffffffffffffffffffffffffff1602179055508060015f6101000a81548173ffffffffffffffffffffffffffffffffffffffff021916908373ffffffffffffffffffffffffffffffffffffffff1602179055505050610153565b5f5ffd5b5f73ffffffffffffffffffffffffffffffffffffffff82169050919050565b5f6100e4826100bb565b9050919050565b6100f4816100da565b81146100fe575f5ffd5b50565b5f8151905061010f816100eb565b92915050565b5f5f6040838503121561012b5761012a6100b7565b5b5f61013885828601610101565b925050602061014985828601610101565b9150509250929050565b6119bf806101605f395ff3fe608060405234801561000f575f5ffd5b506004361061007b575f3560e01c80637dc0d1d0116100595780637dc0d1d0146100c3578063afab107e146100e1578063c2897b10146100fd578063fbfa77cf146101075761007b565b80632ae3594a1461007f57806331a56b8314610089578063673ee37c146100a5575b5f5ffd5b610087610125565b005b6100a3600480360381019061009e919061106d565b610306565b005b6100ad610532565b6040516100ba91906110a7565b60405180910390f35b6100cb610538565b6040516100d8919061113a565b60405180910390f35b6100fb60048036038101906100f6919061106d565b61055d565b005b61010561084c565b005b61010f610a75565b60405161011c9190611173565b60405180910390f35b5f60035f3373ffffffffffffffffffffffffffffffffffffffff1673ffffffffffffffffffffffffffffffffffffffff1681526020019081526020015f205490505f60045f8381526020019081526020015f2090508060060160019054906101000a900460ff166101cb576040517f08c379a00000000000000000000000000000000000000000000000000000000081526004016101c2906111e6565b60405180910390fd5b8060060160029054906101000a900460ff161561021d576040517f08c379a00000000000000000000000000000000000000000000000000000000081526004016102149061124e565b60405180910390fd5b5f61022782610a99565b90506102568183600b0160019054906101000a900460ff1684600b0160029054906101000a900460ff16610bf8565b83600b01600185600b0160028491906101000a81548160ff021916908360ff1602179055508391906101000a81548160ff021916908360ff1602179055505050601582600b0160019054906101000a900460ff1660ff1611156102c4576102bf8260025f610c83565b610301565b6102de82600b0160019054906101000a900460ff16610e69565b15610300576102ff826001600285600101546102fa9190611299565b610c83565b5b5b505050565b5f60035f3373ffffffffffffffffffffffffffffffffffffffff1673ffffffffffffffffffffffffffffffffffffffff1681526020019081526020015f205414610385576040517f08c379a000000000000000000000000000000000000000000000000000000000815260040161037c90611324565b60405180910390fd5b5f60025f81548092919061039890611342565b9190505590508060035f3373ffffffffffffffffffffffffffffffffffffffff1673ffffffffffffffffffffffffffffffffffffffff1681526020019081526020015f20819055505f60045f8381526020019081526020015f20905081815f018190555033816002015f6101000a81548173ffffffffffffffffffffffffffffffffffffffff021916908373ffffffffffffffffffffffffffffffffffffffff1602179055508281600301819055505f816006015f6101000a81548160ff021916908360ff16021790555060018160060160016101000a81548160ff0219169083151502179055505f81600b015f6101000a81548160ff0219169083151502179055505f81600b0160016101000a81548160ff021916908360ff1602179055505f81600b0160036101000a81548160ff021916908360ff1602179055505f8160060160026101000a81548160ff0219169083151502179055507fc3e0f84839dc888c892a013d10c8f9d6dc05a21a879d0ce468ca558013e9121c815f0154336040516105259291906113a9565b60405180910390a1505050565b60025481565b60015f9054906101000a900473ffffffffffffffffffffffffffffffffffffffff1681565b64174876e8008110158015610579575066038d7ea4c680008111155b6105b8576040517f08c379a00000000000000000000000000000000000000000000000000000000081526004016105af9061141a565b60405180910390fd5b5f60035f3373ffffffffffffffffffffffffffffffffffffffff1673ffffffffffffffffffffffffffffffffffffffff1681526020019081526020015f205403610637576040517f08c379a000000000000000000000000000000000000000000000000000000000815260040161062e90611482565b60405180910390fd5b5f60035f3373ffffffffffffffffffffffffffffffffffffffff1673ffffffffffffffffffffffffffffffffffffffff1681526020019081526020015f205490505f60045f8381526020019081526020015f2090505f8160010154146106d2576040517f08c379a00000000000000000000000000000000000000000000000000000000081526004016106c9906114ea565b60405180910390fd5b8060060160019054906101000a900460ff168061070157505f816006015f9054906101000a900460ff1660ff16115b15610741576040517f08c379a000000000000000000000000000000000000000000000000000000000815260040161073890611324565b60405180910390fd5b82816001018190555060015f9054906101000a900473ffffffffffffffffffffffffffffffffffffffff1673ffffffffffffffffffffffffffffffffffffffff1663041df082826004015483600301546040518363ffffffff1660e01b81526004016107ae929190611508565b6020604051808303815f875af11580156107ca573d5f5f3e3d5ffd5b505050506040513d601f19601f820116820180604052508101906107ee9190611562565b81600501819055506107ff81610e78565b7f0e97ce5f641b8a03e0f92d0b4480f849cf26a7bfdf17862c8edaf69268e60aad815f0154338360010154846005015460405161083f949392919061159c565b60405180910390a1505050565b5f60035f3373ffffffffffffffffffffffffffffffffffffffff1673ffffffffffffffffffffffffffffffffffffffff1681526020019081526020015f205490505f60045f8381526020019081526020015f2090508060060160019054906101000a900460ff166108f2576040517f08c379a00000000000000000000000000000000000000000000000000000000081526004016108e990611629565b60405180910390fd5b5f5b601182600b0160039054906101000a900460ff1660ff16101561098e5761091a82610a99565b90506109498183600b0160039054906101000a900460ff1684600b0160049054906101000a900460ff16610bf8565b83600b01600385600b0160048491906101000a81548160ff021916908360ff1602179055508391906101000a81548160ff021916908360ff16021790555050506108f4565b601582600b0160039054906101000a900460ff1660ff1611156109cc576109c7826001600285600101546109c29190611299565b610c83565b610a70565b81600b0160019054906101000a900460ff1660ff1682600b0160039054906101000a900460ff1660ff161180610a185750610a1782600b0160039054906101000a900460ff16610e69565b5b15610a2e57610a298260025f610c83565b610a6f565b81600b0160019054906101000a900460ff1660ff1682600b0160039054906101000a900460ff1660ff1603610a6e57610a6d8260038460010154610c83565b5b5b5b505050565b5f5f9054906101000a900473ffffffffffffffffffffffffffffffffffffffff1681565b5f81600b015f9054906101000a900460ff16610aea576040517f08c379a0000000000000000000000000000000000000000000000000000000008152600401610ae190611691565b60405180910390fd5b5f82600701836006015f9054906101000a900460ff1660ff1660688110610b1457610b136116af565b5b602091828204019190069054906101000a900460ff1690505f6001600d83610b3c9190611715565b610b469190611745565b9050600a8160ff161115610b5957600a90505b836006015f81819054906101000a900460ff1680929190610b7990611779565b91906101000a81548160ff021916908360ff160217905550507f5cb494422aec3c1d66ad0616d3f90f8641e12057560336165c27bf8793fce9cf846002015f9054906101000a900473ffffffffffffffffffffffffffffffffffffffff1683604051610be69291906117b0565b60405180910390a18092505050919050565b5f5f60018560ff1603610c2857600b84610c129190611745565b9350600183610c219190611745565b9250610c37565b8484610c349190611745565b93505b5b60158460ff16118015610c4d57505f8360ff16115b15610c7557600a84610c5f91906117d7565b9350600183610c6e91906117d7565b9250610c38565b838391509150935093915050565b818360060160036101000a81548160ff02191690836003811115610caa57610ca961180b565b5b021790555060018360060160026101000a81548160ff0219169083151502179055505f8360060160016101000a81548160ff0219169083151502179055505f811115610d9c575f5f9054906101000a900473ffffffffffffffffffffffffffffffffffffffff1673ffffffffffffffffffffffffffffffffffffffff1663117de2fd846002015f9054906101000a900473ffffffffffffffffffffffffffffffffffffffff16836040518363ffffffff1660e01b8152600401610d6e929190611838565b5f604051808303815f87803b158015610d85575f5ffd5b505af1158015610d97573d5f5f3e3d5ffd5b505050505b60035f846002015f9054906101000a900473ffffffffffffffffffffffffffffffffffffffff1673ffffffffffffffffffffffffffffffffffffffff1673ffffffffffffffffffffffffffffffffffffffff1681526020019081526020015f205f90555f83600101819055507fecdab0d30ae5a2b8d283acf9ed4856306f12f29ef8069fac9148d3d2ac6b4b14836002015f9054906101000a900473ffffffffffffffffffffffffffffffffffffffff1683604051610e5c9291906118a5565b60405180910390a1505050565b5f60158260ff16149050919050565b5f5f90505b606860ff168160ff161015610ed35780826007018260ff1660688110610ea657610ea56116af565b5b602091828204019190066101000a81548160ff021916908360ff1602179055508080600101915050610e7d565b505f5f90505b606860ff16811015611016575f81606860ff16610ef691906118cc565b836005015483604051602001610f0d9291906118ff565b604051602081830303815290604052805190602001205f1c610f2f9190611926565b82610f3a9190611956565b9050826007018160688110610f5257610f516116af565b5b602091828204019190069054906101000a900460ff16836007018360688110610f7e57610f7d6116af565b5b602091828204019190069054906101000a900460ff16846007018460688110610faa57610fa96116af565b5b60209182820401919006866007018560688110610fca57610fc96116af565b5b602091828204019190068491906101000a81548160ff021916908360ff1602179055508391906101000a81548160ff021916908360ff1602179055505050508080600101915050610ed9565b50600181600b015f6101000a81548160ff02191690831515021790555050565b5f5ffd5b5f819050919050565b61104c8161103a565b8114611056575f5ffd5b50565b5f8135905061106781611043565b92915050565b5f6020828403121561108257611081611036565b5b5f61108f84828501611059565b91505092915050565b6110a18161103a565b82525050565b5f6020820190506110ba5f830184611098565b92915050565b5f73ffffffffffffffffffffffffffffffffffffffff82169050919050565b5f819050919050565b5f6111026110fd6110f8846110c0565b6110df565b6110c0565b9050919050565b5f611113826110e8565b9050919050565b5f61112482611109565b9050919050565b6111348161111a565b82525050565b5f60208201905061114d5f83018461112b565b92915050565b5f61115d82611109565b9050919050565b61116d81611153565b82525050565b5f6020820190506111865f830184611164565b92915050565b5f82825260208201905092915050565b7f4e6f2067616d6520697320696e2070726f6772657373000000000000000000005f82015250565b5f6111d060168361118c565b91506111db8261119c565b602082019050919050565b5f6020820190508181035f8301526111fd816111c4565b9050919050565b7f47616d652068617320616c72656164792066696e6973686564000000000000005f82015250565b5f61123860198361118c565b915061124382611204565b602082019050919050565b5f6020820190508181035f8301526112658161122c565b9050919050565b7f4e487b71000000000000000000000000000000000000000000000000000000005f52601160045260245ffd5b5f6112a38261103a565b91506112ae8361103a565b92508282026112bc8161103a565b915082820484148315176112d3576112d261126c565b5b5092915050565b7f47616d6520616c726561647920696e2070726f677265737300000000000000005f82015250565b5f61130e60188361118c565b9150611319826112da565b602082019050919050565b5f6020820190508181035f83015261133b81611302565b9050919050565b5f61134c8261103a565b91507fffffffffffffffffffffffffffffffffffffffffffffffffffffffffffffffff820361137e5761137d61126c565b5b600182019050919050565b5f611393826110c0565b9050919050565b6113a381611389565b82525050565b5f6040820190506113bc5f830185611098565b6113c9602083018461139a565b9392505050565b7f426574206f7574206f662072616e67652e0000000000000000000000000000005f82015250565b5f61140460118361118c565b915061140f826113d0565b602082019050919050565b5f6020820190508181035f830152611431816113f8565b9050919050565b7f4e6f206163746976652067616d652063757272656e746c7900000000000000005f82015250565b5f61146c60188361118c565b915061147782611438565b602082019050919050565b5f6020820190508181035f83015261149981611460565b9050919050565b7f42657420616c726561647920706c6163656400000000000000000000000000005f82015250565b5f6114d460128361118c565b91506114df826114a0565b602082019050919050565b5f6020820190508181035f830152611501816114c8565b9050919050565b5f60408201905061151b5f830185611098565b6115286020830184611098565b9392505050565b5f819050919050565b6115418161152f565b811461154b575f5ffd5b50565b5f8151905061155c81611538565b92915050565b5f6020828403121561157757611576611036565b5b5f6115848482850161154e565b91505092915050565b6115968161152f565b82525050565b5f6080820190506115af5f830187611098565b6115bc602083018661139a565b6115c96040830185611098565b6115d6606083018461158d565b95945050505050565b7f4e6f2067616d6520686173206265656e207374617274656400000000000000005f82015250565b5f61161360188361118c565b915061161e826115df565b602082019050919050565b5f6020820190508181035f83015261164081611607565b9050919050565b7f4465636b20686173206e6f74206265656e2073687566666c65640000000000005f82015250565b5f61167b601a8361118c565b915061168682611647565b602082019050919050565b5f6020820190508181035f8301526116a88161166f565b9050919050565b7f4e487b71000000000000000000000000000000000000000000000000000000005f52603260045260245ffd5b5f60ff82169050919050565b7f4e487b71000000000000000000000000000000000000000000000000000000005f52601260045260245ffd5b5f61171f826116dc565b915061172a836116dc565b92508261173a576117396116e8565b5b828206905092915050565b5f61174f826116dc565b915061175a836116dc565b9250828201905060ff8111156117735761177261126c565b5b92915050565b5f611783826116dc565b915060ff82036117965761179561126c565b5b600182019050919050565b6117aa816116dc565b82525050565b5f6040820190506117c35f83018561139a565b6117d060208301846117a1565b9392505050565b5f6117e1826116dc565b91506117ec836116dc565b9250828203905060ff8111156118055761180461126c565b5b92915050565b7f4e487b71000000000000000000000000000000000000000000000000000000005f52602160045260245ffd5b5f60408201905061184b5f83018561139a565b6118586020830184611098565b9392505050565b600481106118705761186f61180b565b5b50565b5f8190506118808261185f565b919050565b5f61188f82611873565b9050919050565b61189f81611885565b82525050565b5f6040820190506118b85f83018561139a565b6118c56020830184611896565b9392505050565b5f6118d68261103a565b91506118e18361103a565b92508282039050818111156118f9576118f861126c565b5b92915050565b5f6040820190506119125f83018561158d565b61191f6020830184611098565b9392505050565b5f6119308261103a565b915061193b8361103a565b92508261194b5761194a6116e8565b5b828206905092915050565b5f6119608261103a565b915061196b8361103a565b92508282019050808211156119835761198261126c565b5b9291505056fea2646970667358221220290fab6e73a31d880cb58e4d1cbf1d36f882662b2857f2156ca446ff06fb018e64736f6c634300081e0033",
					"opcodes": "PUSH1 0x80 PUSH1 0x40 MSTORE CALLVALUE DUP1 ISZERO PUSH2 0xF JUMPI PUSH0 PUSH0 REVERT JUMPDEST POP PUSH1 0x40 MLOAD PUSH2 0x1B1F CODESIZE SUB DUP1 PUSH2 0x1B1F DUP4 CODECOPY DUP2 DUP2 ADD PUSH1 0x40 MSTORE DUP2 ADD SWAP1 PUSH2 0x31 SWAP2 SWAP1 PUSH2 0x115 JUMP JUMPDEST DUP2 PUSH0 PUSH0 PUSH2 0x100 EXP DUP2 SLOAD DUP2 PUSH20 0xFFFFFFFFFFFFFFFFFFFFFFFFFFFFFFFFFFFFFFFF MUL NOT AND SWAP1 DUP4 PUSH20 0xFFFFFFFFFFFFFFFFFFFFFFFFFFFFFFFFFFFFFFFF AND MUL OR SWAP1 SSTORE POP DUP1 PUSH1 0x1 PUSH0 PUSH2 0x100 EXP DUP2 SLOAD DUP2 PUSH20 0xFFFFFFFFFFFFFFFFFFFFFFFFFFFFFFFFFFFFFFFF MUL NOT AND SWAP1 DUP4 PUSH20 0xFFFFFFFFFFFFFFFFFFFFFFFFFFFFFFFFFFFFFFFF AND MUL OR SWAP1 SSTORE POP POP POP PUSH2 0x153 JUMP JUMPDEST PUSH0 PUSH0 REVERT JUMPDEST PUSH0 PUSH20 0xFFFFFFFFFFFFFFFFFFFFFFFFFFFFFFFFFFFFFFFF DUP3 AND SWAP1 POP SWAP2 SWAP1 POP JUMP JUMPDEST PUSH0 PUSH2 0xE4 DUP3 PUSH2 0xBB JUMP JUMPDEST SWAP1 POP SWAP2 SWAP1 POP JUMP JUMPDEST PUSH2 0xF4 DUP2 PUSH2 0xDA JUMP JUMPDEST DUP2 EQ PUSH2 0xFE JUMPI PUSH0 PUSH0 REVERT JUMPDEST POP JUMP JUMPDEST PUSH0 DUP2 MLOAD SWAP1 POP PUSH2 0x10F DUP2 PUSH2 0xEB JUMP JUMPDEST SWAP3 SWAP2 POP POP JUMP JUMPDEST PUSH0 PUSH0 PUSH1 0x40 DUP4 DUP6 SUB SLT ISZERO PUSH2 0x12B JUMPI PUSH2 0x12A PUSH2 0xB7 JUMP JUMPDEST JUMPDEST PUSH0 PUSH2 0x138 DUP6 DUP3 DUP7 ADD PUSH2 0x101 JUMP JUMPDEST SWAP3 POP POP PUSH1 0x20 PUSH2 0x149 DUP6 DUP3 DUP7 ADD PUSH2 0x101 JUMP JUMPDEST SWAP2 POP POP SWAP3 POP SWAP3 SWAP1 POP JUMP JUMPDEST PUSH2 0x19BF DUP1 PUSH2 0x160 PUSH0 CODECOPY PUSH0 RETURN INVALID PUSH1 0x80 PUSH1 0x40 MSTORE CALLVALUE DUP1 ISZERO PUSH2 0xF JUMPI PUSH0 PUSH0 REVERT JUMPDEST POP PUSH1 0x4 CALLDATASIZE LT PUSH2 0x7B JUMPI PUSH0 CALLDATALOAD PUSH1 0xE0 SHR DUP1 PUSH4 0x7DC0D1D0 GT PUSH2 0x59 JUMPI DUP1 PUSH4 0x7DC0D1D0 EQ PUSH2 0xC3 JUMPI DUP1 PUSH4 0xAFAB107E EQ PUSH2 0xE1 JUMPI DUP1 PUSH4 0xC2897B10 EQ PUSH2 0xFD JUMPI DUP1 PUSH4 0xFBFA77CF EQ PUSH2 0x107 JUMPI PUSH2 0x7B JUMP JUMPDEST DUP1 PUSH4 0x2AE3594A EQ PUSH2 0x7F JUMPI DUP1 PUSH4 0x31A56B83 EQ PUSH2 0x89 JUMPI DUP1 PUSH4 0x673EE37C EQ PUSH2 0xA5 JUMPI JUMPDEST PUSH0 PUSH0 REVERT JUMPDEST PUSH2 0x87 PUSH2 0x125 JUMP JUMPDEST STOP JUMPDEST PUSH2 0xA3 PUSH1 0x4 DUP1 CALLDATASIZE SUB DUP2 ADD SWAP1 PUSH2 0x9E SWAP2 SWAP1 PUSH2 0x106D JUMP JUMPDEST PUSH2 0x306 JUMP JUMPDEST STOP JUMPDEST PUSH2 0xAD PUSH2 0x532 JUMP JUMPDEST PUSH1 0x40 MLOAD PUSH2 0xBA SWAP2 SWAP1 PUSH2 0x10A7 JUMP JUMPDEST PUSH1 0x40 MLOAD DUP1 SWAP2 SUB SWAP1 RETURN JUMPDEST PUSH2 0xCB PUSH2 0x538 JUMP JUMPDEST PUSH1 0x40 MLOAD PUSH2 0xD8 SWAP2 SWAP1 PUSH2 0x113A JUMP JUMPDEST PUSH1 0x40 MLOAD DUP1 SWAP2 SUB SWAP1 RETURN JUMPDEST PUSH2 0xFB PUSH1 0x4 DUP1 CALLDATASIZE SUB DUP2 ADD SWAP1 PUSH2 0xF6 SWAP2 SWAP1 PUSH2 0x106D JUMP JUMPDEST PUSH2 0x55D JUMP JUMPDEST STOP JUMPDEST PUSH2 0x105 PUSH2 0x84C JUMP JUMPDEST STOP JUMPDEST PUSH2 0x10F PUSH2 0xA75 JUMP JUMPDEST PUSH1 0x40 MLOAD PUSH2 0x11C SWAP2 SWAP1 PUSH2 0x1173 JUMP JUMPDEST PUSH1 0x40 MLOAD DUP1 SWAP2 SUB SWAP1 RETURN JUMPDEST PUSH0 PUSH1 0x3 PUSH0 CALLER PUSH20 0xFFFFFFFFFFFFFFFFFFFFFFFFFFFFFFFFFFFFFFFF AND PUSH20 0xFFFFFFFFFFFFFFFFFFFFFFFFFFFFFFFFFFFFFFFF AND DUP2 MSTORE PUSH1 0x20 ADD SWAP1 DUP2 MSTORE PUSH1 0x20 ADD PUSH0 KECCAK256 SLOAD SWAP1 POP PUSH0 PUSH1 0x4 PUSH0 DUP4 DUP2 MSTORE PUSH1 0x20 ADD SWAP1 DUP2 MSTORE PUSH1 0x20 ADD PUSH0 KECCAK256 SWAP1 POP DUP1 PUSH1 0x6 ADD PUSH1 0x1 SWAP1 SLOAD SWAP1 PUSH2 0x100 EXP SWAP1 DIV PUSH1 0xFF AND PUSH2 0x1CB JUMPI PUSH1 0x40 MLOAD PUSH32 0x8C379A000000000000000000000000000000000000000000000000000000000 DUP2 MSTORE PUSH1 0x4 ADD PUSH2 0x1C2 SWAP1 PUSH2 0x11E6 JUMP JUMPDEST PUSH1 0x40 MLOAD DUP1 SWAP2 SUB SWAP1 REVERT JUMPDEST DUP1 PUSH1 0x6 ADD PUSH1 0x2 SWAP1 SLOAD SWAP1 PUSH2 0x100 EXP SWAP1 DIV PUSH1 0xFF AND ISZERO PUSH2 0x21D JUMPI PUSH1 0x40 MLOAD PUSH32 0x8C379A000000000000000000000000000000000000000000000000000000000 DUP2 MSTORE PUSH1 0x4 ADD PUSH2 0x214 SWAP1 PUSH2 0x124E JUMP JUMPDEST PUSH1 0x40 MLOAD DUP1 SWAP2 SUB SWAP1 REVERT JUMPDEST PUSH0 PUSH2 0x227 DUP3 PUSH2 0xA99 JUMP JUMPDEST SWAP1 POP PUSH2 0x256 DUP2 DUP4 PUSH1 0xB ADD PUSH1 0x1 SWAP1 SLOAD SWAP1 PUSH2 0x100 EXP SWAP1 DIV PUSH1 0xFF AND DUP5 PUSH1 0xB ADD PUSH1 0x2 SWAP1 SLOAD SWAP1 PUSH2 0x100 EXP SWAP1 DIV PUSH1 0xFF AND PUSH2 0xBF8 JUMP JUMPDEST DUP4 PUSH1 0xB ADD PUSH1 0x1 DUP6 PUSH1 0xB ADD PUSH1 0x2 DUP5 SWAP2 SWAP1 PUSH2 0x100 EXP DUP2 SLOAD DUP2 PUSH1 0xFF MUL NOT AND SWAP1 DUP4 PUSH1 0xFF AND MUL OR SWAP1 SSTORE POP DUP4 SWAP2 SWAP1 PUSH2 0x100 EXP DUP2 SLOAD DUP2 PUSH1 0xFF MUL NOT AND SWAP1 DUP4 PUSH1 0xFF AND MUL OR SWAP1 SSTORE POP POP POP PUSH1 0x15 DUP3 PUSH1 0xB ADD PUSH1 0x1 SWAP1 SLOAD SWAP1 PUSH2 0x100 EXP SWAP1 DIV PUSH1 0xFF AND PUSH1 0xFF AND GT ISZERO PUSH2 0x2C4 JUMPI PUSH2 0x2BF DUP3 PUSH1 0x2 PUSH0 PUSH2 0xC83 JUMP JUMPDEST PUSH2 0x301 JUMP JUMPDEST PUSH2 0x2DE DUP3 PUSH1 0xB ADD PUSH1 0x1 SWAP1 SLOAD SWAP1 PUSH2 0x100 EXP SWAP1 DIV PUSH1 0xFF AND PUSH2 0xE69 JUMP JUMPDEST ISZERO PUSH2 0x300 JUMPI PUSH2 0x2FF DUP3 PUSH1 0x1 PUSH1 0x2 DUP6 PUSH1 0x1 ADD SLOAD PUSH2 0x2FA SWAP2 SWAP1 PUSH2 0x1299 JUMP JUMPDEST PUSH2 0xC83 JUMP JUMPDEST JUMPDEST JUMPDEST POP POP POP JUMP JUMPDEST PUSH0 PUSH1 0x3 PUSH0 CALLER PUSH20 0xFFFFFFFFFFFFFFFFFFFFFFFFFFFFFFFFFFFFFFFF AND PUSH20 0xFFFFFFFFFFFFFFFFFFFFFFFFFFFFFFFFFFFFFFFF AND DUP2 MSTORE PUSH1 0x20 ADD SWAP1 DUP2 MSTORE PUSH1 0x20 ADD PUSH0 KECCAK256 SLOAD EQ PUSH2 0x385 JUMPI PUSH1 0x40 MLOAD PUSH32 0x8C379A000000000000000000000000000000000000000000000000000000000 DUP2 MSTORE PUSH1 0x4 ADD PUSH2 0x37C SWAP1 PUSH2 0x1324 JUMP JUMPDEST PUSH1 0x40 MLOAD DUP1 SWAP2 SUB SWAP1 REVERT JUMPDEST PUSH0 PUSH1 0x2 PUSH0 DUP2 SLOAD DUP1 SWAP3 SWAP2 SWAP1 PUSH2 0x398 SWAP1 PUSH2 0x1342 JUMP JUMPDEST SWAP2 SWAP1 POP SSTORE SWAP1 POP DUP1 PUSH1 0x3 PUSH0 CALLER PUSH20 0xFFFFFFFFFFFFFFFFFFFFFFFFFFFFFFFFFFFFFFFF AND PUSH20 0xFFFFFFFFFFFFFFFFFFFFFFFFFFFFFFFFFFFFFFFF AND DUP2 MSTORE PUSH1 0x20 ADD SWAP1 DUP2 MSTORE PUSH1 0x20 ADD PUSH0 KECCAK256 DUP2 SWAP1 SSTORE POP PUSH0 PUSH1 0x4 PUSH0 DUP4 DUP2 MSTORE PUSH1 0x20 ADD SWAP1 DUP2 MSTORE PUSH1 0x20 ADD PUSH0 KECCAK256 SWAP1 POP DUP2 DUP2 PUSH0 ADD DUP2 SWAP1 SSTORE POP CALLER DUP2 PUSH1 0x2 ADD PUSH0 PUSH2 0x100 EXP DUP2 SLOAD DUP2 PUSH20 0xFFFFFFFFFFFFFFFFFFFFFFFFFFFFFFFFFFFFFFFF MUL NOT AND SWAP1 DUP4 PUSH20 0xFFFFFFFFFFFFFFFFFFFFFFFFFFFFFFFFFFFFFFFF AND MUL OR SWAP1 SSTORE POP DUP3 DUP2 PUSH1 0x3 ADD DUP2 SWAP1 SSTORE POP PUSH0 DUP2 PUSH1 0x6 ADD PUSH0 PUSH2 0x100 EXP DUP2 SLOAD DUP2 PUSH1 0xFF MUL NOT AND SWAP1 DUP4 PUSH1 0xFF AND MUL OR SWAP1 SSTORE POP PUSH1 0x1 DUP2 PUSH1 0x6 ADD PUSH1 0x1 PUSH2 0x100 EXP DUP2 SLOAD DUP2 PUSH1 0xFF MUL NOT AND SWAP1 DUP4 ISZERO ISZERO MUL OR SWAP1 SSTORE POP PUSH0 DUP2 PUSH1 0xB ADD PUSH0 PUSH2 0x100 EXP DUP2 SLOAD DUP2 PUSH1 0xFF MUL NOT AND SWAP1 DUP4 ISZERO ISZERO MUL OR SWAP1 SSTORE POP PUSH0 DUP2 PUSH1 0xB ADD PUSH1 0x1 PUSH2 0x100 EXP DUP2 SLOAD DUP2 PUSH1 0xFF MUL NOT AND SWAP1 DUP4 PUSH1 0xFF AND MUL OR SWAP1 SSTORE POP PUSH0 DUP2 PUSH1 0xB ADD PUSH1 0x3 PUSH2 0x100 EXP DUP2 SLOAD DUP2 PUSH1 0xFF MUL NOT AND SWAP1 DUP4 PUSH1 0xFF AND MUL OR SWAP1 SSTORE POP PUSH0 DUP2 PUSH1 0x6 ADD PUSH1 0x2 PUSH2 0x100 EXP DUP2 SLOAD DUP2 PUSH1 0xFF MUL NOT AND SWAP1 DUP4 ISZERO ISZERO MUL OR SWAP1 SSTORE POP PUSH32 0xC3E0F84839DC888C892A013D10C8F9D6DC05A21A879D0CE468CA558013E9121C DUP2 PUSH0 ADD SLOAD CALLER PUSH1 0x40 MLOAD PUSH2 0x525 SWAP3 SWAP2 SWAP1 PUSH2 0x13A9 JUMP JUMPDEST PUSH1 0x40 MLOAD DUP1 SWAP2 SUB SWAP1 LOG1 POP POP POP JUMP JUMPDEST PUSH1 0x2 SLOAD DUP2 JUMP JUMPDEST PUSH1 0x1 PUSH0 SWAP1 SLOAD SWAP1 PUSH2 0x100 EXP SWAP1 DIV PUSH20 0xFFFFFFFFFFFFFFFFFFFFFFFFFFFFFFFFFFFFFFFF AND DUP2 JUMP JUMPDEST PUSH5 0x174876E800 DUP2 LT ISZERO DUP1 ISZERO PUSH2 0x579 JUMPI POP PUSH7 0x38D7EA4C68000 DUP2 GT ISZERO JUMPDEST PUSH2 0x5B8 JUMPI PUSH1 0x40 MLOAD PUSH32 0x8C379A000000000000000000000000000000000000000000000000000000000 DUP2 MSTORE PUSH1 0x4 ADD PUSH2 0x5AF SWAP1 PUSH2 0x141A JUMP JUMPDEST PUSH1 0x40 MLOAD DUP1 SWAP2 SUB SWAP1 REVERT JUMPDEST PUSH0 PUSH1 0x3 PUSH0 CALLER PUSH20 0xFFFFFFFFFFFFFFFFFFFFFFFFFFFFFFFFFFFFFFFF AND PUSH20 0xFFFFFFFFFFFFFFFFFFFFFFFFFFFFFFFFFFFFFFFF AND DUP2 MSTORE PUSH1 0x20 ADD SWAP1 DUP2 MSTORE PUSH1 0x20 ADD PUSH0 KECCAK256 SLOAD SUB PUSH2 0x637 JUMPI PUSH1 0x40 MLOAD PUSH32 0x8C379A000000000000000000000000000000000000000000000000000000000 DUP2 MSTORE PUSH1 0x4 ADD PUSH2 0x62E SWAP1 PUSH2 0x1482 JUMP JUMPDEST PUSH1 0x40 MLOAD DUP1 SWAP2 SUB SWAP1 REVERT JUMPDEST PUSH0 PUSH1 0x3 PUSH0 CALLER PUSH20 0xFFFFFFFFFFFFFFFFFFFFFFFFFFFFFFFFFFFFFFFF AND PUSH20 0xFFFFFFFFFFFFFFFFFFFFFFFFFFFFFFFFFFFFFFFF AND DUP2 MSTORE PUSH1 0x20 ADD SWAP1 DUP2 MSTORE PUSH1 0x20 ADD PUSH0 KECCAK256 SLOAD SWAP1 POP PUSH0 PUSH1 0x4 PUSH0 DUP4 DUP2 MSTORE PUSH1 0x20 ADD SWAP1 DUP2 MSTORE PUSH1 0x20 ADD PUSH0 KECCAK256 SWAP1 POP PUSH0 DUP2 PUSH1 0x1 ADD SLOAD EQ PUSH2 0x6D2 JUMPI PUSH1 0x40 MLOAD PUSH32 0x8C379A000000000000000000000000000000000000000000000000000000000 DUP2 MSTORE PUSH1 0x4 ADD PUSH2 0x6C9 SWAP1 PUSH2 0x14EA JUMP JUMPDEST PUSH1 0x40 MLOAD DUP1 SWAP2 SUB SWAP1 REVERT JUMPDEST DUP1 PUSH1 0x6 ADD PUSH1 0x1 SWAP1 SLOAD SWAP1 PUSH2 0x100 EXP SWAP1 DIV PUSH1 0xFF AND DUP1 PUSH2 0x701 JUMPI POP PUSH0 DUP2 PUSH1 0x6 ADD PUSH0 SWAP1 SLOAD SWAP1 PUSH2 0x100 EXP SWAP1 DIV PUSH1 0xFF AND PUSH1 0xFF AND GT JUMPDEST ISZERO PUSH2 0x741 JUMPI PUSH1 0x40 MLOAD PUSH32 0x8C379A000000000000000000000000000000000000000000000000000000000 DUP2 MSTORE PUSH1 0x4 ADD PUSH2 0x738 SWAP1 PUSH2 0x1324 JUMP JUMPDEST PUSH1 0x40 MLOAD DUP1 SWAP2 SUB SWAP1 REVERT JUMPDEST DUP3 DUP2 PUSH1 0x1 ADD DUP2 SWAP1 SSTORE POP PUSH1 0x1 PUSH0 SWAP1 SLOAD SWAP1 PUSH2 0x100 EXP SWAP1 DIV PUSH20 0xFFFFFFFFFFFFFFFFFFFFFFFFFFFFFFFFFFFFFFFF AND PUSH20 0xFFFFFFFFFFFFFFFFFFFFFFFFFFFFFFFFFFFFFFFF AND PUSH4 0x41DF082 DUP3 PUSH1 0x4 ADD SLOAD DUP4 PUSH1 0x3 ADD SLOAD PUSH1 0x40 MLOAD DUP4 PUSH4 0xFFFFFFFF AND PUSH1 0xE0 SHL DUP2 MSTORE PUSH1 0x4 ADD PUSH2 0x7AE SWAP3 SWAP2 SWAP1 PUSH2 0x1508 JUMP JUMPDEST PUSH1 0x20 PUSH1 0x40 MLOAD DUP1 DUP4 SUB DUP2 PUSH0 DUP8 GAS CALL ISZERO DUP1 ISZERO PUSH2 0x7CA JUMPI RETURNDATASIZE PUSH0 PUSH0 RETURNDATACOPY RETURNDATASIZE PUSH0 REVERT JUMPDEST POP POP POP POP PUSH1 0x40 MLOAD RETURNDATASIZE PUSH1 0x1F NOT PUSH1 0x1F DUP3 ADD AND DUP3 ADD DUP1 PUSH1 0x40 MSTORE POP DUP2 ADD SWAP1 PUSH2 0x7EE SWAP2 SWAP1 PUSH2 0x1562 JUMP JUMPDEST DUP2 PUSH1 0x5 ADD DUP2 SWAP1 SSTORE POP PUSH2 0x7FF DUP2 PUSH2 0xE78 JUMP JUMPDEST PUSH32 0xE97CE5F641B8A03E0F92D0B4480F849CF26A7BFDF17862C8EDAF69268E60AAD DUP2 PUSH0 ADD SLOAD CALLER DUP4 PUSH1 0x1 ADD SLOAD DUP5 PUSH1 0x5 ADD SLOAD PUSH1 0x40 MLOAD PUSH2 0x83F SWAP5 SWAP4 SWAP3 SWAP2 SWAP1 PUSH2 0x159C JUMP JUMPDEST PUSH1 0x40 MLOAD DUP1 SWAP2 SUB SWAP1 LOG1 POP POP POP JUMP JUMPDEST PUSH0 PUSH1 0x3 PUSH0 CALLER PUSH20 0xFFFFFFFFFFFFFFFFFFFFFFFFFFFFFFFFFFFFFFFF AND PUSH20 0xFFFFFFFFFFFFFFFFFFFFFFFFFFFFFFFFFFFFFFFF AND DUP2 MSTORE PUSH1 0x20 ADD SWAP1 DUP2 MSTORE PUSH1 0x20 ADD PUSH0 KECCAK256 SLOAD SWAP1 POP PUSH0 PUSH1 0x4 PUSH0 DUP4 DUP2 MSTORE PUSH1 0x20 ADD SWAP1 DUP2 MSTORE PUSH1 0x20 ADD PUSH0 KECCAK256 SWAP1 POP DUP1 PUSH1 0x6 ADD PUSH1 0x1 SWAP1 SLOAD SWAP1 PUSH2 0x100 EXP SWAP1 DIV PUSH1 0xFF AND PUSH2 0x8F2 JUMPI PUSH1 0x40 MLOAD PUSH32 0x8C379A000000000000000000000000000000000000000000000000000000000 DUP2 MSTORE PUSH1 0x4 ADD PUSH2 0x8E9 SWAP1 PUSH2 0x1629 JUMP JUMPDEST PUSH1 0x40 MLOAD DUP1 SWAP2 SUB SWAP1 REVERT JUMPDEST PUSH0 JUMPDEST PUSH1 0x11 DUP3 PUSH1 0xB ADD PUSH1 0x3 SWAP1 SLOAD SWAP1 PUSH2 0x100 EXP SWAP1 DIV PUSH1 0xFF AND PUSH1 0xFF AND LT ISZERO PUSH2 0x98E JUMPI PUSH2 0x91A DUP3 PUSH2 0xA99 JUMP JUMPDEST SWAP1 POP PUSH2 0x949 DUP2 DUP4 PUSH1 0xB ADD PUSH1 0x3 SWAP1 SLOAD SWAP1 PUSH2 0x100 EXP SWAP1 DIV PUSH1 0xFF AND DUP5 PUSH1 0xB ADD PUSH1 0x4 SWAP1 SLOAD SWAP1 PUSH2 0x100 EXP SWAP1 DIV PUSH1 0xFF AND PUSH2 0xBF8 JUMP JUMPDEST DUP4 PUSH1 0xB ADD PUSH1 0x3 DUP6 PUSH1 0xB ADD PUSH1 0x4 DUP5 SWAP2 SWAP1 PUSH2 0x100 EXP DUP2 SLOAD DUP2 PUSH1 0xFF MUL NOT AND SWAP1 DUP4 PUSH1 0xFF AND MUL OR SWAP1 SSTORE POP DUP4 SWAP2 SWAP1 PUSH2 0x100 EXP DUP2 SLOAD DUP2 PUSH1 0xFF MUL NOT AND SWAP1 DUP4 PUSH1 0xFF AND MUL OR SWAP1 SSTORE POP POP POP PUSH2 0x8F4 JUMP JUMPDEST PUSH1 0x15 DUP3 PUSH1 0xB ADD PUSH1 0x3 SWAP1 SLOAD SWAP1 PUSH2 0x100 EXP SWAP1 DIV PUSH1 0xFF AND PUSH1 0xFF AND GT ISZERO PUSH2 0x9CC JUMPI PUSH2 0x9C7 DUP3 PUSH1 0x1 PUSH1 0x2 DUP6 PUSH1 0x1 ADD SLOAD PUSH2 0x9C2 SWAP2 SWAP1 PUSH2 0x1299 JUMP JUMPDEST PUSH2 0xC83 JUMP JUMPDEST PUSH2 0xA70 JUMP JUMPDEST DUP2 PUSH1 0xB ADD PUSH1 0x1 SWAP1 SLOAD SWAP1 PUSH2 0x100 EXP SWAP1 DIV PUSH1 0xFF AND PUSH1 0xFF AND DUP3 PUSH1 0xB ADD PUSH1 0x3 SWAP1 SLOAD SWAP1 PUSH2 0x100 EXP SWAP1 DIV PUSH1 0xFF AND PUSH1 0xFF AND GT DUP1 PUSH2 0xA18 JUMPI POP PUSH2 0xA17 DUP3 PUSH1 0xB ADD PUSH1 0x3 SWAP1 SLOAD SWAP1 PUSH2 0x100 EXP SWAP1 DIV PUSH1 0xFF AND PUSH2 0xE69 JUMP JUMPDEST JUMPDEST ISZERO PUSH2 0xA2E JUMPI PUSH2 0xA29 DUP3 PUSH1 0x2 PUSH0 PUSH2 0xC83 JUMP JUMPDEST PUSH2 0xA6F JUMP JUMPDEST DUP2 PUSH1 0xB ADD PUSH1 0x1 SWAP1 SLOAD SWAP1 PUSH2 0x100 EXP SWAP1 DIV PUSH1 0xFF AND PUSH1 0xFF AND DUP3 PUSH1 0xB ADD PUSH1 0x3 SWAP1 SLOAD SWAP1 PUSH2 0x100 EXP SWAP1 DIV PUSH1 0xFF AND PUSH1 0xFF AND SUB PUSH2 0xA6E JUMPI PUSH2 0xA6D DUP3 PUSH1 0x3 DUP5 PUSH1 0x1 ADD SLOAD PUSH2 0xC83 JUMP JUMPDEST JUMPDEST JUMPDEST JUMPDEST POP POP POP JUMP JUMPDEST PUSH0 PUSH0 SWAP1 SLOAD SWAP1 PUSH2 0x100 EXP SWAP1 DIV PUSH20 0xFFFFFFFFFFFFFFFFFFFFFFFFFFFFFFFFFFFFFFFF AND DUP2 JUMP JUMPDEST PUSH0 DUP2 PUSH1 0xB ADD PUSH0 SWAP1 SLOAD SWAP1 PUSH2 0x100 EXP SWAP1 DIV PUSH1 0xFF AND PUSH2 0xAEA JUMPI PUSH1 0x40 MLOAD PUSH32 0x8C379A000000000000000000000000000000000000000000000000000000000 DUP2 MSTORE PUSH1 0x4 ADD PUSH2 0xAE1 SWAP1 PUSH2 0x1691 JUMP JUMPDEST PUSH1 0x40 MLOAD DUP1 SWAP2 SUB SWAP1 REVERT JUMPDEST PUSH0 DUP3 PUSH1 0x7 ADD DUP4 PUSH1 0x6 ADD PUSH0 SWAP1 SLOAD SWAP1 PUSH2 0x100 EXP SWAP1 DIV PUSH1 0xFF AND PUSH1 0xFF AND PUSH1 0x68 DUP2 LT PUSH2 0xB14 JUMPI PUSH2 0xB13 PUSH2 0x16AF JUMP JUMPDEST JUMPDEST PUSH1 0x20 SWAP2 DUP3 DUP3 DIV ADD SWAP2 SWAP1 MOD SWAP1 SLOAD SWAP1 PUSH2 0x100 EXP SWAP1 DIV PUSH1 0xFF AND SWAP1 POP PUSH0 PUSH1 0x1 PUSH1 0xD DUP4 PUSH2 0xB3C SWAP2 SWAP1 PUSH2 0x1715 JUMP JUMPDEST PUSH2 0xB46 SWAP2 SWAP1 PUSH2 0x1745 JUMP JUMPDEST SWAP1 POP PUSH1 0xA DUP2 PUSH1 0xFF AND GT ISZERO PUSH2 0xB59 JUMPI PUSH1 0xA SWAP1 POP JUMPDEST DUP4 PUSH1 0x6 ADD PUSH0 DUP2 DUP2 SWAP1 SLOAD SWAP1 PUSH2 0x100 EXP SWAP1 DIV PUSH1 0xFF AND DUP1 SWAP3 SWAP2 SWAP1 PUSH2 0xB79 SWAP1 PUSH2 0x1779 JUMP JUMPDEST SWAP2 SWAP1 PUSH2 0x100 EXP DUP2 SLOAD DUP2 PUSH1 0xFF MUL NOT AND SWAP1 DUP4 PUSH1 0xFF AND MUL OR SWAP1 SSTORE POP POP PUSH32 0x5CB494422AEC3C1D66AD0616D3F90F8641E12057560336165C27BF8793FCE9CF DUP5 PUSH1 0x2 ADD PUSH0 SWAP1 SLOAD SWAP1 PUSH2 0x100 EXP SWAP1 DIV PUSH20 0xFFFFFFFFFFFFFFFFFFFFFFFFFFFFFFFFFFFFFFFF AND DUP4 PUSH1 0x40 MLOAD PUSH2 0xBE6 SWAP3 SWAP2 SWAP1 PUSH2 0x17B0 JUMP JUMPDEST PUSH1 0x40 MLOAD DUP1 SWAP2 SUB SWAP1 LOG1 DUP1 SWAP3 POP POP POP SWAP2 SWAP1 POP JUMP JUMPDEST PUSH0 PUSH0 PUSH1 0x1 DUP6 PUSH1 0xFF AND SUB PUSH2 0xC28 JUMPI PUSH1 0xB DUP5 PUSH2 0xC12 SWAP2 SWAP1 PUSH2 0x1745 JUMP JUMPDEST SWAP4 POP PUSH1 0x1 DUP4 PUSH2 0xC21 SWAP2 SWAP1 PUSH2 0x1745 JUMP JUMPDEST SWAP3 POP PUSH2 0xC37 JUMP JUMPDEST DUP5 DUP5 PUSH2 0xC34 SWAP2 SWAP1 PUSH2 0x1745 JUMP JUMPDEST SWAP4 POP JUMPDEST JUMPDEST PUSH1 0x15 DUP5 PUSH1 0xFF AND GT DUP1 ISZERO PUSH2 0xC4D JUMPI POP PUSH0 DUP4 PUSH1 0xFF AND GT JUMPDEST ISZERO PUSH2 0xC75 JUMPI PUSH1 0xA DUP5 PUSH2 0xC5F SWAP2 SWAP1 PUSH2 0x17D7 JUMP JUMPDEST SWAP4 POP PUSH1 0x1 DUP4 PUSH2 0xC6E SWAP2 SWAP1 PUSH2 0x17D7 JUMP JUMPDEST SWAP3 POP PUSH2 0xC38 JUMP JUMPDEST DUP4 DUP4 SWAP2 POP SWAP2 POP SWAP4 POP SWAP4 SWAP2 POP POP JUMP JUMPDEST DUP2 DUP4 PUSH1 0x6 ADD PUSH1 0x3 PUSH2 0x100 EXP DUP2 SLOAD DUP2 PUSH1 0xFF MUL NOT AND SWAP1 DUP4 PUSH1 0x3 DUP2 GT ISZERO PUSH2 0xCAA JUMPI PUSH2 0xCA9 PUSH2 0x180B JUMP JUMPDEST JUMPDEST MUL OR SWAP1 SSTORE POP PUSH1 0x1 DUP4 PUSH1 0x6 ADD PUSH1 0x2 PUSH2 0x100 EXP DUP2 SLOAD DUP2 PUSH1 0xFF MUL NOT AND SWAP1 DUP4 ISZERO ISZERO MUL OR SWAP1 SSTORE POP PUSH0 DUP4 PUSH1 0x6 ADD PUSH1 0x1 PUSH2 0x100 EXP DUP2 SLOAD DUP2 PUSH1 0xFF MUL NOT AND SWAP1 DUP4 ISZERO ISZERO MUL OR SWAP1 SSTORE POP PUSH0 DUP2 GT ISZERO PUSH2 0xD9C JUMPI PUSH0 PUSH0 SWAP1 SLOAD SWAP1 PUSH2 0x100 EXP SWAP1 DIV PUSH20 0xFFFFFFFFFFFFFFFFFFFFFFFFFFFFFFFFFFFFFFFF AND PUSH20 0xFFFFFFFFFFFFFFFFFFFFFFFFFFFFFFFFFFFFFFFF AND PUSH4 0x117DE2FD DUP5 PUSH1 0x2 ADD PUSH0 SWAP1 SLOAD SWAP1 PUSH2 0x100 EXP SWAP1 DIV PUSH20 0xFFFFFFFFFFFFFFFFFFFFFFFFFFFFFFFFFFFFFFFF AND DUP4 PUSH1 0x40 MLOAD DUP4 PUSH4 0xFFFFFFFF AND PUSH1 0xE0 SHL DUP2 MSTORE PUSH1 0x4 ADD PUSH2 0xD6E SWAP3 SWAP2 SWAP1 PUSH2 0x1838 JUMP JUMPDEST PUSH0 PUSH1 0x40 MLOAD DUP1 DUP4 SUB DUP2 PUSH0 DUP8 DUP1 EXTCODESIZE ISZERO DUP1 ISZERO PUSH2 0xD85 JUMPI PUSH0 PUSH0 REVERT JUMPDEST POP GAS CALL ISZERO DUP1 ISZERO PUSH2 0xD97 JUMPI RETURNDATASIZE PUSH0 PUSH0 RETURNDATACOPY RETURNDATASIZE PUSH0 REVERT JUMPDEST POP POP POP POP JUMPDEST PUSH1 0x3 PUSH0 DUP5 PUSH1 0x2 ADD PUSH0 SWAP1 SLOAD SWAP1 PUSH2 0x100 EXP SWAP1 DIV PUSH20 0xFFFFFFFFFFFFFFFFFFFFFFFFFFFFFFFFFFFFFFFF AND PUSH20 0xFFFFFFFFFFFFFFFFFFFFFFFFFFFFFFFFFFFFFFFF AND PUSH20 0xFFFFFFFFFFFFFFFFFFFFFFFFFFFFFFFFFFFFFFFF AND DUP2 MSTORE PUSH1 0x20 ADD SWAP1 DUP2 MSTORE PUSH1 0x20 ADD PUSH0 KECCAK256 PUSH0 SWAP1 SSTORE PUSH0 DUP4 PUSH1 0x1 ADD DUP2 SWAP1 SSTORE POP PUSH32 0xECDAB0D30AE5A2B8D283ACF9ED4856306F12F29EF8069FAC9148D3D2AC6B4B14 DUP4 PUSH1 0x2 ADD PUSH0 SWAP1 SLOAD SWAP1 PUSH2 0x100 EXP SWAP1 DIV PUSH20 0xFFFFFFFFFFFFFFFFFFFFFFFFFFFFFFFFFFFFFFFF AND DUP4 PUSH1 0x40 MLOAD PUSH2 0xE5C SWAP3 SWAP2 SWAP1 PUSH2 0x18A5 JUMP JUMPDEST PUSH1 0x40 MLOAD DUP1 SWAP2 SUB SWAP1 LOG1 POP POP POP JUMP JUMPDEST PUSH0 PUSH1 0x15 DUP3 PUSH1 0xFF AND EQ SWAP1 POP SWAP2 SWAP1 POP JUMP JUMPDEST PUSH0 PUSH0 SWAP1 POP JUMPDEST PUSH1 0x68 PUSH1 0xFF AND DUP2 PUSH1 0xFF AND LT ISZERO PUSH2 0xED3 JUMPI DUP1 DUP3 PUSH1 0x7 ADD DUP3 PUSH1 0xFF AND PUSH1 0x68 DUP2 LT PUSH2 0xEA6 JUMPI PUSH2 0xEA5 PUSH2 0x16AF JUMP JUMPDEST JUMPDEST PUSH1 0x20 SWAP2 DUP3 DUP3 DIV ADD SWAP2 SWAP1 MOD PUSH2 0x100 EXP DUP2 SLOAD DUP2 PUSH1 0xFF MUL NOT AND SWAP1 DUP4 PUSH1 0xFF AND MUL OR SWAP1 SSTORE POP DUP1 DUP1 PUSH1 0x1 ADD SWAP2 POP POP PUSH2 0xE7D JUMP JUMPDEST POP PUSH0 PUSH0 SWAP1 POP JUMPDEST PUSH1 0x68 PUSH1 0xFF AND DUP2 LT ISZERO PUSH2 0x1016 JUMPI PUSH0 DUP2 PUSH1 0x68 PUSH1 0xFF AND PUSH2 0xEF6 SWAP2 SWAP1 PUSH2 0x18CC JUMP JUMPDEST DUP4 PUSH1 0x5 ADD SLOAD DUP4 PUSH1 0x40 MLOAD PUSH1 0x20 ADD PUSH2 0xF0D SWAP3 SWAP2 SWAP1 PUSH2 0x18FF JUMP JUMPDEST PUSH1 0x40 MLOAD PUSH1 0x20 DUP2 DUP4 SUB SUB DUP2 MSTORE SWAP1 PUSH1 0x40 MSTORE DUP1 MLOAD SWAP1 PUSH1 0x20 ADD KECCAK256 PUSH0 SHR PUSH2 0xF2F SWAP2 SWAP1 PUSH2 0x1926 JUMP JUMPDEST DUP3 PUSH2 0xF3A SWAP2 SWAP1 PUSH2 0x1956 JUMP JUMPDEST SWAP1 POP DUP3 PUSH1 0x7 ADD DUP2 PUSH1 0x68 DUP2 LT PUSH2 0xF52 JUMPI PUSH2 0xF51 PUSH2 0x16AF JUMP JUMPDEST JUMPDEST PUSH1 0x20 SWAP2 DUP3 DUP3 DIV ADD SWAP2 SWAP1 MOD SWAP1 SLOAD SWAP1 PUSH2 0x100 EXP SWAP1 DIV PUSH1 0xFF AND DUP4 PUSH1 0x7 ADD DUP4 PUSH1 0x68 DUP2 LT PUSH2 0xF7E JUMPI PUSH2 0xF7D PUSH2 0x16AF JUMP JUMPDEST JUMPDEST PUSH1 0x20 SWAP2 DUP3 DUP3 DIV ADD SWAP2 SWAP1 MOD SWAP1 SLOAD SWAP1 PUSH2 0x100 EXP SWAP1 DIV PUSH1 0xFF AND DUP5 PUSH1 0x7 ADD DUP5 PUSH1 0x68 DUP2 LT PUSH2 0xFAA JUMPI PUSH2 0xFA9 PUSH2 0x16AF JUMP JUMPDEST JUMPDEST PUSH1 0x20 SWAP2 DUP3 DUP3 DIV ADD SWAP2 SWAP1 MOD DUP7 PUSH1 0x7 ADD DUP6 PUSH1 0x68 DUP2 LT PUSH2 0xFCA JUMPI PUSH2 0xFC9 PUSH2 0x16AF JUMP JUMPDEST JUMPDEST PUSH1 0x20 SWAP2 DUP3 DUP3 DIV ADD SWAP2 SWAP1 MOD DUP5 SWAP2 SWAP1 PUSH2 0x100 EXP DUP2 SLOAD DUP2 PUSH1 0xFF MUL NOT AND SWAP1 DUP4 PUSH1 0xFF AND MUL OR SWAP1 SSTORE POP DUP4 SWAP2 SWAP1 PUSH2 0x100 EXP DUP2 SLOAD DUP2 PUSH1 0xFF MUL NOT AND SWAP1 DUP4 PUSH1 0xFF AND MUL OR SWAP1 SSTORE POP POP POP POP DUP1 DUP1 PUSH1 0x1 ADD SWAP2 POP POP PUSH2 0xED9 JUMP JUMPDEST POP PUSH1 0x1 DUP2 PUSH1 0xB ADD PUSH0 PUSH2 0x100 EXP DUP2 SLOAD DUP2 PUSH1 0xFF MUL NOT AND SWAP1 DUP4 ISZERO ISZERO MUL OR SWAP1 SSTORE POP POP JUMP JUMPDEST PUSH0 PUSH0 REVERT JUMPDEST PUSH0 DUP2 SWAP1 POP SWAP2 SWAP1 POP JUMP JUMPDEST PUSH2 0x104C DUP2 PUSH2 0x103A JUMP JUMPDEST DUP2 EQ PUSH2 0x1056 JUMPI PUSH0 PUSH0 REVERT JUMPDEST POP JUMP JUMPDEST PUSH0 DUP2 CALLDATALOAD SWAP1 POP PUSH2 0x1067 DUP2 PUSH2 0x1043 JUMP JUMPDEST SWAP3 SWAP2 POP POP JUMP JUMPDEST PUSH0 PUSH1 0x20 DUP3 DUP5 SUB SLT ISZERO PUSH2 0x1082 JUMPI PUSH2 0x1081 PUSH2 0x1036 JUMP JUMPDEST JUMPDEST PUSH0 PUSH2 0x108F DUP5 DUP3 DUP6 ADD PUSH2 0x1059 JUMP JUMPDEST SWAP2 POP POP SWAP3 SWAP2 POP POP JUMP JUMPDEST PUSH2 0x10A1 DUP2 PUSH2 0x103A JUMP JUMPDEST DUP3 MSTORE POP POP JUMP JUMPDEST PUSH0 PUSH1 0x20 DUP3 ADD SWAP1 POP PUSH2 0x10BA PUSH0 DUP4 ADD DUP5 PUSH2 0x1098 JUMP JUMPDEST SWAP3 SWAP2 POP POP JUMP JUMPDEST PUSH0 PUSH20 0xFFFFFFFFFFFFFFFFFFFFFFFFFFFFFFFFFFFFFFFF DUP3 AND SWAP1 POP SWAP2 SWAP1 POP JUMP JUMPDEST PUSH0 DUP2 SWAP1 POP SWAP2 SWAP1 POP JUMP JUMPDEST PUSH0 PUSH2 0x1102 PUSH2 0x10FD PUSH2 0x10F8 DUP5 PUSH2 0x10C0 JUMP JUMPDEST PUSH2 0x10DF JUMP JUMPDEST PUSH2 0x10C0 JUMP JUMPDEST SWAP1 POP SWAP2 SWAP1 POP JUMP JUMPDEST PUSH0 PUSH2 0x1113 DUP3 PUSH2 0x10E8 JUMP JUMPDEST SWAP1 POP SWAP2 SWAP1 POP JUMP JUMPDEST PUSH0 PUSH2 0x1124 DUP3 PUSH2 0x1109 JUMP JUMPDEST SWAP1 POP SWAP2 SWAP1 POP JUMP JUMPDEST PUSH2 0x1134 DUP2 PUSH2 0x111A JUMP JUMPDEST DUP3 MSTORE POP POP JUMP JUMPDEST PUSH0 PUSH1 0x20 DUP3 ADD SWAP1 POP PUSH2 0x114D PUSH0 DUP4 ADD DUP5 PUSH2 0x112B JUMP JUMPDEST SWAP3 SWAP2 POP POP JUMP JUMPDEST PUSH0 PUSH2 0x115D DUP3 PUSH2 0x1109 JUMP JUMPDEST SWAP1 POP SWAP2 SWAP1 POP JUMP JUMPDEST PUSH2 0x116D DUP2 PUSH2 0x1153 JUMP JUMPDEST DUP3 MSTORE POP POP JUMP JUMPDEST PUSH0 PUSH1 0x20 DUP3 ADD SWAP1 POP PUSH2 0x1186 PUSH0 DUP4 ADD DUP5 PUSH2 0x1164 JUMP JUMPDEST SWAP3 SWAP2 POP POP JUMP JUMPDEST PUSH0 DUP3 DUP3 MSTORE PUSH1 0x20 DUP3 ADD SWAP1 POP SWAP3 SWAP2 POP POP JUMP JUMPDEST PUSH32 0x4E6F2067616D6520697320696E2070726F677265737300000000000000000000 PUSH0 DUP3 ADD MSTORE POP JUMP JUMPDEST PUSH0 PUSH2 0x11D0 PUSH1 0x16 DUP4 PUSH2 0x118C JUMP JUMPDEST SWAP2 POP PUSH2 0x11DB DUP3 PUSH2 0x119C JUMP JUMPDEST PUSH1 0x20 DUP3 ADD SWAP1 POP SWAP2 SWAP1 POP JUMP JUMPDEST PUSH0 PUSH1 0x20 DUP3 ADD SWAP1 POP DUP2 DUP2 SUB PUSH0 DUP4 ADD MSTORE PUSH2 0x11FD DUP2 PUSH2 0x11C4 JUMP JUMPDEST SWAP1 POP SWAP2 SWAP1 POP JUMP JUMPDEST PUSH32 0x47616D652068617320616C72656164792066696E697368656400000000000000 PUSH0 DUP3 ADD MSTORE POP JUMP JUMPDEST PUSH0 PUSH2 0x1238 PUSH1 0x19 DUP4 PUSH2 0x118C JUMP JUMPDEST SWAP2 POP PUSH2 0x1243 DUP3 PUSH2 0x1204 JUMP JUMPDEST PUSH1 0x20 DUP3 ADD SWAP1 POP SWAP2 SWAP1 POP JUMP JUMPDEST PUSH0 PUSH1 0x20 DUP3 ADD SWAP1 POP DUP2 DUP2 SUB PUSH0 DUP4 ADD MSTORE PUSH2 0x1265 DUP2 PUSH2 0x122C JUMP JUMPDEST SWAP1 POP SWAP2 SWAP1 POP JUMP JUMPDEST PUSH32 0x4E487B7100000000000000000000000000000000000000000000000000000000 PUSH0 MSTORE PUSH1 0x11 PUSH1 0x4 MSTORE PUSH1 0x24 PUSH0 REVERT JUMPDEST PUSH0 PUSH2 0x12A3 DUP3 PUSH2 0x103A JUMP JUMPDEST SWAP2 POP PUSH2 0x12AE DUP4 PUSH2 0x103A JUMP JUMPDEST SWAP3 POP DUP3 DUP3 MUL PUSH2 0x12BC DUP2 PUSH2 0x103A JUMP JUMPDEST SWAP2 POP DUP3 DUP3 DIV DUP5 EQ DUP4 ISZERO OR PUSH2 0x12D3 JUMPI PUSH2 0x12D2 PUSH2 0x126C JUMP JUMPDEST JUMPDEST POP SWAP3 SWAP2 POP POP JUMP JUMPDEST PUSH32 0x47616D6520616C726561647920696E2070726F67726573730000000000000000 PUSH0 DUP3 ADD MSTORE POP JUMP JUMPDEST PUSH0 PUSH2 0x130E PUSH1 0x18 DUP4 PUSH2 0x118C JUMP JUMPDEST SWAP2 POP PUSH2 0x1319 DUP3 PUSH2 0x12DA JUMP JUMPDEST PUSH1 0x20 DUP3 ADD SWAP1 POP SWAP2 SWAP1 POP JUMP JUMPDEST PUSH0 PUSH1 0x20 DUP3 ADD SWAP1 POP DUP2 DUP2 SUB PUSH0 DUP4 ADD MSTORE PUSH2 0x133B DUP2 PUSH2 0x1302 JUMP JUMPDEST SWAP1 POP SWAP2 SWAP1 POP JUMP JUMPDEST PUSH0 PUSH2 0x134C DUP3 PUSH2 0x103A JUMP JUMPDEST SWAP2 POP PUSH32 0xFFFFFFFFFFFFFFFFFFFFFFFFFFFFFFFFFFFFFFFFFFFFFFFFFFFFFFFFFFFFFFFF DUP3 SUB PUSH2 0x137E JUMPI PUSH2 0x137D PUSH2 0x126C JUMP JUMPDEST JUMPDEST PUSH1 0x1 DUP3 ADD SWAP1 POP SWAP2 SWAP1 POP JUMP JUMPDEST PUSH0 PUSH2 0x1393 DUP3 PUSH2 0x10C0 JUMP JUMPDEST SWAP1 POP SWAP2 SWAP1 POP JUMP JUMPDEST PUSH2 0x13A3 DUP2 PUSH2 0x1389 JUMP JUMPDEST DUP3 MSTORE POP POP JUMP JUMPDEST PUSH0 PUSH1 0x40 DUP3 ADD SWAP1 POP PUSH2 0x13BC PUSH0 DUP4 ADD DUP6 PUSH2 0x1098 JUMP JUMPDEST PUSH2 0x13C9 PUSH1 0x20 DUP4 ADD DUP5 PUSH2 0x139A JUMP JUMPDEST SWAP4 SWAP3 POP POP POP JUMP JUMPDEST PUSH32 0x426574206F7574206F662072616E67652E000000000000000000000000000000 PUSH0 DUP3 ADD MSTORE POP JUMP JUMPDEST PUSH0 PUSH2 0x1404 PUSH1 0x11 DUP4 PUSH2 0x118C JUMP JUMPDEST SWAP2 POP PUSH2 0x140F DUP3 PUSH2 0x13D0 JUMP JUMPDEST PUSH1 0x20 DUP3 ADD SWAP1 POP SWAP2 SWAP1 POP JUMP JUMPDEST PUSH0 PUSH1 0x20 DUP3 ADD SWAP1 POP DUP2 DUP2 SUB PUSH0 DUP4 ADD MSTORE PUSH2 0x1431 DUP2 PUSH2 0x13F8 JUMP JUMPDEST SWAP1 POP SWAP2 SWAP1 POP JUMP JUMPDEST PUSH32 0x4E6F206163746976652067616D652063757272656E746C790000000000000000 PUSH0 DUP3 ADD MSTORE POP JUMP JUMPDEST PUSH0 PUSH2 0x146C PUSH1 0x18 DUP4 PUSH2 0x118C JUMP JUMPDEST SWAP2 POP PUSH2 0x1477 DUP3 PUSH2 0x1438 JUMP JUMPDEST PUSH1 0x20 DUP3 ADD SWAP1 POP SWAP2 SWAP1 POP JUMP JUMPDEST PUSH0 PUSH1 0x20 DUP3 ADD SWAP1 POP DUP2 DUP2 SUB PUSH0 DUP4 ADD MSTORE PUSH2 0x1499 DUP2 PUSH2 0x1460 JUMP JUMPDEST SWAP1 POP SWAP2 SWAP1 POP JUMP JUMPDEST PUSH32 0x42657420616C726561647920706C616365640000000000000000000000000000 PUSH0 DUP3 ADD MSTORE POP JUMP JUMPDEST PUSH0 PUSH2 0x14D4 PUSH1 0x12 DUP4 PUSH2 0x118C JUMP JUMPDEST SWAP2 POP PUSH2 0x14DF DUP3 PUSH2 0x14A0 JUMP JUMPDEST PUSH1 0x20 DUP3 ADD SWAP1 POP SWAP2 SWAP1 POP JUMP JUMPDEST PUSH0 PUSH1 0x20 DUP3 ADD SWAP1 POP DUP2 DUP2 SUB PUSH0 DUP4 ADD MSTORE PUSH2 0x1501 DUP2 PUSH2 0x14C8 JUMP JUMPDEST SWAP1 POP SWAP2 SWAP1 POP JUMP JUMPDEST PUSH0 PUSH1 0x40 DUP3 ADD SWAP1 POP PUSH2 0x151B PUSH0 DUP4 ADD DUP6 PUSH2 0x1098 JUMP JUMPDEST PUSH2 0x1528 PUSH1 0x20 DUP4 ADD DUP5 PUSH2 0x1098 JUMP JUMPDEST SWAP4 SWAP3 POP POP POP JUMP JUMPDEST PUSH0 DUP2 SWAP1 POP SWAP2 SWAP1 POP JUMP JUMPDEST PUSH2 0x1541 DUP2 PUSH2 0x152F JUMP JUMPDEST DUP2 EQ PUSH2 0x154B JUMPI PUSH0 PUSH0 REVERT JUMPDEST POP JUMP JUMPDEST PUSH0 DUP2 MLOAD SWAP1 POP PUSH2 0x155C DUP2 PUSH2 0x1538 JUMP JUMPDEST SWAP3 SWAP2 POP POP JUMP JUMPDEST PUSH0 PUSH1 0x20 DUP3 DUP5 SUB SLT ISZERO PUSH2 0x1577 JUMPI PUSH2 0x1576 PUSH2 0x1036 JUMP JUMPDEST JUMPDEST PUSH0 PUSH2 0x1584 DUP5 DUP3 DUP6 ADD PUSH2 0x154E JUMP JUMPDEST SWAP2 POP POP SWAP3 SWAP2 POP POP JUMP JUMPDEST PUSH2 0x1596 DUP2 PUSH2 0x152F JUMP JUMPDEST DUP3 MSTORE POP POP JUMP JUMPDEST PUSH0 PUSH1 0x80 DUP3 ADD SWAP1 POP PUSH2 0x15AF PUSH0 DUP4 ADD DUP8 PUSH2 0x1098 JUMP JUMPDEST PUSH2 0x15BC PUSH1 0x20 DUP4 ADD DUP7 PUSH2 0x139A JUMP JUMPDEST PUSH2 0x15C9 PUSH1 0x40 DUP4 ADD DUP6 PUSH2 0x1098 JUMP JUMPDEST PUSH2 0x15D6 PUSH1 0x60 DUP4 ADD DUP5 PUSH2 0x158D JUMP JUMPDEST SWAP6 SWAP5 POP POP POP POP POP JUMP JUMPDEST PUSH32 0x4E6F2067616D6520686173206265656E20737461727465640000000000000000 PUSH0 DUP3 ADD MSTORE POP JUMP JUMPDEST PUSH0 PUSH2 0x1613 PUSH1 0x18 DUP4 PUSH2 0x118C JUMP JUMPDEST SWAP2 POP PUSH2 0x161E DUP3 PUSH2 0x15DF JUMP JUMPDEST PUSH1 0x20 DUP3 ADD SWAP1 POP SWAP2 SWAP1 POP JUMP JUMPDEST PUSH0 PUSH1 0x20 DUP3 ADD SWAP1 POP DUP2 DUP2 SUB PUSH0 DUP4 ADD MSTORE PUSH2 0x1640 DUP2 PUSH2 0x1607 JUMP JUMPDEST SWAP1 POP SWAP2 SWAP1 POP JUMP JUMPDEST PUSH32 0x4465636B20686173206E6F74206265656E2073687566666C6564000000000000 PUSH0 DUP3 ADD MSTORE POP JUMP JUMPDEST PUSH0 PUSH2 0x167B PUSH1 0x1A DUP4 PUSH2 0x118C JUMP JUMPDEST SWAP2 POP PUSH2 0x1686 DUP3 PUSH2 0x1647 JUMP JUMPDEST PUSH1 0x20 DUP3 ADD SWAP1 POP SWAP2 SWAP1 POP JUMP JUMPDEST PUSH0 PUSH1 0x20 DUP3 ADD SWAP1 POP DUP2 DUP2 SUB PUSH0 DUP4 ADD MSTORE PUSH2 0x16A8 DUP2 PUSH2 0x166F JUMP JUMPDEST SWAP1 POP SWAP2 SWAP1 POP JUMP JUMPDEST PUSH32 0x4E487B7100000000000000000000000000000000000000000000000000000000 PUSH0 MSTORE PUSH1 0x32 PUSH1 0x4 MSTORE PUSH1 0x24 PUSH0 REVERT JUMPDEST PUSH0 PUSH1 0xFF DUP3 AND SWAP1 POP SWAP2 SWAP1 POP JUMP JUMPDEST PUSH32 0x4E487B7100000000000000000000000000000000000000000000000000000000 PUSH0 MSTORE PUSH1 0x12 PUSH1 0x4 MSTORE PUSH1 0x24 PUSH0 REVERT JUMPDEST PUSH0 PUSH2 0x171F DUP3 PUSH2 0x16DC JUMP JUMPDEST SWAP2 POP PUSH2 0x172A DUP4 PUSH2 0x16DC JUMP JUMPDEST SWAP3 POP DUP3 PUSH2 0x173A JUMPI PUSH2 0x1739 PUSH2 0x16E8 JUMP JUMPDEST JUMPDEST DUP3 DUP3 MOD SWAP1 POP SWAP3 SWAP2 POP POP JUMP JUMPDEST PUSH0 PUSH2 0x174F DUP3 PUSH2 0x16DC JUMP JUMPDEST SWAP2 POP PUSH2 0x175A DUP4 PUSH2 0x16DC JUMP JUMPDEST SWAP3 POP DUP3 DUP3 ADD SWAP1 POP PUSH1 0xFF DUP2 GT ISZERO PUSH2 0x1773 JUMPI PUSH2 0x1772 PUSH2 0x126C JUMP JUMPDEST JUMPDEST SWAP3 SWAP2 POP POP JUMP JUMPDEST PUSH0 PUSH2 0x1783 DUP3 PUSH2 0x16DC JUMP JUMPDEST SWAP2 POP PUSH1 0xFF DUP3 SUB PUSH2 0x1796 JUMPI PUSH2 0x1795 PUSH2 0x126C JUMP JUMPDEST JUMPDEST PUSH1 0x1 DUP3 ADD SWAP1 POP SWAP2 SWAP1 POP JUMP JUMPDEST PUSH2 0x17AA DUP2 PUSH2 0x16DC JUMP JUMPDEST DUP3 MSTORE POP POP JUMP JUMPDEST PUSH0 PUSH1 0x40 DUP3 ADD SWAP1 POP PUSH2 0x17C3 PUSH0 DUP4 ADD DUP6 PUSH2 0x139A JUMP JUMPDEST PUSH2 0x17D0 PUSH1 0x20 DUP4 ADD DUP5 PUSH2 0x17A1 JUMP JUMPDEST SWAP4 SWAP3 POP POP POP JUMP JUMPDEST PUSH0 PUSH2 0x17E1 DUP3 PUSH2 0x16DC JUMP JUMPDEST SWAP2 POP PUSH2 0x17EC DUP4 PUSH2 0x16DC JUMP JUMPDEST SWAP3 POP DUP3 DUP3 SUB SWAP1 POP PUSH1 0xFF DUP2 GT ISZERO PUSH2 0x1805 JUMPI PUSH2 0x1804 PUSH2 0x126C JUMP JUMPDEST JUMPDEST SWAP3 SWAP2 POP POP JUMP JUMPDEST PUSH32 0x4E487B7100000000000000000000000000000000000000000000000000000000 PUSH0 MSTORE PUSH1 0x21 PUSH1 0x4 MSTORE PUSH1 0x24 PUSH0 REVERT JUMPDEST PUSH0 PUSH1 0x40 DUP3 ADD SWAP1 POP PUSH2 0x184B PUSH0 DUP4 ADD DUP6 PUSH2 0x139A JUMP JUMPDEST PUSH2 0x1858 PUSH1 0x20 DUP4 ADD DUP5 PUSH2 0x1098 JUMP JUMPDEST SWAP4 SWAP3 POP POP POP JUMP JUMPDEST PUSH1 0x4 DUP2 LT PUSH2 0x1870 JUMPI PUSH2 0x186F PUSH2 0x180B JUMP JUMPDEST JUMPDEST POP JUMP JUMPDEST PUSH0 DUP2 SWAP1 POP PUSH2 0x1880 DUP3 PUSH2 0x185F JUMP JUMPDEST SWAP2 SWAP1 POP JUMP JUMPDEST PUSH0 PUSH2 0x188F DUP3 PUSH2 0x1873 JUMP JUMPDEST SWAP1 POP SWAP2 SWAP1 POP JUMP JUMPDEST PUSH2 0x189F DUP2 PUSH2 0x1885 JUMP JUMPDEST DUP3 MSTORE POP POP JUMP JUMPDEST PUSH0 PUSH1 0x40 DUP3 ADD SWAP1 POP PUSH2 0x18B8 PUSH0 DUP4 ADD DUP6 PUSH2 0x139A JUMP JUMPDEST PUSH2 0x18C5 PUSH1 0x20 DUP4 ADD DUP5 PUSH2 0x1896 JUMP JUMPDEST SWAP4 SWAP3 POP POP POP JUMP JUMPDEST PUSH0 PUSH2 0x18D6 DUP3 PUSH2 0x103A JUMP JUMPDEST SWAP2 POP PUSH2 0x18E1 DUP4 PUSH2 0x103A JUMP JUMPDEST SWAP3 POP DUP3 DUP3 SUB SWAP1 POP DUP2 DUP2 GT ISZERO PUSH2 0x18F9 JUMPI PUSH2 0x18F8 PUSH2 0x126C JUMP JUMPDEST JUMPDEST SWAP3 SWAP2 POP POP JUMP JUMPDEST PUSH0 PUSH1 0x40 DUP3 ADD SWAP1 POP PUSH2 0x1912 PUSH0 DUP4 ADD DUP6 PUSH2 0x158D JUMP JUMPDEST PUSH2 0x191F PUSH1 0x20 DUP4 ADD DUP5 PUSH2 0x1098 JUMP JUMPDEST SWAP4 SWAP3 POP POP POP JUMP JUMPDEST PUSH0 PUSH2 0x1930 DUP3 PUSH2 0x103A JUMP JUMPDEST SWAP2 POP PUSH2 0x193B DUP4 PUSH2 0x103A JUMP JUMPDEST SWAP3 POP DUP3 PUSH2 0x194B JUMPI PUSH2 0x194A PUSH2 0x16E8 JUMP JUMPDEST JUMPDEST DUP3 DUP3 MOD SWAP1 POP SWAP3 SWAP2 POP POP JUMP JUMPDEST PUSH0 PUSH2 0x1960 DUP3 PUSH2 0x103A JUMP JUMPDEST SWAP2 POP PUSH2 0x196B DUP4 PUSH2 0x103A JUMP JUMPDEST SWAP3 POP DUP3 DUP3 ADD SWAP1 POP DUP1 DUP3 GT ISZERO PUSH2 0x1983 JUMPI PUSH2 0x1982 PUSH2 0x126C JUMP JUMPDEST JUMPDEST SWAP3 SWAP2 POP POP JUMP INVALID LOG2 PUSH5 0x6970667358 0x22 SLT KECCAK256 0x29 0xF 0xAB PUSH15 0x73A31D880CB58E4D1CBF1D36F88266 0x2B 0x28 JUMPI CALLCODE ISZERO PUSH13 0xA446FF06FB018E64736F6C6343 STOP ADDMOD 0x1E STOP CALLER "
				},
				"gasEstimates": {
					"creation": {
						"codeDepositCost": "1318200",
						"executionCost": "infinite",
						"totalCost": "infinite"
					},
					"external": {
						"assignToken(uint256)": "infinite",
						"hit()": "infinite",
						"nextGameID()": "2470",
						"oracle()": "infinite",
						"placeBets(uint256)": "infinite",
						"stand()": "infinite",
						"vault()": "infinite"
					},
					"internal": {
						"addCardToHand(uint8,uint8,uint8)": "infinite",
						"dealInitialHands(struct GameToken storage pointer)": "infinite",
						"drawCard(struct GameToken storage pointer)": "infinite",
						"endGame(struct GameToken storage pointer,enum Result,uint256)": "infinite",
						"hasBlackJack(uint8)": "39",
						"shuffleDeck(struct GameToken storage pointer)": "infinite"
					}
				},
				"methodIdentifiers": {
					"assignToken(uint256)": "31a56b83",
					"hit()": "2ae3594a",
					"nextGameID()": "673ee37c",
					"oracle()": "7dc0d1d0",
					"placeBets(uint256)": "afab107e",
					"stand()": "c2897b10",
					"vault()": "fbfa77cf"
				}
			},
			"storageLayout": {
				"storage": [
					{
						"astId": 7,
						"contract": "contracts/BlackJackTable.sol:BlackJackTable",
						"label": "vault",
						"offset": 0,
						"slot": "0",
						"type": "t_contract(IVault)941"
					},
					{
						"astId": 10,
						"contract": "contracts/BlackJackTable.sol:BlackJackTable",
						"label": "oracle",
						"offset": 0,
						"slot": "1",
						"type": "t_contract(IOracle)931"
					},
					{
						"astId": 32,
						"contract": "contracts/BlackJackTable.sol:BlackJackTable",
						"label": "nextGameID",
						"offset": 0,
						"slot": "2",
						"type": "t_uint256"
					},
					{
						"astId": 45,
						"contract": "contracts/BlackJackTable.sol:BlackJackTable",
						"label": "activeGame",
						"offset": 0,
						"slot": "3",
						"type": "t_mapping(t_address,t_uint256)"
					},
					{
						"astId": 50,
						"contract": "contracts/BlackJackTable.sol:BlackJackTable",
						"label": "games",
						"offset": 0,
						"slot": "4",
						"type": "t_mapping(t_uint256,t_struct(GameToken)911_storage)"
					}
				],
				"types": {
					"t_address": {
						"encoding": "inplace",
						"label": "address",
						"numberOfBytes": "20"
					},
					"t_array(t_uint8)104_storage": {
						"base": "t_uint8",
						"encoding": "inplace",
						"label": "uint8[104]",
						"numberOfBytes": "128"
					},
					"t_bool": {
						"encoding": "inplace",
						"label": "bool",
						"numberOfBytes": "1"
					},
					"t_bytes32": {
						"encoding": "inplace",
						"label": "bytes32",
						"numberOfBytes": "32"
					},
					"t_contract(IOracle)931": {
						"encoding": "inplace",
						"label": "contract IOracle",
						"numberOfBytes": "20"
					},
					"t_contract(IVault)941": {
						"encoding": "inplace",
						"label": "contract IVault",
						"numberOfBytes": "20"
					},
					"t_enum(Result)864": {
						"encoding": "inplace",
						"label": "enum Result",
						"numberOfBytes": "1"
					},
					"t_mapping(t_address,t_uint256)": {
						"encoding": "mapping",
						"key": "t_address",
						"label": "mapping(address => uint256)",
						"numberOfBytes": "32",
						"value": "t_uint256"
					},
					"t_mapping(t_uint256,t_struct(GameToken)911_storage)": {
						"encoding": "mapping",
						"key": "t_uint256",
						"label": "mapping(uint256 => struct GameToken)",
						"numberOfBytes": "32",
						"value": "t_struct(GameToken)911_storage"
					},
					"t_struct(GameToken)911_storage": {
						"encoding": "inplace",
						"label": "struct GameToken",
						"members": [
							{
								"astId": 877,
								"contract": "contracts/BlackJackTable.sol:BlackJackTable",
								"label": "tokenID",
								"offset": 0,
								"slot": "0",
								"type": "t_uint256"
							},
							{
								"astId": 879,
								"contract": "contracts/BlackJackTable.sol:BlackJackTable",
								"label": "bet",
								"offset": 0,
								"slot": "1",
								"type": "t_uint256"
							},
							{
								"astId": 881,
								"contract": "contracts/BlackJackTable.sol:BlackJackTable",
								"label": "player",
								"offset": 0,
								"slot": "2",
								"type": "t_address"
							},
							{
								"astId": 883,
								"contract": "contracts/BlackJackTable.sol:BlackJackTable",
								"label": "playerSeed",
								"offset": 0,
								"slot": "3",
								"type": "t_uint256"
							},
							{
								"astId": 885,
								"contract": "contracts/BlackJackTable.sol:BlackJackTable",
								"label": "serverSeed",
								"offset": 0,
								"slot": "4",
								"type": "t_uint256"
							},
							{
								"astId": 887,
								"contract": "contracts/BlackJackTable.sol:BlackJackTable",
								"label": "finalSeed",
								"offset": 0,
								"slot": "5",
								"type": "t_bytes32"
							},
							{
								"astId": 889,
								"contract": "contracts/BlackJackTable.sol:BlackJackTable",
								"label": "drawIndex",
								"offset": 0,
								"slot": "6",
								"type": "t_uint8"
							},
							{
								"astId": 891,
								"contract": "contracts/BlackJackTable.sol:BlackJackTable",
								"label": "isActive",
								"offset": 1,
								"slot": "6",
								"type": "t_bool"
							},
							{
								"astId": 893,
								"contract": "contracts/BlackJackTable.sol:BlackJackTable",
								"label": "isCompleted",
								"offset": 2,
								"slot": "6",
								"type": "t_bool"
							},
							{
								"astId": 896,
								"contract": "contracts/BlackJackTable.sol:BlackJackTable",
								"label": "result",
								"offset": 3,
								"slot": "6",
								"type": "t_enum(Result)864"
							},
							{
								"astId": 900,
								"contract": "contracts/BlackJackTable.sol:BlackJackTable",
								"label": "deck",
								"offset": 0,
								"slot": "7",
								"type": "t_array(t_uint8)104_storage"
							},
							{
								"astId": 902,
								"contract": "contracts/BlackJackTable.sol:BlackJackTable",
								"label": "isShuffled",
								"offset": 0,
								"slot": "11",
								"type": "t_bool"
							},
							{
								"astId": 904,
								"contract": "contracts/BlackJackTable.sol:BlackJackTable",
								"label": "playerHandTotalValue",
								"offset": 1,
								"slot": "11",
								"type": "t_uint8"
							},
							{
								"astId": 906,
								"contract": "contracts/BlackJackTable.sol:BlackJackTable",
								"label": "playerAceCount",
								"offset": 2,
								"slot": "11",
								"type": "t_uint8"
							},
							{
								"astId": 908,
								"contract": "contracts/BlackJackTable.sol:BlackJackTable",
								"label": "dealerHandTotalValue",
								"offset": 3,
								"slot": "11",
								"type": "t_uint8"
							},
							{
								"astId": 910,
								"contract": "contracts/BlackJackTable.sol:BlackJackTable",
								"label": "dealerAceCount",
								"offset": 4,
								"slot": "11",
								"type": "t_uint8"
							}
						],
						"numberOfBytes": "384"
					},
					"t_uint256": {
						"encoding": "inplace",
						"label": "uint256",
						"numberOfBytes": "32"
					},
					"t_uint8": {
						"encoding": "inplace",
						"label": "uint8",
						"numberOfBytes": "1"
					}
				}
			},
			"userdoc": {
				"kind": "user",
				"methods": {},
				"version": 1
			}
		}
	}
}