{
	"contracts/BlackJackTable.sol": {
		"BlackJackTable": {
			"abi": [
				{
					"inputs": [
						{
							"internalType": "address",
							"name": "_vault",
							"type": "address"
						},
						{
							"internalType": "address",
							"name": "_oracle",
							"type": "address"
						}
					],
					"stateMutability": "nonpayable",
					"type": "constructor"
				},
				{
					"anonymous": false,
					"inputs": [
						{
							"indexed": false,
							"internalType": "uint256",
							"name": "tokenID",
							"type": "uint256"
						},
						{
							"indexed": false,
							"internalType": "address",
							"name": "player",
							"type": "address"
						},
						{
							"indexed": false,
							"internalType": "uint256",
							"name": "bet",
							"type": "uint256"
						},
						{
							"indexed": false,
							"internalType": "bytes32",
							"name": "finalSeed",
							"type": "bytes32"
						}
					],
					"name": "BetPlaced",
					"type": "event"
				},
				{
					"anonymous": false,
					"inputs": [
						{
							"indexed": false,
							"internalType": "address",
							"name": "player",
							"type": "address"
						},
						{
							"indexed": false,
							"internalType": "uint8",
							"name": "card",
							"type": "uint8"
						}
					],
					"name": "CardDrawn",
					"type": "event"
				},
				{
					"anonymous": false,
					"inputs": [
						{
							"indexed": false,
							"internalType": "uint256",
							"name": "tokenID",
							"type": "uint256"
						},
						{
							"indexed": false,
							"internalType": "address",
							"name": "player",
							"type": "address"
						}
					],
					"name": "GameCreated",
					"type": "event"
				},
				{
					"anonymous": false,
					"inputs": [
						{
							"indexed": false,
							"internalType": "address",
							"name": "player",
							"type": "address"
						},
						{
							"indexed": false,
							"internalType": "enum Result",
							"name": "result",
							"type": "uint8"
						}
					],
					"name": "GameEnded",
					"type": "event"
				},
				{
					"inputs": [
						{
							"internalType": "uint256",
							"name": "_playerSeed",
							"type": "uint256"
						}
					],
					"name": "assignToken",
					"outputs": [],
					"stateMutability": "nonpayable",
					"type": "function"
				},
				{
					"inputs": [],
					"name": "dealInitialHands",
					"outputs": [],
					"stateMutability": "nonpayable",
					"type": "function"
				},
				{
					"inputs": [],
					"name": "hitPlayer",
					"outputs": [],
					"stateMutability": "nonpayable",
					"type": "function"
				},
				{
					"inputs": [],
					"name": "nextGameID",
					"outputs": [
						{
							"internalType": "uint256",
							"name": "",
							"type": "uint256"
						}
					],
					"stateMutability": "view",
					"type": "function"
				},
				{
					"inputs": [],
					"name": "oracle",
					"outputs": [
						{
							"internalType": "contract IOracle",
							"name": "",
							"type": "address"
						}
					],
					"stateMutability": "view",
					"type": "function"
				},
				{
					"inputs": [
						{
							"internalType": "uint256",
							"name": "bet",
							"type": "uint256"
						}
					],
					"name": "placeBets",
					"outputs": [],
					"stateMutability": "nonpayable",
					"type": "function"
				},
				{
					"inputs": [],
					"name": "stand",
					"outputs": [],
					"stateMutability": "nonpayable",
					"type": "function"
				},
				{
					"inputs": [],
					"name": "vault",
					"outputs": [
						{
							"internalType": "contract IVault",
							"name": "",
							"type": "address"
						}
					],
					"stateMutability": "view",
					"type": "function"
				}
			],
			"devdoc": {
				"kind": "dev",
				"methods": {},
				"version": 1
			},
			"evm": {
				"assembly": "    /* \"contracts/BlackJackTable.sol\":190:8285  contract BlackJackTable {... */\n  mstore(0x40, 0x80)\n    /* \"contracts/BlackJackTable.sol\":334:453  constructor(address _vault, address _oracle) {... */\n  callvalue\n  dup1\n  iszero\n  tag_1\n  jumpi\n  revert(0x00, 0x00)\ntag_1:\n  pop\n  mload(0x40)\n  sub(codesize, bytecodeSize)\n  dup1\n  bytecodeSize\n  dup4\n  codecopy\n  dup2\n  dup2\n  add\n  0x40\n  mstore\n  dup2\n  add\n  swap1\n  tag_2\n  swap2\n  swap1\n  tag_3\n  jump\t// in\ntag_2:\n    /* \"contracts/BlackJackTable.sol\":404:410  _vault */\n  dup2\n    /* \"contracts/BlackJackTable.sol\":389:394  vault */\n  0x00\n  0x00\n    /* \"contracts/BlackJackTable.sol\":389:411  vault = IVault(_vault) */\n  0x0100\n  exp\n  dup2\n  sload\n  dup2\n  0xffffffffffffffffffffffffffffffffffffffff\n  mul\n  not\n  and\n  swap1\n  dup4\n  0xffffffffffffffffffffffffffffffffffffffff\n  and\n  mul\n  or\n  swap1\n  sstore\n  pop\n    /* \"contracts/BlackJackTable.sol\":438:445  _oracle */\n  dup1\n    /* \"contracts/BlackJackTable.sol\":421:427  oracle */\n  0x01\n  0x00\n    /* \"contracts/BlackJackTable.sol\":421:446  oracle = IOracle(_oracle) */\n  0x0100\n  exp\n  dup2\n  sload\n  dup2\n  0xffffffffffffffffffffffffffffffffffffffff\n  mul\n  not\n  and\n  swap1\n  dup4\n  0xffffffffffffffffffffffffffffffffffffffff\n  and\n  mul\n  or\n  swap1\n  sstore\n  pop\n    /* \"contracts/BlackJackTable.sol\":334:453  constructor(address _vault, address _oracle) {... */\n  pop\n  pop\n    /* \"contracts/BlackJackTable.sol\":190:8285  contract BlackJackTable {... */\n  jump(tag_6)\n    /* \"#utility.yul\":88:205   */\ntag_8:\n    /* \"#utility.yul\":197:198   */\n  0x00\n    /* \"#utility.yul\":194:195   */\n  0x00\n    /* \"#utility.yul\":187:199   */\n  revert\n    /* \"#utility.yul\":334:460   */\ntag_10:\n    /* \"#utility.yul\":371:378   */\n  0x00\n    /* \"#utility.yul\":411:453   */\n  0xffffffffffffffffffffffffffffffffffffffff\n    /* \"#utility.yul\":404:409   */\n  dup3\n    /* \"#utility.yul\":400:454   */\n  and\n    /* \"#utility.yul\":389:454   */\n  swap1\n  pop\n    /* \"#utility.yul\":334:460   */\n  swap2\n  swap1\n  pop\n  jump\t// out\n    /* \"#utility.yul\":466:562   */\ntag_11:\n    /* \"#utility.yul\":503:510   */\n  0x00\n    /* \"#utility.yul\":532:556   */\n  tag_20\n    /* \"#utility.yul\":550:555   */\n  dup3\n    /* \"#utility.yul\":532:556   */\n  tag_10\n  jump\t// in\ntag_20:\n    /* \"#utility.yul\":521:556   */\n  swap1\n  pop\n    /* \"#utility.yul\":466:562   */\n  swap2\n  swap1\n  pop\n  jump\t// out\n    /* \"#utility.yul\":568:690   */\ntag_12:\n    /* \"#utility.yul\":641:665   */\n  tag_22\n    /* \"#utility.yul\":659:664   */\n  dup2\n    /* \"#utility.yul\":641:665   */\n  tag_11\n  jump\t// in\ntag_22:\n    /* \"#utility.yul\":634:639   */\n  dup2\n    /* \"#utility.yul\":631:666   */\n  eq\n    /* \"#utility.yul\":621:684   */\n  tag_23\n  jumpi\n    /* \"#utility.yul\":680:681   */\n  0x00\n    /* \"#utility.yul\":677:678   */\n  0x00\n    /* \"#utility.yul\":670:682   */\n  revert\n    /* \"#utility.yul\":621:684   */\ntag_23:\n    /* \"#utility.yul\":568:690   */\n  pop\n  jump\t// out\n    /* \"#utility.yul\":696:839   */\ntag_13:\n    /* \"#utility.yul\":753:758   */\n  0x00\n    /* \"#utility.yul\":784:790   */\n  dup2\n    /* \"#utility.yul\":778:791   */\n  mload\n    /* \"#utility.yul\":769:791   */\n  swap1\n  pop\n    /* \"#utility.yul\":800:833   */\n  tag_25\n    /* \"#utility.yul\":827:832   */\n  dup2\n    /* \"#utility.yul\":800:833   */\n  tag_12\n  jump\t// in\ntag_25:\n    /* \"#utility.yul\":696:839   */\n  swap3\n  swap2\n  pop\n  pop\n  jump\t// out\n    /* \"#utility.yul\":845:1352   */\ntag_3:\n    /* \"#utility.yul\":924:930   */\n  0x00\n    /* \"#utility.yul\":932:938   */\n  0x00\n    /* \"#utility.yul\":981:983   */\n  0x40\n    /* \"#utility.yul\":969:978   */\n  dup4\n    /* \"#utility.yul\":960:967   */\n  dup6\n    /* \"#utility.yul\":956:979   */\n  sub\n    /* \"#utility.yul\":952:984   */\n  slt\n    /* \"#utility.yul\":949:1068   */\n  iszero\n  tag_27\n  jumpi\n    /* \"#utility.yul\":987:1066   */\n  tag_28\n  tag_8\n  jump\t// in\ntag_28:\n    /* \"#utility.yul\":949:1068   */\ntag_27:\n    /* \"#utility.yul\":1107:1108   */\n  0x00\n    /* \"#utility.yul\":1132:1196   */\n  tag_29\n    /* \"#utility.yul\":1188:1195   */\n  dup6\n    /* \"#utility.yul\":1179:1185   */\n  dup3\n    /* \"#utility.yul\":1168:1177   */\n  dup7\n    /* \"#utility.yul\":1164:1186   */\n  add\n    /* \"#utility.yul\":1132:1196   */\n  tag_13\n  jump\t// in\ntag_29:\n    /* \"#utility.yul\":1122:1196   */\n  swap3\n  pop\n    /* \"#utility.yul\":1078:1206   */\n  pop\n    /* \"#utility.yul\":1245:1247   */\n  0x20\n    /* \"#utility.yul\":1271:1335   */\n  tag_30\n    /* \"#utility.yul\":1327:1334   */\n  dup6\n    /* \"#utility.yul\":1318:1324   */\n  dup3\n    /* \"#utility.yul\":1307:1316   */\n  dup7\n    /* \"#utility.yul\":1303:1325   */\n  add\n    /* \"#utility.yul\":1271:1335   */\n  tag_13\n  jump\t// in\ntag_30:\n    /* \"#utility.yul\":1261:1335   */\n  swap2\n  pop\n    /* \"#utility.yul\":1216:1345   */\n  pop\n    /* \"#utility.yul\":845:1352   */\n  swap3\n  pop\n  swap3\n  swap1\n  pop\n  jump\t// out\n    /* \"contracts/BlackJackTable.sol\":190:8285  contract BlackJackTable {... */\ntag_6:\n  dataSize(sub_0)\n  dup1\n  dataOffset(sub_0)\n  0x00\n  codecopy\n  0x00\n  return\nstop\n\nsub_0: assembly {\n        /* \"contracts/BlackJackTable.sol\":190:8285  contract BlackJackTable {... */\n      mstore(0x40, 0x80)\n      callvalue\n      dup1\n      iszero\n      tag_1\n      jumpi\n      revert(0x00, 0x00)\n    tag_1:\n      pop\n      jumpi(tag_2, lt(calldatasize, 0x04))\n      shr(0xe0, calldataload(0x00))\n      dup1\n      0xafab107e\n      gt\n      tag_11\n      jumpi\n      dup1\n      0xafab107e\n      eq\n      tag_7\n      jumpi\n      dup1\n      0xc2897b10\n      eq\n      tag_8\n      jumpi\n      dup1\n      0xdae10ed5\n      eq\n      tag_9\n      jumpi\n      dup1\n      0xfbfa77cf\n      eq\n      tag_10\n      jumpi\n      jump(tag_2)\n    tag_11:\n      dup1\n      0x31a56b83\n      eq\n      tag_3\n      jumpi\n      dup1\n      0x566595b2\n      eq\n      tag_4\n      jumpi\n      dup1\n      0x673ee37c\n      eq\n      tag_5\n      jumpi\n      dup1\n      0x7dc0d1d0\n      eq\n      tag_6\n      jumpi\n    tag_2:\n      revert(0x00, 0x00)\n        /* \"contracts/BlackJackTable.sol\":1137:1810  function assignToken(uint256 _playerSeed) external {... */\n    tag_3:\n      tag_12\n      0x04\n      dup1\n      calldatasize\n      sub\n      dup2\n      add\n      swap1\n      tag_13\n      swap2\n      swap1\n      tag_14\n      jump\t// in\n    tag_13:\n      tag_15\n      jump\t// in\n    tag_12:\n      stop\n        /* \"contracts/BlackJackTable.sol\":4551:4916  function dealInitialHands() external {... */\n    tag_4:\n      tag_16\n      tag_17\n      jump\t// in\n    tag_16:\n      stop\n        /* \"contracts/BlackJackTable.sol\":502:527  uint256 public nextGameID */\n    tag_5:\n      tag_18\n      tag_19\n      jump\t// in\n    tag_18:\n      mload(0x40)\n      tag_20\n      swap2\n      swap1\n      tag_21\n      jump\t// in\n    tag_20:\n      mload(0x40)\n      dup1\n      swap2\n      sub\n      swap1\n      return\n        /* \"contracts/BlackJackTable.sol\":306:327  IOracle public oracle */\n    tag_6:\n      tag_22\n      tag_23\n      jump\t// in\n    tag_22:\n      mload(0x40)\n      tag_24\n      swap2\n      swap1\n      tag_25\n      jump\t// in\n    tag_24:\n      mload(0x40)\n      dup1\n      swap2\n      sub\n      swap1\n      return\n        /* \"contracts/BlackJackTable.sol\":1816:2598  function placeBets(uint256 bet) external {... */\n    tag_7:\n      tag_26\n      0x04\n      dup1\n      calldatasize\n      sub\n      dup2\n      add\n      swap1\n      tag_27\n      swap2\n      swap1\n      tag_14\n      jump\t// in\n    tag_27:\n      tag_28\n      jump\t// in\n    tag_26:\n      stop\n        /* \"contracts/BlackJackTable.sol\":7468:7891  function stand() external {... */\n    tag_8:\n      tag_29\n      tag_30\n      jump\t// in\n    tag_29:\n      stop\n        /* \"contracts/BlackJackTable.sol\":6463:6957  function hitPlayer() external {... */\n    tag_9:\n      tag_31\n      tag_32\n      jump\t// in\n    tag_31:\n      stop\n        /* \"contracts/BlackJackTable.sol\":281:300  IVault public vault */\n    tag_10:\n      tag_33\n      tag_34\n      jump\t// in\n    tag_33:\n      mload(0x40)\n      tag_35\n      swap2\n      swap1\n      tag_36\n      jump\t// in\n    tag_35:\n      mload(0x40)\n      dup1\n      swap2\n      sub\n      swap1\n      return\n        /* \"contracts/BlackJackTable.sol\":1137:1810  function assignToken(uint256 _playerSeed) external {... */\n    tag_15:\n        /* \"contracts/BlackJackTable.sol\":1232:1233  0 */\n      0x00\n        /* \"contracts/BlackJackTable.sol\":1206:1216  activeGame */\n      0x03\n        /* \"contracts/BlackJackTable.sol\":1206:1228  activeGame[msg.sender] */\n      0x00\n        /* \"contracts/BlackJackTable.sol\":1217:1227  msg.sender */\n      caller\n        /* \"contracts/BlackJackTable.sol\":1206:1228  activeGame[msg.sender] */\n      0xffffffffffffffffffffffffffffffffffffffff\n      and\n      0xffffffffffffffffffffffffffffffffffffffff\n      and\n      dup2\n      mstore\n      0x20\n      add\n      swap1\n      dup2\n      mstore\n      0x20\n      add\n      0x00\n      keccak256\n      sload\n        /* \"contracts/BlackJackTable.sol\":1206:1233  activeGame[msg.sender] == 0 */\n      eq\n        /* \"contracts/BlackJackTable.sol\":1198:1262  require(activeGame[msg.sender] == 0, \"Game already in progress\") */\n      tag_38\n      jumpi\n      mload(0x40)\n      0x08c379a000000000000000000000000000000000000000000000000000000000\n      dup2\n      mstore\n      0x04\n      add\n      tag_39\n      swap1\n      tag_40\n      jump\t// in\n    tag_39:\n      mload(0x40)\n      dup1\n      swap2\n      sub\n      swap1\n      revert\n    tag_38:\n        /* \"contracts/BlackJackTable.sol\":1272:1286  uint256 gameID */\n      0x00\n        /* \"contracts/BlackJackTable.sol\":1289:1299  nextGameID */\n      0x02\n      0x00\n        /* \"contracts/BlackJackTable.sol\":1289:1301  nextGameID++ */\n      dup2\n      sload\n      dup1\n      swap3\n      swap2\n      swap1\n      tag_41\n      swap1\n      tag_42\n      jump\t// in\n    tag_41:\n      swap2\n      swap1\n      pop\n      sstore\n        /* \"contracts/BlackJackTable.sol\":1272:1301  uint256 gameID = nextGameID++ */\n      swap1\n      pop\n        /* \"contracts/BlackJackTable.sol\":1336:1342  gameID */\n      dup1\n        /* \"contracts/BlackJackTable.sol\":1311:1321  activeGame */\n      0x03\n        /* \"contracts/BlackJackTable.sol\":1311:1333  activeGame[msg.sender] */\n      0x00\n        /* \"contracts/BlackJackTable.sol\":1322:1332  msg.sender */\n      caller\n        /* \"contracts/BlackJackTable.sol\":1311:1333  activeGame[msg.sender] */\n      0xffffffffffffffffffffffffffffffffffffffff\n      and\n      0xffffffffffffffffffffffffffffffffffffffff\n      and\n      dup2\n      mstore\n      0x20\n      add\n      swap1\n      dup2\n      mstore\n      0x20\n      add\n      0x00\n      keccak256\n        /* \"contracts/BlackJackTable.sol\":1311:1342  activeGame[msg.sender] = gameID */\n      dup2\n      swap1\n      sstore\n      pop\n        /* \"contracts/BlackJackTable.sol\":1353:1376  GameToken storage token */\n      0x00\n        /* \"contracts/BlackJackTable.sol\":1379:1384  games */\n      0x04\n        /* \"contracts/BlackJackTable.sol\":1379:1392  games[gameID] */\n      0x00\n        /* \"contracts/BlackJackTable.sol\":1385:1391  gameID */\n      dup4\n        /* \"contracts/BlackJackTable.sol\":1379:1392  games[gameID] */\n      dup2\n      mstore\n      0x20\n      add\n      swap1\n      dup2\n      mstore\n      0x20\n      add\n      0x00\n      keccak256\n        /* \"contracts/BlackJackTable.sol\":1353:1392  GameToken storage token = games[gameID] */\n      swap1\n      pop\n        /* \"contracts/BlackJackTable.sol\":1465:1471  gameID */\n      dup2\n        /* \"contracts/BlackJackTable.sol\":1449:1454  token */\n      dup2\n        /* \"contracts/BlackJackTable.sol\":1449:1462  token.tokenID */\n      0x00\n      add\n        /* \"contracts/BlackJackTable.sol\":1449:1471  token.tokenID = gameID */\n      dup2\n      swap1\n      sstore\n      pop\n        /* \"contracts/BlackJackTable.sol\":1496:1506  msg.sender */\n      caller\n        /* \"contracts/BlackJackTable.sol\":1481:1486  token */\n      dup2\n        /* \"contracts/BlackJackTable.sol\":1481:1493  token.player */\n      0x02\n      add\n      0x00\n        /* \"contracts/BlackJackTable.sol\":1481:1506  token.player = msg.sender */\n      0x0100\n      exp\n      dup2\n      sload\n      dup2\n      0xffffffffffffffffffffffffffffffffffffffff\n      mul\n      not\n      and\n      swap1\n      dup4\n      0xffffffffffffffffffffffffffffffffffffffff\n      and\n      mul\n      or\n      swap1\n      sstore\n      pop\n        /* \"contracts/BlackJackTable.sol\":1535:1546  _playerSeed */\n      dup3\n        /* \"contracts/BlackJackTable.sol\":1516:1521  token */\n      dup2\n        /* \"contracts/BlackJackTable.sol\":1516:1532  token.playerSeed */\n      0x03\n      add\n        /* \"contracts/BlackJackTable.sol\":1516:1546  token.playerSeed = _playerSeed */\n      dup2\n      swap1\n      sstore\n      pop\n        /* \"contracts/BlackJackTable.sol\":1574:1575  0 */\n      0x00\n        /* \"contracts/BlackJackTable.sol\":1556:1561  token */\n      dup2\n        /* \"contracts/BlackJackTable.sol\":1556:1571  token.drawIndex */\n      0x06\n      add\n      0x00\n        /* \"contracts/BlackJackTable.sol\":1556:1575  token.drawIndex = 0 */\n      0x0100\n      exp\n      dup2\n      sload\n      dup2\n      0xff\n      mul\n      not\n      and\n      swap1\n      dup4\n      0xff\n      and\n      mul\n      or\n      swap1\n      sstore\n      pop\n        /* \"contracts/BlackJackTable.sol\":1604:1609  false */\n      0x00\n        /* \"contracts/BlackJackTable.sol\":1585:1590  token */\n      dup2\n        /* \"contracts/BlackJackTable.sol\":1585:1601  token.isShuffled */\n      0x0b\n      add\n      0x00\n        /* \"contracts/BlackJackTable.sol\":1585:1609  token.isShuffled = false */\n      0x0100\n      exp\n      dup2\n      sload\n      dup2\n      0xff\n      mul\n      not\n      and\n      swap1\n      dup4\n      iszero\n      iszero\n      mul\n      or\n      swap1\n      sstore\n      pop\n        /* \"contracts/BlackJackTable.sol\":1637:1646  State.BET */\n      0x01\n        /* \"contracts/BlackJackTable.sol\":1619:1624  token */\n      dup2\n        /* \"contracts/BlackJackTable.sol\":1619:1634  token.gameState */\n      0x06\n      add\n      0x01\n        /* \"contracts/BlackJackTable.sol\":1619:1646  token.gameState = State.BET */\n      0x0100\n      exp\n      dup2\n      sload\n      dup2\n      0xff\n      mul\n      not\n      and\n      swap1\n      dup4\n      0x04\n      dup2\n      gt\n      iszero\n      tag_43\n      jumpi\n      tag_44\n      tag_45\n      jump\t// in\n    tag_44:\n    tag_43:\n      mul\n      or\n      swap1\n      sstore\n      pop\n        /* \"contracts/BlackJackTable.sol\":1685:1686  0 */\n      0x00\n        /* \"contracts/BlackJackTable.sol\":1656:1661  token */\n      dup2\n        /* \"contracts/BlackJackTable.sol\":1656:1682  token.playerHandTotalValue */\n      0x0b\n      add\n      0x01\n        /* \"contracts/BlackJackTable.sol\":1656:1686  token.playerHandTotalValue = 0 */\n      0x0100\n      exp\n      dup2\n      sload\n      dup2\n      0xff\n      mul\n      not\n      and\n      swap1\n      dup4\n      0xff\n      and\n      mul\n      or\n      swap1\n      sstore\n      pop\n        /* \"contracts/BlackJackTable.sol\":1725:1726  0 */\n      0x00\n        /* \"contracts/BlackJackTable.sol\":1696:1701  token */\n      dup2\n        /* \"contracts/BlackJackTable.sol\":1696:1722  token.dealerHandTotalValue */\n      0x0b\n      add\n      0x02\n        /* \"contracts/BlackJackTable.sol\":1696:1726  token.dealerHandTotalValue = 0 */\n      0x0100\n      exp\n      dup2\n      sload\n      dup2\n      0xff\n      mul\n      not\n      and\n      swap1\n      dup4\n      0xff\n      and\n      mul\n      or\n      swap1\n      sstore\n      pop\n        /* \"contracts/BlackJackTable.sol\":1748:1749  0 */\n      0x00\n        /* \"contracts/BlackJackTable.sol\":1736:1741  token */\n      dup2\n        /* \"contracts/BlackJackTable.sol\":1736:1745  token.bet */\n      0x01\n      add\n        /* \"contracts/BlackJackTable.sol\":1736:1749  token.bet = 0 */\n      dup2\n      swap1\n      sstore\n      pop\n        /* \"contracts/BlackJackTable.sol\":1765:1803  GameCreated(token.tokenID, msg.sender) */\n      0xc3e0f84839dc888c892a013d10c8f9d6dc05a21a879d0ce468ca558013e9121c\n        /* \"contracts/BlackJackTable.sol\":1777:1782  token */\n      dup2\n        /* \"contracts/BlackJackTable.sol\":1777:1790  token.tokenID */\n      0x00\n      add\n      sload\n        /* \"contracts/BlackJackTable.sol\":1792:1802  msg.sender */\n      caller\n        /* \"contracts/BlackJackTable.sol\":1765:1803  GameCreated(token.tokenID, msg.sender) */\n      mload(0x40)\n      tag_46\n      swap3\n      swap2\n      swap1\n      tag_47\n      jump\t// in\n    tag_46:\n      mload(0x40)\n      dup1\n      swap2\n      sub\n      swap1\n      log1\n        /* \"contracts/BlackJackTable.sol\":1188:1810  {... */\n      pop\n      pop\n        /* \"contracts/BlackJackTable.sol\":1137:1810  function assignToken(uint256 _playerSeed) external {... */\n      pop\n      jump\t// out\n        /* \"contracts/BlackJackTable.sol\":4551:4916  function dealInitialHands() external {... */\n    tag_17:\n        /* \"contracts/BlackJackTable.sol\":4598:4612  uint256 gameID */\n      0x00\n        /* \"contracts/BlackJackTable.sol\":4615:4625  activeGame */\n      0x03\n        /* \"contracts/BlackJackTable.sol\":4615:4637  activeGame[msg.sender] */\n      0x00\n        /* \"contracts/BlackJackTable.sol\":4626:4636  msg.sender */\n      caller\n        /* \"contracts/BlackJackTable.sol\":4615:4637  activeGame[msg.sender] */\n      0xffffffffffffffffffffffffffffffffffffffff\n      and\n      0xffffffffffffffffffffffffffffffffffffffff\n      and\n      dup2\n      mstore\n      0x20\n      add\n      swap1\n      dup2\n      mstore\n      0x20\n      add\n      0x00\n      keccak256\n      sload\n        /* \"contracts/BlackJackTable.sol\":4598:4637  uint256 gameID = activeGame[msg.sender] */\n      swap1\n      pop\n        /* \"contracts/BlackJackTable.sol\":4647:4670  GameToken storage token */\n      0x00\n        /* \"contracts/BlackJackTable.sol\":4673:4678  games */\n      0x04\n        /* \"contracts/BlackJackTable.sol\":4673:4686  games[gameID] */\n      0x00\n        /* \"contracts/BlackJackTable.sol\":4679:4685  gameID */\n      dup4\n        /* \"contracts/BlackJackTable.sol\":4673:4686  games[gameID] */\n      dup2\n      mstore\n      0x20\n      add\n      swap1\n      dup2\n      mstore\n      0x20\n      add\n      0x00\n      keccak256\n        /* \"contracts/BlackJackTable.sol\":4647:4686  GameToken storage token = games[gameID] */\n      swap1\n      pop\n        /* \"contracts/BlackJackTable.sol\":4704:4709  token */\n      dup1\n        /* \"contracts/BlackJackTable.sol\":4704:4720  token.isShuffled */\n      0x0b\n      add\n      0x00\n      swap1\n      sload\n      swap1\n      0x0100\n      exp\n      swap1\n      div\n      0xff\n      and\n        /* \"contracts/BlackJackTable.sol\":4696:4751  require(token.isShuffled, \"Deck has not been shuffled\") */\n      tag_49\n      jumpi\n      mload(0x40)\n      0x08c379a000000000000000000000000000000000000000000000000000000000\n      dup2\n      mstore\n      0x04\n      add\n      tag_50\n      swap1\n      tag_51\n      jump\t// in\n    tag_50:\n      mload(0x40)\n      dup1\n      swap2\n      sub\n      swap1\n      revert\n    tag_49:\n        /* \"contracts/BlackJackTable.sol\":4801:4818  State.DEALER_TURN */\n      0x02\n        /* \"contracts/BlackJackTable.sol\":4782:4818  token.gameState == State.DEALER_TURN */\n      0x04\n      dup2\n      gt\n      iszero\n      tag_52\n      jumpi\n      tag_53\n      tag_45\n      jump\t// in\n    tag_53:\n    tag_52:\n        /* \"contracts/BlackJackTable.sol\":4782:4787  token */\n      dup2\n        /* \"contracts/BlackJackTable.sol\":4782:4797  token.gameState */\n      0x06\n      add\n      0x01\n      swap1\n      sload\n      swap1\n      0x0100\n      exp\n      swap1\n      div\n      0xff\n      and\n        /* \"contracts/BlackJackTable.sol\":4782:4818  token.gameState == State.DEALER_TURN */\n      0x04\n      dup2\n      gt\n      iszero\n      tag_54\n      jumpi\n      tag_55\n      tag_45\n      jump\t// in\n    tag_55:\n    tag_54:\n      eq\n        /* \"contracts/BlackJackTable.sol\":4761:4874  require(... */\n      tag_56\n      jumpi\n      mload(0x40)\n      0x08c379a000000000000000000000000000000000000000000000000000000000\n      dup2\n      mstore\n      0x04\n      add\n      tag_57\n      swap1\n      tag_58\n      jump\t// in\n    tag_57:\n      mload(0x40)\n      dup1\n      swap2\n      sub\n      swap1\n      revert\n    tag_56:\n        /* \"contracts/BlackJackTable.sol\":4885:4909  _dealInitialHands(token) */\n      tag_59\n        /* \"contracts/BlackJackTable.sol\":4903:4908  token */\n      dup2\n        /* \"contracts/BlackJackTable.sol\":4885:4902  _dealInitialHands */\n      tag_60\n        /* \"contracts/BlackJackTable.sol\":4885:4909  _dealInitialHands(token) */\n      jump\t// in\n    tag_59:\n        /* \"contracts/BlackJackTable.sol\":4588:4916  {... */\n      pop\n      pop\n        /* \"contracts/BlackJackTable.sol\":4551:4916  function dealInitialHands() external {... */\n      jump\t// out\n        /* \"contracts/BlackJackTable.sol\":502:527  uint256 public nextGameID */\n    tag_19:\n      sload(0x02)\n      dup2\n      jump\t// out\n        /* \"contracts/BlackJackTable.sol\":306:327  IOracle public oracle */\n    tag_23:\n      0x01\n      0x00\n      swap1\n      sload\n      swap1\n      0x0100\n      exp\n      swap1\n      div\n      0xffffffffffffffffffffffffffffffffffffffff\n      and\n      dup2\n      jump\t// out\n        /* \"contracts/BlackJackTable.sol\":1816:2598  function placeBets(uint256 bet) external {... */\n    tag_28:\n        /* \"contracts/BlackJackTable.sol\":575:583  100 gwei */\n      0x174876e800\n        /* \"contracts/BlackJackTable.sol\":1875:1878  bet */\n      dup2\n        /* \"contracts/BlackJackTable.sol\":1875:1890  bet >= lowLimit */\n      lt\n      iszero\n        /* \"contracts/BlackJackTable.sol\":1875:1910  bet >= lowLimit && bet <= highLimit */\n      dup1\n      iszero\n      tag_62\n      jumpi\n      pop\n        /* \"contracts/BlackJackTable.sol\":618:629  0.001 ether */\n      0x038d7ea4c68000\n        /* \"contracts/BlackJackTable.sol\":1894:1897  bet */\n      dup2\n        /* \"contracts/BlackJackTable.sol\":1894:1910  bet <= highLimit */\n      gt\n      iszero\n        /* \"contracts/BlackJackTable.sol\":1875:1910  bet >= lowLimit && bet <= highLimit */\n    tag_62:\n        /* \"contracts/BlackJackTable.sol\":1867:1932  require(bet >= lowLimit && bet <= highLimit, \"Bet out of range.\") */\n      tag_63\n      jumpi\n      mload(0x40)\n      0x08c379a000000000000000000000000000000000000000000000000000000000\n      dup2\n      mstore\n      0x04\n      add\n      tag_64\n      swap1\n      tag_65\n      jump\t// in\n    tag_64:\n      mload(0x40)\n      dup1\n      swap2\n      sub\n      swap1\n      revert\n    tag_63:\n        /* \"contracts/BlackJackTable.sol\":1977:1978  0 */\n      0x00\n        /* \"contracts/BlackJackTable.sol\":1951:1961  activeGame */\n      0x03\n        /* \"contracts/BlackJackTable.sol\":1951:1973  activeGame[msg.sender] */\n      0x00\n        /* \"contracts/BlackJackTable.sol\":1962:1972  msg.sender */\n      caller\n        /* \"contracts/BlackJackTable.sol\":1951:1973  activeGame[msg.sender] */\n      0xffffffffffffffffffffffffffffffffffffffff\n      and\n      0xffffffffffffffffffffffffffffffffffffffff\n      and\n      dup2\n      mstore\n      0x20\n      add\n      swap1\n      dup2\n      mstore\n      0x20\n      add\n      0x00\n      keccak256\n      sload\n        /* \"contracts/BlackJackTable.sol\":1951:1978  activeGame[msg.sender] != 0 */\n      sub\n        /* \"contracts/BlackJackTable.sol\":1943:2007  require(activeGame[msg.sender] != 0, \"No active game currently\") */\n      tag_66\n      jumpi\n      mload(0x40)\n      0x08c379a000000000000000000000000000000000000000000000000000000000\n      dup2\n      mstore\n      0x04\n      add\n      tag_67\n      swap1\n      tag_68\n      jump\t// in\n    tag_67:\n      mload(0x40)\n      dup1\n      swap2\n      sub\n      swap1\n      revert\n    tag_66:\n        /* \"contracts/BlackJackTable.sol\":2018:2032  uint256 gameID */\n      0x00\n        /* \"contracts/BlackJackTable.sol\":2035:2045  activeGame */\n      0x03\n        /* \"contracts/BlackJackTable.sol\":2035:2057  activeGame[msg.sender] */\n      0x00\n        /* \"contracts/BlackJackTable.sol\":2046:2056  msg.sender */\n      caller\n        /* \"contracts/BlackJackTable.sol\":2035:2057  activeGame[msg.sender] */\n      0xffffffffffffffffffffffffffffffffffffffff\n      and\n      0xffffffffffffffffffffffffffffffffffffffff\n      and\n      dup2\n      mstore\n      0x20\n      add\n      swap1\n      dup2\n      mstore\n      0x20\n      add\n      0x00\n      keccak256\n      sload\n        /* \"contracts/BlackJackTable.sol\":2018:2057  uint256 gameID = activeGame[msg.sender] */\n      swap1\n      pop\n        /* \"contracts/BlackJackTable.sol\":2067:2090  GameToken storage token */\n      0x00\n        /* \"contracts/BlackJackTable.sol\":2093:2098  games */\n      0x04\n        /* \"contracts/BlackJackTable.sol\":2093:2106  games[gameID] */\n      0x00\n        /* \"contracts/BlackJackTable.sol\":2099:2105  gameID */\n      dup4\n        /* \"contracts/BlackJackTable.sol\":2093:2106  games[gameID] */\n      dup2\n      mstore\n      0x20\n      add\n      swap1\n      dup2\n      mstore\n      0x20\n      add\n      0x00\n      keccak256\n        /* \"contracts/BlackJackTable.sol\":2067:2106  GameToken storage token = games[gameID] */\n      swap1\n      pop\n        /* \"contracts/BlackJackTable.sol\":2138:2139  0 */\n      0x00\n        /* \"contracts/BlackJackTable.sol\":2125:2130  token */\n      dup2\n        /* \"contracts/BlackJackTable.sol\":2125:2134  token.bet */\n      0x01\n      add\n      sload\n        /* \"contracts/BlackJackTable.sol\":2125:2139  token.bet == 0 */\n      eq\n        /* \"contracts/BlackJackTable.sol\":2117:2162  require(token.bet == 0, \"Bet already placed\") */\n      tag_69\n      jumpi\n      mload(0x40)\n      0x08c379a000000000000000000000000000000000000000000000000000000000\n      dup2\n      mstore\n      0x04\n      add\n      tag_70\n      swap1\n      tag_71\n      jump\t// in\n    tag_70:\n      mload(0x40)\n      dup1\n      swap2\n      sub\n      swap1\n      revert\n    tag_69:\n        /* \"contracts/BlackJackTable.sol\":2219:2228  State.BET */\n      0x01\n        /* \"contracts/BlackJackTable.sol\":2200:2228  token.gameState == State.BET */\n      0x04\n      dup2\n      gt\n      iszero\n      tag_72\n      jumpi\n      tag_73\n      tag_45\n      jump\t// in\n    tag_73:\n    tag_72:\n        /* \"contracts/BlackJackTable.sol\":2200:2205  token */\n      dup2\n        /* \"contracts/BlackJackTable.sol\":2200:2215  token.gameState */\n      0x06\n      add\n      0x01\n      swap1\n      sload\n      swap1\n      0x0100\n      exp\n      swap1\n      div\n      0xff\n      and\n        /* \"contracts/BlackJackTable.sol\":2200:2228  token.gameState == State.BET */\n      0x04\n      dup2\n      gt\n      iszero\n      tag_74\n      jumpi\n      tag_75\n      tag_45\n      jump\t// in\n    tag_75:\n    tag_74:\n      eq\n        /* \"contracts/BlackJackTable.sol\":2192:2260  require(token.gameState == State.BET, \"Token has not been assigned\") */\n      tag_76\n      jumpi\n      mload(0x40)\n      0x08c379a000000000000000000000000000000000000000000000000000000000\n      dup2\n      mstore\n      0x04\n      add\n      tag_77\n      swap1\n      tag_78\n      jump\t// in\n    tag_77:\n      mload(0x40)\n      dup1\n      swap2\n      sub\n      swap1\n      revert\n    tag_76:\n        /* \"contracts/BlackJackTable.sol\":2282:2285  bet */\n      dup3\n        /* \"contracts/BlackJackTable.sol\":2270:2275  token */\n      dup2\n        /* \"contracts/BlackJackTable.sol\":2270:2279  token.bet */\n      0x01\n      add\n        /* \"contracts/BlackJackTable.sol\":2270:2285  token.bet = bet */\n      dup2\n      swap1\n      sstore\n      pop\n        /* \"contracts/BlackJackTable.sol\":2314:2320  oracle */\n      0x01\n      0x00\n      swap1\n      sload\n      swap1\n      0x0100\n      exp\n      swap1\n      div\n      0xffffffffffffffffffffffffffffffffffffffff\n      and\n        /* \"contracts/BlackJackTable.sol\":2314:2333  oracle.generateSeed */\n      0xffffffffffffffffffffffffffffffffffffffff\n      and\n      0x041df082\n        /* \"contracts/BlackJackTable.sol\":2347:2352  token */\n      dup3\n        /* \"contracts/BlackJackTable.sol\":2347:2363  token.serverSeed */\n      0x04\n      add\n      sload\n        /* \"contracts/BlackJackTable.sol\":2377:2382  token */\n      dup4\n        /* \"contracts/BlackJackTable.sol\":2377:2393  token.playerSeed */\n      0x03\n      add\n      sload\n        /* \"contracts/BlackJackTable.sol\":2314:2403  oracle.generateSeed(... */\n      mload(0x40)\n      dup4\n      0xffffffff\n      and\n      0xe0\n      shl\n      dup2\n      mstore\n      0x04\n      add\n      tag_79\n      swap3\n      swap2\n      swap1\n      tag_80\n      jump\t// in\n    tag_79:\n      0x20\n      mload(0x40)\n      dup1\n      dup4\n      sub\n      dup2\n      dup7\n      gas\n      staticcall\n      iszero\n      dup1\n      iszero\n      tag_82\n      jumpi\n      returndatacopy(0x00, 0x00, returndatasize)\n      revert(0x00, returndatasize)\n    tag_82:\n      pop\n      pop\n      pop\n      pop\n      mload(0x40)\n      returndatasize\n      not(0x1f)\n      0x1f\n      dup3\n      add\n      and\n      dup3\n      add\n      dup1\n      0x40\n      mstore\n      pop\n      dup2\n      add\n      swap1\n      tag_83\n      swap2\n      swap1\n      tag_84\n      jump\t// in\n    tag_83:\n        /* \"contracts/BlackJackTable.sol\":2296:2301  token */\n      dup2\n        /* \"contracts/BlackJackTable.sol\":2296:2311  token.finalSeed */\n      0x05\n      add\n        /* \"contracts/BlackJackTable.sol\":2296:2403  token.finalSeed = oracle.generateSeed(... */\n      dup2\n      swap1\n      sstore\n      pop\n        /* \"contracts/BlackJackTable.sol\":2432:2449  State.DEALER_TURN */\n      0x02\n        /* \"contracts/BlackJackTable.sol\":2414:2419  token */\n      dup2\n        /* \"contracts/BlackJackTable.sol\":2414:2429  token.gameState */\n      0x06\n      add\n      0x01\n        /* \"contracts/BlackJackTable.sol\":2414:2449  token.gameState = State.DEALER_TURN */\n      0x0100\n      exp\n      dup2\n      sload\n      dup2\n      0xff\n      mul\n      not\n      and\n      swap1\n      dup4\n      0x04\n      dup2\n      gt\n      iszero\n      tag_85\n      jumpi\n      tag_86\n      tag_45\n      jump\t// in\n    tag_86:\n    tag_85:\n      mul\n      or\n      swap1\n      sstore\n      pop\n        /* \"contracts/BlackJackTable.sol\":2493:2511  shuffleDeck(token) */\n      tag_87\n        /* \"contracts/BlackJackTable.sol\":2505:2510  token */\n      dup2\n        /* \"contracts/BlackJackTable.sol\":2493:2504  shuffleDeck */\n      tag_88\n        /* \"contracts/BlackJackTable.sol\":2493:2511  shuffleDeck(token) */\n      jump\t// in\n    tag_87:\n        /* \"contracts/BlackJackTable.sol\":2527:2591  BetPlaced(token.tokenID, msg.sender, token.bet, token.finalSeed) */\n      0x0e97ce5f641b8a03e0f92d0b4480f849cf26a7bfdf17862c8edaf69268e60aad\n        /* \"contracts/BlackJackTable.sol\":2537:2542  token */\n      dup2\n        /* \"contracts/BlackJackTable.sol\":2537:2550  token.tokenID */\n      0x00\n      add\n      sload\n        /* \"contracts/BlackJackTable.sol\":2552:2562  msg.sender */\n      caller\n        /* \"contracts/BlackJackTable.sol\":2564:2569  token */\n      dup4\n        /* \"contracts/BlackJackTable.sol\":2564:2573  token.bet */\n      0x01\n      add\n      sload\n        /* \"contracts/BlackJackTable.sol\":2575:2580  token */\n      dup5\n        /* \"contracts/BlackJackTable.sol\":2575:2590  token.finalSeed */\n      0x05\n      add\n      sload\n        /* \"contracts/BlackJackTable.sol\":2527:2591  BetPlaced(token.tokenID, msg.sender, token.bet, token.finalSeed) */\n      mload(0x40)\n      tag_89\n      swap5\n      swap4\n      swap3\n      swap2\n      swap1\n      tag_90\n      jump\t// in\n    tag_89:\n      mload(0x40)\n      dup1\n      swap2\n      sub\n      swap1\n      log1\n        /* \"contracts/BlackJackTable.sol\":1857:2598  {... */\n      pop\n      pop\n        /* \"contracts/BlackJackTable.sol\":1816:2598  function placeBets(uint256 bet) external {... */\n      pop\n      jump\t// out\n        /* \"contracts/BlackJackTable.sol\":7468:7891  function stand() external {... */\n    tag_30:\n        /* \"contracts/BlackJackTable.sol\":7504:7518  uint256 gameID */\n      0x00\n        /* \"contracts/BlackJackTable.sol\":7521:7531  activeGame */\n      0x03\n        /* \"contracts/BlackJackTable.sol\":7521:7543  activeGame[msg.sender] */\n      0x00\n        /* \"contracts/BlackJackTable.sol\":7532:7542  msg.sender */\n      caller\n        /* \"contracts/BlackJackTable.sol\":7521:7543  activeGame[msg.sender] */\n      0xffffffffffffffffffffffffffffffffffffffff\n      and\n      0xffffffffffffffffffffffffffffffffffffffff\n      and\n      dup2\n      mstore\n      0x20\n      add\n      swap1\n      dup2\n      mstore\n      0x20\n      add\n      0x00\n      keccak256\n      sload\n        /* \"contracts/BlackJackTable.sol\":7504:7543  uint256 gameID = activeGame[msg.sender] */\n      swap1\n      pop\n        /* \"contracts/BlackJackTable.sol\":7553:7576  GameToken storage token */\n      0x00\n        /* \"contracts/BlackJackTable.sol\":7579:7584  games */\n      0x04\n        /* \"contracts/BlackJackTable.sol\":7579:7592  games[gameID] */\n      0x00\n        /* \"contracts/BlackJackTable.sol\":7585:7591  gameID */\n      dup4\n        /* \"contracts/BlackJackTable.sol\":7579:7592  games[gameID] */\n      dup2\n      mstore\n      0x20\n      add\n      swap1\n      dup2\n      mstore\n      0x20\n      add\n      0x00\n      keccak256\n        /* \"contracts/BlackJackTable.sol\":7553:7592  GameToken storage token = games[gameID] */\n      swap1\n      pop\n        /* \"contracts/BlackJackTable.sol\":7642:7659  State.PLAYER_TURN */\n      0x03\n        /* \"contracts/BlackJackTable.sol\":7623:7659  token.gameState == State.PLAYER_TURN */\n      0x04\n      dup2\n      gt\n      iszero\n      tag_92\n      jumpi\n      tag_93\n      tag_45\n      jump\t// in\n    tag_93:\n    tag_92:\n        /* \"contracts/BlackJackTable.sol\":7623:7628  token */\n      dup2\n        /* \"contracts/BlackJackTable.sol\":7623:7638  token.gameState */\n      0x06\n      add\n      0x01\n      swap1\n      sload\n      swap1\n      0x0100\n      exp\n      swap1\n      div\n      0xff\n      and\n        /* \"contracts/BlackJackTable.sol\":7623:7659  token.gameState == State.PLAYER_TURN */\n      0x04\n      dup2\n      gt\n      iszero\n      tag_94\n      jumpi\n      tag_95\n      tag_45\n      jump\t// in\n    tag_95:\n    tag_94:\n      eq\n        /* \"contracts/BlackJackTable.sol\":7602:7709  require(... */\n      tag_96\n      jumpi\n      mload(0x40)\n      0x08c379a000000000000000000000000000000000000000000000000000000000\n      dup2\n      mstore\n      0x04\n      add\n      tag_97\n      swap1\n      tag_98\n      jump\t// in\n    tag_97:\n      mload(0x40)\n      dup1\n      swap2\n      sub\n      swap1\n      revert\n    tag_96:\n        /* \"contracts/BlackJackTable.sol\":7737:7754  State.DEALER_TURN */\n      0x02\n        /* \"contracts/BlackJackTable.sol\":7719:7724  token */\n      dup2\n        /* \"contracts/BlackJackTable.sol\":7719:7734  token.gameState */\n      0x06\n      add\n      0x01\n        /* \"contracts/BlackJackTable.sol\":7719:7754  token.gameState = State.DEALER_TURN */\n      0x0100\n      exp\n      dup2\n      sload\n      dup2\n      0xff\n      mul\n      not\n      and\n      swap1\n      dup4\n      0x04\n      dup2\n      gt\n      iszero\n      tag_99\n      jumpi\n      tag_100\n      tag_45\n      jump\t// in\n    tag_100:\n    tag_99:\n      mul\n      or\n      swap1\n      sstore\n      pop\n        /* \"contracts/BlackJackTable.sol\":7764:7846  while (token.dealerHandTotalValue < 17) {... */\n    tag_101:\n        /* \"contracts/BlackJackTable.sol\":7800:7802  17 */\n      0x11\n        /* \"contracts/BlackJackTable.sol\":7771:7776  token */\n      dup2\n        /* \"contracts/BlackJackTable.sol\":7771:7797  token.dealerHandTotalValue */\n      0x0b\n      add\n      0x02\n      swap1\n      sload\n      swap1\n      0x0100\n      exp\n      swap1\n      div\n      0xff\n      and\n        /* \"contracts/BlackJackTable.sol\":7771:7802  token.dealerHandTotalValue < 17 */\n      0xff\n      and\n      lt\n        /* \"contracts/BlackJackTable.sol\":7764:7846  while (token.dealerHandTotalValue < 17) {... */\n      iszero\n      tag_102\n      jumpi\n        /* \"contracts/BlackJackTable.sol\":7818:7835  _hitDealer(token) */\n      tag_103\n        /* \"contracts/BlackJackTable.sol\":7829:7834  token */\n      dup2\n        /* \"contracts/BlackJackTable.sol\":7818:7828  _hitDealer */\n      tag_104\n        /* \"contracts/BlackJackTable.sol\":7818:7835  _hitDealer(token) */\n      jump\t// in\n    tag_103:\n        /* \"contracts/BlackJackTable.sol\":7764:7846  while (token.dealerHandTotalValue < 17) {... */\n      jump(tag_101)\n    tag_102:\n        /* \"contracts/BlackJackTable.sol\":7856:7884  handleBlackJackEvents(token) */\n      tag_105\n        /* \"contracts/BlackJackTable.sol\":7878:7883  token */\n      dup2\n        /* \"contracts/BlackJackTable.sol\":7856:7877  handleBlackJackEvents */\n      tag_106\n        /* \"contracts/BlackJackTable.sol\":7856:7884  handleBlackJackEvents(token) */\n      jump\t// in\n    tag_105:\n      pop\n        /* \"contracts/BlackJackTable.sol\":7494:7891  {... */\n      pop\n      pop\n        /* \"contracts/BlackJackTable.sol\":7468:7891  function stand() external {... */\n      jump\t// out\n        /* \"contracts/BlackJackTable.sol\":6463:6957  function hitPlayer() external {... */\n    tag_32:\n        /* \"contracts/BlackJackTable.sol\":6503:6517  uint256 gameID */\n      0x00\n        /* \"contracts/BlackJackTable.sol\":6520:6530  activeGame */\n      0x03\n        /* \"contracts/BlackJackTable.sol\":6520:6542  activeGame[msg.sender] */\n      0x00\n        /* \"contracts/BlackJackTable.sol\":6531:6541  msg.sender */\n      caller\n        /* \"contracts/BlackJackTable.sol\":6520:6542  activeGame[msg.sender] */\n      0xffffffffffffffffffffffffffffffffffffffff\n      and\n      0xffffffffffffffffffffffffffffffffffffffff\n      and\n      dup2\n      mstore\n      0x20\n      add\n      swap1\n      dup2\n      mstore\n      0x20\n      add\n      0x00\n      keccak256\n      sload\n        /* \"contracts/BlackJackTable.sol\":6503:6542  uint256 gameID = activeGame[msg.sender] */\n      swap1\n      pop\n        /* \"contracts/BlackJackTable.sol\":6552:6575  GameToken storage token */\n      0x00\n        /* \"contracts/BlackJackTable.sol\":6578:6583  games */\n      0x04\n        /* \"contracts/BlackJackTable.sol\":6578:6591  games[gameID] */\n      0x00\n        /* \"contracts/BlackJackTable.sol\":6584:6590  gameID */\n      dup4\n        /* \"contracts/BlackJackTable.sol\":6578:6591  games[gameID] */\n      dup2\n      mstore\n      0x20\n      add\n      swap1\n      dup2\n      mstore\n      0x20\n      add\n      0x00\n      keccak256\n        /* \"contracts/BlackJackTable.sol\":6552:6591  GameToken storage token = games[gameID] */\n      swap1\n      pop\n        /* \"contracts/BlackJackTable.sol\":6628:6642  State.FINISHED */\n      0x04\n        /* \"contracts/BlackJackTable.sol\":6609:6642  token.gameState != State.FINISHED */\n      dup1\n      dup2\n      gt\n      iszero\n      tag_108\n      jumpi\n      tag_109\n      tag_45\n      jump\t// in\n    tag_109:\n    tag_108:\n        /* \"contracts/BlackJackTable.sol\":6609:6614  token */\n      dup2\n        /* \"contracts/BlackJackTable.sol\":6609:6624  token.gameState */\n      0x06\n      add\n      0x01\n      swap1\n      sload\n      swap1\n      0x0100\n      exp\n      swap1\n      div\n      0xff\n      and\n        /* \"contracts/BlackJackTable.sol\":6609:6642  token.gameState != State.FINISHED */\n      0x04\n      dup2\n      gt\n      iszero\n      tag_110\n      jumpi\n      tag_111\n      tag_45\n      jump\t// in\n    tag_111:\n    tag_110:\n      sub\n        /* \"contracts/BlackJackTable.sol\":6601:6672  require(token.gameState != State.FINISHED, \"Game has already finished\") */\n      tag_112\n      jumpi\n      mload(0x40)\n      0x08c379a000000000000000000000000000000000000000000000000000000000\n      dup2\n      mstore\n      0x04\n      add\n      tag_113\n      swap1\n      tag_114\n      jump\t// in\n    tag_113:\n      mload(0x40)\n      dup1\n      swap2\n      sub\n      swap1\n      revert\n    tag_112:\n        /* \"contracts/BlackJackTable.sol\":6722:6739  State.PLAYER_TURN */\n      0x03\n        /* \"contracts/BlackJackTable.sol\":6703:6739  token.gameState == State.PLAYER_TURN */\n      0x04\n      dup2\n      gt\n      iszero\n      tag_115\n      jumpi\n      tag_116\n      tag_45\n      jump\t// in\n    tag_116:\n    tag_115:\n        /* \"contracts/BlackJackTable.sol\":6703:6708  token */\n      dup2\n        /* \"contracts/BlackJackTable.sol\":6703:6718  token.gameState */\n      0x06\n      add\n      0x01\n      swap1\n      sload\n      swap1\n      0x0100\n      exp\n      swap1\n      div\n      0xff\n      and\n        /* \"contracts/BlackJackTable.sol\":6703:6739  token.gameState == State.PLAYER_TURN */\n      0x04\n      dup2\n      gt\n      iszero\n      tag_117\n      jumpi\n      tag_118\n      tag_45\n      jump\t// in\n    tag_118:\n    tag_117:\n      eq\n        /* \"contracts/BlackJackTable.sol\":6682:6791  require(... */\n      tag_119\n      jumpi\n      mload(0x40)\n      0x08c379a000000000000000000000000000000000000000000000000000000000\n      dup2\n      mstore\n      0x04\n      add\n      tag_120\n      swap1\n      tag_121\n      jump\t// in\n    tag_120:\n      mload(0x40)\n      dup1\n      swap2\n      sub\n      swap1\n      revert\n    tag_119:\n        /* \"contracts/BlackJackTable.sol\":6838:6840  21 */\n      0x15\n        /* \"contracts/BlackJackTable.sol\":6809:6814  token */\n      dup2\n        /* \"contracts/BlackJackTable.sol\":6809:6835  token.playerHandTotalValue */\n      0x0b\n      add\n      0x01\n      swap1\n      sload\n      swap1\n      0x0100\n      exp\n      swap1\n      div\n      0xff\n      and\n        /* \"contracts/BlackJackTable.sol\":6809:6840  token.playerHandTotalValue < 21 */\n      0xff\n      and\n      lt\n        /* \"contracts/BlackJackTable.sol\":6801:6855  require(token.playerHandTotalValue < 21, \"Cannot hit\") */\n      tag_122\n      jumpi\n      mload(0x40)\n      0x08c379a000000000000000000000000000000000000000000000000000000000\n      dup2\n      mstore\n      0x04\n      add\n      tag_123\n      swap1\n      tag_124\n      jump\t// in\n    tag_123:\n      mload(0x40)\n      dup1\n      swap2\n      sub\n      swap1\n      revert\n    tag_122:\n        /* \"contracts/BlackJackTable.sol\":6866:6883  _hitPlayer(token) */\n      tag_125\n        /* \"contracts/BlackJackTable.sol\":6877:6882  token */\n      dup2\n        /* \"contracts/BlackJackTable.sol\":6866:6876  _hitPlayer */\n      tag_126\n        /* \"contracts/BlackJackTable.sol\":6866:6883  _hitPlayer(token) */\n      jump\t// in\n    tag_125:\n        /* \"contracts/BlackJackTable.sol\":6922:6950  handleBlackJackEvents(token) */\n      tag_127\n        /* \"contracts/BlackJackTable.sol\":6944:6949  token */\n      dup2\n        /* \"contracts/BlackJackTable.sol\":6922:6943  handleBlackJackEvents */\n      tag_106\n        /* \"contracts/BlackJackTable.sol\":6922:6950  handleBlackJackEvents(token) */\n      jump\t// in\n    tag_127:\n      pop\n        /* \"contracts/BlackJackTable.sol\":6493:6957  {... */\n      pop\n      pop\n        /* \"contracts/BlackJackTable.sol\":6463:6957  function hitPlayer() external {... */\n      jump\t// out\n        /* \"contracts/BlackJackTable.sol\":281:300  IVault public vault */\n    tag_34:\n      0x00\n      0x00\n      swap1\n      sload\n      swap1\n      0x0100\n      exp\n      swap1\n      div\n      0xffffffffffffffffffffffffffffffffffffffff\n      and\n      dup2\n      jump\t// out\n        /* \"contracts/BlackJackTable.sol\":4922:5316  function _dealInitialHands(GameToken storage token) internal {... */\n    tag_60:\n        /* \"contracts/BlackJackTable.sol\":5017:5034  _hitPlayer(token) */\n      tag_129\n        /* \"contracts/BlackJackTable.sol\":5028:5033  token */\n      dup2\n        /* \"contracts/BlackJackTable.sol\":5017:5027  _hitPlayer */\n      tag_126\n        /* \"contracts/BlackJackTable.sol\":5017:5034  _hitPlayer(token) */\n      jump\t// in\n    tag_129:\n        /* \"contracts/BlackJackTable.sol\":5068:5085  _hitDealer(token) */\n      tag_130\n        /* \"contracts/BlackJackTable.sol\":5079:5084  token */\n      dup2\n        /* \"contracts/BlackJackTable.sol\":5068:5078  _hitDealer */\n      tag_104\n        /* \"contracts/BlackJackTable.sol\":5068:5085  _hitDealer(token) */\n      jump\t// in\n    tag_130:\n        /* \"contracts/BlackJackTable.sol\":5120:5137  _hitPlayer(token) */\n      tag_131\n        /* \"contracts/BlackJackTable.sol\":5131:5136  token */\n      dup2\n        /* \"contracts/BlackJackTable.sol\":5120:5130  _hitPlayer */\n      tag_126\n        /* \"contracts/BlackJackTable.sol\":5120:5137  _hitPlayer(token) */\n      jump\t// in\n    tag_131:\n        /* \"contracts/BlackJackTable.sol\":5172:5189  _hitDealer(token) */\n      tag_132\n        /* \"contracts/BlackJackTable.sol\":5183:5188  token */\n      dup2\n        /* \"contracts/BlackJackTable.sol\":5172:5182  _hitDealer */\n      tag_104\n        /* \"contracts/BlackJackTable.sol\":5172:5189  _hitDealer(token) */\n      jump\t// in\n    tag_132:\n        /* \"contracts/BlackJackTable.sol\":5227:5255  handleBlackJackEvents(token) */\n      tag_133\n        /* \"contracts/BlackJackTable.sol\":5249:5254  token */\n      dup2\n        /* \"contracts/BlackJackTable.sol\":5227:5248  handleBlackJackEvents */\n      tag_106\n        /* \"contracts/BlackJackTable.sol\":5227:5255  handleBlackJackEvents(token) */\n      jump\t// in\n    tag_133:\n        /* \"contracts/BlackJackTable.sol\":5257:5264  return; */\n      tag_128\n        /* \"contracts/BlackJackTable.sol\":5223:5264  if (handleBlackJackEvents(token)) return; */\n      jumpi\n        /* \"contracts/BlackJackTable.sol\":5292:5309  State.PLAYER_TURN */\n      0x03\n        /* \"contracts/BlackJackTable.sol\":5274:5279  token */\n      dup2\n        /* \"contracts/BlackJackTable.sol\":5274:5289  token.gameState */\n      0x06\n      add\n      0x01\n        /* \"contracts/BlackJackTable.sol\":5274:5309  token.gameState = State.PLAYER_TURN */\n      0x0100\n      exp\n      dup2\n      sload\n      dup2\n      0xff\n      mul\n      not\n      and\n      swap1\n      dup4\n      0x04\n      dup2\n      gt\n      iszero\n      tag_135\n      jumpi\n      tag_136\n      tag_45\n      jump\t// in\n    tag_136:\n    tag_135:\n      mul\n      or\n      swap1\n      sstore\n      pop\n        /* \"contracts/BlackJackTable.sol\":4922:5316  function _dealInitialHands(GameToken storage token) internal {... */\n    tag_128:\n      pop\n      jump\t// out\n        /* \"contracts/BlackJackTable.sol\":2604:3541  function shuffleDeck(GameToken storage token) internal {... */\n    tag_88:\n        /* \"contracts/BlackJackTable.sol\":2709:2726  State.DEALER_TURN */\n      0x02\n        /* \"contracts/BlackJackTable.sol\":2690:2726  token.gameState == State.DEALER_TURN */\n      0x04\n      dup2\n      gt\n      iszero\n      tag_138\n      jumpi\n      tag_139\n      tag_45\n      jump\t// in\n    tag_139:\n    tag_138:\n        /* \"contracts/BlackJackTable.sol\":2690:2695  token */\n      dup2\n        /* \"contracts/BlackJackTable.sol\":2690:2705  token.gameState */\n      0x06\n      add\n      0x01\n      swap1\n      sload\n      swap1\n      0x0100\n      exp\n      swap1\n      div\n      0xff\n      and\n        /* \"contracts/BlackJackTable.sol\":2690:2726  token.gameState == State.DEALER_TURN */\n      0x04\n      dup2\n      gt\n      iszero\n      tag_140\n      jumpi\n      tag_141\n      tag_45\n      jump\t// in\n    tag_141:\n    tag_140:\n      eq\n        /* \"contracts/BlackJackTable.sol\":2669:2779  require(... */\n      tag_142\n      jumpi\n      mload(0x40)\n      0x08c379a000000000000000000000000000000000000000000000000000000000\n      dup2\n      mstore\n      0x04\n      add\n      tag_143\n      swap1\n      tag_144\n      jump\t// in\n    tag_143:\n      mload(0x40)\n      dup1\n      swap2\n      sub\n      swap1\n      revert\n    tag_142:\n        /* \"contracts/BlackJackTable.sol\":2817:2822  false */\n      0x00\n        /* \"contracts/BlackJackTable.sol\":2797:2822  token.isShuffled == false */\n      iszero\n      iszero\n        /* \"contracts/BlackJackTable.sol\":2797:2802  token */\n      dup2\n        /* \"contracts/BlackJackTable.sol\":2797:2813  token.isShuffled */\n      0x0b\n      add\n      0x00\n      swap1\n      sload\n      swap1\n      0x0100\n      exp\n      swap1\n      div\n      0xff\n      and\n        /* \"contracts/BlackJackTable.sol\":2797:2822  token.isShuffled == false */\n      iszero\n      iszero\n      eq\n        /* \"contracts/BlackJackTable.sol\":2789:2857  require(token.isShuffled == false, \"Deck has already been shuffled\") */\n      tag_145\n      jumpi\n      mload(0x40)\n      0x08c379a000000000000000000000000000000000000000000000000000000000\n      dup2\n      mstore\n      0x04\n      add\n      tag_146\n      swap1\n      tag_147\n      jump\t// in\n    tag_146:\n      mload(0x40)\n      dup1\n      swap2\n      sub\n      swap1\n      revert\n    tag_145:\n        /* \"contracts/BlackJackTable.sol\":3027:3034  uint8 i */\n      0x00\n        /* \"contracts/BlackJackTable.sol\":3037:3038  0 */\n      0x00\n        /* \"contracts/BlackJackTable.sol\":3027:3038  uint8 i = 0 */\n      swap1\n      pop\n        /* \"contracts/BlackJackTable.sol\":3022:3101  for (uint8 i = 0; i < deckSize; i++) {... */\n    tag_148:\n        /* \"contracts/BlackJackTable.sol\":661:664  104 */\n      0x68\n        /* \"contracts/BlackJackTable.sol\":3040:3052  i < deckSize */\n      0xff\n      and\n        /* \"contracts/BlackJackTable.sol\":3040:3041  i */\n      dup2\n        /* \"contracts/BlackJackTable.sol\":3040:3052  i < deckSize */\n      0xff\n      and\n      lt\n        /* \"contracts/BlackJackTable.sol\":3022:3101  for (uint8 i = 0; i < deckSize; i++) {... */\n      iszero\n      tag_149\n      jumpi\n        /* \"contracts/BlackJackTable.sol\":3089:3090  i */\n      dup1\n        /* \"contracts/BlackJackTable.sol\":3073:3078  token */\n      dup3\n        /* \"contracts/BlackJackTable.sol\":3073:3083  token.deck */\n      0x07\n      add\n        /* \"contracts/BlackJackTable.sol\":3084:3085  i */\n      dup3\n        /* \"contracts/BlackJackTable.sol\":3073:3086  token.deck[i] */\n      0xff\n      and\n      0x68\n      dup2\n      lt\n      tag_151\n      jumpi\n      tag_152\n      tag_153\n      jump\t// in\n    tag_152:\n    tag_151:\n      0x20\n      swap2\n      dup3\n      dup3\n      div\n      add\n      swap2\n      swap1\n      mod\n        /* \"contracts/BlackJackTable.sol\":3073:3090  token.deck[i] = i */\n      0x0100\n      exp\n      dup2\n      sload\n      dup2\n      0xff\n      mul\n      not\n      and\n      swap1\n      dup4\n      0xff\n      and\n      mul\n      or\n      swap1\n      sstore\n      pop\n        /* \"contracts/BlackJackTable.sol\":3054:3057  i++ */\n      dup1\n      dup1\n      0x01\n      add\n      swap2\n      pop\n      pop\n        /* \"contracts/BlackJackTable.sol\":3022:3101  for (uint8 i = 0; i < deckSize; i++) {... */\n      jump(tag_148)\n    tag_149:\n      pop\n        /* \"contracts/BlackJackTable.sol\":3218:3227  uint256 i */\n      0x00\n        /* \"contracts/BlackJackTable.sol\":3230:3231  0 */\n      0x00\n        /* \"contracts/BlackJackTable.sol\":3218:3231  uint256 i = 0 */\n      swap1\n      pop\n        /* \"contracts/BlackJackTable.sol\":3213:3501  for (uint256 i = 0; i < deckSize; i++) {... */\n    tag_155:\n        /* \"contracts/BlackJackTable.sol\":661:664  104 */\n      0x68\n        /* \"contracts/BlackJackTable.sol\":3233:3245  i < deckSize */\n      0xff\n      and\n        /* \"contracts/BlackJackTable.sol\":3233:3234  i */\n      dup2\n        /* \"contracts/BlackJackTable.sol\":3233:3245  i < deckSize */\n      lt\n        /* \"contracts/BlackJackTable.sol\":3213:3501  for (uint256 i = 0; i < deckSize; i++) {... */\n      iszero\n      tag_156\n      jumpi\n        /* \"contracts/BlackJackTable.sol\":3306:3315  uint256 n */\n      0x00\n        /* \"contracts/BlackJackTable.sol\":3364:3365  i */\n      dup2\n        /* \"contracts/BlackJackTable.sol\":661:664  104 */\n      0x68\n        /* \"contracts/BlackJackTable.sol\":3353:3365  deckSize - i */\n      0xff\n      and\n      tag_158\n      swap2\n      swap1\n      tag_159\n      jump\t// in\n    tag_158:\n        /* \"contracts/BlackJackTable.sol\":3332:3337  token */\n      dup4\n        /* \"contracts/BlackJackTable.sol\":3332:3347  token.finalSeed */\n      0x05\n      add\n      sload\n        /* \"contracts/BlackJackTable.sol\":3324:3348  uint256(token.finalSeed) */\n      0x00\n      shr\n        /* \"contracts/BlackJackTable.sol\":3323:3366  (uint256(token.finalSeed)) % (deckSize - i) */\n      tag_160\n      swap2\n      swap1\n      tag_161\n      jump\t// in\n    tag_160:\n        /* \"contracts/BlackJackTable.sol\":3318:3319  i */\n      dup3\n        /* \"contracts/BlackJackTable.sol\":3318:3367  i + ((uint256(token.finalSeed)) % (deckSize - i)) */\n      tag_162\n      swap2\n      swap1\n      tag_163\n      jump\t// in\n    tag_162:\n        /* \"contracts/BlackJackTable.sol\":3306:3367  uint256 n = i + ((uint256(token.finalSeed)) % (deckSize - i)) */\n      swap1\n      pop\n        /* \"contracts/BlackJackTable.sol\":3461:3466  token */\n      dup3\n        /* \"contracts/BlackJackTable.sol\":3461:3471  token.deck */\n      0x07\n      add\n        /* \"contracts/BlackJackTable.sol\":3472:3473  n */\n      dup2\n        /* \"contracts/BlackJackTable.sol\":3461:3474  token.deck[n] */\n      0x68\n      dup2\n      lt\n      tag_164\n      jumpi\n      tag_165\n      tag_153\n      jump\t// in\n    tag_165:\n    tag_164:\n      0x20\n      swap2\n      dup3\n      dup3\n      div\n      add\n      swap2\n      swap1\n      mod\n      swap1\n      sload\n      swap1\n      0x0100\n      exp\n      swap1\n      div\n      0xff\n      and\n        /* \"contracts/BlackJackTable.sol\":3476:3481  token */\n      dup4\n        /* \"contracts/BlackJackTable.sol\":3476:3486  token.deck */\n      0x07\n      add\n        /* \"contracts/BlackJackTable.sol\":3487:3488  i */\n      dup4\n        /* \"contracts/BlackJackTable.sol\":3476:3489  token.deck[i] */\n      0x68\n      dup2\n      lt\n      tag_167\n      jumpi\n      tag_168\n      tag_153\n      jump\t// in\n    tag_168:\n    tag_167:\n      0x20\n      swap2\n      dup3\n      dup3\n      div\n      add\n      swap2\n      swap1\n      mod\n      swap1\n      sload\n      swap1\n      0x0100\n      exp\n      swap1\n      div\n      0xff\n      and\n        /* \"contracts/BlackJackTable.sol\":3428:3433  token */\n      dup5\n        /* \"contracts/BlackJackTable.sol\":3428:3438  token.deck */\n      0x07\n      add\n        /* \"contracts/BlackJackTable.sol\":3439:3440  i */\n      dup5\n        /* \"contracts/BlackJackTable.sol\":3428:3441  token.deck[i] */\n      0x68\n      dup2\n      lt\n      tag_170\n      jumpi\n      tag_171\n      tag_153\n      jump\t// in\n    tag_171:\n    tag_170:\n      0x20\n      swap2\n      dup3\n      dup3\n      div\n      add\n      swap2\n      swap1\n      mod\n        /* \"contracts/BlackJackTable.sol\":3443:3448  token */\n      dup7\n        /* \"contracts/BlackJackTable.sol\":3443:3453  token.deck */\n      0x07\n      add\n        /* \"contracts/BlackJackTable.sol\":3454:3455  n */\n      dup6\n        /* \"contracts/BlackJackTable.sol\":3443:3456  token.deck[n] */\n      0x68\n      dup2\n      lt\n      tag_173\n      jumpi\n      tag_174\n      tag_153\n      jump\t// in\n    tag_174:\n    tag_173:\n      0x20\n      swap2\n      dup3\n      dup3\n      div\n      add\n      swap2\n      swap1\n      mod\n        /* \"contracts/BlackJackTable.sol\":3427:3490  (token.deck[i], token.deck[n]) = (token.deck[n], token.deck[i]) */\n      dup5\n      swap2\n      swap1\n      0x0100\n      exp\n      dup2\n      sload\n      dup2\n      0xff\n      mul\n      not\n      and\n      swap1\n      dup4\n      0xff\n      and\n      mul\n      or\n      swap1\n      sstore\n      pop\n      dup4\n      swap2\n      swap1\n      0x0100\n      exp\n      dup2\n      sload\n      dup2\n      0xff\n      mul\n      not\n      and\n      swap1\n      dup4\n      0xff\n      and\n      mul\n      or\n      swap1\n      sstore\n      pop\n      pop\n      pop\n        /* \"contracts/BlackJackTable.sol\":3252:3501  {... */\n      pop\n        /* \"contracts/BlackJackTable.sol\":3247:3250  i++ */\n      dup1\n      dup1\n      0x01\n      add\n      swap2\n      pop\n      pop\n        /* \"contracts/BlackJackTable.sol\":3213:3501  for (uint256 i = 0; i < deckSize; i++) {... */\n      jump(tag_155)\n    tag_156:\n      pop\n        /* \"contracts/BlackJackTable.sol\":3530:3534  true */\n      0x01\n        /* \"contracts/BlackJackTable.sol\":3511:3516  token */\n      dup2\n        /* \"contracts/BlackJackTable.sol\":3511:3527  token.isShuffled */\n      0x0b\n      add\n      0x00\n        /* \"contracts/BlackJackTable.sol\":3511:3534  token.isShuffled = true */\n      0x0100\n      exp\n      dup2\n      sload\n      dup2\n      0xff\n      mul\n      not\n      and\n      swap1\n      dup4\n      iszero\n      iszero\n      mul\n      or\n      swap1\n      sstore\n      pop\n        /* \"contracts/BlackJackTable.sol\":2604:3541  function shuffleDeck(GameToken storage token) internal {... */\n      pop\n      jump\t// out\n        /* \"contracts/BlackJackTable.sol\":7188:7462  function _hitDealer(GameToken storage token) internal {... */\n    tag_104:\n        /* \"contracts/BlackJackTable.sol\":7279:7296  State.DEALER_TURN */\n      0x02\n        /* \"contracts/BlackJackTable.sol\":7260:7296  token.gameState == State.DEALER_TURN */\n      0x04\n      dup2\n      gt\n      iszero\n      tag_177\n      jumpi\n      tag_178\n      tag_45\n      jump\t// in\n    tag_178:\n    tag_177:\n        /* \"contracts/BlackJackTable.sol\":7260:7265  token */\n      dup2\n        /* \"contracts/BlackJackTable.sol\":7260:7275  token.gameState */\n      0x06\n      add\n      0x01\n      swap1\n      sload\n      swap1\n      0x0100\n      exp\n      swap1\n      div\n      0xff\n      and\n        /* \"contracts/BlackJackTable.sol\":7260:7296  token.gameState == State.DEALER_TURN */\n      0x04\n      dup2\n      gt\n      iszero\n      tag_179\n      jumpi\n      tag_180\n      tag_45\n      jump\t// in\n    tag_180:\n    tag_179:\n      eq\n        /* \"contracts/BlackJackTable.sol\":7252:7297  require(token.gameState == State.DEALER_TURN) */\n      tag_181\n      jumpi\n      revert(0x00, 0x00)\n    tag_181:\n        /* \"contracts/BlackJackTable.sol\":7307:7317  uint8 card */\n      0x00\n        /* \"contracts/BlackJackTable.sol\":7320:7335  drawCard(token) */\n      tag_182\n        /* \"contracts/BlackJackTable.sol\":7329:7334  token */\n      dup3\n        /* \"contracts/BlackJackTable.sol\":7320:7328  drawCard */\n      tag_183\n        /* \"contracts/BlackJackTable.sol\":7320:7335  drawCard(token) */\n      jump\t// in\n    tag_182:\n        /* \"contracts/BlackJackTable.sol\":7307:7335  uint8 card = drawCard(token) */\n      swap1\n      pop\n        /* \"contracts/BlackJackTable.sol\":7374:7455  addCardToHand(... */\n      tag_184\n        /* \"contracts/BlackJackTable.sol\":7401:7405  card */\n      dup2\n        /* \"contracts/BlackJackTable.sol\":7419:7424  token */\n      dup4\n        /* \"contracts/BlackJackTable.sol\":7419:7445  token.dealerHandTotalValue */\n      0x0b\n      add\n      0x02\n      swap1\n      sload\n      swap1\n      0x0100\n      exp\n      swap1\n      div\n      0xff\n      and\n        /* \"contracts/BlackJackTable.sol\":7374:7387  addCardToHand */\n      tag_185\n        /* \"contracts/BlackJackTable.sol\":7374:7455  addCardToHand(... */\n      jump\t// in\n    tag_184:\n        /* \"contracts/BlackJackTable.sol\":7345:7350  token */\n      dup3\n        /* \"contracts/BlackJackTable.sol\":7345:7371  token.dealerHandTotalValue */\n      0x0b\n      add\n      0x02\n        /* \"contracts/BlackJackTable.sol\":7345:7455  token.dealerHandTotalValue = addCardToHand(... */\n      0x0100\n      exp\n      dup2\n      sload\n      dup2\n      0xff\n      mul\n      not\n      and\n      swap1\n      dup4\n      0xff\n      and\n      mul\n      or\n      swap1\n      sstore\n      pop\n        /* \"contracts/BlackJackTable.sol\":7242:7462  {... */\n      pop\n        /* \"contracts/BlackJackTable.sol\":7188:7462  function _hitDealer(GameToken storage token) internal {... */\n      pop\n      jump\t// out\n        /* \"contracts/BlackJackTable.sol\":3547:4545  function handleBlackJackEvents(... */\n    tag_106:\n        /* \"contracts/BlackJackTable.sol\":3635:3639  bool */\n      0x00\n        /* \"contracts/BlackJackTable.sol\":3684:3686  21 */\n      0x15\n        /* \"contracts/BlackJackTable.sol\":3655:3660  token */\n      dup3\n        /* \"contracts/BlackJackTable.sol\":3655:3681  token.playerHandTotalValue */\n      0x0b\n      add\n      0x01\n      swap1\n      sload\n      swap1\n      0x0100\n      exp\n      swap1\n      div\n      0xff\n      and\n        /* \"contracts/BlackJackTable.sol\":3655:3686  token.playerHandTotalValue > 21 */\n      0xff\n      and\n      gt\n        /* \"contracts/BlackJackTable.sol\":3651:3774  if (token.playerHandTotalValue > 21) {... */\n      iszero\n      tag_187\n      jumpi\n        /* \"contracts/BlackJackTable.sol\":3702:3738  endGame(token, Result.DEALER_WIN, 0) */\n      tag_188\n        /* \"contracts/BlackJackTable.sol\":3710:3715  token */\n      dup3\n        /* \"contracts/BlackJackTable.sol\":3717:3734  Result.DEALER_WIN */\n      0x02\n        /* \"contracts/BlackJackTable.sol\":3736:3737  0 */\n      0x00\n        /* \"contracts/BlackJackTable.sol\":3702:3709  endGame */\n      tag_189\n        /* \"contracts/BlackJackTable.sol\":3702:3738  endGame(token, Result.DEALER_WIN, 0) */\n      jump\t// in\n    tag_188:\n        /* \"contracts/BlackJackTable.sol\":3759:3763  true */\n      0x01\n        /* \"contracts/BlackJackTable.sol\":3752:3763  return true */\n      swap1\n      pop\n      jump(tag_186)\n        /* \"contracts/BlackJackTable.sol\":3651:3774  if (token.playerHandTotalValue > 21) {... */\n    tag_187:\n        /* \"contracts/BlackJackTable.sol\":3817:3819  21 */\n      0x15\n        /* \"contracts/BlackJackTable.sol\":3788:3793  token */\n      dup3\n        /* \"contracts/BlackJackTable.sol\":3788:3814  token.dealerHandTotalValue */\n      0x0b\n      add\n      0x02\n      swap1\n      sload\n      swap1\n      0x0100\n      exp\n      swap1\n      div\n      0xff\n      and\n        /* \"contracts/BlackJackTable.sol\":3788:3819  token.dealerHandTotalValue > 21 */\n      0xff\n      and\n      gt\n        /* \"contracts/BlackJackTable.sol\":3784:3919  if (token.dealerHandTotalValue > 21) {... */\n      iszero\n      tag_190\n      jumpi\n        /* \"contracts/BlackJackTable.sol\":3835:3883  endGame(token, Result.PLAYER_WIN, token.bet * 2) */\n      tag_191\n        /* \"contracts/BlackJackTable.sol\":3843:3848  token */\n      dup3\n        /* \"contracts/BlackJackTable.sol\":3850:3867  Result.PLAYER_WIN */\n      0x01\n        /* \"contracts/BlackJackTable.sol\":3881:3882  2 */\n      0x02\n        /* \"contracts/BlackJackTable.sol\":3869:3874  token */\n      dup6\n        /* \"contracts/BlackJackTable.sol\":3869:3878  token.bet */\n      0x01\n      add\n      sload\n        /* \"contracts/BlackJackTable.sol\":3869:3882  token.bet * 2 */\n      tag_192\n      swap2\n      swap1\n      tag_193\n      jump\t// in\n    tag_192:\n        /* \"contracts/BlackJackTable.sol\":3835:3842  endGame */\n      tag_189\n        /* \"contracts/BlackJackTable.sol\":3835:3883  endGame(token, Result.PLAYER_WIN, token.bet * 2) */\n      jump\t// in\n    tag_191:\n        /* \"contracts/BlackJackTable.sol\":3904:3908  true */\n      0x01\n        /* \"contracts/BlackJackTable.sol\":3897:3908  return true */\n      swap1\n      pop\n      jump(tag_186)\n        /* \"contracts/BlackJackTable.sol\":3784:3919  if (token.dealerHandTotalValue > 21) {... */\n    tag_190:\n        /* \"contracts/BlackJackTable.sol\":3946:3986  hasBlackJack(token.playerHandTotalValue) */\n      tag_194\n        /* \"contracts/BlackJackTable.sol\":3959:3964  token */\n      dup3\n        /* \"contracts/BlackJackTable.sol\":3959:3985  token.playerHandTotalValue */\n      0x0b\n      add\n      0x01\n      swap1\n      sload\n      swap1\n      0x0100\n      exp\n      swap1\n      div\n      0xff\n      and\n        /* \"contracts/BlackJackTable.sol\":3946:3958  hasBlackJack */\n      tag_195\n        /* \"contracts/BlackJackTable.sol\":3946:3986  hasBlackJack(token.playerHandTotalValue) */\n      jump\t// in\n    tag_194:\n        /* \"contracts/BlackJackTable.sol\":3946:4043  hasBlackJack(token.playerHandTotalValue) &&... */\n      dup1\n      iszero\n      tag_196\n      jumpi\n      pop\n        /* \"contracts/BlackJackTable.sol\":4003:4043  hasBlackJack(token.dealerHandTotalValue) */\n      tag_197\n        /* \"contracts/BlackJackTable.sol\":4016:4021  token */\n      dup3\n        /* \"contracts/BlackJackTable.sol\":4016:4042  token.dealerHandTotalValue */\n      0x0b\n      add\n      0x02\n      swap1\n      sload\n      swap1\n      0x0100\n      exp\n      swap1\n      div\n      0xff\n      and\n        /* \"contracts/BlackJackTable.sol\":4003:4015  hasBlackJack */\n      tag_195\n        /* \"contracts/BlackJackTable.sol\":4003:4043  hasBlackJack(token.dealerHandTotalValue) */\n      jump\t// in\n    tag_197:\n        /* \"contracts/BlackJackTable.sol\":4002:4043  !hasBlackJack(token.dealerHandTotalValue) */\n      iszero\n        /* \"contracts/BlackJackTable.sol\":3946:4043  hasBlackJack(token.playerHandTotalValue) &&... */\n    tag_196:\n        /* \"contracts/BlackJackTable.sol\":3929:4152  if (... */\n      iszero\n      tag_198\n      jumpi\n        /* \"contracts/BlackJackTable.sol\":4068:4116  endGame(token, Result.PLAYER_WIN, token.bet * 2) */\n      tag_199\n        /* \"contracts/BlackJackTable.sol\":4076:4081  token */\n      dup3\n        /* \"contracts/BlackJackTable.sol\":4083:4100  Result.PLAYER_WIN */\n      0x01\n        /* \"contracts/BlackJackTable.sol\":4114:4115  2 */\n      0x02\n        /* \"contracts/BlackJackTable.sol\":4102:4107  token */\n      dup6\n        /* \"contracts/BlackJackTable.sol\":4102:4111  token.bet */\n      0x01\n      add\n      sload\n        /* \"contracts/BlackJackTable.sol\":4102:4115  token.bet * 2 */\n      tag_200\n      swap2\n      swap1\n      tag_193\n      jump\t// in\n    tag_200:\n        /* \"contracts/BlackJackTable.sol\":4068:4075  endGame */\n      tag_189\n        /* \"contracts/BlackJackTable.sol\":4068:4116  endGame(token, Result.PLAYER_WIN, token.bet * 2) */\n      jump\t// in\n    tag_199:\n        /* \"contracts/BlackJackTable.sol\":4137:4141  true */\n      0x01\n        /* \"contracts/BlackJackTable.sol\":4130:4141  return true */\n      swap1\n      pop\n      jump(tag_186)\n        /* \"contracts/BlackJackTable.sol\":3929:4152  if (... */\n    tag_198:\n        /* \"contracts/BlackJackTable.sol\":4179:4219  hasBlackJack(token.playerHandTotalValue) */\n      tag_201\n        /* \"contracts/BlackJackTable.sol\":4192:4197  token */\n      dup3\n        /* \"contracts/BlackJackTable.sol\":4192:4218  token.playerHandTotalValue */\n      0x0b\n      add\n      0x01\n      swap1\n      sload\n      swap1\n      0x0100\n      exp\n      swap1\n      div\n      0xff\n      and\n        /* \"contracts/BlackJackTable.sol\":4179:4191  hasBlackJack */\n      tag_195\n        /* \"contracts/BlackJackTable.sol\":4179:4219  hasBlackJack(token.playerHandTotalValue) */\n      jump\t// in\n    tag_201:\n        /* \"contracts/BlackJackTable.sol\":4179:4275  hasBlackJack(token.playerHandTotalValue) &&... */\n      dup1\n      iszero\n      tag_202\n      jumpi\n      pop\n        /* \"contracts/BlackJackTable.sol\":4235:4275  hasBlackJack(token.dealerHandTotalValue) */\n      tag_203\n        /* \"contracts/BlackJackTable.sol\":4248:4253  token */\n      dup3\n        /* \"contracts/BlackJackTable.sol\":4248:4274  token.dealerHandTotalValue */\n      0x0b\n      add\n      0x02\n      swap1\n      sload\n      swap1\n      0x0100\n      exp\n      swap1\n      div\n      0xff\n      and\n        /* \"contracts/BlackJackTable.sol\":4235:4247  hasBlackJack */\n      tag_195\n        /* \"contracts/BlackJackTable.sol\":4235:4275  hasBlackJack(token.dealerHandTotalValue) */\n      jump\t// in\n    tag_203:\n        /* \"contracts/BlackJackTable.sol\":4179:4275  hasBlackJack(token.playerHandTotalValue) &&... */\n    tag_202:\n        /* \"contracts/BlackJackTable.sol\":4162:4374  if (... */\n      iszero\n      tag_204\n      jumpi\n        /* \"contracts/BlackJackTable.sol\":4300:4338  endGame(token, Result.PUSH, token.bet) */\n      tag_205\n        /* \"contracts/BlackJackTable.sol\":4308:4313  token */\n      dup3\n        /* \"contracts/BlackJackTable.sol\":4315:4326  Result.PUSH */\n      0x03\n        /* \"contracts/BlackJackTable.sol\":4328:4333  token */\n      dup5\n        /* \"contracts/BlackJackTable.sol\":4328:4337  token.bet */\n      0x01\n      add\n      sload\n        /* \"contracts/BlackJackTable.sol\":4300:4307  endGame */\n      tag_189\n        /* \"contracts/BlackJackTable.sol\":4300:4338  endGame(token, Result.PUSH, token.bet) */\n      jump\t// in\n    tag_205:\n        /* \"contracts/BlackJackTable.sol\":4359:4363  true */\n      0x01\n        /* \"contracts/BlackJackTable.sol\":4352:4363  return true */\n      swap1\n      pop\n      jump(tag_186)\n        /* \"contracts/BlackJackTable.sol\":4162:4374  if (... */\n    tag_204:\n        /* \"contracts/BlackJackTable.sol\":4388:4428  hasBlackJack(token.dealerHandTotalValue) */\n      tag_206\n        /* \"contracts/BlackJackTable.sol\":4401:4406  token */\n      dup3\n        /* \"contracts/BlackJackTable.sol\":4401:4427  token.dealerHandTotalValue */\n      0x0b\n      add\n      0x02\n      swap1\n      sload\n      swap1\n      0x0100\n      exp\n      swap1\n      div\n      0xff\n      and\n        /* \"contracts/BlackJackTable.sol\":4388:4400  hasBlackJack */\n      tag_195\n        /* \"contracts/BlackJackTable.sol\":4388:4428  hasBlackJack(token.dealerHandTotalValue) */\n      jump\t// in\n    tag_206:\n        /* \"contracts/BlackJackTable.sol\":4384:4516  if (hasBlackJack(token.dealerHandTotalValue)) {... */\n      iszero\n      tag_207\n      jumpi\n        /* \"contracts/BlackJackTable.sol\":4444:4480  endGame(token, Result.DEALER_WIN, 0) */\n      tag_208\n        /* \"contracts/BlackJackTable.sol\":4452:4457  token */\n      dup3\n        /* \"contracts/BlackJackTable.sol\":4459:4476  Result.DEALER_WIN */\n      0x02\n        /* \"contracts/BlackJackTable.sol\":4478:4479  0 */\n      0x00\n        /* \"contracts/BlackJackTable.sol\":4444:4451  endGame */\n      tag_189\n        /* \"contracts/BlackJackTable.sol\":4444:4480  endGame(token, Result.DEALER_WIN, 0) */\n      jump\t// in\n    tag_208:\n        /* \"contracts/BlackJackTable.sol\":4501:4505  true */\n      0x01\n        /* \"contracts/BlackJackTable.sol\":4494:4505  return true */\n      swap1\n      pop\n      jump(tag_186)\n        /* \"contracts/BlackJackTable.sol\":4384:4516  if (hasBlackJack(token.dealerHandTotalValue)) {... */\n    tag_207:\n        /* \"contracts/BlackJackTable.sol\":4533:4538  false */\n      0x00\n        /* \"contracts/BlackJackTable.sol\":4526:4538  return false */\n      swap1\n      pop\n        /* \"contracts/BlackJackTable.sol\":3547:4545  function handleBlackJackEvents(... */\n    tag_186:\n      swap2\n      swap1\n      pop\n      jump\t// out\n        /* \"contracts/BlackJackTable.sol\":6963:7182  function _hitPlayer(GameToken storage token) internal {... */\n    tag_126:\n        /* \"contracts/BlackJackTable.sol\":7027:7037  uint8 card */\n      0x00\n        /* \"contracts/BlackJackTable.sol\":7040:7055  drawCard(token) */\n      tag_210\n        /* \"contracts/BlackJackTable.sol\":7049:7054  token */\n      dup3\n        /* \"contracts/BlackJackTable.sol\":7040:7048  drawCard */\n      tag_183\n        /* \"contracts/BlackJackTable.sol\":7040:7055  drawCard(token) */\n      jump\t// in\n    tag_210:\n        /* \"contracts/BlackJackTable.sol\":7027:7055  uint8 card = drawCard(token) */\n      swap1\n      pop\n        /* \"contracts/BlackJackTable.sol\":7094:7175  addCardToHand(... */\n      tag_211\n        /* \"contracts/BlackJackTable.sol\":7121:7125  card */\n      dup2\n        /* \"contracts/BlackJackTable.sol\":7139:7144  token */\n      dup4\n        /* \"contracts/BlackJackTable.sol\":7139:7165  token.playerHandTotalValue */\n      0x0b\n      add\n      0x01\n      swap1\n      sload\n      swap1\n      0x0100\n      exp\n      swap1\n      div\n      0xff\n      and\n        /* \"contracts/BlackJackTable.sol\":7094:7107  addCardToHand */\n      tag_185\n        /* \"contracts/BlackJackTable.sol\":7094:7175  addCardToHand(... */\n      jump\t// in\n    tag_211:\n        /* \"contracts/BlackJackTable.sol\":7065:7070  token */\n      dup3\n        /* \"contracts/BlackJackTable.sol\":7065:7091  token.playerHandTotalValue */\n      0x0b\n      add\n      0x01\n        /* \"contracts/BlackJackTable.sol\":7065:7175  token.playerHandTotalValue = addCardToHand(... */\n      0x0100\n      exp\n      dup2\n      sload\n      dup2\n      0xff\n      mul\n      not\n      and\n      swap1\n      dup4\n      0xff\n      and\n      mul\n      or\n      swap1\n      sstore\n      pop\n        /* \"contracts/BlackJackTable.sol\":7017:7182  {... */\n      pop\n        /* \"contracts/BlackJackTable.sol\":6963:7182  function _hitPlayer(GameToken storage token) internal {... */\n      pop\n      jump\t// out\n        /* \"contracts/BlackJackTable.sol\":6018:6457  function drawCard(GameToken storage token) internal returns (uint8) {... */\n    tag_183:\n        /* \"contracts/BlackJackTable.sol\":6079:6084  uint8 */\n      0x00\n        /* \"contracts/BlackJackTable.sol\":6104:6109  token */\n      dup2\n        /* \"contracts/BlackJackTable.sol\":6104:6120  token.isShuffled */\n      0x0b\n      add\n      0x00\n      swap1\n      sload\n      swap1\n      0x0100\n      exp\n      swap1\n      div\n      0xff\n      and\n        /* \"contracts/BlackJackTable.sol\":6096:6151  require(token.isShuffled, \"Deck has not been shuffled\") */\n      tag_213\n      jumpi\n      mload(0x40)\n      0x08c379a000000000000000000000000000000000000000000000000000000000\n      dup2\n      mstore\n      0x04\n      add\n      tag_214\n      swap1\n      tag_51\n      jump\t// in\n    tag_214:\n      mload(0x40)\n      dup1\n      swap2\n      sub\n      swap1\n      revert\n    tag_213:\n        /* \"contracts/BlackJackTable.sol\":6161:6170  uint8 raw */\n      0x00\n        /* \"contracts/BlackJackTable.sol\":6173:6178  token */\n      dup3\n        /* \"contracts/BlackJackTable.sol\":6173:6183  token.deck */\n      0x07\n      add\n        /* \"contracts/BlackJackTable.sol\":6184:6189  token */\n      dup4\n        /* \"contracts/BlackJackTable.sol\":6184:6199  token.drawIndex */\n      0x06\n      add\n      0x00\n      swap1\n      sload\n      swap1\n      0x0100\n      exp\n      swap1\n      div\n      0xff\n      and\n        /* \"contracts/BlackJackTable.sol\":6173:6200  token.deck[token.drawIndex] */\n      0xff\n      and\n      0x68\n      dup2\n      lt\n      tag_215\n      jumpi\n      tag_216\n      tag_153\n      jump\t// in\n    tag_216:\n    tag_215:\n      0x20\n      swap2\n      dup3\n      dup3\n      div\n      add\n      swap2\n      swap1\n      mod\n      swap1\n      sload\n      swap1\n      0x0100\n      exp\n      swap1\n      div\n      0xff\n      and\n        /* \"contracts/BlackJackTable.sol\":6161:6200  uint8 raw = token.deck[token.drawIndex] */\n      swap1\n      pop\n        /* \"contracts/BlackJackTable.sol\":6234:6245  uint8 value */\n      0x00\n        /* \"contracts/BlackJackTable.sol\":6261:6262  1 */\n      0x01\n        /* \"contracts/BlackJackTable.sol\":6255:6257  13 */\n      0x0d\n        /* \"contracts/BlackJackTable.sol\":6249:6252  raw */\n      dup4\n        /* \"contracts/BlackJackTable.sol\":6249:6257  raw % 13 */\n      tag_218\n      swap2\n      swap1\n      tag_219\n      jump\t// in\n    tag_218:\n        /* \"contracts/BlackJackTable.sol\":6248:6262  (raw % 13) + 1 */\n      tag_220\n      swap2\n      swap1\n      tag_221\n      jump\t// in\n    tag_220:\n        /* \"contracts/BlackJackTable.sol\":6234:6262  uint8 value = (raw % 13) + 1 */\n      swap1\n      pop\n        /* \"contracts/BlackJackTable.sol\":6284:6286  10 */\n      0x0a\n        /* \"contracts/BlackJackTable.sol\":6276:6281  value */\n      dup2\n        /* \"contracts/BlackJackTable.sol\":6276:6286  value > 10 */\n      0xff\n      and\n      gt\n        /* \"contracts/BlackJackTable.sol\":6272:6298  if (value > 10) value = 10 */\n      iszero\n      tag_222\n      jumpi\n        /* \"contracts/BlackJackTable.sol\":6296:6298  10 */\n      0x0a\n        /* \"contracts/BlackJackTable.sol\":6288:6298  value = 10 */\n      swap1\n      pop\n        /* \"contracts/BlackJackTable.sol\":6272:6298  if (value > 10) value = 10 */\n    tag_222:\n        /* \"contracts/BlackJackTable.sol\":6308:6313  token */\n      dup4\n        /* \"contracts/BlackJackTable.sol\":6308:6323  token.drawIndex */\n      0x06\n      add\n      0x00\n        /* \"contracts/BlackJackTable.sol\":6308:6325  token.drawIndex++ */\n      dup2\n      dup2\n      swap1\n      sload\n      swap1\n      0x0100\n      exp\n      swap1\n      div\n      0xff\n      and\n      dup1\n      swap3\n      swap2\n      swap1\n      tag_223\n      swap1\n      tag_224\n      jump\t// in\n    tag_223:\n      swap2\n      swap1\n      0x0100\n      exp\n      dup2\n      sload\n      dup2\n      0xff\n      mul\n      not\n      and\n      swap1\n      dup4\n      0xff\n      and\n      mul\n      or\n      swap1\n      sstore\n      pop\n      pop\n        /* \"contracts/BlackJackTable.sol\":6400:6428  CardDrawn(token.player, raw) */\n      0x5cb494422aec3c1d66ad0616d3f90f8641e12057560336165c27bf8793fce9cf\n        /* \"contracts/BlackJackTable.sol\":6410:6415  token */\n      dup5\n        /* \"contracts/BlackJackTable.sol\":6410:6422  token.player */\n      0x02\n      add\n      0x00\n      swap1\n      sload\n      swap1\n      0x0100\n      exp\n      swap1\n      div\n      0xffffffffffffffffffffffffffffffffffffffff\n      and\n        /* \"contracts/BlackJackTable.sol\":6424:6427  raw */\n      dup4\n        /* \"contracts/BlackJackTable.sol\":6400:6428  CardDrawn(token.player, raw) */\n      mload(0x40)\n      tag_225\n      swap3\n      swap2\n      swap1\n      tag_226\n      jump\t// in\n    tag_225:\n      mload(0x40)\n      dup1\n      swap2\n      sub\n      swap1\n      log1\n        /* \"contracts/BlackJackTable.sol\":6445:6450  value */\n      dup1\n        /* \"contracts/BlackJackTable.sol\":6438:6450  return value */\n      swap3\n      pop\n      pop\n      pop\n        /* \"contracts/BlackJackTable.sol\":6018:6457  function drawCard(GameToken storage token) internal returns (uint8) {... */\n      swap2\n      swap1\n      pop\n      jump\t// out\n        /* \"contracts/BlackJackTable.sol\":5552:6012  function addCardToHand(... */\n    tag_185:\n        /* \"contracts/BlackJackTable.sol\":5652:5657  uint8 */\n      0x00\n        /* \"contracts/BlackJackTable.sol\":5703:5717  uint8 newTotal */\n      0x00\n        /* \"contracts/BlackJackTable.sol\":5727:5739  currentTotal */\n      dup3\n        /* \"contracts/BlackJackTable.sol\":5720:5724  card */\n      dup5\n        /* \"contracts/BlackJackTable.sol\":5720:5739  card + currentTotal */\n      tag_228\n      swap2\n      swap1\n      tag_221\n      jump\t// in\n    tag_228:\n        /* \"contracts/BlackJackTable.sol\":5703:5739  uint8 newTotal = card + currentTotal */\n      swap1\n      pop\n        /* \"contracts/BlackJackTable.sol\":5753:5764  isAce(card) */\n      tag_229\n        /* \"contracts/BlackJackTable.sol\":5759:5763  card */\n      dup5\n        /* \"contracts/BlackJackTable.sol\":5753:5758  isAce */\n      tag_230\n        /* \"contracts/BlackJackTable.sol\":5753:5764  isAce(card) */\n      jump\t// in\n    tag_229:\n        /* \"contracts/BlackJackTable.sol\":5749:5975  if (isAce(card)) {... */\n      iszero\n      tag_231\n      jumpi\n        /* \"contracts/BlackJackTable.sol\":5795:5797  21 */\n      0x15\n        /* \"contracts/BlackJackTable.sol\":5784:5792  newTotal */\n      dup2\n        /* \"contracts/BlackJackTable.sol\":5784:5797  newTotal > 21 */\n      0xff\n      and\n      gt\n        /* \"contracts/BlackJackTable.sol\":5780:5911  if (newTotal > 21) {... */\n      iszero\n      tag_232\n      jumpi\n        /* \"contracts/BlackJackTable.sol\":5833:5834  1 */\n      0x01\n        /* \"contracts/BlackJackTable.sol\":5817:5834  currentTotal += 1 */\n      dup4\n      tag_233\n      swap2\n      swap1\n      tag_221\n      jump\t// in\n    tag_233:\n      swap3\n      pop\n        /* \"contracts/BlackJackTable.sol\":5780:5911  if (newTotal > 21) {... */\n      jump(tag_234)\n    tag_232:\n        /* \"contracts/BlackJackTable.sol\":5888:5896  newTotal */\n      dup1\n        /* \"contracts/BlackJackTable.sol\":5873:5896  currentTotal = newTotal */\n      swap3\n      pop\n        /* \"contracts/BlackJackTable.sol\":5780:5911  if (newTotal > 21) {... */\n    tag_234:\n        /* \"contracts/BlackJackTable.sol\":5749:5975  if (isAce(card)) {... */\n      jump(tag_235)\n    tag_231:\n        /* \"contracts/BlackJackTable.sol\":5956:5964  newTotal */\n      dup1\n        /* \"contracts/BlackJackTable.sol\":5941:5964  currentTotal = newTotal */\n      swap3\n      pop\n        /* \"contracts/BlackJackTable.sol\":5749:5975  if (isAce(card)) {... */\n    tag_235:\n        /* \"contracts/BlackJackTable.sol\":5992:6004  currentTotal */\n      dup3\n        /* \"contracts/BlackJackTable.sol\":5984:6005  return (currentTotal) */\n      swap2\n      pop\n      pop\n        /* \"contracts/BlackJackTable.sol\":5552:6012  function addCardToHand(... */\n      swap3\n      swap2\n      pop\n      pop\n      jump\t// out\n        /* \"contracts/BlackJackTable.sol\":7897:8283  function endGame(... */\n    tag_189:\n        /* \"contracts/BlackJackTable.sol\":8034:8040  result */\n      dup2\n        /* \"contracts/BlackJackTable.sol\":8019:8024  token */\n      dup4\n        /* \"contracts/BlackJackTable.sol\":8019:8031  token.result */\n      0x06\n      add\n      0x02\n        /* \"contracts/BlackJackTable.sol\":8019:8040  token.result = result */\n      0x0100\n      exp\n      dup2\n      sload\n      dup2\n      0xff\n      mul\n      not\n      and\n      swap1\n      dup4\n      0x03\n      dup2\n      gt\n      iszero\n      tag_237\n      jumpi\n      tag_238\n      tag_45\n      jump\t// in\n    tag_238:\n    tag_237:\n      mul\n      or\n      swap1\n      sstore\n      pop\n        /* \"contracts/BlackJackTable.sol\":8068:8082  State.FINISHED */\n      0x04\n        /* \"contracts/BlackJackTable.sol\":8050:8055  token */\n      dup4\n        /* \"contracts/BlackJackTable.sol\":8050:8065  token.gameState */\n      0x06\n      add\n      0x01\n        /* \"contracts/BlackJackTable.sol\":8050:8082  token.gameState = State.FINISHED */\n      0x0100\n      exp\n      dup2\n      sload\n      dup2\n      0xff\n      mul\n      not\n      and\n      swap1\n      dup4\n      0x04\n      dup2\n      gt\n      iszero\n      tag_239\n      jumpi\n      tag_240\n      tag_45\n      jump\t// in\n    tag_240:\n    tag_239:\n      mul\n      or\n      swap1\n      sstore\n      pop\n        /* \"contracts/BlackJackTable.sol\":8105:8106  0 */\n      0x00\n        /* \"contracts/BlackJackTable.sol\":8096:8102  payout */\n      dup2\n        /* \"contracts/BlackJackTable.sol\":8096:8106  payout > 0 */\n      gt\n        /* \"contracts/BlackJackTable.sol\":8092:8167  if (payout > 0) {... */\n      iszero\n      tag_241\n      jumpi\n        /* \"contracts/BlackJackTable.sol\":8122:8127  vault */\n      0x00\n      0x00\n      swap1\n      sload\n      swap1\n      0x0100\n      exp\n      swap1\n      div\n      0xffffffffffffffffffffffffffffffffffffffff\n      and\n        /* \"contracts/BlackJackTable.sol\":8122:8134  vault.payout */\n      0xffffffffffffffffffffffffffffffffffffffff\n      and\n      0x117de2fd\n        /* \"contracts/BlackJackTable.sol\":8135:8140  token */\n      dup5\n        /* \"contracts/BlackJackTable.sol\":8135:8147  token.player */\n      0x02\n      add\n      0x00\n      swap1\n      sload\n      swap1\n      0x0100\n      exp\n      swap1\n      div\n      0xffffffffffffffffffffffffffffffffffffffff\n      and\n        /* \"contracts/BlackJackTable.sol\":8149:8155  payout */\n      dup4\n        /* \"contracts/BlackJackTable.sol\":8122:8156  vault.payout(token.player, payout) */\n      mload(0x40)\n      dup4\n      0xffffffff\n      and\n      0xe0\n      shl\n      dup2\n      mstore\n      0x04\n      add\n      tag_242\n      swap3\n      swap2\n      swap1\n      tag_243\n      jump\t// in\n    tag_242:\n      0x00\n      mload(0x40)\n      dup1\n      dup4\n      sub\n      dup2\n      0x00\n      dup8\n      dup1\n      extcodesize\n      iszero\n      dup1\n      iszero\n      tag_244\n      jumpi\n      revert(0x00, 0x00)\n    tag_244:\n      pop\n      gas\n      call\n      iszero\n      dup1\n      iszero\n      tag_246\n      jumpi\n      returndatacopy(0x00, 0x00, returndatasize)\n      revert(0x00, returndatasize)\n    tag_246:\n      pop\n      pop\n      pop\n      pop\n        /* \"contracts/BlackJackTable.sol\":8092:8167  if (payout > 0) {... */\n    tag_241:\n        /* \"contracts/BlackJackTable.sol\":8183:8193  activeGame */\n      0x03\n        /* \"contracts/BlackJackTable.sol\":8183:8207  activeGame[token.player] */\n      0x00\n        /* \"contracts/BlackJackTable.sol\":8194:8199  token */\n      dup5\n        /* \"contracts/BlackJackTable.sol\":8194:8206  token.player */\n      0x02\n      add\n      0x00\n      swap1\n      sload\n      swap1\n      0x0100\n      exp\n      swap1\n      div\n      0xffffffffffffffffffffffffffffffffffffffff\n      and\n        /* \"contracts/BlackJackTable.sol\":8183:8207  activeGame[token.player] */\n      0xffffffffffffffffffffffffffffffffffffffff\n      and\n      0xffffffffffffffffffffffffffffffffffffffff\n      and\n      dup2\n      mstore\n      0x20\n      add\n      swap1\n      dup2\n      mstore\n      0x20\n      add\n      0x00\n      keccak256\n        /* \"contracts/BlackJackTable.sol\":8176:8207  delete activeGame[token.player] */\n      0x00\n      swap1\n      sstore\n        /* \"contracts/BlackJackTable.sol\":8229:8230  0 */\n      0x00\n        /* \"contracts/BlackJackTable.sol\":8217:8222  token */\n      dup4\n        /* \"contracts/BlackJackTable.sol\":8217:8226  token.bet */\n      0x01\n      add\n        /* \"contracts/BlackJackTable.sol\":8217:8230  token.bet = 0 */\n      dup2\n      swap1\n      sstore\n      pop\n        /* \"contracts/BlackJackTable.sol\":8245:8276  GameEnded(token.player, result) */\n      0xecdab0d30ae5a2b8d283acf9ed4856306f12f29ef8069fac9148d3d2ac6b4b14\n        /* \"contracts/BlackJackTable.sol\":8255:8260  token */\n      dup4\n        /* \"contracts/BlackJackTable.sol\":8255:8267  token.player */\n      0x02\n      add\n      0x00\n      swap1\n      sload\n      swap1\n      0x0100\n      exp\n      swap1\n      div\n      0xffffffffffffffffffffffffffffffffffffffff\n      and\n        /* \"contracts/BlackJackTable.sol\":8269:8275  result */\n      dup4\n        /* \"contracts/BlackJackTable.sol\":8245:8276  GameEnded(token.player, result) */\n      mload(0x40)\n      tag_247\n      swap3\n      swap2\n      swap1\n      tag_248\n      jump\t// in\n    tag_247:\n      mload(0x40)\n      dup1\n      swap2\n      sub\n      swap1\n      log1\n        /* \"contracts/BlackJackTable.sol\":7897:8283  function endGame(... */\n      pop\n      pop\n      pop\n      jump\t// out\n        /* \"contracts/BlackJackTable.sol\":5322:5435  function hasBlackJack(uint8 currentTotal) internal pure returns (bool) {... */\n    tag_195:\n        /* \"contracts/BlackJackTable.sol\":5387:5391  bool */\n      0x00\n        /* \"contracts/BlackJackTable.sol\":5426:5428  21 */\n      0x15\n        /* \"contracts/BlackJackTable.sol\":5410:5422  currentTotal */\n      dup3\n        /* \"contracts/BlackJackTable.sol\":5410:5428  currentTotal == 21 */\n      0xff\n      and\n      eq\n        /* \"contracts/BlackJackTable.sol\":5403:5428  return currentTotal == 21 */\n      swap1\n      pop\n        /* \"contracts/BlackJackTable.sol\":5322:5435  function hasBlackJack(uint8 currentTotal) internal pure returns (bool) {... */\n      swap2\n      swap1\n      pop\n      jump\t// out\n        /* \"contracts/BlackJackTable.sol\":5441:5546  function isAce(uint8 card) internal pure returns (bool) {... */\n    tag_230:\n        /* \"contracts/BlackJackTable.sol\":5491:5495  bool */\n      0x00\n        /* \"contracts/BlackJackTable.sol\":5523:5524  1 */\n      0x01\n        /* \"contracts/BlackJackTable.sol\":5515:5519  card */\n      dup3\n        /* \"contracts/BlackJackTable.sol\":5515:5524  card == 1 */\n      0xff\n      and\n      eq\n        /* \"contracts/BlackJackTable.sol\":5515:5538  card == 1 || card == 11 */\n      dup1\n      tag_251\n      jumpi\n      pop\n        /* \"contracts/BlackJackTable.sol\":5536:5538  11 */\n      0x0b\n        /* \"contracts/BlackJackTable.sol\":5528:5532  card */\n      dup3\n        /* \"contracts/BlackJackTable.sol\":5528:5538  card == 11 */\n      0xff\n      and\n      eq\n        /* \"contracts/BlackJackTable.sol\":5515:5538  card == 1 || card == 11 */\n    tag_251:\n        /* \"contracts/BlackJackTable.sol\":5507:5539  return (card == 1 || card == 11) */\n      swap1\n      pop\n        /* \"contracts/BlackJackTable.sol\":5441:5546  function isAce(uint8 card) internal pure returns (bool) {... */\n      swap2\n      swap1\n      pop\n      jump\t// out\n        /* \"#utility.yul\":88:205   */\n    tag_253:\n        /* \"#utility.yul\":197:198   */\n      0x00\n        /* \"#utility.yul\":194:195   */\n      0x00\n        /* \"#utility.yul\":187:199   */\n      revert\n        /* \"#utility.yul\":334:411   */\n    tag_255:\n        /* \"#utility.yul\":371:378   */\n      0x00\n        /* \"#utility.yul\":400:405   */\n      dup2\n        /* \"#utility.yul\":389:405   */\n      swap1\n      pop\n        /* \"#utility.yul\":334:411   */\n      swap2\n      swap1\n      pop\n      jump\t// out\n        /* \"#utility.yul\":417:539   */\n    tag_256:\n        /* \"#utility.yul\":490:514   */\n      tag_314\n        /* \"#utility.yul\":508:513   */\n      dup2\n        /* \"#utility.yul\":490:514   */\n      tag_255\n      jump\t// in\n    tag_314:\n        /* \"#utility.yul\":483:488   */\n      dup2\n        /* \"#utility.yul\":480:515   */\n      eq\n        /* \"#utility.yul\":470:533   */\n      tag_315\n      jumpi\n        /* \"#utility.yul\":529:530   */\n      0x00\n        /* \"#utility.yul\":526:527   */\n      0x00\n        /* \"#utility.yul\":519:531   */\n      revert\n        /* \"#utility.yul\":470:533   */\n    tag_315:\n        /* \"#utility.yul\":417:539   */\n      pop\n      jump\t// out\n        /* \"#utility.yul\":545:684   */\n    tag_257:\n        /* \"#utility.yul\":591:596   */\n      0x00\n        /* \"#utility.yul\":629:635   */\n      dup2\n        /* \"#utility.yul\":616:636   */\n      calldataload\n        /* \"#utility.yul\":607:636   */\n      swap1\n      pop\n        /* \"#utility.yul\":645:678   */\n      tag_317\n        /* \"#utility.yul\":672:677   */\n      dup2\n        /* \"#utility.yul\":645:678   */\n      tag_256\n      jump\t// in\n    tag_317:\n        /* \"#utility.yul\":545:684   */\n      swap3\n      swap2\n      pop\n      pop\n      jump\t// out\n        /* \"#utility.yul\":690:1019   */\n    tag_14:\n        /* \"#utility.yul\":749:755   */\n      0x00\n        /* \"#utility.yul\":798:800   */\n      0x20\n        /* \"#utility.yul\":786:795   */\n      dup3\n        /* \"#utility.yul\":777:784   */\n      dup5\n        /* \"#utility.yul\":773:796   */\n      sub\n        /* \"#utility.yul\":769:801   */\n      slt\n        /* \"#utility.yul\":766:885   */\n      iszero\n      tag_319\n      jumpi\n        /* \"#utility.yul\":804:883   */\n      tag_320\n      tag_253\n      jump\t// in\n    tag_320:\n        /* \"#utility.yul\":766:885   */\n    tag_319:\n        /* \"#utility.yul\":924:925   */\n      0x00\n        /* \"#utility.yul\":949:1002   */\n      tag_321\n        /* \"#utility.yul\":994:1001   */\n      dup5\n        /* \"#utility.yul\":985:991   */\n      dup3\n        /* \"#utility.yul\":974:983   */\n      dup6\n        /* \"#utility.yul\":970:992   */\n      add\n        /* \"#utility.yul\":949:1002   */\n      tag_257\n      jump\t// in\n    tag_321:\n        /* \"#utility.yul\":939:1002   */\n      swap2\n      pop\n        /* \"#utility.yul\":895:1012   */\n      pop\n        /* \"#utility.yul\":690:1019   */\n      swap3\n      swap2\n      pop\n      pop\n      jump\t// out\n        /* \"#utility.yul\":1025:1143   */\n    tag_258:\n        /* \"#utility.yul\":1112:1136   */\n      tag_323\n        /* \"#utility.yul\":1130:1135   */\n      dup2\n        /* \"#utility.yul\":1112:1136   */\n      tag_255\n      jump\t// in\n    tag_323:\n        /* \"#utility.yul\":1107:1110   */\n      dup3\n        /* \"#utility.yul\":1100:1137   */\n      mstore\n        /* \"#utility.yul\":1025:1143   */\n      pop\n      pop\n      jump\t// out\n        /* \"#utility.yul\":1149:1371   */\n    tag_21:\n        /* \"#utility.yul\":1242:1246   */\n      0x00\n        /* \"#utility.yul\":1280:1282   */\n      0x20\n        /* \"#utility.yul\":1269:1278   */\n      dup3\n        /* \"#utility.yul\":1265:1283   */\n      add\n        /* \"#utility.yul\":1257:1283   */\n      swap1\n      pop\n        /* \"#utility.yul\":1293:1364   */\n      tag_325\n        /* \"#utility.yul\":1361:1362   */\n      0x00\n        /* \"#utility.yul\":1350:1359   */\n      dup4\n        /* \"#utility.yul\":1346:1363   */\n      add\n        /* \"#utility.yul\":1337:1343   */\n      dup5\n        /* \"#utility.yul\":1293:1364   */\n      tag_258\n      jump\t// in\n    tag_325:\n        /* \"#utility.yul\":1149:1371   */\n      swap3\n      swap2\n      pop\n      pop\n      jump\t// out\n        /* \"#utility.yul\":1377:1503   */\n    tag_259:\n        /* \"#utility.yul\":1414:1421   */\n      0x00\n        /* \"#utility.yul\":1454:1496   */\n      0xffffffffffffffffffffffffffffffffffffffff\n        /* \"#utility.yul\":1447:1452   */\n      dup3\n        /* \"#utility.yul\":1443:1497   */\n      and\n        /* \"#utility.yul\":1432:1497   */\n      swap1\n      pop\n        /* \"#utility.yul\":1377:1503   */\n      swap2\n      swap1\n      pop\n      jump\t// out\n        /* \"#utility.yul\":1509:1569   */\n    tag_260:\n        /* \"#utility.yul\":1537:1540   */\n      0x00\n        /* \"#utility.yul\":1558:1563   */\n      dup2\n        /* \"#utility.yul\":1551:1563   */\n      swap1\n      pop\n        /* \"#utility.yul\":1509:1569   */\n      swap2\n      swap1\n      pop\n      jump\t// out\n        /* \"#utility.yul\":1575:1717   */\n    tag_261:\n        /* \"#utility.yul\":1625:1634   */\n      0x00\n        /* \"#utility.yul\":1658:1711   */\n      tag_329\n        /* \"#utility.yul\":1676:1710   */\n      tag_330\n        /* \"#utility.yul\":1685:1709   */\n      tag_331\n        /* \"#utility.yul\":1703:1708   */\n      dup5\n        /* \"#utility.yul\":1685:1709   */\n      tag_259\n      jump\t// in\n    tag_331:\n        /* \"#utility.yul\":1676:1710   */\n      tag_260\n      jump\t// in\n    tag_330:\n        /* \"#utility.yul\":1658:1711   */\n      tag_259\n      jump\t// in\n    tag_329:\n        /* \"#utility.yul\":1645:1711   */\n      swap1\n      pop\n        /* \"#utility.yul\":1575:1717   */\n      swap2\n      swap1\n      pop\n      jump\t// out\n        /* \"#utility.yul\":1723:1849   */\n    tag_262:\n        /* \"#utility.yul\":1773:1782   */\n      0x00\n        /* \"#utility.yul\":1806:1843   */\n      tag_333\n        /* \"#utility.yul\":1837:1842   */\n      dup3\n        /* \"#utility.yul\":1806:1843   */\n      tag_261\n      jump\t// in\n    tag_333:\n        /* \"#utility.yul\":1793:1843   */\n      swap1\n      pop\n        /* \"#utility.yul\":1723:1849   */\n      swap2\n      swap1\n      pop\n      jump\t// out\n        /* \"#utility.yul\":1855:1996   */\n    tag_263:\n        /* \"#utility.yul\":1920:1929   */\n      0x00\n        /* \"#utility.yul\":1953:1990   */\n      tag_335\n        /* \"#utility.yul\":1984:1989   */\n      dup3\n        /* \"#utility.yul\":1953:1990   */\n      tag_262\n      jump\t// in\n    tag_335:\n        /* \"#utility.yul\":1940:1990   */\n      swap1\n      pop\n        /* \"#utility.yul\":1855:1996   */\n      swap2\n      swap1\n      pop\n      jump\t// out\n        /* \"#utility.yul\":2002:2163   */\n    tag_264:\n        /* \"#utility.yul\":2104:2156   */\n      tag_337\n        /* \"#utility.yul\":2150:2155   */\n      dup2\n        /* \"#utility.yul\":2104:2156   */\n      tag_263\n      jump\t// in\n    tag_337:\n        /* \"#utility.yul\":2099:2102   */\n      dup3\n        /* \"#utility.yul\":2092:2157   */\n      mstore\n        /* \"#utility.yul\":2002:2163   */\n      pop\n      pop\n      jump\t// out\n        /* \"#utility.yul\":2169:2421   */\n    tag_25:\n        /* \"#utility.yul\":2277:2281   */\n      0x00\n        /* \"#utility.yul\":2315:2317   */\n      0x20\n        /* \"#utility.yul\":2304:2313   */\n      dup3\n        /* \"#utility.yul\":2300:2318   */\n      add\n        /* \"#utility.yul\":2292:2318   */\n      swap1\n      pop\n        /* \"#utility.yul\":2328:2414   */\n      tag_339\n        /* \"#utility.yul\":2411:2412   */\n      0x00\n        /* \"#utility.yul\":2400:2409   */\n      dup4\n        /* \"#utility.yul\":2396:2413   */\n      add\n        /* \"#utility.yul\":2387:2393   */\n      dup5\n        /* \"#utility.yul\":2328:2414   */\n      tag_264\n      jump\t// in\n    tag_339:\n        /* \"#utility.yul\":2169:2421   */\n      swap3\n      swap2\n      pop\n      pop\n      jump\t// out\n        /* \"#utility.yul\":2427:2567   */\n    tag_265:\n        /* \"#utility.yul\":2491:2500   */\n      0x00\n        /* \"#utility.yul\":2524:2561   */\n      tag_341\n        /* \"#utility.yul\":2555:2560   */\n      dup3\n        /* \"#utility.yul\":2524:2561   */\n      tag_262\n      jump\t// in\n    tag_341:\n        /* \"#utility.yul\":2511:2561   */\n      swap1\n      pop\n        /* \"#utility.yul\":2427:2567   */\n      swap2\n      swap1\n      pop\n      jump\t// out\n        /* \"#utility.yul\":2573:2732   */\n    tag_266:\n        /* \"#utility.yul\":2674:2725   */\n      tag_343\n        /* \"#utility.yul\":2719:2724   */\n      dup2\n        /* \"#utility.yul\":2674:2725   */\n      tag_265\n      jump\t// in\n    tag_343:\n        /* \"#utility.yul\":2669:2672   */\n      dup3\n        /* \"#utility.yul\":2662:2726   */\n      mstore\n        /* \"#utility.yul\":2573:2732   */\n      pop\n      pop\n      jump\t// out\n        /* \"#utility.yul\":2738:2988   */\n    tag_36:\n        /* \"#utility.yul\":2845:2849   */\n      0x00\n        /* \"#utility.yul\":2883:2885   */\n      0x20\n        /* \"#utility.yul\":2872:2881   */\n      dup3\n        /* \"#utility.yul\":2868:2886   */\n      add\n        /* \"#utility.yul\":2860:2886   */\n      swap1\n      pop\n        /* \"#utility.yul\":2896:2981   */\n      tag_345\n        /* \"#utility.yul\":2978:2979   */\n      0x00\n        /* \"#utility.yul\":2967:2976   */\n      dup4\n        /* \"#utility.yul\":2963:2980   */\n      add\n        /* \"#utility.yul\":2954:2960   */\n      dup5\n        /* \"#utility.yul\":2896:2981   */\n      tag_266\n      jump\t// in\n    tag_345:\n        /* \"#utility.yul\":2738:2988   */\n      swap3\n      swap2\n      pop\n      pop\n      jump\t// out\n        /* \"#utility.yul\":2994:3163   */\n    tag_267:\n        /* \"#utility.yul\":3078:3089   */\n      0x00\n        /* \"#utility.yul\":3112:3118   */\n      dup3\n        /* \"#utility.yul\":3107:3110   */\n      dup3\n        /* \"#utility.yul\":3100:3119   */\n      mstore\n        /* \"#utility.yul\":3152:3156   */\n      0x20\n        /* \"#utility.yul\":3147:3150   */\n      dup3\n        /* \"#utility.yul\":3143:3157   */\n      add\n        /* \"#utility.yul\":3128:3157   */\n      swap1\n      pop\n        /* \"#utility.yul\":2994:3163   */\n      swap3\n      swap2\n      pop\n      pop\n      jump\t// out\n        /* \"#utility.yul\":3169:3343   */\n    tag_268:\n        /* \"#utility.yul\":3309:3335   */\n      0x47616d6520616c726561647920696e2070726f67726573730000000000000000\n        /* \"#utility.yul\":3305:3306   */\n      0x00\n        /* \"#utility.yul\":3297:3303   */\n      dup3\n        /* \"#utility.yul\":3293:3307   */\n      add\n        /* \"#utility.yul\":3286:3336   */\n      mstore\n        /* \"#utility.yul\":3169:3343   */\n      pop\n      jump\t// out\n        /* \"#utility.yul\":3349:3715   */\n    tag_269:\n        /* \"#utility.yul\":3491:3494   */\n      0x00\n        /* \"#utility.yul\":3512:3579   */\n      tag_349\n        /* \"#utility.yul\":3576:3578   */\n      0x18\n        /* \"#utility.yul\":3571:3574   */\n      dup4\n        /* \"#utility.yul\":3512:3579   */\n      tag_267\n      jump\t// in\n    tag_349:\n        /* \"#utility.yul\":3505:3579   */\n      swap2\n      pop\n        /* \"#utility.yul\":3588:3681   */\n      tag_350\n        /* \"#utility.yul\":3677:3680   */\n      dup3\n        /* \"#utility.yul\":3588:3681   */\n      tag_268\n      jump\t// in\n    tag_350:\n        /* \"#utility.yul\":3706:3708   */\n      0x20\n        /* \"#utility.yul\":3701:3704   */\n      dup3\n        /* \"#utility.yul\":3697:3709   */\n      add\n        /* \"#utility.yul\":3690:3709   */\n      swap1\n      pop\n        /* \"#utility.yul\":3349:3715   */\n      swap2\n      swap1\n      pop\n      jump\t// out\n        /* \"#utility.yul\":3721:4140   */\n    tag_40:\n        /* \"#utility.yul\":3887:3891   */\n      0x00\n        /* \"#utility.yul\":3925:3927   */\n      0x20\n        /* \"#utility.yul\":3914:3923   */\n      dup3\n        /* \"#utility.yul\":3910:3928   */\n      add\n        /* \"#utility.yul\":3902:3928   */\n      swap1\n      pop\n        /* \"#utility.yul\":3974:3983   */\n      dup2\n        /* \"#utility.yul\":3968:3972   */\n      dup2\n        /* \"#utility.yul\":3964:3984   */\n      sub\n        /* \"#utility.yul\":3960:3961   */\n      0x00\n        /* \"#utility.yul\":3949:3958   */\n      dup4\n        /* \"#utility.yul\":3945:3962   */\n      add\n        /* \"#utility.yul\":3938:3985   */\n      mstore\n        /* \"#utility.yul\":4002:4133   */\n      tag_352\n        /* \"#utility.yul\":4128:4132   */\n      dup2\n        /* \"#utility.yul\":4002:4133   */\n      tag_269\n      jump\t// in\n    tag_352:\n        /* \"#utility.yul\":3994:4133   */\n      swap1\n      pop\n        /* \"#utility.yul\":3721:4140   */\n      swap2\n      swap1\n      pop\n      jump\t// out\n        /* \"#utility.yul\":4146:4326   */\n    tag_270:\n        /* \"#utility.yul\":4194:4271   */\n      0x4e487b7100000000000000000000000000000000000000000000000000000000\n        /* \"#utility.yul\":4191:4192   */\n      0x00\n        /* \"#utility.yul\":4184:4272   */\n      mstore\n        /* \"#utility.yul\":4291:4295   */\n      0x11\n        /* \"#utility.yul\":4288:4289   */\n      0x04\n        /* \"#utility.yul\":4281:4296   */\n      mstore\n        /* \"#utility.yul\":4315:4319   */\n      0x24\n        /* \"#utility.yul\":4312:4313   */\n      0x00\n        /* \"#utility.yul\":4305:4320   */\n      revert\n        /* \"#utility.yul\":4332:4565   */\n    tag_42:\n        /* \"#utility.yul\":4371:4374   */\n      0x00\n        /* \"#utility.yul\":4394:4418   */\n      tag_355\n        /* \"#utility.yul\":4412:4417   */\n      dup3\n        /* \"#utility.yul\":4394:4418   */\n      tag_255\n      jump\t// in\n    tag_355:\n        /* \"#utility.yul\":4385:4418   */\n      swap2\n      pop\n        /* \"#utility.yul\":4440:4506   */\n      0xffffffffffffffffffffffffffffffffffffffffffffffffffffffffffffffff\n        /* \"#utility.yul\":4433:4438   */\n      dup3\n        /* \"#utility.yul\":4430:4507   */\n      sub\n        /* \"#utility.yul\":4427:4530   */\n      tag_356\n      jumpi\n        /* \"#utility.yul\":4510:4528   */\n      tag_357\n      tag_270\n      jump\t// in\n    tag_357:\n        /* \"#utility.yul\":4427:4530   */\n    tag_356:\n        /* \"#utility.yul\":4557:4558   */\n      0x01\n        /* \"#utility.yul\":4550:4555   */\n      dup3\n        /* \"#utility.yul\":4546:4559   */\n      add\n        /* \"#utility.yul\":4539:4559   */\n      swap1\n      pop\n        /* \"#utility.yul\":4332:4565   */\n      swap2\n      swap1\n      pop\n      jump\t// out\n        /* \"#utility.yul\":4571:4751   */\n    tag_45:\n        /* \"#utility.yul\":4619:4696   */\n      0x4e487b7100000000000000000000000000000000000000000000000000000000\n        /* \"#utility.yul\":4616:4617   */\n      0x00\n        /* \"#utility.yul\":4609:4697   */\n      mstore\n        /* \"#utility.yul\":4716:4720   */\n      0x21\n        /* \"#utility.yul\":4713:4714   */\n      0x04\n        /* \"#utility.yul\":4706:4721   */\n      mstore\n        /* \"#utility.yul\":4740:4744   */\n      0x24\n        /* \"#utility.yul\":4737:4738   */\n      0x00\n        /* \"#utility.yul\":4730:4745   */\n      revert\n        /* \"#utility.yul\":4757:4853   */\n    tag_271:\n        /* \"#utility.yul\":4794:4801   */\n      0x00\n        /* \"#utility.yul\":4823:4847   */\n      tag_360\n        /* \"#utility.yul\":4841:4846   */\n      dup3\n        /* \"#utility.yul\":4823:4847   */\n      tag_259\n      jump\t// in\n    tag_360:\n        /* \"#utility.yul\":4812:4847   */\n      swap1\n      pop\n        /* \"#utility.yul\":4757:4853   */\n      swap2\n      swap1\n      pop\n      jump\t// out\n        /* \"#utility.yul\":4859:4977   */\n    tag_272:\n        /* \"#utility.yul\":4946:4970   */\n      tag_362\n        /* \"#utility.yul\":4964:4969   */\n      dup2\n        /* \"#utility.yul\":4946:4970   */\n      tag_271\n      jump\t// in\n    tag_362:\n        /* \"#utility.yul\":4941:4944   */\n      dup3\n        /* \"#utility.yul\":4934:4971   */\n      mstore\n        /* \"#utility.yul\":4859:4977   */\n      pop\n      pop\n      jump\t// out\n        /* \"#utility.yul\":4983:5315   */\n    tag_47:\n        /* \"#utility.yul\":5104:5108   */\n      0x00\n        /* \"#utility.yul\":5142:5144   */\n      0x40\n        /* \"#utility.yul\":5131:5140   */\n      dup3\n        /* \"#utility.yul\":5127:5145   */\n      add\n        /* \"#utility.yul\":5119:5145   */\n      swap1\n      pop\n        /* \"#utility.yul\":5155:5226   */\n      tag_364\n        /* \"#utility.yul\":5223:5224   */\n      0x00\n        /* \"#utility.yul\":5212:5221   */\n      dup4\n        /* \"#utility.yul\":5208:5225   */\n      add\n        /* \"#utility.yul\":5199:5205   */\n      dup6\n        /* \"#utility.yul\":5155:5226   */\n      tag_258\n      jump\t// in\n    tag_364:\n        /* \"#utility.yul\":5236:5308   */\n      tag_365\n        /* \"#utility.yul\":5304:5306   */\n      0x20\n        /* \"#utility.yul\":5293:5302   */\n      dup4\n        /* \"#utility.yul\":5289:5307   */\n      add\n        /* \"#utility.yul\":5280:5286   */\n      dup5\n        /* \"#utility.yul\":5236:5308   */\n      tag_272\n      jump\t// in\n    tag_365:\n        /* \"#utility.yul\":4983:5315   */\n      swap4\n      swap3\n      pop\n      pop\n      pop\n      jump\t// out\n        /* \"#utility.yul\":5321:5497   */\n    tag_273:\n        /* \"#utility.yul\":5461:5489   */\n      0x4465636b20686173206e6f74206265656e2073687566666c6564000000000000\n        /* \"#utility.yul\":5457:5458   */\n      0x00\n        /* \"#utility.yul\":5449:5455   */\n      dup3\n        /* \"#utility.yul\":5445:5459   */\n      add\n        /* \"#utility.yul\":5438:5490   */\n      mstore\n        /* \"#utility.yul\":5321:5497   */\n      pop\n      jump\t// out\n        /* \"#utility.yul\":5503:5869   */\n    tag_274:\n        /* \"#utility.yul\":5645:5648   */\n      0x00\n        /* \"#utility.yul\":5666:5733   */\n      tag_368\n        /* \"#utility.yul\":5730:5732   */\n      0x1a\n        /* \"#utility.yul\":5725:5728   */\n      dup4\n        /* \"#utility.yul\":5666:5733   */\n      tag_267\n      jump\t// in\n    tag_368:\n        /* \"#utility.yul\":5659:5733   */\n      swap2\n      pop\n        /* \"#utility.yul\":5742:5835   */\n      tag_369\n        /* \"#utility.yul\":5831:5834   */\n      dup3\n        /* \"#utility.yul\":5742:5835   */\n      tag_273\n      jump\t// in\n    tag_369:\n        /* \"#utility.yul\":5860:5862   */\n      0x20\n        /* \"#utility.yul\":5855:5858   */\n      dup3\n        /* \"#utility.yul\":5851:5863   */\n      add\n        /* \"#utility.yul\":5844:5863   */\n      swap1\n      pop\n        /* \"#utility.yul\":5503:5869   */\n      swap2\n      swap1\n      pop\n      jump\t// out\n        /* \"#utility.yul\":5875:6294   */\n    tag_51:\n        /* \"#utility.yul\":6041:6045   */\n      0x00\n        /* \"#utility.yul\":6079:6081   */\n      0x20\n        /* \"#utility.yul\":6068:6077   */\n      dup3\n        /* \"#utility.yul\":6064:6082   */\n      add\n        /* \"#utility.yul\":6056:6082   */\n      swap1\n      pop\n        /* \"#utility.yul\":6128:6137   */\n      dup2\n        /* \"#utility.yul\":6122:6126   */\n      dup2\n        /* \"#utility.yul\":6118:6138   */\n      sub\n        /* \"#utility.yul\":6114:6115   */\n      0x00\n        /* \"#utility.yul\":6103:6112   */\n      dup4\n        /* \"#utility.yul\":6099:6116   */\n      add\n        /* \"#utility.yul\":6092:6139   */\n      mstore\n        /* \"#utility.yul\":6156:6287   */\n      tag_371\n        /* \"#utility.yul\":6282:6286   */\n      dup2\n        /* \"#utility.yul\":6156:6287   */\n      tag_274\n      jump\t// in\n    tag_371:\n        /* \"#utility.yul\":6148:6287   */\n      swap1\n      pop\n        /* \"#utility.yul\":5875:6294   */\n      swap2\n      swap1\n      pop\n      jump\t// out\n        /* \"#utility.yul\":6300:6480   */\n    tag_275:\n        /* \"#utility.yul\":6440:6472   */\n      0x4f6e6c7920746865206465616c65722063616e206465616c2068616e64730000\n        /* \"#utility.yul\":6436:6437   */\n      0x00\n        /* \"#utility.yul\":6428:6434   */\n      dup3\n        /* \"#utility.yul\":6424:6438   */\n      add\n        /* \"#utility.yul\":6417:6473   */\n      mstore\n        /* \"#utility.yul\":6300:6480   */\n      pop\n      jump\t// out\n        /* \"#utility.yul\":6486:6852   */\n    tag_276:\n        /* \"#utility.yul\":6628:6631   */\n      0x00\n        /* \"#utility.yul\":6649:6716   */\n      tag_374\n        /* \"#utility.yul\":6713:6715   */\n      0x1e\n        /* \"#utility.yul\":6708:6711   */\n      dup4\n        /* \"#utility.yul\":6649:6716   */\n      tag_267\n      jump\t// in\n    tag_374:\n        /* \"#utility.yul\":6642:6716   */\n      swap2\n      pop\n        /* \"#utility.yul\":6725:6818   */\n      tag_375\n        /* \"#utility.yul\":6814:6817   */\n      dup3\n        /* \"#utility.yul\":6725:6818   */\n      tag_275\n      jump\t// in\n    tag_375:\n        /* \"#utility.yul\":6843:6845   */\n      0x20\n        /* \"#utility.yul\":6838:6841   */\n      dup3\n        /* \"#utility.yul\":6834:6846   */\n      add\n        /* \"#utility.yul\":6827:6846   */\n      swap1\n      pop\n        /* \"#utility.yul\":6486:6852   */\n      swap2\n      swap1\n      pop\n      jump\t// out\n        /* \"#utility.yul\":6858:7277   */\n    tag_58:\n        /* \"#utility.yul\":7024:7028   */\n      0x00\n        /* \"#utility.yul\":7062:7064   */\n      0x20\n        /* \"#utility.yul\":7051:7060   */\n      dup3\n        /* \"#utility.yul\":7047:7065   */\n      add\n        /* \"#utility.yul\":7039:7065   */\n      swap1\n      pop\n        /* \"#utility.yul\":7111:7120   */\n      dup2\n        /* \"#utility.yul\":7105:7109   */\n      dup2\n        /* \"#utility.yul\":7101:7121   */\n      sub\n        /* \"#utility.yul\":7097:7098   */\n      0x00\n        /* \"#utility.yul\":7086:7095   */\n      dup4\n        /* \"#utility.yul\":7082:7099   */\n      add\n        /* \"#utility.yul\":7075:7122   */\n      mstore\n        /* \"#utility.yul\":7139:7270   */\n      tag_377\n        /* \"#utility.yul\":7265:7269   */\n      dup2\n        /* \"#utility.yul\":7139:7270   */\n      tag_276\n      jump\t// in\n    tag_377:\n        /* \"#utility.yul\":7131:7270   */\n      swap1\n      pop\n        /* \"#utility.yul\":6858:7277   */\n      swap2\n      swap1\n      pop\n      jump\t// out\n        /* \"#utility.yul\":7283:7450   */\n    tag_277:\n        /* \"#utility.yul\":7423:7442   */\n      0x426574206f7574206f662072616e67652e000000000000000000000000000000\n        /* \"#utility.yul\":7419:7420   */\n      0x00\n        /* \"#utility.yul\":7411:7417   */\n      dup3\n        /* \"#utility.yul\":7407:7421   */\n      add\n        /* \"#utility.yul\":7400:7443   */\n      mstore\n        /* \"#utility.yul\":7283:7450   */\n      pop\n      jump\t// out\n        /* \"#utility.yul\":7456:7822   */\n    tag_278:\n        /* \"#utility.yul\":7598:7601   */\n      0x00\n        /* \"#utility.yul\":7619:7686   */\n      tag_380\n        /* \"#utility.yul\":7683:7685   */\n      0x11\n        /* \"#utility.yul\":7678:7681   */\n      dup4\n        /* \"#utility.yul\":7619:7686   */\n      tag_267\n      jump\t// in\n    tag_380:\n        /* \"#utility.yul\":7612:7686   */\n      swap2\n      pop\n        /* \"#utility.yul\":7695:7788   */\n      tag_381\n        /* \"#utility.yul\":7784:7787   */\n      dup3\n        /* \"#utility.yul\":7695:7788   */\n      tag_277\n      jump\t// in\n    tag_381:\n        /* \"#utility.yul\":7813:7815   */\n      0x20\n        /* \"#utility.yul\":7808:7811   */\n      dup3\n        /* \"#utility.yul\":7804:7816   */\n      add\n        /* \"#utility.yul\":7797:7816   */\n      swap1\n      pop\n        /* \"#utility.yul\":7456:7822   */\n      swap2\n      swap1\n      pop\n      jump\t// out\n        /* \"#utility.yul\":7828:8247   */\n    tag_65:\n        /* \"#utility.yul\":7994:7998   */\n      0x00\n        /* \"#utility.yul\":8032:8034   */\n      0x20\n        /* \"#utility.yul\":8021:8030   */\n      dup3\n        /* \"#utility.yul\":8017:8035   */\n      add\n        /* \"#utility.yul\":8009:8035   */\n      swap1\n      pop\n        /* \"#utility.yul\":8081:8090   */\n      dup2\n        /* \"#utility.yul\":8075:8079   */\n      dup2\n        /* \"#utility.yul\":8071:8091   */\n      sub\n        /* \"#utility.yul\":8067:8068   */\n      0x00\n        /* \"#utility.yul\":8056:8065   */\n      dup4\n        /* \"#utility.yul\":8052:8069   */\n      add\n        /* \"#utility.yul\":8045:8092   */\n      mstore\n        /* \"#utility.yul\":8109:8240   */\n      tag_383\n        /* \"#utility.yul\":8235:8239   */\n      dup2\n        /* \"#utility.yul\":8109:8240   */\n      tag_278\n      jump\t// in\n    tag_383:\n        /* \"#utility.yul\":8101:8240   */\n      swap1\n      pop\n        /* \"#utility.yul\":7828:8247   */\n      swap2\n      swap1\n      pop\n      jump\t// out\n        /* \"#utility.yul\":8253:8427   */\n    tag_279:\n        /* \"#utility.yul\":8393:8419   */\n      0x4e6f206163746976652067616d652063757272656e746c790000000000000000\n        /* \"#utility.yul\":8389:8390   */\n      0x00\n        /* \"#utility.yul\":8381:8387   */\n      dup3\n        /* \"#utility.yul\":8377:8391   */\n      add\n        /* \"#utility.yul\":8370:8420   */\n      mstore\n        /* \"#utility.yul\":8253:8427   */\n      pop\n      jump\t// out\n        /* \"#utility.yul\":8433:8799   */\n    tag_280:\n        /* \"#utility.yul\":8575:8578   */\n      0x00\n        /* \"#utility.yul\":8596:8663   */\n      tag_386\n        /* \"#utility.yul\":8660:8662   */\n      0x18\n        /* \"#utility.yul\":8655:8658   */\n      dup4\n        /* \"#utility.yul\":8596:8663   */\n      tag_267\n      jump\t// in\n    tag_386:\n        /* \"#utility.yul\":8589:8663   */\n      swap2\n      pop\n        /* \"#utility.yul\":8672:8765   */\n      tag_387\n        /* \"#utility.yul\":8761:8764   */\n      dup3\n        /* \"#utility.yul\":8672:8765   */\n      tag_279\n      jump\t// in\n    tag_387:\n        /* \"#utility.yul\":8790:8792   */\n      0x20\n        /* \"#utility.yul\":8785:8788   */\n      dup3\n        /* \"#utility.yul\":8781:8793   */\n      add\n        /* \"#utility.yul\":8774:8793   */\n      swap1\n      pop\n        /* \"#utility.yul\":8433:8799   */\n      swap2\n      swap1\n      pop\n      jump\t// out\n        /* \"#utility.yul\":8805:9224   */\n    tag_68:\n        /* \"#utility.yul\":8971:8975   */\n      0x00\n        /* \"#utility.yul\":9009:9011   */\n      0x20\n        /* \"#utility.yul\":8998:9007   */\n      dup3\n        /* \"#utility.yul\":8994:9012   */\n      add\n        /* \"#utility.yul\":8986:9012   */\n      swap1\n      pop\n        /* \"#utility.yul\":9058:9067   */\n      dup2\n        /* \"#utility.yul\":9052:9056   */\n      dup2\n        /* \"#utility.yul\":9048:9068   */\n      sub\n        /* \"#utility.yul\":9044:9045   */\n      0x00\n        /* \"#utility.yul\":9033:9042   */\n      dup4\n        /* \"#utility.yul\":9029:9046   */\n      add\n        /* \"#utility.yul\":9022:9069   */\n      mstore\n        /* \"#utility.yul\":9086:9217   */\n      tag_389\n        /* \"#utility.yul\":9212:9216   */\n      dup2\n        /* \"#utility.yul\":9086:9217   */\n      tag_280\n      jump\t// in\n    tag_389:\n        /* \"#utility.yul\":9078:9217   */\n      swap1\n      pop\n        /* \"#utility.yul\":8805:9224   */\n      swap2\n      swap1\n      pop\n      jump\t// out\n        /* \"#utility.yul\":9230:9398   */\n    tag_281:\n        /* \"#utility.yul\":9370:9390   */\n      0x42657420616c726561647920706c616365640000000000000000000000000000\n        /* \"#utility.yul\":9366:9367   */\n      0x00\n        /* \"#utility.yul\":9358:9364   */\n      dup3\n        /* \"#utility.yul\":9354:9368   */\n      add\n        /* \"#utility.yul\":9347:9391   */\n      mstore\n        /* \"#utility.yul\":9230:9398   */\n      pop\n      jump\t// out\n        /* \"#utility.yul\":9404:9770   */\n    tag_282:\n        /* \"#utility.yul\":9546:9549   */\n      0x00\n        /* \"#utility.yul\":9567:9634   */\n      tag_392\n        /* \"#utility.yul\":9631:9633   */\n      0x12\n        /* \"#utility.yul\":9626:9629   */\n      dup4\n        /* \"#utility.yul\":9567:9634   */\n      tag_267\n      jump\t// in\n    tag_392:\n        /* \"#utility.yul\":9560:9634   */\n      swap2\n      pop\n        /* \"#utility.yul\":9643:9736   */\n      tag_393\n        /* \"#utility.yul\":9732:9735   */\n      dup3\n        /* \"#utility.yul\":9643:9736   */\n      tag_281\n      jump\t// in\n    tag_393:\n        /* \"#utility.yul\":9761:9763   */\n      0x20\n        /* \"#utility.yul\":9756:9759   */\n      dup3\n        /* \"#utility.yul\":9752:9764   */\n      add\n        /* \"#utility.yul\":9745:9764   */\n      swap1\n      pop\n        /* \"#utility.yul\":9404:9770   */\n      swap2\n      swap1\n      pop\n      jump\t// out\n        /* \"#utility.yul\":9776:10195   */\n    tag_71:\n        /* \"#utility.yul\":9942:9946   */\n      0x00\n        /* \"#utility.yul\":9980:9982   */\n      0x20\n        /* \"#utility.yul\":9969:9978   */\n      dup3\n        /* \"#utility.yul\":9965:9983   */\n      add\n        /* \"#utility.yul\":9957:9983   */\n      swap1\n      pop\n        /* \"#utility.yul\":10029:10038   */\n      dup2\n        /* \"#utility.yul\":10023:10027   */\n      dup2\n        /* \"#utility.yul\":10019:10039   */\n      sub\n        /* \"#utility.yul\":10015:10016   */\n      0x00\n        /* \"#utility.yul\":10004:10013   */\n      dup4\n        /* \"#utility.yul\":10000:10017   */\n      add\n        /* \"#utility.yul\":9993:10040   */\n      mstore\n        /* \"#utility.yul\":10057:10188   */\n      tag_395\n        /* \"#utility.yul\":10183:10187   */\n      dup2\n        /* \"#utility.yul\":10057:10188   */\n      tag_282\n      jump\t// in\n    tag_395:\n        /* \"#utility.yul\":10049:10188   */\n      swap1\n      pop\n        /* \"#utility.yul\":9776:10195   */\n      swap2\n      swap1\n      pop\n      jump\t// out\n        /* \"#utility.yul\":10201:10378   */\n    tag_283:\n        /* \"#utility.yul\":10341:10370   */\n      0x546f6b656e20686173206e6f74206265656e2061737369676e65640000000000\n        /* \"#utility.yul\":10337:10338   */\n      0x00\n        /* \"#utility.yul\":10329:10335   */\n      dup3\n        /* \"#utility.yul\":10325:10339   */\n      add\n        /* \"#utility.yul\":10318:10371   */\n      mstore\n        /* \"#utility.yul\":10201:10378   */\n      pop\n      jump\t// out\n        /* \"#utility.yul\":10384:10750   */\n    tag_284:\n        /* \"#utility.yul\":10526:10529   */\n      0x00\n        /* \"#utility.yul\":10547:10614   */\n      tag_398\n        /* \"#utility.yul\":10611:10613   */\n      0x1b\n        /* \"#utility.yul\":10606:10609   */\n      dup4\n        /* \"#utility.yul\":10547:10614   */\n      tag_267\n      jump\t// in\n    tag_398:\n        /* \"#utility.yul\":10540:10614   */\n      swap2\n      pop\n        /* \"#utility.yul\":10623:10716   */\n      tag_399\n        /* \"#utility.yul\":10712:10715   */\n      dup3\n        /* \"#utility.yul\":10623:10716   */\n      tag_283\n      jump\t// in\n    tag_399:\n        /* \"#utility.yul\":10741:10743   */\n      0x20\n        /* \"#utility.yul\":10736:10739   */\n      dup3\n        /* \"#utility.yul\":10732:10744   */\n      add\n        /* \"#utility.yul\":10725:10744   */\n      swap1\n      pop\n        /* \"#utility.yul\":10384:10750   */\n      swap2\n      swap1\n      pop\n      jump\t// out\n        /* \"#utility.yul\":10756:11175   */\n    tag_78:\n        /* \"#utility.yul\":10922:10926   */\n      0x00\n        /* \"#utility.yul\":10960:10962   */\n      0x20\n        /* \"#utility.yul\":10949:10958   */\n      dup3\n        /* \"#utility.yul\":10945:10963   */\n      add\n        /* \"#utility.yul\":10937:10963   */\n      swap1\n      pop\n        /* \"#utility.yul\":11009:11018   */\n      dup2\n        /* \"#utility.yul\":11003:11007   */\n      dup2\n        /* \"#utility.yul\":10999:11019   */\n      sub\n        /* \"#utility.yul\":10995:10996   */\n      0x00\n        /* \"#utility.yul\":10984:10993   */\n      dup4\n        /* \"#utility.yul\":10980:10997   */\n      add\n        /* \"#utility.yul\":10973:11020   */\n      mstore\n        /* \"#utility.yul\":11037:11168   */\n      tag_401\n        /* \"#utility.yul\":11163:11167   */\n      dup2\n        /* \"#utility.yul\":11037:11168   */\n      tag_284\n      jump\t// in\n    tag_401:\n        /* \"#utility.yul\":11029:11168   */\n      swap1\n      pop\n        /* \"#utility.yul\":10756:11175   */\n      swap2\n      swap1\n      pop\n      jump\t// out\n        /* \"#utility.yul\":11181:11513   */\n    tag_80:\n        /* \"#utility.yul\":11302:11306   */\n      0x00\n        /* \"#utility.yul\":11340:11342   */\n      0x40\n        /* \"#utility.yul\":11329:11338   */\n      dup3\n        /* \"#utility.yul\":11325:11343   */\n      add\n        /* \"#utility.yul\":11317:11343   */\n      swap1\n      pop\n        /* \"#utility.yul\":11353:11424   */\n      tag_403\n        /* \"#utility.yul\":11421:11422   */\n      0x00\n        /* \"#utility.yul\":11410:11419   */\n      dup4\n        /* \"#utility.yul\":11406:11423   */\n      add\n        /* \"#utility.yul\":11397:11403   */\n      dup6\n        /* \"#utility.yul\":11353:11424   */\n      tag_258\n      jump\t// in\n    tag_403:\n        /* \"#utility.yul\":11434:11506   */\n      tag_404\n        /* \"#utility.yul\":11502:11504   */\n      0x20\n        /* \"#utility.yul\":11491:11500   */\n      dup4\n        /* \"#utility.yul\":11487:11505   */\n      add\n        /* \"#utility.yul\":11478:11484   */\n      dup5\n        /* \"#utility.yul\":11434:11506   */\n      tag_258\n      jump\t// in\n    tag_404:\n        /* \"#utility.yul\":11181:11513   */\n      swap4\n      swap3\n      pop\n      pop\n      pop\n      jump\t// out\n        /* \"#utility.yul\":11519:11596   */\n    tag_285:\n        /* \"#utility.yul\":11556:11563   */\n      0x00\n        /* \"#utility.yul\":11585:11590   */\n      dup2\n        /* \"#utility.yul\":11574:11590   */\n      swap1\n      pop\n        /* \"#utility.yul\":11519:11596   */\n      swap2\n      swap1\n      pop\n      jump\t// out\n        /* \"#utility.yul\":11602:11724   */\n    tag_286:\n        /* \"#utility.yul\":11675:11699   */\n      tag_407\n        /* \"#utility.yul\":11693:11698   */\n      dup2\n        /* \"#utility.yul\":11675:11699   */\n      tag_285\n      jump\t// in\n    tag_407:\n        /* \"#utility.yul\":11668:11673   */\n      dup2\n        /* \"#utility.yul\":11665:11700   */\n      eq\n        /* \"#utility.yul\":11655:11718   */\n      tag_408\n      jumpi\n        /* \"#utility.yul\":11714:11715   */\n      0x00\n        /* \"#utility.yul\":11711:11712   */\n      0x00\n        /* \"#utility.yul\":11704:11716   */\n      revert\n        /* \"#utility.yul\":11655:11718   */\n    tag_408:\n        /* \"#utility.yul\":11602:11724   */\n      pop\n      jump\t// out\n        /* \"#utility.yul\":11730:11873   */\n    tag_287:\n        /* \"#utility.yul\":11787:11792   */\n      0x00\n        /* \"#utility.yul\":11818:11824   */\n      dup2\n        /* \"#utility.yul\":11812:11825   */\n      mload\n        /* \"#utility.yul\":11803:11825   */\n      swap1\n      pop\n        /* \"#utility.yul\":11834:11867   */\n      tag_410\n        /* \"#utility.yul\":11861:11866   */\n      dup2\n        /* \"#utility.yul\":11834:11867   */\n      tag_286\n      jump\t// in\n    tag_410:\n        /* \"#utility.yul\":11730:11873   */\n      swap3\n      swap2\n      pop\n      pop\n      jump\t// out\n        /* \"#utility.yul\":11879:12230   */\n    tag_84:\n        /* \"#utility.yul\":11949:11955   */\n      0x00\n        /* \"#utility.yul\":11998:12000   */\n      0x20\n        /* \"#utility.yul\":11986:11995   */\n      dup3\n        /* \"#utility.yul\":11977:11984   */\n      dup5\n        /* \"#utility.yul\":11973:11996   */\n      sub\n        /* \"#utility.yul\":11969:12001   */\n      slt\n        /* \"#utility.yul\":11966:12085   */\n      iszero\n      tag_412\n      jumpi\n        /* \"#utility.yul\":12004:12083   */\n      tag_413\n      tag_253\n      jump\t// in\n    tag_413:\n        /* \"#utility.yul\":11966:12085   */\n    tag_412:\n        /* \"#utility.yul\":12124:12125   */\n      0x00\n        /* \"#utility.yul\":12149:12213   */\n      tag_414\n        /* \"#utility.yul\":12205:12212   */\n      dup5\n        /* \"#utility.yul\":12196:12202   */\n      dup3\n        /* \"#utility.yul\":12185:12194   */\n      dup6\n        /* \"#utility.yul\":12181:12203   */\n      add\n        /* \"#utility.yul\":12149:12213   */\n      tag_287\n      jump\t// in\n    tag_414:\n        /* \"#utility.yul\":12139:12213   */\n      swap2\n      pop\n        /* \"#utility.yul\":12095:12223   */\n      pop\n        /* \"#utility.yul\":11879:12230   */\n      swap3\n      swap2\n      pop\n      pop\n      jump\t// out\n        /* \"#utility.yul\":12236:12354   */\n    tag_288:\n        /* \"#utility.yul\":12323:12347   */\n      tag_416\n        /* \"#utility.yul\":12341:12346   */\n      dup2\n        /* \"#utility.yul\":12323:12347   */\n      tag_285\n      jump\t// in\n    tag_416:\n        /* \"#utility.yul\":12318:12321   */\n      dup3\n        /* \"#utility.yul\":12311:12348   */\n      mstore\n        /* \"#utility.yul\":12236:12354   */\n      pop\n      pop\n      jump\t// out\n        /* \"#utility.yul\":12360:12913   */\n    tag_90:\n        /* \"#utility.yul\":12537:12541   */\n      0x00\n        /* \"#utility.yul\":12575:12578   */\n      0x80\n        /* \"#utility.yul\":12564:12573   */\n      dup3\n        /* \"#utility.yul\":12560:12579   */\n      add\n        /* \"#utility.yul\":12552:12579   */\n      swap1\n      pop\n        /* \"#utility.yul\":12589:12660   */\n      tag_418\n        /* \"#utility.yul\":12657:12658   */\n      0x00\n        /* \"#utility.yul\":12646:12655   */\n      dup4\n        /* \"#utility.yul\":12642:12659   */\n      add\n        /* \"#utility.yul\":12633:12639   */\n      dup8\n        /* \"#utility.yul\":12589:12660   */\n      tag_258\n      jump\t// in\n    tag_418:\n        /* \"#utility.yul\":12670:12742   */\n      tag_419\n        /* \"#utility.yul\":12738:12740   */\n      0x20\n        /* \"#utility.yul\":12727:12736   */\n      dup4\n        /* \"#utility.yul\":12723:12741   */\n      add\n        /* \"#utility.yul\":12714:12720   */\n      dup7\n        /* \"#utility.yul\":12670:12742   */\n      tag_272\n      jump\t// in\n    tag_419:\n        /* \"#utility.yul\":12752:12824   */\n      tag_420\n        /* \"#utility.yul\":12820:12822   */\n      0x40\n        /* \"#utility.yul\":12809:12818   */\n      dup4\n        /* \"#utility.yul\":12805:12823   */\n      add\n        /* \"#utility.yul\":12796:12802   */\n      dup6\n        /* \"#utility.yul\":12752:12824   */\n      tag_258\n      jump\t// in\n    tag_420:\n        /* \"#utility.yul\":12834:12906   */\n      tag_421\n        /* \"#utility.yul\":12902:12904   */\n      0x60\n        /* \"#utility.yul\":12891:12900   */\n      dup4\n        /* \"#utility.yul\":12887:12905   */\n      add\n        /* \"#utility.yul\":12878:12884   */\n      dup5\n        /* \"#utility.yul\":12834:12906   */\n      tag_288\n      jump\t// in\n    tag_421:\n        /* \"#utility.yul\":12360:12913   */\n      swap6\n      swap5\n      pop\n      pop\n      pop\n      pop\n      pop\n      jump\t// out\n        /* \"#utility.yul\":12919:13093   */\n    tag_289:\n        /* \"#utility.yul\":13059:13085   */\n      0x4e6f2067616d6520686173206265656e20737461727465640000000000000000\n        /* \"#utility.yul\":13055:13056   */\n      0x00\n        /* \"#utility.yul\":13047:13053   */\n      dup3\n        /* \"#utility.yul\":13043:13057   */\n      add\n        /* \"#utility.yul\":13036:13086   */\n      mstore\n        /* \"#utility.yul\":12919:13093   */\n      pop\n      jump\t// out\n        /* \"#utility.yul\":13099:13465   */\n    tag_290:\n        /* \"#utility.yul\":13241:13244   */\n      0x00\n        /* \"#utility.yul\":13262:13329   */\n      tag_424\n        /* \"#utility.yul\":13326:13328   */\n      0x18\n        /* \"#utility.yul\":13321:13324   */\n      dup4\n        /* \"#utility.yul\":13262:13329   */\n      tag_267\n      jump\t// in\n    tag_424:\n        /* \"#utility.yul\":13255:13329   */\n      swap2\n      pop\n        /* \"#utility.yul\":13338:13431   */\n      tag_425\n        /* \"#utility.yul\":13427:13430   */\n      dup3\n        /* \"#utility.yul\":13338:13431   */\n      tag_289\n      jump\t// in\n    tag_425:\n        /* \"#utility.yul\":13456:13458   */\n      0x20\n        /* \"#utility.yul\":13451:13454   */\n      dup3\n        /* \"#utility.yul\":13447:13459   */\n      add\n        /* \"#utility.yul\":13440:13459   */\n      swap1\n      pop\n        /* \"#utility.yul\":13099:13465   */\n      swap2\n      swap1\n      pop\n      jump\t// out\n        /* \"#utility.yul\":13471:13890   */\n    tag_98:\n        /* \"#utility.yul\":13637:13641   */\n      0x00\n        /* \"#utility.yul\":13675:13677   */\n      0x20\n        /* \"#utility.yul\":13664:13673   */\n      dup3\n        /* \"#utility.yul\":13660:13678   */\n      add\n        /* \"#utility.yul\":13652:13678   */\n      swap1\n      pop\n        /* \"#utility.yul\":13724:13733   */\n      dup2\n        /* \"#utility.yul\":13718:13722   */\n      dup2\n        /* \"#utility.yul\":13714:13734   */\n      sub\n        /* \"#utility.yul\":13710:13711   */\n      0x00\n        /* \"#utility.yul\":13699:13708   */\n      dup4\n        /* \"#utility.yul\":13695:13712   */\n      add\n        /* \"#utility.yul\":13688:13735   */\n      mstore\n        /* \"#utility.yul\":13752:13883   */\n      tag_427\n        /* \"#utility.yul\":13878:13882   */\n      dup2\n        /* \"#utility.yul\":13752:13883   */\n      tag_290\n      jump\t// in\n    tag_427:\n        /* \"#utility.yul\":13744:13883   */\n      swap1\n      pop\n        /* \"#utility.yul\":13471:13890   */\n      swap2\n      swap1\n      pop\n      jump\t// out\n        /* \"#utility.yul\":13896:14071   */\n    tag_291:\n        /* \"#utility.yul\":14036:14063   */\n      0x47616d652068617320616c72656164792066696e697368656400000000000000\n        /* \"#utility.yul\":14032:14033   */\n      0x00\n        /* \"#utility.yul\":14024:14030   */\n      dup3\n        /* \"#utility.yul\":14020:14034   */\n      add\n        /* \"#utility.yul\":14013:14064   */\n      mstore\n        /* \"#utility.yul\":13896:14071   */\n      pop\n      jump\t// out\n        /* \"#utility.yul\":14077:14443   */\n    tag_292:\n        /* \"#utility.yul\":14219:14222   */\n      0x00\n        /* \"#utility.yul\":14240:14307   */\n      tag_430\n        /* \"#utility.yul\":14304:14306   */\n      0x19\n        /* \"#utility.yul\":14299:14302   */\n      dup4\n        /* \"#utility.yul\":14240:14307   */\n      tag_267\n      jump\t// in\n    tag_430:\n        /* \"#utility.yul\":14233:14307   */\n      swap2\n      pop\n        /* \"#utility.yul\":14316:14409   */\n      tag_431\n        /* \"#utility.yul\":14405:14408   */\n      dup3\n        /* \"#utility.yul\":14316:14409   */\n      tag_291\n      jump\t// in\n    tag_431:\n        /* \"#utility.yul\":14434:14436   */\n      0x20\n        /* \"#utility.yul\":14429:14432   */\n      dup3\n        /* \"#utility.yul\":14425:14437   */\n      add\n        /* \"#utility.yul\":14418:14437   */\n      swap1\n      pop\n        /* \"#utility.yul\":14077:14443   */\n      swap2\n      swap1\n      pop\n      jump\t// out\n        /* \"#utility.yul\":14449:14868   */\n    tag_114:\n        /* \"#utility.yul\":14615:14619   */\n      0x00\n        /* \"#utility.yul\":14653:14655   */\n      0x20\n        /* \"#utility.yul\":14642:14651   */\n      dup3\n        /* \"#utility.yul\":14638:14656   */\n      add\n        /* \"#utility.yul\":14630:14656   */\n      swap1\n      pop\n        /* \"#utility.yul\":14702:14711   */\n      dup2\n        /* \"#utility.yul\":14696:14700   */\n      dup2\n        /* \"#utility.yul\":14692:14712   */\n      sub\n        /* \"#utility.yul\":14688:14689   */\n      0x00\n        /* \"#utility.yul\":14677:14686   */\n      dup4\n        /* \"#utility.yul\":14673:14690   */\n      add\n        /* \"#utility.yul\":14666:14713   */\n      mstore\n        /* \"#utility.yul\":14730:14861   */\n      tag_433\n        /* \"#utility.yul\":14856:14860   */\n      dup2\n        /* \"#utility.yul\":14730:14861   */\n      tag_292\n      jump\t// in\n    tag_433:\n        /* \"#utility.yul\":14722:14861   */\n      swap1\n      pop\n        /* \"#utility.yul\":14449:14868   */\n      swap2\n      swap1\n      pop\n      jump\t// out\n        /* \"#utility.yul\":14874:15050   */\n    tag_293:\n        /* \"#utility.yul\":15014:15042   */\n      0x4974206973206e6f742074686520706c6179657273207475726e000000000000\n        /* \"#utility.yul\":15010:15011   */\n      0x00\n        /* \"#utility.yul\":15002:15008   */\n      dup3\n        /* \"#utility.yul\":14998:15012   */\n      add\n        /* \"#utility.yul\":14991:15043   */\n      mstore\n        /* \"#utility.yul\":14874:15050   */\n      pop\n      jump\t// out\n        /* \"#utility.yul\":15056:15422   */\n    tag_294:\n        /* \"#utility.yul\":15198:15201   */\n      0x00\n        /* \"#utility.yul\":15219:15286   */\n      tag_436\n        /* \"#utility.yul\":15283:15285   */\n      0x1a\n        /* \"#utility.yul\":15278:15281   */\n      dup4\n        /* \"#utility.yul\":15219:15286   */\n      tag_267\n      jump\t// in\n    tag_436:\n        /* \"#utility.yul\":15212:15286   */\n      swap2\n      pop\n        /* \"#utility.yul\":15295:15388   */\n      tag_437\n        /* \"#utility.yul\":15384:15387   */\n      dup3\n        /* \"#utility.yul\":15295:15388   */\n      tag_293\n      jump\t// in\n    tag_437:\n        /* \"#utility.yul\":15413:15415   */\n      0x20\n        /* \"#utility.yul\":15408:15411   */\n      dup3\n        /* \"#utility.yul\":15404:15416   */\n      add\n        /* \"#utility.yul\":15397:15416   */\n      swap1\n      pop\n        /* \"#utility.yul\":15056:15422   */\n      swap2\n      swap1\n      pop\n      jump\t// out\n        /* \"#utility.yul\":15428:15847   */\n    tag_121:\n        /* \"#utility.yul\":15594:15598   */\n      0x00\n        /* \"#utility.yul\":15632:15634   */\n      0x20\n        /* \"#utility.yul\":15621:15630   */\n      dup3\n        /* \"#utility.yul\":15617:15635   */\n      add\n        /* \"#utility.yul\":15609:15635   */\n      swap1\n      pop\n        /* \"#utility.yul\":15681:15690   */\n      dup2\n        /* \"#utility.yul\":15675:15679   */\n      dup2\n        /* \"#utility.yul\":15671:15691   */\n      sub\n        /* \"#utility.yul\":15667:15668   */\n      0x00\n        /* \"#utility.yul\":15656:15665   */\n      dup4\n        /* \"#utility.yul\":15652:15669   */\n      add\n        /* \"#utility.yul\":15645:15692   */\n      mstore\n        /* \"#utility.yul\":15709:15840   */\n      tag_439\n        /* \"#utility.yul\":15835:15839   */\n      dup2\n        /* \"#utility.yul\":15709:15840   */\n      tag_294\n      jump\t// in\n    tag_439:\n        /* \"#utility.yul\":15701:15840   */\n      swap1\n      pop\n        /* \"#utility.yul\":15428:15847   */\n      swap2\n      swap1\n      pop\n      jump\t// out\n        /* \"#utility.yul\":15853:16013   */\n    tag_295:\n        /* \"#utility.yul\":15993:16005   */\n      0x43616e6e6f742068697400000000000000000000000000000000000000000000\n        /* \"#utility.yul\":15989:15990   */\n      0x00\n        /* \"#utility.yul\":15981:15987   */\n      dup3\n        /* \"#utility.yul\":15977:15991   */\n      add\n        /* \"#utility.yul\":15970:16006   */\n      mstore\n        /* \"#utility.yul\":15853:16013   */\n      pop\n      jump\t// out\n        /* \"#utility.yul\":16019:16385   */\n    tag_296:\n        /* \"#utility.yul\":16161:16164   */\n      0x00\n        /* \"#utility.yul\":16182:16249   */\n      tag_442\n        /* \"#utility.yul\":16246:16248   */\n      0x0a\n        /* \"#utility.yul\":16241:16244   */\n      dup4\n        /* \"#utility.yul\":16182:16249   */\n      tag_267\n      jump\t// in\n    tag_442:\n        /* \"#utility.yul\":16175:16249   */\n      swap2\n      pop\n        /* \"#utility.yul\":16258:16351   */\n      tag_443\n        /* \"#utility.yul\":16347:16350   */\n      dup3\n        /* \"#utility.yul\":16258:16351   */\n      tag_295\n      jump\t// in\n    tag_443:\n        /* \"#utility.yul\":16376:16378   */\n      0x20\n        /* \"#utility.yul\":16371:16374   */\n      dup3\n        /* \"#utility.yul\":16367:16379   */\n      add\n        /* \"#utility.yul\":16360:16379   */\n      swap1\n      pop\n        /* \"#utility.yul\":16019:16385   */\n      swap2\n      swap1\n      pop\n      jump\t// out\n        /* \"#utility.yul\":16391:16810   */\n    tag_124:\n        /* \"#utility.yul\":16557:16561   */\n      0x00\n        /* \"#utility.yul\":16595:16597   */\n      0x20\n        /* \"#utility.yul\":16584:16593   */\n      dup3\n        /* \"#utility.yul\":16580:16598   */\n      add\n        /* \"#utility.yul\":16572:16598   */\n      swap1\n      pop\n        /* \"#utility.yul\":16644:16653   */\n      dup2\n        /* \"#utility.yul\":16638:16642   */\n      dup2\n        /* \"#utility.yul\":16634:16654   */\n      sub\n        /* \"#utility.yul\":16630:16631   */\n      0x00\n        /* \"#utility.yul\":16619:16628   */\n      dup4\n        /* \"#utility.yul\":16615:16632   */\n      add\n        /* \"#utility.yul\":16608:16655   */\n      mstore\n        /* \"#utility.yul\":16672:16803   */\n      tag_445\n        /* \"#utility.yul\":16798:16802   */\n      dup2\n        /* \"#utility.yul\":16672:16803   */\n      tag_296\n      jump\t// in\n    tag_445:\n        /* \"#utility.yul\":16664:16803   */\n      swap1\n      pop\n        /* \"#utility.yul\":16391:16810   */\n      swap2\n      swap1\n      pop\n      jump\t// out\n        /* \"#utility.yul\":16816:16993   */\n    tag_297:\n        /* \"#utility.yul\":16956:16985   */\n      0x4f6e6c7920746865206465616c65722063616e2073687566666c650000000000\n        /* \"#utility.yul\":16952:16953   */\n      0x00\n        /* \"#utility.yul\":16944:16950   */\n      dup3\n        /* \"#utility.yul\":16940:16954   */\n      add\n        /* \"#utility.yul\":16933:16986   */\n      mstore\n        /* \"#utility.yul\":16816:16993   */\n      pop\n      jump\t// out\n        /* \"#utility.yul\":16999:17365   */\n    tag_298:\n        /* \"#utility.yul\":17141:17144   */\n      0x00\n        /* \"#utility.yul\":17162:17229   */\n      tag_448\n        /* \"#utility.yul\":17226:17228   */\n      0x1b\n        /* \"#utility.yul\":17221:17224   */\n      dup4\n        /* \"#utility.yul\":17162:17229   */\n      tag_267\n      jump\t// in\n    tag_448:\n        /* \"#utility.yul\":17155:17229   */\n      swap2\n      pop\n        /* \"#utility.yul\":17238:17331   */\n      tag_449\n        /* \"#utility.yul\":17327:17330   */\n      dup3\n        /* \"#utility.yul\":17238:17331   */\n      tag_297\n      jump\t// in\n    tag_449:\n        /* \"#utility.yul\":17356:17358   */\n      0x20\n        /* \"#utility.yul\":17351:17354   */\n      dup3\n        /* \"#utility.yul\":17347:17359   */\n      add\n        /* \"#utility.yul\":17340:17359   */\n      swap1\n      pop\n        /* \"#utility.yul\":16999:17365   */\n      swap2\n      swap1\n      pop\n      jump\t// out\n        /* \"#utility.yul\":17371:17790   */\n    tag_144:\n        /* \"#utility.yul\":17537:17541   */\n      0x00\n        /* \"#utility.yul\":17575:17577   */\n      0x20\n        /* \"#utility.yul\":17564:17573   */\n      dup3\n        /* \"#utility.yul\":17560:17578   */\n      add\n        /* \"#utility.yul\":17552:17578   */\n      swap1\n      pop\n        /* \"#utility.yul\":17624:17633   */\n      dup2\n        /* \"#utility.yul\":17618:17622   */\n      dup2\n        /* \"#utility.yul\":17614:17634   */\n      sub\n        /* \"#utility.yul\":17610:17611   */\n      0x00\n        /* \"#utility.yul\":17599:17608   */\n      dup4\n        /* \"#utility.yul\":17595:17612   */\n      add\n        /* \"#utility.yul\":17588:17635   */\n      mstore\n        /* \"#utility.yul\":17652:17783   */\n      tag_451\n        /* \"#utility.yul\":17778:17782   */\n      dup2\n        /* \"#utility.yul\":17652:17783   */\n      tag_298\n      jump\t// in\n    tag_451:\n        /* \"#utility.yul\":17644:17783   */\n      swap1\n      pop\n        /* \"#utility.yul\":17371:17790   */\n      swap2\n      swap1\n      pop\n      jump\t// out\n        /* \"#utility.yul\":17796:17976   */\n    tag_299:\n        /* \"#utility.yul\":17936:17968   */\n      0x4465636b2068617320616c7265616479206265656e2073687566666c65640000\n        /* \"#utility.yul\":17932:17933   */\n      0x00\n        /* \"#utility.yul\":17924:17930   */\n      dup3\n        /* \"#utility.yul\":17920:17934   */\n      add\n        /* \"#utility.yul\":17913:17969   */\n      mstore\n        /* \"#utility.yul\":17796:17976   */\n      pop\n      jump\t// out\n        /* \"#utility.yul\":17982:18348   */\n    tag_300:\n        /* \"#utility.yul\":18124:18127   */\n      0x00\n        /* \"#utility.yul\":18145:18212   */\n      tag_454\n        /* \"#utility.yul\":18209:18211   */\n      0x1e\n        /* \"#utility.yul\":18204:18207   */\n      dup4\n        /* \"#utility.yul\":18145:18212   */\n      tag_267\n      jump\t// in\n    tag_454:\n        /* \"#utility.yul\":18138:18212   */\n      swap2\n      pop\n        /* \"#utility.yul\":18221:18314   */\n      tag_455\n        /* \"#utility.yul\":18310:18313   */\n      dup3\n        /* \"#utility.yul\":18221:18314   */\n      tag_299\n      jump\t// in\n    tag_455:\n        /* \"#utility.yul\":18339:18341   */\n      0x20\n        /* \"#utility.yul\":18334:18337   */\n      dup3\n        /* \"#utility.yul\":18330:18342   */\n      add\n        /* \"#utility.yul\":18323:18342   */\n      swap1\n      pop\n        /* \"#utility.yul\":17982:18348   */\n      swap2\n      swap1\n      pop\n      jump\t// out\n        /* \"#utility.yul\":18354:18773   */\n    tag_147:\n        /* \"#utility.yul\":18520:18524   */\n      0x00\n        /* \"#utility.yul\":18558:18560   */\n      0x20\n        /* \"#utility.yul\":18547:18556   */\n      dup3\n        /* \"#utility.yul\":18543:18561   */\n      add\n        /* \"#utility.yul\":18535:18561   */\n      swap1\n      pop\n        /* \"#utility.yul\":18607:18616   */\n      dup2\n        /* \"#utility.yul\":18601:18605   */\n      dup2\n        /* \"#utility.yul\":18597:18617   */\n      sub\n        /* \"#utility.yul\":18593:18594   */\n      0x00\n        /* \"#utility.yul\":18582:18591   */\n      dup4\n        /* \"#utility.yul\":18578:18595   */\n      add\n        /* \"#utility.yul\":18571:18618   */\n      mstore\n        /* \"#utility.yul\":18635:18766   */\n      tag_457\n        /* \"#utility.yul\":18761:18765   */\n      dup2\n        /* \"#utility.yul\":18635:18766   */\n      tag_300\n      jump\t// in\n    tag_457:\n        /* \"#utility.yul\":18627:18766   */\n      swap1\n      pop\n        /* \"#utility.yul\":18354:18773   */\n      swap2\n      swap1\n      pop\n      jump\t// out\n        /* \"#utility.yul\":18779:18959   */\n    tag_153:\n        /* \"#utility.yul\":18827:18904   */\n      0x4e487b7100000000000000000000000000000000000000000000000000000000\n        /* \"#utility.yul\":18824:18825   */\n      0x00\n        /* \"#utility.yul\":18817:18905   */\n      mstore\n        /* \"#utility.yul\":18924:18928   */\n      0x32\n        /* \"#utility.yul\":18921:18922   */\n      0x04\n        /* \"#utility.yul\":18914:18929   */\n      mstore\n        /* \"#utility.yul\":18948:18952   */\n      0x24\n        /* \"#utility.yul\":18945:18946   */\n      0x00\n        /* \"#utility.yul\":18938:18953   */\n      revert\n        /* \"#utility.yul\":18965:19159   */\n    tag_159:\n        /* \"#utility.yul\":19005:19009   */\n      0x00\n        /* \"#utility.yul\":19025:19045   */\n      tag_460\n        /* \"#utility.yul\":19043:19044   */\n      dup3\n        /* \"#utility.yul\":19025:19045   */\n      tag_255\n      jump\t// in\n    tag_460:\n        /* \"#utility.yul\":19020:19045   */\n      swap2\n      pop\n        /* \"#utility.yul\":19059:19079   */\n      tag_461\n        /* \"#utility.yul\":19077:19078   */\n      dup4\n        /* \"#utility.yul\":19059:19079   */\n      tag_255\n      jump\t// in\n    tag_461:\n        /* \"#utility.yul\":19054:19079   */\n      swap3\n      pop\n        /* \"#utility.yul\":19103:19104   */\n      dup3\n        /* \"#utility.yul\":19100:19101   */\n      dup3\n        /* \"#utility.yul\":19096:19105   */\n      sub\n        /* \"#utility.yul\":19088:19105   */\n      swap1\n      pop\n        /* \"#utility.yul\":19127:19128   */\n      dup2\n        /* \"#utility.yul\":19121:19125   */\n      dup2\n        /* \"#utility.yul\":19118:19129   */\n      gt\n        /* \"#utility.yul\":19115:19152   */\n      iszero\n      tag_462\n      jumpi\n        /* \"#utility.yul\":19132:19150   */\n      tag_463\n      tag_270\n      jump\t// in\n    tag_463:\n        /* \"#utility.yul\":19115:19152   */\n    tag_462:\n        /* \"#utility.yul\":18965:19159   */\n      swap3\n      swap2\n      pop\n      pop\n      jump\t// out\n        /* \"#utility.yul\":19165:19345   */\n    tag_301:\n        /* \"#utility.yul\":19213:19290   */\n      0x4e487b7100000000000000000000000000000000000000000000000000000000\n        /* \"#utility.yul\":19210:19211   */\n      0x00\n        /* \"#utility.yul\":19203:19291   */\n      mstore\n        /* \"#utility.yul\":19310:19314   */\n      0x12\n        /* \"#utility.yul\":19307:19308   */\n      0x04\n        /* \"#utility.yul\":19300:19315   */\n      mstore\n        /* \"#utility.yul\":19334:19338   */\n      0x24\n        /* \"#utility.yul\":19331:19332   */\n      0x00\n        /* \"#utility.yul\":19324:19339   */\n      revert\n        /* \"#utility.yul\":19351:19527   */\n    tag_161:\n        /* \"#utility.yul\":19383:19384   */\n      0x00\n        /* \"#utility.yul\":19400:19420   */\n      tag_466\n        /* \"#utility.yul\":19418:19419   */\n      dup3\n        /* \"#utility.yul\":19400:19420   */\n      tag_255\n      jump\t// in\n    tag_466:\n        /* \"#utility.yul\":19395:19420   */\n      swap2\n      pop\n        /* \"#utility.yul\":19434:19454   */\n      tag_467\n        /* \"#utility.yul\":19452:19453   */\n      dup4\n        /* \"#utility.yul\":19434:19454   */\n      tag_255\n      jump\t// in\n    tag_467:\n        /* \"#utility.yul\":19429:19454   */\n      swap3\n      pop\n        /* \"#utility.yul\":19473:19474   */\n      dup3\n        /* \"#utility.yul\":19463:19498   */\n      tag_468\n      jumpi\n        /* \"#utility.yul\":19478:19496   */\n      tag_469\n      tag_301\n      jump\t// in\n    tag_469:\n        /* \"#utility.yul\":19463:19498   */\n    tag_468:\n        /* \"#utility.yul\":19519:19520   */\n      dup3\n        /* \"#utility.yul\":19516:19517   */\n      dup3\n        /* \"#utility.yul\":19512:19521   */\n      mod\n        /* \"#utility.yul\":19507:19521   */\n      swap1\n      pop\n        /* \"#utility.yul\":19351:19527   */\n      swap3\n      swap2\n      pop\n      pop\n      jump\t// out\n        /* \"#utility.yul\":19533:19724   */\n    tag_163:\n        /* \"#utility.yul\":19573:19576   */\n      0x00\n        /* \"#utility.yul\":19592:19612   */\n      tag_471\n        /* \"#utility.yul\":19610:19611   */\n      dup3\n        /* \"#utility.yul\":19592:19612   */\n      tag_255\n      jump\t// in\n    tag_471:\n        /* \"#utility.yul\":19587:19612   */\n      swap2\n      pop\n        /* \"#utility.yul\":19626:19646   */\n      tag_472\n        /* \"#utility.yul\":19644:19645   */\n      dup4\n        /* \"#utility.yul\":19626:19646   */\n      tag_255\n      jump\t// in\n    tag_472:\n        /* \"#utility.yul\":19621:19646   */\n      swap3\n      pop\n        /* \"#utility.yul\":19669:19670   */\n      dup3\n        /* \"#utility.yul\":19666:19667   */\n      dup3\n        /* \"#utility.yul\":19662:19671   */\n      add\n        /* \"#utility.yul\":19655:19671   */\n      swap1\n      pop\n        /* \"#utility.yul\":19690:19693   */\n      dup1\n        /* \"#utility.yul\":19687:19688   */\n      dup3\n        /* \"#utility.yul\":19684:19694   */\n      gt\n        /* \"#utility.yul\":19681:19717   */\n      iszero\n      tag_473\n      jumpi\n        /* \"#utility.yul\":19697:19715   */\n      tag_474\n      tag_270\n      jump\t// in\n    tag_474:\n        /* \"#utility.yul\":19681:19717   */\n    tag_473:\n        /* \"#utility.yul\":19533:19724   */\n      swap3\n      swap2\n      pop\n      pop\n      jump\t// out\n        /* \"#utility.yul\":19730:20140   */\n    tag_193:\n        /* \"#utility.yul\":19770:19777   */\n      0x00\n        /* \"#utility.yul\":19793:19813   */\n      tag_476\n        /* \"#utility.yul\":19811:19812   */\n      dup3\n        /* \"#utility.yul\":19793:19813   */\n      tag_255\n      jump\t// in\n    tag_476:\n        /* \"#utility.yul\":19788:19813   */\n      swap2\n      pop\n        /* \"#utility.yul\":19827:19847   */\n      tag_477\n        /* \"#utility.yul\":19845:19846   */\n      dup4\n        /* \"#utility.yul\":19827:19847   */\n      tag_255\n      jump\t// in\n    tag_477:\n        /* \"#utility.yul\":19822:19847   */\n      swap3\n      pop\n        /* \"#utility.yul\":19882:19883   */\n      dup3\n        /* \"#utility.yul\":19879:19880   */\n      dup3\n        /* \"#utility.yul\":19875:19884   */\n      mul\n        /* \"#utility.yul\":19904:19934   */\n      tag_478\n        /* \"#utility.yul\":19922:19933   */\n      dup2\n        /* \"#utility.yul\":19904:19934   */\n      tag_255\n      jump\t// in\n    tag_478:\n        /* \"#utility.yul\":19893:19934   */\n      swap2\n      pop\n        /* \"#utility.yul\":20083:20084   */\n      dup3\n        /* \"#utility.yul\":20074:20081   */\n      dup3\n        /* \"#utility.yul\":20070:20085   */\n      div\n        /* \"#utility.yul\":20067:20068   */\n      dup5\n        /* \"#utility.yul\":20064:20086   */\n      eq\n        /* \"#utility.yul\":20044:20045   */\n      dup4\n        /* \"#utility.yul\":20037:20046   */\n      iszero\n        /* \"#utility.yul\":20017:20100   */\n      or\n        /* \"#utility.yul\":19994:20133   */\n      tag_479\n      jumpi\n        /* \"#utility.yul\":20113:20131   */\n      tag_480\n      tag_270\n      jump\t// in\n    tag_480:\n        /* \"#utility.yul\":19994:20133   */\n    tag_479:\n        /* \"#utility.yul\":19778:20140   */\n      pop\n        /* \"#utility.yul\":19730:20140   */\n      swap3\n      swap2\n      pop\n      pop\n      jump\t// out\n        /* \"#utility.yul\":20146:20232   */\n    tag_302:\n        /* \"#utility.yul\":20181:20188   */\n      0x00\n        /* \"#utility.yul\":20221:20225   */\n      0xff\n        /* \"#utility.yul\":20214:20219   */\n      dup3\n        /* \"#utility.yul\":20210:20226   */\n      and\n        /* \"#utility.yul\":20199:20226   */\n      swap1\n      pop\n        /* \"#utility.yul\":20146:20232   */\n      swap2\n      swap1\n      pop\n      jump\t// out\n        /* \"#utility.yul\":20238:20408   */\n    tag_219:\n        /* \"#utility.yul\":20268:20269   */\n      0x00\n        /* \"#utility.yul\":20285:20303   */\n      tag_483\n        /* \"#utility.yul\":20301:20302   */\n      dup3\n        /* \"#utility.yul\":20285:20303   */\n      tag_302\n      jump\t// in\n    tag_483:\n        /* \"#utility.yul\":20280:20303   */\n      swap2\n      pop\n        /* \"#utility.yul\":20317:20335   */\n      tag_484\n        /* \"#utility.yul\":20333:20334   */\n      dup4\n        /* \"#utility.yul\":20317:20335   */\n      tag_302\n      jump\t// in\n    tag_484:\n        /* \"#utility.yul\":20312:20335   */\n      swap3\n      pop\n        /* \"#utility.yul\":20354:20355   */\n      dup3\n        /* \"#utility.yul\":20344:20379   */\n      tag_485\n      jumpi\n        /* \"#utility.yul\":20359:20377   */\n      tag_486\n      tag_301\n      jump\t// in\n    tag_486:\n        /* \"#utility.yul\":20344:20379   */\n    tag_485:\n        /* \"#utility.yul\":20400:20401   */\n      dup3\n        /* \"#utility.yul\":20397:20398   */\n      dup3\n        /* \"#utility.yul\":20393:20402   */\n      mod\n        /* \"#utility.yul\":20388:20402   */\n      swap1\n      pop\n        /* \"#utility.yul\":20238:20408   */\n      swap3\n      swap2\n      pop\n      pop\n      jump\t// out\n        /* \"#utility.yul\":20414:20602   */\n    tag_221:\n        /* \"#utility.yul\":20452:20455   */\n      0x00\n        /* \"#utility.yul\":20471:20489   */\n      tag_488\n        /* \"#utility.yul\":20487:20488   */\n      dup3\n        /* \"#utility.yul\":20471:20489   */\n      tag_302\n      jump\t// in\n    tag_488:\n        /* \"#utility.yul\":20466:20489   */\n      swap2\n      pop\n        /* \"#utility.yul\":20503:20521   */\n      tag_489\n        /* \"#utility.yul\":20519:20520   */\n      dup4\n        /* \"#utility.yul\":20503:20521   */\n      tag_302\n      jump\t// in\n    tag_489:\n        /* \"#utility.yul\":20498:20521   */\n      swap3\n      pop\n        /* \"#utility.yul\":20544:20545   */\n      dup3\n        /* \"#utility.yul\":20541:20542   */\n      dup3\n        /* \"#utility.yul\":20537:20546   */\n      add\n        /* \"#utility.yul\":20530:20546   */\n      swap1\n      pop\n        /* \"#utility.yul\":20567:20571   */\n      0xff\n        /* \"#utility.yul\":20562:20565   */\n      dup2\n        /* \"#utility.yul\":20559:20572   */\n      gt\n        /* \"#utility.yul\":20556:20595   */\n      iszero\n      tag_490\n      jumpi\n        /* \"#utility.yul\":20575:20593   */\n      tag_491\n      tag_270\n      jump\t// in\n    tag_491:\n        /* \"#utility.yul\":20556:20595   */\n    tag_490:\n        /* \"#utility.yul\":20414:20602   */\n      swap3\n      swap2\n      pop\n      pop\n      jump\t// out\n        /* \"#utility.yul\":20608:20775   */\n    tag_224:\n        /* \"#utility.yul\":20645:20648   */\n      0x00\n        /* \"#utility.yul\":20668:20690   */\n      tag_493\n        /* \"#utility.yul\":20684:20689   */\n      dup3\n        /* \"#utility.yul\":20668:20690   */\n      tag_302\n      jump\t// in\n    tag_493:\n        /* \"#utility.yul\":20659:20690   */\n      swap2\n      pop\n        /* \"#utility.yul\":20712:20716   */\n      0xff\n        /* \"#utility.yul\":20705:20710   */\n      dup3\n        /* \"#utility.yul\":20702:20717   */\n      sub\n        /* \"#utility.yul\":20699:20740   */\n      tag_494\n      jumpi\n        /* \"#utility.yul\":20720:20738   */\n      tag_495\n      tag_270\n      jump\t// in\n    tag_495:\n        /* \"#utility.yul\":20699:20740   */\n    tag_494:\n        /* \"#utility.yul\":20767:20768   */\n      0x01\n        /* \"#utility.yul\":20760:20765   */\n      dup3\n        /* \"#utility.yul\":20756:20769   */\n      add\n        /* \"#utility.yul\":20749:20769   */\n      swap1\n      pop\n        /* \"#utility.yul\":20608:20775   */\n      swap2\n      swap1\n      pop\n      jump\t// out\n        /* \"#utility.yul\":20781:20893   */\n    tag_303:\n        /* \"#utility.yul\":20864:20886   */\n      tag_497\n        /* \"#utility.yul\":20880:20885   */\n      dup2\n        /* \"#utility.yul\":20864:20886   */\n      tag_302\n      jump\t// in\n    tag_497:\n        /* \"#utility.yul\":20859:20862   */\n      dup3\n        /* \"#utility.yul\":20852:20887   */\n      mstore\n        /* \"#utility.yul\":20781:20893   */\n      pop\n      pop\n      jump\t// out\n        /* \"#utility.yul\":20899:21223   */\n    tag_226:\n        /* \"#utility.yul\":21016:21020   */\n      0x00\n        /* \"#utility.yul\":21054:21056   */\n      0x40\n        /* \"#utility.yul\":21043:21052   */\n      dup3\n        /* \"#utility.yul\":21039:21057   */\n      add\n        /* \"#utility.yul\":21031:21057   */\n      swap1\n      pop\n        /* \"#utility.yul\":21067:21138   */\n      tag_499\n        /* \"#utility.yul\":21135:21136   */\n      0x00\n        /* \"#utility.yul\":21124:21133   */\n      dup4\n        /* \"#utility.yul\":21120:21137   */\n      add\n        /* \"#utility.yul\":21111:21117   */\n      dup6\n        /* \"#utility.yul\":21067:21138   */\n      tag_272\n      jump\t// in\n    tag_499:\n        /* \"#utility.yul\":21148:21216   */\n      tag_500\n        /* \"#utility.yul\":21212:21214   */\n      0x20\n        /* \"#utility.yul\":21201:21210   */\n      dup4\n        /* \"#utility.yul\":21197:21215   */\n      add\n        /* \"#utility.yul\":21188:21194   */\n      dup5\n        /* \"#utility.yul\":21148:21216   */\n      tag_303\n      jump\t// in\n    tag_500:\n        /* \"#utility.yul\":20899:21223   */\n      swap4\n      swap3\n      pop\n      pop\n      pop\n      jump\t// out\n        /* \"#utility.yul\":21229:21561   */\n    tag_243:\n        /* \"#utility.yul\":21350:21354   */\n      0x00\n        /* \"#utility.yul\":21388:21390   */\n      0x40\n        /* \"#utility.yul\":21377:21386   */\n      dup3\n        /* \"#utility.yul\":21373:21391   */\n      add\n        /* \"#utility.yul\":21365:21391   */\n      swap1\n      pop\n        /* \"#utility.yul\":21401:21472   */\n      tag_502\n        /* \"#utility.yul\":21469:21470   */\n      0x00\n        /* \"#utility.yul\":21458:21467   */\n      dup4\n        /* \"#utility.yul\":21454:21471   */\n      add\n        /* \"#utility.yul\":21445:21451   */\n      dup6\n        /* \"#utility.yul\":21401:21472   */\n      tag_272\n      jump\t// in\n    tag_502:\n        /* \"#utility.yul\":21482:21554   */\n      tag_503\n        /* \"#utility.yul\":21550:21552   */\n      0x20\n        /* \"#utility.yul\":21539:21548   */\n      dup4\n        /* \"#utility.yul\":21535:21553   */\n      add\n        /* \"#utility.yul\":21526:21532   */\n      dup5\n        /* \"#utility.yul\":21482:21554   */\n      tag_258\n      jump\t// in\n    tag_503:\n        /* \"#utility.yul\":21229:21561   */\n      swap4\n      swap3\n      pop\n      pop\n      pop\n      jump\t// out\n        /* \"#utility.yul\":21567:21682   */\n    tag_304:\n        /* \"#utility.yul\":21650:21651   */\n      0x04\n        /* \"#utility.yul\":21643:21648   */\n      dup2\n        /* \"#utility.yul\":21640:21652   */\n      lt\n        /* \"#utility.yul\":21630:21676   */\n      tag_505\n      jumpi\n        /* \"#utility.yul\":21656:21674   */\n      tag_506\n      tag_45\n      jump\t// in\n    tag_506:\n        /* \"#utility.yul\":21630:21676   */\n    tag_505:\n        /* \"#utility.yul\":21567:21682   */\n      pop\n      jump\t// out\n        /* \"#utility.yul\":21688:21819   */\n    tag_305:\n        /* \"#utility.yul\":21735:21742   */\n      0x00\n        /* \"#utility.yul\":21764:21769   */\n      dup2\n        /* \"#utility.yul\":21753:21769   */\n      swap1\n      pop\n        /* \"#utility.yul\":21770:21813   */\n      tag_508\n        /* \"#utility.yul\":21807:21812   */\n      dup3\n        /* \"#utility.yul\":21770:21813   */\n      tag_304\n      jump\t// in\n    tag_508:\n        /* \"#utility.yul\":21688:21819   */\n      swap2\n      swap1\n      pop\n      jump\t// out\n        /* \"#utility.yul\":21825:21956   */\n    tag_306:\n        /* \"#utility.yul\":21883:21892   */\n      0x00\n        /* \"#utility.yul\":21916:21950   */\n      tag_510\n        /* \"#utility.yul\":21944:21949   */\n      dup3\n        /* \"#utility.yul\":21916:21950   */\n      tag_305\n      jump\t// in\n    tag_510:\n        /* \"#utility.yul\":21903:21950   */\n      swap1\n      pop\n        /* \"#utility.yul\":21825:21956   */\n      swap2\n      swap1\n      pop\n      jump\t// out\n        /* \"#utility.yul\":21962:22109   */\n    tag_307:\n        /* \"#utility.yul\":22057:22102   */\n      tag_512\n        /* \"#utility.yul\":22096:22101   */\n      dup2\n        /* \"#utility.yul\":22057:22102   */\n      tag_306\n      jump\t// in\n    tag_512:\n        /* \"#utility.yul\":22052:22055   */\n      dup3\n        /* \"#utility.yul\":22045:22103   */\n      mstore\n        /* \"#utility.yul\":21962:22109   */\n      pop\n      pop\n      jump\t// out\n        /* \"#utility.yul\":22115:22463   */\n    tag_248:\n        /* \"#utility.yul\":22244:22248   */\n      0x00\n        /* \"#utility.yul\":22282:22284   */\n      0x40\n        /* \"#utility.yul\":22271:22280   */\n      dup3\n        /* \"#utility.yul\":22267:22285   */\n      add\n        /* \"#utility.yul\":22259:22285   */\n      swap1\n      pop\n        /* \"#utility.yul\":22295:22366   */\n      tag_514\n        /* \"#utility.yul\":22363:22364   */\n      0x00\n        /* \"#utility.yul\":22352:22361   */\n      dup4\n        /* \"#utility.yul\":22348:22365   */\n      add\n        /* \"#utility.yul\":22339:22345   */\n      dup6\n        /* \"#utility.yul\":22295:22366   */\n      tag_272\n      jump\t// in\n    tag_514:\n        /* \"#utility.yul\":22376:22456   */\n      tag_515\n        /* \"#utility.yul\":22452:22454   */\n      0x20\n        /* \"#utility.yul\":22441:22450   */\n      dup4\n        /* \"#utility.yul\":22437:22455   */\n      add\n        /* \"#utility.yul\":22428:22434   */\n      dup5\n        /* \"#utility.yul\":22376:22456   */\n      tag_307\n      jump\t// in\n    tag_515:\n        /* \"#utility.yul\":22115:22463   */\n      swap4\n      swap3\n      pop\n      pop\n      pop\n      jump\t// out\n\n    auxdata: 0xa2646970667358221220278c6d067823eb3b33cb9e006cda121477818b6262c95d56a4fcdb24e3b1dc6064736f6c634300081e0033\n}\n",
				"bytecode": {
					"linkReferences": {},
					"object": "608060405234801561000f575f5ffd5b5060405161203e38038061203e83398181016040528101906100319190610115565b815f5f6101000a81548173ffffffffffffffffffffffffffffffffffffffff021916908373ffffffffffffffffffffffffffffffffffffffff1602179055508060015f6101000a81548173ffffffffffffffffffffffffffffffffffffffff021916908373ffffffffffffffffffffffffffffffffffffffff1602179055505050610153565b5f5ffd5b5f73ffffffffffffffffffffffffffffffffffffffff82169050919050565b5f6100e4826100bb565b9050919050565b6100f4816100da565b81146100fe575f5ffd5b50565b5f8151905061010f816100eb565b92915050565b5f5f6040838503121561012b5761012a6100b7565b5b5f61013885828601610101565b925050602061014985828601610101565b9150509250929050565b611ede806101605f395ff3fe608060405234801561000f575f5ffd5b5060043610610086575f3560e01c8063afab107e11610059578063afab107e146100ec578063c2897b1014610108578063dae10ed514610112578063fbfa77cf1461011c57610086565b806331a56b831461008a578063566595b2146100a6578063673ee37c146100b05780637dc0d1d0146100ce575b5f5ffd5b6100a4600480360381019061009f91906113df565b61013a565b005b6100ae610363565b005b6100b861048d565b6040516100c59190611419565b60405180910390f35b6100d6610493565b6040516100e391906114ac565b60405180910390f35b610106600480360381019061010191906113df565b6104b8565b005b6101106107dc565b005b61011a610910565b005b610124610ac2565b60405161013191906114e5565b60405180910390f35b5f60035f3373ffffffffffffffffffffffffffffffffffffffff1673ffffffffffffffffffffffffffffffffffffffff1681526020019081526020015f2054146101b9576040517f08c379a00000000000000000000000000000000000000000000000000000000081526004016101b090611558565b60405180910390fd5b5f60025f8154809291906101cc906115a3565b9190505590508060035f3373ffffffffffffffffffffffffffffffffffffffff1673ffffffffffffffffffffffffffffffffffffffff1681526020019081526020015f20819055505f60045f8381526020019081526020015f20905081815f018190555033816002015f6101000a81548173ffffffffffffffffffffffffffffffffffffffff021916908373ffffffffffffffffffffffffffffffffffffffff1602179055508281600301819055505f816006015f6101000a81548160ff021916908360ff1602179055505f81600b015f6101000a81548160ff02191690831515021790555060018160060160016101000a81548160ff021916908360048111156102da576102d96115ea565b5b02179055505f81600b0160016101000a81548160ff021916908360ff1602179055505f81600b0160026101000a81548160ff021916908360ff1602179055505f81600101819055507fc3e0f84839dc888c892a013d10c8f9d6dc05a21a879d0ce468ca558013e9121c815f015433604051610356929190611637565b60405180910390a1505050565b5f60035f3373ffffffffffffffffffffffffffffffffffffffff1673ffffffffffffffffffffffffffffffffffffffff1681526020019081526020015f205490505f60045f8381526020019081526020015f20905080600b015f9054906101000a900460ff16610408576040517f08c379a00000000000000000000000000000000000000000000000000000000081526004016103ff906116a8565b60405180910390fd5b6002600481111561041c5761041b6115ea565b5b8160060160019054906101000a900460ff1660048111156104405761043f6115ea565b5b14610480576040517f08c379a000000000000000000000000000000000000000000000000000000000815260040161047790611710565b60405180910390fd5b61048981610ae6565b5050565b60025481565b60015f9054906101000a900473ffffffffffffffffffffffffffffffffffffffff1681565b64174876e80081101580156104d4575066038d7ea4c680008111155b610513576040517f08c379a000000000000000000000000000000000000000000000000000000000815260040161050a90611778565b60405180910390fd5b5f60035f3373ffffffffffffffffffffffffffffffffffffffff1673ffffffffffffffffffffffffffffffffffffffff1681526020019081526020015f205403610592576040517f08c379a0000000000000000000000000000000000000000000000000000000008152600401610589906117e0565b60405180910390fd5b5f60035f3373ffffffffffffffffffffffffffffffffffffffff1673ffffffffffffffffffffffffffffffffffffffff1681526020019081526020015f205490505f60045f8381526020019081526020015f2090505f81600101541461062d576040517f08c379a000000000000000000000000000000000000000000000000000000000815260040161062490611848565b60405180910390fd5b60016004811115610641576106406115ea565b5b8160060160019054906101000a900460ff166004811115610665576106646115ea565b5b146106a5576040517f08c379a000000000000000000000000000000000000000000000000000000000815260040161069c906118b0565b60405180910390fd5b82816001018190555060015f9054906101000a900473ffffffffffffffffffffffffffffffffffffffff1673ffffffffffffffffffffffffffffffffffffffff1663041df082826004015483600301546040518363ffffffff1660e01b81526004016107129291906118ce565b602060405180830381865afa15801561072d573d5f5f3e3d5ffd5b505050506040513d601f19601f820116820180604052508101906107519190611928565b816005018190555060028160060160016101000a81548160ff02191690836004811115610781576107806115ea565b5b021790555061078f81610b48565b7f0e97ce5f641b8a03e0f92d0b4480f849cf26a7bfdf17862c8edaf69268e60aad815f015433836001015484600501546040516107cf9493929190611962565b60405180910390a1505050565b5f60035f3373ffffffffffffffffffffffffffffffffffffffff1673ffffffffffffffffffffffffffffffffffffffff1681526020019081526020015f205490505f60045f8381526020019081526020015f20905060036004811115610845576108446115ea565b5b8160060160019054906101000a900460ff166004811115610869576108686115ea565b5b146108a9576040517f08c379a00000000000000000000000000000000000000000000000000000000081526004016108a0906119ef565b60405180910390fd5b60028160060160016101000a81548160ff021916908360048111156108d1576108d06115ea565b5b02179055505b601181600b0160029054906101000a900460ff1660ff161015610902576108fd81610dac565b6108d7565b61090b81610e34565b505050565b5f60035f3373ffffffffffffffffffffffffffffffffffffffff1673ffffffffffffffffffffffffffffffffffffffff1681526020019081526020015f205490505f60045f8381526020019081526020015f209050600480811115610978576109776115ea565b5b8160060160019054906101000a900460ff16600481111561099c5761099b6115ea565b5b036109dc576040517f08c379a00000000000000000000000000000000000000000000000000000000081526004016109d390611a57565b60405180910390fd5b600360048111156109f0576109ef6115ea565b5b8160060160019054906101000a900460ff166004811115610a1457610a136115ea565b5b14610a54576040517f08c379a0000000000000000000000000000000000000000000000000000000008152600401610a4b90611abf565b60405180910390fd5b601581600b0160019054906101000a900460ff1660ff1610610aab576040517f08c379a0000000000000000000000000000000000000000000000000000000008152600401610aa290611b27565b60405180910390fd5b610ab481610fa7565b610abd81610e34565b505050565b5f5f9054906101000a900473ffffffffffffffffffffffffffffffffffffffff1681565b610aef81610fa7565b610af881610dac565b610b0181610fa7565b610b0a81610dac565b610b1381610e34565b610b455760038160060160016101000a81548160ff02191690836004811115610b3f57610b3e6115ea565b5b02179055505b50565b60026004811115610b5c57610b5b6115ea565b5b8160060160019054906101000a900460ff166004811115610b8057610b7f6115ea565b5b14610bc0576040517f08c379a0000000000000000000000000000000000000000000000000000000008152600401610bb790611b8f565b60405180910390fd5b5f151581600b015f9054906101000a900460ff16151514610c16576040517f08c379a0000000000000000000000000000000000000000000000000000000008152600401610c0d90611bf7565b60405180910390fd5b5f5f90505b606860ff168160ff161015610c715780826007018260ff1660688110610c4457610c43611c15565b5b602091828204019190066101000a81548160ff021916908360ff1602179055508080600101915050610c1b565b505f5f90505b606860ff16811015610d8c575f81606860ff16610c949190611c42565b83600501545f1c610ca59190611ca2565b82610cb09190611cd2565b9050826007018160688110610cc857610cc7611c15565b5b602091828204019190069054906101000a900460ff16836007018360688110610cf457610cf3611c15565b5b602091828204019190069054906101000a900460ff16846007018460688110610d2057610d1f611c15565b5b60209182820401919006866007018560688110610d4057610d3f611c15565b5b602091828204019190068491906101000a81548160ff021916908360ff1602179055508391906101000a81548160ff021916908360ff1602179055505050508080600101915050610c77565b50600181600b015f6101000a81548160ff02191690831515021790555050565b60026004811115610dc057610dbf6115ea565b5b8160060160019054906101000a900460ff166004811115610de457610de36115ea565b5b14610ded575f5ffd5b5f610df782610fee565b9050610e148183600b0160029054906101000a900460ff1661114d565b82600b0160026101000a81548160ff021916908360ff1602179055505050565b5f601582600b0160019054906101000a900460ff1660ff161115610e6757610e5e8260025f6111a2565b60019050610fa2565b601582600b0160029054906101000a900460ff1660ff161115610ea957610ea082600160028560010154610e9b9190611d05565b6111a2565b60019050610fa2565b610ec382600b0160019054906101000a900460ff1661137c565b8015610ee65750610ee482600b0160029054906101000a900460ff1661137c565b155b15610f1057610f0782600160028560010154610f029190611d05565b6111a2565b60019050610fa2565b610f2a82600b0160019054906101000a900460ff1661137c565b8015610f4c5750610f4b82600b0160029054906101000a900460ff1661137c565b5b15610f6a57610f6182600384600101546111a2565b60019050610fa2565b610f8482600b0160029054906101000a900460ff1661137c565b15610f9e57610f958260025f6111a2565b60019050610fa2565b5f90505b919050565b5f610fb182610fee565b9050610fce8183600b0160019054906101000a900460ff1661114d565b82600b0160016101000a81548160ff021916908360ff1602179055505050565b5f81600b015f9054906101000a900460ff1661103f576040517f08c379a0000000000000000000000000000000000000000000000000000000008152600401611036906116a8565b60405180910390fd5b5f82600701836006015f9054906101000a900460ff1660ff166068811061106957611068611c15565b5b602091828204019190069054906101000a900460ff1690505f6001600d836110919190611d52565b61109b9190611d82565b9050600a8160ff1611156110ae57600a90505b836006015f81819054906101000a900460ff16809291906110ce90611db6565b91906101000a81548160ff021916908360ff160217905550507f5cb494422aec3c1d66ad0616d3f90f8641e12057560336165c27bf8793fce9cf846002015f9054906101000a900473ffffffffffffffffffffffffffffffffffffffff168360405161113b929190611ded565b60405180910390a18092505050919050565b5f5f828461115b9190611d82565b90506111668461138b565b156111945760158160ff16111561118b576001836111849190611d82565b925061118f565b8092505b611198565b8092505b8291505092915050565b818360060160026101000a81548160ff021916908360038111156111c9576111c86115ea565b5b021790555060048360060160016101000a81548160ff021916908360048111156111f6576111f56115ea565b5b02179055505f8111156112af575f5f9054906101000a900473ffffffffffffffffffffffffffffffffffffffff1673ffffffffffffffffffffffffffffffffffffffff1663117de2fd846002015f9054906101000a900473ffffffffffffffffffffffffffffffffffffffff16836040518363ffffffff1660e01b8152600401611281929190611e14565b5f604051808303815f87803b158015611298575f5ffd5b505af11580156112aa573d5f5f3e3d5ffd5b505050505b60035f846002015f9054906101000a900473ffffffffffffffffffffffffffffffffffffffff1673ffffffffffffffffffffffffffffffffffffffff1673ffffffffffffffffffffffffffffffffffffffff1681526020019081526020015f205f90555f83600101819055507fecdab0d30ae5a2b8d283acf9ed4856306f12f29ef8069fac9148d3d2ac6b4b14836002015f9054906101000a900473ffffffffffffffffffffffffffffffffffffffff168360405161136f929190611e81565b60405180910390a1505050565b5f60158260ff16149050919050565b5f60018260ff1614806113a15750600b8260ff16145b9050919050565b5f5ffd5b5f819050919050565b6113be816113ac565b81146113c8575f5ffd5b50565b5f813590506113d9816113b5565b92915050565b5f602082840312156113f4576113f36113a8565b5b5f611401848285016113cb565b91505092915050565b611413816113ac565b82525050565b5f60208201905061142c5f83018461140a565b92915050565b5f73ffffffffffffffffffffffffffffffffffffffff82169050919050565b5f819050919050565b5f61147461146f61146a84611432565b611451565b611432565b9050919050565b5f6114858261145a565b9050919050565b5f6114968261147b565b9050919050565b6114a68161148c565b82525050565b5f6020820190506114bf5f83018461149d565b92915050565b5f6114cf8261147b565b9050919050565b6114df816114c5565b82525050565b5f6020820190506114f85f8301846114d6565b92915050565b5f82825260208201905092915050565b7f47616d6520616c726561647920696e2070726f677265737300000000000000005f82015250565b5f6115426018836114fe565b915061154d8261150e565b602082019050919050565b5f6020820190508181035f83015261156f81611536565b9050919050565b7f4e487b71000000000000000000000000000000000000000000000000000000005f52601160045260245ffd5b5f6115ad826113ac565b91507fffffffffffffffffffffffffffffffffffffffffffffffffffffffffffffffff82036115df576115de611576565b5b600182019050919050565b7f4e487b71000000000000000000000000000000000000000000000000000000005f52602160045260245ffd5b5f61162182611432565b9050919050565b61163181611617565b82525050565b5f60408201905061164a5f83018561140a565b6116576020830184611628565b9392505050565b7f4465636b20686173206e6f74206265656e2073687566666c65640000000000005f82015250565b5f611692601a836114fe565b915061169d8261165e565b602082019050919050565b5f6020820190508181035f8301526116bf81611686565b9050919050565b7f4f6e6c7920746865206465616c65722063616e206465616c2068616e647300005f82015250565b5f6116fa601e836114fe565b9150611705826116c6565b602082019050919050565b5f6020820190508181035f830152611727816116ee565b9050919050565b7f426574206f7574206f662072616e67652e0000000000000000000000000000005f82015250565b5f6117626011836114fe565b915061176d8261172e565b602082019050919050565b5f6020820190508181035f83015261178f81611756565b9050919050565b7f4e6f206163746976652067616d652063757272656e746c7900000000000000005f82015250565b5f6117ca6018836114fe565b91506117d582611796565b602082019050919050565b5f6020820190508181035f8301526117f7816117be565b9050919050565b7f42657420616c726561647920706c6163656400000000000000000000000000005f82015250565b5f6118326012836114fe565b915061183d826117fe565b602082019050919050565b5f6020820190508181035f83015261185f81611826565b9050919050565b7f546f6b656e20686173206e6f74206265656e2061737369676e656400000000005f82015250565b5f61189a601b836114fe565b91506118a582611866565b602082019050919050565b5f6020820190508181035f8301526118c78161188e565b9050919050565b5f6040820190506118e15f83018561140a565b6118ee602083018461140a565b9392505050565b5f819050919050565b611907816118f5565b8114611911575f5ffd5b50565b5f81519050611922816118fe565b92915050565b5f6020828403121561193d5761193c6113a8565b5b5f61194a84828501611914565b91505092915050565b61195c816118f5565b82525050565b5f6080820190506119755f83018761140a565b6119826020830186611628565b61198f604083018561140a565b61199c6060830184611953565b95945050505050565b7f4e6f2067616d6520686173206265656e207374617274656400000000000000005f82015250565b5f6119d96018836114fe565b91506119e4826119a5565b602082019050919050565b5f6020820190508181035f830152611a06816119cd565b9050919050565b7f47616d652068617320616c72656164792066696e6973686564000000000000005f82015250565b5f611a416019836114fe565b9150611a4c82611a0d565b602082019050919050565b5f6020820190508181035f830152611a6e81611a35565b9050919050565b7f4974206973206e6f742074686520706c6179657273207475726e0000000000005f82015250565b5f611aa9601a836114fe565b9150611ab482611a75565b602082019050919050565b5f6020820190508181035f830152611ad681611a9d565b9050919050565b7f43616e6e6f7420686974000000000000000000000000000000000000000000005f82015250565b5f611b11600a836114fe565b9150611b1c82611add565b602082019050919050565b5f6020820190508181035f830152611b3e81611b05565b9050919050565b7f4f6e6c7920746865206465616c65722063616e2073687566666c6500000000005f82015250565b5f611b79601b836114fe565b9150611b8482611b45565b602082019050919050565b5f6020820190508181035f830152611ba681611b6d565b9050919050565b7f4465636b2068617320616c7265616479206265656e2073687566666c656400005f82015250565b5f611be1601e836114fe565b9150611bec82611bad565b602082019050919050565b5f6020820190508181035f830152611c0e81611bd5565b9050919050565b7f4e487b71000000000000000000000000000000000000000000000000000000005f52603260045260245ffd5b5f611c4c826113ac565b9150611c57836113ac565b9250828203905081811115611c6f57611c6e611576565b5b92915050565b7f4e487b71000000000000000000000000000000000000000000000000000000005f52601260045260245ffd5b5f611cac826113ac565b9150611cb7836113ac565b925082611cc757611cc6611c75565b5b828206905092915050565b5f611cdc826113ac565b9150611ce7836113ac565b9250828201905080821115611cff57611cfe611576565b5b92915050565b5f611d0f826113ac565b9150611d1a836113ac565b9250828202611d28816113ac565b91508282048414831517611d3f57611d3e611576565b5b5092915050565b5f60ff82169050919050565b5f611d5c82611d46565b9150611d6783611d46565b925082611d7757611d76611c75565b5b828206905092915050565b5f611d8c82611d46565b9150611d9783611d46565b9250828201905060ff811115611db057611daf611576565b5b92915050565b5f611dc082611d46565b915060ff8203611dd357611dd2611576565b5b600182019050919050565b611de781611d46565b82525050565b5f604082019050611e005f830185611628565b611e0d6020830184611dde565b9392505050565b5f604082019050611e275f830185611628565b611e34602083018461140a565b9392505050565b60048110611e4c57611e4b6115ea565b5b50565b5f819050611e5c82611e3b565b919050565b5f611e6b82611e4f565b9050919050565b611e7b81611e61565b82525050565b5f604082019050611e945f830185611628565b611ea16020830184611e72565b939250505056fea2646970667358221220278c6d067823eb3b33cb9e006cda121477818b6262c95d56a4fcdb24e3b1dc6064736f6c634300081e0033",
					"opcodes": "PUSH1 0x80 PUSH1 0x40 MSTORE CALLVALUE DUP1 ISZERO PUSH2 0xF JUMPI PUSH0 PUSH0 REVERT JUMPDEST POP PUSH1 0x40 MLOAD PUSH2 0x203E CODESIZE SUB DUP1 PUSH2 0x203E DUP4 CODECOPY DUP2 DUP2 ADD PUSH1 0x40 MSTORE DUP2 ADD SWAP1 PUSH2 0x31 SWAP2 SWAP1 PUSH2 0x115 JUMP JUMPDEST DUP2 PUSH0 PUSH0 PUSH2 0x100 EXP DUP2 SLOAD DUP2 PUSH20 0xFFFFFFFFFFFFFFFFFFFFFFFFFFFFFFFFFFFFFFFF MUL NOT AND SWAP1 DUP4 PUSH20 0xFFFFFFFFFFFFFFFFFFFFFFFFFFFFFFFFFFFFFFFF AND MUL OR SWAP1 SSTORE POP DUP1 PUSH1 0x1 PUSH0 PUSH2 0x100 EXP DUP2 SLOAD DUP2 PUSH20 0xFFFFFFFFFFFFFFFFFFFFFFFFFFFFFFFFFFFFFFFF MUL NOT AND SWAP1 DUP4 PUSH20 0xFFFFFFFFFFFFFFFFFFFFFFFFFFFFFFFFFFFFFFFF AND MUL OR SWAP1 SSTORE POP POP POP PUSH2 0x153 JUMP JUMPDEST PUSH0 PUSH0 REVERT JUMPDEST PUSH0 PUSH20 0xFFFFFFFFFFFFFFFFFFFFFFFFFFFFFFFFFFFFFFFF DUP3 AND SWAP1 POP SWAP2 SWAP1 POP JUMP JUMPDEST PUSH0 PUSH2 0xE4 DUP3 PUSH2 0xBB JUMP JUMPDEST SWAP1 POP SWAP2 SWAP1 POP JUMP JUMPDEST PUSH2 0xF4 DUP2 PUSH2 0xDA JUMP JUMPDEST DUP2 EQ PUSH2 0xFE JUMPI PUSH0 PUSH0 REVERT JUMPDEST POP JUMP JUMPDEST PUSH0 DUP2 MLOAD SWAP1 POP PUSH2 0x10F DUP2 PUSH2 0xEB JUMP JUMPDEST SWAP3 SWAP2 POP POP JUMP JUMPDEST PUSH0 PUSH0 PUSH1 0x40 DUP4 DUP6 SUB SLT ISZERO PUSH2 0x12B JUMPI PUSH2 0x12A PUSH2 0xB7 JUMP JUMPDEST JUMPDEST PUSH0 PUSH2 0x138 DUP6 DUP3 DUP7 ADD PUSH2 0x101 JUMP JUMPDEST SWAP3 POP POP PUSH1 0x20 PUSH2 0x149 DUP6 DUP3 DUP7 ADD PUSH2 0x101 JUMP JUMPDEST SWAP2 POP POP SWAP3 POP SWAP3 SWAP1 POP JUMP JUMPDEST PUSH2 0x1EDE DUP1 PUSH2 0x160 PUSH0 CODECOPY PUSH0 RETURN INVALID PUSH1 0x80 PUSH1 0x40 MSTORE CALLVALUE DUP1 ISZERO PUSH2 0xF JUMPI PUSH0 PUSH0 REVERT JUMPDEST POP PUSH1 0x4 CALLDATASIZE LT PUSH2 0x86 JUMPI PUSH0 CALLDATALOAD PUSH1 0xE0 SHR DUP1 PUSH4 0xAFAB107E GT PUSH2 0x59 JUMPI DUP1 PUSH4 0xAFAB107E EQ PUSH2 0xEC JUMPI DUP1 PUSH4 0xC2897B10 EQ PUSH2 0x108 JUMPI DUP1 PUSH4 0xDAE10ED5 EQ PUSH2 0x112 JUMPI DUP1 PUSH4 0xFBFA77CF EQ PUSH2 0x11C JUMPI PUSH2 0x86 JUMP JUMPDEST DUP1 PUSH4 0x31A56B83 EQ PUSH2 0x8A JUMPI DUP1 PUSH4 0x566595B2 EQ PUSH2 0xA6 JUMPI DUP1 PUSH4 0x673EE37C EQ PUSH2 0xB0 JUMPI DUP1 PUSH4 0x7DC0D1D0 EQ PUSH2 0xCE JUMPI JUMPDEST PUSH0 PUSH0 REVERT JUMPDEST PUSH2 0xA4 PUSH1 0x4 DUP1 CALLDATASIZE SUB DUP2 ADD SWAP1 PUSH2 0x9F SWAP2 SWAP1 PUSH2 0x13DF JUMP JUMPDEST PUSH2 0x13A JUMP JUMPDEST STOP JUMPDEST PUSH2 0xAE PUSH2 0x363 JUMP JUMPDEST STOP JUMPDEST PUSH2 0xB8 PUSH2 0x48D JUMP JUMPDEST PUSH1 0x40 MLOAD PUSH2 0xC5 SWAP2 SWAP1 PUSH2 0x1419 JUMP JUMPDEST PUSH1 0x40 MLOAD DUP1 SWAP2 SUB SWAP1 RETURN JUMPDEST PUSH2 0xD6 PUSH2 0x493 JUMP JUMPDEST PUSH1 0x40 MLOAD PUSH2 0xE3 SWAP2 SWAP1 PUSH2 0x14AC JUMP JUMPDEST PUSH1 0x40 MLOAD DUP1 SWAP2 SUB SWAP1 RETURN JUMPDEST PUSH2 0x106 PUSH1 0x4 DUP1 CALLDATASIZE SUB DUP2 ADD SWAP1 PUSH2 0x101 SWAP2 SWAP1 PUSH2 0x13DF JUMP JUMPDEST PUSH2 0x4B8 JUMP JUMPDEST STOP JUMPDEST PUSH2 0x110 PUSH2 0x7DC JUMP JUMPDEST STOP JUMPDEST PUSH2 0x11A PUSH2 0x910 JUMP JUMPDEST STOP JUMPDEST PUSH2 0x124 PUSH2 0xAC2 JUMP JUMPDEST PUSH1 0x40 MLOAD PUSH2 0x131 SWAP2 SWAP1 PUSH2 0x14E5 JUMP JUMPDEST PUSH1 0x40 MLOAD DUP1 SWAP2 SUB SWAP1 RETURN JUMPDEST PUSH0 PUSH1 0x3 PUSH0 CALLER PUSH20 0xFFFFFFFFFFFFFFFFFFFFFFFFFFFFFFFFFFFFFFFF AND PUSH20 0xFFFFFFFFFFFFFFFFFFFFFFFFFFFFFFFFFFFFFFFF AND DUP2 MSTORE PUSH1 0x20 ADD SWAP1 DUP2 MSTORE PUSH1 0x20 ADD PUSH0 KECCAK256 SLOAD EQ PUSH2 0x1B9 JUMPI PUSH1 0x40 MLOAD PUSH32 0x8C379A000000000000000000000000000000000000000000000000000000000 DUP2 MSTORE PUSH1 0x4 ADD PUSH2 0x1B0 SWAP1 PUSH2 0x1558 JUMP JUMPDEST PUSH1 0x40 MLOAD DUP1 SWAP2 SUB SWAP1 REVERT JUMPDEST PUSH0 PUSH1 0x2 PUSH0 DUP2 SLOAD DUP1 SWAP3 SWAP2 SWAP1 PUSH2 0x1CC SWAP1 PUSH2 0x15A3 JUMP JUMPDEST SWAP2 SWAP1 POP SSTORE SWAP1 POP DUP1 PUSH1 0x3 PUSH0 CALLER PUSH20 0xFFFFFFFFFFFFFFFFFFFFFFFFFFFFFFFFFFFFFFFF AND PUSH20 0xFFFFFFFFFFFFFFFFFFFFFFFFFFFFFFFFFFFFFFFF AND DUP2 MSTORE PUSH1 0x20 ADD SWAP1 DUP2 MSTORE PUSH1 0x20 ADD PUSH0 KECCAK256 DUP2 SWAP1 SSTORE POP PUSH0 PUSH1 0x4 PUSH0 DUP4 DUP2 MSTORE PUSH1 0x20 ADD SWAP1 DUP2 MSTORE PUSH1 0x20 ADD PUSH0 KECCAK256 SWAP1 POP DUP2 DUP2 PUSH0 ADD DUP2 SWAP1 SSTORE POP CALLER DUP2 PUSH1 0x2 ADD PUSH0 PUSH2 0x100 EXP DUP2 SLOAD DUP2 PUSH20 0xFFFFFFFFFFFFFFFFFFFFFFFFFFFFFFFFFFFFFFFF MUL NOT AND SWAP1 DUP4 PUSH20 0xFFFFFFFFFFFFFFFFFFFFFFFFFFFFFFFFFFFFFFFF AND MUL OR SWAP1 SSTORE POP DUP3 DUP2 PUSH1 0x3 ADD DUP2 SWAP1 SSTORE POP PUSH0 DUP2 PUSH1 0x6 ADD PUSH0 PUSH2 0x100 EXP DUP2 SLOAD DUP2 PUSH1 0xFF MUL NOT AND SWAP1 DUP4 PUSH1 0xFF AND MUL OR SWAP1 SSTORE POP PUSH0 DUP2 PUSH1 0xB ADD PUSH0 PUSH2 0x100 EXP DUP2 SLOAD DUP2 PUSH1 0xFF MUL NOT AND SWAP1 DUP4 ISZERO ISZERO MUL OR SWAP1 SSTORE POP PUSH1 0x1 DUP2 PUSH1 0x6 ADD PUSH1 0x1 PUSH2 0x100 EXP DUP2 SLOAD DUP2 PUSH1 0xFF MUL NOT AND SWAP1 DUP4 PUSH1 0x4 DUP2 GT ISZERO PUSH2 0x2DA JUMPI PUSH2 0x2D9 PUSH2 0x15EA JUMP JUMPDEST JUMPDEST MUL OR SWAP1 SSTORE POP PUSH0 DUP2 PUSH1 0xB ADD PUSH1 0x1 PUSH2 0x100 EXP DUP2 SLOAD DUP2 PUSH1 0xFF MUL NOT AND SWAP1 DUP4 PUSH1 0xFF AND MUL OR SWAP1 SSTORE POP PUSH0 DUP2 PUSH1 0xB ADD PUSH1 0x2 PUSH2 0x100 EXP DUP2 SLOAD DUP2 PUSH1 0xFF MUL NOT AND SWAP1 DUP4 PUSH1 0xFF AND MUL OR SWAP1 SSTORE POP PUSH0 DUP2 PUSH1 0x1 ADD DUP2 SWAP1 SSTORE POP PUSH32 0xC3E0F84839DC888C892A013D10C8F9D6DC05A21A879D0CE468CA558013E9121C DUP2 PUSH0 ADD SLOAD CALLER PUSH1 0x40 MLOAD PUSH2 0x356 SWAP3 SWAP2 SWAP1 PUSH2 0x1637 JUMP JUMPDEST PUSH1 0x40 MLOAD DUP1 SWAP2 SUB SWAP1 LOG1 POP POP POP JUMP JUMPDEST PUSH0 PUSH1 0x3 PUSH0 CALLER PUSH20 0xFFFFFFFFFFFFFFFFFFFFFFFFFFFFFFFFFFFFFFFF AND PUSH20 0xFFFFFFFFFFFFFFFFFFFFFFFFFFFFFFFFFFFFFFFF AND DUP2 MSTORE PUSH1 0x20 ADD SWAP1 DUP2 MSTORE PUSH1 0x20 ADD PUSH0 KECCAK256 SLOAD SWAP1 POP PUSH0 PUSH1 0x4 PUSH0 DUP4 DUP2 MSTORE PUSH1 0x20 ADD SWAP1 DUP2 MSTORE PUSH1 0x20 ADD PUSH0 KECCAK256 SWAP1 POP DUP1 PUSH1 0xB ADD PUSH0 SWAP1 SLOAD SWAP1 PUSH2 0x100 EXP SWAP1 DIV PUSH1 0xFF AND PUSH2 0x408 JUMPI PUSH1 0x40 MLOAD PUSH32 0x8C379A000000000000000000000000000000000000000000000000000000000 DUP2 MSTORE PUSH1 0x4 ADD PUSH2 0x3FF SWAP1 PUSH2 0x16A8 JUMP JUMPDEST PUSH1 0x40 MLOAD DUP1 SWAP2 SUB SWAP1 REVERT JUMPDEST PUSH1 0x2 PUSH1 0x4 DUP2 GT ISZERO PUSH2 0x41C JUMPI PUSH2 0x41B PUSH2 0x15EA JUMP JUMPDEST JUMPDEST DUP2 PUSH1 0x6 ADD PUSH1 0x1 SWAP1 SLOAD SWAP1 PUSH2 0x100 EXP SWAP1 DIV PUSH1 0xFF AND PUSH1 0x4 DUP2 GT ISZERO PUSH2 0x440 JUMPI PUSH2 0x43F PUSH2 0x15EA JUMP JUMPDEST JUMPDEST EQ PUSH2 0x480 JUMPI PUSH1 0x40 MLOAD PUSH32 0x8C379A000000000000000000000000000000000000000000000000000000000 DUP2 MSTORE PUSH1 0x4 ADD PUSH2 0x477 SWAP1 PUSH2 0x1710 JUMP JUMPDEST PUSH1 0x40 MLOAD DUP1 SWAP2 SUB SWAP1 REVERT JUMPDEST PUSH2 0x489 DUP2 PUSH2 0xAE6 JUMP JUMPDEST POP POP JUMP JUMPDEST PUSH1 0x2 SLOAD DUP2 JUMP JUMPDEST PUSH1 0x1 PUSH0 SWAP1 SLOAD SWAP1 PUSH2 0x100 EXP SWAP1 DIV PUSH20 0xFFFFFFFFFFFFFFFFFFFFFFFFFFFFFFFFFFFFFFFF AND DUP2 JUMP JUMPDEST PUSH5 0x174876E800 DUP2 LT ISZERO DUP1 ISZERO PUSH2 0x4D4 JUMPI POP PUSH7 0x38D7EA4C68000 DUP2 GT ISZERO JUMPDEST PUSH2 0x513 JUMPI PUSH1 0x40 MLOAD PUSH32 0x8C379A000000000000000000000000000000000000000000000000000000000 DUP2 MSTORE PUSH1 0x4 ADD PUSH2 0x50A SWAP1 PUSH2 0x1778 JUMP JUMPDEST PUSH1 0x40 MLOAD DUP1 SWAP2 SUB SWAP1 REVERT JUMPDEST PUSH0 PUSH1 0x3 PUSH0 CALLER PUSH20 0xFFFFFFFFFFFFFFFFFFFFFFFFFFFFFFFFFFFFFFFF AND PUSH20 0xFFFFFFFFFFFFFFFFFFFFFFFFFFFFFFFFFFFFFFFF AND DUP2 MSTORE PUSH1 0x20 ADD SWAP1 DUP2 MSTORE PUSH1 0x20 ADD PUSH0 KECCAK256 SLOAD SUB PUSH2 0x592 JUMPI PUSH1 0x40 MLOAD PUSH32 0x8C379A000000000000000000000000000000000000000000000000000000000 DUP2 MSTORE PUSH1 0x4 ADD PUSH2 0x589 SWAP1 PUSH2 0x17E0 JUMP JUMPDEST PUSH1 0x40 MLOAD DUP1 SWAP2 SUB SWAP1 REVERT JUMPDEST PUSH0 PUSH1 0x3 PUSH0 CALLER PUSH20 0xFFFFFFFFFFFFFFFFFFFFFFFFFFFFFFFFFFFFFFFF AND PUSH20 0xFFFFFFFFFFFFFFFFFFFFFFFFFFFFFFFFFFFFFFFF AND DUP2 MSTORE PUSH1 0x20 ADD SWAP1 DUP2 MSTORE PUSH1 0x20 ADD PUSH0 KECCAK256 SLOAD SWAP1 POP PUSH0 PUSH1 0x4 PUSH0 DUP4 DUP2 MSTORE PUSH1 0x20 ADD SWAP1 DUP2 MSTORE PUSH1 0x20 ADD PUSH0 KECCAK256 SWAP1 POP PUSH0 DUP2 PUSH1 0x1 ADD SLOAD EQ PUSH2 0x62D JUMPI PUSH1 0x40 MLOAD PUSH32 0x8C379A000000000000000000000000000000000000000000000000000000000 DUP2 MSTORE PUSH1 0x4 ADD PUSH2 0x624 SWAP1 PUSH2 0x1848 JUMP JUMPDEST PUSH1 0x40 MLOAD DUP1 SWAP2 SUB SWAP1 REVERT JUMPDEST PUSH1 0x1 PUSH1 0x4 DUP2 GT ISZERO PUSH2 0x641 JUMPI PUSH2 0x640 PUSH2 0x15EA JUMP JUMPDEST JUMPDEST DUP2 PUSH1 0x6 ADD PUSH1 0x1 SWAP1 SLOAD SWAP1 PUSH2 0x100 EXP SWAP1 DIV PUSH1 0xFF AND PUSH1 0x4 DUP2 GT ISZERO PUSH2 0x665 JUMPI PUSH2 0x664 PUSH2 0x15EA JUMP JUMPDEST JUMPDEST EQ PUSH2 0x6A5 JUMPI PUSH1 0x40 MLOAD PUSH32 0x8C379A000000000000000000000000000000000000000000000000000000000 DUP2 MSTORE PUSH1 0x4 ADD PUSH2 0x69C SWAP1 PUSH2 0x18B0 JUMP JUMPDEST PUSH1 0x40 MLOAD DUP1 SWAP2 SUB SWAP1 REVERT JUMPDEST DUP3 DUP2 PUSH1 0x1 ADD DUP2 SWAP1 SSTORE POP PUSH1 0x1 PUSH0 SWAP1 SLOAD SWAP1 PUSH2 0x100 EXP SWAP1 DIV PUSH20 0xFFFFFFFFFFFFFFFFFFFFFFFFFFFFFFFFFFFFFFFF AND PUSH20 0xFFFFFFFFFFFFFFFFFFFFFFFFFFFFFFFFFFFFFFFF AND PUSH4 0x41DF082 DUP3 PUSH1 0x4 ADD SLOAD DUP4 PUSH1 0x3 ADD SLOAD PUSH1 0x40 MLOAD DUP4 PUSH4 0xFFFFFFFF AND PUSH1 0xE0 SHL DUP2 MSTORE PUSH1 0x4 ADD PUSH2 0x712 SWAP3 SWAP2 SWAP1 PUSH2 0x18CE JUMP JUMPDEST PUSH1 0x20 PUSH1 0x40 MLOAD DUP1 DUP4 SUB DUP2 DUP7 GAS STATICCALL ISZERO DUP1 ISZERO PUSH2 0x72D JUMPI RETURNDATASIZE PUSH0 PUSH0 RETURNDATACOPY RETURNDATASIZE PUSH0 REVERT JUMPDEST POP POP POP POP PUSH1 0x40 MLOAD RETURNDATASIZE PUSH1 0x1F NOT PUSH1 0x1F DUP3 ADD AND DUP3 ADD DUP1 PUSH1 0x40 MSTORE POP DUP2 ADD SWAP1 PUSH2 0x751 SWAP2 SWAP1 PUSH2 0x1928 JUMP JUMPDEST DUP2 PUSH1 0x5 ADD DUP2 SWAP1 SSTORE POP PUSH1 0x2 DUP2 PUSH1 0x6 ADD PUSH1 0x1 PUSH2 0x100 EXP DUP2 SLOAD DUP2 PUSH1 0xFF MUL NOT AND SWAP1 DUP4 PUSH1 0x4 DUP2 GT ISZERO PUSH2 0x781 JUMPI PUSH2 0x780 PUSH2 0x15EA JUMP JUMPDEST JUMPDEST MUL OR SWAP1 SSTORE POP PUSH2 0x78F DUP2 PUSH2 0xB48 JUMP JUMPDEST PUSH32 0xE97CE5F641B8A03E0F92D0B4480F849CF26A7BFDF17862C8EDAF69268E60AAD DUP2 PUSH0 ADD SLOAD CALLER DUP4 PUSH1 0x1 ADD SLOAD DUP5 PUSH1 0x5 ADD SLOAD PUSH1 0x40 MLOAD PUSH2 0x7CF SWAP5 SWAP4 SWAP3 SWAP2 SWAP1 PUSH2 0x1962 JUMP JUMPDEST PUSH1 0x40 MLOAD DUP1 SWAP2 SUB SWAP1 LOG1 POP POP POP JUMP JUMPDEST PUSH0 PUSH1 0x3 PUSH0 CALLER PUSH20 0xFFFFFFFFFFFFFFFFFFFFFFFFFFFFFFFFFFFFFFFF AND PUSH20 0xFFFFFFFFFFFFFFFFFFFFFFFFFFFFFFFFFFFFFFFF AND DUP2 MSTORE PUSH1 0x20 ADD SWAP1 DUP2 MSTORE PUSH1 0x20 ADD PUSH0 KECCAK256 SLOAD SWAP1 POP PUSH0 PUSH1 0x4 PUSH0 DUP4 DUP2 MSTORE PUSH1 0x20 ADD SWAP1 DUP2 MSTORE PUSH1 0x20 ADD PUSH0 KECCAK256 SWAP1 POP PUSH1 0x3 PUSH1 0x4 DUP2 GT ISZERO PUSH2 0x845 JUMPI PUSH2 0x844 PUSH2 0x15EA JUMP JUMPDEST JUMPDEST DUP2 PUSH1 0x6 ADD PUSH1 0x1 SWAP1 SLOAD SWAP1 PUSH2 0x100 EXP SWAP1 DIV PUSH1 0xFF AND PUSH1 0x4 DUP2 GT ISZERO PUSH2 0x869 JUMPI PUSH2 0x868 PUSH2 0x15EA JUMP JUMPDEST JUMPDEST EQ PUSH2 0x8A9 JUMPI PUSH1 0x40 MLOAD PUSH32 0x8C379A000000000000000000000000000000000000000000000000000000000 DUP2 MSTORE PUSH1 0x4 ADD PUSH2 0x8A0 SWAP1 PUSH2 0x19EF JUMP JUMPDEST PUSH1 0x40 MLOAD DUP1 SWAP2 SUB SWAP1 REVERT JUMPDEST PUSH1 0x2 DUP2 PUSH1 0x6 ADD PUSH1 0x1 PUSH2 0x100 EXP DUP2 SLOAD DUP2 PUSH1 0xFF MUL NOT AND SWAP1 DUP4 PUSH1 0x4 DUP2 GT ISZERO PUSH2 0x8D1 JUMPI PUSH2 0x8D0 PUSH2 0x15EA JUMP JUMPDEST JUMPDEST MUL OR SWAP1 SSTORE POP JUMPDEST PUSH1 0x11 DUP2 PUSH1 0xB ADD PUSH1 0x2 SWAP1 SLOAD SWAP1 PUSH2 0x100 EXP SWAP1 DIV PUSH1 0xFF AND PUSH1 0xFF AND LT ISZERO PUSH2 0x902 JUMPI PUSH2 0x8FD DUP2 PUSH2 0xDAC JUMP JUMPDEST PUSH2 0x8D7 JUMP JUMPDEST PUSH2 0x90B DUP2 PUSH2 0xE34 JUMP JUMPDEST POP POP POP JUMP JUMPDEST PUSH0 PUSH1 0x3 PUSH0 CALLER PUSH20 0xFFFFFFFFFFFFFFFFFFFFFFFFFFFFFFFFFFFFFFFF AND PUSH20 0xFFFFFFFFFFFFFFFFFFFFFFFFFFFFFFFFFFFFFFFF AND DUP2 MSTORE PUSH1 0x20 ADD SWAP1 DUP2 MSTORE PUSH1 0x20 ADD PUSH0 KECCAK256 SLOAD SWAP1 POP PUSH0 PUSH1 0x4 PUSH0 DUP4 DUP2 MSTORE PUSH1 0x20 ADD SWAP1 DUP2 MSTORE PUSH1 0x20 ADD PUSH0 KECCAK256 SWAP1 POP PUSH1 0x4 DUP1 DUP2 GT ISZERO PUSH2 0x978 JUMPI PUSH2 0x977 PUSH2 0x15EA JUMP JUMPDEST JUMPDEST DUP2 PUSH1 0x6 ADD PUSH1 0x1 SWAP1 SLOAD SWAP1 PUSH2 0x100 EXP SWAP1 DIV PUSH1 0xFF AND PUSH1 0x4 DUP2 GT ISZERO PUSH2 0x99C JUMPI PUSH2 0x99B PUSH2 0x15EA JUMP JUMPDEST JUMPDEST SUB PUSH2 0x9DC JUMPI PUSH1 0x40 MLOAD PUSH32 0x8C379A000000000000000000000000000000000000000000000000000000000 DUP2 MSTORE PUSH1 0x4 ADD PUSH2 0x9D3 SWAP1 PUSH2 0x1A57 JUMP JUMPDEST PUSH1 0x40 MLOAD DUP1 SWAP2 SUB SWAP1 REVERT JUMPDEST PUSH1 0x3 PUSH1 0x4 DUP2 GT ISZERO PUSH2 0x9F0 JUMPI PUSH2 0x9EF PUSH2 0x15EA JUMP JUMPDEST JUMPDEST DUP2 PUSH1 0x6 ADD PUSH1 0x1 SWAP1 SLOAD SWAP1 PUSH2 0x100 EXP SWAP1 DIV PUSH1 0xFF AND PUSH1 0x4 DUP2 GT ISZERO PUSH2 0xA14 JUMPI PUSH2 0xA13 PUSH2 0x15EA JUMP JUMPDEST JUMPDEST EQ PUSH2 0xA54 JUMPI PUSH1 0x40 MLOAD PUSH32 0x8C379A000000000000000000000000000000000000000000000000000000000 DUP2 MSTORE PUSH1 0x4 ADD PUSH2 0xA4B SWAP1 PUSH2 0x1ABF JUMP JUMPDEST PUSH1 0x40 MLOAD DUP1 SWAP2 SUB SWAP1 REVERT JUMPDEST PUSH1 0x15 DUP2 PUSH1 0xB ADD PUSH1 0x1 SWAP1 SLOAD SWAP1 PUSH2 0x100 EXP SWAP1 DIV PUSH1 0xFF AND PUSH1 0xFF AND LT PUSH2 0xAAB JUMPI PUSH1 0x40 MLOAD PUSH32 0x8C379A000000000000000000000000000000000000000000000000000000000 DUP2 MSTORE PUSH1 0x4 ADD PUSH2 0xAA2 SWAP1 PUSH2 0x1B27 JUMP JUMPDEST PUSH1 0x40 MLOAD DUP1 SWAP2 SUB SWAP1 REVERT JUMPDEST PUSH2 0xAB4 DUP2 PUSH2 0xFA7 JUMP JUMPDEST PUSH2 0xABD DUP2 PUSH2 0xE34 JUMP JUMPDEST POP POP POP JUMP JUMPDEST PUSH0 PUSH0 SWAP1 SLOAD SWAP1 PUSH2 0x100 EXP SWAP1 DIV PUSH20 0xFFFFFFFFFFFFFFFFFFFFFFFFFFFFFFFFFFFFFFFF AND DUP2 JUMP JUMPDEST PUSH2 0xAEF DUP2 PUSH2 0xFA7 JUMP JUMPDEST PUSH2 0xAF8 DUP2 PUSH2 0xDAC JUMP JUMPDEST PUSH2 0xB01 DUP2 PUSH2 0xFA7 JUMP JUMPDEST PUSH2 0xB0A DUP2 PUSH2 0xDAC JUMP JUMPDEST PUSH2 0xB13 DUP2 PUSH2 0xE34 JUMP JUMPDEST PUSH2 0xB45 JUMPI PUSH1 0x3 DUP2 PUSH1 0x6 ADD PUSH1 0x1 PUSH2 0x100 EXP DUP2 SLOAD DUP2 PUSH1 0xFF MUL NOT AND SWAP1 DUP4 PUSH1 0x4 DUP2 GT ISZERO PUSH2 0xB3F JUMPI PUSH2 0xB3E PUSH2 0x15EA JUMP JUMPDEST JUMPDEST MUL OR SWAP1 SSTORE POP JUMPDEST POP JUMP JUMPDEST PUSH1 0x2 PUSH1 0x4 DUP2 GT ISZERO PUSH2 0xB5C JUMPI PUSH2 0xB5B PUSH2 0x15EA JUMP JUMPDEST JUMPDEST DUP2 PUSH1 0x6 ADD PUSH1 0x1 SWAP1 SLOAD SWAP1 PUSH2 0x100 EXP SWAP1 DIV PUSH1 0xFF AND PUSH1 0x4 DUP2 GT ISZERO PUSH2 0xB80 JUMPI PUSH2 0xB7F PUSH2 0x15EA JUMP JUMPDEST JUMPDEST EQ PUSH2 0xBC0 JUMPI PUSH1 0x40 MLOAD PUSH32 0x8C379A000000000000000000000000000000000000000000000000000000000 DUP2 MSTORE PUSH1 0x4 ADD PUSH2 0xBB7 SWAP1 PUSH2 0x1B8F JUMP JUMPDEST PUSH1 0x40 MLOAD DUP1 SWAP2 SUB SWAP1 REVERT JUMPDEST PUSH0 ISZERO ISZERO DUP2 PUSH1 0xB ADD PUSH0 SWAP1 SLOAD SWAP1 PUSH2 0x100 EXP SWAP1 DIV PUSH1 0xFF AND ISZERO ISZERO EQ PUSH2 0xC16 JUMPI PUSH1 0x40 MLOAD PUSH32 0x8C379A000000000000000000000000000000000000000000000000000000000 DUP2 MSTORE PUSH1 0x4 ADD PUSH2 0xC0D SWAP1 PUSH2 0x1BF7 JUMP JUMPDEST PUSH1 0x40 MLOAD DUP1 SWAP2 SUB SWAP1 REVERT JUMPDEST PUSH0 PUSH0 SWAP1 POP JUMPDEST PUSH1 0x68 PUSH1 0xFF AND DUP2 PUSH1 0xFF AND LT ISZERO PUSH2 0xC71 JUMPI DUP1 DUP3 PUSH1 0x7 ADD DUP3 PUSH1 0xFF AND PUSH1 0x68 DUP2 LT PUSH2 0xC44 JUMPI PUSH2 0xC43 PUSH2 0x1C15 JUMP JUMPDEST JUMPDEST PUSH1 0x20 SWAP2 DUP3 DUP3 DIV ADD SWAP2 SWAP1 MOD PUSH2 0x100 EXP DUP2 SLOAD DUP2 PUSH1 0xFF MUL NOT AND SWAP1 DUP4 PUSH1 0xFF AND MUL OR SWAP1 SSTORE POP DUP1 DUP1 PUSH1 0x1 ADD SWAP2 POP POP PUSH2 0xC1B JUMP JUMPDEST POP PUSH0 PUSH0 SWAP1 POP JUMPDEST PUSH1 0x68 PUSH1 0xFF AND DUP2 LT ISZERO PUSH2 0xD8C JUMPI PUSH0 DUP2 PUSH1 0x68 PUSH1 0xFF AND PUSH2 0xC94 SWAP2 SWAP1 PUSH2 0x1C42 JUMP JUMPDEST DUP4 PUSH1 0x5 ADD SLOAD PUSH0 SHR PUSH2 0xCA5 SWAP2 SWAP1 PUSH2 0x1CA2 JUMP JUMPDEST DUP3 PUSH2 0xCB0 SWAP2 SWAP1 PUSH2 0x1CD2 JUMP JUMPDEST SWAP1 POP DUP3 PUSH1 0x7 ADD DUP2 PUSH1 0x68 DUP2 LT PUSH2 0xCC8 JUMPI PUSH2 0xCC7 PUSH2 0x1C15 JUMP JUMPDEST JUMPDEST PUSH1 0x20 SWAP2 DUP3 DUP3 DIV ADD SWAP2 SWAP1 MOD SWAP1 SLOAD SWAP1 PUSH2 0x100 EXP SWAP1 DIV PUSH1 0xFF AND DUP4 PUSH1 0x7 ADD DUP4 PUSH1 0x68 DUP2 LT PUSH2 0xCF4 JUMPI PUSH2 0xCF3 PUSH2 0x1C15 JUMP JUMPDEST JUMPDEST PUSH1 0x20 SWAP2 DUP3 DUP3 DIV ADD SWAP2 SWAP1 MOD SWAP1 SLOAD SWAP1 PUSH2 0x100 EXP SWAP1 DIV PUSH1 0xFF AND DUP5 PUSH1 0x7 ADD DUP5 PUSH1 0x68 DUP2 LT PUSH2 0xD20 JUMPI PUSH2 0xD1F PUSH2 0x1C15 JUMP JUMPDEST JUMPDEST PUSH1 0x20 SWAP2 DUP3 DUP3 DIV ADD SWAP2 SWAP1 MOD DUP7 PUSH1 0x7 ADD DUP6 PUSH1 0x68 DUP2 LT PUSH2 0xD40 JUMPI PUSH2 0xD3F PUSH2 0x1C15 JUMP JUMPDEST JUMPDEST PUSH1 0x20 SWAP2 DUP3 DUP3 DIV ADD SWAP2 SWAP1 MOD DUP5 SWAP2 SWAP1 PUSH2 0x100 EXP DUP2 SLOAD DUP2 PUSH1 0xFF MUL NOT AND SWAP1 DUP4 PUSH1 0xFF AND MUL OR SWAP1 SSTORE POP DUP4 SWAP2 SWAP1 PUSH2 0x100 EXP DUP2 SLOAD DUP2 PUSH1 0xFF MUL NOT AND SWAP1 DUP4 PUSH1 0xFF AND MUL OR SWAP1 SSTORE POP POP POP POP DUP1 DUP1 PUSH1 0x1 ADD SWAP2 POP POP PUSH2 0xC77 JUMP JUMPDEST POP PUSH1 0x1 DUP2 PUSH1 0xB ADD PUSH0 PUSH2 0x100 EXP DUP2 SLOAD DUP2 PUSH1 0xFF MUL NOT AND SWAP1 DUP4 ISZERO ISZERO MUL OR SWAP1 SSTORE POP POP JUMP JUMPDEST PUSH1 0x2 PUSH1 0x4 DUP2 GT ISZERO PUSH2 0xDC0 JUMPI PUSH2 0xDBF PUSH2 0x15EA JUMP JUMPDEST JUMPDEST DUP2 PUSH1 0x6 ADD PUSH1 0x1 SWAP1 SLOAD SWAP1 PUSH2 0x100 EXP SWAP1 DIV PUSH1 0xFF AND PUSH1 0x4 DUP2 GT ISZERO PUSH2 0xDE4 JUMPI PUSH2 0xDE3 PUSH2 0x15EA JUMP JUMPDEST JUMPDEST EQ PUSH2 0xDED JUMPI PUSH0 PUSH0 REVERT JUMPDEST PUSH0 PUSH2 0xDF7 DUP3 PUSH2 0xFEE JUMP JUMPDEST SWAP1 POP PUSH2 0xE14 DUP2 DUP4 PUSH1 0xB ADD PUSH1 0x2 SWAP1 SLOAD SWAP1 PUSH2 0x100 EXP SWAP1 DIV PUSH1 0xFF AND PUSH2 0x114D JUMP JUMPDEST DUP3 PUSH1 0xB ADD PUSH1 0x2 PUSH2 0x100 EXP DUP2 SLOAD DUP2 PUSH1 0xFF MUL NOT AND SWAP1 DUP4 PUSH1 0xFF AND MUL OR SWAP1 SSTORE POP POP POP JUMP JUMPDEST PUSH0 PUSH1 0x15 DUP3 PUSH1 0xB ADD PUSH1 0x1 SWAP1 SLOAD SWAP1 PUSH2 0x100 EXP SWAP1 DIV PUSH1 0xFF AND PUSH1 0xFF AND GT ISZERO PUSH2 0xE67 JUMPI PUSH2 0xE5E DUP3 PUSH1 0x2 PUSH0 PUSH2 0x11A2 JUMP JUMPDEST PUSH1 0x1 SWAP1 POP PUSH2 0xFA2 JUMP JUMPDEST PUSH1 0x15 DUP3 PUSH1 0xB ADD PUSH1 0x2 SWAP1 SLOAD SWAP1 PUSH2 0x100 EXP SWAP1 DIV PUSH1 0xFF AND PUSH1 0xFF AND GT ISZERO PUSH2 0xEA9 JUMPI PUSH2 0xEA0 DUP3 PUSH1 0x1 PUSH1 0x2 DUP6 PUSH1 0x1 ADD SLOAD PUSH2 0xE9B SWAP2 SWAP1 PUSH2 0x1D05 JUMP JUMPDEST PUSH2 0x11A2 JUMP JUMPDEST PUSH1 0x1 SWAP1 POP PUSH2 0xFA2 JUMP JUMPDEST PUSH2 0xEC3 DUP3 PUSH1 0xB ADD PUSH1 0x1 SWAP1 SLOAD SWAP1 PUSH2 0x100 EXP SWAP1 DIV PUSH1 0xFF AND PUSH2 0x137C JUMP JUMPDEST DUP1 ISZERO PUSH2 0xEE6 JUMPI POP PUSH2 0xEE4 DUP3 PUSH1 0xB ADD PUSH1 0x2 SWAP1 SLOAD SWAP1 PUSH2 0x100 EXP SWAP1 DIV PUSH1 0xFF AND PUSH2 0x137C JUMP JUMPDEST ISZERO JUMPDEST ISZERO PUSH2 0xF10 JUMPI PUSH2 0xF07 DUP3 PUSH1 0x1 PUSH1 0x2 DUP6 PUSH1 0x1 ADD SLOAD PUSH2 0xF02 SWAP2 SWAP1 PUSH2 0x1D05 JUMP JUMPDEST PUSH2 0x11A2 JUMP JUMPDEST PUSH1 0x1 SWAP1 POP PUSH2 0xFA2 JUMP JUMPDEST PUSH2 0xF2A DUP3 PUSH1 0xB ADD PUSH1 0x1 SWAP1 SLOAD SWAP1 PUSH2 0x100 EXP SWAP1 DIV PUSH1 0xFF AND PUSH2 0x137C JUMP JUMPDEST DUP1 ISZERO PUSH2 0xF4C JUMPI POP PUSH2 0xF4B DUP3 PUSH1 0xB ADD PUSH1 0x2 SWAP1 SLOAD SWAP1 PUSH2 0x100 EXP SWAP1 DIV PUSH1 0xFF AND PUSH2 0x137C JUMP JUMPDEST JUMPDEST ISZERO PUSH2 0xF6A JUMPI PUSH2 0xF61 DUP3 PUSH1 0x3 DUP5 PUSH1 0x1 ADD SLOAD PUSH2 0x11A2 JUMP JUMPDEST PUSH1 0x1 SWAP1 POP PUSH2 0xFA2 JUMP JUMPDEST PUSH2 0xF84 DUP3 PUSH1 0xB ADD PUSH1 0x2 SWAP1 SLOAD SWAP1 PUSH2 0x100 EXP SWAP1 DIV PUSH1 0xFF AND PUSH2 0x137C JUMP JUMPDEST ISZERO PUSH2 0xF9E JUMPI PUSH2 0xF95 DUP3 PUSH1 0x2 PUSH0 PUSH2 0x11A2 JUMP JUMPDEST PUSH1 0x1 SWAP1 POP PUSH2 0xFA2 JUMP JUMPDEST PUSH0 SWAP1 POP JUMPDEST SWAP2 SWAP1 POP JUMP JUMPDEST PUSH0 PUSH2 0xFB1 DUP3 PUSH2 0xFEE JUMP JUMPDEST SWAP1 POP PUSH2 0xFCE DUP2 DUP4 PUSH1 0xB ADD PUSH1 0x1 SWAP1 SLOAD SWAP1 PUSH2 0x100 EXP SWAP1 DIV PUSH1 0xFF AND PUSH2 0x114D JUMP JUMPDEST DUP3 PUSH1 0xB ADD PUSH1 0x1 PUSH2 0x100 EXP DUP2 SLOAD DUP2 PUSH1 0xFF MUL NOT AND SWAP1 DUP4 PUSH1 0xFF AND MUL OR SWAP1 SSTORE POP POP POP JUMP JUMPDEST PUSH0 DUP2 PUSH1 0xB ADD PUSH0 SWAP1 SLOAD SWAP1 PUSH2 0x100 EXP SWAP1 DIV PUSH1 0xFF AND PUSH2 0x103F JUMPI PUSH1 0x40 MLOAD PUSH32 0x8C379A000000000000000000000000000000000000000000000000000000000 DUP2 MSTORE PUSH1 0x4 ADD PUSH2 0x1036 SWAP1 PUSH2 0x16A8 JUMP JUMPDEST PUSH1 0x40 MLOAD DUP1 SWAP2 SUB SWAP1 REVERT JUMPDEST PUSH0 DUP3 PUSH1 0x7 ADD DUP4 PUSH1 0x6 ADD PUSH0 SWAP1 SLOAD SWAP1 PUSH2 0x100 EXP SWAP1 DIV PUSH1 0xFF AND PUSH1 0xFF AND PUSH1 0x68 DUP2 LT PUSH2 0x1069 JUMPI PUSH2 0x1068 PUSH2 0x1C15 JUMP JUMPDEST JUMPDEST PUSH1 0x20 SWAP2 DUP3 DUP3 DIV ADD SWAP2 SWAP1 MOD SWAP1 SLOAD SWAP1 PUSH2 0x100 EXP SWAP1 DIV PUSH1 0xFF AND SWAP1 POP PUSH0 PUSH1 0x1 PUSH1 0xD DUP4 PUSH2 0x1091 SWAP2 SWAP1 PUSH2 0x1D52 JUMP JUMPDEST PUSH2 0x109B SWAP2 SWAP1 PUSH2 0x1D82 JUMP JUMPDEST SWAP1 POP PUSH1 0xA DUP2 PUSH1 0xFF AND GT ISZERO PUSH2 0x10AE JUMPI PUSH1 0xA SWAP1 POP JUMPDEST DUP4 PUSH1 0x6 ADD PUSH0 DUP2 DUP2 SWAP1 SLOAD SWAP1 PUSH2 0x100 EXP SWAP1 DIV PUSH1 0xFF AND DUP1 SWAP3 SWAP2 SWAP1 PUSH2 0x10CE SWAP1 PUSH2 0x1DB6 JUMP JUMPDEST SWAP2 SWAP1 PUSH2 0x100 EXP DUP2 SLOAD DUP2 PUSH1 0xFF MUL NOT AND SWAP1 DUP4 PUSH1 0xFF AND MUL OR SWAP1 SSTORE POP POP PUSH32 0x5CB494422AEC3C1D66AD0616D3F90F8641E12057560336165C27BF8793FCE9CF DUP5 PUSH1 0x2 ADD PUSH0 SWAP1 SLOAD SWAP1 PUSH2 0x100 EXP SWAP1 DIV PUSH20 0xFFFFFFFFFFFFFFFFFFFFFFFFFFFFFFFFFFFFFFFF AND DUP4 PUSH1 0x40 MLOAD PUSH2 0x113B SWAP3 SWAP2 SWAP1 PUSH2 0x1DED JUMP JUMPDEST PUSH1 0x40 MLOAD DUP1 SWAP2 SUB SWAP1 LOG1 DUP1 SWAP3 POP POP POP SWAP2 SWAP1 POP JUMP JUMPDEST PUSH0 PUSH0 DUP3 DUP5 PUSH2 0x115B SWAP2 SWAP1 PUSH2 0x1D82 JUMP JUMPDEST SWAP1 POP PUSH2 0x1166 DUP5 PUSH2 0x138B JUMP JUMPDEST ISZERO PUSH2 0x1194 JUMPI PUSH1 0x15 DUP2 PUSH1 0xFF AND GT ISZERO PUSH2 0x118B JUMPI PUSH1 0x1 DUP4 PUSH2 0x1184 SWAP2 SWAP1 PUSH2 0x1D82 JUMP JUMPDEST SWAP3 POP PUSH2 0x118F JUMP JUMPDEST DUP1 SWAP3 POP JUMPDEST PUSH2 0x1198 JUMP JUMPDEST DUP1 SWAP3 POP JUMPDEST DUP3 SWAP2 POP POP SWAP3 SWAP2 POP POP JUMP JUMPDEST DUP2 DUP4 PUSH1 0x6 ADD PUSH1 0x2 PUSH2 0x100 EXP DUP2 SLOAD DUP2 PUSH1 0xFF MUL NOT AND SWAP1 DUP4 PUSH1 0x3 DUP2 GT ISZERO PUSH2 0x11C9 JUMPI PUSH2 0x11C8 PUSH2 0x15EA JUMP JUMPDEST JUMPDEST MUL OR SWAP1 SSTORE POP PUSH1 0x4 DUP4 PUSH1 0x6 ADD PUSH1 0x1 PUSH2 0x100 EXP DUP2 SLOAD DUP2 PUSH1 0xFF MUL NOT AND SWAP1 DUP4 PUSH1 0x4 DUP2 GT ISZERO PUSH2 0x11F6 JUMPI PUSH2 0x11F5 PUSH2 0x15EA JUMP JUMPDEST JUMPDEST MUL OR SWAP1 SSTORE POP PUSH0 DUP2 GT ISZERO PUSH2 0x12AF JUMPI PUSH0 PUSH0 SWAP1 SLOAD SWAP1 PUSH2 0x100 EXP SWAP1 DIV PUSH20 0xFFFFFFFFFFFFFFFFFFFFFFFFFFFFFFFFFFFFFFFF AND PUSH20 0xFFFFFFFFFFFFFFFFFFFFFFFFFFFFFFFFFFFFFFFF AND PUSH4 0x117DE2FD DUP5 PUSH1 0x2 ADD PUSH0 SWAP1 SLOAD SWAP1 PUSH2 0x100 EXP SWAP1 DIV PUSH20 0xFFFFFFFFFFFFFFFFFFFFFFFFFFFFFFFFFFFFFFFF AND DUP4 PUSH1 0x40 MLOAD DUP4 PUSH4 0xFFFFFFFF AND PUSH1 0xE0 SHL DUP2 MSTORE PUSH1 0x4 ADD PUSH2 0x1281 SWAP3 SWAP2 SWAP1 PUSH2 0x1E14 JUMP JUMPDEST PUSH0 PUSH1 0x40 MLOAD DUP1 DUP4 SUB DUP2 PUSH0 DUP8 DUP1 EXTCODESIZE ISZERO DUP1 ISZERO PUSH2 0x1298 JUMPI PUSH0 PUSH0 REVERT JUMPDEST POP GAS CALL ISZERO DUP1 ISZERO PUSH2 0x12AA JUMPI RETURNDATASIZE PUSH0 PUSH0 RETURNDATACOPY RETURNDATASIZE PUSH0 REVERT JUMPDEST POP POP POP POP JUMPDEST PUSH1 0x3 PUSH0 DUP5 PUSH1 0x2 ADD PUSH0 SWAP1 SLOAD SWAP1 PUSH2 0x100 EXP SWAP1 DIV PUSH20 0xFFFFFFFFFFFFFFFFFFFFFFFFFFFFFFFFFFFFFFFF AND PUSH20 0xFFFFFFFFFFFFFFFFFFFFFFFFFFFFFFFFFFFFFFFF AND PUSH20 0xFFFFFFFFFFFFFFFFFFFFFFFFFFFFFFFFFFFFFFFF AND DUP2 MSTORE PUSH1 0x20 ADD SWAP1 DUP2 MSTORE PUSH1 0x20 ADD PUSH0 KECCAK256 PUSH0 SWAP1 SSTORE PUSH0 DUP4 PUSH1 0x1 ADD DUP2 SWAP1 SSTORE POP PUSH32 0xECDAB0D30AE5A2B8D283ACF9ED4856306F12F29EF8069FAC9148D3D2AC6B4B14 DUP4 PUSH1 0x2 ADD PUSH0 SWAP1 SLOAD SWAP1 PUSH2 0x100 EXP SWAP1 DIV PUSH20 0xFFFFFFFFFFFFFFFFFFFFFFFFFFFFFFFFFFFFFFFF AND DUP4 PUSH1 0x40 MLOAD PUSH2 0x136F SWAP3 SWAP2 SWAP1 PUSH2 0x1E81 JUMP JUMPDEST PUSH1 0x40 MLOAD DUP1 SWAP2 SUB SWAP1 LOG1 POP POP POP JUMP JUMPDEST PUSH0 PUSH1 0x15 DUP3 PUSH1 0xFF AND EQ SWAP1 POP SWAP2 SWAP1 POP JUMP JUMPDEST PUSH0 PUSH1 0x1 DUP3 PUSH1 0xFF AND EQ DUP1 PUSH2 0x13A1 JUMPI POP PUSH1 0xB DUP3 PUSH1 0xFF AND EQ JUMPDEST SWAP1 POP SWAP2 SWAP1 POP JUMP JUMPDEST PUSH0 PUSH0 REVERT JUMPDEST PUSH0 DUP2 SWAP1 POP SWAP2 SWAP1 POP JUMP JUMPDEST PUSH2 0x13BE DUP2 PUSH2 0x13AC JUMP JUMPDEST DUP2 EQ PUSH2 0x13C8 JUMPI PUSH0 PUSH0 REVERT JUMPDEST POP JUMP JUMPDEST PUSH0 DUP2 CALLDATALOAD SWAP1 POP PUSH2 0x13D9 DUP2 PUSH2 0x13B5 JUMP JUMPDEST SWAP3 SWAP2 POP POP JUMP JUMPDEST PUSH0 PUSH1 0x20 DUP3 DUP5 SUB SLT ISZERO PUSH2 0x13F4 JUMPI PUSH2 0x13F3 PUSH2 0x13A8 JUMP JUMPDEST JUMPDEST PUSH0 PUSH2 0x1401 DUP5 DUP3 DUP6 ADD PUSH2 0x13CB JUMP JUMPDEST SWAP2 POP POP SWAP3 SWAP2 POP POP JUMP JUMPDEST PUSH2 0x1413 DUP2 PUSH2 0x13AC JUMP JUMPDEST DUP3 MSTORE POP POP JUMP JUMPDEST PUSH0 PUSH1 0x20 DUP3 ADD SWAP1 POP PUSH2 0x142C PUSH0 DUP4 ADD DUP5 PUSH2 0x140A JUMP JUMPDEST SWAP3 SWAP2 POP POP JUMP JUMPDEST PUSH0 PUSH20 0xFFFFFFFFFFFFFFFFFFFFFFFFFFFFFFFFFFFFFFFF DUP3 AND SWAP1 POP SWAP2 SWAP1 POP JUMP JUMPDEST PUSH0 DUP2 SWAP1 POP SWAP2 SWAP1 POP JUMP JUMPDEST PUSH0 PUSH2 0x1474 PUSH2 0x146F PUSH2 0x146A DUP5 PUSH2 0x1432 JUMP JUMPDEST PUSH2 0x1451 JUMP JUMPDEST PUSH2 0x1432 JUMP JUMPDEST SWAP1 POP SWAP2 SWAP1 POP JUMP JUMPDEST PUSH0 PUSH2 0x1485 DUP3 PUSH2 0x145A JUMP JUMPDEST SWAP1 POP SWAP2 SWAP1 POP JUMP JUMPDEST PUSH0 PUSH2 0x1496 DUP3 PUSH2 0x147B JUMP JUMPDEST SWAP1 POP SWAP2 SWAP1 POP JUMP JUMPDEST PUSH2 0x14A6 DUP2 PUSH2 0x148C JUMP JUMPDEST DUP3 MSTORE POP POP JUMP JUMPDEST PUSH0 PUSH1 0x20 DUP3 ADD SWAP1 POP PUSH2 0x14BF PUSH0 DUP4 ADD DUP5 PUSH2 0x149D JUMP JUMPDEST SWAP3 SWAP2 POP POP JUMP JUMPDEST PUSH0 PUSH2 0x14CF DUP3 PUSH2 0x147B JUMP JUMPDEST SWAP1 POP SWAP2 SWAP1 POP JUMP JUMPDEST PUSH2 0x14DF DUP2 PUSH2 0x14C5 JUMP JUMPDEST DUP3 MSTORE POP POP JUMP JUMPDEST PUSH0 PUSH1 0x20 DUP3 ADD SWAP1 POP PUSH2 0x14F8 PUSH0 DUP4 ADD DUP5 PUSH2 0x14D6 JUMP JUMPDEST SWAP3 SWAP2 POP POP JUMP JUMPDEST PUSH0 DUP3 DUP3 MSTORE PUSH1 0x20 DUP3 ADD SWAP1 POP SWAP3 SWAP2 POP POP JUMP JUMPDEST PUSH32 0x47616D6520616C726561647920696E2070726F67726573730000000000000000 PUSH0 DUP3 ADD MSTORE POP JUMP JUMPDEST PUSH0 PUSH2 0x1542 PUSH1 0x18 DUP4 PUSH2 0x14FE JUMP JUMPDEST SWAP2 POP PUSH2 0x154D DUP3 PUSH2 0x150E JUMP JUMPDEST PUSH1 0x20 DUP3 ADD SWAP1 POP SWAP2 SWAP1 POP JUMP JUMPDEST PUSH0 PUSH1 0x20 DUP3 ADD SWAP1 POP DUP2 DUP2 SUB PUSH0 DUP4 ADD MSTORE PUSH2 0x156F DUP2 PUSH2 0x1536 JUMP JUMPDEST SWAP1 POP SWAP2 SWAP1 POP JUMP JUMPDEST PUSH32 0x4E487B7100000000000000000000000000000000000000000000000000000000 PUSH0 MSTORE PUSH1 0x11 PUSH1 0x4 MSTORE PUSH1 0x24 PUSH0 REVERT JUMPDEST PUSH0 PUSH2 0x15AD DUP3 PUSH2 0x13AC JUMP JUMPDEST SWAP2 POP PUSH32 0xFFFFFFFFFFFFFFFFFFFFFFFFFFFFFFFFFFFFFFFFFFFFFFFFFFFFFFFFFFFFFFFF DUP3 SUB PUSH2 0x15DF JUMPI PUSH2 0x15DE PUSH2 0x1576 JUMP JUMPDEST JUMPDEST PUSH1 0x1 DUP3 ADD SWAP1 POP SWAP2 SWAP1 POP JUMP JUMPDEST PUSH32 0x4E487B7100000000000000000000000000000000000000000000000000000000 PUSH0 MSTORE PUSH1 0x21 PUSH1 0x4 MSTORE PUSH1 0x24 PUSH0 REVERT JUMPDEST PUSH0 PUSH2 0x1621 DUP3 PUSH2 0x1432 JUMP JUMPDEST SWAP1 POP SWAP2 SWAP1 POP JUMP JUMPDEST PUSH2 0x1631 DUP2 PUSH2 0x1617 JUMP JUMPDEST DUP3 MSTORE POP POP JUMP JUMPDEST PUSH0 PUSH1 0x40 DUP3 ADD SWAP1 POP PUSH2 0x164A PUSH0 DUP4 ADD DUP6 PUSH2 0x140A JUMP JUMPDEST PUSH2 0x1657 PUSH1 0x20 DUP4 ADD DUP5 PUSH2 0x1628 JUMP JUMPDEST SWAP4 SWAP3 POP POP POP JUMP JUMPDEST PUSH32 0x4465636B20686173206E6F74206265656E2073687566666C6564000000000000 PUSH0 DUP3 ADD MSTORE POP JUMP JUMPDEST PUSH0 PUSH2 0x1692 PUSH1 0x1A DUP4 PUSH2 0x14FE JUMP JUMPDEST SWAP2 POP PUSH2 0x169D DUP3 PUSH2 0x165E JUMP JUMPDEST PUSH1 0x20 DUP3 ADD SWAP1 POP SWAP2 SWAP1 POP JUMP JUMPDEST PUSH0 PUSH1 0x20 DUP3 ADD SWAP1 POP DUP2 DUP2 SUB PUSH0 DUP4 ADD MSTORE PUSH2 0x16BF DUP2 PUSH2 0x1686 JUMP JUMPDEST SWAP1 POP SWAP2 SWAP1 POP JUMP JUMPDEST PUSH32 0x4F6E6C7920746865206465616C65722063616E206465616C2068616E64730000 PUSH0 DUP3 ADD MSTORE POP JUMP JUMPDEST PUSH0 PUSH2 0x16FA PUSH1 0x1E DUP4 PUSH2 0x14FE JUMP JUMPDEST SWAP2 POP PUSH2 0x1705 DUP3 PUSH2 0x16C6 JUMP JUMPDEST PUSH1 0x20 DUP3 ADD SWAP1 POP SWAP2 SWAP1 POP JUMP JUMPDEST PUSH0 PUSH1 0x20 DUP3 ADD SWAP1 POP DUP2 DUP2 SUB PUSH0 DUP4 ADD MSTORE PUSH2 0x1727 DUP2 PUSH2 0x16EE JUMP JUMPDEST SWAP1 POP SWAP2 SWAP1 POP JUMP JUMPDEST PUSH32 0x426574206F7574206F662072616E67652E000000000000000000000000000000 PUSH0 DUP3 ADD MSTORE POP JUMP JUMPDEST PUSH0 PUSH2 0x1762 PUSH1 0x11 DUP4 PUSH2 0x14FE JUMP JUMPDEST SWAP2 POP PUSH2 0x176D DUP3 PUSH2 0x172E JUMP JUMPDEST PUSH1 0x20 DUP3 ADD SWAP1 POP SWAP2 SWAP1 POP JUMP JUMPDEST PUSH0 PUSH1 0x20 DUP3 ADD SWAP1 POP DUP2 DUP2 SUB PUSH0 DUP4 ADD MSTORE PUSH2 0x178F DUP2 PUSH2 0x1756 JUMP JUMPDEST SWAP1 POP SWAP2 SWAP1 POP JUMP JUMPDEST PUSH32 0x4E6F206163746976652067616D652063757272656E746C790000000000000000 PUSH0 DUP3 ADD MSTORE POP JUMP JUMPDEST PUSH0 PUSH2 0x17CA PUSH1 0x18 DUP4 PUSH2 0x14FE JUMP JUMPDEST SWAP2 POP PUSH2 0x17D5 DUP3 PUSH2 0x1796 JUMP JUMPDEST PUSH1 0x20 DUP3 ADD SWAP1 POP SWAP2 SWAP1 POP JUMP JUMPDEST PUSH0 PUSH1 0x20 DUP3 ADD SWAP1 POP DUP2 DUP2 SUB PUSH0 DUP4 ADD MSTORE PUSH2 0x17F7 DUP2 PUSH2 0x17BE JUMP JUMPDEST SWAP1 POP SWAP2 SWAP1 POP JUMP JUMPDEST PUSH32 0x42657420616C726561647920706C616365640000000000000000000000000000 PUSH0 DUP3 ADD MSTORE POP JUMP JUMPDEST PUSH0 PUSH2 0x1832 PUSH1 0x12 DUP4 PUSH2 0x14FE JUMP JUMPDEST SWAP2 POP PUSH2 0x183D DUP3 PUSH2 0x17FE JUMP JUMPDEST PUSH1 0x20 DUP3 ADD SWAP1 POP SWAP2 SWAP1 POP JUMP JUMPDEST PUSH0 PUSH1 0x20 DUP3 ADD SWAP1 POP DUP2 DUP2 SUB PUSH0 DUP4 ADD MSTORE PUSH2 0x185F DUP2 PUSH2 0x1826 JUMP JUMPDEST SWAP1 POP SWAP2 SWAP1 POP JUMP JUMPDEST PUSH32 0x546F6B656E20686173206E6F74206265656E2061737369676E65640000000000 PUSH0 DUP3 ADD MSTORE POP JUMP JUMPDEST PUSH0 PUSH2 0x189A PUSH1 0x1B DUP4 PUSH2 0x14FE JUMP JUMPDEST SWAP2 POP PUSH2 0x18A5 DUP3 PUSH2 0x1866 JUMP JUMPDEST PUSH1 0x20 DUP3 ADD SWAP1 POP SWAP2 SWAP1 POP JUMP JUMPDEST PUSH0 PUSH1 0x20 DUP3 ADD SWAP1 POP DUP2 DUP2 SUB PUSH0 DUP4 ADD MSTORE PUSH2 0x18C7 DUP2 PUSH2 0x188E JUMP JUMPDEST SWAP1 POP SWAP2 SWAP1 POP JUMP JUMPDEST PUSH0 PUSH1 0x40 DUP3 ADD SWAP1 POP PUSH2 0x18E1 PUSH0 DUP4 ADD DUP6 PUSH2 0x140A JUMP JUMPDEST PUSH2 0x18EE PUSH1 0x20 DUP4 ADD DUP5 PUSH2 0x140A JUMP JUMPDEST SWAP4 SWAP3 POP POP POP JUMP JUMPDEST PUSH0 DUP2 SWAP1 POP SWAP2 SWAP1 POP JUMP JUMPDEST PUSH2 0x1907 DUP2 PUSH2 0x18F5 JUMP JUMPDEST DUP2 EQ PUSH2 0x1911 JUMPI PUSH0 PUSH0 REVERT JUMPDEST POP JUMP JUMPDEST PUSH0 DUP2 MLOAD SWAP1 POP PUSH2 0x1922 DUP2 PUSH2 0x18FE JUMP JUMPDEST SWAP3 SWAP2 POP POP JUMP JUMPDEST PUSH0 PUSH1 0x20 DUP3 DUP5 SUB SLT ISZERO PUSH2 0x193D JUMPI PUSH2 0x193C PUSH2 0x13A8 JUMP JUMPDEST JUMPDEST PUSH0 PUSH2 0x194A DUP5 DUP3 DUP6 ADD PUSH2 0x1914 JUMP JUMPDEST SWAP2 POP POP SWAP3 SWAP2 POP POP JUMP JUMPDEST PUSH2 0x195C DUP2 PUSH2 0x18F5 JUMP JUMPDEST DUP3 MSTORE POP POP JUMP JUMPDEST PUSH0 PUSH1 0x80 DUP3 ADD SWAP1 POP PUSH2 0x1975 PUSH0 DUP4 ADD DUP8 PUSH2 0x140A JUMP JUMPDEST PUSH2 0x1982 PUSH1 0x20 DUP4 ADD DUP7 PUSH2 0x1628 JUMP JUMPDEST PUSH2 0x198F PUSH1 0x40 DUP4 ADD DUP6 PUSH2 0x140A JUMP JUMPDEST PUSH2 0x199C PUSH1 0x60 DUP4 ADD DUP5 PUSH2 0x1953 JUMP JUMPDEST SWAP6 SWAP5 POP POP POP POP POP JUMP JUMPDEST PUSH32 0x4E6F2067616D6520686173206265656E20737461727465640000000000000000 PUSH0 DUP3 ADD MSTORE POP JUMP JUMPDEST PUSH0 PUSH2 0x19D9 PUSH1 0x18 DUP4 PUSH2 0x14FE JUMP JUMPDEST SWAP2 POP PUSH2 0x19E4 DUP3 PUSH2 0x19A5 JUMP JUMPDEST PUSH1 0x20 DUP3 ADD SWAP1 POP SWAP2 SWAP1 POP JUMP JUMPDEST PUSH0 PUSH1 0x20 DUP3 ADD SWAP1 POP DUP2 DUP2 SUB PUSH0 DUP4 ADD MSTORE PUSH2 0x1A06 DUP2 PUSH2 0x19CD JUMP JUMPDEST SWAP1 POP SWAP2 SWAP1 POP JUMP JUMPDEST PUSH32 0x47616D652068617320616C72656164792066696E697368656400000000000000 PUSH0 DUP3 ADD MSTORE POP JUMP JUMPDEST PUSH0 PUSH2 0x1A41 PUSH1 0x19 DUP4 PUSH2 0x14FE JUMP JUMPDEST SWAP2 POP PUSH2 0x1A4C DUP3 PUSH2 0x1A0D JUMP JUMPDEST PUSH1 0x20 DUP3 ADD SWAP1 POP SWAP2 SWAP1 POP JUMP JUMPDEST PUSH0 PUSH1 0x20 DUP3 ADD SWAP1 POP DUP2 DUP2 SUB PUSH0 DUP4 ADD MSTORE PUSH2 0x1A6E DUP2 PUSH2 0x1A35 JUMP JUMPDEST SWAP1 POP SWAP2 SWAP1 POP JUMP JUMPDEST PUSH32 0x4974206973206E6F742074686520706C6179657273207475726E000000000000 PUSH0 DUP3 ADD MSTORE POP JUMP JUMPDEST PUSH0 PUSH2 0x1AA9 PUSH1 0x1A DUP4 PUSH2 0x14FE JUMP JUMPDEST SWAP2 POP PUSH2 0x1AB4 DUP3 PUSH2 0x1A75 JUMP JUMPDEST PUSH1 0x20 DUP3 ADD SWAP1 POP SWAP2 SWAP1 POP JUMP JUMPDEST PUSH0 PUSH1 0x20 DUP3 ADD SWAP1 POP DUP2 DUP2 SUB PUSH0 DUP4 ADD MSTORE PUSH2 0x1AD6 DUP2 PUSH2 0x1A9D JUMP JUMPDEST SWAP1 POP SWAP2 SWAP1 POP JUMP JUMPDEST PUSH32 0x43616E6E6F742068697400000000000000000000000000000000000000000000 PUSH0 DUP3 ADD MSTORE POP JUMP JUMPDEST PUSH0 PUSH2 0x1B11 PUSH1 0xA DUP4 PUSH2 0x14FE JUMP JUMPDEST SWAP2 POP PUSH2 0x1B1C DUP3 PUSH2 0x1ADD JUMP JUMPDEST PUSH1 0x20 DUP3 ADD SWAP1 POP SWAP2 SWAP1 POP JUMP JUMPDEST PUSH0 PUSH1 0x20 DUP3 ADD SWAP1 POP DUP2 DUP2 SUB PUSH0 DUP4 ADD MSTORE PUSH2 0x1B3E DUP2 PUSH2 0x1B05 JUMP JUMPDEST SWAP1 POP SWAP2 SWAP1 POP JUMP JUMPDEST PUSH32 0x4F6E6C7920746865206465616C65722063616E2073687566666C650000000000 PUSH0 DUP3 ADD MSTORE POP JUMP JUMPDEST PUSH0 PUSH2 0x1B79 PUSH1 0x1B DUP4 PUSH2 0x14FE JUMP JUMPDEST SWAP2 POP PUSH2 0x1B84 DUP3 PUSH2 0x1B45 JUMP JUMPDEST PUSH1 0x20 DUP3 ADD SWAP1 POP SWAP2 SWAP1 POP JUMP JUMPDEST PUSH0 PUSH1 0x20 DUP3 ADD SWAP1 POP DUP2 DUP2 SUB PUSH0 DUP4 ADD MSTORE PUSH2 0x1BA6 DUP2 PUSH2 0x1B6D JUMP JUMPDEST SWAP1 POP SWAP2 SWAP1 POP JUMP JUMPDEST PUSH32 0x4465636B2068617320616C7265616479206265656E2073687566666C65640000 PUSH0 DUP3 ADD MSTORE POP JUMP JUMPDEST PUSH0 PUSH2 0x1BE1 PUSH1 0x1E DUP4 PUSH2 0x14FE JUMP JUMPDEST SWAP2 POP PUSH2 0x1BEC DUP3 PUSH2 0x1BAD JUMP JUMPDEST PUSH1 0x20 DUP3 ADD SWAP1 POP SWAP2 SWAP1 POP JUMP JUMPDEST PUSH0 PUSH1 0x20 DUP3 ADD SWAP1 POP DUP2 DUP2 SUB PUSH0 DUP4 ADD MSTORE PUSH2 0x1C0E DUP2 PUSH2 0x1BD5 JUMP JUMPDEST SWAP1 POP SWAP2 SWAP1 POP JUMP JUMPDEST PUSH32 0x4E487B7100000000000000000000000000000000000000000000000000000000 PUSH0 MSTORE PUSH1 0x32 PUSH1 0x4 MSTORE PUSH1 0x24 PUSH0 REVERT JUMPDEST PUSH0 PUSH2 0x1C4C DUP3 PUSH2 0x13AC JUMP JUMPDEST SWAP2 POP PUSH2 0x1C57 DUP4 PUSH2 0x13AC JUMP JUMPDEST SWAP3 POP DUP3 DUP3 SUB SWAP1 POP DUP2 DUP2 GT ISZERO PUSH2 0x1C6F JUMPI PUSH2 0x1C6E PUSH2 0x1576 JUMP JUMPDEST JUMPDEST SWAP3 SWAP2 POP POP JUMP JUMPDEST PUSH32 0x4E487B7100000000000000000000000000000000000000000000000000000000 PUSH0 MSTORE PUSH1 0x12 PUSH1 0x4 MSTORE PUSH1 0x24 PUSH0 REVERT JUMPDEST PUSH0 PUSH2 0x1CAC DUP3 PUSH2 0x13AC JUMP JUMPDEST SWAP2 POP PUSH2 0x1CB7 DUP4 PUSH2 0x13AC JUMP JUMPDEST SWAP3 POP DUP3 PUSH2 0x1CC7 JUMPI PUSH2 0x1CC6 PUSH2 0x1C75 JUMP JUMPDEST JUMPDEST DUP3 DUP3 MOD SWAP1 POP SWAP3 SWAP2 POP POP JUMP JUMPDEST PUSH0 PUSH2 0x1CDC DUP3 PUSH2 0x13AC JUMP JUMPDEST SWAP2 POP PUSH2 0x1CE7 DUP4 PUSH2 0x13AC JUMP JUMPDEST SWAP3 POP DUP3 DUP3 ADD SWAP1 POP DUP1 DUP3 GT ISZERO PUSH2 0x1CFF JUMPI PUSH2 0x1CFE PUSH2 0x1576 JUMP JUMPDEST JUMPDEST SWAP3 SWAP2 POP POP JUMP JUMPDEST PUSH0 PUSH2 0x1D0F DUP3 PUSH2 0x13AC JUMP JUMPDEST SWAP2 POP PUSH2 0x1D1A DUP4 PUSH2 0x13AC JUMP JUMPDEST SWAP3 POP DUP3 DUP3 MUL PUSH2 0x1D28 DUP2 PUSH2 0x13AC JUMP JUMPDEST SWAP2 POP DUP3 DUP3 DIV DUP5 EQ DUP4 ISZERO OR PUSH2 0x1D3F JUMPI PUSH2 0x1D3E PUSH2 0x1576 JUMP JUMPDEST JUMPDEST POP SWAP3 SWAP2 POP POP JUMP JUMPDEST PUSH0 PUSH1 0xFF DUP3 AND SWAP1 POP SWAP2 SWAP1 POP JUMP JUMPDEST PUSH0 PUSH2 0x1D5C DUP3 PUSH2 0x1D46 JUMP JUMPDEST SWAP2 POP PUSH2 0x1D67 DUP4 PUSH2 0x1D46 JUMP JUMPDEST SWAP3 POP DUP3 PUSH2 0x1D77 JUMPI PUSH2 0x1D76 PUSH2 0x1C75 JUMP JUMPDEST JUMPDEST DUP3 DUP3 MOD SWAP1 POP SWAP3 SWAP2 POP POP JUMP JUMPDEST PUSH0 PUSH2 0x1D8C DUP3 PUSH2 0x1D46 JUMP JUMPDEST SWAP2 POP PUSH2 0x1D97 DUP4 PUSH2 0x1D46 JUMP JUMPDEST SWAP3 POP DUP3 DUP3 ADD SWAP1 POP PUSH1 0xFF DUP2 GT ISZERO PUSH2 0x1DB0 JUMPI PUSH2 0x1DAF PUSH2 0x1576 JUMP JUMPDEST JUMPDEST SWAP3 SWAP2 POP POP JUMP JUMPDEST PUSH0 PUSH2 0x1DC0 DUP3 PUSH2 0x1D46 JUMP JUMPDEST SWAP2 POP PUSH1 0xFF DUP3 SUB PUSH2 0x1DD3 JUMPI PUSH2 0x1DD2 PUSH2 0x1576 JUMP JUMPDEST JUMPDEST PUSH1 0x1 DUP3 ADD SWAP1 POP SWAP2 SWAP1 POP JUMP JUMPDEST PUSH2 0x1DE7 DUP2 PUSH2 0x1D46 JUMP JUMPDEST DUP3 MSTORE POP POP JUMP JUMPDEST PUSH0 PUSH1 0x40 DUP3 ADD SWAP1 POP PUSH2 0x1E00 PUSH0 DUP4 ADD DUP6 PUSH2 0x1628 JUMP JUMPDEST PUSH2 0x1E0D PUSH1 0x20 DUP4 ADD DUP5 PUSH2 0x1DDE JUMP JUMPDEST SWAP4 SWAP3 POP POP POP JUMP JUMPDEST PUSH0 PUSH1 0x40 DUP3 ADD SWAP1 POP PUSH2 0x1E27 PUSH0 DUP4 ADD DUP6 PUSH2 0x1628 JUMP JUMPDEST PUSH2 0x1E34 PUSH1 0x20 DUP4 ADD DUP5 PUSH2 0x140A JUMP JUMPDEST SWAP4 SWAP3 POP POP POP JUMP JUMPDEST PUSH1 0x4 DUP2 LT PUSH2 0x1E4C JUMPI PUSH2 0x1E4B PUSH2 0x15EA JUMP JUMPDEST JUMPDEST POP JUMP JUMPDEST PUSH0 DUP2 SWAP1 POP PUSH2 0x1E5C DUP3 PUSH2 0x1E3B JUMP JUMPDEST SWAP2 SWAP1 POP JUMP JUMPDEST PUSH0 PUSH2 0x1E6B DUP3 PUSH2 0x1E4F JUMP JUMPDEST SWAP1 POP SWAP2 SWAP1 POP JUMP JUMPDEST PUSH2 0x1E7B DUP2 PUSH2 0x1E61 JUMP JUMPDEST DUP3 MSTORE POP POP JUMP JUMPDEST PUSH0 PUSH1 0x40 DUP3 ADD SWAP1 POP PUSH2 0x1E94 PUSH0 DUP4 ADD DUP6 PUSH2 0x1628 JUMP JUMPDEST PUSH2 0x1EA1 PUSH1 0x20 DUP4 ADD DUP5 PUSH2 0x1E72 JUMP JUMPDEST SWAP4 SWAP3 POP POP POP JUMP INVALID LOG2 PUSH5 0x6970667358 0x22 SLT KECCAK256 0x27 DUP13 PUSH14 0x67823EB3B33CB9E006CDA121477 DUP2 DUP12 PUSH3 0x62C95D JUMP LOG4 0xFC 0xDB 0x24 CALLF 0xB1DC PUSH1 0x64 PUSH20 0x6F6C634300081E00330000000000000000000000 "
				},
				"gasEstimates": {
					"creation": {
						"codeDepositCost": "1580400",
						"executionCost": "infinite",
						"totalCost": "infinite"
					},
					"external": {
						"assignToken(uint256)": "infinite",
						"dealInitialHands()": "infinite",
						"hitPlayer()": "infinite",
						"nextGameID()": "2470",
						"oracle()": "infinite",
						"placeBets(uint256)": "infinite",
						"stand()": "infinite",
						"vault()": "infinite"
					},
					"internal": {
						"_dealInitialHands(struct GameToken storage pointer)": "infinite",
						"_hitDealer(struct GameToken storage pointer)": "infinite",
						"_hitPlayer(struct GameToken storage pointer)": "infinite",
						"addCardToHand(uint8,uint8)": "infinite",
						"drawCard(struct GameToken storage pointer)": "infinite",
						"endGame(struct GameToken storage pointer,enum Result,uint256)": "infinite",
						"handleBlackJackEvents(struct GameToken storage pointer)": "infinite",
						"hasBlackJack(uint8)": "39",
						"isAce(uint8)": "73",
						"shuffleDeck(struct GameToken storage pointer)": "infinite"
					}
				},
				"methodIdentifiers": {
					"assignToken(uint256)": "31a56b83",
					"dealInitialHands()": "566595b2",
					"hitPlayer()": "dae10ed5",
					"nextGameID()": "673ee37c",
					"oracle()": "7dc0d1d0",
					"placeBets(uint256)": "afab107e",
					"stand()": "c2897b10",
					"vault()": "fbfa77cf"
				}
			},
			"storageLayout": {
				"storage": [
					{
						"astId": 7,
						"contract": "contracts/BlackJackTable.sol:BlackJackTable",
						"label": "vault",
						"offset": 0,
						"slot": "0",
						"type": "t_contract(IVault)972"
					},
					{
						"astId": 10,
						"contract": "contracts/BlackJackTable.sol:BlackJackTable",
						"label": "oracle",
						"offset": 0,
						"slot": "1",
						"type": "t_contract(IOracle)962"
					},
					{
						"astId": 32,
						"contract": "contracts/BlackJackTable.sol:BlackJackTable",
						"label": "nextGameID",
						"offset": 0,
						"slot": "2",
						"type": "t_uint256"
					},
					{
						"astId": 45,
						"contract": "contracts/BlackJackTable.sol:BlackJackTable",
						"label": "activeGame",
						"offset": 0,
						"slot": "3",
						"type": "t_mapping(t_address,t_uint256)"
					},
					{
						"astId": 50,
						"contract": "contracts/BlackJackTable.sol:BlackJackTable",
						"label": "games",
						"offset": 0,
						"slot": "4",
						"type": "t_mapping(t_uint256,t_struct(GameToken)942_storage)"
					}
				],
				"types": {
					"t_address": {
						"encoding": "inplace",
						"label": "address",
						"numberOfBytes": "20"
					},
					"t_array(t_uint8)104_storage": {
						"base": "t_uint8",
						"encoding": "inplace",
						"label": "uint8[104]",
						"numberOfBytes": "128"
					},
					"t_bool": {
						"encoding": "inplace",
						"label": "bool",
						"numberOfBytes": "1"
					},
					"t_bytes32": {
						"encoding": "inplace",
						"label": "bytes32",
						"numberOfBytes": "32"
					},
					"t_contract(IOracle)962": {
						"encoding": "inplace",
						"label": "contract IOracle",
						"numberOfBytes": "20"
					},
					"t_contract(IVault)972": {
						"encoding": "inplace",
						"label": "contract IVault",
						"numberOfBytes": "20"
					},
					"t_enum(Result)894": {
						"encoding": "inplace",
						"label": "enum Result",
						"numberOfBytes": "1"
					},
					"t_enum(State)900": {
						"encoding": "inplace",
						"label": "enum State",
						"numberOfBytes": "1"
					},
					"t_mapping(t_address,t_uint256)": {
						"encoding": "mapping",
						"key": "t_address",
						"label": "mapping(address => uint256)",
						"numberOfBytes": "32",
						"value": "t_uint256"
					},
					"t_mapping(t_uint256,t_struct(GameToken)942_storage)": {
						"encoding": "mapping",
						"key": "t_uint256",
						"label": "mapping(uint256 => struct GameToken)",
						"numberOfBytes": "32",
						"value": "t_struct(GameToken)942_storage"
					},
					"t_struct(GameToken)942_storage": {
						"encoding": "inplace",
						"label": "struct GameToken",
						"members": [
							{
								"astId": 913,
								"contract": "contracts/BlackJackTable.sol:BlackJackTable",
								"label": "tokenID",
								"offset": 0,
								"slot": "0",
								"type": "t_uint256"
							},
							{
								"astId": 915,
								"contract": "contracts/BlackJackTable.sol:BlackJackTable",
								"label": "bet",
								"offset": 0,
								"slot": "1",
								"type": "t_uint256"
							},
							{
								"astId": 917,
								"contract": "contracts/BlackJackTable.sol:BlackJackTable",
								"label": "player",
								"offset": 0,
								"slot": "2",
								"type": "t_address"
							},
							{
								"astId": 919,
								"contract": "contracts/BlackJackTable.sol:BlackJackTable",
								"label": "playerSeed",
								"offset": 0,
								"slot": "3",
								"type": "t_uint256"
							},
							{
								"astId": 921,
								"contract": "contracts/BlackJackTable.sol:BlackJackTable",
								"label": "serverSeed",
								"offset": 0,
								"slot": "4",
								"type": "t_uint256"
							},
							{
								"astId": 923,
								"contract": "contracts/BlackJackTable.sol:BlackJackTable",
								"label": "finalSeed",
								"offset": 0,
								"slot": "5",
								"type": "t_bytes32"
							},
							{
								"astId": 925,
								"contract": "contracts/BlackJackTable.sol:BlackJackTable",
								"label": "drawIndex",
								"offset": 0,
								"slot": "6",
								"type": "t_uint8"
							},
							{
								"astId": 928,
								"contract": "contracts/BlackJackTable.sol:BlackJackTable",
								"label": "gameState",
								"offset": 1,
								"slot": "6",
								"type": "t_enum(State)900"
							},
							{
								"astId": 931,
								"contract": "contracts/BlackJackTable.sol:BlackJackTable",
								"label": "result",
								"offset": 2,
								"slot": "6",
								"type": "t_enum(Result)894"
							},
							{
								"astId": 935,
								"contract": "contracts/BlackJackTable.sol:BlackJackTable",
								"label": "deck",
								"offset": 0,
								"slot": "7",
								"type": "t_array(t_uint8)104_storage"
							},
							{
								"astId": 937,
								"contract": "contracts/BlackJackTable.sol:BlackJackTable",
								"label": "isShuffled",
								"offset": 0,
								"slot": "11",
								"type": "t_bool"
							},
							{
								"astId": 939,
								"contract": "contracts/BlackJackTable.sol:BlackJackTable",
								"label": "playerHandTotalValue",
								"offset": 1,
								"slot": "11",
								"type": "t_uint8"
							},
							{
								"astId": 941,
								"contract": "contracts/BlackJackTable.sol:BlackJackTable",
								"label": "dealerHandTotalValue",
								"offset": 2,
								"slot": "11",
								"type": "t_uint8"
							}
						],
						"numberOfBytes": "384"
					},
					"t_uint256": {
						"encoding": "inplace",
						"label": "uint256",
						"numberOfBytes": "32"
					},
					"t_uint8": {
						"encoding": "inplace",
						"label": "uint8",
						"numberOfBytes": "1"
					}
				}
			},
			"userdoc": {
				"kind": "user",
				"methods": {},
				"version": 1
			}
		}
	}
}