{
	"data": {
		"bytecode": {
			"linkReferences": {},
			"object": "608060405234801561000f575f5ffd5b5060405161203e38038061203e83398181016040528101906100319190610115565b815f5f6101000a81548173ffffffffffffffffffffffffffffffffffffffff021916908373ffffffffffffffffffffffffffffffffffffffff1602179055508060015f6101000a81548173ffffffffffffffffffffffffffffffffffffffff021916908373ffffffffffffffffffffffffffffffffffffffff1602179055505050610153565b5f5ffd5b5f73ffffffffffffffffffffffffffffffffffffffff82169050919050565b5f6100e4826100bb565b9050919050565b6100f4816100da565b81146100fe575f5ffd5b50565b5f8151905061010f816100eb565b92915050565b5f5f6040838503121561012b5761012a6100b7565b5b5f61013885828601610101565b925050602061014985828601610101565b9150509250929050565b611ede806101605f395ff3fe608060405234801561000f575f5ffd5b5060043610610086575f3560e01c8063afab107e11610059578063afab107e146100ec578063c2897b1014610108578063dae10ed514610112578063fbfa77cf1461011c57610086565b806331a56b831461008a578063566595b2146100a6578063673ee37c146100b05780637dc0d1d0146100ce575b5f5ffd5b6100a4600480360381019061009f91906113df565b61013a565b005b6100ae610363565b005b6100b861048d565b6040516100c59190611419565b60405180910390f35b6100d6610493565b6040516100e391906114ac565b60405180910390f35b610106600480360381019061010191906113df565b6104b8565b005b6101106107dc565b005b61011a610910565b005b610124610ac2565b60405161013191906114e5565b60405180910390f35b5f60035f3373ffffffffffffffffffffffffffffffffffffffff1673ffffffffffffffffffffffffffffffffffffffff1681526020019081526020015f2054146101b9576040517f08c379a00000000000000000000000000000000000000000000000000000000081526004016101b090611558565b60405180910390fd5b5f60025f8154809291906101cc906115a3565b9190505590508060035f3373ffffffffffffffffffffffffffffffffffffffff1673ffffffffffffffffffffffffffffffffffffffff1681526020019081526020015f20819055505f60045f8381526020019081526020015f20905081815f018190555033816002015f6101000a81548173ffffffffffffffffffffffffffffffffffffffff021916908373ffffffffffffffffffffffffffffffffffffffff1602179055508281600301819055505f816006015f6101000a81548160ff021916908360ff1602179055505f81600b015f6101000a81548160ff02191690831515021790555060018160060160016101000a81548160ff021916908360048111156102da576102d96115ea565b5b02179055505f81600b0160016101000a81548160ff021916908360ff1602179055505f81600b0160026101000a81548160ff021916908360ff1602179055505f81600101819055507fc3e0f84839dc888c892a013d10c8f9d6dc05a21a879d0ce468ca558013e9121c815f015433604051610356929190611637565b60405180910390a1505050565b5f60035f3373ffffffffffffffffffffffffffffffffffffffff1673ffffffffffffffffffffffffffffffffffffffff1681526020019081526020015f205490505f60045f8381526020019081526020015f20905080600b015f9054906101000a900460ff16610408576040517f08c379a00000000000000000000000000000000000000000000000000000000081526004016103ff906116a8565b60405180910390fd5b6002600481111561041c5761041b6115ea565b5b8160060160019054906101000a900460ff1660048111156104405761043f6115ea565b5b14610480576040517f08c379a000000000000000000000000000000000000000000000000000000000815260040161047790611710565b60405180910390fd5b61048981610ae6565b5050565b60025481565b60015f9054906101000a900473ffffffffffffffffffffffffffffffffffffffff1681565b64174876e80081101580156104d4575066038d7ea4c680008111155b610513576040517f08c379a000000000000000000000000000000000000000000000000000000000815260040161050a90611778565b60405180910390fd5b5f60035f3373ffffffffffffffffffffffffffffffffffffffff1673ffffffffffffffffffffffffffffffffffffffff1681526020019081526020015f205403610592576040517f08c379a0000000000000000000000000000000000000000000000000000000008152600401610589906117e0565b60405180910390fd5b5f60035f3373ffffffffffffffffffffffffffffffffffffffff1673ffffffffffffffffffffffffffffffffffffffff1681526020019081526020015f205490505f60045f8381526020019081526020015f2090505f81600101541461062d576040517f08c379a000000000000000000000000000000000000000000000000000000000815260040161062490611848565b60405180910390fd5b60016004811115610641576106406115ea565b5b8160060160019054906101000a900460ff166004811115610665576106646115ea565b5b146106a5576040517f08c379a000000000000000000000000000000000000000000000000000000000815260040161069c906118b0565b60405180910390fd5b82816001018190555060015f9054906101000a900473ffffffffffffffffffffffffffffffffffffffff1673ffffffffffffffffffffffffffffffffffffffff1663041df082826004015483600301546040518363ffffffff1660e01b81526004016107129291906118ce565b602060405180830381865afa15801561072d573d5f5f3e3d5ffd5b505050506040513d601f19601f820116820180604052508101906107519190611928565b816005018190555060028160060160016101000a81548160ff02191690836004811115610781576107806115ea565b5b021790555061078f81610b48565b7f0e97ce5f641b8a03e0f92d0b4480f849cf26a7bfdf17862c8edaf69268e60aad815f015433836001015484600501546040516107cf9493929190611962565b60405180910390a1505050565b5f60035f3373ffffffffffffffffffffffffffffffffffffffff1673ffffffffffffffffffffffffffffffffffffffff1681526020019081526020015f205490505f60045f8381526020019081526020015f20905060036004811115610845576108446115ea565b5b8160060160019054906101000a900460ff166004811115610869576108686115ea565b5b146108a9576040517f08c379a00000000000000000000000000000000000000000000000000000000081526004016108a0906119ef565b60405180910390fd5b60028160060160016101000a81548160ff021916908360048111156108d1576108d06115ea565b5b02179055505b601181600b0160029054906101000a900460ff1660ff161015610902576108fd81610dac565b6108d7565b61090b81610e34565b505050565b5f60035f3373ffffffffffffffffffffffffffffffffffffffff1673ffffffffffffffffffffffffffffffffffffffff1681526020019081526020015f205490505f60045f8381526020019081526020015f209050600480811115610978576109776115ea565b5b8160060160019054906101000a900460ff16600481111561099c5761099b6115ea565b5b036109dc576040517f08c379a00000000000000000000000000000000000000000000000000000000081526004016109d390611a57565b60405180910390fd5b600360048111156109f0576109ef6115ea565b5b8160060160019054906101000a900460ff166004811115610a1457610a136115ea565b5b14610a54576040517f08c379a0000000000000000000000000000000000000000000000000000000008152600401610a4b90611abf565b60405180910390fd5b601581600b0160019054906101000a900460ff1660ff1610610aab576040517f08c379a0000000000000000000000000000000000000000000000000000000008152600401610aa290611b27565b60405180910390fd5b610ab481610fa7565b610abd81610e34565b505050565b5f5f9054906101000a900473ffffffffffffffffffffffffffffffffffffffff1681565b610aef81610fa7565b610af881610dac565b610b0181610fa7565b610b0a81610dac565b610b1381610e34565b610b455760038160060160016101000a81548160ff02191690836004811115610b3f57610b3e6115ea565b5b02179055505b50565b60026004811115610b5c57610b5b6115ea565b5b8160060160019054906101000a900460ff166004811115610b8057610b7f6115ea565b5b14610bc0576040517f08c379a0000000000000000000000000000000000000000000000000000000008152600401610bb790611b8f565b60405180910390fd5b5f151581600b015f9054906101000a900460ff16151514610c16576040517f08c379a0000000000000000000000000000000000000000000000000000000008152600401610c0d90611bf7565b60405180910390fd5b5f5f90505b606860ff168160ff161015610c715780826007018260ff1660688110610c4457610c43611c15565b5b602091828204019190066101000a81548160ff021916908360ff1602179055508080600101915050610c1b565b505f5f90505b606860ff16811015610d8c575f81606860ff16610c949190611c42565b83600501545f1c610ca59190611ca2565b82610cb09190611cd2565b9050826007018160688110610cc857610cc7611c15565b5b602091828204019190069054906101000a900460ff16836007018360688110610cf457610cf3611c15565b5b602091828204019190069054906101000a900460ff16846007018460688110610d2057610d1f611c15565b5b60209182820401919006866007018560688110610d4057610d3f611c15565b5b602091828204019190068491906101000a81548160ff021916908360ff1602179055508391906101000a81548160ff021916908360ff1602179055505050508080600101915050610c77565b50600181600b015f6101000a81548160ff02191690831515021790555050565b60026004811115610dc057610dbf6115ea565b5b8160060160019054906101000a900460ff166004811115610de457610de36115ea565b5b14610ded575f5ffd5b5f610df782610fee565b9050610e148183600b0160029054906101000a900460ff1661114d565b82600b0160026101000a81548160ff021916908360ff1602179055505050565b5f601582600b0160019054906101000a900460ff1660ff161115610e6757610e5e8260025f6111a2565b60019050610fa2565b601582600b0160029054906101000a900460ff1660ff161115610ea957610ea082600160028560010154610e9b9190611d05565b6111a2565b60019050610fa2565b610ec382600b0160019054906101000a900460ff1661137c565b8015610ee65750610ee482600b0160029054906101000a900460ff1661137c565b155b15610f1057610f0782600160028560010154610f029190611d05565b6111a2565b60019050610fa2565b610f2a82600b0160019054906101000a900460ff1661137c565b8015610f4c5750610f4b82600b0160029054906101000a900460ff1661137c565b5b15610f6a57610f6182600384600101546111a2565b60019050610fa2565b610f8482600b0160029054906101000a900460ff1661137c565b15610f9e57610f958260025f6111a2565b60019050610fa2565b5f90505b919050565b5f610fb182610fee565b9050610fce8183600b0160019054906101000a900460ff1661114d565b82600b0160016101000a81548160ff021916908360ff1602179055505050565b5f81600b015f9054906101000a900460ff1661103f576040517f08c379a0000000000000000000000000000000000000000000000000000000008152600401611036906116a8565b60405180910390fd5b5f82600701836006015f9054906101000a900460ff1660ff166068811061106957611068611c15565b5b602091828204019190069054906101000a900460ff1690505f6001600d836110919190611d52565b61109b9190611d82565b9050600a8160ff1611156110ae57600a90505b836006015f81819054906101000a900460ff16809291906110ce90611db6565b91906101000a81548160ff021916908360ff160217905550507f5cb494422aec3c1d66ad0616d3f90f8641e12057560336165c27bf8793fce9cf846002015f9054906101000a900473ffffffffffffffffffffffffffffffffffffffff168360405161113b929190611ded565b60405180910390a18092505050919050565b5f5f828461115b9190611d82565b90506111668461138b565b156111945760158160ff16111561118b576001836111849190611d82565b925061118f565b8092505b611198565b8092505b8291505092915050565b818360060160026101000a81548160ff021916908360038111156111c9576111c86115ea565b5b021790555060048360060160016101000a81548160ff021916908360048111156111f6576111f56115ea565b5b02179055505f8111156112af575f5f9054906101000a900473ffffffffffffffffffffffffffffffffffffffff1673ffffffffffffffffffffffffffffffffffffffff1663117de2fd846002015f9054906101000a900473ffffffffffffffffffffffffffffffffffffffff16836040518363ffffffff1660e01b8152600401611281929190611e14565b5f604051808303815f87803b158015611298575f5ffd5b505af11580156112aa573d5f5f3e3d5ffd5b505050505b60035f846002015f9054906101000a900473ffffffffffffffffffffffffffffffffffffffff1673ffffffffffffffffffffffffffffffffffffffff1673ffffffffffffffffffffffffffffffffffffffff1681526020019081526020015f205f90555f83600101819055507fecdab0d30ae5a2b8d283acf9ed4856306f12f29ef8069fac9148d3d2ac6b4b14836002015f9054906101000a900473ffffffffffffffffffffffffffffffffffffffff168360405161136f929190611e81565b60405180910390a1505050565b5f60158260ff16149050919050565b5f60018260ff1614806113a15750600b8260ff16145b9050919050565b5f5ffd5b5f819050919050565b6113be816113ac565b81146113c8575f5ffd5b50565b5f813590506113d9816113b5565b92915050565b5f602082840312156113f4576113f36113a8565b5b5f611401848285016113cb565b91505092915050565b611413816113ac565b82525050565b5f60208201905061142c5f83018461140a565b92915050565b5f73ffffffffffffffffffffffffffffffffffffffff82169050919050565b5f819050919050565b5f61147461146f61146a84611432565b611451565b611432565b9050919050565b5f6114858261145a565b9050919050565b5f6114968261147b565b9050919050565b6114a68161148c565b82525050565b5f6020820190506114bf5f83018461149d565b92915050565b5f6114cf8261147b565b9050919050565b6114df816114c5565b82525050565b5f6020820190506114f85f8301846114d6565b92915050565b5f82825260208201905092915050565b7f47616d6520616c726561647920696e2070726f677265737300000000000000005f82015250565b5f6115426018836114fe565b915061154d8261150e565b602082019050919050565b5f6020820190508181035f83015261156f81611536565b9050919050565b7f4e487b71000000000000000000000000000000000000000000000000000000005f52601160045260245ffd5b5f6115ad826113ac565b91507fffffffffffffffffffffffffffffffffffffffffffffffffffffffffffffffff82036115df576115de611576565b5b600182019050919050565b7f4e487b71000000000000000000000000000000000000000000000000000000005f52602160045260245ffd5b5f61162182611432565b9050919050565b61163181611617565b82525050565b5f60408201905061164a5f83018561140a565b6116576020830184611628565b9392505050565b7f4465636b20686173206e6f74206265656e2073687566666c65640000000000005f82015250565b5f611692601a836114fe565b915061169d8261165e565b602082019050919050565b5f6020820190508181035f8301526116bf81611686565b9050919050565b7f4f6e6c7920746865206465616c65722063616e206465616c2068616e647300005f82015250565b5f6116fa601e836114fe565b9150611705826116c6565b602082019050919050565b5f6020820190508181035f830152611727816116ee565b9050919050565b7f426574206f7574206f662072616e67652e0000000000000000000000000000005f82015250565b5f6117626011836114fe565b915061176d8261172e565b602082019050919050565b5f6020820190508181035f83015261178f81611756565b9050919050565b7f4e6f206163746976652067616d652063757272656e746c7900000000000000005f82015250565b5f6117ca6018836114fe565b91506117d582611796565b602082019050919050565b5f6020820190508181035f8301526117f7816117be565b9050919050565b7f42657420616c726561647920706c6163656400000000000000000000000000005f82015250565b5f6118326012836114fe565b915061183d826117fe565b602082019050919050565b5f6020820190508181035f83015261185f81611826565b9050919050565b7f546f6b656e20686173206e6f74206265656e2061737369676e656400000000005f82015250565b5f61189a601b836114fe565b91506118a582611866565b602082019050919050565b5f6020820190508181035f8301526118c78161188e565b9050919050565b5f6040820190506118e15f83018561140a565b6118ee602083018461140a565b9392505050565b5f819050919050565b611907816118f5565b8114611911575f5ffd5b50565b5f81519050611922816118fe565b92915050565b5f6020828403121561193d5761193c6113a8565b5b5f61194a84828501611914565b91505092915050565b61195c816118f5565b82525050565b5f6080820190506119755f83018761140a565b6119826020830186611628565b61198f604083018561140a565b61199c6060830184611953565b95945050505050565b7f4e6f2067616d6520686173206265656e207374617274656400000000000000005f82015250565b5f6119d96018836114fe565b91506119e4826119a5565b602082019050919050565b5f6020820190508181035f830152611a06816119cd565b9050919050565b7f47616d652068617320616c72656164792066696e6973686564000000000000005f82015250565b5f611a416019836114fe565b9150611a4c82611a0d565b602082019050919050565b5f6020820190508181035f830152611a6e81611a35565b9050919050565b7f4974206973206e6f742074686520706c6179657273207475726e0000000000005f82015250565b5f611aa9601a836114fe565b9150611ab482611a75565b602082019050919050565b5f6020820190508181035f830152611ad681611a9d565b9050919050565b7f43616e6e6f7420686974000000000000000000000000000000000000000000005f82015250565b5f611b11600a836114fe565b9150611b1c82611add565b602082019050919050565b5f6020820190508181035f830152611b3e81611b05565b9050919050565b7f4f6e6c7920746865206465616c65722063616e2073687566666c6500000000005f82015250565b5f611b79601b836114fe565b9150611b8482611b45565b602082019050919050565b5f6020820190508181035f830152611ba681611b6d565b9050919050565b7f4465636b2068617320616c7265616479206265656e2073687566666c656400005f82015250565b5f611be1601e836114fe565b9150611bec82611bad565b602082019050919050565b5f6020820190508181035f830152611c0e81611bd5565b9050919050565b7f4e487b71000000000000000000000000000000000000000000000000000000005f52603260045260245ffd5b5f611c4c826113ac565b9150611c57836113ac565b9250828203905081811115611c6f57611c6e611576565b5b92915050565b7f4e487b71000000000000000000000000000000000000000000000000000000005f52601260045260245ffd5b5f611cac826113ac565b9150611cb7836113ac565b925082611cc757611cc6611c75565b5b828206905092915050565b5f611cdc826113ac565b9150611ce7836113ac565b9250828201905080821115611cff57611cfe611576565b5b92915050565b5f611d0f826113ac565b9150611d1a836113ac565b9250828202611d28816113ac565b91508282048414831517611d3f57611d3e611576565b5b5092915050565b5f60ff82169050919050565b5f611d5c82611d46565b9150611d6783611d46565b925082611d7757611d76611c75565b5b828206905092915050565b5f611d8c82611d46565b9150611d9783611d46565b9250828201905060ff811115611db057611daf611576565b5b92915050565b5f611dc082611d46565b915060ff8203611dd357611dd2611576565b5b600182019050919050565b611de781611d46565b82525050565b5f604082019050611e005f830185611628565b611e0d6020830184611dde565b9392505050565b5f604082019050611e275f830185611628565b611e34602083018461140a565b9392505050565b60048110611e4c57611e4b6115ea565b5b50565b5f819050611e5c82611e3b565b919050565b5f611e6b82611e4f565b9050919050565b611e7b81611e61565b82525050565b5f604082019050611e945f830185611628565b611ea16020830184611e72565b939250505056fea2646970667358221220278c6d067823eb3b33cb9e006cda121477818b6262c95d56a4fcdb24e3b1dc6064736f6c634300081e0033",
			"opcodes": "PUSH1 0x80 PUSH1 0x40 MSTORE CALLVALUE DUP1 ISZERO PUSH2 0xF JUMPI PUSH0 PUSH0 REVERT JUMPDEST POP PUSH1 0x40 MLOAD PUSH2 0x203E CODESIZE SUB DUP1 PUSH2 0x203E DUP4 CODECOPY DUP2 DUP2 ADD PUSH1 0x40 MSTORE DUP2 ADD SWAP1 PUSH2 0x31 SWAP2 SWAP1 PUSH2 0x115 JUMP JUMPDEST DUP2 PUSH0 PUSH0 PUSH2 0x100 EXP DUP2 SLOAD DUP2 PUSH20 0xFFFFFFFFFFFFFFFFFFFFFFFFFFFFFFFFFFFFFFFF MUL NOT AND SWAP1 DUP4 PUSH20 0xFFFFFFFFFFFFFFFFFFFFFFFFFFFFFFFFFFFFFFFF AND MUL OR SWAP1 SSTORE POP DUP1 PUSH1 0x1 PUSH0 PUSH2 0x100 EXP DUP2 SLOAD DUP2 PUSH20 0xFFFFFFFFFFFFFFFFFFFFFFFFFFFFFFFFFFFFFFFF MUL NOT AND SWAP1 DUP4 PUSH20 0xFFFFFFFFFFFFFFFFFFFFFFFFFFFFFFFFFFFFFFFF AND MUL OR SWAP1 SSTORE POP POP POP PUSH2 0x153 JUMP JUMPDEST PUSH0 PUSH0 REVERT JUMPDEST PUSH0 PUSH20 0xFFFFFFFFFFFFFFFFFFFFFFFFFFFFFFFFFFFFFFFF DUP3 AND SWAP1 POP SWAP2 SWAP1 POP JUMP JUMPDEST PUSH0 PUSH2 0xE4 DUP3 PUSH2 0xBB JUMP JUMPDEST SWAP1 POP SWAP2 SWAP1 POP JUMP JUMPDEST PUSH2 0xF4 DUP2 PUSH2 0xDA JUMP JUMPDEST DUP2 EQ PUSH2 0xFE JUMPI PUSH0 PUSH0 REVERT JUMPDEST POP JUMP JUMPDEST PUSH0 DUP2 MLOAD SWAP1 POP PUSH2 0x10F DUP2 PUSH2 0xEB JUMP JUMPDEST SWAP3 SWAP2 POP POP JUMP JUMPDEST PUSH0 PUSH0 PUSH1 0x40 DUP4 DUP6 SUB SLT ISZERO PUSH2 0x12B JUMPI PUSH2 0x12A PUSH2 0xB7 JUMP JUMPDEST JUMPDEST PUSH0 PUSH2 0x138 DUP6 DUP3 DUP7 ADD PUSH2 0x101 JUMP JUMPDEST SWAP3 POP POP PUSH1 0x20 PUSH2 0x149 DUP6 DUP3 DUP7 ADD PUSH2 0x101 JUMP JUMPDEST SWAP2 POP POP SWAP3 POP SWAP3 SWAP1 POP JUMP JUMPDEST PUSH2 0x1EDE DUP1 PUSH2 0x160 PUSH0 CODECOPY PUSH0 RETURN INVALID PUSH1 0x80 PUSH1 0x40 MSTORE CALLVALUE DUP1 ISZERO PUSH2 0xF JUMPI PUSH0 PUSH0 REVERT JUMPDEST POP PUSH1 0x4 CALLDATASIZE LT PUSH2 0x86 JUMPI PUSH0 CALLDATALOAD PUSH1 0xE0 SHR DUP1 PUSH4 0xAFAB107E GT PUSH2 0x59 JUMPI DUP1 PUSH4 0xAFAB107E EQ PUSH2 0xEC JUMPI DUP1 PUSH4 0xC2897B10 EQ PUSH2 0x108 JUMPI DUP1 PUSH4 0xDAE10ED5 EQ PUSH2 0x112 JUMPI DUP1 PUSH4 0xFBFA77CF EQ PUSH2 0x11C JUMPI PUSH2 0x86 JUMP JUMPDEST DUP1 PUSH4 0x31A56B83 EQ PUSH2 0x8A JUMPI DUP1 PUSH4 0x566595B2 EQ PUSH2 0xA6 JUMPI DUP1 PUSH4 0x673EE37C EQ PUSH2 0xB0 JUMPI DUP1 PUSH4 0x7DC0D1D0 EQ PUSH2 0xCE JUMPI JUMPDEST PUSH0 PUSH0 REVERT JUMPDEST PUSH2 0xA4 PUSH1 0x4 DUP1 CALLDATASIZE SUB DUP2 ADD SWAP1 PUSH2 0x9F SWAP2 SWAP1 PUSH2 0x13DF JUMP JUMPDEST PUSH2 0x13A JUMP JUMPDEST STOP JUMPDEST PUSH2 0xAE PUSH2 0x363 JUMP JUMPDEST STOP JUMPDEST PUSH2 0xB8 PUSH2 0x48D JUMP JUMPDEST PUSH1 0x40 MLOAD PUSH2 0xC5 SWAP2 SWAP1 PUSH2 0x1419 JUMP JUMPDEST PUSH1 0x40 MLOAD DUP1 SWAP2 SUB SWAP1 RETURN JUMPDEST PUSH2 0xD6 PUSH2 0x493 JUMP JUMPDEST PUSH1 0x40 MLOAD PUSH2 0xE3 SWAP2 SWAP1 PUSH2 0x14AC JUMP JUMPDEST PUSH1 0x40 MLOAD DUP1 SWAP2 SUB SWAP1 RETURN JUMPDEST PUSH2 0x106 PUSH1 0x4 DUP1 CALLDATASIZE SUB DUP2 ADD SWAP1 PUSH2 0x101 SWAP2 SWAP1 PUSH2 0x13DF JUMP JUMPDEST PUSH2 0x4B8 JUMP JUMPDEST STOP JUMPDEST PUSH2 0x110 PUSH2 0x7DC JUMP JUMPDEST STOP JUMPDEST PUSH2 0x11A PUSH2 0x910 JUMP JUMPDEST STOP JUMPDEST PUSH2 0x124 PUSH2 0xAC2 JUMP JUMPDEST PUSH1 0x40 MLOAD PUSH2 0x131 SWAP2 SWAP1 PUSH2 0x14E5 JUMP JUMPDEST PUSH1 0x40 MLOAD DUP1 SWAP2 SUB SWAP1 RETURN JUMPDEST PUSH0 PUSH1 0x3 PUSH0 CALLER PUSH20 0xFFFFFFFFFFFFFFFFFFFFFFFFFFFFFFFFFFFFFFFF AND PUSH20 0xFFFFFFFFFFFFFFFFFFFFFFFFFFFFFFFFFFFFFFFF AND DUP2 MSTORE PUSH1 0x20 ADD SWAP1 DUP2 MSTORE PUSH1 0x20 ADD PUSH0 KECCAK256 SLOAD EQ PUSH2 0x1B9 JUMPI PUSH1 0x40 MLOAD PUSH32 0x8C379A000000000000000000000000000000000000000000000000000000000 DUP2 MSTORE PUSH1 0x4 ADD PUSH2 0x1B0 SWAP1 PUSH2 0x1558 JUMP JUMPDEST PUSH1 0x40 MLOAD DUP1 SWAP2 SUB SWAP1 REVERT JUMPDEST PUSH0 PUSH1 0x2 PUSH0 DUP2 SLOAD DUP1 SWAP3 SWAP2 SWAP1 PUSH2 0x1CC SWAP1 PUSH2 0x15A3 JUMP JUMPDEST SWAP2 SWAP1 POP SSTORE SWAP1 POP DUP1 PUSH1 0x3 PUSH0 CALLER PUSH20 0xFFFFFFFFFFFFFFFFFFFFFFFFFFFFFFFFFFFFFFFF AND PUSH20 0xFFFFFFFFFFFFFFFFFFFFFFFFFFFFFFFFFFFFFFFF AND DUP2 MSTORE PUSH1 0x20 ADD SWAP1 DUP2 MSTORE PUSH1 0x20 ADD PUSH0 KECCAK256 DUP2 SWAP1 SSTORE POP PUSH0 PUSH1 0x4 PUSH0 DUP4 DUP2 MSTORE PUSH1 0x20 ADD SWAP1 DUP2 MSTORE PUSH1 0x20 ADD PUSH0 KECCAK256 SWAP1 POP DUP2 DUP2 PUSH0 ADD DUP2 SWAP1 SSTORE POP CALLER DUP2 PUSH1 0x2 ADD PUSH0 PUSH2 0x100 EXP DUP2 SLOAD DUP2 PUSH20 0xFFFFFFFFFFFFFFFFFFFFFFFFFFFFFFFFFFFFFFFF MUL NOT AND SWAP1 DUP4 PUSH20 0xFFFFFFFFFFFFFFFFFFFFFFFFFFFFFFFFFFFFFFFF AND MUL OR SWAP1 SSTORE POP DUP3 DUP2 PUSH1 0x3 ADD DUP2 SWAP1 SSTORE POP PUSH0 DUP2 PUSH1 0x6 ADD PUSH0 PUSH2 0x100 EXP DUP2 SLOAD DUP2 PUSH1 0xFF MUL NOT AND SWAP1 DUP4 PUSH1 0xFF AND MUL OR SWAP1 SSTORE POP PUSH0 DUP2 PUSH1 0xB ADD PUSH0 PUSH2 0x100 EXP DUP2 SLOAD DUP2 PUSH1 0xFF MUL NOT AND SWAP1 DUP4 ISZERO ISZERO MUL OR SWAP1 SSTORE POP PUSH1 0x1 DUP2 PUSH1 0x6 ADD PUSH1 0x1 PUSH2 0x100 EXP DUP2 SLOAD DUP2 PUSH1 0xFF MUL NOT AND SWAP1 DUP4 PUSH1 0x4 DUP2 GT ISZERO PUSH2 0x2DA JUMPI PUSH2 0x2D9 PUSH2 0x15EA JUMP JUMPDEST JUMPDEST MUL OR SWAP1 SSTORE POP PUSH0 DUP2 PUSH1 0xB ADD PUSH1 0x1 PUSH2 0x100 EXP DUP2 SLOAD DUP2 PUSH1 0xFF MUL NOT AND SWAP1 DUP4 PUSH1 0xFF AND MUL OR SWAP1 SSTORE POP PUSH0 DUP2 PUSH1 0xB ADD PUSH1 0x2 PUSH2 0x100 EXP DUP2 SLOAD DUP2 PUSH1 0xFF MUL NOT AND SWAP1 DUP4 PUSH1 0xFF AND MUL OR SWAP1 SSTORE POP PUSH0 DUP2 PUSH1 0x1 ADD DUP2 SWAP1 SSTORE POP PUSH32 0xC3E0F84839DC888C892A013D10C8F9D6DC05A21A879D0CE468CA558013E9121C DUP2 PUSH0 ADD SLOAD CALLER PUSH1 0x40 MLOAD PUSH2 0x356 SWAP3 SWAP2 SWAP1 PUSH2 0x1637 JUMP JUMPDEST PUSH1 0x40 MLOAD DUP1 SWAP2 SUB SWAP1 LOG1 POP POP POP JUMP JUMPDEST PUSH0 PUSH1 0x3 PUSH0 CALLER PUSH20 0xFFFFFFFFFFFFFFFFFFFFFFFFFFFFFFFFFFFFFFFF AND PUSH20 0xFFFFFFFFFFFFFFFFFFFFFFFFFFFFFFFFFFFFFFFF AND DUP2 MSTORE PUSH1 0x20 ADD SWAP1 DUP2 MSTORE PUSH1 0x20 ADD PUSH0 KECCAK256 SLOAD SWAP1 POP PUSH0 PUSH1 0x4 PUSH0 DUP4 DUP2 MSTORE PUSH1 0x20 ADD SWAP1 DUP2 MSTORE PUSH1 0x20 ADD PUSH0 KECCAK256 SWAP1 POP DUP1 PUSH1 0xB ADD PUSH0 SWAP1 SLOAD SWAP1 PUSH2 0x100 EXP SWAP1 DIV PUSH1 0xFF AND PUSH2 0x408 JUMPI PUSH1 0x40 MLOAD PUSH32 0x8C379A000000000000000000000000000000000000000000000000000000000 DUP2 MSTORE PUSH1 0x4 ADD PUSH2 0x3FF SWAP1 PUSH2 0x16A8 JUMP JUMPDEST PUSH1 0x40 MLOAD DUP1 SWAP2 SUB SWAP1 REVERT JUMPDEST PUSH1 0x2 PUSH1 0x4 DUP2 GT ISZERO PUSH2 0x41C JUMPI PUSH2 0x41B PUSH2 0x15EA JUMP JUMPDEST JUMPDEST DUP2 PUSH1 0x6 ADD PUSH1 0x1 SWAP1 SLOAD SWAP1 PUSH2 0x100 EXP SWAP1 DIV PUSH1 0xFF AND PUSH1 0x4 DUP2 GT ISZERO PUSH2 0x440 JUMPI PUSH2 0x43F PUSH2 0x15EA JUMP JUMPDEST JUMPDEST EQ PUSH2 0x480 JUMPI PUSH1 0x40 MLOAD PUSH32 0x8C379A000000000000000000000000000000000000000000000000000000000 DUP2 MSTORE PUSH1 0x4 ADD PUSH2 0x477 SWAP1 PUSH2 0x1710 JUMP JUMPDEST PUSH1 0x40 MLOAD DUP1 SWAP2 SUB SWAP1 REVERT JUMPDEST PUSH2 0x489 DUP2 PUSH2 0xAE6 JUMP JUMPDEST POP POP JUMP JUMPDEST PUSH1 0x2 SLOAD DUP2 JUMP JUMPDEST PUSH1 0x1 PUSH0 SWAP1 SLOAD SWAP1 PUSH2 0x100 EXP SWAP1 DIV PUSH20 0xFFFFFFFFFFFFFFFFFFFFFFFFFFFFFFFFFFFFFFFF AND DUP2 JUMP JUMPDEST PUSH5 0x174876E800 DUP2 LT ISZERO DUP1 ISZERO PUSH2 0x4D4 JUMPI POP PUSH7 0x38D7EA4C68000 DUP2 GT ISZERO JUMPDEST PUSH2 0x513 JUMPI PUSH1 0x40 MLOAD PUSH32 0x8C379A000000000000000000000000000000000000000000000000000000000 DUP2 MSTORE PUSH1 0x4 ADD PUSH2 0x50A SWAP1 PUSH2 0x1778 JUMP JUMPDEST PUSH1 0x40 MLOAD DUP1 SWAP2 SUB SWAP1 REVERT JUMPDEST PUSH0 PUSH1 0x3 PUSH0 CALLER PUSH20 0xFFFFFFFFFFFFFFFFFFFFFFFFFFFFFFFFFFFFFFFF AND PUSH20 0xFFFFFFFFFFFFFFFFFFFFFFFFFFFFFFFFFFFFFFFF AND DUP2 MSTORE PUSH1 0x20 ADD SWAP1 DUP2 MSTORE PUSH1 0x20 ADD PUSH0 KECCAK256 SLOAD SUB PUSH2 0x592 JUMPI PUSH1 0x40 MLOAD PUSH32 0x8C379A000000000000000000000000000000000000000000000000000000000 DUP2 MSTORE PUSH1 0x4 ADD PUSH2 0x589 SWAP1 PUSH2 0x17E0 JUMP JUMPDEST PUSH1 0x40 MLOAD DUP1 SWAP2 SUB SWAP1 REVERT JUMPDEST PUSH0 PUSH1 0x3 PUSH0 CALLER PUSH20 0xFFFFFFFFFFFFFFFFFFFFFFFFFFFFFFFFFFFFFFFF AND PUSH20 0xFFFFFFFFFFFFFFFFFFFFFFFFFFFFFFFFFFFFFFFF AND DUP2 MSTORE PUSH1 0x20 ADD SWAP1 DUP2 MSTORE PUSH1 0x20 ADD PUSH0 KECCAK256 SLOAD SWAP1 POP PUSH0 PUSH1 0x4 PUSH0 DUP4 DUP2 MSTORE PUSH1 0x20 ADD SWAP1 DUP2 MSTORE PUSH1 0x20 ADD PUSH0 KECCAK256 SWAP1 POP PUSH0 DUP2 PUSH1 0x1 ADD SLOAD EQ PUSH2 0x62D JUMPI PUSH1 0x40 MLOAD PUSH32 0x8C379A000000000000000000000000000000000000000000000000000000000 DUP2 MSTORE PUSH1 0x4 ADD PUSH2 0x624 SWAP1 PUSH2 0x1848 JUMP JUMPDEST PUSH1 0x40 MLOAD DUP1 SWAP2 SUB SWAP1 REVERT JUMPDEST PUSH1 0x1 PUSH1 0x4 DUP2 GT ISZERO PUSH2 0x641 JUMPI PUSH2 0x640 PUSH2 0x15EA JUMP JUMPDEST JUMPDEST DUP2 PUSH1 0x6 ADD PUSH1 0x1 SWAP1 SLOAD SWAP1 PUSH2 0x100 EXP SWAP1 DIV PUSH1 0xFF AND PUSH1 0x4 DUP2 GT ISZERO PUSH2 0x665 JUMPI PUSH2 0x664 PUSH2 0x15EA JUMP JUMPDEST JUMPDEST EQ PUSH2 0x6A5 JUMPI PUSH1 0x40 MLOAD PUSH32 0x8C379A000000000000000000000000000000000000000000000000000000000 DUP2 MSTORE PUSH1 0x4 ADD PUSH2 0x69C SWAP1 PUSH2 0x18B0 JUMP JUMPDEST PUSH1 0x40 MLOAD DUP1 SWAP2 SUB SWAP1 REVERT JUMPDEST DUP3 DUP2 PUSH1 0x1 ADD DUP2 SWAP1 SSTORE POP PUSH1 0x1 PUSH0 SWAP1 SLOAD SWAP1 PUSH2 0x100 EXP SWAP1 DIV PUSH20 0xFFFFFFFFFFFFFFFFFFFFFFFFFFFFFFFFFFFFFFFF AND PUSH20 0xFFFFFFFFFFFFFFFFFFFFFFFFFFFFFFFFFFFFFFFF AND PUSH4 0x41DF082 DUP3 PUSH1 0x4 ADD SLOAD DUP4 PUSH1 0x3 ADD SLOAD PUSH1 0x40 MLOAD DUP4 PUSH4 0xFFFFFFFF AND PUSH1 0xE0 SHL DUP2 MSTORE PUSH1 0x4 ADD PUSH2 0x712 SWAP3 SWAP2 SWAP1 PUSH2 0x18CE JUMP JUMPDEST PUSH1 0x20 PUSH1 0x40 MLOAD DUP1 DUP4 SUB DUP2 DUP7 GAS STATICCALL ISZERO DUP1 ISZERO PUSH2 0x72D JUMPI RETURNDATASIZE PUSH0 PUSH0 RETURNDATACOPY RETURNDATASIZE PUSH0 REVERT JUMPDEST POP POP POP POP PUSH1 0x40 MLOAD RETURNDATASIZE PUSH1 0x1F NOT PUSH1 0x1F DUP3 ADD AND DUP3 ADD DUP1 PUSH1 0x40 MSTORE POP DUP2 ADD SWAP1 PUSH2 0x751 SWAP2 SWAP1 PUSH2 0x1928 JUMP JUMPDEST DUP2 PUSH1 0x5 ADD DUP2 SWAP1 SSTORE POP PUSH1 0x2 DUP2 PUSH1 0x6 ADD PUSH1 0x1 PUSH2 0x100 EXP DUP2 SLOAD DUP2 PUSH1 0xFF MUL NOT AND SWAP1 DUP4 PUSH1 0x4 DUP2 GT ISZERO PUSH2 0x781 JUMPI PUSH2 0x780 PUSH2 0x15EA JUMP JUMPDEST JUMPDEST MUL OR SWAP1 SSTORE POP PUSH2 0x78F DUP2 PUSH2 0xB48 JUMP JUMPDEST PUSH32 0xE97CE5F641B8A03E0F92D0B4480F849CF26A7BFDF17862C8EDAF69268E60AAD DUP2 PUSH0 ADD SLOAD CALLER DUP4 PUSH1 0x1 ADD SLOAD DUP5 PUSH1 0x5 ADD SLOAD PUSH1 0x40 MLOAD PUSH2 0x7CF SWAP5 SWAP4 SWAP3 SWAP2 SWAP1 PUSH2 0x1962 JUMP JUMPDEST PUSH1 0x40 MLOAD DUP1 SWAP2 SUB SWAP1 LOG1 POP POP POP JUMP JUMPDEST PUSH0 PUSH1 0x3 PUSH0 CALLER PUSH20 0xFFFFFFFFFFFFFFFFFFFFFFFFFFFFFFFFFFFFFFFF AND PUSH20 0xFFFFFFFFFFFFFFFFFFFFFFFFFFFFFFFFFFFFFFFF AND DUP2 MSTORE PUSH1 0x20 ADD SWAP1 DUP2 MSTORE PUSH1 0x20 ADD PUSH0 KECCAK256 SLOAD SWAP1 POP PUSH0 PUSH1 0x4 PUSH0 DUP4 DUP2 MSTORE PUSH1 0x20 ADD SWAP1 DUP2 MSTORE PUSH1 0x20 ADD PUSH0 KECCAK256 SWAP1 POP PUSH1 0x3 PUSH1 0x4 DUP2 GT ISZERO PUSH2 0x845 JUMPI PUSH2 0x844 PUSH2 0x15EA JUMP JUMPDEST JUMPDEST DUP2 PUSH1 0x6 ADD PUSH1 0x1 SWAP1 SLOAD SWAP1 PUSH2 0x100 EXP SWAP1 DIV PUSH1 0xFF AND PUSH1 0x4 DUP2 GT ISZERO PUSH2 0x869 JUMPI PUSH2 0x868 PUSH2 0x15EA JUMP JUMPDEST JUMPDEST EQ PUSH2 0x8A9 JUMPI PUSH1 0x40 MLOAD PUSH32 0x8C379A000000000000000000000000000000000000000000000000000000000 DUP2 MSTORE PUSH1 0x4 ADD PUSH2 0x8A0 SWAP1 PUSH2 0x19EF JUMP JUMPDEST PUSH1 0x40 MLOAD DUP1 SWAP2 SUB SWAP1 REVERT JUMPDEST PUSH1 0x2 DUP2 PUSH1 0x6 ADD PUSH1 0x1 PUSH2 0x100 EXP DUP2 SLOAD DUP2 PUSH1 0xFF MUL NOT AND SWAP1 DUP4 PUSH1 0x4 DUP2 GT ISZERO PUSH2 0x8D1 JUMPI PUSH2 0x8D0 PUSH2 0x15EA JUMP JUMPDEST JUMPDEST MUL OR SWAP1 SSTORE POP JUMPDEST PUSH1 0x11 DUP2 PUSH1 0xB ADD PUSH1 0x2 SWAP1 SLOAD SWAP1 PUSH2 0x100 EXP SWAP1 DIV PUSH1 0xFF AND PUSH1 0xFF AND LT ISZERO PUSH2 0x902 JUMPI PUSH2 0x8FD DUP2 PUSH2 0xDAC JUMP JUMPDEST PUSH2 0x8D7 JUMP JUMPDEST PUSH2 0x90B DUP2 PUSH2 0xE34 JUMP JUMPDEST POP POP POP JUMP JUMPDEST PUSH0 PUSH1 0x3 PUSH0 CALLER PUSH20 0xFFFFFFFFFFFFFFFFFFFFFFFFFFFFFFFFFFFFFFFF AND PUSH20 0xFFFFFFFFFFFFFFFFFFFFFFFFFFFFFFFFFFFFFFFF AND DUP2 MSTORE PUSH1 0x20 ADD SWAP1 DUP2 MSTORE PUSH1 0x20 ADD PUSH0 KECCAK256 SLOAD SWAP1 POP PUSH0 PUSH1 0x4 PUSH0 DUP4 DUP2 MSTORE PUSH1 0x20 ADD SWAP1 DUP2 MSTORE PUSH1 0x20 ADD PUSH0 KECCAK256 SWAP1 POP PUSH1 0x4 DUP1 DUP2 GT ISZERO PUSH2 0x978 JUMPI PUSH2 0x977 PUSH2 0x15EA JUMP JUMPDEST JUMPDEST DUP2 PUSH1 0x6 ADD PUSH1 0x1 SWAP1 SLOAD SWAP1 PUSH2 0x100 EXP SWAP1 DIV PUSH1 0xFF AND PUSH1 0x4 DUP2 GT ISZERO PUSH2 0x99C JUMPI PUSH2 0x99B PUSH2 0x15EA JUMP JUMPDEST JUMPDEST SUB PUSH2 0x9DC JUMPI PUSH1 0x40 MLOAD PUSH32 0x8C379A000000000000000000000000000000000000000000000000000000000 DUP2 MSTORE PUSH1 0x4 ADD PUSH2 0x9D3 SWAP1 PUSH2 0x1A57 JUMP JUMPDEST PUSH1 0x40 MLOAD DUP1 SWAP2 SUB SWAP1 REVERT JUMPDEST PUSH1 0x3 PUSH1 0x4 DUP2 GT ISZERO PUSH2 0x9F0 JUMPI PUSH2 0x9EF PUSH2 0x15EA JUMP JUMPDEST JUMPDEST DUP2 PUSH1 0x6 ADD PUSH1 0x1 SWAP1 SLOAD SWAP1 PUSH2 0x100 EXP SWAP1 DIV PUSH1 0xFF AND PUSH1 0x4 DUP2 GT ISZERO PUSH2 0xA14 JUMPI PUSH2 0xA13 PUSH2 0x15EA JUMP JUMPDEST JUMPDEST EQ PUSH2 0xA54 JUMPI PUSH1 0x40 MLOAD PUSH32 0x8C379A000000000000000000000000000000000000000000000000000000000 DUP2 MSTORE PUSH1 0x4 ADD PUSH2 0xA4B SWAP1 PUSH2 0x1ABF JUMP JUMPDEST PUSH1 0x40 MLOAD DUP1 SWAP2 SUB SWAP1 REVERT JUMPDEST PUSH1 0x15 DUP2 PUSH1 0xB ADD PUSH1 0x1 SWAP1 SLOAD SWAP1 PUSH2 0x100 EXP SWAP1 DIV PUSH1 0xFF AND PUSH1 0xFF AND LT PUSH2 0xAAB JUMPI PUSH1 0x40 MLOAD PUSH32 0x8C379A000000000000000000000000000000000000000000000000000000000 DUP2 MSTORE PUSH1 0x4 ADD PUSH2 0xAA2 SWAP1 PUSH2 0x1B27 JUMP JUMPDEST PUSH1 0x40 MLOAD DUP1 SWAP2 SUB SWAP1 REVERT JUMPDEST PUSH2 0xAB4 DUP2 PUSH2 0xFA7 JUMP JUMPDEST PUSH2 0xABD DUP2 PUSH2 0xE34 JUMP JUMPDEST POP POP POP JUMP JUMPDEST PUSH0 PUSH0 SWAP1 SLOAD SWAP1 PUSH2 0x100 EXP SWAP1 DIV PUSH20 0xFFFFFFFFFFFFFFFFFFFFFFFFFFFFFFFFFFFFFFFF AND DUP2 JUMP JUMPDEST PUSH2 0xAEF DUP2 PUSH2 0xFA7 JUMP JUMPDEST PUSH2 0xAF8 DUP2 PUSH2 0xDAC JUMP JUMPDEST PUSH2 0xB01 DUP2 PUSH2 0xFA7 JUMP JUMPDEST PUSH2 0xB0A DUP2 PUSH2 0xDAC JUMP JUMPDEST PUSH2 0xB13 DUP2 PUSH2 0xE34 JUMP JUMPDEST PUSH2 0xB45 JUMPI PUSH1 0x3 DUP2 PUSH1 0x6 ADD PUSH1 0x1 PUSH2 0x100 EXP DUP2 SLOAD DUP2 PUSH1 0xFF MUL NOT AND SWAP1 DUP4 PUSH1 0x4 DUP2 GT ISZERO PUSH2 0xB3F JUMPI PUSH2 0xB3E PUSH2 0x15EA JUMP JUMPDEST JUMPDEST MUL OR SWAP1 SSTORE POP JUMPDEST POP JUMP JUMPDEST PUSH1 0x2 PUSH1 0x4 DUP2 GT ISZERO PUSH2 0xB5C JUMPI PUSH2 0xB5B PUSH2 0x15EA JUMP JUMPDEST JUMPDEST DUP2 PUSH1 0x6 ADD PUSH1 0x1 SWAP1 SLOAD SWAP1 PUSH2 0x100 EXP SWAP1 DIV PUSH1 0xFF AND PUSH1 0x4 DUP2 GT ISZERO PUSH2 0xB80 JUMPI PUSH2 0xB7F PUSH2 0x15EA JUMP JUMPDEST JUMPDEST EQ PUSH2 0xBC0 JUMPI PUSH1 0x40 MLOAD PUSH32 0x8C379A000000000000000000000000000000000000000000000000000000000 DUP2 MSTORE PUSH1 0x4 ADD PUSH2 0xBB7 SWAP1 PUSH2 0x1B8F JUMP JUMPDEST PUSH1 0x40 MLOAD DUP1 SWAP2 SUB SWAP1 REVERT JUMPDEST PUSH0 ISZERO ISZERO DUP2 PUSH1 0xB ADD PUSH0 SWAP1 SLOAD SWAP1 PUSH2 0x100 EXP SWAP1 DIV PUSH1 0xFF AND ISZERO ISZERO EQ PUSH2 0xC16 JUMPI PUSH1 0x40 MLOAD PUSH32 0x8C379A000000000000000000000000000000000000000000000000000000000 DUP2 MSTORE PUSH1 0x4 ADD PUSH2 0xC0D SWAP1 PUSH2 0x1BF7 JUMP JUMPDEST PUSH1 0x40 MLOAD DUP1 SWAP2 SUB SWAP1 REVERT JUMPDEST PUSH0 PUSH0 SWAP1 POP JUMPDEST PUSH1 0x68 PUSH1 0xFF AND DUP2 PUSH1 0xFF AND LT ISZERO PUSH2 0xC71 JUMPI DUP1 DUP3 PUSH1 0x7 ADD DUP3 PUSH1 0xFF AND PUSH1 0x68 DUP2 LT PUSH2 0xC44 JUMPI PUSH2 0xC43 PUSH2 0x1C15 JUMP JUMPDEST JUMPDEST PUSH1 0x20 SWAP2 DUP3 DUP3 DIV ADD SWAP2 SWAP1 MOD PUSH2 0x100 EXP DUP2 SLOAD DUP2 PUSH1 0xFF MUL NOT AND SWAP1 DUP4 PUSH1 0xFF AND MUL OR SWAP1 SSTORE POP DUP1 DUP1 PUSH1 0x1 ADD SWAP2 POP POP PUSH2 0xC1B JUMP JUMPDEST POP PUSH0 PUSH0 SWAP1 POP JUMPDEST PUSH1 0x68 PUSH1 0xFF AND DUP2 LT ISZERO PUSH2 0xD8C JUMPI PUSH0 DUP2 PUSH1 0x68 PUSH1 0xFF AND PUSH2 0xC94 SWAP2 SWAP1 PUSH2 0x1C42 JUMP JUMPDEST DUP4 PUSH1 0x5 ADD SLOAD PUSH0 SHR PUSH2 0xCA5 SWAP2 SWAP1 PUSH2 0x1CA2 JUMP JUMPDEST DUP3 PUSH2 0xCB0 SWAP2 SWAP1 PUSH2 0x1CD2 JUMP JUMPDEST SWAP1 POP DUP3 PUSH1 0x7 ADD DUP2 PUSH1 0x68 DUP2 LT PUSH2 0xCC8 JUMPI PUSH2 0xCC7 PUSH2 0x1C15 JUMP JUMPDEST JUMPDEST PUSH1 0x20 SWAP2 DUP3 DUP3 DIV ADD SWAP2 SWAP1 MOD SWAP1 SLOAD SWAP1 PUSH2 0x100 EXP SWAP1 DIV PUSH1 0xFF AND DUP4 PUSH1 0x7 ADD DUP4 PUSH1 0x68 DUP2 LT PUSH2 0xCF4 JUMPI PUSH2 0xCF3 PUSH2 0x1C15 JUMP JUMPDEST JUMPDEST PUSH1 0x20 SWAP2 DUP3 DUP3 DIV ADD SWAP2 SWAP1 MOD SWAP1 SLOAD SWAP1 PUSH2 0x100 EXP SWAP1 DIV PUSH1 0xFF AND DUP5 PUSH1 0x7 ADD DUP5 PUSH1 0x68 DUP2 LT PUSH2 0xD20 JUMPI PUSH2 0xD1F PUSH2 0x1C15 JUMP JUMPDEST JUMPDEST PUSH1 0x20 SWAP2 DUP3 DUP3 DIV ADD SWAP2 SWAP1 MOD DUP7 PUSH1 0x7 ADD DUP6 PUSH1 0x68 DUP2 LT PUSH2 0xD40 JUMPI PUSH2 0xD3F PUSH2 0x1C15 JUMP JUMPDEST JUMPDEST PUSH1 0x20 SWAP2 DUP3 DUP3 DIV ADD SWAP2 SWAP1 MOD DUP5 SWAP2 SWAP1 PUSH2 0x100 EXP DUP2 SLOAD DUP2 PUSH1 0xFF MUL NOT AND SWAP1 DUP4 PUSH1 0xFF AND MUL OR SWAP1 SSTORE POP DUP4 SWAP2 SWAP1 PUSH2 0x100 EXP DUP2 SLOAD DUP2 PUSH1 0xFF MUL NOT AND SWAP1 DUP4 PUSH1 0xFF AND MUL OR SWAP1 SSTORE POP POP POP POP DUP1 DUP1 PUSH1 0x1 ADD SWAP2 POP POP PUSH2 0xC77 JUMP JUMPDEST POP PUSH1 0x1 DUP2 PUSH1 0xB ADD PUSH0 PUSH2 0x100 EXP DUP2 SLOAD DUP2 PUSH1 0xFF MUL NOT AND SWAP1 DUP4 ISZERO ISZERO MUL OR SWAP1 SSTORE POP POP JUMP JUMPDEST PUSH1 0x2 PUSH1 0x4 DUP2 GT ISZERO PUSH2 0xDC0 JUMPI PUSH2 0xDBF PUSH2 0x15EA JUMP JUMPDEST JUMPDEST DUP2 PUSH1 0x6 ADD PUSH1 0x1 SWAP1 SLOAD SWAP1 PUSH2 0x100 EXP SWAP1 DIV PUSH1 0xFF AND PUSH1 0x4 DUP2 GT ISZERO PUSH2 0xDE4 JUMPI PUSH2 0xDE3 PUSH2 0x15EA JUMP JUMPDEST JUMPDEST EQ PUSH2 0xDED JUMPI PUSH0 PUSH0 REVERT JUMPDEST PUSH0 PUSH2 0xDF7 DUP3 PUSH2 0xFEE JUMP JUMPDEST SWAP1 POP PUSH2 0xE14 DUP2 DUP4 PUSH1 0xB ADD PUSH1 0x2 SWAP1 SLOAD SWAP1 PUSH2 0x100 EXP SWAP1 DIV PUSH1 0xFF AND PUSH2 0x114D JUMP JUMPDEST DUP3 PUSH1 0xB ADD PUSH1 0x2 PUSH2 0x100 EXP DUP2 SLOAD DUP2 PUSH1 0xFF MUL NOT AND SWAP1 DUP4 PUSH1 0xFF AND MUL OR SWAP1 SSTORE POP POP POP JUMP JUMPDEST PUSH0 PUSH1 0x15 DUP3 PUSH1 0xB ADD PUSH1 0x1 SWAP1 SLOAD SWAP1 PUSH2 0x100 EXP SWAP1 DIV PUSH1 0xFF AND PUSH1 0xFF AND GT ISZERO PUSH2 0xE67 JUMPI PUSH2 0xE5E DUP3 PUSH1 0x2 PUSH0 PUSH2 0x11A2 JUMP JUMPDEST PUSH1 0x1 SWAP1 POP PUSH2 0xFA2 JUMP JUMPDEST PUSH1 0x15 DUP3 PUSH1 0xB ADD PUSH1 0x2 SWAP1 SLOAD SWAP1 PUSH2 0x100 EXP SWAP1 DIV PUSH1 0xFF AND PUSH1 0xFF AND GT ISZERO PUSH2 0xEA9 JUMPI PUSH2 0xEA0 DUP3 PUSH1 0x1 PUSH1 0x2 DUP6 PUSH1 0x1 ADD SLOAD PUSH2 0xE9B SWAP2 SWAP1 PUSH2 0x1D05 JUMP JUMPDEST PUSH2 0x11A2 JUMP JUMPDEST PUSH1 0x1 SWAP1 POP PUSH2 0xFA2 JUMP JUMPDEST PUSH2 0xEC3 DUP3 PUSH1 0xB ADD PUSH1 0x1 SWAP1 SLOAD SWAP1 PUSH2 0x100 EXP SWAP1 DIV PUSH1 0xFF AND PUSH2 0x137C JUMP JUMPDEST DUP1 ISZERO PUSH2 0xEE6 JUMPI POP PUSH2 0xEE4 DUP3 PUSH1 0xB ADD PUSH1 0x2 SWAP1 SLOAD SWAP1 PUSH2 0x100 EXP SWAP1 DIV PUSH1 0xFF AND PUSH2 0x137C JUMP JUMPDEST ISZERO JUMPDEST ISZERO PUSH2 0xF10 JUMPI PUSH2 0xF07 DUP3 PUSH1 0x1 PUSH1 0x2 DUP6 PUSH1 0x1 ADD SLOAD PUSH2 0xF02 SWAP2 SWAP1 PUSH2 0x1D05 JUMP JUMPDEST PUSH2 0x11A2 JUMP JUMPDEST PUSH1 0x1 SWAP1 POP PUSH2 0xFA2 JUMP JUMPDEST PUSH2 0xF2A DUP3 PUSH1 0xB ADD PUSH1 0x1 SWAP1 SLOAD SWAP1 PUSH2 0x100 EXP SWAP1 DIV PUSH1 0xFF AND PUSH2 0x137C JUMP JUMPDEST DUP1 ISZERO PUSH2 0xF4C JUMPI POP PUSH2 0xF4B DUP3 PUSH1 0xB ADD PUSH1 0x2 SWAP1 SLOAD SWAP1 PUSH2 0x100 EXP SWAP1 DIV PUSH1 0xFF AND PUSH2 0x137C JUMP JUMPDEST JUMPDEST ISZERO PUSH2 0xF6A JUMPI PUSH2 0xF61 DUP3 PUSH1 0x3 DUP5 PUSH1 0x1 ADD SLOAD PUSH2 0x11A2 JUMP JUMPDEST PUSH1 0x1 SWAP1 POP PUSH2 0xFA2 JUMP JUMPDEST PUSH2 0xF84 DUP3 PUSH1 0xB ADD PUSH1 0x2 SWAP1 SLOAD SWAP1 PUSH2 0x100 EXP SWAP1 DIV PUSH1 0xFF AND PUSH2 0x137C JUMP JUMPDEST ISZERO PUSH2 0xF9E JUMPI PUSH2 0xF95 DUP3 PUSH1 0x2 PUSH0 PUSH2 0x11A2 JUMP JUMPDEST PUSH1 0x1 SWAP1 POP PUSH2 0xFA2 JUMP JUMPDEST PUSH0 SWAP1 POP JUMPDEST SWAP2 SWAP1 POP JUMP JUMPDEST PUSH0 PUSH2 0xFB1 DUP3 PUSH2 0xFEE JUMP JUMPDEST SWAP1 POP PUSH2 0xFCE DUP2 DUP4 PUSH1 0xB ADD PUSH1 0x1 SWAP1 SLOAD SWAP1 PUSH2 0x100 EXP SWAP1 DIV PUSH1 0xFF AND PUSH2 0x114D JUMP JUMPDEST DUP3 PUSH1 0xB ADD PUSH1 0x1 PUSH2 0x100 EXP DUP2 SLOAD DUP2 PUSH1 0xFF MUL NOT AND SWAP1 DUP4 PUSH1 0xFF AND MUL OR SWAP1 SSTORE POP POP POP JUMP JUMPDEST PUSH0 DUP2 PUSH1 0xB ADD PUSH0 SWAP1 SLOAD SWAP1 PUSH2 0x100 EXP SWAP1 DIV PUSH1 0xFF AND PUSH2 0x103F JUMPI PUSH1 0x40 MLOAD PUSH32 0x8C379A000000000000000000000000000000000000000000000000000000000 DUP2 MSTORE PUSH1 0x4 ADD PUSH2 0x1036 SWAP1 PUSH2 0x16A8 JUMP JUMPDEST PUSH1 0x40 MLOAD DUP1 SWAP2 SUB SWAP1 REVERT JUMPDEST PUSH0 DUP3 PUSH1 0x7 ADD DUP4 PUSH1 0x6 ADD PUSH0 SWAP1 SLOAD SWAP1 PUSH2 0x100 EXP SWAP1 DIV PUSH1 0xFF AND PUSH1 0xFF AND PUSH1 0x68 DUP2 LT PUSH2 0x1069 JUMPI PUSH2 0x1068 PUSH2 0x1C15 JUMP JUMPDEST JUMPDEST PUSH1 0x20 SWAP2 DUP3 DUP3 DIV ADD SWAP2 SWAP1 MOD SWAP1 SLOAD SWAP1 PUSH2 0x100 EXP SWAP1 DIV PUSH1 0xFF AND SWAP1 POP PUSH0 PUSH1 0x1 PUSH1 0xD DUP4 PUSH2 0x1091 SWAP2 SWAP1 PUSH2 0x1D52 JUMP JUMPDEST PUSH2 0x109B SWAP2 SWAP1 PUSH2 0x1D82 JUMP JUMPDEST SWAP1 POP PUSH1 0xA DUP2 PUSH1 0xFF AND GT ISZERO PUSH2 0x10AE JUMPI PUSH1 0xA SWAP1 POP JUMPDEST DUP4 PUSH1 0x6 ADD PUSH0 DUP2 DUP2 SWAP1 SLOAD SWAP1 PUSH2 0x100 EXP SWAP1 DIV PUSH1 0xFF AND DUP1 SWAP3 SWAP2 SWAP1 PUSH2 0x10CE SWAP1 PUSH2 0x1DB6 JUMP JUMPDEST SWAP2 SWAP1 PUSH2 0x100 EXP DUP2 SLOAD DUP2 PUSH1 0xFF MUL NOT AND SWAP1 DUP4 PUSH1 0xFF AND MUL OR SWAP1 SSTORE POP POP PUSH32 0x5CB494422AEC3C1D66AD0616D3F90F8641E12057560336165C27BF8793FCE9CF DUP5 PUSH1 0x2 ADD PUSH0 SWAP1 SLOAD SWAP1 PUSH2 0x100 EXP SWAP1 DIV PUSH20 0xFFFFFFFFFFFFFFFFFFFFFFFFFFFFFFFFFFFFFFFF AND DUP4 PUSH1 0x40 MLOAD PUSH2 0x113B SWAP3 SWAP2 SWAP1 PUSH2 0x1DED JUMP JUMPDEST PUSH1 0x40 MLOAD DUP1 SWAP2 SUB SWAP1 LOG1 DUP1 SWAP3 POP POP POP SWAP2 SWAP1 POP JUMP JUMPDEST PUSH0 PUSH0 DUP3 DUP5 PUSH2 0x115B SWAP2 SWAP1 PUSH2 0x1D82 JUMP JUMPDEST SWAP1 POP PUSH2 0x1166 DUP5 PUSH2 0x138B JUMP JUMPDEST ISZERO PUSH2 0x1194 JUMPI PUSH1 0x15 DUP2 PUSH1 0xFF AND GT ISZERO PUSH2 0x118B JUMPI PUSH1 0x1 DUP4 PUSH2 0x1184 SWAP2 SWAP1 PUSH2 0x1D82 JUMP JUMPDEST SWAP3 POP PUSH2 0x118F JUMP JUMPDEST DUP1 SWAP3 POP JUMPDEST PUSH2 0x1198 JUMP JUMPDEST DUP1 SWAP3 POP JUMPDEST DUP3 SWAP2 POP POP SWAP3 SWAP2 POP POP JUMP JUMPDEST DUP2 DUP4 PUSH1 0x6 ADD PUSH1 0x2 PUSH2 0x100 EXP DUP2 SLOAD DUP2 PUSH1 0xFF MUL NOT AND SWAP1 DUP4 PUSH1 0x3 DUP2 GT ISZERO PUSH2 0x11C9 JUMPI PUSH2 0x11C8 PUSH2 0x15EA JUMP JUMPDEST JUMPDEST MUL OR SWAP1 SSTORE POP PUSH1 0x4 DUP4 PUSH1 0x6 ADD PUSH1 0x1 PUSH2 0x100 EXP DUP2 SLOAD DUP2 PUSH1 0xFF MUL NOT AND SWAP1 DUP4 PUSH1 0x4 DUP2 GT ISZERO PUSH2 0x11F6 JUMPI PUSH2 0x11F5 PUSH2 0x15EA JUMP JUMPDEST JUMPDEST MUL OR SWAP1 SSTORE POP PUSH0 DUP2 GT ISZERO PUSH2 0x12AF JUMPI PUSH0 PUSH0 SWAP1 SLOAD SWAP1 PUSH2 0x100 EXP SWAP1 DIV PUSH20 0xFFFFFFFFFFFFFFFFFFFFFFFFFFFFFFFFFFFFFFFF AND PUSH20 0xFFFFFFFFFFFFFFFFFFFFFFFFFFFFFFFFFFFFFFFF AND PUSH4 0x117DE2FD DUP5 PUSH1 0x2 ADD PUSH0 SWAP1 SLOAD SWAP1 PUSH2 0x100 EXP SWAP1 DIV PUSH20 0xFFFFFFFFFFFFFFFFFFFFFFFFFFFFFFFFFFFFFFFF AND DUP4 PUSH1 0x40 MLOAD DUP4 PUSH4 0xFFFFFFFF AND PUSH1 0xE0 SHL DUP2 MSTORE PUSH1 0x4 ADD PUSH2 0x1281 SWAP3 SWAP2 SWAP1 PUSH2 0x1E14 JUMP JUMPDEST PUSH0 PUSH1 0x40 MLOAD DUP1 DUP4 SUB DUP2 PUSH0 DUP8 DUP1 EXTCODESIZE ISZERO DUP1 ISZERO PUSH2 0x1298 JUMPI PUSH0 PUSH0 REVERT JUMPDEST POP GAS CALL ISZERO DUP1 ISZERO PUSH2 0x12AA JUMPI RETURNDATASIZE PUSH0 PUSH0 RETURNDATACOPY RETURNDATASIZE PUSH0 REVERT JUMPDEST POP POP POP POP JUMPDEST PUSH1 0x3 PUSH0 DUP5 PUSH1 0x2 ADD PUSH0 SWAP1 SLOAD SWAP1 PUSH2 0x100 EXP SWAP1 DIV PUSH20 0xFFFFFFFFFFFFFFFFFFFFFFFFFFFFFFFFFFFFFFFF AND PUSH20 0xFFFFFFFFFFFFFFFFFFFFFFFFFFFFFFFFFFFFFFFF AND PUSH20 0xFFFFFFFFFFFFFFFFFFFFFFFFFFFFFFFFFFFFFFFF AND DUP2 MSTORE PUSH1 0x20 ADD SWAP1 DUP2 MSTORE PUSH1 0x20 ADD PUSH0 KECCAK256 PUSH0 SWAP1 SSTORE PUSH0 DUP4 PUSH1 0x1 ADD DUP2 SWAP1 SSTORE POP PUSH32 0xECDAB0D30AE5A2B8D283ACF9ED4856306F12F29EF8069FAC9148D3D2AC6B4B14 DUP4 PUSH1 0x2 ADD PUSH0 SWAP1 SLOAD SWAP1 PUSH2 0x100 EXP SWAP1 DIV PUSH20 0xFFFFFFFFFFFFFFFFFFFFFFFFFFFFFFFFFFFFFFFF AND DUP4 PUSH1 0x40 MLOAD PUSH2 0x136F SWAP3 SWAP2 SWAP1 PUSH2 0x1E81 JUMP JUMPDEST PUSH1 0x40 MLOAD DUP1 SWAP2 SUB SWAP1 LOG1 POP POP POP JUMP JUMPDEST PUSH0 PUSH1 0x15 DUP3 PUSH1 0xFF AND EQ SWAP1 POP SWAP2 SWAP1 POP JUMP JUMPDEST PUSH0 PUSH1 0x1 DUP3 PUSH1 0xFF AND EQ DUP1 PUSH2 0x13A1 JUMPI POP PUSH1 0xB DUP3 PUSH1 0xFF AND EQ JUMPDEST SWAP1 POP SWAP2 SWAP1 POP JUMP JUMPDEST PUSH0 PUSH0 REVERT JUMPDEST PUSH0 DUP2 SWAP1 POP SWAP2 SWAP1 POP JUMP JUMPDEST PUSH2 0x13BE DUP2 PUSH2 0x13AC JUMP JUMPDEST DUP2 EQ PUSH2 0x13C8 JUMPI PUSH0 PUSH0 REVERT JUMPDEST POP JUMP JUMPDEST PUSH0 DUP2 CALLDATALOAD SWAP1 POP PUSH2 0x13D9 DUP2 PUSH2 0x13B5 JUMP JUMPDEST SWAP3 SWAP2 POP POP JUMP JUMPDEST PUSH0 PUSH1 0x20 DUP3 DUP5 SUB SLT ISZERO PUSH2 0x13F4 JUMPI PUSH2 0x13F3 PUSH2 0x13A8 JUMP JUMPDEST JUMPDEST PUSH0 PUSH2 0x1401 DUP5 DUP3 DUP6 ADD PUSH2 0x13CB JUMP JUMPDEST SWAP2 POP POP SWAP3 SWAP2 POP POP JUMP JUMPDEST PUSH2 0x1413 DUP2 PUSH2 0x13AC JUMP JUMPDEST DUP3 MSTORE POP POP JUMP JUMPDEST PUSH0 PUSH1 0x20 DUP3 ADD SWAP1 POP PUSH2 0x142C PUSH0 DUP4 ADD DUP5 PUSH2 0x140A JUMP JUMPDEST SWAP3 SWAP2 POP POP JUMP JUMPDEST PUSH0 PUSH20 0xFFFFFFFFFFFFFFFFFFFFFFFFFFFFFFFFFFFFFFFF DUP3 AND SWAP1 POP SWAP2 SWAP1 POP JUMP JUMPDEST PUSH0 DUP2 SWAP1 POP SWAP2 SWAP1 POP JUMP JUMPDEST PUSH0 PUSH2 0x1474 PUSH2 0x146F PUSH2 0x146A DUP5 PUSH2 0x1432 JUMP JUMPDEST PUSH2 0x1451 JUMP JUMPDEST PUSH2 0x1432 JUMP JUMPDEST SWAP1 POP SWAP2 SWAP1 POP JUMP JUMPDEST PUSH0 PUSH2 0x1485 DUP3 PUSH2 0x145A JUMP JUMPDEST SWAP1 POP SWAP2 SWAP1 POP JUMP JUMPDEST PUSH0 PUSH2 0x1496 DUP3 PUSH2 0x147B JUMP JUMPDEST SWAP1 POP SWAP2 SWAP1 POP JUMP JUMPDEST PUSH2 0x14A6 DUP2 PUSH2 0x148C JUMP JUMPDEST DUP3 MSTORE POP POP JUMP JUMPDEST PUSH0 PUSH1 0x20 DUP3 ADD SWAP1 POP PUSH2 0x14BF PUSH0 DUP4 ADD DUP5 PUSH2 0x149D JUMP JUMPDEST SWAP3 SWAP2 POP POP JUMP JUMPDEST PUSH0 PUSH2 0x14CF DUP3 PUSH2 0x147B JUMP JUMPDEST SWAP1 POP SWAP2 SWAP1 POP JUMP JUMPDEST PUSH2 0x14DF DUP2 PUSH2 0x14C5 JUMP JUMPDEST DUP3 MSTORE POP POP JUMP JUMPDEST PUSH0 PUSH1 0x20 DUP3 ADD SWAP1 POP PUSH2 0x14F8 PUSH0 DUP4 ADD DUP5 PUSH2 0x14D6 JUMP JUMPDEST SWAP3 SWAP2 POP POP JUMP JUMPDEST PUSH0 DUP3 DUP3 MSTORE PUSH1 0x20 DUP3 ADD SWAP1 POP SWAP3 SWAP2 POP POP JUMP JUMPDEST PUSH32 0x47616D6520616C726561647920696E2070726F67726573730000000000000000 PUSH0 DUP3 ADD MSTORE POP JUMP JUMPDEST PUSH0 PUSH2 0x1542 PUSH1 0x18 DUP4 PUSH2 0x14FE JUMP JUMPDEST SWAP2 POP PUSH2 0x154D DUP3 PUSH2 0x150E JUMP JUMPDEST PUSH1 0x20 DUP3 ADD SWAP1 POP SWAP2 SWAP1 POP JUMP JUMPDEST PUSH0 PUSH1 0x20 DUP3 ADD SWAP1 POP DUP2 DUP2 SUB PUSH0 DUP4 ADD MSTORE PUSH2 0x156F DUP2 PUSH2 0x1536 JUMP JUMPDEST SWAP1 POP SWAP2 SWAP1 POP JUMP JUMPDEST PUSH32 0x4E487B7100000000000000000000000000000000000000000000000000000000 PUSH0 MSTORE PUSH1 0x11 PUSH1 0x4 MSTORE PUSH1 0x24 PUSH0 REVERT JUMPDEST PUSH0 PUSH2 0x15AD DUP3 PUSH2 0x13AC JUMP JUMPDEST SWAP2 POP PUSH32 0xFFFFFFFFFFFFFFFFFFFFFFFFFFFFFFFFFFFFFFFFFFFFFFFFFFFFFFFFFFFFFFFF DUP3 SUB PUSH2 0x15DF JUMPI PUSH2 0x15DE PUSH2 0x1576 JUMP JUMPDEST JUMPDEST PUSH1 0x1 DUP3 ADD SWAP1 POP SWAP2 SWAP1 POP JUMP JUMPDEST PUSH32 0x4E487B7100000000000000000000000000000000000000000000000000000000 PUSH0 MSTORE PUSH1 0x21 PUSH1 0x4 MSTORE PUSH1 0x24 PUSH0 REVERT JUMPDEST PUSH0 PUSH2 0x1621 DUP3 PUSH2 0x1432 JUMP JUMPDEST SWAP1 POP SWAP2 SWAP1 POP JUMP JUMPDEST PUSH2 0x1631 DUP2 PUSH2 0x1617 JUMP JUMPDEST DUP3 MSTORE POP POP JUMP JUMPDEST PUSH0 PUSH1 0x40 DUP3 ADD SWAP1 POP PUSH2 0x164A PUSH0 DUP4 ADD DUP6 PUSH2 0x140A JUMP JUMPDEST PUSH2 0x1657 PUSH1 0x20 DUP4 ADD DUP5 PUSH2 0x1628 JUMP JUMPDEST SWAP4 SWAP3 POP POP POP JUMP JUMPDEST PUSH32 0x4465636B20686173206E6F74206265656E2073687566666C6564000000000000 PUSH0 DUP3 ADD MSTORE POP JUMP JUMPDEST PUSH0 PUSH2 0x1692 PUSH1 0x1A DUP4 PUSH2 0x14FE JUMP JUMPDEST SWAP2 POP PUSH2 0x169D DUP3 PUSH2 0x165E JUMP JUMPDEST PUSH1 0x20 DUP3 ADD SWAP1 POP SWAP2 SWAP1 POP JUMP JUMPDEST PUSH0 PUSH1 0x20 DUP3 ADD SWAP1 POP DUP2 DUP2 SUB PUSH0 DUP4 ADD MSTORE PUSH2 0x16BF DUP2 PUSH2 0x1686 JUMP JUMPDEST SWAP1 POP SWAP2 SWAP1 POP JUMP JUMPDEST PUSH32 0x4F6E6C7920746865206465616C65722063616E206465616C2068616E64730000 PUSH0 DUP3 ADD MSTORE POP JUMP JUMPDEST PUSH0 PUSH2 0x16FA PUSH1 0x1E DUP4 PUSH2 0x14FE JUMP JUMPDEST SWAP2 POP PUSH2 0x1705 DUP3 PUSH2 0x16C6 JUMP JUMPDEST PUSH1 0x20 DUP3 ADD SWAP1 POP SWAP2 SWAP1 POP JUMP JUMPDEST PUSH0 PUSH1 0x20 DUP3 ADD SWAP1 POP DUP2 DUP2 SUB PUSH0 DUP4 ADD MSTORE PUSH2 0x1727 DUP2 PUSH2 0x16EE JUMP JUMPDEST SWAP1 POP SWAP2 SWAP1 POP JUMP JUMPDEST PUSH32 0x426574206F7574206F662072616E67652E000000000000000000000000000000 PUSH0 DUP3 ADD MSTORE POP JUMP JUMPDEST PUSH0 PUSH2 0x1762 PUSH1 0x11 DUP4 PUSH2 0x14FE JUMP JUMPDEST SWAP2 POP PUSH2 0x176D DUP3 PUSH2 0x172E JUMP JUMPDEST PUSH1 0x20 DUP3 ADD SWAP1 POP SWAP2 SWAP1 POP JUMP JUMPDEST PUSH0 PUSH1 0x20 DUP3 ADD SWAP1 POP DUP2 DUP2 SUB PUSH0 DUP4 ADD MSTORE PUSH2 0x178F DUP2 PUSH2 0x1756 JUMP JUMPDEST SWAP1 POP SWAP2 SWAP1 POP JUMP JUMPDEST PUSH32 0x4E6F206163746976652067616D652063757272656E746C790000000000000000 PUSH0 DUP3 ADD MSTORE POP JUMP JUMPDEST PUSH0 PUSH2 0x17CA PUSH1 0x18 DUP4 PUSH2 0x14FE JUMP JUMPDEST SWAP2 POP PUSH2 0x17D5 DUP3 PUSH2 0x1796 JUMP JUMPDEST PUSH1 0x20 DUP3 ADD SWAP1 POP SWAP2 SWAP1 POP JUMP JUMPDEST PUSH0 PUSH1 0x20 DUP3 ADD SWAP1 POP DUP2 DUP2 SUB PUSH0 DUP4 ADD MSTORE PUSH2 0x17F7 DUP2 PUSH2 0x17BE JUMP JUMPDEST SWAP1 POP SWAP2 SWAP1 POP JUMP JUMPDEST PUSH32 0x42657420616C726561647920706C616365640000000000000000000000000000 PUSH0 DUP3 ADD MSTORE POP JUMP JUMPDEST PUSH0 PUSH2 0x1832 PUSH1 0x12 DUP4 PUSH2 0x14FE JUMP JUMPDEST SWAP2 POP PUSH2 0x183D DUP3 PUSH2 0x17FE JUMP JUMPDEST PUSH1 0x20 DUP3 ADD SWAP1 POP SWAP2 SWAP1 POP JUMP JUMPDEST PUSH0 PUSH1 0x20 DUP3 ADD SWAP1 POP DUP2 DUP2 SUB PUSH0 DUP4 ADD MSTORE PUSH2 0x185F DUP2 PUSH2 0x1826 JUMP JUMPDEST SWAP1 POP SWAP2 SWAP1 POP JUMP JUMPDEST PUSH32 0x546F6B656E20686173206E6F74206265656E2061737369676E65640000000000 PUSH0 DUP3 ADD MSTORE POP JUMP JUMPDEST PUSH0 PUSH2 0x189A PUSH1 0x1B DUP4 PUSH2 0x14FE JUMP JUMPDEST SWAP2 POP PUSH2 0x18A5 DUP3 PUSH2 0x1866 JUMP JUMPDEST PUSH1 0x20 DUP3 ADD SWAP1 POP SWAP2 SWAP1 POP JUMP JUMPDEST PUSH0 PUSH1 0x20 DUP3 ADD SWAP1 POP DUP2 DUP2 SUB PUSH0 DUP4 ADD MSTORE PUSH2 0x18C7 DUP2 PUSH2 0x188E JUMP JUMPDEST SWAP1 POP SWAP2 SWAP1 POP JUMP JUMPDEST PUSH0 PUSH1 0x40 DUP3 ADD SWAP1 POP PUSH2 0x18E1 PUSH0 DUP4 ADD DUP6 PUSH2 0x140A JUMP JUMPDEST PUSH2 0x18EE PUSH1 0x20 DUP4 ADD DUP5 PUSH2 0x140A JUMP JUMPDEST SWAP4 SWAP3 POP POP POP JUMP JUMPDEST PUSH0 DUP2 SWAP1 POP SWAP2 SWAP1 POP JUMP JUMPDEST PUSH2 0x1907 DUP2 PUSH2 0x18F5 JUMP JUMPDEST DUP2 EQ PUSH2 0x1911 JUMPI PUSH0 PUSH0 REVERT JUMPDEST POP JUMP JUMPDEST PUSH0 DUP2 MLOAD SWAP1 POP PUSH2 0x1922 DUP2 PUSH2 0x18FE JUMP JUMPDEST SWAP3 SWAP2 POP POP JUMP JUMPDEST PUSH0 PUSH1 0x20 DUP3 DUP5 SUB SLT ISZERO PUSH2 0x193D JUMPI PUSH2 0x193C PUSH2 0x13A8 JUMP JUMPDEST JUMPDEST PUSH0 PUSH2 0x194A DUP5 DUP3 DUP6 ADD PUSH2 0x1914 JUMP JUMPDEST SWAP2 POP POP SWAP3 SWAP2 POP POP JUMP JUMPDEST PUSH2 0x195C DUP2 PUSH2 0x18F5 JUMP JUMPDEST DUP3 MSTORE POP POP JUMP JUMPDEST PUSH0 PUSH1 0x80 DUP3 ADD SWAP1 POP PUSH2 0x1975 PUSH0 DUP4 ADD DUP8 PUSH2 0x140A JUMP JUMPDEST PUSH2 0x1982 PUSH1 0x20 DUP4 ADD DUP7 PUSH2 0x1628 JUMP JUMPDEST PUSH2 0x198F PUSH1 0x40 DUP4 ADD DUP6 PUSH2 0x140A JUMP JUMPDEST PUSH2 0x199C PUSH1 0x60 DUP4 ADD DUP5 PUSH2 0x1953 JUMP JUMPDEST SWAP6 SWAP5 POP POP POP POP POP JUMP JUMPDEST PUSH32 0x4E6F2067616D6520686173206265656E20737461727465640000000000000000 PUSH0 DUP3 ADD MSTORE POP JUMP JUMPDEST PUSH0 PUSH2 0x19D9 PUSH1 0x18 DUP4 PUSH2 0x14FE JUMP JUMPDEST SWAP2 POP PUSH2 0x19E4 DUP3 PUSH2 0x19A5 JUMP JUMPDEST PUSH1 0x20 DUP3 ADD SWAP1 POP SWAP2 SWAP1 POP JUMP JUMPDEST PUSH0 PUSH1 0x20 DUP3 ADD SWAP1 POP DUP2 DUP2 SUB PUSH0 DUP4 ADD MSTORE PUSH2 0x1A06 DUP2 PUSH2 0x19CD JUMP JUMPDEST SWAP1 POP SWAP2 SWAP1 POP JUMP JUMPDEST PUSH32 0x47616D652068617320616C72656164792066696E697368656400000000000000 PUSH0 DUP3 ADD MSTORE POP JUMP JUMPDEST PUSH0 PUSH2 0x1A41 PUSH1 0x19 DUP4 PUSH2 0x14FE JUMP JUMPDEST SWAP2 POP PUSH2 0x1A4C DUP3 PUSH2 0x1A0D JUMP JUMPDEST PUSH1 0x20 DUP3 ADD SWAP1 POP SWAP2 SWAP1 POP JUMP JUMPDEST PUSH0 PUSH1 0x20 DUP3 ADD SWAP1 POP DUP2 DUP2 SUB PUSH0 DUP4 ADD MSTORE PUSH2 0x1A6E DUP2 PUSH2 0x1A35 JUMP JUMPDEST SWAP1 POP SWAP2 SWAP1 POP JUMP JUMPDEST PUSH32 0x4974206973206E6F742074686520706C6179657273207475726E000000000000 PUSH0 DUP3 ADD MSTORE POP JUMP JUMPDEST PUSH0 PUSH2 0x1AA9 PUSH1 0x1A DUP4 PUSH2 0x14FE JUMP JUMPDEST SWAP2 POP PUSH2 0x1AB4 DUP3 PUSH2 0x1A75 JUMP JUMPDEST PUSH1 0x20 DUP3 ADD SWAP1 POP SWAP2 SWAP1 POP JUMP JUMPDEST PUSH0 PUSH1 0x20 DUP3 ADD SWAP1 POP DUP2 DUP2 SUB PUSH0 DUP4 ADD MSTORE PUSH2 0x1AD6 DUP2 PUSH2 0x1A9D JUMP JUMPDEST SWAP1 POP SWAP2 SWAP1 POP JUMP JUMPDEST PUSH32 0x43616E6E6F742068697400000000000000000000000000000000000000000000 PUSH0 DUP3 ADD MSTORE POP JUMP JUMPDEST PUSH0 PUSH2 0x1B11 PUSH1 0xA DUP4 PUSH2 0x14FE JUMP JUMPDEST SWAP2 POP PUSH2 0x1B1C DUP3 PUSH2 0x1ADD JUMP JUMPDEST PUSH1 0x20 DUP3 ADD SWAP1 POP SWAP2 SWAP1 POP JUMP JUMPDEST PUSH0 PUSH1 0x20 DUP3 ADD SWAP1 POP DUP2 DUP2 SUB PUSH0 DUP4 ADD MSTORE PUSH2 0x1B3E DUP2 PUSH2 0x1B05 JUMP JUMPDEST SWAP1 POP SWAP2 SWAP1 POP JUMP JUMPDEST PUSH32 0x4F6E6C7920746865206465616C65722063616E2073687566666C650000000000 PUSH0 DUP3 ADD MSTORE POP JUMP JUMPDEST PUSH0 PUSH2 0x1B79 PUSH1 0x1B DUP4 PUSH2 0x14FE JUMP JUMPDEST SWAP2 POP PUSH2 0x1B84 DUP3 PUSH2 0x1B45 JUMP JUMPDEST PUSH1 0x20 DUP3 ADD SWAP1 POP SWAP2 SWAP1 POP JUMP JUMPDEST PUSH0 PUSH1 0x20 DUP3 ADD SWAP1 POP DUP2 DUP2 SUB PUSH0 DUP4 ADD MSTORE PUSH2 0x1BA6 DUP2 PUSH2 0x1B6D JUMP JUMPDEST SWAP1 POP SWAP2 SWAP1 POP JUMP JUMPDEST PUSH32 0x4465636B2068617320616C7265616479206265656E2073687566666C65640000 PUSH0 DUP3 ADD MSTORE POP JUMP JUMPDEST PUSH0 PUSH2 0x1BE1 PUSH1 0x1E DUP4 PUSH2 0x14FE JUMP JUMPDEST SWAP2 POP PUSH2 0x1BEC DUP3 PUSH2 0x1BAD JUMP JUMPDEST PUSH1 0x20 DUP3 ADD SWAP1 POP SWAP2 SWAP1 POP JUMP JUMPDEST PUSH0 PUSH1 0x20 DUP3 ADD SWAP1 POP DUP2 DUP2 SUB PUSH0 DUP4 ADD MSTORE PUSH2 0x1C0E DUP2 PUSH2 0x1BD5 JUMP JUMPDEST SWAP1 POP SWAP2 SWAP1 POP JUMP JUMPDEST PUSH32 0x4E487B7100000000000000000000000000000000000000000000000000000000 PUSH0 MSTORE PUSH1 0x32 PUSH1 0x4 MSTORE PUSH1 0x24 PUSH0 REVERT JUMPDEST PUSH0 PUSH2 0x1C4C DUP3 PUSH2 0x13AC JUMP JUMPDEST SWAP2 POP PUSH2 0x1C57 DUP4 PUSH2 0x13AC JUMP JUMPDEST SWAP3 POP DUP3 DUP3 SUB SWAP1 POP DUP2 DUP2 GT ISZERO PUSH2 0x1C6F JUMPI PUSH2 0x1C6E PUSH2 0x1576 JUMP JUMPDEST JUMPDEST SWAP3 SWAP2 POP POP JUMP JUMPDEST PUSH32 0x4E487B7100000000000000000000000000000000000000000000000000000000 PUSH0 MSTORE PUSH1 0x12 PUSH1 0x4 MSTORE PUSH1 0x24 PUSH0 REVERT JUMPDEST PUSH0 PUSH2 0x1CAC DUP3 PUSH2 0x13AC JUMP JUMPDEST SWAP2 POP PUSH2 0x1CB7 DUP4 PUSH2 0x13AC JUMP JUMPDEST SWAP3 POP DUP3 PUSH2 0x1CC7 JUMPI PUSH2 0x1CC6 PUSH2 0x1C75 JUMP JUMPDEST JUMPDEST DUP3 DUP3 MOD SWAP1 POP SWAP3 SWAP2 POP POP JUMP JUMPDEST PUSH0 PUSH2 0x1CDC DUP3 PUSH2 0x13AC JUMP JUMPDEST SWAP2 POP PUSH2 0x1CE7 DUP4 PUSH2 0x13AC JUMP JUMPDEST SWAP3 POP DUP3 DUP3 ADD SWAP1 POP DUP1 DUP3 GT ISZERO PUSH2 0x1CFF JUMPI PUSH2 0x1CFE PUSH2 0x1576 JUMP JUMPDEST JUMPDEST SWAP3 SWAP2 POP POP JUMP JUMPDEST PUSH0 PUSH2 0x1D0F DUP3 PUSH2 0x13AC JUMP JUMPDEST SWAP2 POP PUSH2 0x1D1A DUP4 PUSH2 0x13AC JUMP JUMPDEST SWAP3 POP DUP3 DUP3 MUL PUSH2 0x1D28 DUP2 PUSH2 0x13AC JUMP JUMPDEST SWAP2 POP DUP3 DUP3 DIV DUP5 EQ DUP4 ISZERO OR PUSH2 0x1D3F JUMPI PUSH2 0x1D3E PUSH2 0x1576 JUMP JUMPDEST JUMPDEST POP SWAP3 SWAP2 POP POP JUMP JUMPDEST PUSH0 PUSH1 0xFF DUP3 AND SWAP1 POP SWAP2 SWAP1 POP JUMP JUMPDEST PUSH0 PUSH2 0x1D5C DUP3 PUSH2 0x1D46 JUMP JUMPDEST SWAP2 POP PUSH2 0x1D67 DUP4 PUSH2 0x1D46 JUMP JUMPDEST SWAP3 POP DUP3 PUSH2 0x1D77 JUMPI PUSH2 0x1D76 PUSH2 0x1C75 JUMP JUMPDEST JUMPDEST DUP3 DUP3 MOD SWAP1 POP SWAP3 SWAP2 POP POP JUMP JUMPDEST PUSH0 PUSH2 0x1D8C DUP3 PUSH2 0x1D46 JUMP JUMPDEST SWAP2 POP PUSH2 0x1D97 DUP4 PUSH2 0x1D46 JUMP JUMPDEST SWAP3 POP DUP3 DUP3 ADD SWAP1 POP PUSH1 0xFF DUP2 GT ISZERO PUSH2 0x1DB0 JUMPI PUSH2 0x1DAF PUSH2 0x1576 JUMP JUMPDEST JUMPDEST SWAP3 SWAP2 POP POP JUMP JUMPDEST PUSH0 PUSH2 0x1DC0 DUP3 PUSH2 0x1D46 JUMP JUMPDEST SWAP2 POP PUSH1 0xFF DUP3 SUB PUSH2 0x1DD3 JUMPI PUSH2 0x1DD2 PUSH2 0x1576 JUMP JUMPDEST JUMPDEST PUSH1 0x1 DUP3 ADD SWAP1 POP SWAP2 SWAP1 POP JUMP JUMPDEST PUSH2 0x1DE7 DUP2 PUSH2 0x1D46 JUMP JUMPDEST DUP3 MSTORE POP POP JUMP JUMPDEST PUSH0 PUSH1 0x40 DUP3 ADD SWAP1 POP PUSH2 0x1E00 PUSH0 DUP4 ADD DUP6 PUSH2 0x1628 JUMP JUMPDEST PUSH2 0x1E0D PUSH1 0x20 DUP4 ADD DUP5 PUSH2 0x1DDE JUMP JUMPDEST SWAP4 SWAP3 POP POP POP JUMP JUMPDEST PUSH0 PUSH1 0x40 DUP3 ADD SWAP1 POP PUSH2 0x1E27 PUSH0 DUP4 ADD DUP6 PUSH2 0x1628 JUMP JUMPDEST PUSH2 0x1E34 PUSH1 0x20 DUP4 ADD DUP5 PUSH2 0x140A JUMP JUMPDEST SWAP4 SWAP3 POP POP POP JUMP JUMPDEST PUSH1 0x4 DUP2 LT PUSH2 0x1E4C JUMPI PUSH2 0x1E4B PUSH2 0x15EA JUMP JUMPDEST JUMPDEST POP JUMP JUMPDEST PUSH0 DUP2 SWAP1 POP PUSH2 0x1E5C DUP3 PUSH2 0x1E3B JUMP JUMPDEST SWAP2 SWAP1 POP JUMP JUMPDEST PUSH0 PUSH2 0x1E6B DUP3 PUSH2 0x1E4F JUMP JUMPDEST SWAP1 POP SWAP2 SWAP1 POP JUMP JUMPDEST PUSH2 0x1E7B DUP2 PUSH2 0x1E61 JUMP JUMPDEST DUP3 MSTORE POP POP JUMP JUMPDEST PUSH0 PUSH1 0x40 DUP3 ADD SWAP1 POP PUSH2 0x1E94 PUSH0 DUP4 ADD DUP6 PUSH2 0x1628 JUMP JUMPDEST PUSH2 0x1EA1 PUSH1 0x20 DUP4 ADD DUP5 PUSH2 0x1E72 JUMP JUMPDEST SWAP4 SWAP3 POP POP POP JUMP INVALID LOG2 PUSH5 0x6970667358 0x22 SLT KECCAK256 0x27 DUP13 PUSH14 0x67823EB3B33CB9E006CDA121477 DUP2 DUP12 PUSH3 0x62C95D JUMP LOG4 0xFC 0xDB 0x24 CALLF 0xB1DC PUSH1 0x64 PUSH20 0x6F6C634300081E00330000000000000000000000 "
		},
		"gasEstimates": {
			"creation": {
				"codeDepositCost": "1580400",
				"executionCost": "infinite",
				"totalCost": "infinite"
			},
			"external": {
				"assignToken(uint256)": "infinite",
				"dealInitialHands()": "infinite",
				"hitPlayer()": "infinite",
				"nextGameID()": "2470",
				"oracle()": "infinite",
				"placeBets(uint256)": "infinite",
				"stand()": "infinite",
				"vault()": "infinite"
			},
			"internal": {
				"_dealInitialHands(struct GameToken storage pointer)": "infinite",
				"_hitDealer(struct GameToken storage pointer)": "infinite",
				"_hitPlayer(struct GameToken storage pointer)": "infinite",
				"addCardToHand(uint8,uint8)": "infinite",
				"drawCard(struct GameToken storage pointer)": "infinite",
				"endGame(struct GameToken storage pointer,enum Result,uint256)": "infinite",
				"handleBlackJackEvents(struct GameToken storage pointer)": "infinite",
				"hasBlackJack(uint8)": "39",
				"isAce(uint8)": "73",
				"shuffleDeck(struct GameToken storage pointer)": "infinite"
			}
		},
		"methodIdentifiers": {
			"assignToken(uint256)": "31a56b83",
			"dealInitialHands()": "566595b2",
			"hitPlayer()": "dae10ed5",
			"nextGameID()": "673ee37c",
			"oracle()": "7dc0d1d0",
			"placeBets(uint256)": "afab107e",
			"stand()": "c2897b10",
			"vault()": "fbfa77cf"
		}
	},
	"abi": [
		{
			"inputs": [
				{
					"internalType": "address",
					"name": "_vault",
					"type": "address"
				},
				{
					"internalType": "address",
					"name": "_oracle",
					"type": "address"
				}
			],
			"stateMutability": "nonpayable",
			"type": "constructor"
		},
		{
			"anonymous": false,
			"inputs": [
				{
					"indexed": false,
					"internalType": "uint256",
					"name": "tokenID",
					"type": "uint256"
				},
				{
					"indexed": false,
					"internalType": "address",
					"name": "player",
					"type": "address"
				},
				{
					"indexed": false,
					"internalType": "uint256",
					"name": "bet",
					"type": "uint256"
				},
				{
					"indexed": false,
					"internalType": "bytes32",
					"name": "finalSeed",
					"type": "bytes32"
				}
			],
			"name": "BetPlaced",
			"type": "event"
		},
		{
			"anonymous": false,
			"inputs": [
				{
					"indexed": false,
					"internalType": "address",
					"name": "player",
					"type": "address"
				},
				{
					"indexed": false,
					"internalType": "uint8",
					"name": "card",
					"type": "uint8"
				}
			],
			"name": "CardDrawn",
			"type": "event"
		},
		{
			"anonymous": false,
			"inputs": [
				{
					"indexed": false,
					"internalType": "uint256",
					"name": "tokenID",
					"type": "uint256"
				},
				{
					"indexed": false,
					"internalType": "address",
					"name": "player",
					"type": "address"
				}
			],
			"name": "GameCreated",
			"type": "event"
		},
		{
			"anonymous": false,
			"inputs": [
				{
					"indexed": false,
					"internalType": "address",
					"name": "player",
					"type": "address"
				},
				{
					"indexed": false,
					"internalType": "enum Result",
					"name": "result",
					"type": "uint8"
				}
			],
			"name": "GameEnded",
			"type": "event"
		},
		{
			"inputs": [
				{
					"internalType": "uint256",
					"name": "_playerSeed",
					"type": "uint256"
				}
			],
			"name": "assignToken",
			"outputs": [],
			"stateMutability": "nonpayable",
			"type": "function"
		},
		{
			"inputs": [],
			"name": "dealInitialHands",
			"outputs": [],
			"stateMutability": "nonpayable",
			"type": "function"
		},
		{
			"inputs": [],
			"name": "hitPlayer",
			"outputs": [],
			"stateMutability": "nonpayable",
			"type": "function"
		},
		{
			"inputs": [],
			"name": "nextGameID",
			"outputs": [
				{
					"internalType": "uint256",
					"name": "",
					"type": "uint256"
				}
			],
			"stateMutability": "view",
			"type": "function"
		},
		{
			"inputs": [],
			"name": "oracle",
			"outputs": [
				{
					"internalType": "contract IOracle",
					"name": "",
					"type": "address"
				}
			],
			"stateMutability": "view",
			"type": "function"
		},
		{
			"inputs": [
				{
					"internalType": "uint256",
					"name": "bet",
					"type": "uint256"
				}
			],
			"name": "placeBets",
			"outputs": [],
			"stateMutability": "nonpayable",
			"type": "function"
		},
		{
			"inputs": [],
			"name": "stand",
			"outputs": [],
			"stateMutability": "nonpayable",
			"type": "function"
		},
		{
			"inputs": [],
			"name": "vault",
			"outputs": [
				{
					"internalType": "contract IVault",
					"name": "",
					"type": "address"
				}
			],
			"stateMutability": "view",
			"type": "function"
		}
	]
}