{
	"data": {
		"bytecode": {
			"linkReferences": {},
			"object": "608060405234801561000f575f5ffd5b50604051611b1f380380611b1f83398181016040528101906100319190610115565b815f5f6101000a81548173ffffffffffffffffffffffffffffffffffffffff021916908373ffffffffffffffffffffffffffffffffffffffff1602179055508060015f6101000a81548173ffffffffffffffffffffffffffffffffffffffff021916908373ffffffffffffffffffffffffffffffffffffffff1602179055505050610153565b5f5ffd5b5f73ffffffffffffffffffffffffffffffffffffffff82169050919050565b5f6100e4826100bb565b9050919050565b6100f4816100da565b81146100fe575f5ffd5b50565b5f8151905061010f816100eb565b92915050565b5f5f6040838503121561012b5761012a6100b7565b5b5f61013885828601610101565b925050602061014985828601610101565b9150509250929050565b6119bf806101605f395ff3fe608060405234801561000f575f5ffd5b506004361061007b575f3560e01c80637dc0d1d0116100595780637dc0d1d0146100c3578063afab107e146100e1578063c2897b10146100fd578063fbfa77cf146101075761007b565b80632ae3594a1461007f57806331a56b8314610089578063673ee37c146100a5575b5f5ffd5b610087610125565b005b6100a3600480360381019061009e919061106d565b610306565b005b6100ad610532565b6040516100ba91906110a7565b60405180910390f35b6100cb610538565b6040516100d8919061113a565b60405180910390f35b6100fb60048036038101906100f6919061106d565b61055d565b005b61010561084c565b005b61010f610a75565b60405161011c9190611173565b60405180910390f35b5f60035f3373ffffffffffffffffffffffffffffffffffffffff1673ffffffffffffffffffffffffffffffffffffffff1681526020019081526020015f205490505f60045f8381526020019081526020015f2090508060060160019054906101000a900460ff166101cb576040517f08c379a00000000000000000000000000000000000000000000000000000000081526004016101c2906111e6565b60405180910390fd5b8060060160029054906101000a900460ff161561021d576040517f08c379a00000000000000000000000000000000000000000000000000000000081526004016102149061124e565b60405180910390fd5b5f61022782610a99565b90506102568183600b0160019054906101000a900460ff1684600b0160029054906101000a900460ff16610bf8565b83600b01600185600b0160028491906101000a81548160ff021916908360ff1602179055508391906101000a81548160ff021916908360ff1602179055505050601582600b0160019054906101000a900460ff1660ff1611156102c4576102bf8260025f610c83565b610301565b6102de82600b0160019054906101000a900460ff16610e69565b15610300576102ff826001600285600101546102fa9190611299565b610c83565b5b5b505050565b5f60035f3373ffffffffffffffffffffffffffffffffffffffff1673ffffffffffffffffffffffffffffffffffffffff1681526020019081526020015f205414610385576040517f08c379a000000000000000000000000000000000000000000000000000000000815260040161037c90611324565b60405180910390fd5b5f60025f81548092919061039890611342565b9190505590508060035f3373ffffffffffffffffffffffffffffffffffffffff1673ffffffffffffffffffffffffffffffffffffffff1681526020019081526020015f20819055505f60045f8381526020019081526020015f20905081815f018190555033816002015f6101000a81548173ffffffffffffffffffffffffffffffffffffffff021916908373ffffffffffffffffffffffffffffffffffffffff1602179055508281600301819055505f816006015f6101000a81548160ff021916908360ff16021790555060018160060160016101000a81548160ff0219169083151502179055505f81600b015f6101000a81548160ff0219169083151502179055505f81600b0160016101000a81548160ff021916908360ff1602179055505f81600b0160036101000a81548160ff021916908360ff1602179055505f8160060160026101000a81548160ff0219169083151502179055507fc3e0f84839dc888c892a013d10c8f9d6dc05a21a879d0ce468ca558013e9121c815f0154336040516105259291906113a9565b60405180910390a1505050565b60025481565b60015f9054906101000a900473ffffffffffffffffffffffffffffffffffffffff1681565b64174876e8008110158015610579575066038d7ea4c680008111155b6105b8576040517f08c379a00000000000000000000000000000000000000000000000000000000081526004016105af9061141a565b60405180910390fd5b5f60035f3373ffffffffffffffffffffffffffffffffffffffff1673ffffffffffffffffffffffffffffffffffffffff1681526020019081526020015f205403610637576040517f08c379a000000000000000000000000000000000000000000000000000000000815260040161062e90611482565b60405180910390fd5b5f60035f3373ffffffffffffffffffffffffffffffffffffffff1673ffffffffffffffffffffffffffffffffffffffff1681526020019081526020015f205490505f60045f8381526020019081526020015f2090505f8160010154146106d2576040517f08c379a00000000000000000000000000000000000000000000000000000000081526004016106c9906114ea565b60405180910390fd5b8060060160019054906101000a900460ff168061070157505f816006015f9054906101000a900460ff1660ff16115b15610741576040517f08c379a000000000000000000000000000000000000000000000000000000000815260040161073890611324565b60405180910390fd5b82816001018190555060015f9054906101000a900473ffffffffffffffffffffffffffffffffffffffff1673ffffffffffffffffffffffffffffffffffffffff1663041df082826004015483600301546040518363ffffffff1660e01b81526004016107ae929190611508565b6020604051808303815f875af11580156107ca573d5f5f3e3d5ffd5b505050506040513d601f19601f820116820180604052508101906107ee9190611562565b81600501819055506107ff81610e78565b7f0e97ce5f641b8a03e0f92d0b4480f849cf26a7bfdf17862c8edaf69268e60aad815f0154338360010154846005015460405161083f949392919061159c565b60405180910390a1505050565b5f60035f3373ffffffffffffffffffffffffffffffffffffffff1673ffffffffffffffffffffffffffffffffffffffff1681526020019081526020015f205490505f60045f8381526020019081526020015f2090508060060160019054906101000a900460ff166108f2576040517f08c379a00000000000000000000000000000000000000000000000000000000081526004016108e990611629565b60405180910390fd5b5f5b601182600b0160039054906101000a900460ff1660ff16101561098e5761091a82610a99565b90506109498183600b0160039054906101000a900460ff1684600b0160049054906101000a900460ff16610bf8565b83600b01600385600b0160048491906101000a81548160ff021916908360ff1602179055508391906101000a81548160ff021916908360ff16021790555050506108f4565b601582600b0160039054906101000a900460ff1660ff1611156109cc576109c7826001600285600101546109c29190611299565b610c83565b610a70565b81600b0160019054906101000a900460ff1660ff1682600b0160039054906101000a900460ff1660ff161180610a185750610a1782600b0160039054906101000a900460ff16610e69565b5b15610a2e57610a298260025f610c83565b610a6f565b81600b0160019054906101000a900460ff1660ff1682600b0160039054906101000a900460ff1660ff1603610a6e57610a6d8260038460010154610c83565b5b5b5b505050565b5f5f9054906101000a900473ffffffffffffffffffffffffffffffffffffffff1681565b5f81600b015f9054906101000a900460ff16610aea576040517f08c379a0000000000000000000000000000000000000000000000000000000008152600401610ae190611691565b60405180910390fd5b5f82600701836006015f9054906101000a900460ff1660ff1660688110610b1457610b136116af565b5b602091828204019190069054906101000a900460ff1690505f6001600d83610b3c9190611715565b610b469190611745565b9050600a8160ff161115610b5957600a90505b836006015f81819054906101000a900460ff1680929190610b7990611779565b91906101000a81548160ff021916908360ff160217905550507f5cb494422aec3c1d66ad0616d3f90f8641e12057560336165c27bf8793fce9cf846002015f9054906101000a900473ffffffffffffffffffffffffffffffffffffffff1683604051610be69291906117b0565b60405180910390a18092505050919050565b5f5f60018560ff1603610c2857600b84610c129190611745565b9350600183610c219190611745565b9250610c37565b8484610c349190611745565b93505b5b60158460ff16118015610c4d57505f8360ff16115b15610c7557600a84610c5f91906117d7565b9350600183610c6e91906117d7565b9250610c38565b838391509150935093915050565b818360060160036101000a81548160ff02191690836003811115610caa57610ca961180b565b5b021790555060018360060160026101000a81548160ff0219169083151502179055505f8360060160016101000a81548160ff0219169083151502179055505f811115610d9c575f5f9054906101000a900473ffffffffffffffffffffffffffffffffffffffff1673ffffffffffffffffffffffffffffffffffffffff1663117de2fd846002015f9054906101000a900473ffffffffffffffffffffffffffffffffffffffff16836040518363ffffffff1660e01b8152600401610d6e929190611838565b5f604051808303815f87803b158015610d85575f5ffd5b505af1158015610d97573d5f5f3e3d5ffd5b505050505b60035f846002015f9054906101000a900473ffffffffffffffffffffffffffffffffffffffff1673ffffffffffffffffffffffffffffffffffffffff1673ffffffffffffffffffffffffffffffffffffffff1681526020019081526020015f205f90555f83600101819055507fecdab0d30ae5a2b8d283acf9ed4856306f12f29ef8069fac9148d3d2ac6b4b14836002015f9054906101000a900473ffffffffffffffffffffffffffffffffffffffff1683604051610e5c9291906118a5565b60405180910390a1505050565b5f60158260ff16149050919050565b5f5f90505b606860ff168160ff161015610ed35780826007018260ff1660688110610ea657610ea56116af565b5b602091828204019190066101000a81548160ff021916908360ff1602179055508080600101915050610e7d565b505f5f90505b606860ff16811015611016575f81606860ff16610ef691906118cc565b836005015483604051602001610f0d9291906118ff565b604051602081830303815290604052805190602001205f1c610f2f9190611926565b82610f3a9190611956565b9050826007018160688110610f5257610f516116af565b5b602091828204019190069054906101000a900460ff16836007018360688110610f7e57610f7d6116af565b5b602091828204019190069054906101000a900460ff16846007018460688110610faa57610fa96116af565b5b60209182820401919006866007018560688110610fca57610fc96116af565b5b602091828204019190068491906101000a81548160ff021916908360ff1602179055508391906101000a81548160ff021916908360ff1602179055505050508080600101915050610ed9565b50600181600b015f6101000a81548160ff02191690831515021790555050565b5f5ffd5b5f819050919050565b61104c8161103a565b8114611056575f5ffd5b50565b5f8135905061106781611043565b92915050565b5f6020828403121561108257611081611036565b5b5f61108f84828501611059565b91505092915050565b6110a18161103a565b82525050565b5f6020820190506110ba5f830184611098565b92915050565b5f73ffffffffffffffffffffffffffffffffffffffff82169050919050565b5f819050919050565b5f6111026110fd6110f8846110c0565b6110df565b6110c0565b9050919050565b5f611113826110e8565b9050919050565b5f61112482611109565b9050919050565b6111348161111a565b82525050565b5f60208201905061114d5f83018461112b565b92915050565b5f61115d82611109565b9050919050565b61116d81611153565b82525050565b5f6020820190506111865f830184611164565b92915050565b5f82825260208201905092915050565b7f4e6f2067616d6520697320696e2070726f6772657373000000000000000000005f82015250565b5f6111d060168361118c565b91506111db8261119c565b602082019050919050565b5f6020820190508181035f8301526111fd816111c4565b9050919050565b7f47616d652068617320616c72656164792066696e6973686564000000000000005f82015250565b5f61123860198361118c565b915061124382611204565b602082019050919050565b5f6020820190508181035f8301526112658161122c565b9050919050565b7f4e487b71000000000000000000000000000000000000000000000000000000005f52601160045260245ffd5b5f6112a38261103a565b91506112ae8361103a565b92508282026112bc8161103a565b915082820484148315176112d3576112d261126c565b5b5092915050565b7f47616d6520616c726561647920696e2070726f677265737300000000000000005f82015250565b5f61130e60188361118c565b9150611319826112da565b602082019050919050565b5f6020820190508181035f83015261133b81611302565b9050919050565b5f61134c8261103a565b91507fffffffffffffffffffffffffffffffffffffffffffffffffffffffffffffffff820361137e5761137d61126c565b5b600182019050919050565b5f611393826110c0565b9050919050565b6113a381611389565b82525050565b5f6040820190506113bc5f830185611098565b6113c9602083018461139a565b9392505050565b7f426574206f7574206f662072616e67652e0000000000000000000000000000005f82015250565b5f61140460118361118c565b915061140f826113d0565b602082019050919050565b5f6020820190508181035f830152611431816113f8565b9050919050565b7f4e6f206163746976652067616d652063757272656e746c7900000000000000005f82015250565b5f61146c60188361118c565b915061147782611438565b602082019050919050565b5f6020820190508181035f83015261149981611460565b9050919050565b7f42657420616c726561647920706c6163656400000000000000000000000000005f82015250565b5f6114d460128361118c565b91506114df826114a0565b602082019050919050565b5f6020820190508181035f830152611501816114c8565b9050919050565b5f60408201905061151b5f830185611098565b6115286020830184611098565b9392505050565b5f819050919050565b6115418161152f565b811461154b575f5ffd5b50565b5f8151905061155c81611538565b92915050565b5f6020828403121561157757611576611036565b5b5f6115848482850161154e565b91505092915050565b6115968161152f565b82525050565b5f6080820190506115af5f830187611098565b6115bc602083018661139a565b6115c96040830185611098565b6115d6606083018461158d565b95945050505050565b7f4e6f2067616d6520686173206265656e207374617274656400000000000000005f82015250565b5f61161360188361118c565b915061161e826115df565b602082019050919050565b5f6020820190508181035f83015261164081611607565b9050919050565b7f4465636b20686173206e6f74206265656e2073687566666c65640000000000005f82015250565b5f61167b601a8361118c565b915061168682611647565b602082019050919050565b5f6020820190508181035f8301526116a88161166f565b9050919050565b7f4e487b71000000000000000000000000000000000000000000000000000000005f52603260045260245ffd5b5f60ff82169050919050565b7f4e487b71000000000000000000000000000000000000000000000000000000005f52601260045260245ffd5b5f61171f826116dc565b915061172a836116dc565b92508261173a576117396116e8565b5b828206905092915050565b5f61174f826116dc565b915061175a836116dc565b9250828201905060ff8111156117735761177261126c565b5b92915050565b5f611783826116dc565b915060ff82036117965761179561126c565b5b600182019050919050565b6117aa816116dc565b82525050565b5f6040820190506117c35f83018561139a565b6117d060208301846117a1565b9392505050565b5f6117e1826116dc565b91506117ec836116dc565b9250828203905060ff8111156118055761180461126c565b5b92915050565b7f4e487b71000000000000000000000000000000000000000000000000000000005f52602160045260245ffd5b5f60408201905061184b5f83018561139a565b6118586020830184611098565b9392505050565b600481106118705761186f61180b565b5b50565b5f8190506118808261185f565b919050565b5f61188f82611873565b9050919050565b61189f81611885565b82525050565b5f6040820190506118b85f83018561139a565b6118c56020830184611896565b9392505050565b5f6118d68261103a565b91506118e18361103a565b92508282039050818111156118f9576118f861126c565b5b92915050565b5f6040820190506119125f83018561158d565b61191f6020830184611098565b9392505050565b5f6119308261103a565b915061193b8361103a565b92508261194b5761194a6116e8565b5b828206905092915050565b5f6119608261103a565b915061196b8361103a565b92508282019050808211156119835761198261126c565b5b9291505056fea2646970667358221220290fab6e73a31d880cb58e4d1cbf1d36f882662b2857f2156ca446ff06fb018e64736f6c634300081e0033",
			"opcodes": "PUSH1 0x80 PUSH1 0x40 MSTORE CALLVALUE DUP1 ISZERO PUSH2 0xF JUMPI PUSH0 PUSH0 REVERT JUMPDEST POP PUSH1 0x40 MLOAD PUSH2 0x1B1F CODESIZE SUB DUP1 PUSH2 0x1B1F DUP4 CODECOPY DUP2 DUP2 ADD PUSH1 0x40 MSTORE DUP2 ADD SWAP1 PUSH2 0x31 SWAP2 SWAP1 PUSH2 0x115 JUMP JUMPDEST DUP2 PUSH0 PUSH0 PUSH2 0x100 EXP DUP2 SLOAD DUP2 PUSH20 0xFFFFFFFFFFFFFFFFFFFFFFFFFFFFFFFFFFFFFFFF MUL NOT AND SWAP1 DUP4 PUSH20 0xFFFFFFFFFFFFFFFFFFFFFFFFFFFFFFFFFFFFFFFF AND MUL OR SWAP1 SSTORE POP DUP1 PUSH1 0x1 PUSH0 PUSH2 0x100 EXP DUP2 SLOAD DUP2 PUSH20 0xFFFFFFFFFFFFFFFFFFFFFFFFFFFFFFFFFFFFFFFF MUL NOT AND SWAP1 DUP4 PUSH20 0xFFFFFFFFFFFFFFFFFFFFFFFFFFFFFFFFFFFFFFFF AND MUL OR SWAP1 SSTORE POP POP POP PUSH2 0x153 JUMP JUMPDEST PUSH0 PUSH0 REVERT JUMPDEST PUSH0 PUSH20 0xFFFFFFFFFFFFFFFFFFFFFFFFFFFFFFFFFFFFFFFF DUP3 AND SWAP1 POP SWAP2 SWAP1 POP JUMP JUMPDEST PUSH0 PUSH2 0xE4 DUP3 PUSH2 0xBB JUMP JUMPDEST SWAP1 POP SWAP2 SWAP1 POP JUMP JUMPDEST PUSH2 0xF4 DUP2 PUSH2 0xDA JUMP JUMPDEST DUP2 EQ PUSH2 0xFE JUMPI PUSH0 PUSH0 REVERT JUMPDEST POP JUMP JUMPDEST PUSH0 DUP2 MLOAD SWAP1 POP PUSH2 0x10F DUP2 PUSH2 0xEB JUMP JUMPDEST SWAP3 SWAP2 POP POP JUMP JUMPDEST PUSH0 PUSH0 PUSH1 0x40 DUP4 DUP6 SUB SLT ISZERO PUSH2 0x12B JUMPI PUSH2 0x12A PUSH2 0xB7 JUMP JUMPDEST JUMPDEST PUSH0 PUSH2 0x138 DUP6 DUP3 DUP7 ADD PUSH2 0x101 JUMP JUMPDEST SWAP3 POP POP PUSH1 0x20 PUSH2 0x149 DUP6 DUP3 DUP7 ADD PUSH2 0x101 JUMP JUMPDEST SWAP2 POP POP SWAP3 POP SWAP3 SWAP1 POP JUMP JUMPDEST PUSH2 0x19BF DUP1 PUSH2 0x160 PUSH0 CODECOPY PUSH0 RETURN INVALID PUSH1 0x80 PUSH1 0x40 MSTORE CALLVALUE DUP1 ISZERO PUSH2 0xF JUMPI PUSH0 PUSH0 REVERT JUMPDEST POP PUSH1 0x4 CALLDATASIZE LT PUSH2 0x7B JUMPI PUSH0 CALLDATALOAD PUSH1 0xE0 SHR DUP1 PUSH4 0x7DC0D1D0 GT PUSH2 0x59 JUMPI DUP1 PUSH4 0x7DC0D1D0 EQ PUSH2 0xC3 JUMPI DUP1 PUSH4 0xAFAB107E EQ PUSH2 0xE1 JUMPI DUP1 PUSH4 0xC2897B10 EQ PUSH2 0xFD JUMPI DUP1 PUSH4 0xFBFA77CF EQ PUSH2 0x107 JUMPI PUSH2 0x7B JUMP JUMPDEST DUP1 PUSH4 0x2AE3594A EQ PUSH2 0x7F JUMPI DUP1 PUSH4 0x31A56B83 EQ PUSH2 0x89 JUMPI DUP1 PUSH4 0x673EE37C EQ PUSH2 0xA5 JUMPI JUMPDEST PUSH0 PUSH0 REVERT JUMPDEST PUSH2 0x87 PUSH2 0x125 JUMP JUMPDEST STOP JUMPDEST PUSH2 0xA3 PUSH1 0x4 DUP1 CALLDATASIZE SUB DUP2 ADD SWAP1 PUSH2 0x9E SWAP2 SWAP1 PUSH2 0x106D JUMP JUMPDEST PUSH2 0x306 JUMP JUMPDEST STOP JUMPDEST PUSH2 0xAD PUSH2 0x532 JUMP JUMPDEST PUSH1 0x40 MLOAD PUSH2 0xBA SWAP2 SWAP1 PUSH2 0x10A7 JUMP JUMPDEST PUSH1 0x40 MLOAD DUP1 SWAP2 SUB SWAP1 RETURN JUMPDEST PUSH2 0xCB PUSH2 0x538 JUMP JUMPDEST PUSH1 0x40 MLOAD PUSH2 0xD8 SWAP2 SWAP1 PUSH2 0x113A JUMP JUMPDEST PUSH1 0x40 MLOAD DUP1 SWAP2 SUB SWAP1 RETURN JUMPDEST PUSH2 0xFB PUSH1 0x4 DUP1 CALLDATASIZE SUB DUP2 ADD SWAP1 PUSH2 0xF6 SWAP2 SWAP1 PUSH2 0x106D JUMP JUMPDEST PUSH2 0x55D JUMP JUMPDEST STOP JUMPDEST PUSH2 0x105 PUSH2 0x84C JUMP JUMPDEST STOP JUMPDEST PUSH2 0x10F PUSH2 0xA75 JUMP JUMPDEST PUSH1 0x40 MLOAD PUSH2 0x11C SWAP2 SWAP1 PUSH2 0x1173 JUMP JUMPDEST PUSH1 0x40 MLOAD DUP1 SWAP2 SUB SWAP1 RETURN JUMPDEST PUSH0 PUSH1 0x3 PUSH0 CALLER PUSH20 0xFFFFFFFFFFFFFFFFFFFFFFFFFFFFFFFFFFFFFFFF AND PUSH20 0xFFFFFFFFFFFFFFFFFFFFFFFFFFFFFFFFFFFFFFFF AND DUP2 MSTORE PUSH1 0x20 ADD SWAP1 DUP2 MSTORE PUSH1 0x20 ADD PUSH0 KECCAK256 SLOAD SWAP1 POP PUSH0 PUSH1 0x4 PUSH0 DUP4 DUP2 MSTORE PUSH1 0x20 ADD SWAP1 DUP2 MSTORE PUSH1 0x20 ADD PUSH0 KECCAK256 SWAP1 POP DUP1 PUSH1 0x6 ADD PUSH1 0x1 SWAP1 SLOAD SWAP1 PUSH2 0x100 EXP SWAP1 DIV PUSH1 0xFF AND PUSH2 0x1CB JUMPI PUSH1 0x40 MLOAD PUSH32 0x8C379A000000000000000000000000000000000000000000000000000000000 DUP2 MSTORE PUSH1 0x4 ADD PUSH2 0x1C2 SWAP1 PUSH2 0x11E6 JUMP JUMPDEST PUSH1 0x40 MLOAD DUP1 SWAP2 SUB SWAP1 REVERT JUMPDEST DUP1 PUSH1 0x6 ADD PUSH1 0x2 SWAP1 SLOAD SWAP1 PUSH2 0x100 EXP SWAP1 DIV PUSH1 0xFF AND ISZERO PUSH2 0x21D JUMPI PUSH1 0x40 MLOAD PUSH32 0x8C379A000000000000000000000000000000000000000000000000000000000 DUP2 MSTORE PUSH1 0x4 ADD PUSH2 0x214 SWAP1 PUSH2 0x124E JUMP JUMPDEST PUSH1 0x40 MLOAD DUP1 SWAP2 SUB SWAP1 REVERT JUMPDEST PUSH0 PUSH2 0x227 DUP3 PUSH2 0xA99 JUMP JUMPDEST SWAP1 POP PUSH2 0x256 DUP2 DUP4 PUSH1 0xB ADD PUSH1 0x1 SWAP1 SLOAD SWAP1 PUSH2 0x100 EXP SWAP1 DIV PUSH1 0xFF AND DUP5 PUSH1 0xB ADD PUSH1 0x2 SWAP1 SLOAD SWAP1 PUSH2 0x100 EXP SWAP1 DIV PUSH1 0xFF AND PUSH2 0xBF8 JUMP JUMPDEST DUP4 PUSH1 0xB ADD PUSH1 0x1 DUP6 PUSH1 0xB ADD PUSH1 0x2 DUP5 SWAP2 SWAP1 PUSH2 0x100 EXP DUP2 SLOAD DUP2 PUSH1 0xFF MUL NOT AND SWAP1 DUP4 PUSH1 0xFF AND MUL OR SWAP1 SSTORE POP DUP4 SWAP2 SWAP1 PUSH2 0x100 EXP DUP2 SLOAD DUP2 PUSH1 0xFF MUL NOT AND SWAP1 DUP4 PUSH1 0xFF AND MUL OR SWAP1 SSTORE POP POP POP PUSH1 0x15 DUP3 PUSH1 0xB ADD PUSH1 0x1 SWAP1 SLOAD SWAP1 PUSH2 0x100 EXP SWAP1 DIV PUSH1 0xFF AND PUSH1 0xFF AND GT ISZERO PUSH2 0x2C4 JUMPI PUSH2 0x2BF DUP3 PUSH1 0x2 PUSH0 PUSH2 0xC83 JUMP JUMPDEST PUSH2 0x301 JUMP JUMPDEST PUSH2 0x2DE DUP3 PUSH1 0xB ADD PUSH1 0x1 SWAP1 SLOAD SWAP1 PUSH2 0x100 EXP SWAP1 DIV PUSH1 0xFF AND PUSH2 0xE69 JUMP JUMPDEST ISZERO PUSH2 0x300 JUMPI PUSH2 0x2FF DUP3 PUSH1 0x1 PUSH1 0x2 DUP6 PUSH1 0x1 ADD SLOAD PUSH2 0x2FA SWAP2 SWAP1 PUSH2 0x1299 JUMP JUMPDEST PUSH2 0xC83 JUMP JUMPDEST JUMPDEST JUMPDEST POP POP POP JUMP JUMPDEST PUSH0 PUSH1 0x3 PUSH0 CALLER PUSH20 0xFFFFFFFFFFFFFFFFFFFFFFFFFFFFFFFFFFFFFFFF AND PUSH20 0xFFFFFFFFFFFFFFFFFFFFFFFFFFFFFFFFFFFFFFFF AND DUP2 MSTORE PUSH1 0x20 ADD SWAP1 DUP2 MSTORE PUSH1 0x20 ADD PUSH0 KECCAK256 SLOAD EQ PUSH2 0x385 JUMPI PUSH1 0x40 MLOAD PUSH32 0x8C379A000000000000000000000000000000000000000000000000000000000 DUP2 MSTORE PUSH1 0x4 ADD PUSH2 0x37C SWAP1 PUSH2 0x1324 JUMP JUMPDEST PUSH1 0x40 MLOAD DUP1 SWAP2 SUB SWAP1 REVERT JUMPDEST PUSH0 PUSH1 0x2 PUSH0 DUP2 SLOAD DUP1 SWAP3 SWAP2 SWAP1 PUSH2 0x398 SWAP1 PUSH2 0x1342 JUMP JUMPDEST SWAP2 SWAP1 POP SSTORE SWAP1 POP DUP1 PUSH1 0x3 PUSH0 CALLER PUSH20 0xFFFFFFFFFFFFFFFFFFFFFFFFFFFFFFFFFFFFFFFF AND PUSH20 0xFFFFFFFFFFFFFFFFFFFFFFFFFFFFFFFFFFFFFFFF AND DUP2 MSTORE PUSH1 0x20 ADD SWAP1 DUP2 MSTORE PUSH1 0x20 ADD PUSH0 KECCAK256 DUP2 SWAP1 SSTORE POP PUSH0 PUSH1 0x4 PUSH0 DUP4 DUP2 MSTORE PUSH1 0x20 ADD SWAP1 DUP2 MSTORE PUSH1 0x20 ADD PUSH0 KECCAK256 SWAP1 POP DUP2 DUP2 PUSH0 ADD DUP2 SWAP1 SSTORE POP CALLER DUP2 PUSH1 0x2 ADD PUSH0 PUSH2 0x100 EXP DUP2 SLOAD DUP2 PUSH20 0xFFFFFFFFFFFFFFFFFFFFFFFFFFFFFFFFFFFFFFFF MUL NOT AND SWAP1 DUP4 PUSH20 0xFFFFFFFFFFFFFFFFFFFFFFFFFFFFFFFFFFFFFFFF AND MUL OR SWAP1 SSTORE POP DUP3 DUP2 PUSH1 0x3 ADD DUP2 SWAP1 SSTORE POP PUSH0 DUP2 PUSH1 0x6 ADD PUSH0 PUSH2 0x100 EXP DUP2 SLOAD DUP2 PUSH1 0xFF MUL NOT AND SWAP1 DUP4 PUSH1 0xFF AND MUL OR SWAP1 SSTORE POP PUSH1 0x1 DUP2 PUSH1 0x6 ADD PUSH1 0x1 PUSH2 0x100 EXP DUP2 SLOAD DUP2 PUSH1 0xFF MUL NOT AND SWAP1 DUP4 ISZERO ISZERO MUL OR SWAP1 SSTORE POP PUSH0 DUP2 PUSH1 0xB ADD PUSH0 PUSH2 0x100 EXP DUP2 SLOAD DUP2 PUSH1 0xFF MUL NOT AND SWAP1 DUP4 ISZERO ISZERO MUL OR SWAP1 SSTORE POP PUSH0 DUP2 PUSH1 0xB ADD PUSH1 0x1 PUSH2 0x100 EXP DUP2 SLOAD DUP2 PUSH1 0xFF MUL NOT AND SWAP1 DUP4 PUSH1 0xFF AND MUL OR SWAP1 SSTORE POP PUSH0 DUP2 PUSH1 0xB ADD PUSH1 0x3 PUSH2 0x100 EXP DUP2 SLOAD DUP2 PUSH1 0xFF MUL NOT AND SWAP1 DUP4 PUSH1 0xFF AND MUL OR SWAP1 SSTORE POP PUSH0 DUP2 PUSH1 0x6 ADD PUSH1 0x2 PUSH2 0x100 EXP DUP2 SLOAD DUP2 PUSH1 0xFF MUL NOT AND SWAP1 DUP4 ISZERO ISZERO MUL OR SWAP1 SSTORE POP PUSH32 0xC3E0F84839DC888C892A013D10C8F9D6DC05A21A879D0CE468CA558013E9121C DUP2 PUSH0 ADD SLOAD CALLER PUSH1 0x40 MLOAD PUSH2 0x525 SWAP3 SWAP2 SWAP1 PUSH2 0x13A9 JUMP JUMPDEST PUSH1 0x40 MLOAD DUP1 SWAP2 SUB SWAP1 LOG1 POP POP POP JUMP JUMPDEST PUSH1 0x2 SLOAD DUP2 JUMP JUMPDEST PUSH1 0x1 PUSH0 SWAP1 SLOAD SWAP1 PUSH2 0x100 EXP SWAP1 DIV PUSH20 0xFFFFFFFFFFFFFFFFFFFFFFFFFFFFFFFFFFFFFFFF AND DUP2 JUMP JUMPDEST PUSH5 0x174876E800 DUP2 LT ISZERO DUP1 ISZERO PUSH2 0x579 JUMPI POP PUSH7 0x38D7EA4C68000 DUP2 GT ISZERO JUMPDEST PUSH2 0x5B8 JUMPI PUSH1 0x40 MLOAD PUSH32 0x8C379A000000000000000000000000000000000000000000000000000000000 DUP2 MSTORE PUSH1 0x4 ADD PUSH2 0x5AF SWAP1 PUSH2 0x141A JUMP JUMPDEST PUSH1 0x40 MLOAD DUP1 SWAP2 SUB SWAP1 REVERT JUMPDEST PUSH0 PUSH1 0x3 PUSH0 CALLER PUSH20 0xFFFFFFFFFFFFFFFFFFFFFFFFFFFFFFFFFFFFFFFF AND PUSH20 0xFFFFFFFFFFFFFFFFFFFFFFFFFFFFFFFFFFFFFFFF AND DUP2 MSTORE PUSH1 0x20 ADD SWAP1 DUP2 MSTORE PUSH1 0x20 ADD PUSH0 KECCAK256 SLOAD SUB PUSH2 0x637 JUMPI PUSH1 0x40 MLOAD PUSH32 0x8C379A000000000000000000000000000000000000000000000000000000000 DUP2 MSTORE PUSH1 0x4 ADD PUSH2 0x62E SWAP1 PUSH2 0x1482 JUMP JUMPDEST PUSH1 0x40 MLOAD DUP1 SWAP2 SUB SWAP1 REVERT JUMPDEST PUSH0 PUSH1 0x3 PUSH0 CALLER PUSH20 0xFFFFFFFFFFFFFFFFFFFFFFFFFFFFFFFFFFFFFFFF AND PUSH20 0xFFFFFFFFFFFFFFFFFFFFFFFFFFFFFFFFFFFFFFFF AND DUP2 MSTORE PUSH1 0x20 ADD SWAP1 DUP2 MSTORE PUSH1 0x20 ADD PUSH0 KECCAK256 SLOAD SWAP1 POP PUSH0 PUSH1 0x4 PUSH0 DUP4 DUP2 MSTORE PUSH1 0x20 ADD SWAP1 DUP2 MSTORE PUSH1 0x20 ADD PUSH0 KECCAK256 SWAP1 POP PUSH0 DUP2 PUSH1 0x1 ADD SLOAD EQ PUSH2 0x6D2 JUMPI PUSH1 0x40 MLOAD PUSH32 0x8C379A000000000000000000000000000000000000000000000000000000000 DUP2 MSTORE PUSH1 0x4 ADD PUSH2 0x6C9 SWAP1 PUSH2 0x14EA JUMP JUMPDEST PUSH1 0x40 MLOAD DUP1 SWAP2 SUB SWAP1 REVERT JUMPDEST DUP1 PUSH1 0x6 ADD PUSH1 0x1 SWAP1 SLOAD SWAP1 PUSH2 0x100 EXP SWAP1 DIV PUSH1 0xFF AND DUP1 PUSH2 0x701 JUMPI POP PUSH0 DUP2 PUSH1 0x6 ADD PUSH0 SWAP1 SLOAD SWAP1 PUSH2 0x100 EXP SWAP1 DIV PUSH1 0xFF AND PUSH1 0xFF AND GT JUMPDEST ISZERO PUSH2 0x741 JUMPI PUSH1 0x40 MLOAD PUSH32 0x8C379A000000000000000000000000000000000000000000000000000000000 DUP2 MSTORE PUSH1 0x4 ADD PUSH2 0x738 SWAP1 PUSH2 0x1324 JUMP JUMPDEST PUSH1 0x40 MLOAD DUP1 SWAP2 SUB SWAP1 REVERT JUMPDEST DUP3 DUP2 PUSH1 0x1 ADD DUP2 SWAP1 SSTORE POP PUSH1 0x1 PUSH0 SWAP1 SLOAD SWAP1 PUSH2 0x100 EXP SWAP1 DIV PUSH20 0xFFFFFFFFFFFFFFFFFFFFFFFFFFFFFFFFFFFFFFFF AND PUSH20 0xFFFFFFFFFFFFFFFFFFFFFFFFFFFFFFFFFFFFFFFF AND PUSH4 0x41DF082 DUP3 PUSH1 0x4 ADD SLOAD DUP4 PUSH1 0x3 ADD SLOAD PUSH1 0x40 MLOAD DUP4 PUSH4 0xFFFFFFFF AND PUSH1 0xE0 SHL DUP2 MSTORE PUSH1 0x4 ADD PUSH2 0x7AE SWAP3 SWAP2 SWAP1 PUSH2 0x1508 JUMP JUMPDEST PUSH1 0x20 PUSH1 0x40 MLOAD DUP1 DUP4 SUB DUP2 PUSH0 DUP8 GAS CALL ISZERO DUP1 ISZERO PUSH2 0x7CA JUMPI RETURNDATASIZE PUSH0 PUSH0 RETURNDATACOPY RETURNDATASIZE PUSH0 REVERT JUMPDEST POP POP POP POP PUSH1 0x40 MLOAD RETURNDATASIZE PUSH1 0x1F NOT PUSH1 0x1F DUP3 ADD AND DUP3 ADD DUP1 PUSH1 0x40 MSTORE POP DUP2 ADD SWAP1 PUSH2 0x7EE SWAP2 SWAP1 PUSH2 0x1562 JUMP JUMPDEST DUP2 PUSH1 0x5 ADD DUP2 SWAP1 SSTORE POP PUSH2 0x7FF DUP2 PUSH2 0xE78 JUMP JUMPDEST PUSH32 0xE97CE5F641B8A03E0F92D0B4480F849CF26A7BFDF17862C8EDAF69268E60AAD DUP2 PUSH0 ADD SLOAD CALLER DUP4 PUSH1 0x1 ADD SLOAD DUP5 PUSH1 0x5 ADD SLOAD PUSH1 0x40 MLOAD PUSH2 0x83F SWAP5 SWAP4 SWAP3 SWAP2 SWAP1 PUSH2 0x159C JUMP JUMPDEST PUSH1 0x40 MLOAD DUP1 SWAP2 SUB SWAP1 LOG1 POP POP POP JUMP JUMPDEST PUSH0 PUSH1 0x3 PUSH0 CALLER PUSH20 0xFFFFFFFFFFFFFFFFFFFFFFFFFFFFFFFFFFFFFFFF AND PUSH20 0xFFFFFFFFFFFFFFFFFFFFFFFFFFFFFFFFFFFFFFFF AND DUP2 MSTORE PUSH1 0x20 ADD SWAP1 DUP2 MSTORE PUSH1 0x20 ADD PUSH0 KECCAK256 SLOAD SWAP1 POP PUSH0 PUSH1 0x4 PUSH0 DUP4 DUP2 MSTORE PUSH1 0x20 ADD SWAP1 DUP2 MSTORE PUSH1 0x20 ADD PUSH0 KECCAK256 SWAP1 POP DUP1 PUSH1 0x6 ADD PUSH1 0x1 SWAP1 SLOAD SWAP1 PUSH2 0x100 EXP SWAP1 DIV PUSH1 0xFF AND PUSH2 0x8F2 JUMPI PUSH1 0x40 MLOAD PUSH32 0x8C379A000000000000000000000000000000000000000000000000000000000 DUP2 MSTORE PUSH1 0x4 ADD PUSH2 0x8E9 SWAP1 PUSH2 0x1629 JUMP JUMPDEST PUSH1 0x40 MLOAD DUP1 SWAP2 SUB SWAP1 REVERT JUMPDEST PUSH0 JUMPDEST PUSH1 0x11 DUP3 PUSH1 0xB ADD PUSH1 0x3 SWAP1 SLOAD SWAP1 PUSH2 0x100 EXP SWAP1 DIV PUSH1 0xFF AND PUSH1 0xFF AND LT ISZERO PUSH2 0x98E JUMPI PUSH2 0x91A DUP3 PUSH2 0xA99 JUMP JUMPDEST SWAP1 POP PUSH2 0x949 DUP2 DUP4 PUSH1 0xB ADD PUSH1 0x3 SWAP1 SLOAD SWAP1 PUSH2 0x100 EXP SWAP1 DIV PUSH1 0xFF AND DUP5 PUSH1 0xB ADD PUSH1 0x4 SWAP1 SLOAD SWAP1 PUSH2 0x100 EXP SWAP1 DIV PUSH1 0xFF AND PUSH2 0xBF8 JUMP JUMPDEST DUP4 PUSH1 0xB ADD PUSH1 0x3 DUP6 PUSH1 0xB ADD PUSH1 0x4 DUP5 SWAP2 SWAP1 PUSH2 0x100 EXP DUP2 SLOAD DUP2 PUSH1 0xFF MUL NOT AND SWAP1 DUP4 PUSH1 0xFF AND MUL OR SWAP1 SSTORE POP DUP4 SWAP2 SWAP1 PUSH2 0x100 EXP DUP2 SLOAD DUP2 PUSH1 0xFF MUL NOT AND SWAP1 DUP4 PUSH1 0xFF AND MUL OR SWAP1 SSTORE POP POP POP PUSH2 0x8F4 JUMP JUMPDEST PUSH1 0x15 DUP3 PUSH1 0xB ADD PUSH1 0x3 SWAP1 SLOAD SWAP1 PUSH2 0x100 EXP SWAP1 DIV PUSH1 0xFF AND PUSH1 0xFF AND GT ISZERO PUSH2 0x9CC JUMPI PUSH2 0x9C7 DUP3 PUSH1 0x1 PUSH1 0x2 DUP6 PUSH1 0x1 ADD SLOAD PUSH2 0x9C2 SWAP2 SWAP1 PUSH2 0x1299 JUMP JUMPDEST PUSH2 0xC83 JUMP JUMPDEST PUSH2 0xA70 JUMP JUMPDEST DUP2 PUSH1 0xB ADD PUSH1 0x1 SWAP1 SLOAD SWAP1 PUSH2 0x100 EXP SWAP1 DIV PUSH1 0xFF AND PUSH1 0xFF AND DUP3 PUSH1 0xB ADD PUSH1 0x3 SWAP1 SLOAD SWAP1 PUSH2 0x100 EXP SWAP1 DIV PUSH1 0xFF AND PUSH1 0xFF AND GT DUP1 PUSH2 0xA18 JUMPI POP PUSH2 0xA17 DUP3 PUSH1 0xB ADD PUSH1 0x3 SWAP1 SLOAD SWAP1 PUSH2 0x100 EXP SWAP1 DIV PUSH1 0xFF AND PUSH2 0xE69 JUMP JUMPDEST JUMPDEST ISZERO PUSH2 0xA2E JUMPI PUSH2 0xA29 DUP3 PUSH1 0x2 PUSH0 PUSH2 0xC83 JUMP JUMPDEST PUSH2 0xA6F JUMP JUMPDEST DUP2 PUSH1 0xB ADD PUSH1 0x1 SWAP1 SLOAD SWAP1 PUSH2 0x100 EXP SWAP1 DIV PUSH1 0xFF AND PUSH1 0xFF AND DUP3 PUSH1 0xB ADD PUSH1 0x3 SWAP1 SLOAD SWAP1 PUSH2 0x100 EXP SWAP1 DIV PUSH1 0xFF AND PUSH1 0xFF AND SUB PUSH2 0xA6E JUMPI PUSH2 0xA6D DUP3 PUSH1 0x3 DUP5 PUSH1 0x1 ADD SLOAD PUSH2 0xC83 JUMP JUMPDEST JUMPDEST JUMPDEST JUMPDEST POP POP POP JUMP JUMPDEST PUSH0 PUSH0 SWAP1 SLOAD SWAP1 PUSH2 0x100 EXP SWAP1 DIV PUSH20 0xFFFFFFFFFFFFFFFFFFFFFFFFFFFFFFFFFFFFFFFF AND DUP2 JUMP JUMPDEST PUSH0 DUP2 PUSH1 0xB ADD PUSH0 SWAP1 SLOAD SWAP1 PUSH2 0x100 EXP SWAP1 DIV PUSH1 0xFF AND PUSH2 0xAEA JUMPI PUSH1 0x40 MLOAD PUSH32 0x8C379A000000000000000000000000000000000000000000000000000000000 DUP2 MSTORE PUSH1 0x4 ADD PUSH2 0xAE1 SWAP1 PUSH2 0x1691 JUMP JUMPDEST PUSH1 0x40 MLOAD DUP1 SWAP2 SUB SWAP1 REVERT JUMPDEST PUSH0 DUP3 PUSH1 0x7 ADD DUP4 PUSH1 0x6 ADD PUSH0 SWAP1 SLOAD SWAP1 PUSH2 0x100 EXP SWAP1 DIV PUSH1 0xFF AND PUSH1 0xFF AND PUSH1 0x68 DUP2 LT PUSH2 0xB14 JUMPI PUSH2 0xB13 PUSH2 0x16AF JUMP JUMPDEST JUMPDEST PUSH1 0x20 SWAP2 DUP3 DUP3 DIV ADD SWAP2 SWAP1 MOD SWAP1 SLOAD SWAP1 PUSH2 0x100 EXP SWAP1 DIV PUSH1 0xFF AND SWAP1 POP PUSH0 PUSH1 0x1 PUSH1 0xD DUP4 PUSH2 0xB3C SWAP2 SWAP1 PUSH2 0x1715 JUMP JUMPDEST PUSH2 0xB46 SWAP2 SWAP1 PUSH2 0x1745 JUMP JUMPDEST SWAP1 POP PUSH1 0xA DUP2 PUSH1 0xFF AND GT ISZERO PUSH2 0xB59 JUMPI PUSH1 0xA SWAP1 POP JUMPDEST DUP4 PUSH1 0x6 ADD PUSH0 DUP2 DUP2 SWAP1 SLOAD SWAP1 PUSH2 0x100 EXP SWAP1 DIV PUSH1 0xFF AND DUP1 SWAP3 SWAP2 SWAP1 PUSH2 0xB79 SWAP1 PUSH2 0x1779 JUMP JUMPDEST SWAP2 SWAP1 PUSH2 0x100 EXP DUP2 SLOAD DUP2 PUSH1 0xFF MUL NOT AND SWAP1 DUP4 PUSH1 0xFF AND MUL OR SWAP1 SSTORE POP POP PUSH32 0x5CB494422AEC3C1D66AD0616D3F90F8641E12057560336165C27BF8793FCE9CF DUP5 PUSH1 0x2 ADD PUSH0 SWAP1 SLOAD SWAP1 PUSH2 0x100 EXP SWAP1 DIV PUSH20 0xFFFFFFFFFFFFFFFFFFFFFFFFFFFFFFFFFFFFFFFF AND DUP4 PUSH1 0x40 MLOAD PUSH2 0xBE6 SWAP3 SWAP2 SWAP1 PUSH2 0x17B0 JUMP JUMPDEST PUSH1 0x40 MLOAD DUP1 SWAP2 SUB SWAP1 LOG1 DUP1 SWAP3 POP POP POP SWAP2 SWAP1 POP JUMP JUMPDEST PUSH0 PUSH0 PUSH1 0x1 DUP6 PUSH1 0xFF AND SUB PUSH2 0xC28 JUMPI PUSH1 0xB DUP5 PUSH2 0xC12 SWAP2 SWAP1 PUSH2 0x1745 JUMP JUMPDEST SWAP4 POP PUSH1 0x1 DUP4 PUSH2 0xC21 SWAP2 SWAP1 PUSH2 0x1745 JUMP JUMPDEST SWAP3 POP PUSH2 0xC37 JUMP JUMPDEST DUP5 DUP5 PUSH2 0xC34 SWAP2 SWAP1 PUSH2 0x1745 JUMP JUMPDEST SWAP4 POP JUMPDEST JUMPDEST PUSH1 0x15 DUP5 PUSH1 0xFF AND GT DUP1 ISZERO PUSH2 0xC4D JUMPI POP PUSH0 DUP4 PUSH1 0xFF AND GT JUMPDEST ISZERO PUSH2 0xC75 JUMPI PUSH1 0xA DUP5 PUSH2 0xC5F SWAP2 SWAP1 PUSH2 0x17D7 JUMP JUMPDEST SWAP4 POP PUSH1 0x1 DUP4 PUSH2 0xC6E SWAP2 SWAP1 PUSH2 0x17D7 JUMP JUMPDEST SWAP3 POP PUSH2 0xC38 JUMP JUMPDEST DUP4 DUP4 SWAP2 POP SWAP2 POP SWAP4 POP SWAP4 SWAP2 POP POP JUMP JUMPDEST DUP2 DUP4 PUSH1 0x6 ADD PUSH1 0x3 PUSH2 0x100 EXP DUP2 SLOAD DUP2 PUSH1 0xFF MUL NOT AND SWAP1 DUP4 PUSH1 0x3 DUP2 GT ISZERO PUSH2 0xCAA JUMPI PUSH2 0xCA9 PUSH2 0x180B JUMP JUMPDEST JUMPDEST MUL OR SWAP1 SSTORE POP PUSH1 0x1 DUP4 PUSH1 0x6 ADD PUSH1 0x2 PUSH2 0x100 EXP DUP2 SLOAD DUP2 PUSH1 0xFF MUL NOT AND SWAP1 DUP4 ISZERO ISZERO MUL OR SWAP1 SSTORE POP PUSH0 DUP4 PUSH1 0x6 ADD PUSH1 0x1 PUSH2 0x100 EXP DUP2 SLOAD DUP2 PUSH1 0xFF MUL NOT AND SWAP1 DUP4 ISZERO ISZERO MUL OR SWAP1 SSTORE POP PUSH0 DUP2 GT ISZERO PUSH2 0xD9C JUMPI PUSH0 PUSH0 SWAP1 SLOAD SWAP1 PUSH2 0x100 EXP SWAP1 DIV PUSH20 0xFFFFFFFFFFFFFFFFFFFFFFFFFFFFFFFFFFFFFFFF AND PUSH20 0xFFFFFFFFFFFFFFFFFFFFFFFFFFFFFFFFFFFFFFFF AND PUSH4 0x117DE2FD DUP5 PUSH1 0x2 ADD PUSH0 SWAP1 SLOAD SWAP1 PUSH2 0x100 EXP SWAP1 DIV PUSH20 0xFFFFFFFFFFFFFFFFFFFFFFFFFFFFFFFFFFFFFFFF AND DUP4 PUSH1 0x40 MLOAD DUP4 PUSH4 0xFFFFFFFF AND PUSH1 0xE0 SHL DUP2 MSTORE PUSH1 0x4 ADD PUSH2 0xD6E SWAP3 SWAP2 SWAP1 PUSH2 0x1838 JUMP JUMPDEST PUSH0 PUSH1 0x40 MLOAD DUP1 DUP4 SUB DUP2 PUSH0 DUP8 DUP1 EXTCODESIZE ISZERO DUP1 ISZERO PUSH2 0xD85 JUMPI PUSH0 PUSH0 REVERT JUMPDEST POP GAS CALL ISZERO DUP1 ISZERO PUSH2 0xD97 JUMPI RETURNDATASIZE PUSH0 PUSH0 RETURNDATACOPY RETURNDATASIZE PUSH0 REVERT JUMPDEST POP POP POP POP JUMPDEST PUSH1 0x3 PUSH0 DUP5 PUSH1 0x2 ADD PUSH0 SWAP1 SLOAD SWAP1 PUSH2 0x100 EXP SWAP1 DIV PUSH20 0xFFFFFFFFFFFFFFFFFFFFFFFFFFFFFFFFFFFFFFFF AND PUSH20 0xFFFFFFFFFFFFFFFFFFFFFFFFFFFFFFFFFFFFFFFF AND PUSH20 0xFFFFFFFFFFFFFFFFFFFFFFFFFFFFFFFFFFFFFFFF AND DUP2 MSTORE PUSH1 0x20 ADD SWAP1 DUP2 MSTORE PUSH1 0x20 ADD PUSH0 KECCAK256 PUSH0 SWAP1 SSTORE PUSH0 DUP4 PUSH1 0x1 ADD DUP2 SWAP1 SSTORE POP PUSH32 0xECDAB0D30AE5A2B8D283ACF9ED4856306F12F29EF8069FAC9148D3D2AC6B4B14 DUP4 PUSH1 0x2 ADD PUSH0 SWAP1 SLOAD SWAP1 PUSH2 0x100 EXP SWAP1 DIV PUSH20 0xFFFFFFFFFFFFFFFFFFFFFFFFFFFFFFFFFFFFFFFF AND DUP4 PUSH1 0x40 MLOAD PUSH2 0xE5C SWAP3 SWAP2 SWAP1 PUSH2 0x18A5 JUMP JUMPDEST PUSH1 0x40 MLOAD DUP1 SWAP2 SUB SWAP1 LOG1 POP POP POP JUMP JUMPDEST PUSH0 PUSH1 0x15 DUP3 PUSH1 0xFF AND EQ SWAP1 POP SWAP2 SWAP1 POP JUMP JUMPDEST PUSH0 PUSH0 SWAP1 POP JUMPDEST PUSH1 0x68 PUSH1 0xFF AND DUP2 PUSH1 0xFF AND LT ISZERO PUSH2 0xED3 JUMPI DUP1 DUP3 PUSH1 0x7 ADD DUP3 PUSH1 0xFF AND PUSH1 0x68 DUP2 LT PUSH2 0xEA6 JUMPI PUSH2 0xEA5 PUSH2 0x16AF JUMP JUMPDEST JUMPDEST PUSH1 0x20 SWAP2 DUP3 DUP3 DIV ADD SWAP2 SWAP1 MOD PUSH2 0x100 EXP DUP2 SLOAD DUP2 PUSH1 0xFF MUL NOT AND SWAP1 DUP4 PUSH1 0xFF AND MUL OR SWAP1 SSTORE POP DUP1 DUP1 PUSH1 0x1 ADD SWAP2 POP POP PUSH2 0xE7D JUMP JUMPDEST POP PUSH0 PUSH0 SWAP1 POP JUMPDEST PUSH1 0x68 PUSH1 0xFF AND DUP2 LT ISZERO PUSH2 0x1016 JUMPI PUSH0 DUP2 PUSH1 0x68 PUSH1 0xFF AND PUSH2 0xEF6 SWAP2 SWAP1 PUSH2 0x18CC JUMP JUMPDEST DUP4 PUSH1 0x5 ADD SLOAD DUP4 PUSH1 0x40 MLOAD PUSH1 0x20 ADD PUSH2 0xF0D SWAP3 SWAP2 SWAP1 PUSH2 0x18FF JUMP JUMPDEST PUSH1 0x40 MLOAD PUSH1 0x20 DUP2 DUP4 SUB SUB DUP2 MSTORE SWAP1 PUSH1 0x40 MSTORE DUP1 MLOAD SWAP1 PUSH1 0x20 ADD KECCAK256 PUSH0 SHR PUSH2 0xF2F SWAP2 SWAP1 PUSH2 0x1926 JUMP JUMPDEST DUP3 PUSH2 0xF3A SWAP2 SWAP1 PUSH2 0x1956 JUMP JUMPDEST SWAP1 POP DUP3 PUSH1 0x7 ADD DUP2 PUSH1 0x68 DUP2 LT PUSH2 0xF52 JUMPI PUSH2 0xF51 PUSH2 0x16AF JUMP JUMPDEST JUMPDEST PUSH1 0x20 SWAP2 DUP3 DUP3 DIV ADD SWAP2 SWAP1 MOD SWAP1 SLOAD SWAP1 PUSH2 0x100 EXP SWAP1 DIV PUSH1 0xFF AND DUP4 PUSH1 0x7 ADD DUP4 PUSH1 0x68 DUP2 LT PUSH2 0xF7E JUMPI PUSH2 0xF7D PUSH2 0x16AF JUMP JUMPDEST JUMPDEST PUSH1 0x20 SWAP2 DUP3 DUP3 DIV ADD SWAP2 SWAP1 MOD SWAP1 SLOAD SWAP1 PUSH2 0x100 EXP SWAP1 DIV PUSH1 0xFF AND DUP5 PUSH1 0x7 ADD DUP5 PUSH1 0x68 DUP2 LT PUSH2 0xFAA JUMPI PUSH2 0xFA9 PUSH2 0x16AF JUMP JUMPDEST JUMPDEST PUSH1 0x20 SWAP2 DUP3 DUP3 DIV ADD SWAP2 SWAP1 MOD DUP7 PUSH1 0x7 ADD DUP6 PUSH1 0x68 DUP2 LT PUSH2 0xFCA JUMPI PUSH2 0xFC9 PUSH2 0x16AF JUMP JUMPDEST JUMPDEST PUSH1 0x20 SWAP2 DUP3 DUP3 DIV ADD SWAP2 SWAP1 MOD DUP5 SWAP2 SWAP1 PUSH2 0x100 EXP DUP2 SLOAD DUP2 PUSH1 0xFF MUL NOT AND SWAP1 DUP4 PUSH1 0xFF AND MUL OR SWAP1 SSTORE POP DUP4 SWAP2 SWAP1 PUSH2 0x100 EXP DUP2 SLOAD DUP2 PUSH1 0xFF MUL NOT AND SWAP1 DUP4 PUSH1 0xFF AND MUL OR SWAP1 SSTORE POP POP POP POP DUP1 DUP1 PUSH1 0x1 ADD SWAP2 POP POP PUSH2 0xED9 JUMP JUMPDEST POP PUSH1 0x1 DUP2 PUSH1 0xB ADD PUSH0 PUSH2 0x100 EXP DUP2 SLOAD DUP2 PUSH1 0xFF MUL NOT AND SWAP1 DUP4 ISZERO ISZERO MUL OR SWAP1 SSTORE POP POP JUMP JUMPDEST PUSH0 PUSH0 REVERT JUMPDEST PUSH0 DUP2 SWAP1 POP SWAP2 SWAP1 POP JUMP JUMPDEST PUSH2 0x104C DUP2 PUSH2 0x103A JUMP JUMPDEST DUP2 EQ PUSH2 0x1056 JUMPI PUSH0 PUSH0 REVERT JUMPDEST POP JUMP JUMPDEST PUSH0 DUP2 CALLDATALOAD SWAP1 POP PUSH2 0x1067 DUP2 PUSH2 0x1043 JUMP JUMPDEST SWAP3 SWAP2 POP POP JUMP JUMPDEST PUSH0 PUSH1 0x20 DUP3 DUP5 SUB SLT ISZERO PUSH2 0x1082 JUMPI PUSH2 0x1081 PUSH2 0x1036 JUMP JUMPDEST JUMPDEST PUSH0 PUSH2 0x108F DUP5 DUP3 DUP6 ADD PUSH2 0x1059 JUMP JUMPDEST SWAP2 POP POP SWAP3 SWAP2 POP POP JUMP JUMPDEST PUSH2 0x10A1 DUP2 PUSH2 0x103A JUMP JUMPDEST DUP3 MSTORE POP POP JUMP JUMPDEST PUSH0 PUSH1 0x20 DUP3 ADD SWAP1 POP PUSH2 0x10BA PUSH0 DUP4 ADD DUP5 PUSH2 0x1098 JUMP JUMPDEST SWAP3 SWAP2 POP POP JUMP JUMPDEST PUSH0 PUSH20 0xFFFFFFFFFFFFFFFFFFFFFFFFFFFFFFFFFFFFFFFF DUP3 AND SWAP1 POP SWAP2 SWAP1 POP JUMP JUMPDEST PUSH0 DUP2 SWAP1 POP SWAP2 SWAP1 POP JUMP JUMPDEST PUSH0 PUSH2 0x1102 PUSH2 0x10FD PUSH2 0x10F8 DUP5 PUSH2 0x10C0 JUMP JUMPDEST PUSH2 0x10DF JUMP JUMPDEST PUSH2 0x10C0 JUMP JUMPDEST SWAP1 POP SWAP2 SWAP1 POP JUMP JUMPDEST PUSH0 PUSH2 0x1113 DUP3 PUSH2 0x10E8 JUMP JUMPDEST SWAP1 POP SWAP2 SWAP1 POP JUMP JUMPDEST PUSH0 PUSH2 0x1124 DUP3 PUSH2 0x1109 JUMP JUMPDEST SWAP1 POP SWAP2 SWAP1 POP JUMP JUMPDEST PUSH2 0x1134 DUP2 PUSH2 0x111A JUMP JUMPDEST DUP3 MSTORE POP POP JUMP JUMPDEST PUSH0 PUSH1 0x20 DUP3 ADD SWAP1 POP PUSH2 0x114D PUSH0 DUP4 ADD DUP5 PUSH2 0x112B JUMP JUMPDEST SWAP3 SWAP2 POP POP JUMP JUMPDEST PUSH0 PUSH2 0x115D DUP3 PUSH2 0x1109 JUMP JUMPDEST SWAP1 POP SWAP2 SWAP1 POP JUMP JUMPDEST PUSH2 0x116D DUP2 PUSH2 0x1153 JUMP JUMPDEST DUP3 MSTORE POP POP JUMP JUMPDEST PUSH0 PUSH1 0x20 DUP3 ADD SWAP1 POP PUSH2 0x1186 PUSH0 DUP4 ADD DUP5 PUSH2 0x1164 JUMP JUMPDEST SWAP3 SWAP2 POP POP JUMP JUMPDEST PUSH0 DUP3 DUP3 MSTORE PUSH1 0x20 DUP3 ADD SWAP1 POP SWAP3 SWAP2 POP POP JUMP JUMPDEST PUSH32 0x4E6F2067616D6520697320696E2070726F677265737300000000000000000000 PUSH0 DUP3 ADD MSTORE POP JUMP JUMPDEST PUSH0 PUSH2 0x11D0 PUSH1 0x16 DUP4 PUSH2 0x118C JUMP JUMPDEST SWAP2 POP PUSH2 0x11DB DUP3 PUSH2 0x119C JUMP JUMPDEST PUSH1 0x20 DUP3 ADD SWAP1 POP SWAP2 SWAP1 POP JUMP JUMPDEST PUSH0 PUSH1 0x20 DUP3 ADD SWAP1 POP DUP2 DUP2 SUB PUSH0 DUP4 ADD MSTORE PUSH2 0x11FD DUP2 PUSH2 0x11C4 JUMP JUMPDEST SWAP1 POP SWAP2 SWAP1 POP JUMP JUMPDEST PUSH32 0x47616D652068617320616C72656164792066696E697368656400000000000000 PUSH0 DUP3 ADD MSTORE POP JUMP JUMPDEST PUSH0 PUSH2 0x1238 PUSH1 0x19 DUP4 PUSH2 0x118C JUMP JUMPDEST SWAP2 POP PUSH2 0x1243 DUP3 PUSH2 0x1204 JUMP JUMPDEST PUSH1 0x20 DUP3 ADD SWAP1 POP SWAP2 SWAP1 POP JUMP JUMPDEST PUSH0 PUSH1 0x20 DUP3 ADD SWAP1 POP DUP2 DUP2 SUB PUSH0 DUP4 ADD MSTORE PUSH2 0x1265 DUP2 PUSH2 0x122C JUMP JUMPDEST SWAP1 POP SWAP2 SWAP1 POP JUMP JUMPDEST PUSH32 0x4E487B7100000000000000000000000000000000000000000000000000000000 PUSH0 MSTORE PUSH1 0x11 PUSH1 0x4 MSTORE PUSH1 0x24 PUSH0 REVERT JUMPDEST PUSH0 PUSH2 0x12A3 DUP3 PUSH2 0x103A JUMP JUMPDEST SWAP2 POP PUSH2 0x12AE DUP4 PUSH2 0x103A JUMP JUMPDEST SWAP3 POP DUP3 DUP3 MUL PUSH2 0x12BC DUP2 PUSH2 0x103A JUMP JUMPDEST SWAP2 POP DUP3 DUP3 DIV DUP5 EQ DUP4 ISZERO OR PUSH2 0x12D3 JUMPI PUSH2 0x12D2 PUSH2 0x126C JUMP JUMPDEST JUMPDEST POP SWAP3 SWAP2 POP POP JUMP JUMPDEST PUSH32 0x47616D6520616C726561647920696E2070726F67726573730000000000000000 PUSH0 DUP3 ADD MSTORE POP JUMP JUMPDEST PUSH0 PUSH2 0x130E PUSH1 0x18 DUP4 PUSH2 0x118C JUMP JUMPDEST SWAP2 POP PUSH2 0x1319 DUP3 PUSH2 0x12DA JUMP JUMPDEST PUSH1 0x20 DUP3 ADD SWAP1 POP SWAP2 SWAP1 POP JUMP JUMPDEST PUSH0 PUSH1 0x20 DUP3 ADD SWAP1 POP DUP2 DUP2 SUB PUSH0 DUP4 ADD MSTORE PUSH2 0x133B DUP2 PUSH2 0x1302 JUMP JUMPDEST SWAP1 POP SWAP2 SWAP1 POP JUMP JUMPDEST PUSH0 PUSH2 0x134C DUP3 PUSH2 0x103A JUMP JUMPDEST SWAP2 POP PUSH32 0xFFFFFFFFFFFFFFFFFFFFFFFFFFFFFFFFFFFFFFFFFFFFFFFFFFFFFFFFFFFFFFFF DUP3 SUB PUSH2 0x137E JUMPI PUSH2 0x137D PUSH2 0x126C JUMP JUMPDEST JUMPDEST PUSH1 0x1 DUP3 ADD SWAP1 POP SWAP2 SWAP1 POP JUMP JUMPDEST PUSH0 PUSH2 0x1393 DUP3 PUSH2 0x10C0 JUMP JUMPDEST SWAP1 POP SWAP2 SWAP1 POP JUMP JUMPDEST PUSH2 0x13A3 DUP2 PUSH2 0x1389 JUMP JUMPDEST DUP3 MSTORE POP POP JUMP JUMPDEST PUSH0 PUSH1 0x40 DUP3 ADD SWAP1 POP PUSH2 0x13BC PUSH0 DUP4 ADD DUP6 PUSH2 0x1098 JUMP JUMPDEST PUSH2 0x13C9 PUSH1 0x20 DUP4 ADD DUP5 PUSH2 0x139A JUMP JUMPDEST SWAP4 SWAP3 POP POP POP JUMP JUMPDEST PUSH32 0x426574206F7574206F662072616E67652E000000000000000000000000000000 PUSH0 DUP3 ADD MSTORE POP JUMP JUMPDEST PUSH0 PUSH2 0x1404 PUSH1 0x11 DUP4 PUSH2 0x118C JUMP JUMPDEST SWAP2 POP PUSH2 0x140F DUP3 PUSH2 0x13D0 JUMP JUMPDEST PUSH1 0x20 DUP3 ADD SWAP1 POP SWAP2 SWAP1 POP JUMP JUMPDEST PUSH0 PUSH1 0x20 DUP3 ADD SWAP1 POP DUP2 DUP2 SUB PUSH0 DUP4 ADD MSTORE PUSH2 0x1431 DUP2 PUSH2 0x13F8 JUMP JUMPDEST SWAP1 POP SWAP2 SWAP1 POP JUMP JUMPDEST PUSH32 0x4E6F206163746976652067616D652063757272656E746C790000000000000000 PUSH0 DUP3 ADD MSTORE POP JUMP JUMPDEST PUSH0 PUSH2 0x146C PUSH1 0x18 DUP4 PUSH2 0x118C JUMP JUMPDEST SWAP2 POP PUSH2 0x1477 DUP3 PUSH2 0x1438 JUMP JUMPDEST PUSH1 0x20 DUP3 ADD SWAP1 POP SWAP2 SWAP1 POP JUMP JUMPDEST PUSH0 PUSH1 0x20 DUP3 ADD SWAP1 POP DUP2 DUP2 SUB PUSH0 DUP4 ADD MSTORE PUSH2 0x1499 DUP2 PUSH2 0x1460 JUMP JUMPDEST SWAP1 POP SWAP2 SWAP1 POP JUMP JUMPDEST PUSH32 0x42657420616C726561647920706C616365640000000000000000000000000000 PUSH0 DUP3 ADD MSTORE POP JUMP JUMPDEST PUSH0 PUSH2 0x14D4 PUSH1 0x12 DUP4 PUSH2 0x118C JUMP JUMPDEST SWAP2 POP PUSH2 0x14DF DUP3 PUSH2 0x14A0 JUMP JUMPDEST PUSH1 0x20 DUP3 ADD SWAP1 POP SWAP2 SWAP1 POP JUMP JUMPDEST PUSH0 PUSH1 0x20 DUP3 ADD SWAP1 POP DUP2 DUP2 SUB PUSH0 DUP4 ADD MSTORE PUSH2 0x1501 DUP2 PUSH2 0x14C8 JUMP JUMPDEST SWAP1 POP SWAP2 SWAP1 POP JUMP JUMPDEST PUSH0 PUSH1 0x40 DUP3 ADD SWAP1 POP PUSH2 0x151B PUSH0 DUP4 ADD DUP6 PUSH2 0x1098 JUMP JUMPDEST PUSH2 0x1528 PUSH1 0x20 DUP4 ADD DUP5 PUSH2 0x1098 JUMP JUMPDEST SWAP4 SWAP3 POP POP POP JUMP JUMPDEST PUSH0 DUP2 SWAP1 POP SWAP2 SWAP1 POP JUMP JUMPDEST PUSH2 0x1541 DUP2 PUSH2 0x152F JUMP JUMPDEST DUP2 EQ PUSH2 0x154B JUMPI PUSH0 PUSH0 REVERT JUMPDEST POP JUMP JUMPDEST PUSH0 DUP2 MLOAD SWAP1 POP PUSH2 0x155C DUP2 PUSH2 0x1538 JUMP JUMPDEST SWAP3 SWAP2 POP POP JUMP JUMPDEST PUSH0 PUSH1 0x20 DUP3 DUP5 SUB SLT ISZERO PUSH2 0x1577 JUMPI PUSH2 0x1576 PUSH2 0x1036 JUMP JUMPDEST JUMPDEST PUSH0 PUSH2 0x1584 DUP5 DUP3 DUP6 ADD PUSH2 0x154E JUMP JUMPDEST SWAP2 POP POP SWAP3 SWAP2 POP POP JUMP JUMPDEST PUSH2 0x1596 DUP2 PUSH2 0x152F JUMP JUMPDEST DUP3 MSTORE POP POP JUMP JUMPDEST PUSH0 PUSH1 0x80 DUP3 ADD SWAP1 POP PUSH2 0x15AF PUSH0 DUP4 ADD DUP8 PUSH2 0x1098 JUMP JUMPDEST PUSH2 0x15BC PUSH1 0x20 DUP4 ADD DUP7 PUSH2 0x139A JUMP JUMPDEST PUSH2 0x15C9 PUSH1 0x40 DUP4 ADD DUP6 PUSH2 0x1098 JUMP JUMPDEST PUSH2 0x15D6 PUSH1 0x60 DUP4 ADD DUP5 PUSH2 0x158D JUMP JUMPDEST SWAP6 SWAP5 POP POP POP POP POP JUMP JUMPDEST PUSH32 0x4E6F2067616D6520686173206265656E20737461727465640000000000000000 PUSH0 DUP3 ADD MSTORE POP JUMP JUMPDEST PUSH0 PUSH2 0x1613 PUSH1 0x18 DUP4 PUSH2 0x118C JUMP JUMPDEST SWAP2 POP PUSH2 0x161E DUP3 PUSH2 0x15DF JUMP JUMPDEST PUSH1 0x20 DUP3 ADD SWAP1 POP SWAP2 SWAP1 POP JUMP JUMPDEST PUSH0 PUSH1 0x20 DUP3 ADD SWAP1 POP DUP2 DUP2 SUB PUSH0 DUP4 ADD MSTORE PUSH2 0x1640 DUP2 PUSH2 0x1607 JUMP JUMPDEST SWAP1 POP SWAP2 SWAP1 POP JUMP JUMPDEST PUSH32 0x4465636B20686173206E6F74206265656E2073687566666C6564000000000000 PUSH0 DUP3 ADD MSTORE POP JUMP JUMPDEST PUSH0 PUSH2 0x167B PUSH1 0x1A DUP4 PUSH2 0x118C JUMP JUMPDEST SWAP2 POP PUSH2 0x1686 DUP3 PUSH2 0x1647 JUMP JUMPDEST PUSH1 0x20 DUP3 ADD SWAP1 POP SWAP2 SWAP1 POP JUMP JUMPDEST PUSH0 PUSH1 0x20 DUP3 ADD SWAP1 POP DUP2 DUP2 SUB PUSH0 DUP4 ADD MSTORE PUSH2 0x16A8 DUP2 PUSH2 0x166F JUMP JUMPDEST SWAP1 POP SWAP2 SWAP1 POP JUMP JUMPDEST PUSH32 0x4E487B7100000000000000000000000000000000000000000000000000000000 PUSH0 MSTORE PUSH1 0x32 PUSH1 0x4 MSTORE PUSH1 0x24 PUSH0 REVERT JUMPDEST PUSH0 PUSH1 0xFF DUP3 AND SWAP1 POP SWAP2 SWAP1 POP JUMP JUMPDEST PUSH32 0x4E487B7100000000000000000000000000000000000000000000000000000000 PUSH0 MSTORE PUSH1 0x12 PUSH1 0x4 MSTORE PUSH1 0x24 PUSH0 REVERT JUMPDEST PUSH0 PUSH2 0x171F DUP3 PUSH2 0x16DC JUMP JUMPDEST SWAP2 POP PUSH2 0x172A DUP4 PUSH2 0x16DC JUMP JUMPDEST SWAP3 POP DUP3 PUSH2 0x173A JUMPI PUSH2 0x1739 PUSH2 0x16E8 JUMP JUMPDEST JUMPDEST DUP3 DUP3 MOD SWAP1 POP SWAP3 SWAP2 POP POP JUMP JUMPDEST PUSH0 PUSH2 0x174F DUP3 PUSH2 0x16DC JUMP JUMPDEST SWAP2 POP PUSH2 0x175A DUP4 PUSH2 0x16DC JUMP JUMPDEST SWAP3 POP DUP3 DUP3 ADD SWAP1 POP PUSH1 0xFF DUP2 GT ISZERO PUSH2 0x1773 JUMPI PUSH2 0x1772 PUSH2 0x126C JUMP JUMPDEST JUMPDEST SWAP3 SWAP2 POP POP JUMP JUMPDEST PUSH0 PUSH2 0x1783 DUP3 PUSH2 0x16DC JUMP JUMPDEST SWAP2 POP PUSH1 0xFF DUP3 SUB PUSH2 0x1796 JUMPI PUSH2 0x1795 PUSH2 0x126C JUMP JUMPDEST JUMPDEST PUSH1 0x1 DUP3 ADD SWAP1 POP SWAP2 SWAP1 POP JUMP JUMPDEST PUSH2 0x17AA DUP2 PUSH2 0x16DC JUMP JUMPDEST DUP3 MSTORE POP POP JUMP JUMPDEST PUSH0 PUSH1 0x40 DUP3 ADD SWAP1 POP PUSH2 0x17C3 PUSH0 DUP4 ADD DUP6 PUSH2 0x139A JUMP JUMPDEST PUSH2 0x17D0 PUSH1 0x20 DUP4 ADD DUP5 PUSH2 0x17A1 JUMP JUMPDEST SWAP4 SWAP3 POP POP POP JUMP JUMPDEST PUSH0 PUSH2 0x17E1 DUP3 PUSH2 0x16DC JUMP JUMPDEST SWAP2 POP PUSH2 0x17EC DUP4 PUSH2 0x16DC JUMP JUMPDEST SWAP3 POP DUP3 DUP3 SUB SWAP1 POP PUSH1 0xFF DUP2 GT ISZERO PUSH2 0x1805 JUMPI PUSH2 0x1804 PUSH2 0x126C JUMP JUMPDEST JUMPDEST SWAP3 SWAP2 POP POP JUMP JUMPDEST PUSH32 0x4E487B7100000000000000000000000000000000000000000000000000000000 PUSH0 MSTORE PUSH1 0x21 PUSH1 0x4 MSTORE PUSH1 0x24 PUSH0 REVERT JUMPDEST PUSH0 PUSH1 0x40 DUP3 ADD SWAP1 POP PUSH2 0x184B PUSH0 DUP4 ADD DUP6 PUSH2 0x139A JUMP JUMPDEST PUSH2 0x1858 PUSH1 0x20 DUP4 ADD DUP5 PUSH2 0x1098 JUMP JUMPDEST SWAP4 SWAP3 POP POP POP JUMP JUMPDEST PUSH1 0x4 DUP2 LT PUSH2 0x1870 JUMPI PUSH2 0x186F PUSH2 0x180B JUMP JUMPDEST JUMPDEST POP JUMP JUMPDEST PUSH0 DUP2 SWAP1 POP PUSH2 0x1880 DUP3 PUSH2 0x185F JUMP JUMPDEST SWAP2 SWAP1 POP JUMP JUMPDEST PUSH0 PUSH2 0x188F DUP3 PUSH2 0x1873 JUMP JUMPDEST SWAP1 POP SWAP2 SWAP1 POP JUMP JUMPDEST PUSH2 0x189F DUP2 PUSH2 0x1885 JUMP JUMPDEST DUP3 MSTORE POP POP JUMP JUMPDEST PUSH0 PUSH1 0x40 DUP3 ADD SWAP1 POP PUSH2 0x18B8 PUSH0 DUP4 ADD DUP6 PUSH2 0x139A JUMP JUMPDEST PUSH2 0x18C5 PUSH1 0x20 DUP4 ADD DUP5 PUSH2 0x1896 JUMP JUMPDEST SWAP4 SWAP3 POP POP POP JUMP JUMPDEST PUSH0 PUSH2 0x18D6 DUP3 PUSH2 0x103A JUMP JUMPDEST SWAP2 POP PUSH2 0x18E1 DUP4 PUSH2 0x103A JUMP JUMPDEST SWAP3 POP DUP3 DUP3 SUB SWAP1 POP DUP2 DUP2 GT ISZERO PUSH2 0x18F9 JUMPI PUSH2 0x18F8 PUSH2 0x126C JUMP JUMPDEST JUMPDEST SWAP3 SWAP2 POP POP JUMP JUMPDEST PUSH0 PUSH1 0x40 DUP3 ADD SWAP1 POP PUSH2 0x1912 PUSH0 DUP4 ADD DUP6 PUSH2 0x158D JUMP JUMPDEST PUSH2 0x191F PUSH1 0x20 DUP4 ADD DUP5 PUSH2 0x1098 JUMP JUMPDEST SWAP4 SWAP3 POP POP POP JUMP JUMPDEST PUSH0 PUSH2 0x1930 DUP3 PUSH2 0x103A JUMP JUMPDEST SWAP2 POP PUSH2 0x193B DUP4 PUSH2 0x103A JUMP JUMPDEST SWAP3 POP DUP3 PUSH2 0x194B JUMPI PUSH2 0x194A PUSH2 0x16E8 JUMP JUMPDEST JUMPDEST DUP3 DUP3 MOD SWAP1 POP SWAP3 SWAP2 POP POP JUMP JUMPDEST PUSH0 PUSH2 0x1960 DUP3 PUSH2 0x103A JUMP JUMPDEST SWAP2 POP PUSH2 0x196B DUP4 PUSH2 0x103A JUMP JUMPDEST SWAP3 POP DUP3 DUP3 ADD SWAP1 POP DUP1 DUP3 GT ISZERO PUSH2 0x1983 JUMPI PUSH2 0x1982 PUSH2 0x126C JUMP JUMPDEST JUMPDEST SWAP3 SWAP2 POP POP JUMP INVALID LOG2 PUSH5 0x6970667358 0x22 SLT KECCAK256 0x29 0xF 0xAB PUSH15 0x73A31D880CB58E4D1CBF1D36F88266 0x2B 0x28 JUMPI CALLCODE ISZERO PUSH13 0xA446FF06FB018E64736F6C6343 STOP ADDMOD 0x1E STOP CALLER "
		},
		"gasEstimates": {
			"creation": {
				"codeDepositCost": "1318200",
				"executionCost": "infinite",
				"totalCost": "infinite"
			},
			"external": {
				"assignToken(uint256)": "infinite",
				"hit()": "infinite",
				"nextGameID()": "2470",
				"oracle()": "infinite",
				"placeBets(uint256)": "infinite",
				"stand()": "infinite",
				"vault()": "infinite"
			},
			"internal": {
				"addCardToHand(uint8,uint8,uint8)": "infinite",
				"dealInitialHands(struct GameToken storage pointer)": "infinite",
				"drawCard(struct GameToken storage pointer)": "infinite",
				"endGame(struct GameToken storage pointer,enum Result,uint256)": "infinite",
				"hasBlackJack(uint8)": "39",
				"shuffleDeck(struct GameToken storage pointer)": "infinite"
			}
		},
		"methodIdentifiers": {
			"assignToken(uint256)": "31a56b83",
			"hit()": "2ae3594a",
			"nextGameID()": "673ee37c",
			"oracle()": "7dc0d1d0",
			"placeBets(uint256)": "afab107e",
			"stand()": "c2897b10",
			"vault()": "fbfa77cf"
		}
	},
	"abi": [
		{
			"inputs": [
				{
					"internalType": "address",
					"name": "_vault",
					"type": "address"
				},
				{
					"internalType": "address",
					"name": "_oracle",
					"type": "address"
				}
			],
			"stateMutability": "nonpayable",
			"type": "constructor"
		},
		{
			"anonymous": false,
			"inputs": [
				{
					"indexed": false,
					"internalType": "uint256",
					"name": "tokenID",
					"type": "uint256"
				},
				{
					"indexed": false,
					"internalType": "address",
					"name": "player",
					"type": "address"
				},
				{
					"indexed": false,
					"internalType": "uint256",
					"name": "bet",
					"type": "uint256"
				},
				{
					"indexed": false,
					"internalType": "bytes32",
					"name": "finalSeed",
					"type": "bytes32"
				}
			],
			"name": "BetPlaced",
			"type": "event"
		},
		{
			"anonymous": false,
			"inputs": [
				{
					"indexed": false,
					"internalType": "address",
					"name": "player",
					"type": "address"
				},
				{
					"indexed": false,
					"internalType": "uint8",
					"name": "card",
					"type": "uint8"
				}
			],
			"name": "CardDrawn",
			"type": "event"
		},
		{
			"anonymous": false,
			"inputs": [
				{
					"indexed": false,
					"internalType": "uint256",
					"name": "tokenID",
					"type": "uint256"
				},
				{
					"indexed": false,
					"internalType": "address",
					"name": "player",
					"type": "address"
				}
			],
			"name": "GameCreated",
			"type": "event"
		},
		{
			"anonymous": false,
			"inputs": [
				{
					"indexed": false,
					"internalType": "address",
					"name": "player",
					"type": "address"
				},
				{
					"indexed": false,
					"internalType": "enum Result",
					"name": "result",
					"type": "uint8"
				}
			],
			"name": "GameEnded",
			"type": "event"
		},
		{
			"inputs": [
				{
					"internalType": "uint256",
					"name": "_playerSeed",
					"type": "uint256"
				}
			],
			"name": "assignToken",
			"outputs": [],
			"stateMutability": "nonpayable",
			"type": "function"
		},
		{
			"inputs": [],
			"name": "hit",
			"outputs": [],
			"stateMutability": "nonpayable",
			"type": "function"
		},
		{
			"inputs": [],
			"name": "nextGameID",
			"outputs": [
				{
					"internalType": "uint256",
					"name": "",
					"type": "uint256"
				}
			],
			"stateMutability": "view",
			"type": "function"
		},
		{
			"inputs": [],
			"name": "oracle",
			"outputs": [
				{
					"internalType": "contract IOracle",
					"name": "",
					"type": "address"
				}
			],
			"stateMutability": "view",
			"type": "function"
		},
		{
			"inputs": [
				{
					"internalType": "uint256",
					"name": "bet",
					"type": "uint256"
				}
			],
			"name": "placeBets",
			"outputs": [],
			"stateMutability": "nonpayable",
			"type": "function"
		},
		{
			"inputs": [],
			"name": "stand",
			"outputs": [],
			"stateMutability": "nonpayable",
			"type": "function"
		},
		{
			"inputs": [],
			"name": "vault",
			"outputs": [
				{
					"internalType": "contract IVault",
					"name": "",
					"type": "address"
				}
			],
			"stateMutability": "view",
			"type": "function"
		}
	]
}