{
	"data": {
		"bytecode": {
			"linkReferences": {},
			"object": "608060405234801561000f575f5ffd5b506040516119b43803806119b483398181016040528101906100319190610115565b815f5f6101000a81548173ffffffffffffffffffffffffffffffffffffffff021916908373ffffffffffffffffffffffffffffffffffffffff1602179055508060015f6101000a81548173ffffffffffffffffffffffffffffffffffffffff021916908373ffffffffffffffffffffffffffffffffffffffff1602179055505050610153565b5f5ffd5b5f73ffffffffffffffffffffffffffffffffffffffff82169050919050565b5f6100e4826100bb565b9050919050565b6100f4816100da565b81146100fe575f5ffd5b50565b5f8151905061010f816100eb565b92915050565b5f5f6040838503121561012b5761012a6100b7565b5b5f61013885828601610101565b925050602061014985828601610101565b9150509250929050565b611854806101605f395ff3fe608060405234801561000f575f5ffd5b506004361061007b575f3560e01c80637dc0d1d0116100595780637dc0d1d0146100c3578063afab107e146100e1578063c2897b10146100fd578063fbfa77cf146101075761007b565b80632ae3594a1461007f57806331a56b8314610089578063673ee37c146100a5575b5f5ffd5b610087610125565b005b6100a3600480360381019061009e9190610f5d565b610265565b005b6100ad61049a565b6040516100ba9190610f97565b60405180910390f35b6100cb6104a0565b6040516100d8919061102a565b60405180910390f35b6100fb60048036038101906100f69190610f5d565b6104c5565b005b6101056107b3565b005b61010f6109a6565b60405161011c9190611063565b60405180910390f35b5f60035f3373ffffffffffffffffffffffffffffffffffffffff1673ffffffffffffffffffffffffffffffffffffffff1681526020019081526020015f205490505f60045f8381526020019081526020015f2090508060060160019054906101000a900460ff166101cb576040517f08c379a00000000000000000000000000000000000000000000000000000000081526004016101c2906110d6565b60405180910390fd5b8060060160029054906101000a900460ff161561021d576040517f08c379a00000000000000000000000000000000000000000000000000000000081526004016102149061113e565b60405180910390fd5b5f610227826109ca565b90506102448183600b0160019054906101000a900460ff16610b29565b82600b0160016101000a81548160ff021916908360ff160217905550505050565b5f60035f3373ffffffffffffffffffffffffffffffffffffffff1673ffffffffffffffffffffffffffffffffffffffff1681526020019081526020015f2054146102e4576040517f08c379a00000000000000000000000000000000000000000000000000000000081526004016102db906111a6565b60405180910390fd5b5f60025f8154809291906102f7906111f1565b9190505590508060035f3373ffffffffffffffffffffffffffffffffffffffff1673ffffffffffffffffffffffffffffffffffffffff1681526020019081526020015f20819055505f60045f8381526020019081526020015f20905081815f018190555033816002015f6101000a81548173ffffffffffffffffffffffffffffffffffffffff021916908373ffffffffffffffffffffffffffffffffffffffff1602179055508281600301819055505f816006015f6101000a81548160ff021916908360ff16021790555060018160060160016101000a81548160ff0219169083151502179055505f81600b015f6101000a81548160ff0219169083151502179055505f81600b0160016101000a81548160ff021916908360ff1602179055505f81600b0160036101000a81548160ff021916908360ff1602179055505f8160060160026101000a81548160ff0219169083151502179055505f81600101819055507fc3e0f84839dc888c892a013d10c8f9d6dc05a21a879d0ce468ca558013e9121c815f01543360405161048d929190611258565b60405180910390a1505050565b60025481565b60015f9054906101000a900473ffffffffffffffffffffffffffffffffffffffff1681565b64174876e80081101580156104e1575066038d7ea4c680008111155b610520576040517f08c379a0000000000000000000000000000000000000000000000000000000008152600401610517906112c9565b60405180910390fd5b5f60035f3373ffffffffffffffffffffffffffffffffffffffff1673ffffffffffffffffffffffffffffffffffffffff1681526020019081526020015f20540361059f576040517f08c379a000000000000000000000000000000000000000000000000000000000815260040161059690611331565b60405180910390fd5b5f60035f3373ffffffffffffffffffffffffffffffffffffffff1673ffffffffffffffffffffffffffffffffffffffff1681526020019081526020015f205490505f60045f8381526020019081526020015f2090505f81600101541461063a576040517f08c379a000000000000000000000000000000000000000000000000000000000815260040161063190611399565b60405180910390fd5b8060060160019054906101000a900460ff168061066957505f816006015f9054906101000a900460ff1660ff16115b156106a9576040517f08c379a00000000000000000000000000000000000000000000000000000000081526004016106a0906111a6565b60405180910390fd5b82816001018190555060015f9054906101000a900473ffffffffffffffffffffffffffffffffffffffff1673ffffffffffffffffffffffffffffffffffffffff1663041df082826004015483600301546040518363ffffffff1660e01b81526004016107169291906113b7565b602060405180830381865afa158015610731573d5f5f3e3d5ffd5b505050506040513d601f19601f820116820180604052508101906107559190611411565b816005018190555061076681610b7e565b7f0e97ce5f641b8a03e0f92d0b4480f849cf26a7bfdf17862c8edaf69268e60aad815f015433836001015484600501546040516107a6949392919061144b565b60405180910390a1505050565b5f60035f3373ffffffffffffffffffffffffffffffffffffffff1673ffffffffffffffffffffffffffffffffffffffff1681526020019081526020015f205490505f60045f8381526020019081526020015f2090508060060160019054906101000a900460ff16610859576040517f08c379a0000000000000000000000000000000000000000000000000000000008152600401610850906114d8565b60405180910390fd5b5f5b601182600b0160039054906101000a900460ff1660ff1610156108bf57610881826109ca565b905061089e8183600b0160039054906101000a900460ff16610b29565b82600b0160036101000a81548160ff021916908360ff16021790555061085b565b601582600b0160039054906101000a900460ff1660ff1611156108fd576108f8826001600285600101546108f391906114f6565b610d14565b6109a1565b81600b0160019054906101000a900460ff1660ff1682600b0160039054906101000a900460ff1660ff161180610949575061094882600b0160039054906101000a900460ff16610efa565b5b1561095f5761095a8260025f610d14565b6109a0565b81600b0160019054906101000a900460ff1660ff1682600b0160039054906101000a900460ff1660ff160361099f5761099e8260038460010154610d14565b5b5b5b505050565b5f5f9054906101000a900473ffffffffffffffffffffffffffffffffffffffff1681565b5f81600b015f9054906101000a900460ff16610a1b576040517f08c379a0000000000000000000000000000000000000000000000000000000008152600401610a1290611581565b60405180910390fd5b5f82600701836006015f9054906101000a900460ff1660ff1660688110610a4557610a4461159f565b5b602091828204019190069054906101000a900460ff1690505f6001600d83610a6d9190611605565b610a779190611635565b9050600a8160ff161115610a8a57600a90505b836006015f81819054906101000a900460ff1680929190610aaa90611669565b91906101000a81548160ff021916908360ff160217905550507f5cb494422aec3c1d66ad0616d3f90f8641e12057560336165c27bf8793fce9cf846002015f9054906101000a900473ffffffffffffffffffffffffffffffffffffffff1683604051610b179291906116a0565b60405180910390a18092505050919050565b5f5f8284610b379190611635565b9050610b4284610f09565b15610b705760158160ff161115610b6757600183610b609190611635565b9250610b6b565b8092505b610b74565b8092505b8291505092915050565b5f5f90505b606860ff168160ff161015610bd95780826007018260ff1660688110610bac57610bab61159f565b5b602091828204019190066101000a81548160ff021916908360ff1602179055508080600101915050610b83565b505f5f90505b606860ff16811015610cf4575f81606860ff16610bfc91906116c7565b83600501545f1c610c0d91906116fa565b82610c18919061172a565b9050826007018160688110610c3057610c2f61159f565b5b602091828204019190069054906101000a900460ff16836007018360688110610c5c57610c5b61159f565b5b602091828204019190069054906101000a900460ff16846007018460688110610c8857610c8761159f565b5b60209182820401919006866007018560688110610ca857610ca761159f565b5b602091828204019190068491906101000a81548160ff021916908360ff1602179055508391906101000a81548160ff021916908360ff1602179055505050508080600101915050610bdf565b50600181600b015f6101000a81548160ff02191690831515021790555050565b818360060160036101000a81548160ff02191690836003811115610d3b57610d3a61175d565b5b021790555060018360060160026101000a81548160ff0219169083151502179055505f8360060160016101000a81548160ff0219169083151502179055505f811115610e2d575f5f9054906101000a900473ffffffffffffffffffffffffffffffffffffffff1673ffffffffffffffffffffffffffffffffffffffff1663117de2fd846002015f9054906101000a900473ffffffffffffffffffffffffffffffffffffffff16836040518363ffffffff1660e01b8152600401610dff92919061178a565b5f604051808303815f87803b158015610e16575f5ffd5b505af1158015610e28573d5f5f3e3d5ffd5b505050505b60035f846002015f9054906101000a900473ffffffffffffffffffffffffffffffffffffffff1673ffffffffffffffffffffffffffffffffffffffff1673ffffffffffffffffffffffffffffffffffffffff1681526020019081526020015f205f90555f83600101819055507fecdab0d30ae5a2b8d283acf9ed4856306f12f29ef8069fac9148d3d2ac6b4b14836002015f9054906101000a900473ffffffffffffffffffffffffffffffffffffffff1683604051610eed9291906117f7565b60405180910390a1505050565b5f60158260ff16149050919050565b5f60018260ff161480610f1f5750600b8260ff16145b9050919050565b5f5ffd5b5f819050919050565b610f3c81610f2a565b8114610f46575f5ffd5b50565b5f81359050610f5781610f33565b92915050565b5f60208284031215610f7257610f71610f26565b5b5f610f7f84828501610f49565b91505092915050565b610f9181610f2a565b82525050565b5f602082019050610faa5f830184610f88565b92915050565b5f73ffffffffffffffffffffffffffffffffffffffff82169050919050565b5f819050919050565b5f610ff2610fed610fe884610fb0565b610fcf565b610fb0565b9050919050565b5f61100382610fd8565b9050919050565b5f61101482610ff9565b9050919050565b6110248161100a565b82525050565b5f60208201905061103d5f83018461101b565b92915050565b5f61104d82610ff9565b9050919050565b61105d81611043565b82525050565b5f6020820190506110765f830184611054565b92915050565b5f82825260208201905092915050565b7f4e6f2067616d6520697320696e2070726f6772657373000000000000000000005f82015250565b5f6110c060168361107c565b91506110cb8261108c565b602082019050919050565b5f6020820190508181035f8301526110ed816110b4565b9050919050565b7f47616d652068617320616c72656164792066696e6973686564000000000000005f82015250565b5f61112860198361107c565b9150611133826110f4565b602082019050919050565b5f6020820190508181035f8301526111558161111c565b9050919050565b7f47616d6520616c726561647920696e2070726f677265737300000000000000005f82015250565b5f61119060188361107c565b915061119b8261115c565b602082019050919050565b5f6020820190508181035f8301526111bd81611184565b9050919050565b7f4e487b71000000000000000000000000000000000000000000000000000000005f52601160045260245ffd5b5f6111fb82610f2a565b91507fffffffffffffffffffffffffffffffffffffffffffffffffffffffffffffffff820361122d5761122c6111c4565b5b600182019050919050565b5f61124282610fb0565b9050919050565b61125281611238565b82525050565b5f60408201905061126b5f830185610f88565b6112786020830184611249565b9392505050565b7f426574206f7574206f662072616e67652e0000000000000000000000000000005f82015250565b5f6112b360118361107c565b91506112be8261127f565b602082019050919050565b5f6020820190508181035f8301526112e0816112a7565b9050919050565b7f4e6f206163746976652067616d652063757272656e746c7900000000000000005f82015250565b5f61131b60188361107c565b9150611326826112e7565b602082019050919050565b5f6020820190508181035f8301526113488161130f565b9050919050565b7f42657420616c726561647920706c6163656400000000000000000000000000005f82015250565b5f61138360128361107c565b915061138e8261134f565b602082019050919050565b5f6020820190508181035f8301526113b081611377565b9050919050565b5f6040820190506113ca5f830185610f88565b6113d76020830184610f88565b9392505050565b5f819050919050565b6113f0816113de565b81146113fa575f5ffd5b50565b5f8151905061140b816113e7565b92915050565b5f6020828403121561142657611425610f26565b5b5f611433848285016113fd565b91505092915050565b611445816113de565b82525050565b5f60808201905061145e5f830187610f88565b61146b6020830186611249565b6114786040830185610f88565b611485606083018461143c565b95945050505050565b7f4e6f2067616d6520686173206265656e207374617274656400000000000000005f82015250565b5f6114c260188361107c565b91506114cd8261148e565b602082019050919050565b5f6020820190508181035f8301526114ef816114b6565b9050919050565b5f61150082610f2a565b915061150b83610f2a565b925082820261151981610f2a565b915082820484148315176115305761152f6111c4565b5b5092915050565b7f4465636b20686173206e6f74206265656e2073687566666c65640000000000005f82015250565b5f61156b601a8361107c565b915061157682611537565b602082019050919050565b5f6020820190508181035f8301526115988161155f565b9050919050565b7f4e487b71000000000000000000000000000000000000000000000000000000005f52603260045260245ffd5b5f60ff82169050919050565b7f4e487b71000000000000000000000000000000000000000000000000000000005f52601260045260245ffd5b5f61160f826115cc565b915061161a836115cc565b92508261162a576116296115d8565b5b828206905092915050565b5f61163f826115cc565b915061164a836115cc565b9250828201905060ff811115611663576116626111c4565b5b92915050565b5f611673826115cc565b915060ff8203611686576116856111c4565b5b600182019050919050565b61169a816115cc565b82525050565b5f6040820190506116b35f830185611249565b6116c06020830184611691565b9392505050565b5f6116d182610f2a565b91506116dc83610f2a565b92508282039050818111156116f4576116f36111c4565b5b92915050565b5f61170482610f2a565b915061170f83610f2a565b92508261171f5761171e6115d8565b5b828206905092915050565b5f61173482610f2a565b915061173f83610f2a565b9250828201905080821115611757576117566111c4565b5b92915050565b7f4e487b71000000000000000000000000000000000000000000000000000000005f52602160045260245ffd5b5f60408201905061179d5f830185611249565b6117aa6020830184610f88565b9392505050565b600481106117c2576117c161175d565b5b50565b5f8190506117d2826117b1565b919050565b5f6117e1826117c5565b9050919050565b6117f1816117d7565b82525050565b5f60408201905061180a5f830185611249565b61181760208301846117e8565b939250505056fea2646970667358221220f40c702db13d9e67f2f2a3b503ef81d8798b02769ebfcc31fefd84bf2df353d764736f6c634300081e0033",
			"opcodes": "PUSH1 0x80 PUSH1 0x40 MSTORE CALLVALUE DUP1 ISZERO PUSH2 0xF JUMPI PUSH0 PUSH0 REVERT JUMPDEST POP PUSH1 0x40 MLOAD PUSH2 0x19B4 CODESIZE SUB DUP1 PUSH2 0x19B4 DUP4 CODECOPY DUP2 DUP2 ADD PUSH1 0x40 MSTORE DUP2 ADD SWAP1 PUSH2 0x31 SWAP2 SWAP1 PUSH2 0x115 JUMP JUMPDEST DUP2 PUSH0 PUSH0 PUSH2 0x100 EXP DUP2 SLOAD DUP2 PUSH20 0xFFFFFFFFFFFFFFFFFFFFFFFFFFFFFFFFFFFFFFFF MUL NOT AND SWAP1 DUP4 PUSH20 0xFFFFFFFFFFFFFFFFFFFFFFFFFFFFFFFFFFFFFFFF AND MUL OR SWAP1 SSTORE POP DUP1 PUSH1 0x1 PUSH0 PUSH2 0x100 EXP DUP2 SLOAD DUP2 PUSH20 0xFFFFFFFFFFFFFFFFFFFFFFFFFFFFFFFFFFFFFFFF MUL NOT AND SWAP1 DUP4 PUSH20 0xFFFFFFFFFFFFFFFFFFFFFFFFFFFFFFFFFFFFFFFF AND MUL OR SWAP1 SSTORE POP POP POP PUSH2 0x153 JUMP JUMPDEST PUSH0 PUSH0 REVERT JUMPDEST PUSH0 PUSH20 0xFFFFFFFFFFFFFFFFFFFFFFFFFFFFFFFFFFFFFFFF DUP3 AND SWAP1 POP SWAP2 SWAP1 POP JUMP JUMPDEST PUSH0 PUSH2 0xE4 DUP3 PUSH2 0xBB JUMP JUMPDEST SWAP1 POP SWAP2 SWAP1 POP JUMP JUMPDEST PUSH2 0xF4 DUP2 PUSH2 0xDA JUMP JUMPDEST DUP2 EQ PUSH2 0xFE JUMPI PUSH0 PUSH0 REVERT JUMPDEST POP JUMP JUMPDEST PUSH0 DUP2 MLOAD SWAP1 POP PUSH2 0x10F DUP2 PUSH2 0xEB JUMP JUMPDEST SWAP3 SWAP2 POP POP JUMP JUMPDEST PUSH0 PUSH0 PUSH1 0x40 DUP4 DUP6 SUB SLT ISZERO PUSH2 0x12B JUMPI PUSH2 0x12A PUSH2 0xB7 JUMP JUMPDEST JUMPDEST PUSH0 PUSH2 0x138 DUP6 DUP3 DUP7 ADD PUSH2 0x101 JUMP JUMPDEST SWAP3 POP POP PUSH1 0x20 PUSH2 0x149 DUP6 DUP3 DUP7 ADD PUSH2 0x101 JUMP JUMPDEST SWAP2 POP POP SWAP3 POP SWAP3 SWAP1 POP JUMP JUMPDEST PUSH2 0x1854 DUP1 PUSH2 0x160 PUSH0 CODECOPY PUSH0 RETURN INVALID PUSH1 0x80 PUSH1 0x40 MSTORE CALLVALUE DUP1 ISZERO PUSH2 0xF JUMPI PUSH0 PUSH0 REVERT JUMPDEST POP PUSH1 0x4 CALLDATASIZE LT PUSH2 0x7B JUMPI PUSH0 CALLDATALOAD PUSH1 0xE0 SHR DUP1 PUSH4 0x7DC0D1D0 GT PUSH2 0x59 JUMPI DUP1 PUSH4 0x7DC0D1D0 EQ PUSH2 0xC3 JUMPI DUP1 PUSH4 0xAFAB107E EQ PUSH2 0xE1 JUMPI DUP1 PUSH4 0xC2897B10 EQ PUSH2 0xFD JUMPI DUP1 PUSH4 0xFBFA77CF EQ PUSH2 0x107 JUMPI PUSH2 0x7B JUMP JUMPDEST DUP1 PUSH4 0x2AE3594A EQ PUSH2 0x7F JUMPI DUP1 PUSH4 0x31A56B83 EQ PUSH2 0x89 JUMPI DUP1 PUSH4 0x673EE37C EQ PUSH2 0xA5 JUMPI JUMPDEST PUSH0 PUSH0 REVERT JUMPDEST PUSH2 0x87 PUSH2 0x125 JUMP JUMPDEST STOP JUMPDEST PUSH2 0xA3 PUSH1 0x4 DUP1 CALLDATASIZE SUB DUP2 ADD SWAP1 PUSH2 0x9E SWAP2 SWAP1 PUSH2 0xF5D JUMP JUMPDEST PUSH2 0x265 JUMP JUMPDEST STOP JUMPDEST PUSH2 0xAD PUSH2 0x49A JUMP JUMPDEST PUSH1 0x40 MLOAD PUSH2 0xBA SWAP2 SWAP1 PUSH2 0xF97 JUMP JUMPDEST PUSH1 0x40 MLOAD DUP1 SWAP2 SUB SWAP1 RETURN JUMPDEST PUSH2 0xCB PUSH2 0x4A0 JUMP JUMPDEST PUSH1 0x40 MLOAD PUSH2 0xD8 SWAP2 SWAP1 PUSH2 0x102A JUMP JUMPDEST PUSH1 0x40 MLOAD DUP1 SWAP2 SUB SWAP1 RETURN JUMPDEST PUSH2 0xFB PUSH1 0x4 DUP1 CALLDATASIZE SUB DUP2 ADD SWAP1 PUSH2 0xF6 SWAP2 SWAP1 PUSH2 0xF5D JUMP JUMPDEST PUSH2 0x4C5 JUMP JUMPDEST STOP JUMPDEST PUSH2 0x105 PUSH2 0x7B3 JUMP JUMPDEST STOP JUMPDEST PUSH2 0x10F PUSH2 0x9A6 JUMP JUMPDEST PUSH1 0x40 MLOAD PUSH2 0x11C SWAP2 SWAP1 PUSH2 0x1063 JUMP JUMPDEST PUSH1 0x40 MLOAD DUP1 SWAP2 SUB SWAP1 RETURN JUMPDEST PUSH0 PUSH1 0x3 PUSH0 CALLER PUSH20 0xFFFFFFFFFFFFFFFFFFFFFFFFFFFFFFFFFFFFFFFF AND PUSH20 0xFFFFFFFFFFFFFFFFFFFFFFFFFFFFFFFFFFFFFFFF AND DUP2 MSTORE PUSH1 0x20 ADD SWAP1 DUP2 MSTORE PUSH1 0x20 ADD PUSH0 KECCAK256 SLOAD SWAP1 POP PUSH0 PUSH1 0x4 PUSH0 DUP4 DUP2 MSTORE PUSH1 0x20 ADD SWAP1 DUP2 MSTORE PUSH1 0x20 ADD PUSH0 KECCAK256 SWAP1 POP DUP1 PUSH1 0x6 ADD PUSH1 0x1 SWAP1 SLOAD SWAP1 PUSH2 0x100 EXP SWAP1 DIV PUSH1 0xFF AND PUSH2 0x1CB JUMPI PUSH1 0x40 MLOAD PUSH32 0x8C379A000000000000000000000000000000000000000000000000000000000 DUP2 MSTORE PUSH1 0x4 ADD PUSH2 0x1C2 SWAP1 PUSH2 0x10D6 JUMP JUMPDEST PUSH1 0x40 MLOAD DUP1 SWAP2 SUB SWAP1 REVERT JUMPDEST DUP1 PUSH1 0x6 ADD PUSH1 0x2 SWAP1 SLOAD SWAP1 PUSH2 0x100 EXP SWAP1 DIV PUSH1 0xFF AND ISZERO PUSH2 0x21D JUMPI PUSH1 0x40 MLOAD PUSH32 0x8C379A000000000000000000000000000000000000000000000000000000000 DUP2 MSTORE PUSH1 0x4 ADD PUSH2 0x214 SWAP1 PUSH2 0x113E JUMP JUMPDEST PUSH1 0x40 MLOAD DUP1 SWAP2 SUB SWAP1 REVERT JUMPDEST PUSH0 PUSH2 0x227 DUP3 PUSH2 0x9CA JUMP JUMPDEST SWAP1 POP PUSH2 0x244 DUP2 DUP4 PUSH1 0xB ADD PUSH1 0x1 SWAP1 SLOAD SWAP1 PUSH2 0x100 EXP SWAP1 DIV PUSH1 0xFF AND PUSH2 0xB29 JUMP JUMPDEST DUP3 PUSH1 0xB ADD PUSH1 0x1 PUSH2 0x100 EXP DUP2 SLOAD DUP2 PUSH1 0xFF MUL NOT AND SWAP1 DUP4 PUSH1 0xFF AND MUL OR SWAP1 SSTORE POP POP POP POP JUMP JUMPDEST PUSH0 PUSH1 0x3 PUSH0 CALLER PUSH20 0xFFFFFFFFFFFFFFFFFFFFFFFFFFFFFFFFFFFFFFFF AND PUSH20 0xFFFFFFFFFFFFFFFFFFFFFFFFFFFFFFFFFFFFFFFF AND DUP2 MSTORE PUSH1 0x20 ADD SWAP1 DUP2 MSTORE PUSH1 0x20 ADD PUSH0 KECCAK256 SLOAD EQ PUSH2 0x2E4 JUMPI PUSH1 0x40 MLOAD PUSH32 0x8C379A000000000000000000000000000000000000000000000000000000000 DUP2 MSTORE PUSH1 0x4 ADD PUSH2 0x2DB SWAP1 PUSH2 0x11A6 JUMP JUMPDEST PUSH1 0x40 MLOAD DUP1 SWAP2 SUB SWAP1 REVERT JUMPDEST PUSH0 PUSH1 0x2 PUSH0 DUP2 SLOAD DUP1 SWAP3 SWAP2 SWAP1 PUSH2 0x2F7 SWAP1 PUSH2 0x11F1 JUMP JUMPDEST SWAP2 SWAP1 POP SSTORE SWAP1 POP DUP1 PUSH1 0x3 PUSH0 CALLER PUSH20 0xFFFFFFFFFFFFFFFFFFFFFFFFFFFFFFFFFFFFFFFF AND PUSH20 0xFFFFFFFFFFFFFFFFFFFFFFFFFFFFFFFFFFFFFFFF AND DUP2 MSTORE PUSH1 0x20 ADD SWAP1 DUP2 MSTORE PUSH1 0x20 ADD PUSH0 KECCAK256 DUP2 SWAP1 SSTORE POP PUSH0 PUSH1 0x4 PUSH0 DUP4 DUP2 MSTORE PUSH1 0x20 ADD SWAP1 DUP2 MSTORE PUSH1 0x20 ADD PUSH0 KECCAK256 SWAP1 POP DUP2 DUP2 PUSH0 ADD DUP2 SWAP1 SSTORE POP CALLER DUP2 PUSH1 0x2 ADD PUSH0 PUSH2 0x100 EXP DUP2 SLOAD DUP2 PUSH20 0xFFFFFFFFFFFFFFFFFFFFFFFFFFFFFFFFFFFFFFFF MUL NOT AND SWAP1 DUP4 PUSH20 0xFFFFFFFFFFFFFFFFFFFFFFFFFFFFFFFFFFFFFFFF AND MUL OR SWAP1 SSTORE POP DUP3 DUP2 PUSH1 0x3 ADD DUP2 SWAP1 SSTORE POP PUSH0 DUP2 PUSH1 0x6 ADD PUSH0 PUSH2 0x100 EXP DUP2 SLOAD DUP2 PUSH1 0xFF MUL NOT AND SWAP1 DUP4 PUSH1 0xFF AND MUL OR SWAP1 SSTORE POP PUSH1 0x1 DUP2 PUSH1 0x6 ADD PUSH1 0x1 PUSH2 0x100 EXP DUP2 SLOAD DUP2 PUSH1 0xFF MUL NOT AND SWAP1 DUP4 ISZERO ISZERO MUL OR SWAP1 SSTORE POP PUSH0 DUP2 PUSH1 0xB ADD PUSH0 PUSH2 0x100 EXP DUP2 SLOAD DUP2 PUSH1 0xFF MUL NOT AND SWAP1 DUP4 ISZERO ISZERO MUL OR SWAP1 SSTORE POP PUSH0 DUP2 PUSH1 0xB ADD PUSH1 0x1 PUSH2 0x100 EXP DUP2 SLOAD DUP2 PUSH1 0xFF MUL NOT AND SWAP1 DUP4 PUSH1 0xFF AND MUL OR SWAP1 SSTORE POP PUSH0 DUP2 PUSH1 0xB ADD PUSH1 0x3 PUSH2 0x100 EXP DUP2 SLOAD DUP2 PUSH1 0xFF MUL NOT AND SWAP1 DUP4 PUSH1 0xFF AND MUL OR SWAP1 SSTORE POP PUSH0 DUP2 PUSH1 0x6 ADD PUSH1 0x2 PUSH2 0x100 EXP DUP2 SLOAD DUP2 PUSH1 0xFF MUL NOT AND SWAP1 DUP4 ISZERO ISZERO MUL OR SWAP1 SSTORE POP PUSH0 DUP2 PUSH1 0x1 ADD DUP2 SWAP1 SSTORE POP PUSH32 0xC3E0F84839DC888C892A013D10C8F9D6DC05A21A879D0CE468CA558013E9121C DUP2 PUSH0 ADD SLOAD CALLER PUSH1 0x40 MLOAD PUSH2 0x48D SWAP3 SWAP2 SWAP1 PUSH2 0x1258 JUMP JUMPDEST PUSH1 0x40 MLOAD DUP1 SWAP2 SUB SWAP1 LOG1 POP POP POP JUMP JUMPDEST PUSH1 0x2 SLOAD DUP2 JUMP JUMPDEST PUSH1 0x1 PUSH0 SWAP1 SLOAD SWAP1 PUSH2 0x100 EXP SWAP1 DIV PUSH20 0xFFFFFFFFFFFFFFFFFFFFFFFFFFFFFFFFFFFFFFFF AND DUP2 JUMP JUMPDEST PUSH5 0x174876E800 DUP2 LT ISZERO DUP1 ISZERO PUSH2 0x4E1 JUMPI POP PUSH7 0x38D7EA4C68000 DUP2 GT ISZERO JUMPDEST PUSH2 0x520 JUMPI PUSH1 0x40 MLOAD PUSH32 0x8C379A000000000000000000000000000000000000000000000000000000000 DUP2 MSTORE PUSH1 0x4 ADD PUSH2 0x517 SWAP1 PUSH2 0x12C9 JUMP JUMPDEST PUSH1 0x40 MLOAD DUP1 SWAP2 SUB SWAP1 REVERT JUMPDEST PUSH0 PUSH1 0x3 PUSH0 CALLER PUSH20 0xFFFFFFFFFFFFFFFFFFFFFFFFFFFFFFFFFFFFFFFF AND PUSH20 0xFFFFFFFFFFFFFFFFFFFFFFFFFFFFFFFFFFFFFFFF AND DUP2 MSTORE PUSH1 0x20 ADD SWAP1 DUP2 MSTORE PUSH1 0x20 ADD PUSH0 KECCAK256 SLOAD SUB PUSH2 0x59F JUMPI PUSH1 0x40 MLOAD PUSH32 0x8C379A000000000000000000000000000000000000000000000000000000000 DUP2 MSTORE PUSH1 0x4 ADD PUSH2 0x596 SWAP1 PUSH2 0x1331 JUMP JUMPDEST PUSH1 0x40 MLOAD DUP1 SWAP2 SUB SWAP1 REVERT JUMPDEST PUSH0 PUSH1 0x3 PUSH0 CALLER PUSH20 0xFFFFFFFFFFFFFFFFFFFFFFFFFFFFFFFFFFFFFFFF AND PUSH20 0xFFFFFFFFFFFFFFFFFFFFFFFFFFFFFFFFFFFFFFFF AND DUP2 MSTORE PUSH1 0x20 ADD SWAP1 DUP2 MSTORE PUSH1 0x20 ADD PUSH0 KECCAK256 SLOAD SWAP1 POP PUSH0 PUSH1 0x4 PUSH0 DUP4 DUP2 MSTORE PUSH1 0x20 ADD SWAP1 DUP2 MSTORE PUSH1 0x20 ADD PUSH0 KECCAK256 SWAP1 POP PUSH0 DUP2 PUSH1 0x1 ADD SLOAD EQ PUSH2 0x63A JUMPI PUSH1 0x40 MLOAD PUSH32 0x8C379A000000000000000000000000000000000000000000000000000000000 DUP2 MSTORE PUSH1 0x4 ADD PUSH2 0x631 SWAP1 PUSH2 0x1399 JUMP JUMPDEST PUSH1 0x40 MLOAD DUP1 SWAP2 SUB SWAP1 REVERT JUMPDEST DUP1 PUSH1 0x6 ADD PUSH1 0x1 SWAP1 SLOAD SWAP1 PUSH2 0x100 EXP SWAP1 DIV PUSH1 0xFF AND DUP1 PUSH2 0x669 JUMPI POP PUSH0 DUP2 PUSH1 0x6 ADD PUSH0 SWAP1 SLOAD SWAP1 PUSH2 0x100 EXP SWAP1 DIV PUSH1 0xFF AND PUSH1 0xFF AND GT JUMPDEST ISZERO PUSH2 0x6A9 JUMPI PUSH1 0x40 MLOAD PUSH32 0x8C379A000000000000000000000000000000000000000000000000000000000 DUP2 MSTORE PUSH1 0x4 ADD PUSH2 0x6A0 SWAP1 PUSH2 0x11A6 JUMP JUMPDEST PUSH1 0x40 MLOAD DUP1 SWAP2 SUB SWAP1 REVERT JUMPDEST DUP3 DUP2 PUSH1 0x1 ADD DUP2 SWAP1 SSTORE POP PUSH1 0x1 PUSH0 SWAP1 SLOAD SWAP1 PUSH2 0x100 EXP SWAP1 DIV PUSH20 0xFFFFFFFFFFFFFFFFFFFFFFFFFFFFFFFFFFFFFFFF AND PUSH20 0xFFFFFFFFFFFFFFFFFFFFFFFFFFFFFFFFFFFFFFFF AND PUSH4 0x41DF082 DUP3 PUSH1 0x4 ADD SLOAD DUP4 PUSH1 0x3 ADD SLOAD PUSH1 0x40 MLOAD DUP4 PUSH4 0xFFFFFFFF AND PUSH1 0xE0 SHL DUP2 MSTORE PUSH1 0x4 ADD PUSH2 0x716 SWAP3 SWAP2 SWAP1 PUSH2 0x13B7 JUMP JUMPDEST PUSH1 0x20 PUSH1 0x40 MLOAD DUP1 DUP4 SUB DUP2 DUP7 GAS STATICCALL ISZERO DUP1 ISZERO PUSH2 0x731 JUMPI RETURNDATASIZE PUSH0 PUSH0 RETURNDATACOPY RETURNDATASIZE PUSH0 REVERT JUMPDEST POP POP POP POP PUSH1 0x40 MLOAD RETURNDATASIZE PUSH1 0x1F NOT PUSH1 0x1F DUP3 ADD AND DUP3 ADD DUP1 PUSH1 0x40 MSTORE POP DUP2 ADD SWAP1 PUSH2 0x755 SWAP2 SWAP1 PUSH2 0x1411 JUMP JUMPDEST DUP2 PUSH1 0x5 ADD DUP2 SWAP1 SSTORE POP PUSH2 0x766 DUP2 PUSH2 0xB7E JUMP JUMPDEST PUSH32 0xE97CE5F641B8A03E0F92D0B4480F849CF26A7BFDF17862C8EDAF69268E60AAD DUP2 PUSH0 ADD SLOAD CALLER DUP4 PUSH1 0x1 ADD SLOAD DUP5 PUSH1 0x5 ADD SLOAD PUSH1 0x40 MLOAD PUSH2 0x7A6 SWAP5 SWAP4 SWAP3 SWAP2 SWAP1 PUSH2 0x144B JUMP JUMPDEST PUSH1 0x40 MLOAD DUP1 SWAP2 SUB SWAP1 LOG1 POP POP POP JUMP JUMPDEST PUSH0 PUSH1 0x3 PUSH0 CALLER PUSH20 0xFFFFFFFFFFFFFFFFFFFFFFFFFFFFFFFFFFFFFFFF AND PUSH20 0xFFFFFFFFFFFFFFFFFFFFFFFFFFFFFFFFFFFFFFFF AND DUP2 MSTORE PUSH1 0x20 ADD SWAP1 DUP2 MSTORE PUSH1 0x20 ADD PUSH0 KECCAK256 SLOAD SWAP1 POP PUSH0 PUSH1 0x4 PUSH0 DUP4 DUP2 MSTORE PUSH1 0x20 ADD SWAP1 DUP2 MSTORE PUSH1 0x20 ADD PUSH0 KECCAK256 SWAP1 POP DUP1 PUSH1 0x6 ADD PUSH1 0x1 SWAP1 SLOAD SWAP1 PUSH2 0x100 EXP SWAP1 DIV PUSH1 0xFF AND PUSH2 0x859 JUMPI PUSH1 0x40 MLOAD PUSH32 0x8C379A000000000000000000000000000000000000000000000000000000000 DUP2 MSTORE PUSH1 0x4 ADD PUSH2 0x850 SWAP1 PUSH2 0x14D8 JUMP JUMPDEST PUSH1 0x40 MLOAD DUP1 SWAP2 SUB SWAP1 REVERT JUMPDEST PUSH0 JUMPDEST PUSH1 0x11 DUP3 PUSH1 0xB ADD PUSH1 0x3 SWAP1 SLOAD SWAP1 PUSH2 0x100 EXP SWAP1 DIV PUSH1 0xFF AND PUSH1 0xFF AND LT ISZERO PUSH2 0x8BF JUMPI PUSH2 0x881 DUP3 PUSH2 0x9CA JUMP JUMPDEST SWAP1 POP PUSH2 0x89E DUP2 DUP4 PUSH1 0xB ADD PUSH1 0x3 SWAP1 SLOAD SWAP1 PUSH2 0x100 EXP SWAP1 DIV PUSH1 0xFF AND PUSH2 0xB29 JUMP JUMPDEST DUP3 PUSH1 0xB ADD PUSH1 0x3 PUSH2 0x100 EXP DUP2 SLOAD DUP2 PUSH1 0xFF MUL NOT AND SWAP1 DUP4 PUSH1 0xFF AND MUL OR SWAP1 SSTORE POP PUSH2 0x85B JUMP JUMPDEST PUSH1 0x15 DUP3 PUSH1 0xB ADD PUSH1 0x3 SWAP1 SLOAD SWAP1 PUSH2 0x100 EXP SWAP1 DIV PUSH1 0xFF AND PUSH1 0xFF AND GT ISZERO PUSH2 0x8FD JUMPI PUSH2 0x8F8 DUP3 PUSH1 0x1 PUSH1 0x2 DUP6 PUSH1 0x1 ADD SLOAD PUSH2 0x8F3 SWAP2 SWAP1 PUSH2 0x14F6 JUMP JUMPDEST PUSH2 0xD14 JUMP JUMPDEST PUSH2 0x9A1 JUMP JUMPDEST DUP2 PUSH1 0xB ADD PUSH1 0x1 SWAP1 SLOAD SWAP1 PUSH2 0x100 EXP SWAP1 DIV PUSH1 0xFF AND PUSH1 0xFF AND DUP3 PUSH1 0xB ADD PUSH1 0x3 SWAP1 SLOAD SWAP1 PUSH2 0x100 EXP SWAP1 DIV PUSH1 0xFF AND PUSH1 0xFF AND GT DUP1 PUSH2 0x949 JUMPI POP PUSH2 0x948 DUP3 PUSH1 0xB ADD PUSH1 0x3 SWAP1 SLOAD SWAP1 PUSH2 0x100 EXP SWAP1 DIV PUSH1 0xFF AND PUSH2 0xEFA JUMP JUMPDEST JUMPDEST ISZERO PUSH2 0x95F JUMPI PUSH2 0x95A DUP3 PUSH1 0x2 PUSH0 PUSH2 0xD14 JUMP JUMPDEST PUSH2 0x9A0 JUMP JUMPDEST DUP2 PUSH1 0xB ADD PUSH1 0x1 SWAP1 SLOAD SWAP1 PUSH2 0x100 EXP SWAP1 DIV PUSH1 0xFF AND PUSH1 0xFF AND DUP3 PUSH1 0xB ADD PUSH1 0x3 SWAP1 SLOAD SWAP1 PUSH2 0x100 EXP SWAP1 DIV PUSH1 0xFF AND PUSH1 0xFF AND SUB PUSH2 0x99F JUMPI PUSH2 0x99E DUP3 PUSH1 0x3 DUP5 PUSH1 0x1 ADD SLOAD PUSH2 0xD14 JUMP JUMPDEST JUMPDEST JUMPDEST JUMPDEST POP POP POP JUMP JUMPDEST PUSH0 PUSH0 SWAP1 SLOAD SWAP1 PUSH2 0x100 EXP SWAP1 DIV PUSH20 0xFFFFFFFFFFFFFFFFFFFFFFFFFFFFFFFFFFFFFFFF AND DUP2 JUMP JUMPDEST PUSH0 DUP2 PUSH1 0xB ADD PUSH0 SWAP1 SLOAD SWAP1 PUSH2 0x100 EXP SWAP1 DIV PUSH1 0xFF AND PUSH2 0xA1B JUMPI PUSH1 0x40 MLOAD PUSH32 0x8C379A000000000000000000000000000000000000000000000000000000000 DUP2 MSTORE PUSH1 0x4 ADD PUSH2 0xA12 SWAP1 PUSH2 0x1581 JUMP JUMPDEST PUSH1 0x40 MLOAD DUP1 SWAP2 SUB SWAP1 REVERT JUMPDEST PUSH0 DUP3 PUSH1 0x7 ADD DUP4 PUSH1 0x6 ADD PUSH0 SWAP1 SLOAD SWAP1 PUSH2 0x100 EXP SWAP1 DIV PUSH1 0xFF AND PUSH1 0xFF AND PUSH1 0x68 DUP2 LT PUSH2 0xA45 JUMPI PUSH2 0xA44 PUSH2 0x159F JUMP JUMPDEST JUMPDEST PUSH1 0x20 SWAP2 DUP3 DUP3 DIV ADD SWAP2 SWAP1 MOD SWAP1 SLOAD SWAP1 PUSH2 0x100 EXP SWAP1 DIV PUSH1 0xFF AND SWAP1 POP PUSH0 PUSH1 0x1 PUSH1 0xD DUP4 PUSH2 0xA6D SWAP2 SWAP1 PUSH2 0x1605 JUMP JUMPDEST PUSH2 0xA77 SWAP2 SWAP1 PUSH2 0x1635 JUMP JUMPDEST SWAP1 POP PUSH1 0xA DUP2 PUSH1 0xFF AND GT ISZERO PUSH2 0xA8A JUMPI PUSH1 0xA SWAP1 POP JUMPDEST DUP4 PUSH1 0x6 ADD PUSH0 DUP2 DUP2 SWAP1 SLOAD SWAP1 PUSH2 0x100 EXP SWAP1 DIV PUSH1 0xFF AND DUP1 SWAP3 SWAP2 SWAP1 PUSH2 0xAAA SWAP1 PUSH2 0x1669 JUMP JUMPDEST SWAP2 SWAP1 PUSH2 0x100 EXP DUP2 SLOAD DUP2 PUSH1 0xFF MUL NOT AND SWAP1 DUP4 PUSH1 0xFF AND MUL OR SWAP1 SSTORE POP POP PUSH32 0x5CB494422AEC3C1D66AD0616D3F90F8641E12057560336165C27BF8793FCE9CF DUP5 PUSH1 0x2 ADD PUSH0 SWAP1 SLOAD SWAP1 PUSH2 0x100 EXP SWAP1 DIV PUSH20 0xFFFFFFFFFFFFFFFFFFFFFFFFFFFFFFFFFFFFFFFF AND DUP4 PUSH1 0x40 MLOAD PUSH2 0xB17 SWAP3 SWAP2 SWAP1 PUSH2 0x16A0 JUMP JUMPDEST PUSH1 0x40 MLOAD DUP1 SWAP2 SUB SWAP1 LOG1 DUP1 SWAP3 POP POP POP SWAP2 SWAP1 POP JUMP JUMPDEST PUSH0 PUSH0 DUP3 DUP5 PUSH2 0xB37 SWAP2 SWAP1 PUSH2 0x1635 JUMP JUMPDEST SWAP1 POP PUSH2 0xB42 DUP5 PUSH2 0xF09 JUMP JUMPDEST ISZERO PUSH2 0xB70 JUMPI PUSH1 0x15 DUP2 PUSH1 0xFF AND GT ISZERO PUSH2 0xB67 JUMPI PUSH1 0x1 DUP4 PUSH2 0xB60 SWAP2 SWAP1 PUSH2 0x1635 JUMP JUMPDEST SWAP3 POP PUSH2 0xB6B JUMP JUMPDEST DUP1 SWAP3 POP JUMPDEST PUSH2 0xB74 JUMP JUMPDEST DUP1 SWAP3 POP JUMPDEST DUP3 SWAP2 POP POP SWAP3 SWAP2 POP POP JUMP JUMPDEST PUSH0 PUSH0 SWAP1 POP JUMPDEST PUSH1 0x68 PUSH1 0xFF AND DUP2 PUSH1 0xFF AND LT ISZERO PUSH2 0xBD9 JUMPI DUP1 DUP3 PUSH1 0x7 ADD DUP3 PUSH1 0xFF AND PUSH1 0x68 DUP2 LT PUSH2 0xBAC JUMPI PUSH2 0xBAB PUSH2 0x159F JUMP JUMPDEST JUMPDEST PUSH1 0x20 SWAP2 DUP3 DUP3 DIV ADD SWAP2 SWAP1 MOD PUSH2 0x100 EXP DUP2 SLOAD DUP2 PUSH1 0xFF MUL NOT AND SWAP1 DUP4 PUSH1 0xFF AND MUL OR SWAP1 SSTORE POP DUP1 DUP1 PUSH1 0x1 ADD SWAP2 POP POP PUSH2 0xB83 JUMP JUMPDEST POP PUSH0 PUSH0 SWAP1 POP JUMPDEST PUSH1 0x68 PUSH1 0xFF AND DUP2 LT ISZERO PUSH2 0xCF4 JUMPI PUSH0 DUP2 PUSH1 0x68 PUSH1 0xFF AND PUSH2 0xBFC SWAP2 SWAP1 PUSH2 0x16C7 JUMP JUMPDEST DUP4 PUSH1 0x5 ADD SLOAD PUSH0 SHR PUSH2 0xC0D SWAP2 SWAP1 PUSH2 0x16FA JUMP JUMPDEST DUP3 PUSH2 0xC18 SWAP2 SWAP1 PUSH2 0x172A JUMP JUMPDEST SWAP1 POP DUP3 PUSH1 0x7 ADD DUP2 PUSH1 0x68 DUP2 LT PUSH2 0xC30 JUMPI PUSH2 0xC2F PUSH2 0x159F JUMP JUMPDEST JUMPDEST PUSH1 0x20 SWAP2 DUP3 DUP3 DIV ADD SWAP2 SWAP1 MOD SWAP1 SLOAD SWAP1 PUSH2 0x100 EXP SWAP1 DIV PUSH1 0xFF AND DUP4 PUSH1 0x7 ADD DUP4 PUSH1 0x68 DUP2 LT PUSH2 0xC5C JUMPI PUSH2 0xC5B PUSH2 0x159F JUMP JUMPDEST JUMPDEST PUSH1 0x20 SWAP2 DUP3 DUP3 DIV ADD SWAP2 SWAP1 MOD SWAP1 SLOAD SWAP1 PUSH2 0x100 EXP SWAP1 DIV PUSH1 0xFF AND DUP5 PUSH1 0x7 ADD DUP5 PUSH1 0x68 DUP2 LT PUSH2 0xC88 JUMPI PUSH2 0xC87 PUSH2 0x159F JUMP JUMPDEST JUMPDEST PUSH1 0x20 SWAP2 DUP3 DUP3 DIV ADD SWAP2 SWAP1 MOD DUP7 PUSH1 0x7 ADD DUP6 PUSH1 0x68 DUP2 LT PUSH2 0xCA8 JUMPI PUSH2 0xCA7 PUSH2 0x159F JUMP JUMPDEST JUMPDEST PUSH1 0x20 SWAP2 DUP3 DUP3 DIV ADD SWAP2 SWAP1 MOD DUP5 SWAP2 SWAP1 PUSH2 0x100 EXP DUP2 SLOAD DUP2 PUSH1 0xFF MUL NOT AND SWAP1 DUP4 PUSH1 0xFF AND MUL OR SWAP1 SSTORE POP DUP4 SWAP2 SWAP1 PUSH2 0x100 EXP DUP2 SLOAD DUP2 PUSH1 0xFF MUL NOT AND SWAP1 DUP4 PUSH1 0xFF AND MUL OR SWAP1 SSTORE POP POP POP POP DUP1 DUP1 PUSH1 0x1 ADD SWAP2 POP POP PUSH2 0xBDF JUMP JUMPDEST POP PUSH1 0x1 DUP2 PUSH1 0xB ADD PUSH0 PUSH2 0x100 EXP DUP2 SLOAD DUP2 PUSH1 0xFF MUL NOT AND SWAP1 DUP4 ISZERO ISZERO MUL OR SWAP1 SSTORE POP POP JUMP JUMPDEST DUP2 DUP4 PUSH1 0x6 ADD PUSH1 0x3 PUSH2 0x100 EXP DUP2 SLOAD DUP2 PUSH1 0xFF MUL NOT AND SWAP1 DUP4 PUSH1 0x3 DUP2 GT ISZERO PUSH2 0xD3B JUMPI PUSH2 0xD3A PUSH2 0x175D JUMP JUMPDEST JUMPDEST MUL OR SWAP1 SSTORE POP PUSH1 0x1 DUP4 PUSH1 0x6 ADD PUSH1 0x2 PUSH2 0x100 EXP DUP2 SLOAD DUP2 PUSH1 0xFF MUL NOT AND SWAP1 DUP4 ISZERO ISZERO MUL OR SWAP1 SSTORE POP PUSH0 DUP4 PUSH1 0x6 ADD PUSH1 0x1 PUSH2 0x100 EXP DUP2 SLOAD DUP2 PUSH1 0xFF MUL NOT AND SWAP1 DUP4 ISZERO ISZERO MUL OR SWAP1 SSTORE POP PUSH0 DUP2 GT ISZERO PUSH2 0xE2D JUMPI PUSH0 PUSH0 SWAP1 SLOAD SWAP1 PUSH2 0x100 EXP SWAP1 DIV PUSH20 0xFFFFFFFFFFFFFFFFFFFFFFFFFFFFFFFFFFFFFFFF AND PUSH20 0xFFFFFFFFFFFFFFFFFFFFFFFFFFFFFFFFFFFFFFFF AND PUSH4 0x117DE2FD DUP5 PUSH1 0x2 ADD PUSH0 SWAP1 SLOAD SWAP1 PUSH2 0x100 EXP SWAP1 DIV PUSH20 0xFFFFFFFFFFFFFFFFFFFFFFFFFFFFFFFFFFFFFFFF AND DUP4 PUSH1 0x40 MLOAD DUP4 PUSH4 0xFFFFFFFF AND PUSH1 0xE0 SHL DUP2 MSTORE PUSH1 0x4 ADD PUSH2 0xDFF SWAP3 SWAP2 SWAP1 PUSH2 0x178A JUMP JUMPDEST PUSH0 PUSH1 0x40 MLOAD DUP1 DUP4 SUB DUP2 PUSH0 DUP8 DUP1 EXTCODESIZE ISZERO DUP1 ISZERO PUSH2 0xE16 JUMPI PUSH0 PUSH0 REVERT JUMPDEST POP GAS CALL ISZERO DUP1 ISZERO PUSH2 0xE28 JUMPI RETURNDATASIZE PUSH0 PUSH0 RETURNDATACOPY RETURNDATASIZE PUSH0 REVERT JUMPDEST POP POP POP POP JUMPDEST PUSH1 0x3 PUSH0 DUP5 PUSH1 0x2 ADD PUSH0 SWAP1 SLOAD SWAP1 PUSH2 0x100 EXP SWAP1 DIV PUSH20 0xFFFFFFFFFFFFFFFFFFFFFFFFFFFFFFFFFFFFFFFF AND PUSH20 0xFFFFFFFFFFFFFFFFFFFFFFFFFFFFFFFFFFFFFFFF AND PUSH20 0xFFFFFFFFFFFFFFFFFFFFFFFFFFFFFFFFFFFFFFFF AND DUP2 MSTORE PUSH1 0x20 ADD SWAP1 DUP2 MSTORE PUSH1 0x20 ADD PUSH0 KECCAK256 PUSH0 SWAP1 SSTORE PUSH0 DUP4 PUSH1 0x1 ADD DUP2 SWAP1 SSTORE POP PUSH32 0xECDAB0D30AE5A2B8D283ACF9ED4856306F12F29EF8069FAC9148D3D2AC6B4B14 DUP4 PUSH1 0x2 ADD PUSH0 SWAP1 SLOAD SWAP1 PUSH2 0x100 EXP SWAP1 DIV PUSH20 0xFFFFFFFFFFFFFFFFFFFFFFFFFFFFFFFFFFFFFFFF AND DUP4 PUSH1 0x40 MLOAD PUSH2 0xEED SWAP3 SWAP2 SWAP1 PUSH2 0x17F7 JUMP JUMPDEST PUSH1 0x40 MLOAD DUP1 SWAP2 SUB SWAP1 LOG1 POP POP POP JUMP JUMPDEST PUSH0 PUSH1 0x15 DUP3 PUSH1 0xFF AND EQ SWAP1 POP SWAP2 SWAP1 POP JUMP JUMPDEST PUSH0 PUSH1 0x1 DUP3 PUSH1 0xFF AND EQ DUP1 PUSH2 0xF1F JUMPI POP PUSH1 0xB DUP3 PUSH1 0xFF AND EQ JUMPDEST SWAP1 POP SWAP2 SWAP1 POP JUMP JUMPDEST PUSH0 PUSH0 REVERT JUMPDEST PUSH0 DUP2 SWAP1 POP SWAP2 SWAP1 POP JUMP JUMPDEST PUSH2 0xF3C DUP2 PUSH2 0xF2A JUMP JUMPDEST DUP2 EQ PUSH2 0xF46 JUMPI PUSH0 PUSH0 REVERT JUMPDEST POP JUMP JUMPDEST PUSH0 DUP2 CALLDATALOAD SWAP1 POP PUSH2 0xF57 DUP2 PUSH2 0xF33 JUMP JUMPDEST SWAP3 SWAP2 POP POP JUMP JUMPDEST PUSH0 PUSH1 0x20 DUP3 DUP5 SUB SLT ISZERO PUSH2 0xF72 JUMPI PUSH2 0xF71 PUSH2 0xF26 JUMP JUMPDEST JUMPDEST PUSH0 PUSH2 0xF7F DUP5 DUP3 DUP6 ADD PUSH2 0xF49 JUMP JUMPDEST SWAP2 POP POP SWAP3 SWAP2 POP POP JUMP JUMPDEST PUSH2 0xF91 DUP2 PUSH2 0xF2A JUMP JUMPDEST DUP3 MSTORE POP POP JUMP JUMPDEST PUSH0 PUSH1 0x20 DUP3 ADD SWAP1 POP PUSH2 0xFAA PUSH0 DUP4 ADD DUP5 PUSH2 0xF88 JUMP JUMPDEST SWAP3 SWAP2 POP POP JUMP JUMPDEST PUSH0 PUSH20 0xFFFFFFFFFFFFFFFFFFFFFFFFFFFFFFFFFFFFFFFF DUP3 AND SWAP1 POP SWAP2 SWAP1 POP JUMP JUMPDEST PUSH0 DUP2 SWAP1 POP SWAP2 SWAP1 POP JUMP JUMPDEST PUSH0 PUSH2 0xFF2 PUSH2 0xFED PUSH2 0xFE8 DUP5 PUSH2 0xFB0 JUMP JUMPDEST PUSH2 0xFCF JUMP JUMPDEST PUSH2 0xFB0 JUMP JUMPDEST SWAP1 POP SWAP2 SWAP1 POP JUMP JUMPDEST PUSH0 PUSH2 0x1003 DUP3 PUSH2 0xFD8 JUMP JUMPDEST SWAP1 POP SWAP2 SWAP1 POP JUMP JUMPDEST PUSH0 PUSH2 0x1014 DUP3 PUSH2 0xFF9 JUMP JUMPDEST SWAP1 POP SWAP2 SWAP1 POP JUMP JUMPDEST PUSH2 0x1024 DUP2 PUSH2 0x100A JUMP JUMPDEST DUP3 MSTORE POP POP JUMP JUMPDEST PUSH0 PUSH1 0x20 DUP3 ADD SWAP1 POP PUSH2 0x103D PUSH0 DUP4 ADD DUP5 PUSH2 0x101B JUMP JUMPDEST SWAP3 SWAP2 POP POP JUMP JUMPDEST PUSH0 PUSH2 0x104D DUP3 PUSH2 0xFF9 JUMP JUMPDEST SWAP1 POP SWAP2 SWAP1 POP JUMP JUMPDEST PUSH2 0x105D DUP2 PUSH2 0x1043 JUMP JUMPDEST DUP3 MSTORE POP POP JUMP JUMPDEST PUSH0 PUSH1 0x20 DUP3 ADD SWAP1 POP PUSH2 0x1076 PUSH0 DUP4 ADD DUP5 PUSH2 0x1054 JUMP JUMPDEST SWAP3 SWAP2 POP POP JUMP JUMPDEST PUSH0 DUP3 DUP3 MSTORE PUSH1 0x20 DUP3 ADD SWAP1 POP SWAP3 SWAP2 POP POP JUMP JUMPDEST PUSH32 0x4E6F2067616D6520697320696E2070726F677265737300000000000000000000 PUSH0 DUP3 ADD MSTORE POP JUMP JUMPDEST PUSH0 PUSH2 0x10C0 PUSH1 0x16 DUP4 PUSH2 0x107C JUMP JUMPDEST SWAP2 POP PUSH2 0x10CB DUP3 PUSH2 0x108C JUMP JUMPDEST PUSH1 0x20 DUP3 ADD SWAP1 POP SWAP2 SWAP1 POP JUMP JUMPDEST PUSH0 PUSH1 0x20 DUP3 ADD SWAP1 POP DUP2 DUP2 SUB PUSH0 DUP4 ADD MSTORE PUSH2 0x10ED DUP2 PUSH2 0x10B4 JUMP JUMPDEST SWAP1 POP SWAP2 SWAP1 POP JUMP JUMPDEST PUSH32 0x47616D652068617320616C72656164792066696E697368656400000000000000 PUSH0 DUP3 ADD MSTORE POP JUMP JUMPDEST PUSH0 PUSH2 0x1128 PUSH1 0x19 DUP4 PUSH2 0x107C JUMP JUMPDEST SWAP2 POP PUSH2 0x1133 DUP3 PUSH2 0x10F4 JUMP JUMPDEST PUSH1 0x20 DUP3 ADD SWAP1 POP SWAP2 SWAP1 POP JUMP JUMPDEST PUSH0 PUSH1 0x20 DUP3 ADD SWAP1 POP DUP2 DUP2 SUB PUSH0 DUP4 ADD MSTORE PUSH2 0x1155 DUP2 PUSH2 0x111C JUMP JUMPDEST SWAP1 POP SWAP2 SWAP1 POP JUMP JUMPDEST PUSH32 0x47616D6520616C726561647920696E2070726F67726573730000000000000000 PUSH0 DUP3 ADD MSTORE POP JUMP JUMPDEST PUSH0 PUSH2 0x1190 PUSH1 0x18 DUP4 PUSH2 0x107C JUMP JUMPDEST SWAP2 POP PUSH2 0x119B DUP3 PUSH2 0x115C JUMP JUMPDEST PUSH1 0x20 DUP3 ADD SWAP1 POP SWAP2 SWAP1 POP JUMP JUMPDEST PUSH0 PUSH1 0x20 DUP3 ADD SWAP1 POP DUP2 DUP2 SUB PUSH0 DUP4 ADD MSTORE PUSH2 0x11BD DUP2 PUSH2 0x1184 JUMP JUMPDEST SWAP1 POP SWAP2 SWAP1 POP JUMP JUMPDEST PUSH32 0x4E487B7100000000000000000000000000000000000000000000000000000000 PUSH0 MSTORE PUSH1 0x11 PUSH1 0x4 MSTORE PUSH1 0x24 PUSH0 REVERT JUMPDEST PUSH0 PUSH2 0x11FB DUP3 PUSH2 0xF2A JUMP JUMPDEST SWAP2 POP PUSH32 0xFFFFFFFFFFFFFFFFFFFFFFFFFFFFFFFFFFFFFFFFFFFFFFFFFFFFFFFFFFFFFFFF DUP3 SUB PUSH2 0x122D JUMPI PUSH2 0x122C PUSH2 0x11C4 JUMP JUMPDEST JUMPDEST PUSH1 0x1 DUP3 ADD SWAP1 POP SWAP2 SWAP1 POP JUMP JUMPDEST PUSH0 PUSH2 0x1242 DUP3 PUSH2 0xFB0 JUMP JUMPDEST SWAP1 POP SWAP2 SWAP1 POP JUMP JUMPDEST PUSH2 0x1252 DUP2 PUSH2 0x1238 JUMP JUMPDEST DUP3 MSTORE POP POP JUMP JUMPDEST PUSH0 PUSH1 0x40 DUP3 ADD SWAP1 POP PUSH2 0x126B PUSH0 DUP4 ADD DUP6 PUSH2 0xF88 JUMP JUMPDEST PUSH2 0x1278 PUSH1 0x20 DUP4 ADD DUP5 PUSH2 0x1249 JUMP JUMPDEST SWAP4 SWAP3 POP POP POP JUMP JUMPDEST PUSH32 0x426574206F7574206F662072616E67652E000000000000000000000000000000 PUSH0 DUP3 ADD MSTORE POP JUMP JUMPDEST PUSH0 PUSH2 0x12B3 PUSH1 0x11 DUP4 PUSH2 0x107C JUMP JUMPDEST SWAP2 POP PUSH2 0x12BE DUP3 PUSH2 0x127F JUMP JUMPDEST PUSH1 0x20 DUP3 ADD SWAP1 POP SWAP2 SWAP1 POP JUMP JUMPDEST PUSH0 PUSH1 0x20 DUP3 ADD SWAP1 POP DUP2 DUP2 SUB PUSH0 DUP4 ADD MSTORE PUSH2 0x12E0 DUP2 PUSH2 0x12A7 JUMP JUMPDEST SWAP1 POP SWAP2 SWAP1 POP JUMP JUMPDEST PUSH32 0x4E6F206163746976652067616D652063757272656E746C790000000000000000 PUSH0 DUP3 ADD MSTORE POP JUMP JUMPDEST PUSH0 PUSH2 0x131B PUSH1 0x18 DUP4 PUSH2 0x107C JUMP JUMPDEST SWAP2 POP PUSH2 0x1326 DUP3 PUSH2 0x12E7 JUMP JUMPDEST PUSH1 0x20 DUP3 ADD SWAP1 POP SWAP2 SWAP1 POP JUMP JUMPDEST PUSH0 PUSH1 0x20 DUP3 ADD SWAP1 POP DUP2 DUP2 SUB PUSH0 DUP4 ADD MSTORE PUSH2 0x1348 DUP2 PUSH2 0x130F JUMP JUMPDEST SWAP1 POP SWAP2 SWAP1 POP JUMP JUMPDEST PUSH32 0x42657420616C726561647920706C616365640000000000000000000000000000 PUSH0 DUP3 ADD MSTORE POP JUMP JUMPDEST PUSH0 PUSH2 0x1383 PUSH1 0x12 DUP4 PUSH2 0x107C JUMP JUMPDEST SWAP2 POP PUSH2 0x138E DUP3 PUSH2 0x134F JUMP JUMPDEST PUSH1 0x20 DUP3 ADD SWAP1 POP SWAP2 SWAP1 POP JUMP JUMPDEST PUSH0 PUSH1 0x20 DUP3 ADD SWAP1 POP DUP2 DUP2 SUB PUSH0 DUP4 ADD MSTORE PUSH2 0x13B0 DUP2 PUSH2 0x1377 JUMP JUMPDEST SWAP1 POP SWAP2 SWAP1 POP JUMP JUMPDEST PUSH0 PUSH1 0x40 DUP3 ADD SWAP1 POP PUSH2 0x13CA PUSH0 DUP4 ADD DUP6 PUSH2 0xF88 JUMP JUMPDEST PUSH2 0x13D7 PUSH1 0x20 DUP4 ADD DUP5 PUSH2 0xF88 JUMP JUMPDEST SWAP4 SWAP3 POP POP POP JUMP JUMPDEST PUSH0 DUP2 SWAP1 POP SWAP2 SWAP1 POP JUMP JUMPDEST PUSH2 0x13F0 DUP2 PUSH2 0x13DE JUMP JUMPDEST DUP2 EQ PUSH2 0x13FA JUMPI PUSH0 PUSH0 REVERT JUMPDEST POP JUMP JUMPDEST PUSH0 DUP2 MLOAD SWAP1 POP PUSH2 0x140B DUP2 PUSH2 0x13E7 JUMP JUMPDEST SWAP3 SWAP2 POP POP JUMP JUMPDEST PUSH0 PUSH1 0x20 DUP3 DUP5 SUB SLT ISZERO PUSH2 0x1426 JUMPI PUSH2 0x1425 PUSH2 0xF26 JUMP JUMPDEST JUMPDEST PUSH0 PUSH2 0x1433 DUP5 DUP3 DUP6 ADD PUSH2 0x13FD JUMP JUMPDEST SWAP2 POP POP SWAP3 SWAP2 POP POP JUMP JUMPDEST PUSH2 0x1445 DUP2 PUSH2 0x13DE JUMP JUMPDEST DUP3 MSTORE POP POP JUMP JUMPDEST PUSH0 PUSH1 0x80 DUP3 ADD SWAP1 POP PUSH2 0x145E PUSH0 DUP4 ADD DUP8 PUSH2 0xF88 JUMP JUMPDEST PUSH2 0x146B PUSH1 0x20 DUP4 ADD DUP7 PUSH2 0x1249 JUMP JUMPDEST PUSH2 0x1478 PUSH1 0x40 DUP4 ADD DUP6 PUSH2 0xF88 JUMP JUMPDEST PUSH2 0x1485 PUSH1 0x60 DUP4 ADD DUP5 PUSH2 0x143C JUMP JUMPDEST SWAP6 SWAP5 POP POP POP POP POP JUMP JUMPDEST PUSH32 0x4E6F2067616D6520686173206265656E20737461727465640000000000000000 PUSH0 DUP3 ADD MSTORE POP JUMP JUMPDEST PUSH0 PUSH2 0x14C2 PUSH1 0x18 DUP4 PUSH2 0x107C JUMP JUMPDEST SWAP2 POP PUSH2 0x14CD DUP3 PUSH2 0x148E JUMP JUMPDEST PUSH1 0x20 DUP3 ADD SWAP1 POP SWAP2 SWAP1 POP JUMP JUMPDEST PUSH0 PUSH1 0x20 DUP3 ADD SWAP1 POP DUP2 DUP2 SUB PUSH0 DUP4 ADD MSTORE PUSH2 0x14EF DUP2 PUSH2 0x14B6 JUMP JUMPDEST SWAP1 POP SWAP2 SWAP1 POP JUMP JUMPDEST PUSH0 PUSH2 0x1500 DUP3 PUSH2 0xF2A JUMP JUMPDEST SWAP2 POP PUSH2 0x150B DUP4 PUSH2 0xF2A JUMP JUMPDEST SWAP3 POP DUP3 DUP3 MUL PUSH2 0x1519 DUP2 PUSH2 0xF2A JUMP JUMPDEST SWAP2 POP DUP3 DUP3 DIV DUP5 EQ DUP4 ISZERO OR PUSH2 0x1530 JUMPI PUSH2 0x152F PUSH2 0x11C4 JUMP JUMPDEST JUMPDEST POP SWAP3 SWAP2 POP POP JUMP JUMPDEST PUSH32 0x4465636B20686173206E6F74206265656E2073687566666C6564000000000000 PUSH0 DUP3 ADD MSTORE POP JUMP JUMPDEST PUSH0 PUSH2 0x156B PUSH1 0x1A DUP4 PUSH2 0x107C JUMP JUMPDEST SWAP2 POP PUSH2 0x1576 DUP3 PUSH2 0x1537 JUMP JUMPDEST PUSH1 0x20 DUP3 ADD SWAP1 POP SWAP2 SWAP1 POP JUMP JUMPDEST PUSH0 PUSH1 0x20 DUP3 ADD SWAP1 POP DUP2 DUP2 SUB PUSH0 DUP4 ADD MSTORE PUSH2 0x1598 DUP2 PUSH2 0x155F JUMP JUMPDEST SWAP1 POP SWAP2 SWAP1 POP JUMP JUMPDEST PUSH32 0x4E487B7100000000000000000000000000000000000000000000000000000000 PUSH0 MSTORE PUSH1 0x32 PUSH1 0x4 MSTORE PUSH1 0x24 PUSH0 REVERT JUMPDEST PUSH0 PUSH1 0xFF DUP3 AND SWAP1 POP SWAP2 SWAP1 POP JUMP JUMPDEST PUSH32 0x4E487B7100000000000000000000000000000000000000000000000000000000 PUSH0 MSTORE PUSH1 0x12 PUSH1 0x4 MSTORE PUSH1 0x24 PUSH0 REVERT JUMPDEST PUSH0 PUSH2 0x160F DUP3 PUSH2 0x15CC JUMP JUMPDEST SWAP2 POP PUSH2 0x161A DUP4 PUSH2 0x15CC JUMP JUMPDEST SWAP3 POP DUP3 PUSH2 0x162A JUMPI PUSH2 0x1629 PUSH2 0x15D8 JUMP JUMPDEST JUMPDEST DUP3 DUP3 MOD SWAP1 POP SWAP3 SWAP2 POP POP JUMP JUMPDEST PUSH0 PUSH2 0x163F DUP3 PUSH2 0x15CC JUMP JUMPDEST SWAP2 POP PUSH2 0x164A DUP4 PUSH2 0x15CC JUMP JUMPDEST SWAP3 POP DUP3 DUP3 ADD SWAP1 POP PUSH1 0xFF DUP2 GT ISZERO PUSH2 0x1663 JUMPI PUSH2 0x1662 PUSH2 0x11C4 JUMP JUMPDEST JUMPDEST SWAP3 SWAP2 POP POP JUMP JUMPDEST PUSH0 PUSH2 0x1673 DUP3 PUSH2 0x15CC JUMP JUMPDEST SWAP2 POP PUSH1 0xFF DUP3 SUB PUSH2 0x1686 JUMPI PUSH2 0x1685 PUSH2 0x11C4 JUMP JUMPDEST JUMPDEST PUSH1 0x1 DUP3 ADD SWAP1 POP SWAP2 SWAP1 POP JUMP JUMPDEST PUSH2 0x169A DUP2 PUSH2 0x15CC JUMP JUMPDEST DUP3 MSTORE POP POP JUMP JUMPDEST PUSH0 PUSH1 0x40 DUP3 ADD SWAP1 POP PUSH2 0x16B3 PUSH0 DUP4 ADD DUP6 PUSH2 0x1249 JUMP JUMPDEST PUSH2 0x16C0 PUSH1 0x20 DUP4 ADD DUP5 PUSH2 0x1691 JUMP JUMPDEST SWAP4 SWAP3 POP POP POP JUMP JUMPDEST PUSH0 PUSH2 0x16D1 DUP3 PUSH2 0xF2A JUMP JUMPDEST SWAP2 POP PUSH2 0x16DC DUP4 PUSH2 0xF2A JUMP JUMPDEST SWAP3 POP DUP3 DUP3 SUB SWAP1 POP DUP2 DUP2 GT ISZERO PUSH2 0x16F4 JUMPI PUSH2 0x16F3 PUSH2 0x11C4 JUMP JUMPDEST JUMPDEST SWAP3 SWAP2 POP POP JUMP JUMPDEST PUSH0 PUSH2 0x1704 DUP3 PUSH2 0xF2A JUMP JUMPDEST SWAP2 POP PUSH2 0x170F DUP4 PUSH2 0xF2A JUMP JUMPDEST SWAP3 POP DUP3 PUSH2 0x171F JUMPI PUSH2 0x171E PUSH2 0x15D8 JUMP JUMPDEST JUMPDEST DUP3 DUP3 MOD SWAP1 POP SWAP3 SWAP2 POP POP JUMP JUMPDEST PUSH0 PUSH2 0x1734 DUP3 PUSH2 0xF2A JUMP JUMPDEST SWAP2 POP PUSH2 0x173F DUP4 PUSH2 0xF2A JUMP JUMPDEST SWAP3 POP DUP3 DUP3 ADD SWAP1 POP DUP1 DUP3 GT ISZERO PUSH2 0x1757 JUMPI PUSH2 0x1756 PUSH2 0x11C4 JUMP JUMPDEST JUMPDEST SWAP3 SWAP2 POP POP JUMP JUMPDEST PUSH32 0x4E487B7100000000000000000000000000000000000000000000000000000000 PUSH0 MSTORE PUSH1 0x21 PUSH1 0x4 MSTORE PUSH1 0x24 PUSH0 REVERT JUMPDEST PUSH0 PUSH1 0x40 DUP3 ADD SWAP1 POP PUSH2 0x179D PUSH0 DUP4 ADD DUP6 PUSH2 0x1249 JUMP JUMPDEST PUSH2 0x17AA PUSH1 0x20 DUP4 ADD DUP5 PUSH2 0xF88 JUMP JUMPDEST SWAP4 SWAP3 POP POP POP JUMP JUMPDEST PUSH1 0x4 DUP2 LT PUSH2 0x17C2 JUMPI PUSH2 0x17C1 PUSH2 0x175D JUMP JUMPDEST JUMPDEST POP JUMP JUMPDEST PUSH0 DUP2 SWAP1 POP PUSH2 0x17D2 DUP3 PUSH2 0x17B1 JUMP JUMPDEST SWAP2 SWAP1 POP JUMP JUMPDEST PUSH0 PUSH2 0x17E1 DUP3 PUSH2 0x17C5 JUMP JUMPDEST SWAP1 POP SWAP2 SWAP1 POP JUMP JUMPDEST PUSH2 0x17F1 DUP2 PUSH2 0x17D7 JUMP JUMPDEST DUP3 MSTORE POP POP JUMP JUMPDEST PUSH0 PUSH1 0x40 DUP3 ADD SWAP1 POP PUSH2 0x180A PUSH0 DUP4 ADD DUP6 PUSH2 0x1249 JUMP JUMPDEST PUSH2 0x1817 PUSH1 0x20 DUP4 ADD DUP5 PUSH2 0x17E8 JUMP JUMPDEST SWAP4 SWAP3 POP POP POP JUMP INVALID LOG2 PUSH5 0x6970667358 0x22 SLT KECCAK256 DELEGATECALL 0xC PUSH17 0x2DB13D9E67F2F2A3B503EF81D8798B0276 SWAP15 0xBF 0xCC BALANCE INVALID REVERT DUP5 0xBF 0x2D RETURN MSTORE8 0xD7 PUSH5 0x736F6C6343 STOP ADDMOD 0x1E STOP CALLER "
		},
		"gasEstimates": {
			"creation": {
				"codeDepositCost": "1245600",
				"executionCost": "infinite",
				"totalCost": "infinite"
			},
			"external": {
				"assignToken(uint256)": "infinite",
				"hit()": "infinite",
				"nextGameID()": "2470",
				"oracle()": "infinite",
				"placeBets(uint256)": "infinite",
				"stand()": "infinite",
				"vault()": "infinite"
			},
			"internal": {
				"addCardToHand(uint8,uint8)": "infinite",
				"dealInitialHands(struct GameToken storage pointer)": "infinite",
				"drawCard(struct GameToken storage pointer)": "infinite",
				"endGame(struct GameToken storage pointer,enum Result,uint256)": "infinite",
				"hasBlackJack(uint8)": "39",
				"isAce(uint8)": "73",
				"shuffleDeck(struct GameToken storage pointer)": "infinite"
			}
		},
		"methodIdentifiers": {
			"assignToken(uint256)": "31a56b83",
			"hit()": "2ae3594a",
			"nextGameID()": "673ee37c",
			"oracle()": "7dc0d1d0",
			"placeBets(uint256)": "afab107e",
			"stand()": "c2897b10",
			"vault()": "fbfa77cf"
		}
	},
	"abi": [
		{
			"inputs": [
				{
					"internalType": "address",
					"name": "_vault",
					"type": "address"
				},
				{
					"internalType": "address",
					"name": "_oracle",
					"type": "address"
				}
			],
			"stateMutability": "nonpayable",
			"type": "constructor"
		},
		{
			"anonymous": false,
			"inputs": [
				{
					"indexed": false,
					"internalType": "uint256",
					"name": "tokenID",
					"type": "uint256"
				},
				{
					"indexed": false,
					"internalType": "address",
					"name": "player",
					"type": "address"
				},
				{
					"indexed": false,
					"internalType": "uint256",
					"name": "bet",
					"type": "uint256"
				},
				{
					"indexed": false,
					"internalType": "bytes32",
					"name": "finalSeed",
					"type": "bytes32"
				}
			],
			"name": "BetPlaced",
			"type": "event"
		},
		{
			"anonymous": false,
			"inputs": [
				{
					"indexed": false,
					"internalType": "address",
					"name": "player",
					"type": "address"
				},
				{
					"indexed": false,
					"internalType": "uint8",
					"name": "card",
					"type": "uint8"
				}
			],
			"name": "CardDrawn",
			"type": "event"
		},
		{
			"anonymous": false,
			"inputs": [
				{
					"indexed": false,
					"internalType": "uint256",
					"name": "tokenID",
					"type": "uint256"
				},
				{
					"indexed": false,
					"internalType": "address",
					"name": "player",
					"type": "address"
				}
			],
			"name": "GameCreated",
			"type": "event"
		},
		{
			"anonymous": false,
			"inputs": [
				{
					"indexed": false,
					"internalType": "address",
					"name": "player",
					"type": "address"
				},
				{
					"indexed": false,
					"internalType": "enum Result",
					"name": "result",
					"type": "uint8"
				}
			],
			"name": "GameEnded",
			"type": "event"
		},
		{
			"inputs": [
				{
					"internalType": "uint256",
					"name": "_playerSeed",
					"type": "uint256"
				}
			],
			"name": "assignToken",
			"outputs": [],
			"stateMutability": "nonpayable",
			"type": "function"
		},
		{
			"inputs": [],
			"name": "hit",
			"outputs": [],
			"stateMutability": "nonpayable",
			"type": "function"
		},
		{
			"inputs": [],
			"name": "nextGameID",
			"outputs": [
				{
					"internalType": "uint256",
					"name": "",
					"type": "uint256"
				}
			],
			"stateMutability": "view",
			"type": "function"
		},
		{
			"inputs": [],
			"name": "oracle",
			"outputs": [
				{
					"internalType": "contract IOracle",
					"name": "",
					"type": "address"
				}
			],
			"stateMutability": "view",
			"type": "function"
		},
		{
			"inputs": [
				{
					"internalType": "uint256",
					"name": "bet",
					"type": "uint256"
				}
			],
			"name": "placeBets",
			"outputs": [],
			"stateMutability": "nonpayable",
			"type": "function"
		},
		{
			"inputs": [],
			"name": "stand",
			"outputs": [],
			"stateMutability": "nonpayable",
			"type": "function"
		},
		{
			"inputs": [],
			"name": "vault",
			"outputs": [
				{
					"internalType": "contract IVault",
					"name": "",
					"type": "address"
				}
			],
			"stateMutability": "view",
			"type": "function"
		}
	]
}